{
	"Distributed Ledger Project 17/Distributed Ledger.sol": {
		"DistributedLedger": {
			"abi": [
				{
					"inputs": [],
					"stateMutability": "nonpayable",
					"type": "constructor"
				},
				{
					"anonymous": false,
					"inputs": [
						{
							"indexed": false,
							"internalType": "string",
							"name": "key",
							"type": "string"
						},
						{
							"indexed": false,
							"internalType": "string",
							"name": "value",
							"type": "string"
						}
					],
					"name": "DataAdded",
					"type": "event"
				},
				{
					"anonymous": false,
					"inputs": [
						{
							"indexed": false,
							"internalType": "address",
							"name": "node",
							"type": "address"
						}
					],
					"name": "NodeAdded",
					"type": "event"
				},
				{
					"inputs": [
						{
							"internalType": "string",
							"name": "key",
							"type": "string"
						},
						{
							"internalType": "string",
							"name": "value",
							"type": "string"
						}
					],
					"name": "addData",
					"outputs": [],
					"stateMutability": "nonpayable",
					"type": "function"
				},
				{
					"inputs": [
						{
							"internalType": "address",
							"name": "node",
							"type": "address"
						}
					],
					"name": "addNode",
					"outputs": [],
					"stateMutability": "nonpayable",
					"type": "function"
				},
				{
					"inputs": [
						{
							"internalType": "string",
							"name": "key",
							"type": "string"
						}
					],
					"name": "getData",
					"outputs": [
						{
							"internalType": "string",
							"name": "",
							"type": "string"
						}
					],
					"stateMutability": "view",
					"type": "function"
				},
				{
					"inputs": [
						{
							"internalType": "address",
							"name": "node",
							"type": "address"
						}
					],
					"name": "removeNode",
					"outputs": [],
					"stateMutability": "nonpayable",
					"type": "function"
				}
			],
			"devdoc": {
				"kind": "dev",
				"methods": {},
				"version": 1
			},
			"evm": {
				"assembly": "    /* \"Distributed Ledger Project 17/Distributed Ledger.sol\":60:1095  contract DistributedLedger {... */\n  mstore(0x40, 0x80)\n    /* \"Distributed Ledger Project 17/Distributed Ledger.sol\":288:382  constructor() {... */\n  callvalue\n  dup1\n  iszero\n  tag_1\n  jumpi\n  0x00\n  dup1\n  revert\ntag_1:\n  pop\n    /* \"Distributed Ledger Project 17/Distributed Ledger.sol\":333:337  true */\n  0x01\n    /* \"Distributed Ledger Project 17/Distributed Ledger.sol\":313:318  nodes */\n  dup1\n    /* \"Distributed Ledger Project 17/Distributed Ledger.sol\":313:330  nodes[msg.sender] */\n  0x00\n    /* \"Distributed Ledger Project 17/Distributed Ledger.sol\":319:329  msg.sender */\n  caller\n    /* \"Distributed Ledger Project 17/Distributed Ledger.sol\":313:330  nodes[msg.sender] */\n  0xffffffffffffffffffffffffffffffffffffffff\n  and\n  0xffffffffffffffffffffffffffffffffffffffff\n  and\n  dup2\n  mstore\n  0x20\n  add\n  swap1\n  dup2\n  mstore\n  0x20\n  add\n  0x00\n  keccak256\n  0x00\n    /* \"Distributed Ledger Project 17/Distributed Ledger.sol\":313:337  nodes[msg.sender] = true */\n  0x0100\n  exp\n  dup2\n  sload\n  dup2\n  0xff\n  mul\n  not\n  and\n  swap1\n  dup4\n  iszero\n  iszero\n  mul\n  or\n  swap1\n  sstore\n  pop\n    /* \"Distributed Ledger Project 17/Distributed Ledger.sol\":353:374  NodeAdded(msg.sender) */\n  0xb25d03aaf308d7291709be1ea28b800463cf3a9a4c4a5555d7333a964c1dfebd\n    /* \"Distributed Ledger Project 17/Distributed Ledger.sol\":363:373  msg.sender */\n  caller\n    /* \"Distributed Ledger Project 17/Distributed Ledger.sol\":353:374  NodeAdded(msg.sender) */\n  mload(0x40)\n  tag_4\n  swap2\n  swap1\n  tag_5\n  jump\t// in\ntag_4:\n  mload(0x40)\n  dup1\n  swap2\n  sub\n  swap1\n  log1\n    /* \"Distributed Ledger Project 17/Distributed Ledger.sol\":60:1095  contract DistributedLedger {... */\n  jump(tag_6)\n    /* \"#utility.yul\":7:133   */\ntag_7:\n    /* \"#utility.yul\":44:51   */\n  0x00\n    /* \"#utility.yul\":84:126   */\n  0xffffffffffffffffffffffffffffffffffffffff\n    /* \"#utility.yul\":77:82   */\n  dup3\n    /* \"#utility.yul\":73:127   */\n  and\n    /* \"#utility.yul\":62:127   */\n  swap1\n  pop\n    /* \"#utility.yul\":7:133   */\n  swap2\n  swap1\n  pop\n  jump\t// out\n    /* \"#utility.yul\":139:235   */\ntag_8:\n    /* \"#utility.yul\":176:183   */\n  0x00\n    /* \"#utility.yul\":205:229   */\n  tag_13\n    /* \"#utility.yul\":223:228   */\n  dup3\n    /* \"#utility.yul\":205:229   */\n  tag_7\n  jump\t// in\ntag_13:\n    /* \"#utility.yul\":194:229   */\n  swap1\n  pop\n    /* \"#utility.yul\":139:235   */\n  swap2\n  swap1\n  pop\n  jump\t// out\n    /* \"#utility.yul\":241:359   */\ntag_9:\n    /* \"#utility.yul\":328:352   */\n  tag_15\n    /* \"#utility.yul\":346:351   */\n  dup2\n    /* \"#utility.yul\":328:352   */\n  tag_8\n  jump\t// in\ntag_15:\n    /* \"#utility.yul\":323:326   */\n  dup3\n    /* \"#utility.yul\":316:353   */\n  mstore\n    /* \"#utility.yul\":241:359   */\n  pop\n  pop\n  jump\t// out\n    /* \"#utility.yul\":365:587   */\ntag_5:\n    /* \"#utility.yul\":458:462   */\n  0x00\n    /* \"#utility.yul\":496:498   */\n  0x20\n    /* \"#utility.yul\":485:494   */\n  dup3\n    /* \"#utility.yul\":481:499   */\n  add\n    /* \"#utility.yul\":473:499   */\n  swap1\n  pop\n    /* \"#utility.yul\":509:580   */\n  tag_17\n    /* \"#utility.yul\":577:578   */\n  0x00\n    /* \"#utility.yul\":566:575   */\n  dup4\n    /* \"#utility.yul\":562:579   */\n  add\n    /* \"#utility.yul\":553:559   */\n  dup5\n    /* \"#utility.yul\":509:580   */\n  tag_9\n  jump\t// in\ntag_17:\n    /* \"#utility.yul\":365:587   */\n  swap3\n  swap2\n  pop\n  pop\n  jump\t// out\n    /* \"Distributed Ledger Project 17/Distributed Ledger.sol\":60:1095  contract DistributedLedger {... */\ntag_6:\n  dataSize(sub_0)\n  dup1\n  dataOffset(sub_0)\n  0x00\n  codecopy\n  0x00\n  return\nstop\n\nsub_0: assembly {\n        /* \"Distributed Ledger Project 17/Distributed Ledger.sol\":60:1095  contract DistributedLedger {... */\n      mstore(0x40, 0x80)\n      callvalue\n      dup1\n      iszero\n      tag_1\n      jumpi\n      0x00\n      dup1\n      revert\n    tag_1:\n      pop\n      jumpi(tag_2, lt(calldatasize, 0x04))\n      shr(0xe0, calldataload(0x00))\n      dup1\n      0x528407e5\n      eq\n      tag_3\n      jumpi\n      dup1\n      0x9d95f1cc\n      eq\n      tag_4\n      jumpi\n      dup1\n      0xae55c888\n      eq\n      tag_5\n      jumpi\n      dup1\n      0xb2b99ec9\n      eq\n      tag_6\n      jumpi\n    tag_2:\n      0x00\n      dup1\n      revert\n        /* \"Distributed Ledger Project 17/Distributed Ledger.sol\":394:603  function addData(string memory key, string memory value) public {... */\n    tag_3:\n      tag_7\n      0x04\n      dup1\n      calldatasize\n      sub\n      dup2\n      add\n      swap1\n      tag_8\n      swap2\n      swap1\n      tag_9\n      jump\t// in\n    tag_8:\n      tag_10\n      jump\t// in\n    tag_7:\n      stop\n        /* \"Distributed Ledger Project 17/Distributed Ledger.sol\":734:919  function addNode(address node) public {... */\n    tag_4:\n      tag_11\n      0x04\n      dup1\n      calldatasize\n      sub\n      dup2\n      add\n      swap1\n      tag_12\n      swap2\n      swap1\n      tag_13\n      jump\t// in\n    tag_12:\n      tag_14\n      jump\t// in\n    tag_11:\n      stop\n        /* \"Distributed Ledger Project 17/Distributed Ledger.sol\":615:722  function getData(string memory key) public view returns (string memory) {... */\n    tag_5:\n      tag_15\n      0x04\n      dup1\n      calldatasize\n      sub\n      dup2\n      add\n      swap1\n      tag_16\n      swap2\n      swap1\n      tag_17\n      jump\t// in\n    tag_16:\n      tag_18\n      jump\t// in\n    tag_15:\n      mload(0x40)\n      tag_19\n      swap2\n      swap1\n      tag_20\n      jump\t// in\n    tag_19:\n      mload(0x40)\n      dup1\n      swap2\n      sub\n      swap1\n      return\n        /* \"Distributed Ledger Project 17/Distributed Ledger.sol\":931:1092  function removeNode(address node) public {... */\n    tag_6:\n      tag_21\n      0x04\n      dup1\n      calldatasize\n      sub\n      dup2\n      add\n      swap1\n      tag_22\n      swap2\n      swap1\n      tag_13\n      jump\t// in\n    tag_22:\n      tag_23\n      jump\t// in\n    tag_21:\n      stop\n        /* \"Distributed Ledger Project 17/Distributed Ledger.sol\":394:603  function addData(string memory key, string memory value) public {... */\n    tag_10:\n        /* \"Distributed Ledger Project 17/Distributed Ledger.sol\":498:502  true */\n      0x01\n        /* \"Distributed Ledger Project 17/Distributed Ledger.sol\":477:502  nodes[msg.sender] == true */\n      iszero\n      iszero\n        /* \"Distributed Ledger Project 17/Distributed Ledger.sol\":477:482  nodes */\n      0x01\n        /* \"Distributed Ledger Project 17/Distributed Ledger.sol\":477:494  nodes[msg.sender] */\n      0x00\n        /* \"Distributed Ledger Project 17/Distributed Ledger.sol\":483:493  msg.sender */\n      caller\n        /* \"Distributed Ledger Project 17/Distributed Ledger.sol\":477:494  nodes[msg.sender] */\n      0xffffffffffffffffffffffffffffffffffffffff\n      and\n      0xffffffffffffffffffffffffffffffffffffffff\n      and\n      dup2\n      mstore\n      0x20\n      add\n      swap1\n      dup2\n      mstore\n      0x20\n      add\n      0x00\n      keccak256\n      0x00\n      swap1\n      sload\n      swap1\n      0x0100\n      exp\n      swap1\n      div\n      0xff\n      and\n        /* \"Distributed Ledger Project 17/Distributed Ledger.sol\":477:502  nodes[msg.sender] == true */\n      iszero\n      iszero\n      eq\n        /* \"Distributed Ledger Project 17/Distributed Ledger.sol\":469:530  require(nodes[msg.sender] == true, \"Only nodes can add data\") */\n      tag_25\n      jumpi\n      mload(0x40)\n      0x08c379a000000000000000000000000000000000000000000000000000000000\n      dup2\n      mstore\n      0x04\n      add\n      tag_26\n      swap1\n      tag_27\n      jump\t// in\n    tag_26:\n      mload(0x40)\n      dup1\n      swap2\n      sub\n      swap1\n      revert\n    tag_25:\n        /* \"Distributed Ledger Project 17/Distributed Ledger.sol\":553:558  value */\n      dup1\n        /* \"Distributed Ledger Project 17/Distributed Ledger.sol\":541:545  data */\n      0x00\n        /* \"Distributed Ledger Project 17/Distributed Ledger.sol\":546:549  key */\n      dup4\n        /* \"Distributed Ledger Project 17/Distributed Ledger.sol\":541:550  data[key] */\n      mload(0x40)\n      tag_28\n      swap2\n      swap1\n      tag_29\n      jump\t// in\n    tag_28:\n      swap1\n      dup2\n      mstore\n      0x20\n      add\n      mload(0x40)\n      dup1\n      swap2\n      sub\n      swap1\n      keccak256\n        /* \"Distributed Ledger Project 17/Distributed Ledger.sol\":541:558  data[key] = value */\n      swap1\n      dup1\n      mload\n      swap1\n      0x20\n      add\n      swap1\n      tag_30\n      swap3\n      swap2\n      swap1\n      tag_31\n      jump\t// in\n    tag_30:\n      pop\n        /* \"Distributed Ledger Project 17/Distributed Ledger.sol\":574:595  DataAdded(key, value) */\n      0xcda7af4159d261959d3e36ac0298a7e541296a6e437a8cbfcbf429720e1d427c\n        /* \"Distributed Ledger Project 17/Distributed Ledger.sol\":584:587  key */\n      dup3\n        /* \"Distributed Ledger Project 17/Distributed Ledger.sol\":589:594  value */\n      dup3\n        /* \"Distributed Ledger Project 17/Distributed Ledger.sol\":574:595  DataAdded(key, value) */\n      mload(0x40)\n      tag_32\n      swap3\n      swap2\n      swap1\n      tag_33\n      jump\t// in\n    tag_32:\n      mload(0x40)\n      dup1\n      swap2\n      sub\n      swap1\n      log1\n        /* \"Distributed Ledger Project 17/Distributed Ledger.sol\":394:603  function addData(string memory key, string memory value) public {... */\n      pop\n      pop\n      jump\t// out\n        /* \"Distributed Ledger Project 17/Distributed Ledger.sol\":734:919  function addNode(address node) public {... */\n    tag_14:\n        /* \"Distributed Ledger Project 17/Distributed Ledger.sol\":812:816  true */\n      0x01\n        /* \"Distributed Ledger Project 17/Distributed Ledger.sol\":791:816  nodes[msg.sender] == true */\n      iszero\n      iszero\n        /* \"Distributed Ledger Project 17/Distributed Ledger.sol\":791:796  nodes */\n      0x01\n        /* \"Distributed Ledger Project 17/Distributed Ledger.sol\":791:808  nodes[msg.sender] */\n      0x00\n        /* \"Distributed Ledger Project 17/Distributed Ledger.sol\":797:807  msg.sender */\n      caller\n        /* \"Distributed Ledger Project 17/Distributed Ledger.sol\":791:808  nodes[msg.sender] */\n      0xffffffffffffffffffffffffffffffffffffffff\n      and\n      0xffffffffffffffffffffffffffffffffffffffff\n      and\n      dup2\n      mstore\n      0x20\n      add\n      swap1\n      dup2\n      mstore\n      0x20\n      add\n      0x00\n      keccak256\n      0x00\n      swap1\n      sload\n      swap1\n      0x0100\n      exp\n      swap1\n      div\n      0xff\n      and\n        /* \"Distributed Ledger Project 17/Distributed Ledger.sol\":791:816  nodes[msg.sender] == true */\n      iszero\n      iszero\n      eq\n        /* \"Distributed Ledger Project 17/Distributed Ledger.sol\":783:851  require(nodes[msg.sender] == true, \"Only nodes can add other nodes\") */\n      tag_35\n      jumpi\n      mload(0x40)\n      0x08c379a000000000000000000000000000000000000000000000000000000000\n      dup2\n      mstore\n      0x04\n      add\n      tag_36\n      swap1\n      tag_37\n      jump\t// in\n    tag_36:\n      mload(0x40)\n      dup1\n      swap2\n      sub\n      swap1\n      revert\n    tag_35:\n        /* \"Distributed Ledger Project 17/Distributed Ledger.sol\":876:880  true */\n      0x01\n        /* \"Distributed Ledger Project 17/Distributed Ledger.sol\":862:867  nodes */\n      dup1\n        /* \"Distributed Ledger Project 17/Distributed Ledger.sol\":862:873  nodes[node] */\n      0x00\n        /* \"Distributed Ledger Project 17/Distributed Ledger.sol\":868:872  node */\n      dup4\n        /* \"Distributed Ledger Project 17/Distributed Ledger.sol\":862:873  nodes[node] */\n      0xffffffffffffffffffffffffffffffffffffffff\n      and\n      0xffffffffffffffffffffffffffffffffffffffff\n      and\n      dup2\n      mstore\n      0x20\n      add\n      swap1\n      dup2\n      mstore\n      0x20\n      add\n      0x00\n      keccak256\n      0x00\n        /* \"Distributed Ledger Project 17/Distributed Ledger.sol\":862:880  nodes[node] = true */\n      0x0100\n      exp\n      dup2\n      sload\n      dup2\n      0xff\n      mul\n      not\n      and\n      swap1\n      dup4\n      iszero\n      iszero\n      mul\n      or\n      swap1\n      sstore\n      pop\n        /* \"Distributed Ledger Project 17/Distributed Ledger.sol\":896:911  NodeAdded(node) */\n      0xb25d03aaf308d7291709be1ea28b800463cf3a9a4c4a5555d7333a964c1dfebd\n        /* \"Distributed Ledger Project 17/Distributed Ledger.sol\":906:910  node */\n      dup2\n        /* \"Distributed Ledger Project 17/Distributed Ledger.sol\":896:911  NodeAdded(node) */\n      mload(0x40)\n      tag_38\n      swap2\n      swap1\n      tag_39\n      jump\t// in\n    tag_38:\n      mload(0x40)\n      dup1\n      swap2\n      sub\n      swap1\n      log1\n        /* \"Distributed Ledger Project 17/Distributed Ledger.sol\":734:919  function addNode(address node) public {... */\n      pop\n      jump\t// out\n        /* \"Distributed Ledger Project 17/Distributed Ledger.sol\":615:722  function getData(string memory key) public view returns (string memory) {... */\n    tag_18:\n        /* \"Distributed Ledger Project 17/Distributed Ledger.sol\":672:685  string memory */\n      0x60\n        /* \"Distributed Ledger Project 17/Distributed Ledger.sol\":705:709  data */\n      0x00\n        /* \"Distributed Ledger Project 17/Distributed Ledger.sol\":710:713  key */\n      dup3\n        /* \"Distributed Ledger Project 17/Distributed Ledger.sol\":705:714  data[key] */\n      mload(0x40)\n      tag_41\n      swap2\n      swap1\n      tag_29\n      jump\t// in\n    tag_41:\n      swap1\n      dup2\n      mstore\n      0x20\n      add\n      mload(0x40)\n      dup1\n      swap2\n      sub\n      swap1\n      keccak256\n        /* \"Distributed Ledger Project 17/Distributed Ledger.sol\":698:714  return data[key] */\n      dup1\n      sload\n      tag_42\n      swap1\n      tag_43\n      jump\t// in\n    tag_42:\n      dup1\n      0x1f\n      add\n      0x20\n      dup1\n      swap2\n      div\n      mul\n      0x20\n      add\n      mload(0x40)\n      swap1\n      dup2\n      add\n      0x40\n      mstore\n      dup1\n      swap3\n      swap2\n      swap1\n      dup2\n      dup2\n      mstore\n      0x20\n      add\n      dup3\n      dup1\n      sload\n      tag_44\n      swap1\n      tag_43\n      jump\t// in\n    tag_44:\n      dup1\n      iszero\n      tag_45\n      jumpi\n      dup1\n      0x1f\n      lt\n      tag_46\n      jumpi\n      0x0100\n      dup1\n      dup4\n      sload\n      div\n      mul\n      dup4\n      mstore\n      swap2\n      0x20\n      add\n      swap2\n      jump(tag_45)\n    tag_46:\n      dup3\n      add\n      swap2\n      swap1\n      0x00\n      mstore\n      keccak256(0x00, 0x20)\n      swap1\n    tag_47:\n      dup2\n      sload\n      dup2\n      mstore\n      swap1\n      0x01\n      add\n      swap1\n      0x20\n      add\n      dup1\n      dup4\n      gt\n      tag_47\n      jumpi\n      dup3\n      swap1\n      sub\n      0x1f\n      and\n      dup3\n      add\n      swap2\n    tag_45:\n      pop\n      pop\n      pop\n      pop\n      pop\n      swap1\n      pop\n        /* \"Distributed Ledger Project 17/Distributed Ledger.sol\":615:722  function getData(string memory key) public view returns (string memory) {... */\n      swap2\n      swap1\n      pop\n      jump\t// out\n        /* \"Distributed Ledger Project 17/Distributed Ledger.sol\":931:1092  function removeNode(address node) public {... */\n    tag_23:\n        /* \"Distributed Ledger Project 17/Distributed Ledger.sol\":1012:1016  true */\n      0x01\n        /* \"Distributed Ledger Project 17/Distributed Ledger.sol\":991:1016  nodes[msg.sender] == true */\n      iszero\n      iszero\n        /* \"Distributed Ledger Project 17/Distributed Ledger.sol\":991:996  nodes */\n      0x01\n        /* \"Distributed Ledger Project 17/Distributed Ledger.sol\":991:1008  nodes[msg.sender] */\n      0x00\n        /* \"Distributed Ledger Project 17/Distributed Ledger.sol\":997:1007  msg.sender */\n      caller\n        /* \"Distributed Ledger Project 17/Distributed Ledger.sol\":991:1008  nodes[msg.sender] */\n      0xffffffffffffffffffffffffffffffffffffffff\n      and\n      0xffffffffffffffffffffffffffffffffffffffff\n      and\n      dup2\n      mstore\n      0x20\n      add\n      swap1\n      dup2\n      mstore\n      0x20\n      add\n      0x00\n      keccak256\n      0x00\n      swap1\n      sload\n      swap1\n      0x0100\n      exp\n      swap1\n      div\n      0xff\n      and\n        /* \"Distributed Ledger Project 17/Distributed Ledger.sol\":991:1016  nodes[msg.sender] == true */\n      iszero\n      iszero\n      eq\n        /* \"Distributed Ledger Project 17/Distributed Ledger.sol\":983:1054  require(nodes[msg.sender] == true, \"Only nodes can remove other nodes\") */\n      tag_49\n      jumpi\n      mload(0x40)\n      0x08c379a000000000000000000000000000000000000000000000000000000000\n      dup2\n      mstore\n      0x04\n      add\n      tag_50\n      swap1\n      tag_51\n      jump\t// in\n    tag_50:\n      mload(0x40)\n      dup1\n      swap2\n      sub\n      swap1\n      revert\n    tag_49:\n        /* \"Distributed Ledger Project 17/Distributed Ledger.sol\":1079:1084  false */\n      0x00\n        /* \"Distributed Ledger Project 17/Distributed Ledger.sol\":1065:1070  nodes */\n      0x01\n        /* \"Distributed Ledger Project 17/Distributed Ledger.sol\":1065:1076  nodes[node] */\n      0x00\n        /* \"Distributed Ledger Project 17/Distributed Ledger.sol\":1071:1075  node */\n      dup4\n        /* \"Distributed Ledger Project 17/Distributed Ledger.sol\":1065:1076  nodes[node] */\n      0xffffffffffffffffffffffffffffffffffffffff\n      and\n      0xffffffffffffffffffffffffffffffffffffffff\n      and\n      dup2\n      mstore\n      0x20\n      add\n      swap1\n      dup2\n      mstore\n      0x20\n      add\n      0x00\n      keccak256\n      0x00\n        /* \"Distributed Ledger Project 17/Distributed Ledger.sol\":1065:1084  nodes[node] = false */\n      0x0100\n      exp\n      dup2\n      sload\n      dup2\n      0xff\n      mul\n      not\n      and\n      swap1\n      dup4\n      iszero\n      iszero\n      mul\n      or\n      swap1\n      sstore\n      pop\n        /* \"Distributed Ledger Project 17/Distributed Ledger.sol\":931:1092  function removeNode(address node) public {... */\n      pop\n      jump\t// out\n    tag_31:\n      dup3\n      dup1\n      sload\n      tag_52\n      swap1\n      tag_43\n      jump\t// in\n    tag_52:\n      swap1\n      0x00\n      mstore\n      keccak256(0x00, 0x20)\n      swap1\n      0x1f\n      add\n      0x20\n      swap1\n      div\n      dup2\n      add\n      swap3\n      dup3\n      tag_54\n      jumpi\n      0x00\n      dup6\n      sstore\n      jump(tag_53)\n    tag_54:\n      dup3\n      0x1f\n      lt\n      tag_55\n      jumpi\n      dup1\n      mload\n      not(0xff)\n      and\n      dup4\n      dup1\n      add\n      or\n      dup6\n      sstore\n      jump(tag_53)\n    tag_55:\n      dup3\n      dup1\n      add\n      0x01\n      add\n      dup6\n      sstore\n      dup3\n      iszero\n      tag_53\n      jumpi\n      swap2\n      dup3\n      add\n    tag_56:\n      dup3\n      dup2\n      gt\n      iszero\n      tag_57\n      jumpi\n      dup3\n      mload\n      dup3\n      sstore\n      swap2\n      0x20\n      add\n      swap2\n      swap1\n      0x01\n      add\n      swap1\n      jump(tag_56)\n    tag_57:\n    tag_53:\n      pop\n      swap1\n      pop\n      tag_58\n      swap2\n      swap1\n      tag_59\n      jump\t// in\n    tag_58:\n      pop\n      swap1\n      jump\t// out\n    tag_59:\n    tag_60:\n      dup1\n      dup3\n      gt\n      iszero\n      tag_61\n      jumpi\n      0x00\n      dup2\n      0x00\n      swap1\n      sstore\n      pop\n      0x01\n      add\n      jump(tag_60)\n    tag_61:\n      pop\n      swap1\n      jump\t// out\n        /* \"#utility.yul\":7:82   */\n    tag_62:\n        /* \"#utility.yul\":40:46   */\n      0x00\n        /* \"#utility.yul\":73:75   */\n      0x40\n        /* \"#utility.yul\":67:76   */\n      mload\n        /* \"#utility.yul\":57:76   */\n      swap1\n      pop\n        /* \"#utility.yul\":7:82   */\n      swap1\n      jump\t// out\n        /* \"#utility.yul\":88:205   */\n    tag_63:\n        /* \"#utility.yul\":197:198   */\n      0x00\n        /* \"#utility.yul\":194:195   */\n      dup1\n        /* \"#utility.yul\":187:199   */\n      revert\n        /* \"#utility.yul\":211:328   */\n    tag_64:\n        /* \"#utility.yul\":320:321   */\n      0x00\n        /* \"#utility.yul\":317:318   */\n      dup1\n        /* \"#utility.yul\":310:322   */\n      revert\n        /* \"#utility.yul\":334:451   */\n    tag_65:\n        /* \"#utility.yul\":443:444   */\n      0x00\n        /* \"#utility.yul\":440:441   */\n      dup1\n        /* \"#utility.yul\":433:445   */\n      revert\n        /* \"#utility.yul\":457:574   */\n    tag_66:\n        /* \"#utility.yul\":566:567   */\n      0x00\n        /* \"#utility.yul\":563:564   */\n      dup1\n        /* \"#utility.yul\":556:568   */\n      revert\n        /* \"#utility.yul\":580:682   */\n    tag_67:\n        /* \"#utility.yul\":621:627   */\n      0x00\n        /* \"#utility.yul\":672:674   */\n      0x1f\n        /* \"#utility.yul\":668:675   */\n      not\n        /* \"#utility.yul\":663:665   */\n      0x1f\n        /* \"#utility.yul\":656:661   */\n      dup4\n        /* \"#utility.yul\":652:666   */\n      add\n        /* \"#utility.yul\":648:676   */\n      and\n        /* \"#utility.yul\":638:676   */\n      swap1\n      pop\n        /* \"#utility.yul\":580:682   */\n      swap2\n      swap1\n      pop\n      jump\t// out\n        /* \"#utility.yul\":688:868   */\n    tag_68:\n        /* \"#utility.yul\":736:813   */\n      0x4e487b7100000000000000000000000000000000000000000000000000000000\n        /* \"#utility.yul\":733:734   */\n      0x00\n        /* \"#utility.yul\":726:814   */\n      mstore\n        /* \"#utility.yul\":833:837   */\n      0x41\n        /* \"#utility.yul\":830:831   */\n      0x04\n        /* \"#utility.yul\":823:838   */\n      mstore\n        /* \"#utility.yul\":857:861   */\n      0x24\n        /* \"#utility.yul\":854:855   */\n      0x00\n        /* \"#utility.yul\":847:862   */\n      revert\n        /* \"#utility.yul\":874:1155   */\n    tag_69:\n        /* \"#utility.yul\":957:984   */\n      tag_102\n        /* \"#utility.yul\":979:983   */\n      dup3\n        /* \"#utility.yul\":957:984   */\n      tag_67\n      jump\t// in\n    tag_102:\n        /* \"#utility.yul\":949:955   */\n      dup2\n        /* \"#utility.yul\":945:985   */\n      add\n        /* \"#utility.yul\":1087:1093   */\n      dup2\n        /* \"#utility.yul\":1075:1085   */\n      dup2\n        /* \"#utility.yul\":1072:1094   */\n      lt\n        /* \"#utility.yul\":1051:1069   */\n      0xffffffffffffffff\n        /* \"#utility.yul\":1039:1049   */\n      dup3\n        /* \"#utility.yul\":1036:1070   */\n      gt\n        /* \"#utility.yul\":1033:1095   */\n      or\n        /* \"#utility.yul\":1030:1118   */\n      iszero\n      tag_103\n      jumpi\n        /* \"#utility.yul\":1098:1116   */\n      tag_104\n      tag_68\n      jump\t// in\n    tag_104:\n        /* \"#utility.yul\":1030:1118   */\n    tag_103:\n        /* \"#utility.yul\":1138:1148   */\n      dup1\n        /* \"#utility.yul\":1134:1136   */\n      0x40\n        /* \"#utility.yul\":1127:1149   */\n      mstore\n        /* \"#utility.yul\":917:1155   */\n      pop\n        /* \"#utility.yul\":874:1155   */\n      pop\n      pop\n      jump\t// out\n        /* \"#utility.yul\":1161:1290   */\n    tag_70:\n        /* \"#utility.yul\":1195:1201   */\n      0x00\n        /* \"#utility.yul\":1222:1242   */\n      tag_106\n      tag_62\n      jump\t// in\n    tag_106:\n        /* \"#utility.yul\":1212:1242   */\n      swap1\n      pop\n        /* \"#utility.yul\":1251:1284   */\n      tag_107\n        /* \"#utility.yul\":1279:1283   */\n      dup3\n        /* \"#utility.yul\":1271:1277   */\n      dup3\n        /* \"#utility.yul\":1251:1284   */\n      tag_69\n      jump\t// in\n    tag_107:\n        /* \"#utility.yul\":1161:1290   */\n      swap2\n      swap1\n      pop\n      jump\t// out\n        /* \"#utility.yul\":1296:1604   */\n    tag_71:\n        /* \"#utility.yul\":1358:1362   */\n      0x00\n        /* \"#utility.yul\":1448:1466   */\n      0xffffffffffffffff\n        /* \"#utility.yul\":1440:1446   */\n      dup3\n        /* \"#utility.yul\":1437:1467   */\n      gt\n        /* \"#utility.yul\":1434:1490   */\n      iszero\n      tag_109\n      jumpi\n        /* \"#utility.yul\":1470:1488   */\n      tag_110\n      tag_68\n      jump\t// in\n    tag_110:\n        /* \"#utility.yul\":1434:1490   */\n    tag_109:\n        /* \"#utility.yul\":1508:1537   */\n      tag_111\n        /* \"#utility.yul\":1530:1536   */\n      dup3\n        /* \"#utility.yul\":1508:1537   */\n      tag_67\n      jump\t// in\n    tag_111:\n        /* \"#utility.yul\":1500:1537   */\n      swap1\n      pop\n        /* \"#utility.yul\":1592:1596   */\n      0x20\n        /* \"#utility.yul\":1586:1590   */\n      dup2\n        /* \"#utility.yul\":1582:1597   */\n      add\n        /* \"#utility.yul\":1574:1597   */\n      swap1\n      pop\n        /* \"#utility.yul\":1296:1604   */\n      swap2\n      swap1\n      pop\n      jump\t// out\n        /* \"#utility.yul\":1610:1764   */\n    tag_72:\n        /* \"#utility.yul\":1694:1700   */\n      dup3\n        /* \"#utility.yul\":1689:1692   */\n      dup2\n        /* \"#utility.yul\":1684:1687   */\n      dup4\n        /* \"#utility.yul\":1671:1701   */\n      calldatacopy\n        /* \"#utility.yul\":1756:1757   */\n      0x00\n        /* \"#utility.yul\":1747:1753   */\n      dup4\n        /* \"#utility.yul\":1742:1745   */\n      dup4\n        /* \"#utility.yul\":1738:1754   */\n      add\n        /* \"#utility.yul\":1731:1758   */\n      mstore\n        /* \"#utility.yul\":1610:1764   */\n      pop\n      pop\n      pop\n      jump\t// out\n        /* \"#utility.yul\":1770:2182   */\n    tag_73:\n        /* \"#utility.yul\":1848:1853   */\n      0x00\n        /* \"#utility.yul\":1873:1939   */\n      tag_114\n        /* \"#utility.yul\":1889:1938   */\n      tag_115\n        /* \"#utility.yul\":1931:1937   */\n      dup5\n        /* \"#utility.yul\":1889:1938   */\n      tag_71\n      jump\t// in\n    tag_115:\n        /* \"#utility.yul\":1873:1939   */\n      tag_70\n      jump\t// in\n    tag_114:\n        /* \"#utility.yul\":1864:1939   */\n      swap1\n      pop\n        /* \"#utility.yul\":1962:1968   */\n      dup3\n        /* \"#utility.yul\":1955:1960   */\n      dup2\n        /* \"#utility.yul\":1948:1969   */\n      mstore\n        /* \"#utility.yul\":2000:2004   */\n      0x20\n        /* \"#utility.yul\":1993:1998   */\n      dup2\n        /* \"#utility.yul\":1989:2005   */\n      add\n        /* \"#utility.yul\":2038:2041   */\n      dup5\n        /* \"#utility.yul\":2029:2035   */\n      dup5\n        /* \"#utility.yul\":2024:2027   */\n      dup5\n        /* \"#utility.yul\":2020:2036   */\n      add\n        /* \"#utility.yul\":2017:2042   */\n      gt\n        /* \"#utility.yul\":2014:2126   */\n      iszero\n      tag_116\n      jumpi\n        /* \"#utility.yul\":2045:2124   */\n      tag_117\n      tag_66\n      jump\t// in\n    tag_117:\n        /* \"#utility.yul\":2014:2126   */\n    tag_116:\n        /* \"#utility.yul\":2135:2176   */\n      tag_118\n        /* \"#utility.yul\":2169:2175   */\n      dup5\n        /* \"#utility.yul\":2164:2167   */\n      dup3\n        /* \"#utility.yul\":2159:2162   */\n      dup6\n        /* \"#utility.yul\":2135:2176   */\n      tag_72\n      jump\t// in\n    tag_118:\n        /* \"#utility.yul\":1854:2182   */\n      pop\n        /* \"#utility.yul\":1770:2182   */\n      swap4\n      swap3\n      pop\n      pop\n      pop\n      jump\t// out\n        /* \"#utility.yul\":2202:2542   */\n    tag_74:\n        /* \"#utility.yul\":2258:2263   */\n      0x00\n        /* \"#utility.yul\":2307:2310   */\n      dup3\n        /* \"#utility.yul\":2300:2304   */\n      0x1f\n        /* \"#utility.yul\":2292:2298   */\n      dup4\n        /* \"#utility.yul\":2288:2305   */\n      add\n        /* \"#utility.yul\":2284:2311   */\n      slt\n        /* \"#utility.yul\":2274:2396   */\n      tag_120\n      jumpi\n        /* \"#utility.yul\":2315:2394   */\n      tag_121\n      tag_65\n      jump\t// in\n    tag_121:\n        /* \"#utility.yul\":2274:2396   */\n    tag_120:\n        /* \"#utility.yul\":2432:2438   */\n      dup2\n        /* \"#utility.yul\":2419:2439   */\n      calldataload\n        /* \"#utility.yul\":2457:2536   */\n      tag_122\n        /* \"#utility.yul\":2532:2535   */\n      dup5\n        /* \"#utility.yul\":2524:2530   */\n      dup3\n        /* \"#utility.yul\":2517:2521   */\n      0x20\n        /* \"#utility.yul\":2509:2515   */\n      dup7\n        /* \"#utility.yul\":2505:2522   */\n      add\n        /* \"#utility.yul\":2457:2536   */\n      tag_73\n      jump\t// in\n    tag_122:\n        /* \"#utility.yul\":2448:2536   */\n      swap2\n      pop\n        /* \"#utility.yul\":2264:2542   */\n      pop\n        /* \"#utility.yul\":2202:2542   */\n      swap3\n      swap2\n      pop\n      pop\n      jump\t// out\n        /* \"#utility.yul\":2548:3382   */\n    tag_9:\n        /* \"#utility.yul\":2636:2642   */\n      0x00\n        /* \"#utility.yul\":2644:2650   */\n      dup1\n        /* \"#utility.yul\":2693:2695   */\n      0x40\n        /* \"#utility.yul\":2681:2690   */\n      dup4\n        /* \"#utility.yul\":2672:2679   */\n      dup6\n        /* \"#utility.yul\":2668:2691   */\n      sub\n        /* \"#utility.yul\":2664:2696   */\n      slt\n        /* \"#utility.yul\":2661:2780   */\n      iszero\n      tag_124\n      jumpi\n        /* \"#utility.yul\":2699:2778   */\n      tag_125\n      tag_63\n      jump\t// in\n    tag_125:\n        /* \"#utility.yul\":2661:2780   */\n    tag_124:\n        /* \"#utility.yul\":2847:2848   */\n      0x00\n        /* \"#utility.yul\":2836:2845   */\n      dup4\n        /* \"#utility.yul\":2832:2849   */\n      add\n        /* \"#utility.yul\":2819:2850   */\n      calldataload\n        /* \"#utility.yul\":2877:2895   */\n      0xffffffffffffffff\n        /* \"#utility.yul\":2869:2875   */\n      dup2\n        /* \"#utility.yul\":2866:2896   */\n      gt\n        /* \"#utility.yul\":2863:2980   */\n      iszero\n      tag_126\n      jumpi\n        /* \"#utility.yul\":2899:2978   */\n      tag_127\n      tag_64\n      jump\t// in\n    tag_127:\n        /* \"#utility.yul\":2863:2980   */\n    tag_126:\n        /* \"#utility.yul\":3004:3067   */\n      tag_128\n        /* \"#utility.yul\":3059:3066   */\n      dup6\n        /* \"#utility.yul\":3050:3056   */\n      dup3\n        /* \"#utility.yul\":3039:3048   */\n      dup7\n        /* \"#utility.yul\":3035:3057   */\n      add\n        /* \"#utility.yul\":3004:3067   */\n      tag_74\n      jump\t// in\n    tag_128:\n        /* \"#utility.yul\":2994:3067   */\n      swap3\n      pop\n        /* \"#utility.yul\":2790:3077   */\n      pop\n        /* \"#utility.yul\":3144:3146   */\n      0x20\n        /* \"#utility.yul\":3133:3142   */\n      dup4\n        /* \"#utility.yul\":3129:3147   */\n      add\n        /* \"#utility.yul\":3116:3148   */\n      calldataload\n        /* \"#utility.yul\":3175:3193   */\n      0xffffffffffffffff\n        /* \"#utility.yul\":3167:3173   */\n      dup2\n        /* \"#utility.yul\":3164:3194   */\n      gt\n        /* \"#utility.yul\":3161:3278   */\n      iszero\n      tag_129\n      jumpi\n        /* \"#utility.yul\":3197:3276   */\n      tag_130\n      tag_64\n      jump\t// in\n    tag_130:\n        /* \"#utility.yul\":3161:3278   */\n    tag_129:\n        /* \"#utility.yul\":3302:3365   */\n      tag_131\n        /* \"#utility.yul\":3357:3364   */\n      dup6\n        /* \"#utility.yul\":3348:3354   */\n      dup3\n        /* \"#utility.yul\":3337:3346   */\n      dup7\n        /* \"#utility.yul\":3333:3355   */\n      add\n        /* \"#utility.yul\":3302:3365   */\n      tag_74\n      jump\t// in\n    tag_131:\n        /* \"#utility.yul\":3292:3365   */\n      swap2\n      pop\n        /* \"#utility.yul\":3087:3375   */\n      pop\n        /* \"#utility.yul\":2548:3382   */\n      swap3\n      pop\n      swap3\n      swap1\n      pop\n      jump\t// out\n        /* \"#utility.yul\":3388:3514   */\n    tag_75:\n        /* \"#utility.yul\":3425:3432   */\n      0x00\n        /* \"#utility.yul\":3465:3507   */\n      0xffffffffffffffffffffffffffffffffffffffff\n        /* \"#utility.yul\":3458:3463   */\n      dup3\n        /* \"#utility.yul\":3454:3508   */\n      and\n        /* \"#utility.yul\":3443:3508   */\n      swap1\n      pop\n        /* \"#utility.yul\":3388:3514   */\n      swap2\n      swap1\n      pop\n      jump\t// out\n        /* \"#utility.yul\":3520:3616   */\n    tag_76:\n        /* \"#utility.yul\":3557:3564   */\n      0x00\n        /* \"#utility.yul\":3586:3610   */\n      tag_134\n        /* \"#utility.yul\":3604:3609   */\n      dup3\n        /* \"#utility.yul\":3586:3610   */\n      tag_75\n      jump\t// in\n    tag_134:\n        /* \"#utility.yul\":3575:3610   */\n      swap1\n      pop\n        /* \"#utility.yul\":3520:3616   */\n      swap2\n      swap1\n      pop\n      jump\t// out\n        /* \"#utility.yul\":3622:3744   */\n    tag_77:\n        /* \"#utility.yul\":3695:3719   */\n      tag_136\n        /* \"#utility.yul\":3713:3718   */\n      dup2\n        /* \"#utility.yul\":3695:3719   */\n      tag_76\n      jump\t// in\n    tag_136:\n        /* \"#utility.yul\":3688:3693   */\n      dup2\n        /* \"#utility.yul\":3685:3720   */\n      eq\n        /* \"#utility.yul\":3675:3738   */\n      tag_137\n      jumpi\n        /* \"#utility.yul\":3734:3735   */\n      0x00\n        /* \"#utility.yul\":3731:3732   */\n      dup1\n        /* \"#utility.yul\":3724:3736   */\n      revert\n        /* \"#utility.yul\":3675:3738   */\n    tag_137:\n        /* \"#utility.yul\":3622:3744   */\n      pop\n      jump\t// out\n        /* \"#utility.yul\":3750:3889   */\n    tag_78:\n        /* \"#utility.yul\":3796:3801   */\n      0x00\n        /* \"#utility.yul\":3834:3840   */\n      dup2\n        /* \"#utility.yul\":3821:3841   */\n      calldataload\n        /* \"#utility.yul\":3812:3841   */\n      swap1\n      pop\n        /* \"#utility.yul\":3850:3883   */\n      tag_139\n        /* \"#utility.yul\":3877:3882   */\n      dup2\n        /* \"#utility.yul\":3850:3883   */\n      tag_77\n      jump\t// in\n    tag_139:\n        /* \"#utility.yul\":3750:3889   */\n      swap3\n      swap2\n      pop\n      pop\n      jump\t// out\n        /* \"#utility.yul\":3895:4224   */\n    tag_13:\n        /* \"#utility.yul\":3954:3960   */\n      0x00\n        /* \"#utility.yul\":4003:4005   */\n      0x20\n        /* \"#utility.yul\":3991:4000   */\n      dup3\n        /* \"#utility.yul\":3982:3989   */\n      dup5\n        /* \"#utility.yul\":3978:4001   */\n      sub\n        /* \"#utility.yul\":3974:4006   */\n      slt\n        /* \"#utility.yul\":3971:4090   */\n      iszero\n      tag_141\n      jumpi\n        /* \"#utility.yul\":4009:4088   */\n      tag_142\n      tag_63\n      jump\t// in\n    tag_142:\n        /* \"#utility.yul\":3971:4090   */\n    tag_141:\n        /* \"#utility.yul\":4129:4130   */\n      0x00\n        /* \"#utility.yul\":4154:4207   */\n      tag_143\n        /* \"#utility.yul\":4199:4206   */\n      dup5\n        /* \"#utility.yul\":4190:4196   */\n      dup3\n        /* \"#utility.yul\":4179:4188   */\n      dup6\n        /* \"#utility.yul\":4175:4197   */\n      add\n        /* \"#utility.yul\":4154:4207   */\n      tag_78\n      jump\t// in\n    tag_143:\n        /* \"#utility.yul\":4144:4207   */\n      swap2\n      pop\n        /* \"#utility.yul\":4100:4217   */\n      pop\n        /* \"#utility.yul\":3895:4224   */\n      swap3\n      swap2\n      pop\n      pop\n      jump\t// out\n        /* \"#utility.yul\":4230:4739   */\n    tag_17:\n        /* \"#utility.yul\":4299:4305   */\n      0x00\n        /* \"#utility.yul\":4348:4350   */\n      0x20\n        /* \"#utility.yul\":4336:4345   */\n      dup3\n        /* \"#utility.yul\":4327:4334   */\n      dup5\n        /* \"#utility.yul\":4323:4346   */\n      sub\n        /* \"#utility.yul\":4319:4351   */\n      slt\n        /* \"#utility.yul\":4316:4435   */\n      iszero\n      tag_145\n      jumpi\n        /* \"#utility.yul\":4354:4433   */\n      tag_146\n      tag_63\n      jump\t// in\n    tag_146:\n        /* \"#utility.yul\":4316:4435   */\n    tag_145:\n        /* \"#utility.yul\":4502:4503   */\n      0x00\n        /* \"#utility.yul\":4491:4500   */\n      dup3\n        /* \"#utility.yul\":4487:4504   */\n      add\n        /* \"#utility.yul\":4474:4505   */\n      calldataload\n        /* \"#utility.yul\":4532:4550   */\n      0xffffffffffffffff\n        /* \"#utility.yul\":4524:4530   */\n      dup2\n        /* \"#utility.yul\":4521:4551   */\n      gt\n        /* \"#utility.yul\":4518:4635   */\n      iszero\n      tag_147\n      jumpi\n        /* \"#utility.yul\":4554:4633   */\n      tag_148\n      tag_64\n      jump\t// in\n    tag_148:\n        /* \"#utility.yul\":4518:4635   */\n    tag_147:\n        /* \"#utility.yul\":4659:4722   */\n      tag_149\n        /* \"#utility.yul\":4714:4721   */\n      dup5\n        /* \"#utility.yul\":4705:4711   */\n      dup3\n        /* \"#utility.yul\":4694:4703   */\n      dup6\n        /* \"#utility.yul\":4690:4712   */\n      add\n        /* \"#utility.yul\":4659:4722   */\n      tag_74\n      jump\t// in\n    tag_149:\n        /* \"#utility.yul\":4649:4722   */\n      swap2\n      pop\n        /* \"#utility.yul\":4445:4732   */\n      pop\n        /* \"#utility.yul\":4230:4739   */\n      swap3\n      swap2\n      pop\n      pop\n      jump\t// out\n        /* \"#utility.yul\":4745:4844   */\n    tag_79:\n        /* \"#utility.yul\":4797:4803   */\n      0x00\n        /* \"#utility.yul\":4831:4836   */\n      dup2\n        /* \"#utility.yul\":4825:4837   */\n      mload\n        /* \"#utility.yul\":4815:4837   */\n      swap1\n      pop\n        /* \"#utility.yul\":4745:4844   */\n      swap2\n      swap1\n      pop\n      jump\t// out\n        /* \"#utility.yul\":4850:5019   */\n    tag_80:\n        /* \"#utility.yul\":4934:4945   */\n      0x00\n        /* \"#utility.yul\":4968:4974   */\n      dup3\n        /* \"#utility.yul\":4963:4966   */\n      dup3\n        /* \"#utility.yul\":4956:4975   */\n      mstore\n        /* \"#utility.yul\":5008:5012   */\n      0x20\n        /* \"#utility.yul\":5003:5006   */\n      dup3\n        /* \"#utility.yul\":4999:5013   */\n      add\n        /* \"#utility.yul\":4984:5013   */\n      swap1\n      pop\n        /* \"#utility.yul\":4850:5019   */\n      swap3\n      swap2\n      pop\n      pop\n      jump\t// out\n        /* \"#utility.yul\":5025:5332   */\n    tag_81:\n        /* \"#utility.yul\":5093:5094   */\n      0x00\n        /* \"#utility.yul\":5103:5216   */\n    tag_153:\n        /* \"#utility.yul\":5117:5123   */\n      dup4\n        /* \"#utility.yul\":5114:5115   */\n      dup2\n        /* \"#utility.yul\":5111:5124   */\n      lt\n        /* \"#utility.yul\":5103:5216   */\n      iszero\n      tag_155\n      jumpi\n        /* \"#utility.yul\":5202:5203   */\n      dup1\n        /* \"#utility.yul\":5197:5200   */\n      dup3\n        /* \"#utility.yul\":5193:5204   */\n      add\n        /* \"#utility.yul\":5187:5205   */\n      mload\n        /* \"#utility.yul\":5183:5184   */\n      dup2\n        /* \"#utility.yul\":5178:5181   */\n      dup5\n        /* \"#utility.yul\":5174:5185   */\n      add\n        /* \"#utility.yul\":5167:5206   */\n      mstore\n        /* \"#utility.yul\":5139:5141   */\n      0x20\n        /* \"#utility.yul\":5136:5137   */\n      dup2\n        /* \"#utility.yul\":5132:5142   */\n      add\n        /* \"#utility.yul\":5127:5142   */\n      swap1\n      pop\n        /* \"#utility.yul\":5103:5216   */\n      jump(tag_153)\n    tag_155:\n        /* \"#utility.yul\":5234:5240   */\n      dup4\n        /* \"#utility.yul\":5231:5232   */\n      dup2\n        /* \"#utility.yul\":5228:5241   */\n      gt\n        /* \"#utility.yul\":5225:5326   */\n      iszero\n      tag_156\n      jumpi\n        /* \"#utility.yul\":5314:5315   */\n      0x00\n        /* \"#utility.yul\":5305:5311   */\n      dup5\n        /* \"#utility.yul\":5300:5303   */\n      dup5\n        /* \"#utility.yul\":5296:5312   */\n      add\n        /* \"#utility.yul\":5289:5316   */\n      mstore\n        /* \"#utility.yul\":5225:5326   */\n    tag_156:\n        /* \"#utility.yul\":5074:5332   */\n      pop\n        /* \"#utility.yul\":5025:5332   */\n      pop\n      pop\n      pop\n      jump\t// out\n        /* \"#utility.yul\":5338:5702   */\n    tag_82:\n        /* \"#utility.yul\":5426:5429   */\n      0x00\n        /* \"#utility.yul\":5454:5493   */\n      tag_158\n        /* \"#utility.yul\":5487:5492   */\n      dup3\n        /* \"#utility.yul\":5454:5493   */\n      tag_79\n      jump\t// in\n    tag_158:\n        /* \"#utility.yul\":5509:5580   */\n      tag_159\n        /* \"#utility.yul\":5573:5579   */\n      dup2\n        /* \"#utility.yul\":5568:5571   */\n      dup6\n        /* \"#utility.yul\":5509:5580   */\n      tag_80\n      jump\t// in\n    tag_159:\n        /* \"#utility.yul\":5502:5580   */\n      swap4\n      pop\n        /* \"#utility.yul\":5589:5641   */\n      tag_160\n        /* \"#utility.yul\":5634:5640   */\n      dup2\n        /* \"#utility.yul\":5629:5632   */\n      dup6\n        /* \"#utility.yul\":5622:5626   */\n      0x20\n        /* \"#utility.yul\":5615:5620   */\n      dup7\n        /* \"#utility.yul\":5611:5627   */\n      add\n        /* \"#utility.yul\":5589:5641   */\n      tag_81\n      jump\t// in\n    tag_160:\n        /* \"#utility.yul\":5666:5695   */\n      tag_161\n        /* \"#utility.yul\":5688:5694   */\n      dup2\n        /* \"#utility.yul\":5666:5695   */\n      tag_67\n      jump\t// in\n    tag_161:\n        /* \"#utility.yul\":5661:5664   */\n      dup5\n        /* \"#utility.yul\":5657:5696   */\n      add\n        /* \"#utility.yul\":5650:5696   */\n      swap2\n      pop\n        /* \"#utility.yul\":5430:5702   */\n      pop\n        /* \"#utility.yul\":5338:5702   */\n      swap3\n      swap2\n      pop\n      pop\n      jump\t// out\n        /* \"#utility.yul\":5708:6021   */\n    tag_20:\n        /* \"#utility.yul\":5821:5825   */\n      0x00\n        /* \"#utility.yul\":5859:5861   */\n      0x20\n        /* \"#utility.yul\":5848:5857   */\n      dup3\n        /* \"#utility.yul\":5844:5862   */\n      add\n        /* \"#utility.yul\":5836:5862   */\n      swap1\n      pop\n        /* \"#utility.yul\":5908:5917   */\n      dup2\n        /* \"#utility.yul\":5902:5906   */\n      dup2\n        /* \"#utility.yul\":5898:5918   */\n      sub\n        /* \"#utility.yul\":5894:5895   */\n      0x00\n        /* \"#utility.yul\":5883:5892   */\n      dup4\n        /* \"#utility.yul\":5879:5896   */\n      add\n        /* \"#utility.yul\":5872:5919   */\n      mstore\n        /* \"#utility.yul\":5936:6014   */\n      tag_163\n        /* \"#utility.yul\":6009:6013   */\n      dup2\n        /* \"#utility.yul\":6000:6006   */\n      dup5\n        /* \"#utility.yul\":5936:6014   */\n      tag_82\n      jump\t// in\n    tag_163:\n        /* \"#utility.yul\":5928:6014   */\n      swap1\n      pop\n        /* \"#utility.yul\":5708:6021   */\n      swap3\n      swap2\n      pop\n      pop\n      jump\t// out\n        /* \"#utility.yul\":6027:6200   */\n    tag_83:\n        /* \"#utility.yul\":6167:6192   */\n      0x4f6e6c79206e6f6465732063616e206164642064617461000000000000000000\n        /* \"#utility.yul\":6163:6164   */\n      0x00\n        /* \"#utility.yul\":6155:6161   */\n      dup3\n        /* \"#utility.yul\":6151:6165   */\n      add\n        /* \"#utility.yul\":6144:6193   */\n      mstore\n        /* \"#utility.yul\":6027:6200   */\n      pop\n      jump\t// out\n        /* \"#utility.yul\":6206:6572   */\n    tag_84:\n        /* \"#utility.yul\":6348:6351   */\n      0x00\n        /* \"#utility.yul\":6369:6436   */\n      tag_166\n        /* \"#utility.yul\":6433:6435   */\n      0x17\n        /* \"#utility.yul\":6428:6431   */\n      dup4\n        /* \"#utility.yul\":6369:6436   */\n      tag_80\n      jump\t// in\n    tag_166:\n        /* \"#utility.yul\":6362:6436   */\n      swap2\n      pop\n        /* \"#utility.yul\":6445:6538   */\n      tag_167\n        /* \"#utility.yul\":6534:6537   */\n      dup3\n        /* \"#utility.yul\":6445:6538   */\n      tag_83\n      jump\t// in\n    tag_167:\n        /* \"#utility.yul\":6563:6565   */\n      0x20\n        /* \"#utility.yul\":6558:6561   */\n      dup3\n        /* \"#utility.yul\":6554:6566   */\n      add\n        /* \"#utility.yul\":6547:6566   */\n      swap1\n      pop\n        /* \"#utility.yul\":6206:6572   */\n      swap2\n      swap1\n      pop\n      jump\t// out\n        /* \"#utility.yul\":6578:6997   */\n    tag_27:\n        /* \"#utility.yul\":6744:6748   */\n      0x00\n        /* \"#utility.yul\":6782:6784   */\n      0x20\n        /* \"#utility.yul\":6771:6780   */\n      dup3\n        /* \"#utility.yul\":6767:6785   */\n      add\n        /* \"#utility.yul\":6759:6785   */\n      swap1\n      pop\n        /* \"#utility.yul\":6831:6840   */\n      dup2\n        /* \"#utility.yul\":6825:6829   */\n      dup2\n        /* \"#utility.yul\":6821:6841   */\n      sub\n        /* \"#utility.yul\":6817:6818   */\n      0x00\n        /* \"#utility.yul\":6806:6815   */\n      dup4\n        /* \"#utility.yul\":6802:6819   */\n      add\n        /* \"#utility.yul\":6795:6842   */\n      mstore\n        /* \"#utility.yul\":6859:6990   */\n      tag_169\n        /* \"#utility.yul\":6985:6989   */\n      dup2\n        /* \"#utility.yul\":6859:6990   */\n      tag_84\n      jump\t// in\n    tag_169:\n        /* \"#utility.yul\":6851:6990   */\n      swap1\n      pop\n        /* \"#utility.yul\":6578:6997   */\n      swap2\n      swap1\n      pop\n      jump\t// out\n        /* \"#utility.yul\":7003:7151   */\n    tag_85:\n        /* \"#utility.yul\":7105:7116   */\n      0x00\n        /* \"#utility.yul\":7142:7145   */\n      dup2\n        /* \"#utility.yul\":7127:7145   */\n      swap1\n      pop\n        /* \"#utility.yul\":7003:7151   */\n      swap3\n      swap2\n      pop\n      pop\n      jump\t// out\n        /* \"#utility.yul\":7157:7534   */\n    tag_86:\n        /* \"#utility.yul\":7263:7266   */\n      0x00\n        /* \"#utility.yul\":7291:7330   */\n      tag_172\n        /* \"#utility.yul\":7324:7329   */\n      dup3\n        /* \"#utility.yul\":7291:7330   */\n      tag_79\n      jump\t// in\n    tag_172:\n        /* \"#utility.yul\":7346:7435   */\n      tag_173\n        /* \"#utility.yul\":7428:7434   */\n      dup2\n        /* \"#utility.yul\":7423:7426   */\n      dup6\n        /* \"#utility.yul\":7346:7435   */\n      tag_85\n      jump\t// in\n    tag_173:\n        /* \"#utility.yul\":7339:7435   */\n      swap4\n      pop\n        /* \"#utility.yul\":7444:7496   */\n      tag_174\n        /* \"#utility.yul\":7489:7495   */\n      dup2\n        /* \"#utility.yul\":7484:7487   */\n      dup6\n        /* \"#utility.yul\":7477:7481   */\n      0x20\n        /* \"#utility.yul\":7470:7475   */\n      dup7\n        /* \"#utility.yul\":7466:7482   */\n      add\n        /* \"#utility.yul\":7444:7496   */\n      tag_81\n      jump\t// in\n    tag_174:\n        /* \"#utility.yul\":7521:7527   */\n      dup1\n        /* \"#utility.yul\":7516:7519   */\n      dup5\n        /* \"#utility.yul\":7512:7528   */\n      add\n        /* \"#utility.yul\":7505:7528   */\n      swap2\n      pop\n        /* \"#utility.yul\":7267:7534   */\n      pop\n        /* \"#utility.yul\":7157:7534   */\n      swap3\n      swap2\n      pop\n      pop\n      jump\t// out\n        /* \"#utility.yul\":7540:7815   */\n    tag_29:\n        /* \"#utility.yul\":7672:7675   */\n      0x00\n        /* \"#utility.yul\":7694:7789   */\n      tag_176\n        /* \"#utility.yul\":7785:7788   */\n      dup3\n        /* \"#utility.yul\":7776:7782   */\n      dup5\n        /* \"#utility.yul\":7694:7789   */\n      tag_86\n      jump\t// in\n    tag_176:\n        /* \"#utility.yul\":7687:7789   */\n      swap2\n      pop\n        /* \"#utility.yul\":7806:7809   */\n      dup2\n        /* \"#utility.yul\":7799:7809   */\n      swap1\n      pop\n        /* \"#utility.yul\":7540:7815   */\n      swap3\n      swap2\n      pop\n      pop\n      jump\t// out\n        /* \"#utility.yul\":7821:8335   */\n    tag_33:\n        /* \"#utility.yul\":7982:7986   */\n      0x00\n        /* \"#utility.yul\":8020:8022   */\n      0x40\n        /* \"#utility.yul\":8009:8018   */\n      dup3\n        /* \"#utility.yul\":8005:8023   */\n      add\n        /* \"#utility.yul\":7997:8023   */\n      swap1\n      pop\n        /* \"#utility.yul\":8069:8078   */\n      dup2\n        /* \"#utility.yul\":8063:8067   */\n      dup2\n        /* \"#utility.yul\":8059:8079   */\n      sub\n        /* \"#utility.yul\":8055:8056   */\n      0x00\n        /* \"#utility.yul\":8044:8053   */\n      dup4\n        /* \"#utility.yul\":8040:8057   */\n      add\n        /* \"#utility.yul\":8033:8080   */\n      mstore\n        /* \"#utility.yul\":8097:8175   */\n      tag_178\n        /* \"#utility.yul\":8170:8174   */\n      dup2\n        /* \"#utility.yul\":8161:8167   */\n      dup6\n        /* \"#utility.yul\":8097:8175   */\n      tag_82\n      jump\t// in\n    tag_178:\n        /* \"#utility.yul\":8089:8175   */\n      swap1\n      pop\n        /* \"#utility.yul\":8222:8231   */\n      dup2\n        /* \"#utility.yul\":8216:8220   */\n      dup2\n        /* \"#utility.yul\":8212:8232   */\n      sub\n        /* \"#utility.yul\":8207:8209   */\n      0x20\n        /* \"#utility.yul\":8196:8205   */\n      dup4\n        /* \"#utility.yul\":8192:8210   */\n      add\n        /* \"#utility.yul\":8185:8233   */\n      mstore\n        /* \"#utility.yul\":8250:8328   */\n      tag_179\n        /* \"#utility.yul\":8323:8327   */\n      dup2\n        /* \"#utility.yul\":8314:8320   */\n      dup5\n        /* \"#utility.yul\":8250:8328   */\n      tag_82\n      jump\t// in\n    tag_179:\n        /* \"#utility.yul\":8242:8328   */\n      swap1\n      pop\n        /* \"#utility.yul\":7821:8335   */\n      swap4\n      swap3\n      pop\n      pop\n      pop\n      jump\t// out\n        /* \"#utility.yul\":8341:8521   */\n    tag_87:\n        /* \"#utility.yul\":8481:8513   */\n      0x4f6e6c79206e6f6465732063616e20616464206f74686572206e6f6465730000\n        /* \"#utility.yul\":8477:8478   */\n      0x00\n        /* \"#utility.yul\":8469:8475   */\n      dup3\n        /* \"#utility.yul\":8465:8479   */\n      add\n        /* \"#utility.yul\":8458:8514   */\n      mstore\n        /* \"#utility.yul\":8341:8521   */\n      pop\n      jump\t// out\n        /* \"#utility.yul\":8527:8893   */\n    tag_88:\n        /* \"#utility.yul\":8669:8672   */\n      0x00\n        /* \"#utility.yul\":8690:8757   */\n      tag_182\n        /* \"#utility.yul\":8754:8756   */\n      0x1e\n        /* \"#utility.yul\":8749:8752   */\n      dup4\n        /* \"#utility.yul\":8690:8757   */\n      tag_80\n      jump\t// in\n    tag_182:\n        /* \"#utility.yul\":8683:8757   */\n      swap2\n      pop\n        /* \"#utility.yul\":8766:8859   */\n      tag_183\n        /* \"#utility.yul\":8855:8858   */\n      dup3\n        /* \"#utility.yul\":8766:8859   */\n      tag_87\n      jump\t// in\n    tag_183:\n        /* \"#utility.yul\":8884:8886   */\n      0x20\n        /* \"#utility.yul\":8879:8882   */\n      dup3\n        /* \"#utility.yul\":8875:8887   */\n      add\n        /* \"#utility.yul\":8868:8887   */\n      swap1\n      pop\n        /* \"#utility.yul\":8527:8893   */\n      swap2\n      swap1\n      pop\n      jump\t// out\n        /* \"#utility.yul\":8899:9318   */\n    tag_37:\n        /* \"#utility.yul\":9065:9069   */\n      0x00\n        /* \"#utility.yul\":9103:9105   */\n      0x20\n        /* \"#utility.yul\":9092:9101   */\n      dup3\n        /* \"#utility.yul\":9088:9106   */\n      add\n        /* \"#utility.yul\":9080:9106   */\n      swap1\n      pop\n        /* \"#utility.yul\":9152:9161   */\n      dup2\n        /* \"#utility.yul\":9146:9150   */\n      dup2\n        /* \"#utility.yul\":9142:9162   */\n      sub\n        /* \"#utility.yul\":9138:9139   */\n      0x00\n        /* \"#utility.yul\":9127:9136   */\n      dup4\n        /* \"#utility.yul\":9123:9140   */\n      add\n        /* \"#utility.yul\":9116:9163   */\n      mstore\n        /* \"#utility.yul\":9180:9311   */\n      tag_185\n        /* \"#utility.yul\":9306:9310   */\n      dup2\n        /* \"#utility.yul\":9180:9311   */\n      tag_88\n      jump\t// in\n    tag_185:\n        /* \"#utility.yul\":9172:9311   */\n      swap1\n      pop\n        /* \"#utility.yul\":8899:9318   */\n      swap2\n      swap1\n      pop\n      jump\t// out\n        /* \"#utility.yul\":9324:9442   */\n    tag_89:\n        /* \"#utility.yul\":9411:9435   */\n      tag_187\n        /* \"#utility.yul\":9429:9434   */\n      dup2\n        /* \"#utility.yul\":9411:9435   */\n      tag_76\n      jump\t// in\n    tag_187:\n        /* \"#utility.yul\":9406:9409   */\n      dup3\n        /* \"#utility.yul\":9399:9436   */\n      mstore\n        /* \"#utility.yul\":9324:9442   */\n      pop\n      pop\n      jump\t// out\n        /* \"#utility.yul\":9448:9670   */\n    tag_39:\n        /* \"#utility.yul\":9541:9545   */\n      0x00\n        /* \"#utility.yul\":9579:9581   */\n      0x20\n        /* \"#utility.yul\":9568:9577   */\n      dup3\n        /* \"#utility.yul\":9564:9582   */\n      add\n        /* \"#utility.yul\":9556:9582   */\n      swap1\n      pop\n        /* \"#utility.yul\":9592:9663   */\n      tag_189\n        /* \"#utility.yul\":9660:9661   */\n      0x00\n        /* \"#utility.yul\":9649:9658   */\n      dup4\n        /* \"#utility.yul\":9645:9662   */\n      add\n        /* \"#utility.yul\":9636:9642   */\n      dup5\n        /* \"#utility.yul\":9592:9663   */\n      tag_89\n      jump\t// in\n    tag_189:\n        /* \"#utility.yul\":9448:9670   */\n      swap3\n      swap2\n      pop\n      pop\n      jump\t// out\n        /* \"#utility.yul\":9676:9856   */\n    tag_90:\n        /* \"#utility.yul\":9724:9801   */\n      0x4e487b7100000000000000000000000000000000000000000000000000000000\n        /* \"#utility.yul\":9721:9722   */\n      0x00\n        /* \"#utility.yul\":9714:9802   */\n      mstore\n        /* \"#utility.yul\":9821:9825   */\n      0x22\n        /* \"#utility.yul\":9818:9819   */\n      0x04\n        /* \"#utility.yul\":9811:9826   */\n      mstore\n        /* \"#utility.yul\":9845:9849   */\n      0x24\n        /* \"#utility.yul\":9842:9843   */\n      0x00\n        /* \"#utility.yul\":9835:9850   */\n      revert\n        /* \"#utility.yul\":9862:10182   */\n    tag_43:\n        /* \"#utility.yul\":9906:9912   */\n      0x00\n        /* \"#utility.yul\":9943:9944   */\n      0x02\n        /* \"#utility.yul\":9937:9941   */\n      dup3\n        /* \"#utility.yul\":9933:9945   */\n      div\n        /* \"#utility.yul\":9923:9945   */\n      swap1\n      pop\n        /* \"#utility.yul\":9990:9991   */\n      0x01\n        /* \"#utility.yul\":9984:9988   */\n      dup3\n        /* \"#utility.yul\":9980:9992   */\n      and\n        /* \"#utility.yul\":10011:10029   */\n      dup1\n        /* \"#utility.yul\":10001:10082   */\n      tag_192\n      jumpi\n        /* \"#utility.yul\":10067:10071   */\n      0x7f\n        /* \"#utility.yul\":10059:10065   */\n      dup3\n        /* \"#utility.yul\":10055:10072   */\n      and\n        /* \"#utility.yul\":10045:10072   */\n      swap2\n      pop\n        /* \"#utility.yul\":10001:10082   */\n    tag_192:\n        /* \"#utility.yul\":10129:10131   */\n      0x20\n        /* \"#utility.yul\":10121:10127   */\n      dup3\n        /* \"#utility.yul\":10118:10132   */\n      lt\n        /* \"#utility.yul\":10098:10116   */\n      dup2\n        /* \"#utility.yul\":10095:10133   */\n      eq\n        /* \"#utility.yul\":10092:10176   */\n      iszero\n      tag_193\n      jumpi\n        /* \"#utility.yul\":10148:10166   */\n      tag_194\n      tag_90\n      jump\t// in\n    tag_194:\n        /* \"#utility.yul\":10092:10176   */\n    tag_193:\n        /* \"#utility.yul\":9913:10182   */\n      pop\n        /* \"#utility.yul\":9862:10182   */\n      swap2\n      swap1\n      pop\n      jump\t// out\n        /* \"#utility.yul\":10188:10408   */\n    tag_91:\n        /* \"#utility.yul\":10328:10362   */\n      0x4f6e6c79206e6f6465732063616e2072656d6f7665206f74686572206e6f6465\n        /* \"#utility.yul\":10324:10325   */\n      0x00\n        /* \"#utility.yul\":10316:10322   */\n      dup3\n        /* \"#utility.yul\":10312:10326   */\n      add\n        /* \"#utility.yul\":10305:10363   */\n      mstore\n        /* \"#utility.yul\":10397:10400   */\n      0x7300000000000000000000000000000000000000000000000000000000000000\n        /* \"#utility.yul\":10392:10394   */\n      0x20\n        /* \"#utility.yul\":10384:10390   */\n      dup3\n        /* \"#utility.yul\":10380:10395   */\n      add\n        /* \"#utility.yul\":10373:10401   */\n      mstore\n        /* \"#utility.yul\":10188:10408   */\n      pop\n      jump\t// out\n        /* \"#utility.yul\":10414:10780   */\n    tag_92:\n        /* \"#utility.yul\":10556:10559   */\n      0x00\n        /* \"#utility.yul\":10577:10644   */\n      tag_197\n        /* \"#utility.yul\":10641:10643   */\n      0x21\n        /* \"#utility.yul\":10636:10639   */\n      dup4\n        /* \"#utility.yul\":10577:10644   */\n      tag_80\n      jump\t// in\n    tag_197:\n        /* \"#utility.yul\":10570:10644   */\n      swap2\n      pop\n        /* \"#utility.yul\":10653:10746   */\n      tag_198\n        /* \"#utility.yul\":10742:10745   */\n      dup3\n        /* \"#utility.yul\":10653:10746   */\n      tag_91\n      jump\t// in\n    tag_198:\n        /* \"#utility.yul\":10771:10773   */\n      0x40\n        /* \"#utility.yul\":10766:10769   */\n      dup3\n        /* \"#utility.yul\":10762:10774   */\n      add\n        /* \"#utility.yul\":10755:10774   */\n      swap1\n      pop\n        /* \"#utility.yul\":10414:10780   */\n      swap2\n      swap1\n      pop\n      jump\t// out\n        /* \"#utility.yul\":10786:11205   */\n    tag_51:\n        /* \"#utility.yul\":10952:10956   */\n      0x00\n        /* \"#utility.yul\":10990:10992   */\n      0x20\n        /* \"#utility.yul\":10979:10988   */\n      dup3\n        /* \"#utility.yul\":10975:10993   */\n      add\n        /* \"#utility.yul\":10967:10993   */\n      swap1\n      pop\n        /* \"#utility.yul\":11039:11048   */\n      dup2\n        /* \"#utility.yul\":11033:11037   */\n      dup2\n        /* \"#utility.yul\":11029:11049   */\n      sub\n        /* \"#utility.yul\":11025:11026   */\n      0x00\n        /* \"#utility.yul\":11014:11023   */\n      dup4\n        /* \"#utility.yul\":11010:11027   */\n      add\n        /* \"#utility.yul\":11003:11050   */\n      mstore\n        /* \"#utility.yul\":11067:11198   */\n      tag_200\n        /* \"#utility.yul\":11193:11197   */\n      dup2\n        /* \"#utility.yul\":11067:11198   */\n      tag_92\n      jump\t// in\n    tag_200:\n        /* \"#utility.yul\":11059:11198   */\n      swap1\n      pop\n        /* \"#utility.yul\":10786:11205   */\n      swap2\n      swap1\n      pop\n      jump\t// out\n\n    auxdata: 0xa2646970667358221220b96f2acef63ade4d7c6fb90256d37777409bccb64e03f25a35751903ffb3b7b464736f6c634300080b0033\n}\n",
				"bytecode": {
					"linkReferences": {},
					"object": "608060405234801561001057600080fd5b5060018060003373ffffffffffffffffffffffffffffffffffffffff1673ffffffffffffffffffffffffffffffffffffffff16815260200190815260200160002060006101000a81548160ff0219169083151502179055507fb25d03aaf308d7291709be1ea28b800463cf3a9a4c4a5555d7333a964c1dfebd3360405161009791906100e5565b60405180910390a1610100565b600073ffffffffffffffffffffffffffffffffffffffff82169050919050565b60006100cf826100a4565b9050919050565b6100df816100c4565b82525050565b60006020820190506100fa60008301846100d6565b92915050565b610b428061010f6000396000f3fe608060405234801561001057600080fd5b506004361061004c5760003560e01c8063528407e5146100515780639d95f1cc1461006d578063ae55c88814610089578063b2b99ec9146100b9575b600080fd5b61006b60048036038101906100669190610697565b6100d5565b005b6100876004803603810190610082919061076d565b6101d8565b005b6100a3600480360381019061009e919061079a565b6102fc565b6040516100b0919061086b565b60405180910390f35b6100d360048036038101906100ce919061076d565b6103ac565b005b60011515600160003373ffffffffffffffffffffffffffffffffffffffff1673ffffffffffffffffffffffffffffffffffffffff16815260200190815260200160002060009054906101000a900460ff16151514610168576040517f08c379a000000000000000000000000000000000000000000000000000000000815260040161015f906108d9565b60405180910390fd5b806000836040516101799190610935565b9081526020016040518091039020908051906020019061019a92919061049a565b507fcda7af4159d261959d3e36ac0298a7e541296a6e437a8cbfcbf429720e1d427c82826040516101cc92919061094c565b60405180910390a15050565b60011515600160003373ffffffffffffffffffffffffffffffffffffffff1673ffffffffffffffffffffffffffffffffffffffff16815260200190815260200160002060009054906101000a900460ff1615151461026b576040517f08c379a0000000000000000000000000000000000000000000000000000000008152600401610262906109cf565b60405180910390fd5b60018060008373ffffffffffffffffffffffffffffffffffffffff1673ffffffffffffffffffffffffffffffffffffffff16815260200190815260200160002060006101000a81548160ff0219169083151502179055507fb25d03aaf308d7291709be1ea28b800463cf3a9a4c4a5555d7333a964c1dfebd816040516102f191906109fe565b60405180910390a150565b606060008260405161030e9190610935565b9081526020016040518091039020805461032790610a48565b80601f016020809104026020016040519081016040528092919081815260200182805461035390610a48565b80156103a05780601f10610375576101008083540402835291602001916103a0565b820191906000526020600020905b81548152906001019060200180831161038357829003601f168201915b50505050509050919050565b60011515600160003373ffffffffffffffffffffffffffffffffffffffff1673ffffffffffffffffffffffffffffffffffffffff16815260200190815260200160002060009054906101000a900460ff1615151461043f576040517f08c379a000000000000000000000000000000000000000000000000000000000815260040161043690610aec565b60405180910390fd5b6000600160008373ffffffffffffffffffffffffffffffffffffffff1673ffffffffffffffffffffffffffffffffffffffff16815260200190815260200160002060006101000a81548160ff02191690831515021790555050565b8280546104a690610a48565b90600052602060002090601f0160209004810192826104c8576000855561050f565b82601f106104e157805160ff191683800117855561050f565b8280016001018555821561050f579182015b8281111561050e5782518255916020019190600101906104f3565b5b50905061051c9190610520565b5090565b5b80821115610539576000816000905550600101610521565b5090565b6000604051905090565b600080fd5b600080fd5b600080fd5b600080fd5b6000601f19601f8301169050919050565b7f4e487b7100000000000000000000000000000000000000000000000000000000600052604160045260246000fd5b6105a48261055b565b810181811067ffffffffffffffff821117156105c3576105c261056c565b5b80604052505050565b60006105d661053d565b90506105e2828261059b565b919050565b600067ffffffffffffffff8211156106025761060161056c565b5b61060b8261055b565b9050602081019050919050565b82818337600083830152505050565b600061063a610635846105e7565b6105cc565b90508281526020810184848401111561065657610655610556565b5b610661848285610618565b509392505050565b600082601f83011261067e5761067d610551565b5b813561068e848260208601610627565b91505092915050565b600080604083850312156106ae576106ad610547565b5b600083013567ffffffffffffffff8111156106cc576106cb61054c565b5b6106d885828601610669565b925050602083013567ffffffffffffffff8111156106f9576106f861054c565b5b61070585828601610669565b9150509250929050565b600073ffffffffffffffffffffffffffffffffffffffff82169050919050565b600061073a8261070f565b9050919050565b61074a8161072f565b811461075557600080fd5b50565b60008135905061076781610741565b92915050565b60006020828403121561078357610782610547565b5b600061079184828501610758565b91505092915050565b6000602082840312156107b0576107af610547565b5b600082013567ffffffffffffffff8111156107ce576107cd61054c565b5b6107da84828501610669565b91505092915050565b600081519050919050565b600082825260208201905092915050565b60005b8381101561081d578082015181840152602081019050610802565b8381111561082c576000848401525b50505050565b600061083d826107e3565b61084781856107ee565b93506108578185602086016107ff565b6108608161055b565b840191505092915050565b600060208201905081810360008301526108858184610832565b905092915050565b7f4f6e6c79206e6f6465732063616e206164642064617461000000000000000000600082015250565b60006108c36017836107ee565b91506108ce8261088d565b602082019050919050565b600060208201905081810360008301526108f2816108b6565b9050919050565b600081905092915050565b600061090f826107e3565b61091981856108f9565b93506109298185602086016107ff565b80840191505092915050565b60006109418284610904565b915081905092915050565b600060408201905081810360008301526109668185610832565b9050818103602083015261097a8184610832565b90509392505050565b7f4f6e6c79206e6f6465732063616e20616464206f74686572206e6f6465730000600082015250565b60006109b9601e836107ee565b91506109c482610983565b602082019050919050565b600060208201905081810360008301526109e8816109ac565b9050919050565b6109f88161072f565b82525050565b6000602082019050610a1360008301846109ef565b92915050565b7f4e487b7100000000000000000000000000000000000000000000000000000000600052602260045260246000fd5b60006002820490506001821680610a6057607f821691505b60208210811415610a7457610a73610a19565b5b50919050565b7f4f6e6c79206e6f6465732063616e2072656d6f7665206f74686572206e6f646560008201527f7300000000000000000000000000000000000000000000000000000000000000602082015250565b6000610ad66021836107ee565b9150610ae182610a7a565b604082019050919050565b60006020820190508181036000830152610b0581610ac9565b905091905056fea2646970667358221220b96f2acef63ade4d7c6fb90256d37777409bccb64e03f25a35751903ffb3b7b464736f6c634300080b0033",
					"opcodes": "PUSH1 0x80 PUSH1 0x40 MSTORE CALLVALUE DUP1 ISZERO PUSH2 0x10 JUMPI PUSH1 0x0 DUP1 REVERT JUMPDEST POP PUSH1 0x1 DUP1 PUSH1 0x0 CALLER PUSH20 0xFFFFFFFFFFFFFFFFFFFFFFFFFFFFFFFFFFFFFFFF AND PUSH20 0xFFFFFFFFFFFFFFFFFFFFFFFFFFFFFFFFFFFFFFFF AND DUP2 MSTORE PUSH1 0x20 ADD SWAP1 DUP2 MSTORE PUSH1 0x20 ADD PUSH1 0x0 KECCAK256 PUSH1 0x0 PUSH2 0x100 EXP DUP2 SLOAD DUP2 PUSH1 0xFF MUL NOT AND SWAP1 DUP4 ISZERO ISZERO MUL OR SWAP1 SSTORE POP PUSH32 0xB25D03AAF308D7291709BE1EA28B800463CF3A9A4C4A5555D7333A964C1DFEBD CALLER PUSH1 0x40 MLOAD PUSH2 0x97 SWAP2 SWAP1 PUSH2 0xE5 JUMP JUMPDEST PUSH1 0x40 MLOAD DUP1 SWAP2 SUB SWAP1 LOG1 PUSH2 0x100 JUMP JUMPDEST PUSH1 0x0 PUSH20 0xFFFFFFFFFFFFFFFFFFFFFFFFFFFFFFFFFFFFFFFF DUP3 AND SWAP1 POP SWAP2 SWAP1 POP JUMP JUMPDEST PUSH1 0x0 PUSH2 0xCF DUP3 PUSH2 0xA4 JUMP JUMPDEST SWAP1 POP SWAP2 SWAP1 POP JUMP JUMPDEST PUSH2 0xDF DUP2 PUSH2 0xC4 JUMP JUMPDEST DUP3 MSTORE POP POP JUMP JUMPDEST PUSH1 0x0 PUSH1 0x20 DUP3 ADD SWAP1 POP PUSH2 0xFA PUSH1 0x0 DUP4 ADD DUP5 PUSH2 0xD6 JUMP JUMPDEST SWAP3 SWAP2 POP POP JUMP JUMPDEST PUSH2 0xB42 DUP1 PUSH2 0x10F PUSH1 0x0 CODECOPY PUSH1 0x0 RETURN INVALID PUSH1 0x80 PUSH1 0x40 MSTORE CALLVALUE DUP1 ISZERO PUSH2 0x10 JUMPI PUSH1 0x0 DUP1 REVERT JUMPDEST POP PUSH1 0x4 CALLDATASIZE LT PUSH2 0x4C JUMPI PUSH1 0x0 CALLDATALOAD PUSH1 0xE0 SHR DUP1 PUSH4 0x528407E5 EQ PUSH2 0x51 JUMPI DUP1 PUSH4 0x9D95F1CC EQ PUSH2 0x6D JUMPI DUP1 PUSH4 0xAE55C888 EQ PUSH2 0x89 JUMPI DUP1 PUSH4 0xB2B99EC9 EQ PUSH2 0xB9 JUMPI JUMPDEST PUSH1 0x0 DUP1 REVERT JUMPDEST PUSH2 0x6B PUSH1 0x4 DUP1 CALLDATASIZE SUB DUP2 ADD SWAP1 PUSH2 0x66 SWAP2 SWAP1 PUSH2 0x697 JUMP JUMPDEST PUSH2 0xD5 JUMP JUMPDEST STOP JUMPDEST PUSH2 0x87 PUSH1 0x4 DUP1 CALLDATASIZE SUB DUP2 ADD SWAP1 PUSH2 0x82 SWAP2 SWAP1 PUSH2 0x76D JUMP JUMPDEST PUSH2 0x1D8 JUMP JUMPDEST STOP JUMPDEST PUSH2 0xA3 PUSH1 0x4 DUP1 CALLDATASIZE SUB DUP2 ADD SWAP1 PUSH2 0x9E SWAP2 SWAP1 PUSH2 0x79A JUMP JUMPDEST PUSH2 0x2FC JUMP JUMPDEST PUSH1 0x40 MLOAD PUSH2 0xB0 SWAP2 SWAP1 PUSH2 0x86B JUMP JUMPDEST PUSH1 0x40 MLOAD DUP1 SWAP2 SUB SWAP1 RETURN JUMPDEST PUSH2 0xD3 PUSH1 0x4 DUP1 CALLDATASIZE SUB DUP2 ADD SWAP1 PUSH2 0xCE SWAP2 SWAP1 PUSH2 0x76D JUMP JUMPDEST PUSH2 0x3AC JUMP JUMPDEST STOP JUMPDEST PUSH1 0x1 ISZERO ISZERO PUSH1 0x1 PUSH1 0x0 CALLER PUSH20 0xFFFFFFFFFFFFFFFFFFFFFFFFFFFFFFFFFFFFFFFF AND PUSH20 0xFFFFFFFFFFFFFFFFFFFFFFFFFFFFFFFFFFFFFFFF AND DUP2 MSTORE PUSH1 0x20 ADD SWAP1 DUP2 MSTORE PUSH1 0x20 ADD PUSH1 0x0 KECCAK256 PUSH1 0x0 SWAP1 SLOAD SWAP1 PUSH2 0x100 EXP SWAP1 DIV PUSH1 0xFF AND ISZERO ISZERO EQ PUSH2 0x168 JUMPI PUSH1 0x40 MLOAD PUSH32 0x8C379A000000000000000000000000000000000000000000000000000000000 DUP2 MSTORE PUSH1 0x4 ADD PUSH2 0x15F SWAP1 PUSH2 0x8D9 JUMP JUMPDEST PUSH1 0x40 MLOAD DUP1 SWAP2 SUB SWAP1 REVERT JUMPDEST DUP1 PUSH1 0x0 DUP4 PUSH1 0x40 MLOAD PUSH2 0x179 SWAP2 SWAP1 PUSH2 0x935 JUMP JUMPDEST SWAP1 DUP2 MSTORE PUSH1 0x20 ADD PUSH1 0x40 MLOAD DUP1 SWAP2 SUB SWAP1 KECCAK256 SWAP1 DUP1 MLOAD SWAP1 PUSH1 0x20 ADD SWAP1 PUSH2 0x19A SWAP3 SWAP2 SWAP1 PUSH2 0x49A JUMP JUMPDEST POP PUSH32 0xCDA7AF4159D261959D3E36AC0298A7E541296A6E437A8CBFCBF429720E1D427C DUP3 DUP3 PUSH1 0x40 MLOAD PUSH2 0x1CC SWAP3 SWAP2 SWAP1 PUSH2 0x94C JUMP JUMPDEST PUSH1 0x40 MLOAD DUP1 SWAP2 SUB SWAP1 LOG1 POP POP JUMP JUMPDEST PUSH1 0x1 ISZERO ISZERO PUSH1 0x1 PUSH1 0x0 CALLER PUSH20 0xFFFFFFFFFFFFFFFFFFFFFFFFFFFFFFFFFFFFFFFF AND PUSH20 0xFFFFFFFFFFFFFFFFFFFFFFFFFFFFFFFFFFFFFFFF AND DUP2 MSTORE PUSH1 0x20 ADD SWAP1 DUP2 MSTORE PUSH1 0x20 ADD PUSH1 0x0 KECCAK256 PUSH1 0x0 SWAP1 SLOAD SWAP1 PUSH2 0x100 EXP SWAP1 DIV PUSH1 0xFF AND ISZERO ISZERO EQ PUSH2 0x26B JUMPI PUSH1 0x40 MLOAD PUSH32 0x8C379A000000000000000000000000000000000000000000000000000000000 DUP2 MSTORE PUSH1 0x4 ADD PUSH2 0x262 SWAP1 PUSH2 0x9CF JUMP JUMPDEST PUSH1 0x40 MLOAD DUP1 SWAP2 SUB SWAP1 REVERT JUMPDEST PUSH1 0x1 DUP1 PUSH1 0x0 DUP4 PUSH20 0xFFFFFFFFFFFFFFFFFFFFFFFFFFFFFFFFFFFFFFFF AND PUSH20 0xFFFFFFFFFFFFFFFFFFFFFFFFFFFFFFFFFFFFFFFF AND DUP2 MSTORE PUSH1 0x20 ADD SWAP1 DUP2 MSTORE PUSH1 0x20 ADD PUSH1 0x0 KECCAK256 PUSH1 0x0 PUSH2 0x100 EXP DUP2 SLOAD DUP2 PUSH1 0xFF MUL NOT AND SWAP1 DUP4 ISZERO ISZERO MUL OR SWAP1 SSTORE POP PUSH32 0xB25D03AAF308D7291709BE1EA28B800463CF3A9A4C4A5555D7333A964C1DFEBD DUP2 PUSH1 0x40 MLOAD PUSH2 0x2F1 SWAP2 SWAP1 PUSH2 0x9FE JUMP JUMPDEST PUSH1 0x40 MLOAD DUP1 SWAP2 SUB SWAP1 LOG1 POP JUMP JUMPDEST PUSH1 0x60 PUSH1 0x0 DUP3 PUSH1 0x40 MLOAD PUSH2 0x30E SWAP2 SWAP1 PUSH2 0x935 JUMP JUMPDEST SWAP1 DUP2 MSTORE PUSH1 0x20 ADD PUSH1 0x40 MLOAD DUP1 SWAP2 SUB SWAP1 KECCAK256 DUP1 SLOAD PUSH2 0x327 SWAP1 PUSH2 0xA48 JUMP JUMPDEST DUP1 PUSH1 0x1F ADD PUSH1 0x20 DUP1 SWAP2 DIV MUL PUSH1 0x20 ADD PUSH1 0x40 MLOAD SWAP1 DUP2 ADD PUSH1 0x40 MSTORE DUP1 SWAP3 SWAP2 SWAP1 DUP2 DUP2 MSTORE PUSH1 0x20 ADD DUP3 DUP1 SLOAD PUSH2 0x353 SWAP1 PUSH2 0xA48 JUMP JUMPDEST DUP1 ISZERO PUSH2 0x3A0 JUMPI DUP1 PUSH1 0x1F LT PUSH2 0x375 JUMPI PUSH2 0x100 DUP1 DUP4 SLOAD DIV MUL DUP4 MSTORE SWAP2 PUSH1 0x20 ADD SWAP2 PUSH2 0x3A0 JUMP JUMPDEST DUP3 ADD SWAP2 SWAP1 PUSH1 0x0 MSTORE PUSH1 0x20 PUSH1 0x0 KECCAK256 SWAP1 JUMPDEST DUP2 SLOAD DUP2 MSTORE SWAP1 PUSH1 0x1 ADD SWAP1 PUSH1 0x20 ADD DUP1 DUP4 GT PUSH2 0x383 JUMPI DUP3 SWAP1 SUB PUSH1 0x1F AND DUP3 ADD SWAP2 JUMPDEST POP POP POP POP POP SWAP1 POP SWAP2 SWAP1 POP JUMP JUMPDEST PUSH1 0x1 ISZERO ISZERO PUSH1 0x1 PUSH1 0x0 CALLER PUSH20 0xFFFFFFFFFFFFFFFFFFFFFFFFFFFFFFFFFFFFFFFF AND PUSH20 0xFFFFFFFFFFFFFFFFFFFFFFFFFFFFFFFFFFFFFFFF AND DUP2 MSTORE PUSH1 0x20 ADD SWAP1 DUP2 MSTORE PUSH1 0x20 ADD PUSH1 0x0 KECCAK256 PUSH1 0x0 SWAP1 SLOAD SWAP1 PUSH2 0x100 EXP SWAP1 DIV PUSH1 0xFF AND ISZERO ISZERO EQ PUSH2 0x43F JUMPI PUSH1 0x40 MLOAD PUSH32 0x8C379A000000000000000000000000000000000000000000000000000000000 DUP2 MSTORE PUSH1 0x4 ADD PUSH2 0x436 SWAP1 PUSH2 0xAEC JUMP JUMPDEST PUSH1 0x40 MLOAD DUP1 SWAP2 SUB SWAP1 REVERT JUMPDEST PUSH1 0x0 PUSH1 0x1 PUSH1 0x0 DUP4 PUSH20 0xFFFFFFFFFFFFFFFFFFFFFFFFFFFFFFFFFFFFFFFF AND PUSH20 0xFFFFFFFFFFFFFFFFFFFFFFFFFFFFFFFFFFFFFFFF AND DUP2 MSTORE PUSH1 0x20 ADD SWAP1 DUP2 MSTORE PUSH1 0x20 ADD PUSH1 0x0 KECCAK256 PUSH1 0x0 PUSH2 0x100 EXP DUP2 SLOAD DUP2 PUSH1 0xFF MUL NOT AND SWAP1 DUP4 ISZERO ISZERO MUL OR SWAP1 SSTORE POP POP JUMP JUMPDEST DUP3 DUP1 SLOAD PUSH2 0x4A6 SWAP1 PUSH2 0xA48 JUMP JUMPDEST SWAP1 PUSH1 0x0 MSTORE PUSH1 0x20 PUSH1 0x0 KECCAK256 SWAP1 PUSH1 0x1F ADD PUSH1 0x20 SWAP1 DIV DUP2 ADD SWAP3 DUP3 PUSH2 0x4C8 JUMPI PUSH1 0x0 DUP6 SSTORE PUSH2 0x50F JUMP JUMPDEST DUP3 PUSH1 0x1F LT PUSH2 0x4E1 JUMPI DUP1 MLOAD PUSH1 0xFF NOT AND DUP4 DUP1 ADD OR DUP6 SSTORE PUSH2 0x50F JUMP JUMPDEST DUP3 DUP1 ADD PUSH1 0x1 ADD DUP6 SSTORE DUP3 ISZERO PUSH2 0x50F JUMPI SWAP2 DUP3 ADD JUMPDEST DUP3 DUP2 GT ISZERO PUSH2 0x50E JUMPI DUP3 MLOAD DUP3 SSTORE SWAP2 PUSH1 0x20 ADD SWAP2 SWAP1 PUSH1 0x1 ADD SWAP1 PUSH2 0x4F3 JUMP JUMPDEST JUMPDEST POP SWAP1 POP PUSH2 0x51C SWAP2 SWAP1 PUSH2 0x520 JUMP JUMPDEST POP SWAP1 JUMP JUMPDEST JUMPDEST DUP1 DUP3 GT ISZERO PUSH2 0x539 JUMPI PUSH1 0x0 DUP2 PUSH1 0x0 SWAP1 SSTORE POP PUSH1 0x1 ADD PUSH2 0x521 JUMP JUMPDEST POP SWAP1 JUMP JUMPDEST PUSH1 0x0 PUSH1 0x40 MLOAD SWAP1 POP SWAP1 JUMP JUMPDEST PUSH1 0x0 DUP1 REVERT JUMPDEST PUSH1 0x0 DUP1 REVERT JUMPDEST PUSH1 0x0 DUP1 REVERT JUMPDEST PUSH1 0x0 DUP1 REVERT JUMPDEST PUSH1 0x0 PUSH1 0x1F NOT PUSH1 0x1F DUP4 ADD AND SWAP1 POP SWAP2 SWAP1 POP JUMP JUMPDEST PUSH32 0x4E487B7100000000000000000000000000000000000000000000000000000000 PUSH1 0x0 MSTORE PUSH1 0x41 PUSH1 0x4 MSTORE PUSH1 0x24 PUSH1 0x0 REVERT JUMPDEST PUSH2 0x5A4 DUP3 PUSH2 0x55B JUMP JUMPDEST DUP2 ADD DUP2 DUP2 LT PUSH8 0xFFFFFFFFFFFFFFFF DUP3 GT OR ISZERO PUSH2 0x5C3 JUMPI PUSH2 0x5C2 PUSH2 0x56C JUMP JUMPDEST JUMPDEST DUP1 PUSH1 0x40 MSTORE POP POP POP JUMP JUMPDEST PUSH1 0x0 PUSH2 0x5D6 PUSH2 0x53D JUMP JUMPDEST SWAP1 POP PUSH2 0x5E2 DUP3 DUP3 PUSH2 0x59B JUMP JUMPDEST SWAP2 SWAP1 POP JUMP JUMPDEST PUSH1 0x0 PUSH8 0xFFFFFFFFFFFFFFFF DUP3 GT ISZERO PUSH2 0x602 JUMPI PUSH2 0x601 PUSH2 0x56C JUMP JUMPDEST JUMPDEST PUSH2 0x60B DUP3 PUSH2 0x55B JUMP JUMPDEST SWAP1 POP PUSH1 0x20 DUP2 ADD SWAP1 POP SWAP2 SWAP1 POP JUMP JUMPDEST DUP3 DUP2 DUP4 CALLDATACOPY PUSH1 0x0 DUP4 DUP4 ADD MSTORE POP POP POP JUMP JUMPDEST PUSH1 0x0 PUSH2 0x63A PUSH2 0x635 DUP5 PUSH2 0x5E7 JUMP JUMPDEST PUSH2 0x5CC JUMP JUMPDEST SWAP1 POP DUP3 DUP2 MSTORE PUSH1 0x20 DUP2 ADD DUP5 DUP5 DUP5 ADD GT ISZERO PUSH2 0x656 JUMPI PUSH2 0x655 PUSH2 0x556 JUMP JUMPDEST JUMPDEST PUSH2 0x661 DUP5 DUP3 DUP6 PUSH2 0x618 JUMP JUMPDEST POP SWAP4 SWAP3 POP POP POP JUMP JUMPDEST PUSH1 0x0 DUP3 PUSH1 0x1F DUP4 ADD SLT PUSH2 0x67E JUMPI PUSH2 0x67D PUSH2 0x551 JUMP JUMPDEST JUMPDEST DUP2 CALLDATALOAD PUSH2 0x68E DUP5 DUP3 PUSH1 0x20 DUP7 ADD PUSH2 0x627 JUMP JUMPDEST SWAP2 POP POP SWAP3 SWAP2 POP POP JUMP JUMPDEST PUSH1 0x0 DUP1 PUSH1 0x40 DUP4 DUP6 SUB SLT ISZERO PUSH2 0x6AE JUMPI PUSH2 0x6AD PUSH2 0x547 JUMP JUMPDEST JUMPDEST PUSH1 0x0 DUP4 ADD CALLDATALOAD PUSH8 0xFFFFFFFFFFFFFFFF DUP2 GT ISZERO PUSH2 0x6CC JUMPI PUSH2 0x6CB PUSH2 0x54C JUMP JUMPDEST JUMPDEST PUSH2 0x6D8 DUP6 DUP3 DUP7 ADD PUSH2 0x669 JUMP JUMPDEST SWAP3 POP POP PUSH1 0x20 DUP4 ADD CALLDATALOAD PUSH8 0xFFFFFFFFFFFFFFFF DUP2 GT ISZERO PUSH2 0x6F9 JUMPI PUSH2 0x6F8 PUSH2 0x54C JUMP JUMPDEST JUMPDEST PUSH2 0x705 DUP6 DUP3 DUP7 ADD PUSH2 0x669 JUMP JUMPDEST SWAP2 POP POP SWAP3 POP SWAP3 SWAP1 POP JUMP JUMPDEST PUSH1 0x0 PUSH20 0xFFFFFFFFFFFFFFFFFFFFFFFFFFFFFFFFFFFFFFFF DUP3 AND SWAP1 POP SWAP2 SWAP1 POP JUMP JUMPDEST PUSH1 0x0 PUSH2 0x73A DUP3 PUSH2 0x70F JUMP JUMPDEST SWAP1 POP SWAP2 SWAP1 POP JUMP JUMPDEST PUSH2 0x74A DUP2 PUSH2 0x72F JUMP JUMPDEST DUP2 EQ PUSH2 0x755 JUMPI PUSH1 0x0 DUP1 REVERT JUMPDEST POP JUMP JUMPDEST PUSH1 0x0 DUP2 CALLDATALOAD SWAP1 POP PUSH2 0x767 DUP2 PUSH2 0x741 JUMP JUMPDEST SWAP3 SWAP2 POP POP JUMP JUMPDEST PUSH1 0x0 PUSH1 0x20 DUP3 DUP5 SUB SLT ISZERO PUSH2 0x783 JUMPI PUSH2 0x782 PUSH2 0x547 JUMP JUMPDEST JUMPDEST PUSH1 0x0 PUSH2 0x791 DUP5 DUP3 DUP6 ADD PUSH2 0x758 JUMP JUMPDEST SWAP2 POP POP SWAP3 SWAP2 POP POP JUMP JUMPDEST PUSH1 0x0 PUSH1 0x20 DUP3 DUP5 SUB SLT ISZERO PUSH2 0x7B0 JUMPI PUSH2 0x7AF PUSH2 0x547 JUMP JUMPDEST JUMPDEST PUSH1 0x0 DUP3 ADD CALLDATALOAD PUSH8 0xFFFFFFFFFFFFFFFF DUP2 GT ISZERO PUSH2 0x7CE JUMPI PUSH2 0x7CD PUSH2 0x54C JUMP JUMPDEST JUMPDEST PUSH2 0x7DA DUP5 DUP3 DUP6 ADD PUSH2 0x669 JUMP JUMPDEST SWAP2 POP POP SWAP3 SWAP2 POP POP JUMP JUMPDEST PUSH1 0x0 DUP2 MLOAD SWAP1 POP SWAP2 SWAP1 POP JUMP JUMPDEST PUSH1 0x0 DUP3 DUP3 MSTORE PUSH1 0x20 DUP3 ADD SWAP1 POP SWAP3 SWAP2 POP POP JUMP JUMPDEST PUSH1 0x0 JUMPDEST DUP4 DUP2 LT ISZERO PUSH2 0x81D JUMPI DUP1 DUP3 ADD MLOAD DUP2 DUP5 ADD MSTORE PUSH1 0x20 DUP2 ADD SWAP1 POP PUSH2 0x802 JUMP JUMPDEST DUP4 DUP2 GT ISZERO PUSH2 0x82C JUMPI PUSH1 0x0 DUP5 DUP5 ADD MSTORE JUMPDEST POP POP POP POP JUMP JUMPDEST PUSH1 0x0 PUSH2 0x83D DUP3 PUSH2 0x7E3 JUMP JUMPDEST PUSH2 0x847 DUP2 DUP6 PUSH2 0x7EE JUMP JUMPDEST SWAP4 POP PUSH2 0x857 DUP2 DUP6 PUSH1 0x20 DUP7 ADD PUSH2 0x7FF JUMP JUMPDEST PUSH2 0x860 DUP2 PUSH2 0x55B JUMP JUMPDEST DUP5 ADD SWAP2 POP POP SWAP3 SWAP2 POP POP JUMP JUMPDEST PUSH1 0x0 PUSH1 0x20 DUP3 ADD SWAP1 POP DUP2 DUP2 SUB PUSH1 0x0 DUP4 ADD MSTORE PUSH2 0x885 DUP2 DUP5 PUSH2 0x832 JUMP JUMPDEST SWAP1 POP SWAP3 SWAP2 POP POP JUMP JUMPDEST PUSH32 0x4F6E6C79206E6F6465732063616E206164642064617461000000000000000000 PUSH1 0x0 DUP3 ADD MSTORE POP JUMP JUMPDEST PUSH1 0x0 PUSH2 0x8C3 PUSH1 0x17 DUP4 PUSH2 0x7EE JUMP JUMPDEST SWAP2 POP PUSH2 0x8CE DUP3 PUSH2 0x88D JUMP JUMPDEST PUSH1 0x20 DUP3 ADD SWAP1 POP SWAP2 SWAP1 POP JUMP JUMPDEST PUSH1 0x0 PUSH1 0x20 DUP3 ADD SWAP1 POP DUP2 DUP2 SUB PUSH1 0x0 DUP4 ADD MSTORE PUSH2 0x8F2 DUP2 PUSH2 0x8B6 JUMP JUMPDEST SWAP1 POP SWAP2 SWAP1 POP JUMP JUMPDEST PUSH1 0x0 DUP2 SWAP1 POP SWAP3 SWAP2 POP POP JUMP JUMPDEST PUSH1 0x0 PUSH2 0x90F DUP3 PUSH2 0x7E3 JUMP JUMPDEST PUSH2 0x919 DUP2 DUP6 PUSH2 0x8F9 JUMP JUMPDEST SWAP4 POP PUSH2 0x929 DUP2 DUP6 PUSH1 0x20 DUP7 ADD PUSH2 0x7FF JUMP JUMPDEST DUP1 DUP5 ADD SWAP2 POP POP SWAP3 SWAP2 POP POP JUMP JUMPDEST PUSH1 0x0 PUSH2 0x941 DUP3 DUP5 PUSH2 0x904 JUMP JUMPDEST SWAP2 POP DUP2 SWAP1 POP SWAP3 SWAP2 POP POP JUMP JUMPDEST PUSH1 0x0 PUSH1 0x40 DUP3 ADD SWAP1 POP DUP2 DUP2 SUB PUSH1 0x0 DUP4 ADD MSTORE PUSH2 0x966 DUP2 DUP6 PUSH2 0x832 JUMP JUMPDEST SWAP1 POP DUP2 DUP2 SUB PUSH1 0x20 DUP4 ADD MSTORE PUSH2 0x97A DUP2 DUP5 PUSH2 0x832 JUMP JUMPDEST SWAP1 POP SWAP4 SWAP3 POP POP POP JUMP JUMPDEST PUSH32 0x4F6E6C79206E6F6465732063616E20616464206F74686572206E6F6465730000 PUSH1 0x0 DUP3 ADD MSTORE POP JUMP JUMPDEST PUSH1 0x0 PUSH2 0x9B9 PUSH1 0x1E DUP4 PUSH2 0x7EE JUMP JUMPDEST SWAP2 POP PUSH2 0x9C4 DUP3 PUSH2 0x983 JUMP JUMPDEST PUSH1 0x20 DUP3 ADD SWAP1 POP SWAP2 SWAP1 POP JUMP JUMPDEST PUSH1 0x0 PUSH1 0x20 DUP3 ADD SWAP1 POP DUP2 DUP2 SUB PUSH1 0x0 DUP4 ADD MSTORE PUSH2 0x9E8 DUP2 PUSH2 0x9AC JUMP JUMPDEST SWAP1 POP SWAP2 SWAP1 POP JUMP JUMPDEST PUSH2 0x9F8 DUP2 PUSH2 0x72F JUMP JUMPDEST DUP3 MSTORE POP POP JUMP JUMPDEST PUSH1 0x0 PUSH1 0x20 DUP3 ADD SWAP1 POP PUSH2 0xA13 PUSH1 0x0 DUP4 ADD DUP5 PUSH2 0x9EF JUMP JUMPDEST SWAP3 SWAP2 POP POP JUMP JUMPDEST PUSH32 0x4E487B7100000000000000000000000000000000000000000000000000000000 PUSH1 0x0 MSTORE PUSH1 0x22 PUSH1 0x4 MSTORE PUSH1 0x24 PUSH1 0x0 REVERT JUMPDEST PUSH1 0x0 PUSH1 0x2 DUP3 DIV SWAP1 POP PUSH1 0x1 DUP3 AND DUP1 PUSH2 0xA60 JUMPI PUSH1 0x7F DUP3 AND SWAP2 POP JUMPDEST PUSH1 0x20 DUP3 LT DUP2 EQ ISZERO PUSH2 0xA74 JUMPI PUSH2 0xA73 PUSH2 0xA19 JUMP JUMPDEST JUMPDEST POP SWAP2 SWAP1 POP JUMP JUMPDEST PUSH32 0x4F6E6C79206E6F6465732063616E2072656D6F7665206F74686572206E6F6465 PUSH1 0x0 DUP3 ADD MSTORE PUSH32 0x7300000000000000000000000000000000000000000000000000000000000000 PUSH1 0x20 DUP3 ADD MSTORE POP JUMP JUMPDEST PUSH1 0x0 PUSH2 0xAD6 PUSH1 0x21 DUP4 PUSH2 0x7EE JUMP JUMPDEST SWAP2 POP PUSH2 0xAE1 DUP3 PUSH2 0xA7A JUMP JUMPDEST PUSH1 0x40 DUP3 ADD SWAP1 POP SWAP2 SWAP1 POP JUMP JUMPDEST PUSH1 0x0 PUSH1 0x20 DUP3 ADD SWAP1 POP DUP2 DUP2 SUB PUSH1 0x0 DUP4 ADD MSTORE PUSH2 0xB05 DUP2 PUSH2 0xAC9 JUMP JUMPDEST SWAP1 POP SWAP2 SWAP1 POP JUMP INVALID LOG2 PUSH5 0x6970667358 0x22 SLT KECCAK256 0xB9 PUSH16 0x2ACEF63ADE4D7C6FB90256D37777409B 0xCC 0xB6 0x4E SUB CALLCODE GAS CALLDATALOAD PUSH22 0x1903FFB3B7B464736F6C634300080B00330000000000 "
				},
				"gasEstimates": {
					"creation": {
						"codeDepositCost": "576400",
						"executionCost": "26214",
						"totalCost": "602614"
					},
					"external": {
						"addData(string,string)": "infinite",
						"addNode(address)": "infinite",
						"getData(string)": "infinite",
						"removeNode(address)": "27116"
					}
				},
				"methodIdentifiers": {
					"addData(string,string)": "528407e5",
					"addNode(address)": "9d95f1cc",
					"getData(string)": "ae55c888",
					"removeNode(address)": "b2b99ec9"
				}
			},
			"storageLayout": {
				"storage": [
					{
						"astId": 5,
						"contract": "Distributed Ledger Project 17/Distributed Ledger.sol:DistributedLedger",
						"label": "data",
						"offset": 0,
						"slot": "0",
						"type": "t_mapping(t_string_memory_ptr,t_string_storage)"
					},
					{
						"astId": 9,
						"contract": "Distributed Ledger Project 17/Distributed Ledger.sol:DistributedLedger",
						"label": "nodes",
						"offset": 0,
						"slot": "1",
						"type": "t_mapping(t_address,t_bool)"
					}
				],
				"types": {
					"t_address": {
						"encoding": "inplace",
						"label": "address",
						"numberOfBytes": "20"
					},
					"t_bool": {
						"encoding": "inplace",
						"label": "bool",
						"numberOfBytes": "1"
					},
					"t_mapping(t_address,t_bool)": {
						"encoding": "mapping",
						"key": "t_address",
						"label": "mapping(address => bool)",
						"numberOfBytes": "32",
						"value": "t_bool"
					},
					"t_mapping(t_string_memory_ptr,t_string_storage)": {
						"encoding": "mapping",
						"key": "t_string_memory_ptr",
						"label": "mapping(string => string)",
						"numberOfBytes": "32",
						"value": "t_string_storage"
					},
					"t_string_memory_ptr": {
						"encoding": "bytes",
						"label": "string",
						"numberOfBytes": "32"
					},
					"t_string_storage": {
						"encoding": "bytes",
						"label": "string",
						"numberOfBytes": "32"
					}
				}
			},
			"userdoc": {
				"kind": "user",
				"methods": {},
				"version": 1
			}
		}
	}
}