{
	"Book Library Project 8/Book Library.sol": {
		"BookLibrary": {
			"abi": [
				{
					"anonymous": false,
					"inputs": [
						{
							"indexed": true,
							"internalType": "uint256",
							"name": "id",
							"type": "uint256"
						},
						{
							"indexed": false,
							"internalType": "string",
							"name": "title",
							"type": "string"
						},
						{
							"indexed": false,
							"internalType": "string",
							"name": "author",
							"type": "string"
						},
						{
							"indexed": false,
							"internalType": "string",
							"name": "publisher",
							"type": "string"
						},
						{
							"indexed": false,
							"internalType": "uint256",
							"name": "year",
							"type": "uint256"
						},
						{
							"indexed": false,
							"internalType": "address",
							"name": "owner",
							"type": "address"
						}
					],
					"name": "bookCreated",
					"type": "event"
				},
				{
					"anonymous": false,
					"inputs": [
						{
							"indexed": true,
							"internalType": "uint256",
							"name": "id",
							"type": "uint256"
						},
						{
							"indexed": false,
							"internalType": "address",
							"name": "from",
							"type": "address"
						},
						{
							"indexed": false,
							"internalType": "address",
							"name": "to",
							"type": "address"
						}
					],
					"name": "bookTransferred",
					"type": "event"
				},
				{
					"inputs": [
						{
							"internalType": "string",
							"name": "_title",
							"type": "string"
						},
						{
							"internalType": "string",
							"name": "_author",
							"type": "string"
						},
						{
							"internalType": "string",
							"name": "_publisher",
							"type": "string"
						},
						{
							"internalType": "uint256",
							"name": "_year",
							"type": "uint256"
						}
					],
					"name": "addBook",
					"outputs": [],
					"stateMutability": "nonpayable",
					"type": "function"
				},
				{
					"inputs": [],
					"name": "bookCount",
					"outputs": [
						{
							"internalType": "uint256",
							"name": "",
							"type": "uint256"
						}
					],
					"stateMutability": "view",
					"type": "function"
				},
				{
					"inputs": [
						{
							"internalType": "uint256",
							"name": "",
							"type": "uint256"
						}
					],
					"name": "books",
					"outputs": [
						{
							"internalType": "string",
							"name": "title",
							"type": "string"
						},
						{
							"internalType": "string",
							"name": "author",
							"type": "string"
						},
						{
							"internalType": "string",
							"name": "publisher",
							"type": "string"
						},
						{
							"internalType": "uint256",
							"name": "year",
							"type": "uint256"
						},
						{
							"internalType": "address",
							"name": "owner",
							"type": "address"
						}
					],
					"stateMutability": "view",
					"type": "function"
				},
				{
					"inputs": [
						{
							"internalType": "uint256",
							"name": "_id",
							"type": "uint256"
						}
					],
					"name": "getBook",
					"outputs": [
						{
							"internalType": "string",
							"name": "",
							"type": "string"
						},
						{
							"internalType": "string",
							"name": "",
							"type": "string"
						},
						{
							"internalType": "string",
							"name": "",
							"type": "string"
						},
						{
							"internalType": "uint256",
							"name": "",
							"type": "uint256"
						},
						{
							"internalType": "address",
							"name": "",
							"type": "address"
						}
					],
					"stateMutability": "view",
					"type": "function"
				},
				{
					"inputs": [
						{
							"internalType": "uint256",
							"name": "_id",
							"type": "uint256"
						},
						{
							"internalType": "address",
							"name": "_newOwner",
							"type": "address"
						}
					],
					"name": "transferBookOwnership",
					"outputs": [],
					"stateMutability": "nonpayable",
					"type": "function"
				}
			],
			"devdoc": {
				"kind": "dev",
				"methods": {},
				"version": 1
			},
			"evm": {
				"assembly": "    /* \"Book Library Project 8/Book Library.sol\":60:2137  contract BookLibrary {... */\n  mstore(0x40, 0x80)\n  callvalue\n  dup1\n  iszero\n  tag_1\n  jumpi\n  0x00\n  dup1\n  revert\ntag_1:\n  pop\n  dataSize(sub_0)\n  dup1\n  dataOffset(sub_0)\n  0x00\n  codecopy\n  0x00\n  return\nstop\n\nsub_0: assembly {\n        /* \"Book Library Project 8/Book Library.sol\":60:2137  contract BookLibrary {... */\n      mstore(0x40, 0x80)\n      callvalue\n      dup1\n      iszero\n      tag_1\n      jumpi\n      0x00\n      dup1\n      revert\n    tag_1:\n      pop\n      jumpi(tag_2, lt(calldatasize, 0x04))\n      shr(0xe0, calldataload(0x00))\n      dup1\n      0x3fb8351c\n      eq\n      tag_3\n      jumpi\n      dup1\n      0x45e6df3d\n      eq\n      tag_4\n      jumpi\n      dup1\n      0x68744046\n      eq\n      tag_5\n      jumpi\n      dup1\n      0xb905ad78\n      eq\n      tag_6\n      jumpi\n      dup1\n      0xe0ff5b8b\n      eq\n      tag_7\n      jumpi\n    tag_2:\n      0x00\n      dup1\n      revert\n        /* \"Book Library Project 8/Book Library.sol\":1758:2134  function transferBookOwnership(uint256 _id, address _newOwner) public {... */\n    tag_3:\n      tag_8\n      0x04\n      dup1\n      calldatasize\n      sub\n      dup2\n      add\n      swap1\n      tag_9\n      swap2\n      swap1\n      tag_10\n      jump\t// in\n    tag_9:\n      tag_11\n      jump\t// in\n    tag_8:\n      stop\n        /* \"Book Library Project 8/Book Library.sol\":793:1309  function addBook(... */\n    tag_4:\n      tag_12\n      0x04\n      dup1\n      calldatasize\n      sub\n      dup2\n      add\n      swap1\n      tag_13\n      swap2\n      swap1\n      tag_14\n      jump\t// in\n    tag_13:\n      tag_15\n      jump\t// in\n    tag_12:\n      stop\n        /* \"Book Library Project 8/Book Library.sol\":294:331  mapping(uint256 => Book) public books */\n    tag_5:\n      tag_16\n      0x04\n      dup1\n      calldatasize\n      sub\n      dup2\n      add\n      swap1\n      tag_17\n      swap2\n      swap1\n      tag_18\n      jump\t// in\n    tag_17:\n      tag_19\n      jump\t// in\n    tag_16:\n      mload(0x40)\n      tag_20\n      swap6\n      swap5\n      swap4\n      swap3\n      swap2\n      swap1\n      tag_21\n      jump\t// in\n    tag_20:\n      mload(0x40)\n      dup1\n      swap2\n      sub\n      swap1\n      return\n        /* \"Book Library Project 8/Book Library.sol\":364:388  uint256 public bookCount */\n    tag_6:\n      tag_22\n      tag_23\n      jump\t// in\n    tag_22:\n      mload(0x40)\n      tag_24\n      swap2\n      swap1\n      tag_25\n      jump\t// in\n    tag_24:\n      mload(0x40)\n      dup1\n      swap2\n      sub\n      swap1\n      return\n        /* \"Book Library Project 8/Book Library.sol\":1354:1706  function getBook(uint256 _id)... */\n    tag_7:\n      tag_26\n      0x04\n      dup1\n      calldatasize\n      sub\n      dup2\n      add\n      swap1\n      tag_27\n      swap2\n      swap1\n      tag_18\n      jump\t// in\n    tag_27:\n      tag_28\n      jump\t// in\n    tag_26:\n      mload(0x40)\n      tag_29\n      swap6\n      swap5\n      swap4\n      swap3\n      swap2\n      swap1\n      tag_21\n      jump\t// in\n    tag_29:\n      mload(0x40)\n      dup1\n      swap2\n      sub\n      swap1\n      return\n        /* \"Book Library Project 8/Book Library.sol\":1758:2134  function transferBookOwnership(uint256 _id, address _newOwner) public {... */\n    tag_11:\n        /* \"Book Library Project 8/Book Library.sol\":1839:1856  Book storage book */\n      0x00\n        /* \"Book Library Project 8/Book Library.sol\":1859:1864  books */\n      dup1\n        /* \"Book Library Project 8/Book Library.sol\":1859:1869  books[_id] */\n      0x00\n        /* \"Book Library Project 8/Book Library.sol\":1865:1868  _id */\n      dup5\n        /* \"Book Library Project 8/Book Library.sol\":1859:1869  books[_id] */\n      dup2\n      mstore\n      0x20\n      add\n      swap1\n      dup2\n      mstore\n      0x20\n      add\n      0x00\n      keccak256\n        /* \"Book Library Project 8/Book Library.sol\":1839:1869  Book storage book = books[_id] */\n      swap1\n      pop\n        /* \"Book Library Project 8/Book Library.sol\":1902:1906  book */\n      dup1\n        /* \"Book Library Project 8/Book Library.sol\":1902:1912  book.owner */\n      0x04\n      add\n      0x00\n      swap1\n      sload\n      swap1\n      0x0100\n      exp\n      swap1\n      div\n      0xffffffffffffffffffffffffffffffffffffffff\n      and\n        /* \"Book Library Project 8/Book Library.sol\":1888:1912  msg.sender == book.owner */\n      0xffffffffffffffffffffffffffffffffffffffff\n      and\n        /* \"Book Library Project 8/Book Library.sol\":1888:1898  msg.sender */\n      caller\n        /* \"Book Library Project 8/Book Library.sol\":1888:1912  msg.sender == book.owner */\n      0xffffffffffffffffffffffffffffffffffffffff\n      and\n      eq\n        /* \"Book Library Project 8/Book Library.sol\":1880:1962  require(msg.sender == book.owner, \"Only the current owner can transfer ownership\") */\n      tag_31\n      jumpi\n      mload(0x40)\n      0x08c379a000000000000000000000000000000000000000000000000000000000\n      dup2\n      mstore\n      0x04\n      add\n      tag_32\n      swap1\n      tag_33\n      jump\t// in\n    tag_32:\n      mload(0x40)\n      dup1\n      swap2\n      sub\n      swap1\n      revert\n    tag_31:\n        /* \"Book Library Project 8/Book Library.sol\":2002:2003  0 */\n      0x00\n        /* \"Book Library Project 8/Book Library.sol\":1981:2004  _newOwner != address(0) */\n      0xffffffffffffffffffffffffffffffffffffffff\n      and\n        /* \"Book Library Project 8/Book Library.sol\":1981:1990  _newOwner */\n      dup3\n        /* \"Book Library Project 8/Book Library.sol\":1981:2004  _newOwner != address(0) */\n      0xffffffffffffffffffffffffffffffffffffffff\n      and\n      eq\n      iszero\n        /* \"Book Library Project 8/Book Library.sol\":1973:2034  require(_newOwner != address(0), \"Invalid new owner address\") */\n      tag_34\n      jumpi\n      mload(0x40)\n      0x08c379a000000000000000000000000000000000000000000000000000000000\n      dup2\n      mstore\n      0x04\n      add\n      tag_35\n      swap1\n      tag_36\n      jump\t// in\n    tag_35:\n      mload(0x40)\n      dup1\n      swap2\n      sub\n      swap1\n      revert\n    tag_34:\n        /* \"Book Library Project 8/Book Library.sol\":2058:2067  _newOwner */\n      dup2\n        /* \"Book Library Project 8/Book Library.sol\":2045:2049  book */\n      dup2\n        /* \"Book Library Project 8/Book Library.sol\":2045:2055  book.owner */\n      0x04\n      add\n      0x00\n        /* \"Book Library Project 8/Book Library.sol\":2045:2067  book.owner = _newOwner */\n      0x0100\n      exp\n      dup2\n      sload\n      dup2\n      0xffffffffffffffffffffffffffffffffffffffff\n      mul\n      not\n      and\n      swap1\n      dup4\n      0xffffffffffffffffffffffffffffffffffffffff\n      and\n      mul\n      or\n      swap1\n      sstore\n      pop\n        /* \"Book Library Project 8/Book Library.sol\":2099:2102  _id */\n      dup3\n        /* \"Book Library Project 8/Book Library.sol\":2083:2126  bookTransferred(_id, msg.sender, _newOwner) */\n      0x60b1f0fe8fe6cc733c881e771cff619b015f656fe925740ad471427cd1155d74\n        /* \"Book Library Project 8/Book Library.sol\":2104:2114  msg.sender */\n      caller\n        /* \"Book Library Project 8/Book Library.sol\":2116:2125  _newOwner */\n      dup5\n        /* \"Book Library Project 8/Book Library.sol\":2083:2126  bookTransferred(_id, msg.sender, _newOwner) */\n      mload(0x40)\n      tag_37\n      swap3\n      swap2\n      swap1\n      tag_38\n      jump\t// in\n    tag_37:\n      mload(0x40)\n      dup1\n      swap2\n      sub\n      swap1\n      log2\n        /* \"Book Library Project 8/Book Library.sol\":1828:2134  {... */\n      pop\n        /* \"Book Library Project 8/Book Library.sol\":1758:2134  function transferBookOwnership(uint256 _id, address _newOwner) public {... */\n      pop\n      pop\n      jump\t// out\n        /* \"Book Library Project 8/Book Library.sol\":793:1309  function addBook(... */\n    tag_15:\n        /* \"Book Library Project 8/Book Library.sol\":957:966  bookCount */\n      0x01\n      0x00\n        /* \"Book Library Project 8/Book Library.sol\":957:968  bookCount++ */\n      dup2\n      sload\n      dup1\n      swap3\n      swap2\n      swap1\n      tag_40\n      swap1\n      tag_41\n      jump\t// in\n    tag_40:\n      swap2\n      swap1\n      pop\n      sstore\n      pop\n        /* \"Book Library Project 8/Book Library.sol\":998:1126  Book(... */\n      mload(0x40)\n      dup1\n      0xa0\n      add\n      0x40\n      mstore\n      dup1\n        /* \"Book Library Project 8/Book Library.sol\":1017:1023  _title */\n      dup6\n        /* \"Book Library Project 8/Book Library.sol\":998:1126  Book(... */\n      dup2\n      mstore\n      0x20\n      add\n        /* \"Book Library Project 8/Book Library.sol\":1038:1045  _author */\n      dup5\n        /* \"Book Library Project 8/Book Library.sol\":998:1126  Book(... */\n      dup2\n      mstore\n      0x20\n      add\n        /* \"Book Library Project 8/Book Library.sol\":1060:1070  _publisher */\n      dup4\n        /* \"Book Library Project 8/Book Library.sol\":998:1126  Book(... */\n      dup2\n      mstore\n      0x20\n      add\n        /* \"Book Library Project 8/Book Library.sol\":1085:1090  _year */\n      dup3\n        /* \"Book Library Project 8/Book Library.sol\":998:1126  Book(... */\n      dup2\n      mstore\n      0x20\n      add\n        /* \"Book Library Project 8/Book Library.sol\":1105:1115  msg.sender */\n      caller\n        /* \"Book Library Project 8/Book Library.sol\":998:1126  Book(... */\n      0xffffffffffffffffffffffffffffffffffffffff\n      and\n      dup2\n      mstore\n      pop\n        /* \"Book Library Project 8/Book Library.sol\":979:984  books */\n      0x00\n        /* \"Book Library Project 8/Book Library.sol\":979:995  books[bookCount] */\n      dup1\n        /* \"Book Library Project 8/Book Library.sol\":985:994  bookCount */\n      sload(0x01)\n        /* \"Book Library Project 8/Book Library.sol\":979:995  books[bookCount] */\n      dup2\n      mstore\n      0x20\n      add\n      swap1\n      dup2\n      mstore\n      0x20\n      add\n      0x00\n      keccak256\n        /* \"Book Library Project 8/Book Library.sol\":979:1126  books[bookCount] = Book(... */\n      0x00\n      dup3\n      add\n      mload\n      dup2\n      0x00\n      add\n      swap1\n      dup1\n      mload\n      swap1\n      0x20\n      add\n      swap1\n      tag_42\n      swap3\n      swap2\n      swap1\n      tag_43\n      jump\t// in\n    tag_42:\n      pop\n      0x20\n      dup3\n      add\n      mload\n      dup2\n      0x01\n      add\n      swap1\n      dup1\n      mload\n      swap1\n      0x20\n      add\n      swap1\n      tag_44\n      swap3\n      swap2\n      swap1\n      tag_43\n      jump\t// in\n    tag_44:\n      pop\n      0x40\n      dup3\n      add\n      mload\n      dup2\n      0x02\n      add\n      swap1\n      dup1\n      mload\n      swap1\n      0x20\n      add\n      swap1\n      tag_45\n      swap3\n      swap2\n      swap1\n      tag_43\n      jump\t// in\n    tag_45:\n      pop\n      0x60\n      dup3\n      add\n      mload\n      dup2\n      0x03\n      add\n      sstore\n      0x80\n      dup3\n      add\n      mload\n      dup2\n      0x04\n      add\n      exp(0x0100, 0x00)\n      dup2\n      sload\n      dup2\n      0xffffffffffffffffffffffffffffffffffffffff\n      mul\n      not\n      and\n      swap1\n      dup4\n      0xffffffffffffffffffffffffffffffffffffffff\n      and\n      mul\n      or\n      swap1\n      sstore\n      pop\n      swap1\n      pop\n      pop\n        /* \"Book Library Project 8/Book Library.sol\":1168:1177  bookCount */\n      sload(0x01)\n        /* \"Book Library Project 8/Book Library.sol\":1142:1301  bookCreated(... */\n      0x2629f276a575b0f072d18be5096183d763fd681a1ad03ee423b576998219ac03\n        /* \"Book Library Project 8/Book Library.sol\":1192:1198  _title */\n      dup6\n        /* \"Book Library Project 8/Book Library.sol\":1213:1220  _author */\n      dup6\n        /* \"Book Library Project 8/Book Library.sol\":1235:1245  _publisher */\n      dup6\n        /* \"Book Library Project 8/Book Library.sol\":1260:1265  _year */\n      dup6\n        /* \"Book Library Project 8/Book Library.sol\":1280:1290  msg.sender */\n      caller\n        /* \"Book Library Project 8/Book Library.sol\":1142:1301  bookCreated(... */\n      mload(0x40)\n      tag_46\n      swap6\n      swap5\n      swap4\n      swap3\n      swap2\n      swap1\n      tag_21\n      jump\t// in\n    tag_46:\n      mload(0x40)\n      dup1\n      swap2\n      sub\n      swap1\n      log2\n        /* \"Book Library Project 8/Book Library.sol\":793:1309  function addBook(... */\n      pop\n      pop\n      pop\n      pop\n      jump\t// out\n        /* \"Book Library Project 8/Book Library.sol\":294:331  mapping(uint256 => Book) public books */\n    tag_19:\n      mstore(0x20, 0x00)\n      dup1\n      0x00\n      mstore\n      keccak256(0x00, 0x40)\n      0x00\n      swap2\n      pop\n      swap1\n      pop\n      dup1\n      0x00\n      add\n      dup1\n      sload\n      tag_47\n      swap1\n      tag_48\n      jump\t// in\n    tag_47:\n      dup1\n      0x1f\n      add\n      0x20\n      dup1\n      swap2\n      div\n      mul\n      0x20\n      add\n      mload(0x40)\n      swap1\n      dup2\n      add\n      0x40\n      mstore\n      dup1\n      swap3\n      swap2\n      swap1\n      dup2\n      dup2\n      mstore\n      0x20\n      add\n      dup3\n      dup1\n      sload\n      tag_49\n      swap1\n      tag_48\n      jump\t// in\n    tag_49:\n      dup1\n      iszero\n      tag_50\n      jumpi\n      dup1\n      0x1f\n      lt\n      tag_51\n      jumpi\n      0x0100\n      dup1\n      dup4\n      sload\n      div\n      mul\n      dup4\n      mstore\n      swap2\n      0x20\n      add\n      swap2\n      jump(tag_50)\n    tag_51:\n      dup3\n      add\n      swap2\n      swap1\n      0x00\n      mstore\n      keccak256(0x00, 0x20)\n      swap1\n    tag_52:\n      dup2\n      sload\n      dup2\n      mstore\n      swap1\n      0x01\n      add\n      swap1\n      0x20\n      add\n      dup1\n      dup4\n      gt\n      tag_52\n      jumpi\n      dup3\n      swap1\n      sub\n      0x1f\n      and\n      dup3\n      add\n      swap2\n    tag_50:\n      pop\n      pop\n      pop\n      pop\n      pop\n      swap1\n      dup1\n      0x01\n      add\n      dup1\n      sload\n      tag_53\n      swap1\n      tag_48\n      jump\t// in\n    tag_53:\n      dup1\n      0x1f\n      add\n      0x20\n      dup1\n      swap2\n      div\n      mul\n      0x20\n      add\n      mload(0x40)\n      swap1\n      dup2\n      add\n      0x40\n      mstore\n      dup1\n      swap3\n      swap2\n      swap1\n      dup2\n      dup2\n      mstore\n      0x20\n      add\n      dup3\n      dup1\n      sload\n      tag_54\n      swap1\n      tag_48\n      jump\t// in\n    tag_54:\n      dup1\n      iszero\n      tag_55\n      jumpi\n      dup1\n      0x1f\n      lt\n      tag_56\n      jumpi\n      0x0100\n      dup1\n      dup4\n      sload\n      div\n      mul\n      dup4\n      mstore\n      swap2\n      0x20\n      add\n      swap2\n      jump(tag_55)\n    tag_56:\n      dup3\n      add\n      swap2\n      swap1\n      0x00\n      mstore\n      keccak256(0x00, 0x20)\n      swap1\n    tag_57:\n      dup2\n      sload\n      dup2\n      mstore\n      swap1\n      0x01\n      add\n      swap1\n      0x20\n      add\n      dup1\n      dup4\n      gt\n      tag_57\n      jumpi\n      dup3\n      swap1\n      sub\n      0x1f\n      and\n      dup3\n      add\n      swap2\n    tag_55:\n      pop\n      pop\n      pop\n      pop\n      pop\n      swap1\n      dup1\n      0x02\n      add\n      dup1\n      sload\n      tag_58\n      swap1\n      tag_48\n      jump\t// in\n    tag_58:\n      dup1\n      0x1f\n      add\n      0x20\n      dup1\n      swap2\n      div\n      mul\n      0x20\n      add\n      mload(0x40)\n      swap1\n      dup2\n      add\n      0x40\n      mstore\n      dup1\n      swap3\n      swap2\n      swap1\n      dup2\n      dup2\n      mstore\n      0x20\n      add\n      dup3\n      dup1\n      sload\n      tag_59\n      swap1\n      tag_48\n      jump\t// in\n    tag_59:\n      dup1\n      iszero\n      tag_60\n      jumpi\n      dup1\n      0x1f\n      lt\n      tag_61\n      jumpi\n      0x0100\n      dup1\n      dup4\n      sload\n      div\n      mul\n      dup4\n      mstore\n      swap2\n      0x20\n      add\n      swap2\n      jump(tag_60)\n    tag_61:\n      dup3\n      add\n      swap2\n      swap1\n      0x00\n      mstore\n      keccak256(0x00, 0x20)\n      swap1\n    tag_62:\n      dup2\n      sload\n      dup2\n      mstore\n      swap1\n      0x01\n      add\n      swap1\n      0x20\n      add\n      dup1\n      dup4\n      gt\n      tag_62\n      jumpi\n      dup3\n      swap1\n      sub\n      0x1f\n      and\n      dup3\n      add\n      swap2\n    tag_60:\n      pop\n      pop\n      pop\n      pop\n      pop\n      swap1\n      dup1\n      0x03\n      add\n      sload\n      swap1\n      dup1\n      0x04\n      add\n      0x00\n      swap1\n      sload\n      swap1\n      0x0100\n      exp\n      swap1\n      div\n      0xffffffffffffffffffffffffffffffffffffffff\n      and\n      swap1\n      pop\n      dup6\n      jump\t// out\n        /* \"Book Library Project 8/Book Library.sol\":364:388  uint256 public bookCount */\n    tag_23:\n      sload(0x01)\n      dup2\n      jump\t// out\n        /* \"Book Library Project 8/Book Library.sol\":1354:1706  function getBook(uint256 _id)... */\n    tag_28:\n        /* \"Book Library Project 8/Book Library.sol\":1446:1459  string memory */\n      0x60\n        /* \"Book Library Project 8/Book Library.sol\":1474:1487  string memory */\n      dup1\n        /* \"Book Library Project 8/Book Library.sol\":1502:1515  string memory */\n      0x60\n        /* \"Book Library Project 8/Book Library.sol\":1530:1537  uint256 */\n      0x00\n        /* \"Book Library Project 8/Book Library.sol\":1552:1559  address */\n      dup1\n        /* \"Book Library Project 8/Book Library.sol\":1587:1603  Book memory book */\n      0x00\n        /* \"Book Library Project 8/Book Library.sol\":1606:1611  books */\n      dup1\n        /* \"Book Library Project 8/Book Library.sol\":1606:1616  books[_id] */\n      0x00\n        /* \"Book Library Project 8/Book Library.sol\":1612:1615  _id */\n      dup9\n        /* \"Book Library Project 8/Book Library.sol\":1606:1616  books[_id] */\n      dup2\n      mstore\n      0x20\n      add\n      swap1\n      dup2\n      mstore\n      0x20\n      add\n      0x00\n      keccak256\n        /* \"Book Library Project 8/Book Library.sol\":1587:1616  Book memory book = books[_id] */\n      mload(0x40)\n      dup1\n      0xa0\n      add\n      0x40\n      mstore\n      swap1\n      dup2\n      0x00\n      dup3\n      add\n      dup1\n      sload\n      tag_64\n      swap1\n      tag_48\n      jump\t// in\n    tag_64:\n      dup1\n      0x1f\n      add\n      0x20\n      dup1\n      swap2\n      div\n      mul\n      0x20\n      add\n      mload(0x40)\n      swap1\n      dup2\n      add\n      0x40\n      mstore\n      dup1\n      swap3\n      swap2\n      swap1\n      dup2\n      dup2\n      mstore\n      0x20\n      add\n      dup3\n      dup1\n      sload\n      tag_65\n      swap1\n      tag_48\n      jump\t// in\n    tag_65:\n      dup1\n      iszero\n      tag_66\n      jumpi\n      dup1\n      0x1f\n      lt\n      tag_67\n      jumpi\n      0x0100\n      dup1\n      dup4\n      sload\n      div\n      mul\n      dup4\n      mstore\n      swap2\n      0x20\n      add\n      swap2\n      jump(tag_66)\n    tag_67:\n      dup3\n      add\n      swap2\n      swap1\n      0x00\n      mstore\n      keccak256(0x00, 0x20)\n      swap1\n    tag_68:\n      dup2\n      sload\n      dup2\n      mstore\n      swap1\n      0x01\n      add\n      swap1\n      0x20\n      add\n      dup1\n      dup4\n      gt\n      tag_68\n      jumpi\n      dup3\n      swap1\n      sub\n      0x1f\n      and\n      dup3\n      add\n      swap2\n    tag_66:\n      pop\n      pop\n      pop\n      pop\n      pop\n      dup2\n      mstore\n      0x20\n      add\n      0x01\n      dup3\n      add\n      dup1\n      sload\n      tag_69\n      swap1\n      tag_48\n      jump\t// in\n    tag_69:\n      dup1\n      0x1f\n      add\n      0x20\n      dup1\n      swap2\n      div\n      mul\n      0x20\n      add\n      mload(0x40)\n      swap1\n      dup2\n      add\n      0x40\n      mstore\n      dup1\n      swap3\n      swap2\n      swap1\n      dup2\n      dup2\n      mstore\n      0x20\n      add\n      dup3\n      dup1\n      sload\n      tag_70\n      swap1\n      tag_48\n      jump\t// in\n    tag_70:\n      dup1\n      iszero\n      tag_71\n      jumpi\n      dup1\n      0x1f\n      lt\n      tag_72\n      jumpi\n      0x0100\n      dup1\n      dup4\n      sload\n      div\n      mul\n      dup4\n      mstore\n      swap2\n      0x20\n      add\n      swap2\n      jump(tag_71)\n    tag_72:\n      dup3\n      add\n      swap2\n      swap1\n      0x00\n      mstore\n      keccak256(0x00, 0x20)\n      swap1\n    tag_73:\n      dup2\n      sload\n      dup2\n      mstore\n      swap1\n      0x01\n      add\n      swap1\n      0x20\n      add\n      dup1\n      dup4\n      gt\n      tag_73\n      jumpi\n      dup3\n      swap1\n      sub\n      0x1f\n      and\n      dup3\n      add\n      swap2\n    tag_71:\n      pop\n      pop\n      pop\n      pop\n      pop\n      dup2\n      mstore\n      0x20\n      add\n      0x02\n      dup3\n      add\n      dup1\n      sload\n      tag_74\n      swap1\n      tag_48\n      jump\t// in\n    tag_74:\n      dup1\n      0x1f\n      add\n      0x20\n      dup1\n      swap2\n      div\n      mul\n      0x20\n      add\n      mload(0x40)\n      swap1\n      dup2\n      add\n      0x40\n      mstore\n      dup1\n      swap3\n      swap2\n      swap1\n      dup2\n      dup2\n      mstore\n      0x20\n      add\n      dup3\n      dup1\n      sload\n      tag_75\n      swap1\n      tag_48\n      jump\t// in\n    tag_75:\n      dup1\n      iszero\n      tag_76\n      jumpi\n      dup1\n      0x1f\n      lt\n      tag_77\n      jumpi\n      0x0100\n      dup1\n      dup4\n      sload\n      div\n      mul\n      dup4\n      mstore\n      swap2\n      0x20\n      add\n      swap2\n      jump(tag_76)\n    tag_77:\n      dup3\n      add\n      swap2\n      swap1\n      0x00\n      mstore\n      keccak256(0x00, 0x20)\n      swap1\n    tag_78:\n      dup2\n      sload\n      dup2\n      mstore\n      swap1\n      0x01\n      add\n      swap1\n      0x20\n      add\n      dup1\n      dup4\n      gt\n      tag_78\n      jumpi\n      dup3\n      swap1\n      sub\n      0x1f\n      and\n      dup3\n      add\n      swap2\n    tag_76:\n      pop\n      pop\n      pop\n      pop\n      pop\n      dup2\n      mstore\n      0x20\n      add\n      0x03\n      dup3\n      add\n      sload\n      dup2\n      mstore\n      0x20\n      add\n      0x04\n      dup3\n      add\n      0x00\n      swap1\n      sload\n      swap1\n      0x0100\n      exp\n      swap1\n      div\n      0xffffffffffffffffffffffffffffffffffffffff\n      and\n      0xffffffffffffffffffffffffffffffffffffffff\n      and\n      0xffffffffffffffffffffffffffffffffffffffff\n      and\n      dup2\n      mstore\n      pop\n      pop\n      swap1\n      pop\n        /* \"Book Library Project 8/Book Library.sol\":1635:1639  book */\n      dup1\n        /* \"Book Library Project 8/Book Library.sol\":1635:1645  book.title */\n      0x00\n      add\n      mload\n        /* \"Book Library Project 8/Book Library.sol\":1647:1651  book */\n      dup2\n        /* \"Book Library Project 8/Book Library.sol\":1647:1658  book.author */\n      0x20\n      add\n      mload\n        /* \"Book Library Project 8/Book Library.sol\":1660:1664  book */\n      dup3\n        /* \"Book Library Project 8/Book Library.sol\":1660:1674  book.publisher */\n      0x40\n      add\n      mload\n        /* \"Book Library Project 8/Book Library.sol\":1676:1680  book */\n      dup4\n        /* \"Book Library Project 8/Book Library.sol\":1676:1685  book.year */\n      0x60\n      add\n      mload\n        /* \"Book Library Project 8/Book Library.sol\":1687:1691  book */\n      dup5\n        /* \"Book Library Project 8/Book Library.sol\":1687:1697  book.owner */\n      0x80\n      add\n      mload\n        /* \"Book Library Project 8/Book Library.sol\":1627:1698  return (book.title, book.author, book.publisher, book.year, book.owner) */\n      swap6\n      pop\n      swap6\n      pop\n      swap6\n      pop\n      swap6\n      pop\n      swap6\n      pop\n      pop\n        /* \"Book Library Project 8/Book Library.sol\":1354:1706  function getBook(uint256 _id)... */\n      swap2\n      swap4\n      swap6\n      swap1\n      swap3\n      swap5\n      pop\n      jump\t// out\n    tag_43:\n      dup3\n      dup1\n      sload\n      tag_79\n      swap1\n      tag_48\n      jump\t// in\n    tag_79:\n      swap1\n      0x00\n      mstore\n      keccak256(0x00, 0x20)\n      swap1\n      0x1f\n      add\n      0x20\n      swap1\n      div\n      dup2\n      add\n      swap3\n      dup3\n      tag_81\n      jumpi\n      0x00\n      dup6\n      sstore\n      jump(tag_80)\n    tag_81:\n      dup3\n      0x1f\n      lt\n      tag_82\n      jumpi\n      dup1\n      mload\n      not(0xff)\n      and\n      dup4\n      dup1\n      add\n      or\n      dup6\n      sstore\n      jump(tag_80)\n    tag_82:\n      dup3\n      dup1\n      add\n      0x01\n      add\n      dup6\n      sstore\n      dup3\n      iszero\n      tag_80\n      jumpi\n      swap2\n      dup3\n      add\n    tag_83:\n      dup3\n      dup2\n      gt\n      iszero\n      tag_84\n      jumpi\n      dup3\n      mload\n      dup3\n      sstore\n      swap2\n      0x20\n      add\n      swap2\n      swap1\n      0x01\n      add\n      swap1\n      jump(tag_83)\n    tag_84:\n    tag_80:\n      pop\n      swap1\n      pop\n      tag_85\n      swap2\n      swap1\n      tag_86\n      jump\t// in\n    tag_85:\n      pop\n      swap1\n      jump\t// out\n    tag_86:\n    tag_87:\n      dup1\n      dup3\n      gt\n      iszero\n      tag_88\n      jumpi\n      0x00\n      dup2\n      0x00\n      swap1\n      sstore\n      pop\n      0x01\n      add\n      jump(tag_87)\n    tag_88:\n      pop\n      swap1\n      jump\t// out\n        /* \"#utility.yul\":7:82   */\n    tag_89:\n        /* \"#utility.yul\":40:46   */\n      0x00\n        /* \"#utility.yul\":73:75   */\n      0x40\n        /* \"#utility.yul\":67:76   */\n      mload\n        /* \"#utility.yul\":57:76   */\n      swap1\n      pop\n        /* \"#utility.yul\":7:82   */\n      swap1\n      jump\t// out\n        /* \"#utility.yul\":88:205   */\n    tag_90:\n        /* \"#utility.yul\":197:198   */\n      0x00\n        /* \"#utility.yul\":194:195   */\n      dup1\n        /* \"#utility.yul\":187:199   */\n      revert\n        /* \"#utility.yul\":211:328   */\n    tag_91:\n        /* \"#utility.yul\":320:321   */\n      0x00\n        /* \"#utility.yul\":317:318   */\n      dup1\n        /* \"#utility.yul\":310:322   */\n      revert\n        /* \"#utility.yul\":334:411   */\n    tag_92:\n        /* \"#utility.yul\":371:378   */\n      0x00\n        /* \"#utility.yul\":400:405   */\n      dup2\n        /* \"#utility.yul\":389:405   */\n      swap1\n      pop\n        /* \"#utility.yul\":334:411   */\n      swap2\n      swap1\n      pop\n      jump\t// out\n        /* \"#utility.yul\":417:539   */\n    tag_93:\n        /* \"#utility.yul\":490:514   */\n      tag_127\n        /* \"#utility.yul\":508:513   */\n      dup2\n        /* \"#utility.yul\":490:514   */\n      tag_92\n      jump\t// in\n    tag_127:\n        /* \"#utility.yul\":483:488   */\n      dup2\n        /* \"#utility.yul\":480:515   */\n      eq\n        /* \"#utility.yul\":470:533   */\n      tag_128\n      jumpi\n        /* \"#utility.yul\":529:530   */\n      0x00\n        /* \"#utility.yul\":526:527   */\n      dup1\n        /* \"#utility.yul\":519:531   */\n      revert\n        /* \"#utility.yul\":470:533   */\n    tag_128:\n        /* \"#utility.yul\":417:539   */\n      pop\n      jump\t// out\n        /* \"#utility.yul\":545:684   */\n    tag_94:\n        /* \"#utility.yul\":591:596   */\n      0x00\n        /* \"#utility.yul\":629:635   */\n      dup2\n        /* \"#utility.yul\":616:636   */\n      calldataload\n        /* \"#utility.yul\":607:636   */\n      swap1\n      pop\n        /* \"#utility.yul\":645:678   */\n      tag_130\n        /* \"#utility.yul\":672:677   */\n      dup2\n        /* \"#utility.yul\":645:678   */\n      tag_93\n      jump\t// in\n    tag_130:\n        /* \"#utility.yul\":545:684   */\n      swap3\n      swap2\n      pop\n      pop\n      jump\t// out\n        /* \"#utility.yul\":690:816   */\n    tag_95:\n        /* \"#utility.yul\":727:734   */\n      0x00\n        /* \"#utility.yul\":767:809   */\n      0xffffffffffffffffffffffffffffffffffffffff\n        /* \"#utility.yul\":760:765   */\n      dup3\n        /* \"#utility.yul\":756:810   */\n      and\n        /* \"#utility.yul\":745:810   */\n      swap1\n      pop\n        /* \"#utility.yul\":690:816   */\n      swap2\n      swap1\n      pop\n      jump\t// out\n        /* \"#utility.yul\":822:918   */\n    tag_96:\n        /* \"#utility.yul\":859:866   */\n      0x00\n        /* \"#utility.yul\":888:912   */\n      tag_133\n        /* \"#utility.yul\":906:911   */\n      dup3\n        /* \"#utility.yul\":888:912   */\n      tag_95\n      jump\t// in\n    tag_133:\n        /* \"#utility.yul\":877:912   */\n      swap1\n      pop\n        /* \"#utility.yul\":822:918   */\n      swap2\n      swap1\n      pop\n      jump\t// out\n        /* \"#utility.yul\":924:1046   */\n    tag_97:\n        /* \"#utility.yul\":997:1021   */\n      tag_135\n        /* \"#utility.yul\":1015:1020   */\n      dup2\n        /* \"#utility.yul\":997:1021   */\n      tag_96\n      jump\t// in\n    tag_135:\n        /* \"#utility.yul\":990:995   */\n      dup2\n        /* \"#utility.yul\":987:1022   */\n      eq\n        /* \"#utility.yul\":977:1040   */\n      tag_136\n      jumpi\n        /* \"#utility.yul\":1036:1037   */\n      0x00\n        /* \"#utility.yul\":1033:1034   */\n      dup1\n        /* \"#utility.yul\":1026:1038   */\n      revert\n        /* \"#utility.yul\":977:1040   */\n    tag_136:\n        /* \"#utility.yul\":924:1046   */\n      pop\n      jump\t// out\n        /* \"#utility.yul\":1052:1191   */\n    tag_98:\n        /* \"#utility.yul\":1098:1103   */\n      0x00\n        /* \"#utility.yul\":1136:1142   */\n      dup2\n        /* \"#utility.yul\":1123:1143   */\n      calldataload\n        /* \"#utility.yul\":1114:1143   */\n      swap1\n      pop\n        /* \"#utility.yul\":1152:1185   */\n      tag_138\n        /* \"#utility.yul\":1179:1184   */\n      dup2\n        /* \"#utility.yul\":1152:1185   */\n      tag_97\n      jump\t// in\n    tag_138:\n        /* \"#utility.yul\":1052:1191   */\n      swap3\n      swap2\n      pop\n      pop\n      jump\t// out\n        /* \"#utility.yul\":1197:1671   */\n    tag_10:\n        /* \"#utility.yul\":1265:1271   */\n      0x00\n        /* \"#utility.yul\":1273:1279   */\n      dup1\n        /* \"#utility.yul\":1322:1324   */\n      0x40\n        /* \"#utility.yul\":1310:1319   */\n      dup4\n        /* \"#utility.yul\":1301:1308   */\n      dup6\n        /* \"#utility.yul\":1297:1320   */\n      sub\n        /* \"#utility.yul\":1293:1325   */\n      slt\n        /* \"#utility.yul\":1290:1409   */\n      iszero\n      tag_140\n      jumpi\n        /* \"#utility.yul\":1328:1407   */\n      tag_141\n      tag_90\n      jump\t// in\n    tag_141:\n        /* \"#utility.yul\":1290:1409   */\n    tag_140:\n        /* \"#utility.yul\":1448:1449   */\n      0x00\n        /* \"#utility.yul\":1473:1526   */\n      tag_142\n        /* \"#utility.yul\":1518:1525   */\n      dup6\n        /* \"#utility.yul\":1509:1515   */\n      dup3\n        /* \"#utility.yul\":1498:1507   */\n      dup7\n        /* \"#utility.yul\":1494:1516   */\n      add\n        /* \"#utility.yul\":1473:1526   */\n      tag_94\n      jump\t// in\n    tag_142:\n        /* \"#utility.yul\":1463:1526   */\n      swap3\n      pop\n        /* \"#utility.yul\":1419:1536   */\n      pop\n        /* \"#utility.yul\":1575:1577   */\n      0x20\n        /* \"#utility.yul\":1601:1654   */\n      tag_143\n        /* \"#utility.yul\":1646:1653   */\n      dup6\n        /* \"#utility.yul\":1637:1643   */\n      dup3\n        /* \"#utility.yul\":1626:1635   */\n      dup7\n        /* \"#utility.yul\":1622:1644   */\n      add\n        /* \"#utility.yul\":1601:1654   */\n      tag_98\n      jump\t// in\n    tag_143:\n        /* \"#utility.yul\":1591:1654   */\n      swap2\n      pop\n        /* \"#utility.yul\":1546:1664   */\n      pop\n        /* \"#utility.yul\":1197:1671   */\n      swap3\n      pop\n      swap3\n      swap1\n      pop\n      jump\t// out\n        /* \"#utility.yul\":1677:1794   */\n    tag_99:\n        /* \"#utility.yul\":1786:1787   */\n      0x00\n        /* \"#utility.yul\":1783:1784   */\n      dup1\n        /* \"#utility.yul\":1776:1788   */\n      revert\n        /* \"#utility.yul\":1800:1917   */\n    tag_100:\n        /* \"#utility.yul\":1909:1910   */\n      0x00\n        /* \"#utility.yul\":1906:1907   */\n      dup1\n        /* \"#utility.yul\":1899:1911   */\n      revert\n        /* \"#utility.yul\":1923:2025   */\n    tag_101:\n        /* \"#utility.yul\":1964:1970   */\n      0x00\n        /* \"#utility.yul\":2015:2017   */\n      0x1f\n        /* \"#utility.yul\":2011:2018   */\n      not\n        /* \"#utility.yul\":2006:2008   */\n      0x1f\n        /* \"#utility.yul\":1999:2004   */\n      dup4\n        /* \"#utility.yul\":1995:2009   */\n      add\n        /* \"#utility.yul\":1991:2019   */\n      and\n        /* \"#utility.yul\":1981:2019   */\n      swap1\n      pop\n        /* \"#utility.yul\":1923:2025   */\n      swap2\n      swap1\n      pop\n      jump\t// out\n        /* \"#utility.yul\":2031:2211   */\n    tag_102:\n        /* \"#utility.yul\":2079:2156   */\n      0x4e487b7100000000000000000000000000000000000000000000000000000000\n        /* \"#utility.yul\":2076:2077   */\n      0x00\n        /* \"#utility.yul\":2069:2157   */\n      mstore\n        /* \"#utility.yul\":2176:2180   */\n      0x41\n        /* \"#utility.yul\":2173:2174   */\n      0x04\n        /* \"#utility.yul\":2166:2181   */\n      mstore\n        /* \"#utility.yul\":2200:2204   */\n      0x24\n        /* \"#utility.yul\":2197:2198   */\n      0x00\n        /* \"#utility.yul\":2190:2205   */\n      revert\n        /* \"#utility.yul\":2217:2498   */\n    tag_103:\n        /* \"#utility.yul\":2300:2327   */\n      tag_149\n        /* \"#utility.yul\":2322:2326   */\n      dup3\n        /* \"#utility.yul\":2300:2327   */\n      tag_101\n      jump\t// in\n    tag_149:\n        /* \"#utility.yul\":2292:2298   */\n      dup2\n        /* \"#utility.yul\":2288:2328   */\n      add\n        /* \"#utility.yul\":2430:2436   */\n      dup2\n        /* \"#utility.yul\":2418:2428   */\n      dup2\n        /* \"#utility.yul\":2415:2437   */\n      lt\n        /* \"#utility.yul\":2394:2412   */\n      0xffffffffffffffff\n        /* \"#utility.yul\":2382:2392   */\n      dup3\n        /* \"#utility.yul\":2379:2413   */\n      gt\n        /* \"#utility.yul\":2376:2438   */\n      or\n        /* \"#utility.yul\":2373:2461   */\n      iszero\n      tag_150\n      jumpi\n        /* \"#utility.yul\":2441:2459   */\n      tag_151\n      tag_102\n      jump\t// in\n    tag_151:\n        /* \"#utility.yul\":2373:2461   */\n    tag_150:\n        /* \"#utility.yul\":2481:2491   */\n      dup1\n        /* \"#utility.yul\":2477:2479   */\n      0x40\n        /* \"#utility.yul\":2470:2492   */\n      mstore\n        /* \"#utility.yul\":2260:2498   */\n      pop\n        /* \"#utility.yul\":2217:2498   */\n      pop\n      pop\n      jump\t// out\n        /* \"#utility.yul\":2504:2633   */\n    tag_104:\n        /* \"#utility.yul\":2538:2544   */\n      0x00\n        /* \"#utility.yul\":2565:2585   */\n      tag_153\n      tag_89\n      jump\t// in\n    tag_153:\n        /* \"#utility.yul\":2555:2585   */\n      swap1\n      pop\n        /* \"#utility.yul\":2594:2627   */\n      tag_154\n        /* \"#utility.yul\":2622:2626   */\n      dup3\n        /* \"#utility.yul\":2614:2620   */\n      dup3\n        /* \"#utility.yul\":2594:2627   */\n      tag_103\n      jump\t// in\n    tag_154:\n        /* \"#utility.yul\":2504:2633   */\n      swap2\n      swap1\n      pop\n      jump\t// out\n        /* \"#utility.yul\":2639:2947   */\n    tag_105:\n        /* \"#utility.yul\":2701:2705   */\n      0x00\n        /* \"#utility.yul\":2791:2809   */\n      0xffffffffffffffff\n        /* \"#utility.yul\":2783:2789   */\n      dup3\n        /* \"#utility.yul\":2780:2810   */\n      gt\n        /* \"#utility.yul\":2777:2833   */\n      iszero\n      tag_156\n      jumpi\n        /* \"#utility.yul\":2813:2831   */\n      tag_157\n      tag_102\n      jump\t// in\n    tag_157:\n        /* \"#utility.yul\":2777:2833   */\n    tag_156:\n        /* \"#utility.yul\":2851:2880   */\n      tag_158\n        /* \"#utility.yul\":2873:2879   */\n      dup3\n        /* \"#utility.yul\":2851:2880   */\n      tag_101\n      jump\t// in\n    tag_158:\n        /* \"#utility.yul\":2843:2880   */\n      swap1\n      pop\n        /* \"#utility.yul\":2935:2939   */\n      0x20\n        /* \"#utility.yul\":2929:2933   */\n      dup2\n        /* \"#utility.yul\":2925:2940   */\n      add\n        /* \"#utility.yul\":2917:2940   */\n      swap1\n      pop\n        /* \"#utility.yul\":2639:2947   */\n      swap2\n      swap1\n      pop\n      jump\t// out\n        /* \"#utility.yul\":2953:3107   */\n    tag_106:\n        /* \"#utility.yul\":3037:3043   */\n      dup3\n        /* \"#utility.yul\":3032:3035   */\n      dup2\n        /* \"#utility.yul\":3027:3030   */\n      dup4\n        /* \"#utility.yul\":3014:3044   */\n      calldatacopy\n        /* \"#utility.yul\":3099:3100   */\n      0x00\n        /* \"#utility.yul\":3090:3096   */\n      dup4\n        /* \"#utility.yul\":3085:3088   */\n      dup4\n        /* \"#utility.yul\":3081:3097   */\n      add\n        /* \"#utility.yul\":3074:3101   */\n      mstore\n        /* \"#utility.yul\":2953:3107   */\n      pop\n      pop\n      pop\n      jump\t// out\n        /* \"#utility.yul\":3113:3525   */\n    tag_107:\n        /* \"#utility.yul\":3191:3196   */\n      0x00\n        /* \"#utility.yul\":3216:3282   */\n      tag_161\n        /* \"#utility.yul\":3232:3281   */\n      tag_162\n        /* \"#utility.yul\":3274:3280   */\n      dup5\n        /* \"#utility.yul\":3232:3281   */\n      tag_105\n      jump\t// in\n    tag_162:\n        /* \"#utility.yul\":3216:3282   */\n      tag_104\n      jump\t// in\n    tag_161:\n        /* \"#utility.yul\":3207:3282   */\n      swap1\n      pop\n        /* \"#utility.yul\":3305:3311   */\n      dup3\n        /* \"#utility.yul\":3298:3303   */\n      dup2\n        /* \"#utility.yul\":3291:3312   */\n      mstore\n        /* \"#utility.yul\":3343:3347   */\n      0x20\n        /* \"#utility.yul\":3336:3341   */\n      dup2\n        /* \"#utility.yul\":3332:3348   */\n      add\n        /* \"#utility.yul\":3381:3384   */\n      dup5\n        /* \"#utility.yul\":3372:3378   */\n      dup5\n        /* \"#utility.yul\":3367:3370   */\n      dup5\n        /* \"#utility.yul\":3363:3379   */\n      add\n        /* \"#utility.yul\":3360:3385   */\n      gt\n        /* \"#utility.yul\":3357:3469   */\n      iszero\n      tag_163\n      jumpi\n        /* \"#utility.yul\":3388:3467   */\n      tag_164\n      tag_100\n      jump\t// in\n    tag_164:\n        /* \"#utility.yul\":3357:3469   */\n    tag_163:\n        /* \"#utility.yul\":3478:3519   */\n      tag_165\n        /* \"#utility.yul\":3512:3518   */\n      dup5\n        /* \"#utility.yul\":3507:3510   */\n      dup3\n        /* \"#utility.yul\":3502:3505   */\n      dup6\n        /* \"#utility.yul\":3478:3519   */\n      tag_106\n      jump\t// in\n    tag_165:\n        /* \"#utility.yul\":3197:3525   */\n      pop\n        /* \"#utility.yul\":3113:3525   */\n      swap4\n      swap3\n      pop\n      pop\n      pop\n      jump\t// out\n        /* \"#utility.yul\":3545:3885   */\n    tag_108:\n        /* \"#utility.yul\":3601:3606   */\n      0x00\n        /* \"#utility.yul\":3650:3653   */\n      dup3\n        /* \"#utility.yul\":3643:3647   */\n      0x1f\n        /* \"#utility.yul\":3635:3641   */\n      dup4\n        /* \"#utility.yul\":3631:3648   */\n      add\n        /* \"#utility.yul\":3627:3654   */\n      slt\n        /* \"#utility.yul\":3617:3739   */\n      tag_167\n      jumpi\n        /* \"#utility.yul\":3658:3737   */\n      tag_168\n      tag_99\n      jump\t// in\n    tag_168:\n        /* \"#utility.yul\":3617:3739   */\n    tag_167:\n        /* \"#utility.yul\":3775:3781   */\n      dup2\n        /* \"#utility.yul\":3762:3782   */\n      calldataload\n        /* \"#utility.yul\":3800:3879   */\n      tag_169\n        /* \"#utility.yul\":3875:3878   */\n      dup5\n        /* \"#utility.yul\":3867:3873   */\n      dup3\n        /* \"#utility.yul\":3860:3864   */\n      0x20\n        /* \"#utility.yul\":3852:3858   */\n      dup7\n        /* \"#utility.yul\":3848:3865   */\n      add\n        /* \"#utility.yul\":3800:3879   */\n      tag_107\n      jump\t// in\n    tag_169:\n        /* \"#utility.yul\":3791:3879   */\n      swap2\n      pop\n        /* \"#utility.yul\":3607:3885   */\n      pop\n        /* \"#utility.yul\":3545:3885   */\n      swap3\n      swap2\n      pop\n      pop\n      jump\t// out\n        /* \"#utility.yul\":3891:5196   */\n    tag_14:\n        /* \"#utility.yul\":4007:4013   */\n      0x00\n        /* \"#utility.yul\":4015:4021   */\n      dup1\n        /* \"#utility.yul\":4023:4029   */\n      0x00\n        /* \"#utility.yul\":4031:4037   */\n      dup1\n        /* \"#utility.yul\":4080:4083   */\n      0x80\n        /* \"#utility.yul\":4068:4077   */\n      dup6\n        /* \"#utility.yul\":4059:4066   */\n      dup8\n        /* \"#utility.yul\":4055:4078   */\n      sub\n        /* \"#utility.yul\":4051:4084   */\n      slt\n        /* \"#utility.yul\":4048:4168   */\n      iszero\n      tag_171\n      jumpi\n        /* \"#utility.yul\":4087:4166   */\n      tag_172\n      tag_90\n      jump\t// in\n    tag_172:\n        /* \"#utility.yul\":4048:4168   */\n    tag_171:\n        /* \"#utility.yul\":4235:4236   */\n      0x00\n        /* \"#utility.yul\":4224:4233   */\n      dup6\n        /* \"#utility.yul\":4220:4237   */\n      add\n        /* \"#utility.yul\":4207:4238   */\n      calldataload\n        /* \"#utility.yul\":4265:4283   */\n      0xffffffffffffffff\n        /* \"#utility.yul\":4257:4263   */\n      dup2\n        /* \"#utility.yul\":4254:4284   */\n      gt\n        /* \"#utility.yul\":4251:4368   */\n      iszero\n      tag_173\n      jumpi\n        /* \"#utility.yul\":4287:4366   */\n      tag_174\n      tag_91\n      jump\t// in\n    tag_174:\n        /* \"#utility.yul\":4251:4368   */\n    tag_173:\n        /* \"#utility.yul\":4392:4455   */\n      tag_175\n        /* \"#utility.yul\":4447:4454   */\n      dup8\n        /* \"#utility.yul\":4438:4444   */\n      dup3\n        /* \"#utility.yul\":4427:4436   */\n      dup9\n        /* \"#utility.yul\":4423:4445   */\n      add\n        /* \"#utility.yul\":4392:4455   */\n      tag_108\n      jump\t// in\n    tag_175:\n        /* \"#utility.yul\":4382:4455   */\n      swap5\n      pop\n        /* \"#utility.yul\":4178:4465   */\n      pop\n        /* \"#utility.yul\":4532:4534   */\n      0x20\n        /* \"#utility.yul\":4521:4530   */\n      dup6\n        /* \"#utility.yul\":4517:4535   */\n      add\n        /* \"#utility.yul\":4504:4536   */\n      calldataload\n        /* \"#utility.yul\":4563:4581   */\n      0xffffffffffffffff\n        /* \"#utility.yul\":4555:4561   */\n      dup2\n        /* \"#utility.yul\":4552:4582   */\n      gt\n        /* \"#utility.yul\":4549:4666   */\n      iszero\n      tag_176\n      jumpi\n        /* \"#utility.yul\":4585:4664   */\n      tag_177\n      tag_91\n      jump\t// in\n    tag_177:\n        /* \"#utility.yul\":4549:4666   */\n    tag_176:\n        /* \"#utility.yul\":4690:4753   */\n      tag_178\n        /* \"#utility.yul\":4745:4752   */\n      dup8\n        /* \"#utility.yul\":4736:4742   */\n      dup3\n        /* \"#utility.yul\":4725:4734   */\n      dup9\n        /* \"#utility.yul\":4721:4743   */\n      add\n        /* \"#utility.yul\":4690:4753   */\n      tag_108\n      jump\t// in\n    tag_178:\n        /* \"#utility.yul\":4680:4753   */\n      swap4\n      pop\n        /* \"#utility.yul\":4475:4763   */\n      pop\n        /* \"#utility.yul\":4830:4832   */\n      0x40\n        /* \"#utility.yul\":4819:4828   */\n      dup6\n        /* \"#utility.yul\":4815:4833   */\n      add\n        /* \"#utility.yul\":4802:4834   */\n      calldataload\n        /* \"#utility.yul\":4861:4879   */\n      0xffffffffffffffff\n        /* \"#utility.yul\":4853:4859   */\n      dup2\n        /* \"#utility.yul\":4850:4880   */\n      gt\n        /* \"#utility.yul\":4847:4964   */\n      iszero\n      tag_179\n      jumpi\n        /* \"#utility.yul\":4883:4962   */\n      tag_180\n      tag_91\n      jump\t// in\n    tag_180:\n        /* \"#utility.yul\":4847:4964   */\n    tag_179:\n        /* \"#utility.yul\":4988:5051   */\n      tag_181\n        /* \"#utility.yul\":5043:5050   */\n      dup8\n        /* \"#utility.yul\":5034:5040   */\n      dup3\n        /* \"#utility.yul\":5023:5032   */\n      dup9\n        /* \"#utility.yul\":5019:5041   */\n      add\n        /* \"#utility.yul\":4988:5051   */\n      tag_108\n      jump\t// in\n    tag_181:\n        /* \"#utility.yul\":4978:5051   */\n      swap3\n      pop\n        /* \"#utility.yul\":4773:5061   */\n      pop\n        /* \"#utility.yul\":5100:5102   */\n      0x60\n        /* \"#utility.yul\":5126:5179   */\n      tag_182\n        /* \"#utility.yul\":5171:5178   */\n      dup8\n        /* \"#utility.yul\":5162:5168   */\n      dup3\n        /* \"#utility.yul\":5151:5160   */\n      dup9\n        /* \"#utility.yul\":5147:5169   */\n      add\n        /* \"#utility.yul\":5126:5179   */\n      tag_94\n      jump\t// in\n    tag_182:\n        /* \"#utility.yul\":5116:5179   */\n      swap2\n      pop\n        /* \"#utility.yul\":5071:5189   */\n      pop\n        /* \"#utility.yul\":3891:5196   */\n      swap3\n      swap6\n      swap2\n      swap5\n      pop\n      swap3\n      pop\n      jump\t// out\n        /* \"#utility.yul\":5202:5531   */\n    tag_18:\n        /* \"#utility.yul\":5261:5267   */\n      0x00\n        /* \"#utility.yul\":5310:5312   */\n      0x20\n        /* \"#utility.yul\":5298:5307   */\n      dup3\n        /* \"#utility.yul\":5289:5296   */\n      dup5\n        /* \"#utility.yul\":5285:5308   */\n      sub\n        /* \"#utility.yul\":5281:5313   */\n      slt\n        /* \"#utility.yul\":5278:5397   */\n      iszero\n      tag_184\n      jumpi\n        /* \"#utility.yul\":5316:5395   */\n      tag_185\n      tag_90\n      jump\t// in\n    tag_185:\n        /* \"#utility.yul\":5278:5397   */\n    tag_184:\n        /* \"#utility.yul\":5436:5437   */\n      0x00\n        /* \"#utility.yul\":5461:5514   */\n      tag_186\n        /* \"#utility.yul\":5506:5513   */\n      dup5\n        /* \"#utility.yul\":5497:5503   */\n      dup3\n        /* \"#utility.yul\":5486:5495   */\n      dup6\n        /* \"#utility.yul\":5482:5504   */\n      add\n        /* \"#utility.yul\":5461:5514   */\n      tag_94\n      jump\t// in\n    tag_186:\n        /* \"#utility.yul\":5451:5514   */\n      swap2\n      pop\n        /* \"#utility.yul\":5407:5524   */\n      pop\n        /* \"#utility.yul\":5202:5531   */\n      swap3\n      swap2\n      pop\n      pop\n      jump\t// out\n        /* \"#utility.yul\":5537:5636   */\n    tag_109:\n        /* \"#utility.yul\":5589:5595   */\n      0x00\n        /* \"#utility.yul\":5623:5628   */\n      dup2\n        /* \"#utility.yul\":5617:5629   */\n      mload\n        /* \"#utility.yul\":5607:5629   */\n      swap1\n      pop\n        /* \"#utility.yul\":5537:5636   */\n      swap2\n      swap1\n      pop\n      jump\t// out\n        /* \"#utility.yul\":5642:5811   */\n    tag_110:\n        /* \"#utility.yul\":5726:5737   */\n      0x00\n        /* \"#utility.yul\":5760:5766   */\n      dup3\n        /* \"#utility.yul\":5755:5758   */\n      dup3\n        /* \"#utility.yul\":5748:5767   */\n      mstore\n        /* \"#utility.yul\":5800:5804   */\n      0x20\n        /* \"#utility.yul\":5795:5798   */\n      dup3\n        /* \"#utility.yul\":5791:5805   */\n      add\n        /* \"#utility.yul\":5776:5805   */\n      swap1\n      pop\n        /* \"#utility.yul\":5642:5811   */\n      swap3\n      swap2\n      pop\n      pop\n      jump\t// out\n        /* \"#utility.yul\":5817:6124   */\n    tag_111:\n        /* \"#utility.yul\":5885:5886   */\n      0x00\n        /* \"#utility.yul\":5895:6008   */\n    tag_190:\n        /* \"#utility.yul\":5909:5915   */\n      dup4\n        /* \"#utility.yul\":5906:5907   */\n      dup2\n        /* \"#utility.yul\":5903:5916   */\n      lt\n        /* \"#utility.yul\":5895:6008   */\n      iszero\n      tag_192\n      jumpi\n        /* \"#utility.yul\":5994:5995   */\n      dup1\n        /* \"#utility.yul\":5989:5992   */\n      dup3\n        /* \"#utility.yul\":5985:5996   */\n      add\n        /* \"#utility.yul\":5979:5997   */\n      mload\n        /* \"#utility.yul\":5975:5976   */\n      dup2\n        /* \"#utility.yul\":5970:5973   */\n      dup5\n        /* \"#utility.yul\":5966:5977   */\n      add\n        /* \"#utility.yul\":5959:5998   */\n      mstore\n        /* \"#utility.yul\":5931:5933   */\n      0x20\n        /* \"#utility.yul\":5928:5929   */\n      dup2\n        /* \"#utility.yul\":5924:5934   */\n      add\n        /* \"#utility.yul\":5919:5934   */\n      swap1\n      pop\n        /* \"#utility.yul\":5895:6008   */\n      jump(tag_190)\n    tag_192:\n        /* \"#utility.yul\":6026:6032   */\n      dup4\n        /* \"#utility.yul\":6023:6024   */\n      dup2\n        /* \"#utility.yul\":6020:6033   */\n      gt\n        /* \"#utility.yul\":6017:6118   */\n      iszero\n      tag_193\n      jumpi\n        /* \"#utility.yul\":6106:6107   */\n      0x00\n        /* \"#utility.yul\":6097:6103   */\n      dup5\n        /* \"#utility.yul\":6092:6095   */\n      dup5\n        /* \"#utility.yul\":6088:6104   */\n      add\n        /* \"#utility.yul\":6081:6108   */\n      mstore\n        /* \"#utility.yul\":6017:6118   */\n    tag_193:\n        /* \"#utility.yul\":5866:6124   */\n      pop\n        /* \"#utility.yul\":5817:6124   */\n      pop\n      pop\n      pop\n      jump\t// out\n        /* \"#utility.yul\":6130:6494   */\n    tag_112:\n        /* \"#utility.yul\":6218:6221   */\n      0x00\n        /* \"#utility.yul\":6246:6285   */\n      tag_195\n        /* \"#utility.yul\":6279:6284   */\n      dup3\n        /* \"#utility.yul\":6246:6285   */\n      tag_109\n      jump\t// in\n    tag_195:\n        /* \"#utility.yul\":6301:6372   */\n      tag_196\n        /* \"#utility.yul\":6365:6371   */\n      dup2\n        /* \"#utility.yul\":6360:6363   */\n      dup6\n        /* \"#utility.yul\":6301:6372   */\n      tag_110\n      jump\t// in\n    tag_196:\n        /* \"#utility.yul\":6294:6372   */\n      swap4\n      pop\n        /* \"#utility.yul\":6381:6433   */\n      tag_197\n        /* \"#utility.yul\":6426:6432   */\n      dup2\n        /* \"#utility.yul\":6421:6424   */\n      dup6\n        /* \"#utility.yul\":6414:6418   */\n      0x20\n        /* \"#utility.yul\":6407:6412   */\n      dup7\n        /* \"#utility.yul\":6403:6419   */\n      add\n        /* \"#utility.yul\":6381:6433   */\n      tag_111\n      jump\t// in\n    tag_197:\n        /* \"#utility.yul\":6458:6487   */\n      tag_198\n        /* \"#utility.yul\":6480:6486   */\n      dup2\n        /* \"#utility.yul\":6458:6487   */\n      tag_101\n      jump\t// in\n    tag_198:\n        /* \"#utility.yul\":6453:6456   */\n      dup5\n        /* \"#utility.yul\":6449:6488   */\n      add\n        /* \"#utility.yul\":6442:6488   */\n      swap2\n      pop\n        /* \"#utility.yul\":6222:6494   */\n      pop\n        /* \"#utility.yul\":6130:6494   */\n      swap3\n      swap2\n      pop\n      pop\n      jump\t// out\n        /* \"#utility.yul\":6500:6618   */\n    tag_113:\n        /* \"#utility.yul\":6587:6611   */\n      tag_200\n        /* \"#utility.yul\":6605:6610   */\n      dup2\n        /* \"#utility.yul\":6587:6611   */\n      tag_92\n      jump\t// in\n    tag_200:\n        /* \"#utility.yul\":6582:6585   */\n      dup3\n        /* \"#utility.yul\":6575:6612   */\n      mstore\n        /* \"#utility.yul\":6500:6618   */\n      pop\n      pop\n      jump\t// out\n        /* \"#utility.yul\":6624:6742   */\n    tag_114:\n        /* \"#utility.yul\":6711:6735   */\n      tag_202\n        /* \"#utility.yul\":6729:6734   */\n      dup2\n        /* \"#utility.yul\":6711:6735   */\n      tag_96\n      jump\t// in\n    tag_202:\n        /* \"#utility.yul\":6706:6709   */\n      dup3\n        /* \"#utility.yul\":6699:6736   */\n      mstore\n        /* \"#utility.yul\":6624:6742   */\n      pop\n      pop\n      jump\t// out\n        /* \"#utility.yul\":6748:7685   */\n    tag_21:\n        /* \"#utility.yul\":7013:7017   */\n      0x00\n        /* \"#utility.yul\":7051:7054   */\n      0xa0\n        /* \"#utility.yul\":7040:7049   */\n      dup3\n        /* \"#utility.yul\":7036:7055   */\n      add\n        /* \"#utility.yul\":7028:7055   */\n      swap1\n      pop\n        /* \"#utility.yul\":7101:7110   */\n      dup2\n        /* \"#utility.yul\":7095:7099   */\n      dup2\n        /* \"#utility.yul\":7091:7111   */\n      sub\n        /* \"#utility.yul\":7087:7088   */\n      0x00\n        /* \"#utility.yul\":7076:7085   */\n      dup4\n        /* \"#utility.yul\":7072:7089   */\n      add\n        /* \"#utility.yul\":7065:7112   */\n      mstore\n        /* \"#utility.yul\":7129:7207   */\n      tag_204\n        /* \"#utility.yul\":7202:7206   */\n      dup2\n        /* \"#utility.yul\":7193:7199   */\n      dup9\n        /* \"#utility.yul\":7129:7207   */\n      tag_112\n      jump\t// in\n    tag_204:\n        /* \"#utility.yul\":7121:7207   */\n      swap1\n      pop\n        /* \"#utility.yul\":7254:7263   */\n      dup2\n        /* \"#utility.yul\":7248:7252   */\n      dup2\n        /* \"#utility.yul\":7244:7264   */\n      sub\n        /* \"#utility.yul\":7239:7241   */\n      0x20\n        /* \"#utility.yul\":7228:7237   */\n      dup4\n        /* \"#utility.yul\":7224:7242   */\n      add\n        /* \"#utility.yul\":7217:7265   */\n      mstore\n        /* \"#utility.yul\":7282:7360   */\n      tag_205\n        /* \"#utility.yul\":7355:7359   */\n      dup2\n        /* \"#utility.yul\":7346:7352   */\n      dup8\n        /* \"#utility.yul\":7282:7360   */\n      tag_112\n      jump\t// in\n    tag_205:\n        /* \"#utility.yul\":7274:7360   */\n      swap1\n      pop\n        /* \"#utility.yul\":7407:7416   */\n      dup2\n        /* \"#utility.yul\":7401:7405   */\n      dup2\n        /* \"#utility.yul\":7397:7417   */\n      sub\n        /* \"#utility.yul\":7392:7394   */\n      0x40\n        /* \"#utility.yul\":7381:7390   */\n      dup4\n        /* \"#utility.yul\":7377:7395   */\n      add\n        /* \"#utility.yul\":7370:7418   */\n      mstore\n        /* \"#utility.yul\":7435:7513   */\n      tag_206\n        /* \"#utility.yul\":7508:7512   */\n      dup2\n        /* \"#utility.yul\":7499:7505   */\n      dup7\n        /* \"#utility.yul\":7435:7513   */\n      tag_112\n      jump\t// in\n    tag_206:\n        /* \"#utility.yul\":7427:7513   */\n      swap1\n      pop\n        /* \"#utility.yul\":7523:7595   */\n      tag_207\n        /* \"#utility.yul\":7591:7593   */\n      0x60\n        /* \"#utility.yul\":7580:7589   */\n      dup4\n        /* \"#utility.yul\":7576:7594   */\n      add\n        /* \"#utility.yul\":7567:7573   */\n      dup6\n        /* \"#utility.yul\":7523:7595   */\n      tag_113\n      jump\t// in\n    tag_207:\n        /* \"#utility.yul\":7605:7678   */\n      tag_208\n        /* \"#utility.yul\":7673:7676   */\n      0x80\n        /* \"#utility.yul\":7662:7671   */\n      dup4\n        /* \"#utility.yul\":7658:7677   */\n      add\n        /* \"#utility.yul\":7649:7655   */\n      dup5\n        /* \"#utility.yul\":7605:7678   */\n      tag_114\n      jump\t// in\n    tag_208:\n        /* \"#utility.yul\":6748:7685   */\n      swap7\n      swap6\n      pop\n      pop\n      pop\n      pop\n      pop\n      pop\n      jump\t// out\n        /* \"#utility.yul\":7691:7913   */\n    tag_25:\n        /* \"#utility.yul\":7784:7788   */\n      0x00\n        /* \"#utility.yul\":7822:7824   */\n      0x20\n        /* \"#utility.yul\":7811:7820   */\n      dup3\n        /* \"#utility.yul\":7807:7825   */\n      add\n        /* \"#utility.yul\":7799:7825   */\n      swap1\n      pop\n        /* \"#utility.yul\":7835:7906   */\n      tag_210\n        /* \"#utility.yul\":7903:7904   */\n      0x00\n        /* \"#utility.yul\":7892:7901   */\n      dup4\n        /* \"#utility.yul\":7888:7905   */\n      add\n        /* \"#utility.yul\":7879:7885   */\n      dup5\n        /* \"#utility.yul\":7835:7906   */\n      tag_113\n      jump\t// in\n    tag_210:\n        /* \"#utility.yul\":7691:7913   */\n      swap3\n      swap2\n      pop\n      pop\n      jump\t// out\n        /* \"#utility.yul\":7919:8151   */\n    tag_115:\n        /* \"#utility.yul\":8059:8093   */\n      0x4f6e6c79207468652063757272656e74206f776e65722063616e207472616e73\n        /* \"#utility.yul\":8055:8056   */\n      0x00\n        /* \"#utility.yul\":8047:8053   */\n      dup3\n        /* \"#utility.yul\":8043:8057   */\n      add\n        /* \"#utility.yul\":8036:8094   */\n      mstore\n        /* \"#utility.yul\":8128:8143   */\n      0x666572206f776e65727368697000000000000000000000000000000000000000\n        /* \"#utility.yul\":8123:8125   */\n      0x20\n        /* \"#utility.yul\":8115:8121   */\n      dup3\n        /* \"#utility.yul\":8111:8126   */\n      add\n        /* \"#utility.yul\":8104:8144   */\n      mstore\n        /* \"#utility.yul\":7919:8151   */\n      pop\n      jump\t// out\n        /* \"#utility.yul\":8157:8523   */\n    tag_116:\n        /* \"#utility.yul\":8299:8302   */\n      0x00\n        /* \"#utility.yul\":8320:8387   */\n      tag_213\n        /* \"#utility.yul\":8384:8386   */\n      0x2d\n        /* \"#utility.yul\":8379:8382   */\n      dup4\n        /* \"#utility.yul\":8320:8387   */\n      tag_110\n      jump\t// in\n    tag_213:\n        /* \"#utility.yul\":8313:8387   */\n      swap2\n      pop\n        /* \"#utility.yul\":8396:8489   */\n      tag_214\n        /* \"#utility.yul\":8485:8488   */\n      dup3\n        /* \"#utility.yul\":8396:8489   */\n      tag_115\n      jump\t// in\n    tag_214:\n        /* \"#utility.yul\":8514:8516   */\n      0x40\n        /* \"#utility.yul\":8509:8512   */\n      dup3\n        /* \"#utility.yul\":8505:8517   */\n      add\n        /* \"#utility.yul\":8498:8517   */\n      swap1\n      pop\n        /* \"#utility.yul\":8157:8523   */\n      swap2\n      swap1\n      pop\n      jump\t// out\n        /* \"#utility.yul\":8529:8948   */\n    tag_33:\n        /* \"#utility.yul\":8695:8699   */\n      0x00\n        /* \"#utility.yul\":8733:8735   */\n      0x20\n        /* \"#utility.yul\":8722:8731   */\n      dup3\n        /* \"#utility.yul\":8718:8736   */\n      add\n        /* \"#utility.yul\":8710:8736   */\n      swap1\n      pop\n        /* \"#utility.yul\":8782:8791   */\n      dup2\n        /* \"#utility.yul\":8776:8780   */\n      dup2\n        /* \"#utility.yul\":8772:8792   */\n      sub\n        /* \"#utility.yul\":8768:8769   */\n      0x00\n        /* \"#utility.yul\":8757:8766   */\n      dup4\n        /* \"#utility.yul\":8753:8770   */\n      add\n        /* \"#utility.yul\":8746:8793   */\n      mstore\n        /* \"#utility.yul\":8810:8941   */\n      tag_216\n        /* \"#utility.yul\":8936:8940   */\n      dup2\n        /* \"#utility.yul\":8810:8941   */\n      tag_116\n      jump\t// in\n    tag_216:\n        /* \"#utility.yul\":8802:8941   */\n      swap1\n      pop\n        /* \"#utility.yul\":8529:8948   */\n      swap2\n      swap1\n      pop\n      jump\t// out\n        /* \"#utility.yul\":8954:9129   */\n    tag_117:\n        /* \"#utility.yul\":9094:9121   */\n      0x496e76616c6964206e6577206f776e6572206164647265737300000000000000\n        /* \"#utility.yul\":9090:9091   */\n      0x00\n        /* \"#utility.yul\":9082:9088   */\n      dup3\n        /* \"#utility.yul\":9078:9092   */\n      add\n        /* \"#utility.yul\":9071:9122   */\n      mstore\n        /* \"#utility.yul\":8954:9129   */\n      pop\n      jump\t// out\n        /* \"#utility.yul\":9135:9501   */\n    tag_118:\n        /* \"#utility.yul\":9277:9280   */\n      0x00\n        /* \"#utility.yul\":9298:9365   */\n      tag_219\n        /* \"#utility.yul\":9362:9364   */\n      0x19\n        /* \"#utility.yul\":9357:9360   */\n      dup4\n        /* \"#utility.yul\":9298:9365   */\n      tag_110\n      jump\t// in\n    tag_219:\n        /* \"#utility.yul\":9291:9365   */\n      swap2\n      pop\n        /* \"#utility.yul\":9374:9467   */\n      tag_220\n        /* \"#utility.yul\":9463:9466   */\n      dup3\n        /* \"#utility.yul\":9374:9467   */\n      tag_117\n      jump\t// in\n    tag_220:\n        /* \"#utility.yul\":9492:9494   */\n      0x20\n        /* \"#utility.yul\":9487:9490   */\n      dup3\n        /* \"#utility.yul\":9483:9495   */\n      add\n        /* \"#utility.yul\":9476:9495   */\n      swap1\n      pop\n        /* \"#utility.yul\":9135:9501   */\n      swap2\n      swap1\n      pop\n      jump\t// out\n        /* \"#utility.yul\":9507:9926   */\n    tag_36:\n        /* \"#utility.yul\":9673:9677   */\n      0x00\n        /* \"#utility.yul\":9711:9713   */\n      0x20\n        /* \"#utility.yul\":9700:9709   */\n      dup3\n        /* \"#utility.yul\":9696:9714   */\n      add\n        /* \"#utility.yul\":9688:9714   */\n      swap1\n      pop\n        /* \"#utility.yul\":9760:9769   */\n      dup2\n        /* \"#utility.yul\":9754:9758   */\n      dup2\n        /* \"#utility.yul\":9750:9770   */\n      sub\n        /* \"#utility.yul\":9746:9747   */\n      0x00\n        /* \"#utility.yul\":9735:9744   */\n      dup4\n        /* \"#utility.yul\":9731:9748   */\n      add\n        /* \"#utility.yul\":9724:9771   */\n      mstore\n        /* \"#utility.yul\":9788:9919   */\n      tag_222\n        /* \"#utility.yul\":9914:9918   */\n      dup2\n        /* \"#utility.yul\":9788:9919   */\n      tag_118\n      jump\t// in\n    tag_222:\n        /* \"#utility.yul\":9780:9919   */\n      swap1\n      pop\n        /* \"#utility.yul\":9507:9926   */\n      swap2\n      swap1\n      pop\n      jump\t// out\n        /* \"#utility.yul\":9932:10264   */\n    tag_38:\n        /* \"#utility.yul\":10053:10057   */\n      0x00\n        /* \"#utility.yul\":10091:10093   */\n      0x40\n        /* \"#utility.yul\":10080:10089   */\n      dup3\n        /* \"#utility.yul\":10076:10094   */\n      add\n        /* \"#utility.yul\":10068:10094   */\n      swap1\n      pop\n        /* \"#utility.yul\":10104:10175   */\n      tag_224\n        /* \"#utility.yul\":10172:10173   */\n      0x00\n        /* \"#utility.yul\":10161:10170   */\n      dup4\n        /* \"#utility.yul\":10157:10174   */\n      add\n        /* \"#utility.yul\":10148:10154   */\n      dup6\n        /* \"#utility.yul\":10104:10175   */\n      tag_114\n      jump\t// in\n    tag_224:\n        /* \"#utility.yul\":10185:10257   */\n      tag_225\n        /* \"#utility.yul\":10253:10255   */\n      0x20\n        /* \"#utility.yul\":10242:10251   */\n      dup4\n        /* \"#utility.yul\":10238:10256   */\n      add\n        /* \"#utility.yul\":10229:10235   */\n      dup5\n        /* \"#utility.yul\":10185:10257   */\n      tag_114\n      jump\t// in\n    tag_225:\n        /* \"#utility.yul\":9932:10264   */\n      swap4\n      swap3\n      pop\n      pop\n      pop\n      jump\t// out\n        /* \"#utility.yul\":10270:10450   */\n    tag_119:\n        /* \"#utility.yul\":10318:10395   */\n      0x4e487b7100000000000000000000000000000000000000000000000000000000\n        /* \"#utility.yul\":10315:10316   */\n      0x00\n        /* \"#utility.yul\":10308:10396   */\n      mstore\n        /* \"#utility.yul\":10415:10419   */\n      0x11\n        /* \"#utility.yul\":10412:10413   */\n      0x04\n        /* \"#utility.yul\":10405:10420   */\n      mstore\n        /* \"#utility.yul\":10439:10443   */\n      0x24\n        /* \"#utility.yul\":10436:10437   */\n      0x00\n        /* \"#utility.yul\":10429:10444   */\n      revert\n        /* \"#utility.yul\":10456:10689   */\n    tag_41:\n        /* \"#utility.yul\":10495:10498   */\n      0x00\n        /* \"#utility.yul\":10518:10542   */\n      tag_228\n        /* \"#utility.yul\":10536:10541   */\n      dup3\n        /* \"#utility.yul\":10518:10542   */\n      tag_92\n      jump\t// in\n    tag_228:\n        /* \"#utility.yul\":10509:10542   */\n      swap2\n      pop\n        /* \"#utility.yul\":10564:10630   */\n      0xffffffffffffffffffffffffffffffffffffffffffffffffffffffffffffffff\n        /* \"#utility.yul\":10557:10562   */\n      dup3\n        /* \"#utility.yul\":10554:10631   */\n      eq\n        /* \"#utility.yul\":10551:10654   */\n      iszero\n      tag_229\n      jumpi\n        /* \"#utility.yul\":10634:10652   */\n      tag_230\n      tag_119\n      jump\t// in\n    tag_230:\n        /* \"#utility.yul\":10551:10654   */\n    tag_229:\n        /* \"#utility.yul\":10681:10682   */\n      0x01\n        /* \"#utility.yul\":10674:10679   */\n      dup3\n        /* \"#utility.yul\":10670:10683   */\n      add\n        /* \"#utility.yul\":10663:10683   */\n      swap1\n      pop\n        /* \"#utility.yul\":10456:10689   */\n      swap2\n      swap1\n      pop\n      jump\t// out\n        /* \"#utility.yul\":10695:10875   */\n    tag_120:\n        /* \"#utility.yul\":10743:10820   */\n      0x4e487b7100000000000000000000000000000000000000000000000000000000\n        /* \"#utility.yul\":10740:10741   */\n      0x00\n        /* \"#utility.yul\":10733:10821   */\n      mstore\n        /* \"#utility.yul\":10840:10844   */\n      0x22\n        /* \"#utility.yul\":10837:10838   */\n      0x04\n        /* \"#utility.yul\":10830:10845   */\n      mstore\n        /* \"#utility.yul\":10864:10868   */\n      0x24\n        /* \"#utility.yul\":10861:10862   */\n      0x00\n        /* \"#utility.yul\":10854:10869   */\n      revert\n        /* \"#utility.yul\":10881:11201   */\n    tag_48:\n        /* \"#utility.yul\":10925:10931   */\n      0x00\n        /* \"#utility.yul\":10962:10963   */\n      0x02\n        /* \"#utility.yul\":10956:10960   */\n      dup3\n        /* \"#utility.yul\":10952:10964   */\n      div\n        /* \"#utility.yul\":10942:10964   */\n      swap1\n      pop\n        /* \"#utility.yul\":11009:11010   */\n      0x01\n        /* \"#utility.yul\":11003:11007   */\n      dup3\n        /* \"#utility.yul\":10999:11011   */\n      and\n        /* \"#utility.yul\":11030:11048   */\n      dup1\n        /* \"#utility.yul\":11020:11101   */\n      tag_233\n      jumpi\n        /* \"#utility.yul\":11086:11090   */\n      0x7f\n        /* \"#utility.yul\":11078:11084   */\n      dup3\n        /* \"#utility.yul\":11074:11091   */\n      and\n        /* \"#utility.yul\":11064:11091   */\n      swap2\n      pop\n        /* \"#utility.yul\":11020:11101   */\n    tag_233:\n        /* \"#utility.yul\":11148:11150   */\n      0x20\n        /* \"#utility.yul\":11140:11146   */\n      dup3\n        /* \"#utility.yul\":11137:11151   */\n      lt\n        /* \"#utility.yul\":11117:11135   */\n      dup2\n        /* \"#utility.yul\":11114:11152   */\n      eq\n        /* \"#utility.yul\":11111:11195   */\n      iszero\n      tag_234\n      jumpi\n        /* \"#utility.yul\":11167:11185   */\n      tag_235\n      tag_120\n      jump\t// in\n    tag_235:\n        /* \"#utility.yul\":11111:11195   */\n    tag_234:\n        /* \"#utility.yul\":10932:11201   */\n      pop\n        /* \"#utility.yul\":10881:11201   */\n      swap2\n      swap1\n      pop\n      jump\t// out\n\n    auxdata: 0xa2646970667358221220b0b0c39f6ef183fade87fe874bfd5c5232b2aec53083014acf7549f3fd4a1b2b64736f6c634300080b0033\n}\n",
				"bytecode": {
					"linkReferences": {},
					"object": "608060405234801561001057600080fd5b50610f88806100206000396000f3fe608060405234801561001057600080fd5b50600436106100575760003560e01c80633fb8351c1461005c57806345e6df3d146100785780636874404614610094578063b905ad78146100c8578063e0ff5b8b146100e6575b600080fd5b610076600480360381019061007191906109bb565b61011a565b005b610092600480360381019061008d9190610b41565b6102b4565b005b6100ae60048036038101906100a99190610bfc565b610410565b6040516100bf959493929190610ccf565b60405180910390f35b6100d06105fe565b6040516100dd9190610d37565b60405180910390f35b61010060048036038101906100fb9190610bfc565b610604565b604051610111959493929190610ccf565b60405180910390f35b600080600084815260200190815260200160002090508060040160009054906101000a900473ffffffffffffffffffffffffffffffffffffffff1673ffffffffffffffffffffffffffffffffffffffff163373ffffffffffffffffffffffffffffffffffffffff16146101c2576040517f08c379a00000000000000000000000000000000000000000000000000000000081526004016101b990610dc4565b60405180910390fd5b600073ffffffffffffffffffffffffffffffffffffffff168273ffffffffffffffffffffffffffffffffffffffff161415610232576040517f08c379a000000000000000000000000000000000000000000000000000000000815260040161022990610e30565b60405180910390fd5b818160040160006101000a81548173ffffffffffffffffffffffffffffffffffffffff021916908373ffffffffffffffffffffffffffffffffffffffff160217905550827f60b1f0fe8fe6cc733c881e771cff619b015f656fe925740ad471427cd1155d7433846040516102a7929190610e50565b60405180910390a2505050565b600160008154809291906102c790610ea8565b91905055506040518060a001604052808581526020018481526020018381526020018281526020013373ffffffffffffffffffffffffffffffffffffffff1681525060008060015481526020019081526020016000206000820151816000019080519060200190610339929190610870565b506020820151816001019080519060200190610356929190610870565b506040820151816002019080519060200190610373929190610870565b506060820151816003015560808201518160040160006101000a81548173ffffffffffffffffffffffffffffffffffffffff021916908373ffffffffffffffffffffffffffffffffffffffff1602179055509050506001547f2629f276a575b0f072d18be5096183d763fd681a1ad03ee423b576998219ac038585858533604051610402959493929190610ccf565b60405180910390a250505050565b600060205280600052604060002060009150905080600001805461043390610f20565b80601f016020809104026020016040519081016040528092919081815260200182805461045f90610f20565b80156104ac5780601f10610481576101008083540402835291602001916104ac565b820191906000526020600020905b81548152906001019060200180831161048f57829003601f168201915b5050505050908060010180546104c190610f20565b80601f01602080910402602001604051908101604052809291908181526020018280546104ed90610f20565b801561053a5780601f1061050f5761010080835404028352916020019161053a565b820191906000526020600020905b81548152906001019060200180831161051d57829003601f168201915b50505050509080600201805461054f90610f20565b80601f016020809104026020016040519081016040528092919081815260200182805461057b90610f20565b80156105c85780601f1061059d576101008083540402835291602001916105c8565b820191906000526020600020905b8154815290600101906020018083116105ab57829003601f168201915b5050505050908060030154908060040160009054906101000a900473ffffffffffffffffffffffffffffffffffffffff16905085565b60015481565b606080606060008060008060008881526020019081526020016000206040518060a001604052908160008201805461063b90610f20565b80601f016020809104026020016040519081016040528092919081815260200182805461066790610f20565b80156106b45780601f10610689576101008083540402835291602001916106b4565b820191906000526020600020905b81548152906001019060200180831161069757829003601f168201915b505050505081526020016001820180546106cd90610f20565b80601f01602080910402602001604051908101604052809291908181526020018280546106f990610f20565b80156107465780601f1061071b57610100808354040283529160200191610746565b820191906000526020600020905b81548152906001019060200180831161072957829003601f168201915b5050505050815260200160028201805461075f90610f20565b80601f016020809104026020016040519081016040528092919081815260200182805461078b90610f20565b80156107d85780601f106107ad576101008083540402835291602001916107d8565b820191906000526020600020905b8154815290600101906020018083116107bb57829003601f168201915b50505050508152602001600382015481526020016004820160009054906101000a900473ffffffffffffffffffffffffffffffffffffffff1673ffffffffffffffffffffffffffffffffffffffff1673ffffffffffffffffffffffffffffffffffffffff1681525050905080600001518160200151826040015183606001518460800151955095509550955095505091939590929450565b82805461087c90610f20565b90600052602060002090601f01602090048101928261089e57600085556108e5565b82601f106108b757805160ff19168380011785556108e5565b828001600101855582156108e5579182015b828111156108e45782518255916020019190600101906108c9565b5b5090506108f291906108f6565b5090565b5b8082111561090f5760008160009055506001016108f7565b5090565b6000604051905090565b600080fd5b600080fd5b6000819050919050565b61093a81610927565b811461094557600080fd5b50565b60008135905061095781610931565b92915050565b600073ffffffffffffffffffffffffffffffffffffffff82169050919050565b60006109888261095d565b9050919050565b6109988161097d565b81146109a357600080fd5b50565b6000813590506109b58161098f565b92915050565b600080604083850312156109d2576109d161091d565b5b60006109e085828601610948565b92505060206109f1858286016109a6565b9150509250929050565b600080fd5b600080fd5b6000601f19601f8301169050919050565b7f4e487b7100000000000000000000000000000000000000000000000000000000600052604160045260246000fd5b610a4e82610a05565b810181811067ffffffffffffffff82111715610a6d57610a6c610a16565b5b80604052505050565b6000610a80610913565b9050610a8c8282610a45565b919050565b600067ffffffffffffffff821115610aac57610aab610a16565b5b610ab582610a05565b9050602081019050919050565b82818337600083830152505050565b6000610ae4610adf84610a91565b610a76565b905082815260208101848484011115610b0057610aff610a00565b5b610b0b848285610ac2565b509392505050565b600082601f830112610b2857610b276109fb565b5b8135610b38848260208601610ad1565b91505092915050565b60008060008060808587031215610b5b57610b5a61091d565b5b600085013567ffffffffffffffff811115610b7957610b78610922565b5b610b8587828801610b13565b945050602085013567ffffffffffffffff811115610ba657610ba5610922565b5b610bb287828801610b13565b935050604085013567ffffffffffffffff811115610bd357610bd2610922565b5b610bdf87828801610b13565b9250506060610bf087828801610948565b91505092959194509250565b600060208284031215610c1257610c1161091d565b5b6000610c2084828501610948565b91505092915050565b600081519050919050565b600082825260208201905092915050565b60005b83811015610c63578082015181840152602081019050610c48565b83811115610c72576000848401525b50505050565b6000610c8382610c29565b610c8d8185610c34565b9350610c9d818560208601610c45565b610ca681610a05565b840191505092915050565b610cba81610927565b82525050565b610cc98161097d565b82525050565b600060a0820190508181036000830152610ce98188610c78565b90508181036020830152610cfd8187610c78565b90508181036040830152610d118186610c78565b9050610d206060830185610cb1565b610d2d6080830184610cc0565b9695505050505050565b6000602082019050610d4c6000830184610cb1565b92915050565b7f4f6e6c79207468652063757272656e74206f776e65722063616e207472616e7360008201527f666572206f776e65727368697000000000000000000000000000000000000000602082015250565b6000610dae602d83610c34565b9150610db982610d52565b604082019050919050565b60006020820190508181036000830152610ddd81610da1565b9050919050565b7f496e76616c6964206e6577206f776e6572206164647265737300000000000000600082015250565b6000610e1a601983610c34565b9150610e2582610de4565b602082019050919050565b60006020820190508181036000830152610e4981610e0d565b9050919050565b6000604082019050610e656000830185610cc0565b610e726020830184610cc0565b9392505050565b7f4e487b7100000000000000000000000000000000000000000000000000000000600052601160045260246000fd5b6000610eb382610927565b91507fffffffffffffffffffffffffffffffffffffffffffffffffffffffffffffffff821415610ee657610ee5610e79565b5b600182019050919050565b7f4e487b7100000000000000000000000000000000000000000000000000000000600052602260045260246000fd5b60006002820490506001821680610f3857607f821691505b60208210811415610f4c57610f4b610ef1565b5b5091905056fea2646970667358221220b0b0c39f6ef183fade87fe874bfd5c5232b2aec53083014acf7549f3fd4a1b2b64736f6c634300080b0033",
					"opcodes": "PUSH1 0x80 PUSH1 0x40 MSTORE CALLVALUE DUP1 ISZERO PUSH2 0x10 JUMPI PUSH1 0x0 DUP1 REVERT JUMPDEST POP PUSH2 0xF88 DUP1 PUSH2 0x20 PUSH1 0x0 CODECOPY PUSH1 0x0 RETURN INVALID PUSH1 0x80 PUSH1 0x40 MSTORE CALLVALUE DUP1 ISZERO PUSH2 0x10 JUMPI PUSH1 0x0 DUP1 REVERT JUMPDEST POP PUSH1 0x4 CALLDATASIZE LT PUSH2 0x57 JUMPI PUSH1 0x0 CALLDATALOAD PUSH1 0xE0 SHR DUP1 PUSH4 0x3FB8351C EQ PUSH2 0x5C JUMPI DUP1 PUSH4 0x45E6DF3D EQ PUSH2 0x78 JUMPI DUP1 PUSH4 0x68744046 EQ PUSH2 0x94 JUMPI DUP1 PUSH4 0xB905AD78 EQ PUSH2 0xC8 JUMPI DUP1 PUSH4 0xE0FF5B8B EQ PUSH2 0xE6 JUMPI JUMPDEST PUSH1 0x0 DUP1 REVERT JUMPDEST PUSH2 0x76 PUSH1 0x4 DUP1 CALLDATASIZE SUB DUP2 ADD SWAP1 PUSH2 0x71 SWAP2 SWAP1 PUSH2 0x9BB JUMP JUMPDEST PUSH2 0x11A JUMP JUMPDEST STOP JUMPDEST PUSH2 0x92 PUSH1 0x4 DUP1 CALLDATASIZE SUB DUP2 ADD SWAP1 PUSH2 0x8D SWAP2 SWAP1 PUSH2 0xB41 JUMP JUMPDEST PUSH2 0x2B4 JUMP JUMPDEST STOP JUMPDEST PUSH2 0xAE PUSH1 0x4 DUP1 CALLDATASIZE SUB DUP2 ADD SWAP1 PUSH2 0xA9 SWAP2 SWAP1 PUSH2 0xBFC JUMP JUMPDEST PUSH2 0x410 JUMP JUMPDEST PUSH1 0x40 MLOAD PUSH2 0xBF SWAP6 SWAP5 SWAP4 SWAP3 SWAP2 SWAP1 PUSH2 0xCCF JUMP JUMPDEST PUSH1 0x40 MLOAD DUP1 SWAP2 SUB SWAP1 RETURN JUMPDEST PUSH2 0xD0 PUSH2 0x5FE JUMP JUMPDEST PUSH1 0x40 MLOAD PUSH2 0xDD SWAP2 SWAP1 PUSH2 0xD37 JUMP JUMPDEST PUSH1 0x40 MLOAD DUP1 SWAP2 SUB SWAP1 RETURN JUMPDEST PUSH2 0x100 PUSH1 0x4 DUP1 CALLDATASIZE SUB DUP2 ADD SWAP1 PUSH2 0xFB SWAP2 SWAP1 PUSH2 0xBFC JUMP JUMPDEST PUSH2 0x604 JUMP JUMPDEST PUSH1 0x40 MLOAD PUSH2 0x111 SWAP6 SWAP5 SWAP4 SWAP3 SWAP2 SWAP1 PUSH2 0xCCF JUMP JUMPDEST PUSH1 0x40 MLOAD DUP1 SWAP2 SUB SWAP1 RETURN JUMPDEST PUSH1 0x0 DUP1 PUSH1 0x0 DUP5 DUP2 MSTORE PUSH1 0x20 ADD SWAP1 DUP2 MSTORE PUSH1 0x20 ADD PUSH1 0x0 KECCAK256 SWAP1 POP DUP1 PUSH1 0x4 ADD PUSH1 0x0 SWAP1 SLOAD SWAP1 PUSH2 0x100 EXP SWAP1 DIV PUSH20 0xFFFFFFFFFFFFFFFFFFFFFFFFFFFFFFFFFFFFFFFF AND PUSH20 0xFFFFFFFFFFFFFFFFFFFFFFFFFFFFFFFFFFFFFFFF AND CALLER PUSH20 0xFFFFFFFFFFFFFFFFFFFFFFFFFFFFFFFFFFFFFFFF AND EQ PUSH2 0x1C2 JUMPI PUSH1 0x40 MLOAD PUSH32 0x8C379A000000000000000000000000000000000000000000000000000000000 DUP2 MSTORE PUSH1 0x4 ADD PUSH2 0x1B9 SWAP1 PUSH2 0xDC4 JUMP JUMPDEST PUSH1 0x40 MLOAD DUP1 SWAP2 SUB SWAP1 REVERT JUMPDEST PUSH1 0x0 PUSH20 0xFFFFFFFFFFFFFFFFFFFFFFFFFFFFFFFFFFFFFFFF AND DUP3 PUSH20 0xFFFFFFFFFFFFFFFFFFFFFFFFFFFFFFFFFFFFFFFF AND EQ ISZERO PUSH2 0x232 JUMPI PUSH1 0x40 MLOAD PUSH32 0x8C379A000000000000000000000000000000000000000000000000000000000 DUP2 MSTORE PUSH1 0x4 ADD PUSH2 0x229 SWAP1 PUSH2 0xE30 JUMP JUMPDEST PUSH1 0x40 MLOAD DUP1 SWAP2 SUB SWAP1 REVERT JUMPDEST DUP2 DUP2 PUSH1 0x4 ADD PUSH1 0x0 PUSH2 0x100 EXP DUP2 SLOAD DUP2 PUSH20 0xFFFFFFFFFFFFFFFFFFFFFFFFFFFFFFFFFFFFFFFF MUL NOT AND SWAP1 DUP4 PUSH20 0xFFFFFFFFFFFFFFFFFFFFFFFFFFFFFFFFFFFFFFFF AND MUL OR SWAP1 SSTORE POP DUP3 PUSH32 0x60B1F0FE8FE6CC733C881E771CFF619B015F656FE925740AD471427CD1155D74 CALLER DUP5 PUSH1 0x40 MLOAD PUSH2 0x2A7 SWAP3 SWAP2 SWAP1 PUSH2 0xE50 JUMP JUMPDEST PUSH1 0x40 MLOAD DUP1 SWAP2 SUB SWAP1 LOG2 POP POP POP JUMP JUMPDEST PUSH1 0x1 PUSH1 0x0 DUP2 SLOAD DUP1 SWAP3 SWAP2 SWAP1 PUSH2 0x2C7 SWAP1 PUSH2 0xEA8 JUMP JUMPDEST SWAP2 SWAP1 POP SSTORE POP PUSH1 0x40 MLOAD DUP1 PUSH1 0xA0 ADD PUSH1 0x40 MSTORE DUP1 DUP6 DUP2 MSTORE PUSH1 0x20 ADD DUP5 DUP2 MSTORE PUSH1 0x20 ADD DUP4 DUP2 MSTORE PUSH1 0x20 ADD DUP3 DUP2 MSTORE PUSH1 0x20 ADD CALLER PUSH20 0xFFFFFFFFFFFFFFFFFFFFFFFFFFFFFFFFFFFFFFFF AND DUP2 MSTORE POP PUSH1 0x0 DUP1 PUSH1 0x1 SLOAD DUP2 MSTORE PUSH1 0x20 ADD SWAP1 DUP2 MSTORE PUSH1 0x20 ADD PUSH1 0x0 KECCAK256 PUSH1 0x0 DUP3 ADD MLOAD DUP2 PUSH1 0x0 ADD SWAP1 DUP1 MLOAD SWAP1 PUSH1 0x20 ADD SWAP1 PUSH2 0x339 SWAP3 SWAP2 SWAP1 PUSH2 0x870 JUMP JUMPDEST POP PUSH1 0x20 DUP3 ADD MLOAD DUP2 PUSH1 0x1 ADD SWAP1 DUP1 MLOAD SWAP1 PUSH1 0x20 ADD SWAP1 PUSH2 0x356 SWAP3 SWAP2 SWAP1 PUSH2 0x870 JUMP JUMPDEST POP PUSH1 0x40 DUP3 ADD MLOAD DUP2 PUSH1 0x2 ADD SWAP1 DUP1 MLOAD SWAP1 PUSH1 0x20 ADD SWAP1 PUSH2 0x373 SWAP3 SWAP2 SWAP1 PUSH2 0x870 JUMP JUMPDEST POP PUSH1 0x60 DUP3 ADD MLOAD DUP2 PUSH1 0x3 ADD SSTORE PUSH1 0x80 DUP3 ADD MLOAD DUP2 PUSH1 0x4 ADD PUSH1 0x0 PUSH2 0x100 EXP DUP2 SLOAD DUP2 PUSH20 0xFFFFFFFFFFFFFFFFFFFFFFFFFFFFFFFFFFFFFFFF MUL NOT AND SWAP1 DUP4 PUSH20 0xFFFFFFFFFFFFFFFFFFFFFFFFFFFFFFFFFFFFFFFF AND MUL OR SWAP1 SSTORE POP SWAP1 POP POP PUSH1 0x1 SLOAD PUSH32 0x2629F276A575B0F072D18BE5096183D763FD681A1AD03EE423B576998219AC03 DUP6 DUP6 DUP6 DUP6 CALLER PUSH1 0x40 MLOAD PUSH2 0x402 SWAP6 SWAP5 SWAP4 SWAP3 SWAP2 SWAP1 PUSH2 0xCCF JUMP JUMPDEST PUSH1 0x40 MLOAD DUP1 SWAP2 SUB SWAP1 LOG2 POP POP POP POP JUMP JUMPDEST PUSH1 0x0 PUSH1 0x20 MSTORE DUP1 PUSH1 0x0 MSTORE PUSH1 0x40 PUSH1 0x0 KECCAK256 PUSH1 0x0 SWAP2 POP SWAP1 POP DUP1 PUSH1 0x0 ADD DUP1 SLOAD PUSH2 0x433 SWAP1 PUSH2 0xF20 JUMP JUMPDEST DUP1 PUSH1 0x1F ADD PUSH1 0x20 DUP1 SWAP2 DIV MUL PUSH1 0x20 ADD PUSH1 0x40 MLOAD SWAP1 DUP2 ADD PUSH1 0x40 MSTORE DUP1 SWAP3 SWAP2 SWAP1 DUP2 DUP2 MSTORE PUSH1 0x20 ADD DUP3 DUP1 SLOAD PUSH2 0x45F SWAP1 PUSH2 0xF20 JUMP JUMPDEST DUP1 ISZERO PUSH2 0x4AC JUMPI DUP1 PUSH1 0x1F LT PUSH2 0x481 JUMPI PUSH2 0x100 DUP1 DUP4 SLOAD DIV MUL DUP4 MSTORE SWAP2 PUSH1 0x20 ADD SWAP2 PUSH2 0x4AC JUMP JUMPDEST DUP3 ADD SWAP2 SWAP1 PUSH1 0x0 MSTORE PUSH1 0x20 PUSH1 0x0 KECCAK256 SWAP1 JUMPDEST DUP2 SLOAD DUP2 MSTORE SWAP1 PUSH1 0x1 ADD SWAP1 PUSH1 0x20 ADD DUP1 DUP4 GT PUSH2 0x48F JUMPI DUP3 SWAP1 SUB PUSH1 0x1F AND DUP3 ADD SWAP2 JUMPDEST POP POP POP POP POP SWAP1 DUP1 PUSH1 0x1 ADD DUP1 SLOAD PUSH2 0x4C1 SWAP1 PUSH2 0xF20 JUMP JUMPDEST DUP1 PUSH1 0x1F ADD PUSH1 0x20 DUP1 SWAP2 DIV MUL PUSH1 0x20 ADD PUSH1 0x40 MLOAD SWAP1 DUP2 ADD PUSH1 0x40 MSTORE DUP1 SWAP3 SWAP2 SWAP1 DUP2 DUP2 MSTORE PUSH1 0x20 ADD DUP3 DUP1 SLOAD PUSH2 0x4ED SWAP1 PUSH2 0xF20 JUMP JUMPDEST DUP1 ISZERO PUSH2 0x53A JUMPI DUP1 PUSH1 0x1F LT PUSH2 0x50F JUMPI PUSH2 0x100 DUP1 DUP4 SLOAD DIV MUL DUP4 MSTORE SWAP2 PUSH1 0x20 ADD SWAP2 PUSH2 0x53A JUMP JUMPDEST DUP3 ADD SWAP2 SWAP1 PUSH1 0x0 MSTORE PUSH1 0x20 PUSH1 0x0 KECCAK256 SWAP1 JUMPDEST DUP2 SLOAD DUP2 MSTORE SWAP1 PUSH1 0x1 ADD SWAP1 PUSH1 0x20 ADD DUP1 DUP4 GT PUSH2 0x51D JUMPI DUP3 SWAP1 SUB PUSH1 0x1F AND DUP3 ADD SWAP2 JUMPDEST POP POP POP POP POP SWAP1 DUP1 PUSH1 0x2 ADD DUP1 SLOAD PUSH2 0x54F SWAP1 PUSH2 0xF20 JUMP JUMPDEST DUP1 PUSH1 0x1F ADD PUSH1 0x20 DUP1 SWAP2 DIV MUL PUSH1 0x20 ADD PUSH1 0x40 MLOAD SWAP1 DUP2 ADD PUSH1 0x40 MSTORE DUP1 SWAP3 SWAP2 SWAP1 DUP2 DUP2 MSTORE PUSH1 0x20 ADD DUP3 DUP1 SLOAD PUSH2 0x57B SWAP1 PUSH2 0xF20 JUMP JUMPDEST DUP1 ISZERO PUSH2 0x5C8 JUMPI DUP1 PUSH1 0x1F LT PUSH2 0x59D JUMPI PUSH2 0x100 DUP1 DUP4 SLOAD DIV MUL DUP4 MSTORE SWAP2 PUSH1 0x20 ADD SWAP2 PUSH2 0x5C8 JUMP JUMPDEST DUP3 ADD SWAP2 SWAP1 PUSH1 0x0 MSTORE PUSH1 0x20 PUSH1 0x0 KECCAK256 SWAP1 JUMPDEST DUP2 SLOAD DUP2 MSTORE SWAP1 PUSH1 0x1 ADD SWAP1 PUSH1 0x20 ADD DUP1 DUP4 GT PUSH2 0x5AB JUMPI DUP3 SWAP1 SUB PUSH1 0x1F AND DUP3 ADD SWAP2 JUMPDEST POP POP POP POP POP SWAP1 DUP1 PUSH1 0x3 ADD SLOAD SWAP1 DUP1 PUSH1 0x4 ADD PUSH1 0x0 SWAP1 SLOAD SWAP1 PUSH2 0x100 EXP SWAP1 DIV PUSH20 0xFFFFFFFFFFFFFFFFFFFFFFFFFFFFFFFFFFFFFFFF AND SWAP1 POP DUP6 JUMP JUMPDEST PUSH1 0x1 SLOAD DUP2 JUMP JUMPDEST PUSH1 0x60 DUP1 PUSH1 0x60 PUSH1 0x0 DUP1 PUSH1 0x0 DUP1 PUSH1 0x0 DUP9 DUP2 MSTORE PUSH1 0x20 ADD SWAP1 DUP2 MSTORE PUSH1 0x20 ADD PUSH1 0x0 KECCAK256 PUSH1 0x40 MLOAD DUP1 PUSH1 0xA0 ADD PUSH1 0x40 MSTORE SWAP1 DUP2 PUSH1 0x0 DUP3 ADD DUP1 SLOAD PUSH2 0x63B SWAP1 PUSH2 0xF20 JUMP JUMPDEST DUP1 PUSH1 0x1F ADD PUSH1 0x20 DUP1 SWAP2 DIV MUL PUSH1 0x20 ADD PUSH1 0x40 MLOAD SWAP1 DUP2 ADD PUSH1 0x40 MSTORE DUP1 SWAP3 SWAP2 SWAP1 DUP2 DUP2 MSTORE PUSH1 0x20 ADD DUP3 DUP1 SLOAD PUSH2 0x667 SWAP1 PUSH2 0xF20 JUMP JUMPDEST DUP1 ISZERO PUSH2 0x6B4 JUMPI DUP1 PUSH1 0x1F LT PUSH2 0x689 JUMPI PUSH2 0x100 DUP1 DUP4 SLOAD DIV MUL DUP4 MSTORE SWAP2 PUSH1 0x20 ADD SWAP2 PUSH2 0x6B4 JUMP JUMPDEST DUP3 ADD SWAP2 SWAP1 PUSH1 0x0 MSTORE PUSH1 0x20 PUSH1 0x0 KECCAK256 SWAP1 JUMPDEST DUP2 SLOAD DUP2 MSTORE SWAP1 PUSH1 0x1 ADD SWAP1 PUSH1 0x20 ADD DUP1 DUP4 GT PUSH2 0x697 JUMPI DUP3 SWAP1 SUB PUSH1 0x1F AND DUP3 ADD SWAP2 JUMPDEST POP POP POP POP POP DUP2 MSTORE PUSH1 0x20 ADD PUSH1 0x1 DUP3 ADD DUP1 SLOAD PUSH2 0x6CD SWAP1 PUSH2 0xF20 JUMP JUMPDEST DUP1 PUSH1 0x1F ADD PUSH1 0x20 DUP1 SWAP2 DIV MUL PUSH1 0x20 ADD PUSH1 0x40 MLOAD SWAP1 DUP2 ADD PUSH1 0x40 MSTORE DUP1 SWAP3 SWAP2 SWAP1 DUP2 DUP2 MSTORE PUSH1 0x20 ADD DUP3 DUP1 SLOAD PUSH2 0x6F9 SWAP1 PUSH2 0xF20 JUMP JUMPDEST DUP1 ISZERO PUSH2 0x746 JUMPI DUP1 PUSH1 0x1F LT PUSH2 0x71B JUMPI PUSH2 0x100 DUP1 DUP4 SLOAD DIV MUL DUP4 MSTORE SWAP2 PUSH1 0x20 ADD SWAP2 PUSH2 0x746 JUMP JUMPDEST DUP3 ADD SWAP2 SWAP1 PUSH1 0x0 MSTORE PUSH1 0x20 PUSH1 0x0 KECCAK256 SWAP1 JUMPDEST DUP2 SLOAD DUP2 MSTORE SWAP1 PUSH1 0x1 ADD SWAP1 PUSH1 0x20 ADD DUP1 DUP4 GT PUSH2 0x729 JUMPI DUP3 SWAP1 SUB PUSH1 0x1F AND DUP3 ADD SWAP2 JUMPDEST POP POP POP POP POP DUP2 MSTORE PUSH1 0x20 ADD PUSH1 0x2 DUP3 ADD DUP1 SLOAD PUSH2 0x75F SWAP1 PUSH2 0xF20 JUMP JUMPDEST DUP1 PUSH1 0x1F ADD PUSH1 0x20 DUP1 SWAP2 DIV MUL PUSH1 0x20 ADD PUSH1 0x40 MLOAD SWAP1 DUP2 ADD PUSH1 0x40 MSTORE DUP1 SWAP3 SWAP2 SWAP1 DUP2 DUP2 MSTORE PUSH1 0x20 ADD DUP3 DUP1 SLOAD PUSH2 0x78B SWAP1 PUSH2 0xF20 JUMP JUMPDEST DUP1 ISZERO PUSH2 0x7D8 JUMPI DUP1 PUSH1 0x1F LT PUSH2 0x7AD JUMPI PUSH2 0x100 DUP1 DUP4 SLOAD DIV MUL DUP4 MSTORE SWAP2 PUSH1 0x20 ADD SWAP2 PUSH2 0x7D8 JUMP JUMPDEST DUP3 ADD SWAP2 SWAP1 PUSH1 0x0 MSTORE PUSH1 0x20 PUSH1 0x0 KECCAK256 SWAP1 JUMPDEST DUP2 SLOAD DUP2 MSTORE SWAP1 PUSH1 0x1 ADD SWAP1 PUSH1 0x20 ADD DUP1 DUP4 GT PUSH2 0x7BB JUMPI DUP3 SWAP1 SUB PUSH1 0x1F AND DUP3 ADD SWAP2 JUMPDEST POP POP POP POP POP DUP2 MSTORE PUSH1 0x20 ADD PUSH1 0x3 DUP3 ADD SLOAD DUP2 MSTORE PUSH1 0x20 ADD PUSH1 0x4 DUP3 ADD PUSH1 0x0 SWAP1 SLOAD SWAP1 PUSH2 0x100 EXP SWAP1 DIV PUSH20 0xFFFFFFFFFFFFFFFFFFFFFFFFFFFFFFFFFFFFFFFF AND PUSH20 0xFFFFFFFFFFFFFFFFFFFFFFFFFFFFFFFFFFFFFFFF AND PUSH20 0xFFFFFFFFFFFFFFFFFFFFFFFFFFFFFFFFFFFFFFFF AND DUP2 MSTORE POP POP SWAP1 POP DUP1 PUSH1 0x0 ADD MLOAD DUP2 PUSH1 0x20 ADD MLOAD DUP3 PUSH1 0x40 ADD MLOAD DUP4 PUSH1 0x60 ADD MLOAD DUP5 PUSH1 0x80 ADD MLOAD SWAP6 POP SWAP6 POP SWAP6 POP SWAP6 POP SWAP6 POP POP SWAP2 SWAP4 SWAP6 SWAP1 SWAP3 SWAP5 POP JUMP JUMPDEST DUP3 DUP1 SLOAD PUSH2 0x87C SWAP1 PUSH2 0xF20 JUMP JUMPDEST SWAP1 PUSH1 0x0 MSTORE PUSH1 0x20 PUSH1 0x0 KECCAK256 SWAP1 PUSH1 0x1F ADD PUSH1 0x20 SWAP1 DIV DUP2 ADD SWAP3 DUP3 PUSH2 0x89E JUMPI PUSH1 0x0 DUP6 SSTORE PUSH2 0x8E5 JUMP JUMPDEST DUP3 PUSH1 0x1F LT PUSH2 0x8B7 JUMPI DUP1 MLOAD PUSH1 0xFF NOT AND DUP4 DUP1 ADD OR DUP6 SSTORE PUSH2 0x8E5 JUMP JUMPDEST DUP3 DUP1 ADD PUSH1 0x1 ADD DUP6 SSTORE DUP3 ISZERO PUSH2 0x8E5 JUMPI SWAP2 DUP3 ADD JUMPDEST DUP3 DUP2 GT ISZERO PUSH2 0x8E4 JUMPI DUP3 MLOAD DUP3 SSTORE SWAP2 PUSH1 0x20 ADD SWAP2 SWAP1 PUSH1 0x1 ADD SWAP1 PUSH2 0x8C9 JUMP JUMPDEST JUMPDEST POP SWAP1 POP PUSH2 0x8F2 SWAP2 SWAP1 PUSH2 0x8F6 JUMP JUMPDEST POP SWAP1 JUMP JUMPDEST JUMPDEST DUP1 DUP3 GT ISZERO PUSH2 0x90F JUMPI PUSH1 0x0 DUP2 PUSH1 0x0 SWAP1 SSTORE POP PUSH1 0x1 ADD PUSH2 0x8F7 JUMP JUMPDEST POP SWAP1 JUMP JUMPDEST PUSH1 0x0 PUSH1 0x40 MLOAD SWAP1 POP SWAP1 JUMP JUMPDEST PUSH1 0x0 DUP1 REVERT JUMPDEST PUSH1 0x0 DUP1 REVERT JUMPDEST PUSH1 0x0 DUP2 SWAP1 POP SWAP2 SWAP1 POP JUMP JUMPDEST PUSH2 0x93A DUP2 PUSH2 0x927 JUMP JUMPDEST DUP2 EQ PUSH2 0x945 JUMPI PUSH1 0x0 DUP1 REVERT JUMPDEST POP JUMP JUMPDEST PUSH1 0x0 DUP2 CALLDATALOAD SWAP1 POP PUSH2 0x957 DUP2 PUSH2 0x931 JUMP JUMPDEST SWAP3 SWAP2 POP POP JUMP JUMPDEST PUSH1 0x0 PUSH20 0xFFFFFFFFFFFFFFFFFFFFFFFFFFFFFFFFFFFFFFFF DUP3 AND SWAP1 POP SWAP2 SWAP1 POP JUMP JUMPDEST PUSH1 0x0 PUSH2 0x988 DUP3 PUSH2 0x95D JUMP JUMPDEST SWAP1 POP SWAP2 SWAP1 POP JUMP JUMPDEST PUSH2 0x998 DUP2 PUSH2 0x97D JUMP JUMPDEST DUP2 EQ PUSH2 0x9A3 JUMPI PUSH1 0x0 DUP1 REVERT JUMPDEST POP JUMP JUMPDEST PUSH1 0x0 DUP2 CALLDATALOAD SWAP1 POP PUSH2 0x9B5 DUP2 PUSH2 0x98F JUMP JUMPDEST SWAP3 SWAP2 POP POP JUMP JUMPDEST PUSH1 0x0 DUP1 PUSH1 0x40 DUP4 DUP6 SUB SLT ISZERO PUSH2 0x9D2 JUMPI PUSH2 0x9D1 PUSH2 0x91D JUMP JUMPDEST JUMPDEST PUSH1 0x0 PUSH2 0x9E0 DUP6 DUP3 DUP7 ADD PUSH2 0x948 JUMP JUMPDEST SWAP3 POP POP PUSH1 0x20 PUSH2 0x9F1 DUP6 DUP3 DUP7 ADD PUSH2 0x9A6 JUMP JUMPDEST SWAP2 POP POP SWAP3 POP SWAP3 SWAP1 POP JUMP JUMPDEST PUSH1 0x0 DUP1 REVERT JUMPDEST PUSH1 0x0 DUP1 REVERT JUMPDEST PUSH1 0x0 PUSH1 0x1F NOT PUSH1 0x1F DUP4 ADD AND SWAP1 POP SWAP2 SWAP1 POP JUMP JUMPDEST PUSH32 0x4E487B7100000000000000000000000000000000000000000000000000000000 PUSH1 0x0 MSTORE PUSH1 0x41 PUSH1 0x4 MSTORE PUSH1 0x24 PUSH1 0x0 REVERT JUMPDEST PUSH2 0xA4E DUP3 PUSH2 0xA05 JUMP JUMPDEST DUP2 ADD DUP2 DUP2 LT PUSH8 0xFFFFFFFFFFFFFFFF DUP3 GT OR ISZERO PUSH2 0xA6D JUMPI PUSH2 0xA6C PUSH2 0xA16 JUMP JUMPDEST JUMPDEST DUP1 PUSH1 0x40 MSTORE POP POP POP JUMP JUMPDEST PUSH1 0x0 PUSH2 0xA80 PUSH2 0x913 JUMP JUMPDEST SWAP1 POP PUSH2 0xA8C DUP3 DUP3 PUSH2 0xA45 JUMP JUMPDEST SWAP2 SWAP1 POP JUMP JUMPDEST PUSH1 0x0 PUSH8 0xFFFFFFFFFFFFFFFF DUP3 GT ISZERO PUSH2 0xAAC JUMPI PUSH2 0xAAB PUSH2 0xA16 JUMP JUMPDEST JUMPDEST PUSH2 0xAB5 DUP3 PUSH2 0xA05 JUMP JUMPDEST SWAP1 POP PUSH1 0x20 DUP2 ADD SWAP1 POP SWAP2 SWAP1 POP JUMP JUMPDEST DUP3 DUP2 DUP4 CALLDATACOPY PUSH1 0x0 DUP4 DUP4 ADD MSTORE POP POP POP JUMP JUMPDEST PUSH1 0x0 PUSH2 0xAE4 PUSH2 0xADF DUP5 PUSH2 0xA91 JUMP JUMPDEST PUSH2 0xA76 JUMP JUMPDEST SWAP1 POP DUP3 DUP2 MSTORE PUSH1 0x20 DUP2 ADD DUP5 DUP5 DUP5 ADD GT ISZERO PUSH2 0xB00 JUMPI PUSH2 0xAFF PUSH2 0xA00 JUMP JUMPDEST JUMPDEST PUSH2 0xB0B DUP5 DUP3 DUP6 PUSH2 0xAC2 JUMP JUMPDEST POP SWAP4 SWAP3 POP POP POP JUMP JUMPDEST PUSH1 0x0 DUP3 PUSH1 0x1F DUP4 ADD SLT PUSH2 0xB28 JUMPI PUSH2 0xB27 PUSH2 0x9FB JUMP JUMPDEST JUMPDEST DUP2 CALLDATALOAD PUSH2 0xB38 DUP5 DUP3 PUSH1 0x20 DUP7 ADD PUSH2 0xAD1 JUMP JUMPDEST SWAP2 POP POP SWAP3 SWAP2 POP POP JUMP JUMPDEST PUSH1 0x0 DUP1 PUSH1 0x0 DUP1 PUSH1 0x80 DUP6 DUP8 SUB SLT ISZERO PUSH2 0xB5B JUMPI PUSH2 0xB5A PUSH2 0x91D JUMP JUMPDEST JUMPDEST PUSH1 0x0 DUP6 ADD CALLDATALOAD PUSH8 0xFFFFFFFFFFFFFFFF DUP2 GT ISZERO PUSH2 0xB79 JUMPI PUSH2 0xB78 PUSH2 0x922 JUMP JUMPDEST JUMPDEST PUSH2 0xB85 DUP8 DUP3 DUP9 ADD PUSH2 0xB13 JUMP JUMPDEST SWAP5 POP POP PUSH1 0x20 DUP6 ADD CALLDATALOAD PUSH8 0xFFFFFFFFFFFFFFFF DUP2 GT ISZERO PUSH2 0xBA6 JUMPI PUSH2 0xBA5 PUSH2 0x922 JUMP JUMPDEST JUMPDEST PUSH2 0xBB2 DUP8 DUP3 DUP9 ADD PUSH2 0xB13 JUMP JUMPDEST SWAP4 POP POP PUSH1 0x40 DUP6 ADD CALLDATALOAD PUSH8 0xFFFFFFFFFFFFFFFF DUP2 GT ISZERO PUSH2 0xBD3 JUMPI PUSH2 0xBD2 PUSH2 0x922 JUMP JUMPDEST JUMPDEST PUSH2 0xBDF DUP8 DUP3 DUP9 ADD PUSH2 0xB13 JUMP JUMPDEST SWAP3 POP POP PUSH1 0x60 PUSH2 0xBF0 DUP8 DUP3 DUP9 ADD PUSH2 0x948 JUMP JUMPDEST SWAP2 POP POP SWAP3 SWAP6 SWAP2 SWAP5 POP SWAP3 POP JUMP JUMPDEST PUSH1 0x0 PUSH1 0x20 DUP3 DUP5 SUB SLT ISZERO PUSH2 0xC12 JUMPI PUSH2 0xC11 PUSH2 0x91D JUMP JUMPDEST JUMPDEST PUSH1 0x0 PUSH2 0xC20 DUP5 DUP3 DUP6 ADD PUSH2 0x948 JUMP JUMPDEST SWAP2 POP POP SWAP3 SWAP2 POP POP JUMP JUMPDEST PUSH1 0x0 DUP2 MLOAD SWAP1 POP SWAP2 SWAP1 POP JUMP JUMPDEST PUSH1 0x0 DUP3 DUP3 MSTORE PUSH1 0x20 DUP3 ADD SWAP1 POP SWAP3 SWAP2 POP POP JUMP JUMPDEST PUSH1 0x0 JUMPDEST DUP4 DUP2 LT ISZERO PUSH2 0xC63 JUMPI DUP1 DUP3 ADD MLOAD DUP2 DUP5 ADD MSTORE PUSH1 0x20 DUP2 ADD SWAP1 POP PUSH2 0xC48 JUMP JUMPDEST DUP4 DUP2 GT ISZERO PUSH2 0xC72 JUMPI PUSH1 0x0 DUP5 DUP5 ADD MSTORE JUMPDEST POP POP POP POP JUMP JUMPDEST PUSH1 0x0 PUSH2 0xC83 DUP3 PUSH2 0xC29 JUMP JUMPDEST PUSH2 0xC8D DUP2 DUP6 PUSH2 0xC34 JUMP JUMPDEST SWAP4 POP PUSH2 0xC9D DUP2 DUP6 PUSH1 0x20 DUP7 ADD PUSH2 0xC45 JUMP JUMPDEST PUSH2 0xCA6 DUP2 PUSH2 0xA05 JUMP JUMPDEST DUP5 ADD SWAP2 POP POP SWAP3 SWAP2 POP POP JUMP JUMPDEST PUSH2 0xCBA DUP2 PUSH2 0x927 JUMP JUMPDEST DUP3 MSTORE POP POP JUMP JUMPDEST PUSH2 0xCC9 DUP2 PUSH2 0x97D JUMP JUMPDEST DUP3 MSTORE POP POP JUMP JUMPDEST PUSH1 0x0 PUSH1 0xA0 DUP3 ADD SWAP1 POP DUP2 DUP2 SUB PUSH1 0x0 DUP4 ADD MSTORE PUSH2 0xCE9 DUP2 DUP9 PUSH2 0xC78 JUMP JUMPDEST SWAP1 POP DUP2 DUP2 SUB PUSH1 0x20 DUP4 ADD MSTORE PUSH2 0xCFD DUP2 DUP8 PUSH2 0xC78 JUMP JUMPDEST SWAP1 POP DUP2 DUP2 SUB PUSH1 0x40 DUP4 ADD MSTORE PUSH2 0xD11 DUP2 DUP7 PUSH2 0xC78 JUMP JUMPDEST SWAP1 POP PUSH2 0xD20 PUSH1 0x60 DUP4 ADD DUP6 PUSH2 0xCB1 JUMP JUMPDEST PUSH2 0xD2D PUSH1 0x80 DUP4 ADD DUP5 PUSH2 0xCC0 JUMP JUMPDEST SWAP7 SWAP6 POP POP POP POP POP POP JUMP JUMPDEST PUSH1 0x0 PUSH1 0x20 DUP3 ADD SWAP1 POP PUSH2 0xD4C PUSH1 0x0 DUP4 ADD DUP5 PUSH2 0xCB1 JUMP JUMPDEST SWAP3 SWAP2 POP POP JUMP JUMPDEST PUSH32 0x4F6E6C79207468652063757272656E74206F776E65722063616E207472616E73 PUSH1 0x0 DUP3 ADD MSTORE PUSH32 0x666572206F776E65727368697000000000000000000000000000000000000000 PUSH1 0x20 DUP3 ADD MSTORE POP JUMP JUMPDEST PUSH1 0x0 PUSH2 0xDAE PUSH1 0x2D DUP4 PUSH2 0xC34 JUMP JUMPDEST SWAP2 POP PUSH2 0xDB9 DUP3 PUSH2 0xD52 JUMP JUMPDEST PUSH1 0x40 DUP3 ADD SWAP1 POP SWAP2 SWAP1 POP JUMP JUMPDEST PUSH1 0x0 PUSH1 0x20 DUP3 ADD SWAP1 POP DUP2 DUP2 SUB PUSH1 0x0 DUP4 ADD MSTORE PUSH2 0xDDD DUP2 PUSH2 0xDA1 JUMP JUMPDEST SWAP1 POP SWAP2 SWAP1 POP JUMP JUMPDEST PUSH32 0x496E76616C6964206E6577206F776E6572206164647265737300000000000000 PUSH1 0x0 DUP3 ADD MSTORE POP JUMP JUMPDEST PUSH1 0x0 PUSH2 0xE1A PUSH1 0x19 DUP4 PUSH2 0xC34 JUMP JUMPDEST SWAP2 POP PUSH2 0xE25 DUP3 PUSH2 0xDE4 JUMP JUMPDEST PUSH1 0x20 DUP3 ADD SWAP1 POP SWAP2 SWAP1 POP JUMP JUMPDEST PUSH1 0x0 PUSH1 0x20 DUP3 ADD SWAP1 POP DUP2 DUP2 SUB PUSH1 0x0 DUP4 ADD MSTORE PUSH2 0xE49 DUP2 PUSH2 0xE0D JUMP JUMPDEST SWAP1 POP SWAP2 SWAP1 POP JUMP JUMPDEST PUSH1 0x0 PUSH1 0x40 DUP3 ADD SWAP1 POP PUSH2 0xE65 PUSH1 0x0 DUP4 ADD DUP6 PUSH2 0xCC0 JUMP JUMPDEST PUSH2 0xE72 PUSH1 0x20 DUP4 ADD DUP5 PUSH2 0xCC0 JUMP JUMPDEST SWAP4 SWAP3 POP POP POP JUMP JUMPDEST PUSH32 0x4E487B7100000000000000000000000000000000000000000000000000000000 PUSH1 0x0 MSTORE PUSH1 0x11 PUSH1 0x4 MSTORE PUSH1 0x24 PUSH1 0x0 REVERT JUMPDEST PUSH1 0x0 PUSH2 0xEB3 DUP3 PUSH2 0x927 JUMP JUMPDEST SWAP2 POP PUSH32 0xFFFFFFFFFFFFFFFFFFFFFFFFFFFFFFFFFFFFFFFFFFFFFFFFFFFFFFFFFFFFFFFF DUP3 EQ ISZERO PUSH2 0xEE6 JUMPI PUSH2 0xEE5 PUSH2 0xE79 JUMP JUMPDEST JUMPDEST PUSH1 0x1 DUP3 ADD SWAP1 POP SWAP2 SWAP1 POP JUMP JUMPDEST PUSH32 0x4E487B7100000000000000000000000000000000000000000000000000000000 PUSH1 0x0 MSTORE PUSH1 0x22 PUSH1 0x4 MSTORE PUSH1 0x24 PUSH1 0x0 REVERT JUMPDEST PUSH1 0x0 PUSH1 0x2 DUP3 DIV SWAP1 POP PUSH1 0x1 DUP3 AND DUP1 PUSH2 0xF38 JUMPI PUSH1 0x7F DUP3 AND SWAP2 POP JUMPDEST PUSH1 0x20 DUP3 LT DUP2 EQ ISZERO PUSH2 0xF4C JUMPI PUSH2 0xF4B PUSH2 0xEF1 JUMP JUMPDEST JUMPDEST POP SWAP2 SWAP1 POP JUMP INVALID LOG2 PUSH5 0x6970667358 0x22 SLT KECCAK256 0xB0 0xB0 0xC3 SWAP16 PUSH15 0xF183FADE87FE874BFD5C5232B2AEC5 ADDRESS DUP4 ADD 0x4A 0xCF PUSH22 0x49F3FD4A1B2B64736F6C634300080B00330000000000 "
				},
				"gasEstimates": {
					"creation": {
						"codeDepositCost": "795200",
						"executionCost": "831",
						"totalCost": "796031"
					},
					"external": {
						"addBook(string,string,string,uint256)": "infinite",
						"bookCount()": "2473",
						"books(uint256)": "infinite",
						"getBook(uint256)": "infinite",
						"transferBookOwnership(uint256,address)": "infinite"
					}
				},
				"methodIdentifiers": {
					"addBook(string,string,string,uint256)": "45e6df3d",
					"bookCount()": "b905ad78",
					"books(uint256)": "68744046",
					"getBook(uint256)": "e0ff5b8b",
					"transferBookOwnership(uint256,address)": "3fb8351c"
				}
			},
			"storageLayout": {
				"storage": [
					{
						"astId": 17,
						"contract": "Book Library Project 8/Book Library.sol:BookLibrary",
						"label": "books",
						"offset": 0,
						"slot": "0",
						"type": "t_mapping(t_uint256,t_struct(Book)12_storage)"
					},
					{
						"astId": 19,
						"contract": "Book Library Project 8/Book Library.sol:BookLibrary",
						"label": "bookCount",
						"offset": 0,
						"slot": "1",
						"type": "t_uint256"
					}
				],
				"types": {
					"t_address": {
						"encoding": "inplace",
						"label": "address",
						"numberOfBytes": "20"
					},
					"t_mapping(t_uint256,t_struct(Book)12_storage)": {
						"encoding": "mapping",
						"key": "t_uint256",
						"label": "mapping(uint256 => struct BookLibrary.Book)",
						"numberOfBytes": "32",
						"value": "t_struct(Book)12_storage"
					},
					"t_string_storage": {
						"encoding": "bytes",
						"label": "string",
						"numberOfBytes": "32"
					},
					"t_struct(Book)12_storage": {
						"encoding": "inplace",
						"label": "struct BookLibrary.Book",
						"members": [
							{
								"astId": 3,
								"contract": "Book Library Project 8/Book Library.sol:BookLibrary",
								"label": "title",
								"offset": 0,
								"slot": "0",
								"type": "t_string_storage"
							},
							{
								"astId": 5,
								"contract": "Book Library Project 8/Book Library.sol:BookLibrary",
								"label": "author",
								"offset": 0,
								"slot": "1",
								"type": "t_string_storage"
							},
							{
								"astId": 7,
								"contract": "Book Library Project 8/Book Library.sol:BookLibrary",
								"label": "publisher",
								"offset": 0,
								"slot": "2",
								"type": "t_string_storage"
							},
							{
								"astId": 9,
								"contract": "Book Library Project 8/Book Library.sol:BookLibrary",
								"label": "year",
								"offset": 0,
								"slot": "3",
								"type": "t_uint256"
							},
							{
								"astId": 11,
								"contract": "Book Library Project 8/Book Library.sol:BookLibrary",
								"label": "owner",
								"offset": 0,
								"slot": "4",
								"type": "t_address"
							}
						],
						"numberOfBytes": "160"
					},
					"t_uint256": {
						"encoding": "inplace",
						"label": "uint256",
						"numberOfBytes": "32"
					}
				}
			},
			"userdoc": {
				"kind": "user",
				"methods": {},
				"version": 1
			}
		}
	}
}