{
	"Querying Agriculture Data Project 14/Agriculture Data.sol": {
		"AgricultureData": {
			"abi": [
				{
					"inputs": [
						{
							"internalType": "string",
							"name": "_name",
							"type": "string"
						},
						{
							"internalType": "string",
							"name": "_origin",
							"type": "string"
						},
						{
							"internalType": "uint256",
							"name": "_quantity",
							"type": "uint256"
						},
						{
							"internalType": "uint256",
							"name": "_price",
							"type": "uint256"
						}
					],
					"name": "addProduct",
					"outputs": [
						{
							"internalType": "uint256",
							"name": "",
							"type": "uint256"
						}
					],
					"stateMutability": "nonpayable",
					"type": "function"
				},
				{
					"inputs": [
						{
							"internalType": "uint256",
							"name": "_productId",
							"type": "uint256"
						}
					],
					"name": "getProduct",
					"outputs": [
						{
							"internalType": "string",
							"name": "",
							"type": "string"
						},
						{
							"internalType": "string",
							"name": "",
							"type": "string"
						},
						{
							"internalType": "uint256",
							"name": "",
							"type": "uint256"
						},
						{
							"internalType": "uint256",
							"name": "",
							"type": "uint256"
						}
					],
					"stateMutability": "view",
					"type": "function"
				},
				{
					"inputs": [
						{
							"internalType": "uint256",
							"name": "",
							"type": "uint256"
						}
					],
					"name": "products",
					"outputs": [
						{
							"internalType": "string",
							"name": "name",
							"type": "string"
						},
						{
							"internalType": "string",
							"name": "origin",
							"type": "string"
						},
						{
							"internalType": "uint256",
							"name": "quantity",
							"type": "uint256"
						},
						{
							"internalType": "uint256",
							"name": "price",
							"type": "uint256"
						}
					],
					"stateMutability": "view",
					"type": "function"
				},
				{
					"inputs": [],
					"name": "totalProducts",
					"outputs": [
						{
							"internalType": "uint256",
							"name": "",
							"type": "uint256"
						}
					],
					"stateMutability": "view",
					"type": "function"
				},
				{
					"inputs": [
						{
							"internalType": "uint256",
							"name": "_productId",
							"type": "uint256"
						},
						{
							"internalType": "string",
							"name": "_name",
							"type": "string"
						},
						{
							"internalType": "string",
							"name": "_origin",
							"type": "string"
						},
						{
							"internalType": "uint256",
							"name": "_quantity",
							"type": "uint256"
						},
						{
							"internalType": "uint256",
							"name": "_price",
							"type": "uint256"
						}
					],
					"name": "updateProduct",
					"outputs": [],
					"stateMutability": "nonpayable",
					"type": "function"
				}
			],
			"devdoc": {
				"kind": "dev",
				"methods": {},
				"version": 1
			},
			"evm": {
				"assembly": "    /* \"Querying Agriculture Data Project 14/Agriculture Data.sol\":60:1259  contract AgricultureData {... */\n  mstore(0x40, 0x80)\n  callvalue\n  dup1\n  iszero\n  tag_1\n  jumpi\n  0x00\n  dup1\n  revert\ntag_1:\n  pop\n  dataSize(sub_0)\n  dup1\n  dataOffset(sub_0)\n  0x00\n  codecopy\n  0x00\n  return\nstop\n\nsub_0: assembly {\n        /* \"Querying Agriculture Data Project 14/Agriculture Data.sol\":60:1259  contract AgricultureData {... */\n      mstore(0x40, 0x80)\n      callvalue\n      dup1\n      iszero\n      tag_1\n      jumpi\n      0x00\n      dup1\n      revert\n    tag_1:\n      pop\n      jumpi(tag_2, lt(calldatasize, 0x04))\n      shr(0xe0, calldataload(0x00))\n      dup1\n      0x01cecd14\n      eq\n      tag_3\n      jumpi\n      dup1\n      0x7acc0b20\n      eq\n      tag_4\n      jumpi\n      dup1\n      0x9b9d326d\n      eq\n      tag_5\n      jumpi\n      dup1\n      0xb9db15b4\n      eq\n      tag_6\n      jumpi\n      dup1\n      0xf94eb182\n      eq\n      tag_7\n      jumpi\n    tag_2:\n      0x00\n      dup1\n      revert\n        /* \"Querying Agriculture Data Project 14/Agriculture Data.sol\":322:590  function addProduct(string memory _name, string memory _origin, uint256 _quantity, uint256 _price) public returns (uint256) {... */\n    tag_3:\n      tag_8\n      0x04\n      dup1\n      calldatasize\n      sub\n      dup2\n      add\n      swap1\n      tag_9\n      swap2\n      swap1\n      tag_10\n      jump\t// in\n    tag_9:\n      tag_11\n      jump\t// in\n    tag_8:\n      mload(0x40)\n      tag_12\n      swap2\n      swap1\n      tag_13\n      jump\t// in\n    tag_12:\n      mload(0x40)\n      dup1\n      swap2\n      sub\n      swap1\n      return\n        /* \"Querying Agriculture Data Project 14/Agriculture Data.sol\":230:274  mapping (uint256 => Product) public products */\n    tag_4:\n      tag_14\n      0x04\n      dup1\n      calldatasize\n      sub\n      dup2\n      add\n      swap1\n      tag_15\n      swap2\n      swap1\n      tag_16\n      jump\t// in\n    tag_15:\n      tag_17\n      jump\t// in\n    tag_14:\n      mload(0x40)\n      tag_18\n      swap5\n      swap4\n      swap3\n      swap2\n      swap1\n      tag_19\n      jump\t// in\n    tag_18:\n      mload(0x40)\n      dup1\n      swap2\n      sub\n      swap1\n      return\n        /* \"Querying Agriculture Data Project 14/Agriculture Data.sol\":281:309  uint256 public totalProducts */\n    tag_5:\n      tag_20\n      tag_21\n      jump\t// in\n    tag_20:\n      mload(0x40)\n      tag_22\n      swap2\n      swap1\n      tag_13\n      jump\t// in\n    tag_22:\n      mload(0x40)\n      dup1\n      swap2\n      sub\n      swap1\n      return\n        /* \"Querying Agriculture Data Project 14/Agriculture Data.sol\":602:944  function getProduct(uint256 _productId) public view returns (string memory, string memory, uint256, uint256) {... */\n    tag_6:\n      tag_23\n      0x04\n      dup1\n      calldatasize\n      sub\n      dup2\n      add\n      swap1\n      tag_24\n      swap2\n      swap1\n      tag_16\n      jump\t// in\n    tag_24:\n      tag_25\n      jump\t// in\n    tag_23:\n      mload(0x40)\n      tag_26\n      swap5\n      swap4\n      swap3\n      swap2\n      swap1\n      tag_19\n      jump\t// in\n    tag_26:\n      mload(0x40)\n      dup1\n      swap2\n      sub\n      swap1\n      return\n        /* \"Querying Agriculture Data Project 14/Agriculture Data.sol\":956:1256  function updateProduct(uint256 _productId, string memory _name, string memory _origin, uint256 _quantity, uint256 _price) public {... */\n    tag_7:\n      tag_27\n      0x04\n      dup1\n      calldatasize\n      sub\n      dup2\n      add\n      swap1\n      tag_28\n      swap2\n      swap1\n      tag_29\n      jump\t// in\n    tag_28:\n      tag_30\n      jump\t// in\n    tag_27:\n      stop\n        /* \"Querying Agriculture Data Project 14/Agriculture Data.sol\":322:590  function addProduct(string memory _name, string memory _origin, uint256 _quantity, uint256 _price) public returns (uint256) {... */\n    tag_11:\n        /* \"Querying Agriculture Data Project 14/Agriculture Data.sol\":437:444  uint256 */\n      0x00\n        /* \"Querying Agriculture Data Project 14/Agriculture Data.sol\":457:470  totalProducts */\n      0x01\n      0x00\n        /* \"Querying Agriculture Data Project 14/Agriculture Data.sol\":457:472  totalProducts++ */\n      dup2\n      sload\n      dup1\n      swap3\n      swap2\n      swap1\n      tag_32\n      swap1\n      tag_33\n      jump\t// in\n    tag_32:\n      swap2\n      swap1\n      pop\n      sstore\n      pop\n        /* \"Querying Agriculture Data Project 14/Agriculture Data.sol\":509:551  Product(_name, _origin, _quantity, _price) */\n      mload(0x40)\n      dup1\n      0x80\n      add\n      0x40\n      mstore\n      dup1\n        /* \"Querying Agriculture Data Project 14/Agriculture Data.sol\":517:522  _name */\n      dup7\n        /* \"Querying Agriculture Data Project 14/Agriculture Data.sol\":509:551  Product(_name, _origin, _quantity, _price) */\n      dup2\n      mstore\n      0x20\n      add\n        /* \"Querying Agriculture Data Project 14/Agriculture Data.sol\":524:531  _origin */\n      dup6\n        /* \"Querying Agriculture Data Project 14/Agriculture Data.sol\":509:551  Product(_name, _origin, _quantity, _price) */\n      dup2\n      mstore\n      0x20\n      add\n        /* \"Querying Agriculture Data Project 14/Agriculture Data.sol\":533:542  _quantity */\n      dup5\n        /* \"Querying Agriculture Data Project 14/Agriculture Data.sol\":509:551  Product(_name, _origin, _quantity, _price) */\n      dup2\n      mstore\n      0x20\n      add\n        /* \"Querying Agriculture Data Project 14/Agriculture Data.sol\":544:550  _price */\n      dup4\n        /* \"Querying Agriculture Data Project 14/Agriculture Data.sol\":509:551  Product(_name, _origin, _quantity, _price) */\n      dup2\n      mstore\n      pop\n        /* \"Querying Agriculture Data Project 14/Agriculture Data.sol\":483:491  products */\n      0x00\n        /* \"Querying Agriculture Data Project 14/Agriculture Data.sol\":483:506  products[totalProducts] */\n      dup1\n        /* \"Querying Agriculture Data Project 14/Agriculture Data.sol\":492:505  totalProducts */\n      sload(0x01)\n        /* \"Querying Agriculture Data Project 14/Agriculture Data.sol\":483:506  products[totalProducts] */\n      dup2\n      mstore\n      0x20\n      add\n      swap1\n      dup2\n      mstore\n      0x20\n      add\n      0x00\n      keccak256\n        /* \"Querying Agriculture Data Project 14/Agriculture Data.sol\":483:551  products[totalProducts] = Product(_name, _origin, _quantity, _price) */\n      0x00\n      dup3\n      add\n      mload\n      dup2\n      0x00\n      add\n      swap1\n      dup1\n      mload\n      swap1\n      0x20\n      add\n      swap1\n      tag_34\n      swap3\n      swap2\n      swap1\n      tag_35\n      jump\t// in\n    tag_34:\n      pop\n      0x20\n      dup3\n      add\n      mload\n      dup2\n      0x01\n      add\n      swap1\n      dup1\n      mload\n      swap1\n      0x20\n      add\n      swap1\n      tag_36\n      swap3\n      swap2\n      swap1\n      tag_35\n      jump\t// in\n    tag_36:\n      pop\n      0x40\n      dup3\n      add\n      mload\n      dup2\n      0x02\n      add\n      sstore\n      0x60\n      dup3\n      add\n      mload\n      dup2\n      0x03\n      add\n      sstore\n      swap1\n      pop\n      pop\n        /* \"Querying Agriculture Data Project 14/Agriculture Data.sol\":569:582  totalProducts */\n      sload(0x01)\n        /* \"Querying Agriculture Data Project 14/Agriculture Data.sol\":562:582  return totalProducts */\n      swap1\n      pop\n        /* \"Querying Agriculture Data Project 14/Agriculture Data.sol\":322:590  function addProduct(string memory _name, string memory _origin, uint256 _quantity, uint256 _price) public returns (uint256) {... */\n      swap5\n      swap4\n      pop\n      pop\n      pop\n      pop\n      jump\t// out\n        /* \"Querying Agriculture Data Project 14/Agriculture Data.sol\":230:274  mapping (uint256 => Product) public products */\n    tag_17:\n      mstore(0x20, 0x00)\n      dup1\n      0x00\n      mstore\n      keccak256(0x00, 0x40)\n      0x00\n      swap2\n      pop\n      swap1\n      pop\n      dup1\n      0x00\n      add\n      dup1\n      sload\n      tag_37\n      swap1\n      tag_38\n      jump\t// in\n    tag_37:\n      dup1\n      0x1f\n      add\n      0x20\n      dup1\n      swap2\n      div\n      mul\n      0x20\n      add\n      mload(0x40)\n      swap1\n      dup2\n      add\n      0x40\n      mstore\n      dup1\n      swap3\n      swap2\n      swap1\n      dup2\n      dup2\n      mstore\n      0x20\n      add\n      dup3\n      dup1\n      sload\n      tag_39\n      swap1\n      tag_38\n      jump\t// in\n    tag_39:\n      dup1\n      iszero\n      tag_40\n      jumpi\n      dup1\n      0x1f\n      lt\n      tag_41\n      jumpi\n      0x0100\n      dup1\n      dup4\n      sload\n      div\n      mul\n      dup4\n      mstore\n      swap2\n      0x20\n      add\n      swap2\n      jump(tag_40)\n    tag_41:\n      dup3\n      add\n      swap2\n      swap1\n      0x00\n      mstore\n      keccak256(0x00, 0x20)\n      swap1\n    tag_42:\n      dup2\n      sload\n      dup2\n      mstore\n      swap1\n      0x01\n      add\n      swap1\n      0x20\n      add\n      dup1\n      dup4\n      gt\n      tag_42\n      jumpi\n      dup3\n      swap1\n      sub\n      0x1f\n      and\n      dup3\n      add\n      swap2\n    tag_40:\n      pop\n      pop\n      pop\n      pop\n      pop\n      swap1\n      dup1\n      0x01\n      add\n      dup1\n      sload\n      tag_43\n      swap1\n      tag_38\n      jump\t// in\n    tag_43:\n      dup1\n      0x1f\n      add\n      0x20\n      dup1\n      swap2\n      div\n      mul\n      0x20\n      add\n      mload(0x40)\n      swap1\n      dup2\n      add\n      0x40\n      mstore\n      dup1\n      swap3\n      swap2\n      swap1\n      dup2\n      dup2\n      mstore\n      0x20\n      add\n      dup3\n      dup1\n      sload\n      tag_44\n      swap1\n      tag_38\n      jump\t// in\n    tag_44:\n      dup1\n      iszero\n      tag_45\n      jumpi\n      dup1\n      0x1f\n      lt\n      tag_46\n      jumpi\n      0x0100\n      dup1\n      dup4\n      sload\n      div\n      mul\n      dup4\n      mstore\n      swap2\n      0x20\n      add\n      swap2\n      jump(tag_45)\n    tag_46:\n      dup3\n      add\n      swap2\n      swap1\n      0x00\n      mstore\n      keccak256(0x00, 0x20)\n      swap1\n    tag_47:\n      dup2\n      sload\n      dup2\n      mstore\n      swap1\n      0x01\n      add\n      swap1\n      0x20\n      add\n      dup1\n      dup4\n      gt\n      tag_47\n      jumpi\n      dup3\n      swap1\n      sub\n      0x1f\n      and\n      dup3\n      add\n      swap2\n    tag_45:\n      pop\n      pop\n      pop\n      pop\n      pop\n      swap1\n      dup1\n      0x02\n      add\n      sload\n      swap1\n      dup1\n      0x03\n      add\n      sload\n      swap1\n      pop\n      dup5\n      jump\t// out\n        /* \"Querying Agriculture Data Project 14/Agriculture Data.sol\":281:309  uint256 public totalProducts */\n    tag_21:\n      sload(0x01)\n      dup2\n      jump\t// out\n        /* \"Querying Agriculture Data Project 14/Agriculture Data.sol\":602:944  function getProduct(uint256 _productId) public view returns (string memory, string memory, uint256, uint256) {... */\n    tag_25:\n        /* \"Querying Agriculture Data Project 14/Agriculture Data.sol\":663:676  string memory */\n      0x60\n        /* \"Querying Agriculture Data Project 14/Agriculture Data.sol\":678:691  string memory */\n      dup1\n        /* \"Querying Agriculture Data Project 14/Agriculture Data.sol\":693:700  uint256 */\n      0x00\n        /* \"Querying Agriculture Data Project 14/Agriculture Data.sol\":702:709  uint256 */\n      dup1\n        /* \"Querying Agriculture Data Project 14/Agriculture Data.sol\":743:744  0 */\n      0x00\n        /* \"Querying Agriculture Data Project 14/Agriculture Data.sol\":730:740  _productId */\n      dup6\n        /* \"Querying Agriculture Data Project 14/Agriculture Data.sol\":730:744  _productId > 0 */\n      gt\n        /* \"Querying Agriculture Data Project 14/Agriculture Data.sol\":730:775  _productId > 0 && _productId <= totalProducts */\n      dup1\n      iszero\n      tag_49\n      jumpi\n      pop\n        /* \"Querying Agriculture Data Project 14/Agriculture Data.sol\":762:775  totalProducts */\n      sload(0x01)\n        /* \"Querying Agriculture Data Project 14/Agriculture Data.sol\":748:758  _productId */\n      dup6\n        /* \"Querying Agriculture Data Project 14/Agriculture Data.sol\":748:775  _productId <= totalProducts */\n      gt\n      iszero\n        /* \"Querying Agriculture Data Project 14/Agriculture Data.sol\":730:775  _productId > 0 && _productId <= totalProducts */\n    tag_49:\n        /* \"Querying Agriculture Data Project 14/Agriculture Data.sol\":722:798  require(_productId > 0 && _productId <= totalProducts, \"Invalid product ID\") */\n      tag_50\n      jumpi\n      mload(0x40)\n      0x08c379a000000000000000000000000000000000000000000000000000000000\n      dup2\n      mstore\n      0x04\n      add\n      tag_51\n      swap1\n      tag_52\n      jump\t// in\n    tag_51:\n      mload(0x40)\n      dup1\n      swap2\n      sub\n      swap1\n      revert\n    tag_50:\n        /* \"Querying Agriculture Data Project 14/Agriculture Data.sol\":809:832  Product storage product */\n      0x00\n        /* \"Querying Agriculture Data Project 14/Agriculture Data.sol\":835:843  products */\n      dup1\n        /* \"Querying Agriculture Data Project 14/Agriculture Data.sol\":835:855  products[_productId] */\n      0x00\n        /* \"Querying Agriculture Data Project 14/Agriculture Data.sol\":844:854  _productId */\n      dup8\n        /* \"Querying Agriculture Data Project 14/Agriculture Data.sol\":835:855  products[_productId] */\n      dup2\n      mstore\n      0x20\n      add\n      swap1\n      dup2\n      mstore\n      0x20\n      add\n      0x00\n      keccak256\n        /* \"Querying Agriculture Data Project 14/Agriculture Data.sol\":809:855  Product storage product = products[_productId] */\n      swap1\n      pop\n        /* \"Querying Agriculture Data Project 14/Agriculture Data.sol\":874:881  product */\n      dup1\n        /* \"Querying Agriculture Data Project 14/Agriculture Data.sol\":874:886  product.name */\n      0x00\n      add\n        /* \"Querying Agriculture Data Project 14/Agriculture Data.sol\":888:895  product */\n      dup2\n        /* \"Querying Agriculture Data Project 14/Agriculture Data.sol\":888:902  product.origin */\n      0x01\n      add\n        /* \"Querying Agriculture Data Project 14/Agriculture Data.sol\":904:911  product */\n      dup3\n        /* \"Querying Agriculture Data Project 14/Agriculture Data.sol\":904:920  product.quantity */\n      0x02\n      add\n      sload\n        /* \"Querying Agriculture Data Project 14/Agriculture Data.sol\":922:929  product */\n      dup4\n        /* \"Querying Agriculture Data Project 14/Agriculture Data.sol\":922:935  product.price */\n      0x03\n      add\n      sload\n        /* \"Querying Agriculture Data Project 14/Agriculture Data.sol\":866:936  return (product.name, product.origin, product.quantity, product.price) */\n      dup4\n      dup1\n      sload\n      tag_53\n      swap1\n      tag_38\n      jump\t// in\n    tag_53:\n      dup1\n      0x1f\n      add\n      0x20\n      dup1\n      swap2\n      div\n      mul\n      0x20\n      add\n      mload(0x40)\n      swap1\n      dup2\n      add\n      0x40\n      mstore\n      dup1\n      swap3\n      swap2\n      swap1\n      dup2\n      dup2\n      mstore\n      0x20\n      add\n      dup3\n      dup1\n      sload\n      tag_54\n      swap1\n      tag_38\n      jump\t// in\n    tag_54:\n      dup1\n      iszero\n      tag_55\n      jumpi\n      dup1\n      0x1f\n      lt\n      tag_56\n      jumpi\n      0x0100\n      dup1\n      dup4\n      sload\n      div\n      mul\n      dup4\n      mstore\n      swap2\n      0x20\n      add\n      swap2\n      jump(tag_55)\n    tag_56:\n      dup3\n      add\n      swap2\n      swap1\n      0x00\n      mstore\n      keccak256(0x00, 0x20)\n      swap1\n    tag_57:\n      dup2\n      sload\n      dup2\n      mstore\n      swap1\n      0x01\n      add\n      swap1\n      0x20\n      add\n      dup1\n      dup4\n      gt\n      tag_57\n      jumpi\n      dup3\n      swap1\n      sub\n      0x1f\n      and\n      dup3\n      add\n      swap2\n    tag_55:\n      pop\n      pop\n      pop\n      pop\n      pop\n      swap4\n      pop\n      dup3\n      dup1\n      sload\n      tag_58\n      swap1\n      tag_38\n      jump\t// in\n    tag_58:\n      dup1\n      0x1f\n      add\n      0x20\n      dup1\n      swap2\n      div\n      mul\n      0x20\n      add\n      mload(0x40)\n      swap1\n      dup2\n      add\n      0x40\n      mstore\n      dup1\n      swap3\n      swap2\n      swap1\n      dup2\n      dup2\n      mstore\n      0x20\n      add\n      dup3\n      dup1\n      sload\n      tag_59\n      swap1\n      tag_38\n      jump\t// in\n    tag_59:\n      dup1\n      iszero\n      tag_60\n      jumpi\n      dup1\n      0x1f\n      lt\n      tag_61\n      jumpi\n      0x0100\n      dup1\n      dup4\n      sload\n      div\n      mul\n      dup4\n      mstore\n      swap2\n      0x20\n      add\n      swap2\n      jump(tag_60)\n    tag_61:\n      dup3\n      add\n      swap2\n      swap1\n      0x00\n      mstore\n      keccak256(0x00, 0x20)\n      swap1\n    tag_62:\n      dup2\n      sload\n      dup2\n      mstore\n      swap1\n      0x01\n      add\n      swap1\n      0x20\n      add\n      dup1\n      dup4\n      gt\n      tag_62\n      jumpi\n      dup3\n      swap1\n      sub\n      0x1f\n      and\n      dup3\n      add\n      swap2\n    tag_60:\n      pop\n      pop\n      pop\n      pop\n      pop\n      swap3\n      pop\n      swap5\n      pop\n      swap5\n      pop\n      swap5\n      pop\n      swap5\n      pop\n      pop\n        /* \"Querying Agriculture Data Project 14/Agriculture Data.sol\":602:944  function getProduct(uint256 _productId) public view returns (string memory, string memory, uint256, uint256) {... */\n      swap2\n      swap4\n      pop\n      swap2\n      swap4\n      jump\t// out\n        /* \"Querying Agriculture Data Project 14/Agriculture Data.sol\":956:1256  function updateProduct(uint256 _productId, string memory _name, string memory _origin, uint256 _quantity, uint256 _price) public {... */\n    tag_30:\n        /* \"Querying Agriculture Data Project 14/Agriculture Data.sol\":1117:1118  0 */\n      0x00\n        /* \"Querying Agriculture Data Project 14/Agriculture Data.sol\":1104:1114  _productId */\n      dup6\n        /* \"Querying Agriculture Data Project 14/Agriculture Data.sol\":1104:1118  _productId > 0 */\n      gt\n        /* \"Querying Agriculture Data Project 14/Agriculture Data.sol\":1104:1149  _productId > 0 && _productId <= totalProducts */\n      dup1\n      iszero\n      tag_64\n      jumpi\n      pop\n        /* \"Querying Agriculture Data Project 14/Agriculture Data.sol\":1136:1149  totalProducts */\n      sload(0x01)\n        /* \"Querying Agriculture Data Project 14/Agriculture Data.sol\":1122:1132  _productId */\n      dup6\n        /* \"Querying Agriculture Data Project 14/Agriculture Data.sol\":1122:1149  _productId <= totalProducts */\n      gt\n      iszero\n        /* \"Querying Agriculture Data Project 14/Agriculture Data.sol\":1104:1149  _productId > 0 && _productId <= totalProducts */\n    tag_64:\n        /* \"Querying Agriculture Data Project 14/Agriculture Data.sol\":1096:1172  require(_productId > 0 && _productId <= totalProducts, \"Invalid product ID\") */\n      tag_65\n      jumpi\n      mload(0x40)\n      0x08c379a000000000000000000000000000000000000000000000000000000000\n      dup2\n      mstore\n      0x04\n      add\n      tag_66\n      swap1\n      tag_52\n      jump\t// in\n    tag_66:\n      mload(0x40)\n      dup1\n      swap2\n      sub\n      swap1\n      revert\n    tag_65:\n        /* \"Querying Agriculture Data Project 14/Agriculture Data.sol\":1206:1248  Product(_name, _origin, _quantity, _price) */\n      mload(0x40)\n      dup1\n      0x80\n      add\n      0x40\n      mstore\n      dup1\n        /* \"Querying Agriculture Data Project 14/Agriculture Data.sol\":1214:1219  _name */\n      dup6\n        /* \"Querying Agriculture Data Project 14/Agriculture Data.sol\":1206:1248  Product(_name, _origin, _quantity, _price) */\n      dup2\n      mstore\n      0x20\n      add\n        /* \"Querying Agriculture Data Project 14/Agriculture Data.sol\":1221:1228  _origin */\n      dup5\n        /* \"Querying Agriculture Data Project 14/Agriculture Data.sol\":1206:1248  Product(_name, _origin, _quantity, _price) */\n      dup2\n      mstore\n      0x20\n      add\n        /* \"Querying Agriculture Data Project 14/Agriculture Data.sol\":1230:1239  _quantity */\n      dup4\n        /* \"Querying Agriculture Data Project 14/Agriculture Data.sol\":1206:1248  Product(_name, _origin, _quantity, _price) */\n      dup2\n      mstore\n      0x20\n      add\n        /* \"Querying Agriculture Data Project 14/Agriculture Data.sol\":1241:1247  _price */\n      dup3\n        /* \"Querying Agriculture Data Project 14/Agriculture Data.sol\":1206:1248  Product(_name, _origin, _quantity, _price) */\n      dup2\n      mstore\n      pop\n        /* \"Querying Agriculture Data Project 14/Agriculture Data.sol\":1183:1191  products */\n      0x00\n        /* \"Querying Agriculture Data Project 14/Agriculture Data.sol\":1183:1203  products[_productId] */\n      dup1\n        /* \"Querying Agriculture Data Project 14/Agriculture Data.sol\":1192:1202  _productId */\n      dup8\n        /* \"Querying Agriculture Data Project 14/Agriculture Data.sol\":1183:1203  products[_productId] */\n      dup2\n      mstore\n      0x20\n      add\n      swap1\n      dup2\n      mstore\n      0x20\n      add\n      0x00\n      keccak256\n        /* \"Querying Agriculture Data Project 14/Agriculture Data.sol\":1183:1248  products[_productId] = Product(_name, _origin, _quantity, _price) */\n      0x00\n      dup3\n      add\n      mload\n      dup2\n      0x00\n      add\n      swap1\n      dup1\n      mload\n      swap1\n      0x20\n      add\n      swap1\n      tag_67\n      swap3\n      swap2\n      swap1\n      tag_35\n      jump\t// in\n    tag_67:\n      pop\n      0x20\n      dup3\n      add\n      mload\n      dup2\n      0x01\n      add\n      swap1\n      dup1\n      mload\n      swap1\n      0x20\n      add\n      swap1\n      tag_68\n      swap3\n      swap2\n      swap1\n      tag_35\n      jump\t// in\n    tag_68:\n      pop\n      0x40\n      dup3\n      add\n      mload\n      dup2\n      0x02\n      add\n      sstore\n      0x60\n      dup3\n      add\n      mload\n      dup2\n      0x03\n      add\n      sstore\n      swap1\n      pop\n      pop\n        /* \"Querying Agriculture Data Project 14/Agriculture Data.sol\":956:1256  function updateProduct(uint256 _productId, string memory _name, string memory _origin, uint256 _quantity, uint256 _price) public {... */\n      pop\n      pop\n      pop\n      pop\n      pop\n      jump\t// out\n    tag_35:\n      dup3\n      dup1\n      sload\n      tag_69\n      swap1\n      tag_38\n      jump\t// in\n    tag_69:\n      swap1\n      0x00\n      mstore\n      keccak256(0x00, 0x20)\n      swap1\n      0x1f\n      add\n      0x20\n      swap1\n      div\n      dup2\n      add\n      swap3\n      dup3\n      tag_71\n      jumpi\n      0x00\n      dup6\n      sstore\n      jump(tag_70)\n    tag_71:\n      dup3\n      0x1f\n      lt\n      tag_72\n      jumpi\n      dup1\n      mload\n      not(0xff)\n      and\n      dup4\n      dup1\n      add\n      or\n      dup6\n      sstore\n      jump(tag_70)\n    tag_72:\n      dup3\n      dup1\n      add\n      0x01\n      add\n      dup6\n      sstore\n      dup3\n      iszero\n      tag_70\n      jumpi\n      swap2\n      dup3\n      add\n    tag_73:\n      dup3\n      dup2\n      gt\n      iszero\n      tag_74\n      jumpi\n      dup3\n      mload\n      dup3\n      sstore\n      swap2\n      0x20\n      add\n      swap2\n      swap1\n      0x01\n      add\n      swap1\n      jump(tag_73)\n    tag_74:\n    tag_70:\n      pop\n      swap1\n      pop\n      tag_75\n      swap2\n      swap1\n      tag_76\n      jump\t// in\n    tag_75:\n      pop\n      swap1\n      jump\t// out\n    tag_76:\n    tag_77:\n      dup1\n      dup3\n      gt\n      iszero\n      tag_78\n      jumpi\n      0x00\n      dup2\n      0x00\n      swap1\n      sstore\n      pop\n      0x01\n      add\n      jump(tag_77)\n    tag_78:\n      pop\n      swap1\n      jump\t// out\n        /* \"#utility.yul\":7:82   */\n    tag_79:\n        /* \"#utility.yul\":40:46   */\n      0x00\n        /* \"#utility.yul\":73:75   */\n      0x40\n        /* \"#utility.yul\":67:76   */\n      mload\n        /* \"#utility.yul\":57:76   */\n      swap1\n      pop\n        /* \"#utility.yul\":7:82   */\n      swap1\n      jump\t// out\n        /* \"#utility.yul\":88:205   */\n    tag_80:\n        /* \"#utility.yul\":197:198   */\n      0x00\n        /* \"#utility.yul\":194:195   */\n      dup1\n        /* \"#utility.yul\":187:199   */\n      revert\n        /* \"#utility.yul\":211:328   */\n    tag_81:\n        /* \"#utility.yul\":320:321   */\n      0x00\n        /* \"#utility.yul\":317:318   */\n      dup1\n        /* \"#utility.yul\":310:322   */\n      revert\n        /* \"#utility.yul\":334:451   */\n    tag_82:\n        /* \"#utility.yul\":443:444   */\n      0x00\n        /* \"#utility.yul\":440:441   */\n      dup1\n        /* \"#utility.yul\":433:445   */\n      revert\n        /* \"#utility.yul\":457:574   */\n    tag_83:\n        /* \"#utility.yul\":566:567   */\n      0x00\n        /* \"#utility.yul\":563:564   */\n      dup1\n        /* \"#utility.yul\":556:568   */\n      revert\n        /* \"#utility.yul\":580:682   */\n    tag_84:\n        /* \"#utility.yul\":621:627   */\n      0x00\n        /* \"#utility.yul\":672:674   */\n      0x1f\n        /* \"#utility.yul\":668:675   */\n      not\n        /* \"#utility.yul\":663:665   */\n      0x1f\n        /* \"#utility.yul\":656:661   */\n      dup4\n        /* \"#utility.yul\":652:666   */\n      add\n        /* \"#utility.yul\":648:676   */\n      and\n        /* \"#utility.yul\":638:676   */\n      swap1\n      pop\n        /* \"#utility.yul\":580:682   */\n      swap2\n      swap1\n      pop\n      jump\t// out\n        /* \"#utility.yul\":688:868   */\n    tag_85:\n        /* \"#utility.yul\":736:813   */\n      0x4e487b7100000000000000000000000000000000000000000000000000000000\n        /* \"#utility.yul\":733:734   */\n      0x00\n        /* \"#utility.yul\":726:814   */\n      mstore\n        /* \"#utility.yul\":833:837   */\n      0x41\n        /* \"#utility.yul\":830:831   */\n      0x04\n        /* \"#utility.yul\":823:838   */\n      mstore\n        /* \"#utility.yul\":857:861   */\n      0x24\n        /* \"#utility.yul\":854:855   */\n      0x00\n        /* \"#utility.yul\":847:862   */\n      revert\n        /* \"#utility.yul\":874:1155   */\n    tag_86:\n        /* \"#utility.yul\":957:984   */\n      tag_113\n        /* \"#utility.yul\":979:983   */\n      dup3\n        /* \"#utility.yul\":957:984   */\n      tag_84\n      jump\t// in\n    tag_113:\n        /* \"#utility.yul\":949:955   */\n      dup2\n        /* \"#utility.yul\":945:985   */\n      add\n        /* \"#utility.yul\":1087:1093   */\n      dup2\n        /* \"#utility.yul\":1075:1085   */\n      dup2\n        /* \"#utility.yul\":1072:1094   */\n      lt\n        /* \"#utility.yul\":1051:1069   */\n      0xffffffffffffffff\n        /* \"#utility.yul\":1039:1049   */\n      dup3\n        /* \"#utility.yul\":1036:1070   */\n      gt\n        /* \"#utility.yul\":1033:1095   */\n      or\n        /* \"#utility.yul\":1030:1118   */\n      iszero\n      tag_114\n      jumpi\n        /* \"#utility.yul\":1098:1116   */\n      tag_115\n      tag_85\n      jump\t// in\n    tag_115:\n        /* \"#utility.yul\":1030:1118   */\n    tag_114:\n        /* \"#utility.yul\":1138:1148   */\n      dup1\n        /* \"#utility.yul\":1134:1136   */\n      0x40\n        /* \"#utility.yul\":1127:1149   */\n      mstore\n        /* \"#utility.yul\":917:1155   */\n      pop\n        /* \"#utility.yul\":874:1155   */\n      pop\n      pop\n      jump\t// out\n        /* \"#utility.yul\":1161:1290   */\n    tag_87:\n        /* \"#utility.yul\":1195:1201   */\n      0x00\n        /* \"#utility.yul\":1222:1242   */\n      tag_117\n      tag_79\n      jump\t// in\n    tag_117:\n        /* \"#utility.yul\":1212:1242   */\n      swap1\n      pop\n        /* \"#utility.yul\":1251:1284   */\n      tag_118\n        /* \"#utility.yul\":1279:1283   */\n      dup3\n        /* \"#utility.yul\":1271:1277   */\n      dup3\n        /* \"#utility.yul\":1251:1284   */\n      tag_86\n      jump\t// in\n    tag_118:\n        /* \"#utility.yul\":1161:1290   */\n      swap2\n      swap1\n      pop\n      jump\t// out\n        /* \"#utility.yul\":1296:1604   */\n    tag_88:\n        /* \"#utility.yul\":1358:1362   */\n      0x00\n        /* \"#utility.yul\":1448:1466   */\n      0xffffffffffffffff\n        /* \"#utility.yul\":1440:1446   */\n      dup3\n        /* \"#utility.yul\":1437:1467   */\n      gt\n        /* \"#utility.yul\":1434:1490   */\n      iszero\n      tag_120\n      jumpi\n        /* \"#utility.yul\":1470:1488   */\n      tag_121\n      tag_85\n      jump\t// in\n    tag_121:\n        /* \"#utility.yul\":1434:1490   */\n    tag_120:\n        /* \"#utility.yul\":1508:1537   */\n      tag_122\n        /* \"#utility.yul\":1530:1536   */\n      dup3\n        /* \"#utility.yul\":1508:1537   */\n      tag_84\n      jump\t// in\n    tag_122:\n        /* \"#utility.yul\":1500:1537   */\n      swap1\n      pop\n        /* \"#utility.yul\":1592:1596   */\n      0x20\n        /* \"#utility.yul\":1586:1590   */\n      dup2\n        /* \"#utility.yul\":1582:1597   */\n      add\n        /* \"#utility.yul\":1574:1597   */\n      swap1\n      pop\n        /* \"#utility.yul\":1296:1604   */\n      swap2\n      swap1\n      pop\n      jump\t// out\n        /* \"#utility.yul\":1610:1764   */\n    tag_89:\n        /* \"#utility.yul\":1694:1700   */\n      dup3\n        /* \"#utility.yul\":1689:1692   */\n      dup2\n        /* \"#utility.yul\":1684:1687   */\n      dup4\n        /* \"#utility.yul\":1671:1701   */\n      calldatacopy\n        /* \"#utility.yul\":1756:1757   */\n      0x00\n        /* \"#utility.yul\":1747:1753   */\n      dup4\n        /* \"#utility.yul\":1742:1745   */\n      dup4\n        /* \"#utility.yul\":1738:1754   */\n      add\n        /* \"#utility.yul\":1731:1758   */\n      mstore\n        /* \"#utility.yul\":1610:1764   */\n      pop\n      pop\n      pop\n      jump\t// out\n        /* \"#utility.yul\":1770:2182   */\n    tag_90:\n        /* \"#utility.yul\":1848:1853   */\n      0x00\n        /* \"#utility.yul\":1873:1939   */\n      tag_125\n        /* \"#utility.yul\":1889:1938   */\n      tag_126\n        /* \"#utility.yul\":1931:1937   */\n      dup5\n        /* \"#utility.yul\":1889:1938   */\n      tag_88\n      jump\t// in\n    tag_126:\n        /* \"#utility.yul\":1873:1939   */\n      tag_87\n      jump\t// in\n    tag_125:\n        /* \"#utility.yul\":1864:1939   */\n      swap1\n      pop\n        /* \"#utility.yul\":1962:1968   */\n      dup3\n        /* \"#utility.yul\":1955:1960   */\n      dup2\n        /* \"#utility.yul\":1948:1969   */\n      mstore\n        /* \"#utility.yul\":2000:2004   */\n      0x20\n        /* \"#utility.yul\":1993:1998   */\n      dup2\n        /* \"#utility.yul\":1989:2005   */\n      add\n        /* \"#utility.yul\":2038:2041   */\n      dup5\n        /* \"#utility.yul\":2029:2035   */\n      dup5\n        /* \"#utility.yul\":2024:2027   */\n      dup5\n        /* \"#utility.yul\":2020:2036   */\n      add\n        /* \"#utility.yul\":2017:2042   */\n      gt\n        /* \"#utility.yul\":2014:2126   */\n      iszero\n      tag_127\n      jumpi\n        /* \"#utility.yul\":2045:2124   */\n      tag_128\n      tag_83\n      jump\t// in\n    tag_128:\n        /* \"#utility.yul\":2014:2126   */\n    tag_127:\n        /* \"#utility.yul\":2135:2176   */\n      tag_129\n        /* \"#utility.yul\":2169:2175   */\n      dup5\n        /* \"#utility.yul\":2164:2167   */\n      dup3\n        /* \"#utility.yul\":2159:2162   */\n      dup6\n        /* \"#utility.yul\":2135:2176   */\n      tag_89\n      jump\t// in\n    tag_129:\n        /* \"#utility.yul\":1854:2182   */\n      pop\n        /* \"#utility.yul\":1770:2182   */\n      swap4\n      swap3\n      pop\n      pop\n      pop\n      jump\t// out\n        /* \"#utility.yul\":2202:2542   */\n    tag_91:\n        /* \"#utility.yul\":2258:2263   */\n      0x00\n        /* \"#utility.yul\":2307:2310   */\n      dup3\n        /* \"#utility.yul\":2300:2304   */\n      0x1f\n        /* \"#utility.yul\":2292:2298   */\n      dup4\n        /* \"#utility.yul\":2288:2305   */\n      add\n        /* \"#utility.yul\":2284:2311   */\n      slt\n        /* \"#utility.yul\":2274:2396   */\n      tag_131\n      jumpi\n        /* \"#utility.yul\":2315:2394   */\n      tag_132\n      tag_82\n      jump\t// in\n    tag_132:\n        /* \"#utility.yul\":2274:2396   */\n    tag_131:\n        /* \"#utility.yul\":2432:2438   */\n      dup2\n        /* \"#utility.yul\":2419:2439   */\n      calldataload\n        /* \"#utility.yul\":2457:2536   */\n      tag_133\n        /* \"#utility.yul\":2532:2535   */\n      dup5\n        /* \"#utility.yul\":2524:2530   */\n      dup3\n        /* \"#utility.yul\":2517:2521   */\n      0x20\n        /* \"#utility.yul\":2509:2515   */\n      dup7\n        /* \"#utility.yul\":2505:2522   */\n      add\n        /* \"#utility.yul\":2457:2536   */\n      tag_90\n      jump\t// in\n    tag_133:\n        /* \"#utility.yul\":2448:2536   */\n      swap2\n      pop\n        /* \"#utility.yul\":2264:2542   */\n      pop\n        /* \"#utility.yul\":2202:2542   */\n      swap3\n      swap2\n      pop\n      pop\n      jump\t// out\n        /* \"#utility.yul\":2548:2625   */\n    tag_92:\n        /* \"#utility.yul\":2585:2592   */\n      0x00\n        /* \"#utility.yul\":2614:2619   */\n      dup2\n        /* \"#utility.yul\":2603:2619   */\n      swap1\n      pop\n        /* \"#utility.yul\":2548:2625   */\n      swap2\n      swap1\n      pop\n      jump\t// out\n        /* \"#utility.yul\":2631:2753   */\n    tag_93:\n        /* \"#utility.yul\":2704:2728   */\n      tag_136\n        /* \"#utility.yul\":2722:2727   */\n      dup2\n        /* \"#utility.yul\":2704:2728   */\n      tag_92\n      jump\t// in\n    tag_136:\n        /* \"#utility.yul\":2697:2702   */\n      dup2\n        /* \"#utility.yul\":2694:2729   */\n      eq\n        /* \"#utility.yul\":2684:2747   */\n      tag_137\n      jumpi\n        /* \"#utility.yul\":2743:2744   */\n      0x00\n        /* \"#utility.yul\":2740:2741   */\n      dup1\n        /* \"#utility.yul\":2733:2745   */\n      revert\n        /* \"#utility.yul\":2684:2747   */\n    tag_137:\n        /* \"#utility.yul\":2631:2753   */\n      pop\n      jump\t// out\n        /* \"#utility.yul\":2759:2898   */\n    tag_94:\n        /* \"#utility.yul\":2805:2810   */\n      0x00\n        /* \"#utility.yul\":2843:2849   */\n      dup2\n        /* \"#utility.yul\":2830:2850   */\n      calldataload\n        /* \"#utility.yul\":2821:2850   */\n      swap1\n      pop\n        /* \"#utility.yul\":2859:2892   */\n      tag_139\n        /* \"#utility.yul\":2886:2891   */\n      dup2\n        /* \"#utility.yul\":2859:2892   */\n      tag_93\n      jump\t// in\n    tag_139:\n        /* \"#utility.yul\":2759:2898   */\n      swap3\n      swap2\n      pop\n      pop\n      jump\t// out\n        /* \"#utility.yul\":2904:4029   */\n    tag_10:\n        /* \"#utility.yul\":3010:3016   */\n      0x00\n        /* \"#utility.yul\":3018:3024   */\n      dup1\n        /* \"#utility.yul\":3026:3032   */\n      0x00\n        /* \"#utility.yul\":3034:3040   */\n      dup1\n        /* \"#utility.yul\":3083:3086   */\n      0x80\n        /* \"#utility.yul\":3071:3080   */\n      dup6\n        /* \"#utility.yul\":3062:3069   */\n      dup8\n        /* \"#utility.yul\":3058:3081   */\n      sub\n        /* \"#utility.yul\":3054:3087   */\n      slt\n        /* \"#utility.yul\":3051:3171   */\n      iszero\n      tag_141\n      jumpi\n        /* \"#utility.yul\":3090:3169   */\n      tag_142\n      tag_80\n      jump\t// in\n    tag_142:\n        /* \"#utility.yul\":3051:3171   */\n    tag_141:\n        /* \"#utility.yul\":3238:3239   */\n      0x00\n        /* \"#utility.yul\":3227:3236   */\n      dup6\n        /* \"#utility.yul\":3223:3240   */\n      add\n        /* \"#utility.yul\":3210:3241   */\n      calldataload\n        /* \"#utility.yul\":3268:3286   */\n      0xffffffffffffffff\n        /* \"#utility.yul\":3260:3266   */\n      dup2\n        /* \"#utility.yul\":3257:3287   */\n      gt\n        /* \"#utility.yul\":3254:3371   */\n      iszero\n      tag_143\n      jumpi\n        /* \"#utility.yul\":3290:3369   */\n      tag_144\n      tag_81\n      jump\t// in\n    tag_144:\n        /* \"#utility.yul\":3254:3371   */\n    tag_143:\n        /* \"#utility.yul\":3395:3458   */\n      tag_145\n        /* \"#utility.yul\":3450:3457   */\n      dup8\n        /* \"#utility.yul\":3441:3447   */\n      dup3\n        /* \"#utility.yul\":3430:3439   */\n      dup9\n        /* \"#utility.yul\":3426:3448   */\n      add\n        /* \"#utility.yul\":3395:3458   */\n      tag_91\n      jump\t// in\n    tag_145:\n        /* \"#utility.yul\":3385:3458   */\n      swap5\n      pop\n        /* \"#utility.yul\":3181:3468   */\n      pop\n        /* \"#utility.yul\":3535:3537   */\n      0x20\n        /* \"#utility.yul\":3524:3533   */\n      dup6\n        /* \"#utility.yul\":3520:3538   */\n      add\n        /* \"#utility.yul\":3507:3539   */\n      calldataload\n        /* \"#utility.yul\":3566:3584   */\n      0xffffffffffffffff\n        /* \"#utility.yul\":3558:3564   */\n      dup2\n        /* \"#utility.yul\":3555:3585   */\n      gt\n        /* \"#utility.yul\":3552:3669   */\n      iszero\n      tag_146\n      jumpi\n        /* \"#utility.yul\":3588:3667   */\n      tag_147\n      tag_81\n      jump\t// in\n    tag_147:\n        /* \"#utility.yul\":3552:3669   */\n    tag_146:\n        /* \"#utility.yul\":3693:3756   */\n      tag_148\n        /* \"#utility.yul\":3748:3755   */\n      dup8\n        /* \"#utility.yul\":3739:3745   */\n      dup3\n        /* \"#utility.yul\":3728:3737   */\n      dup9\n        /* \"#utility.yul\":3724:3746   */\n      add\n        /* \"#utility.yul\":3693:3756   */\n      tag_91\n      jump\t// in\n    tag_148:\n        /* \"#utility.yul\":3683:3756   */\n      swap4\n      pop\n        /* \"#utility.yul\":3478:3766   */\n      pop\n        /* \"#utility.yul\":3805:3807   */\n      0x40\n        /* \"#utility.yul\":3831:3884   */\n      tag_149\n        /* \"#utility.yul\":3876:3883   */\n      dup8\n        /* \"#utility.yul\":3867:3873   */\n      dup3\n        /* \"#utility.yul\":3856:3865   */\n      dup9\n        /* \"#utility.yul\":3852:3874   */\n      add\n        /* \"#utility.yul\":3831:3884   */\n      tag_94\n      jump\t// in\n    tag_149:\n        /* \"#utility.yul\":3821:3884   */\n      swap3\n      pop\n        /* \"#utility.yul\":3776:3894   */\n      pop\n        /* \"#utility.yul\":3933:3935   */\n      0x60\n        /* \"#utility.yul\":3959:4012   */\n      tag_150\n        /* \"#utility.yul\":4004:4011   */\n      dup8\n        /* \"#utility.yul\":3995:4001   */\n      dup3\n        /* \"#utility.yul\":3984:3993   */\n      dup9\n        /* \"#utility.yul\":3980:4002   */\n      add\n        /* \"#utility.yul\":3959:4012   */\n      tag_94\n      jump\t// in\n    tag_150:\n        /* \"#utility.yul\":3949:4012   */\n      swap2\n      pop\n        /* \"#utility.yul\":3904:4022   */\n      pop\n        /* \"#utility.yul\":2904:4029   */\n      swap3\n      swap6\n      swap2\n      swap5\n      pop\n      swap3\n      pop\n      jump\t// out\n        /* \"#utility.yul\":4035:4153   */\n    tag_95:\n        /* \"#utility.yul\":4122:4146   */\n      tag_152\n        /* \"#utility.yul\":4140:4145   */\n      dup2\n        /* \"#utility.yul\":4122:4146   */\n      tag_92\n      jump\t// in\n    tag_152:\n        /* \"#utility.yul\":4117:4120   */\n      dup3\n        /* \"#utility.yul\":4110:4147   */\n      mstore\n        /* \"#utility.yul\":4035:4153   */\n      pop\n      pop\n      jump\t// out\n        /* \"#utility.yul\":4159:4381   */\n    tag_13:\n        /* \"#utility.yul\":4252:4256   */\n      0x00\n        /* \"#utility.yul\":4290:4292   */\n      0x20\n        /* \"#utility.yul\":4279:4288   */\n      dup3\n        /* \"#utility.yul\":4275:4293   */\n      add\n        /* \"#utility.yul\":4267:4293   */\n      swap1\n      pop\n        /* \"#utility.yul\":4303:4374   */\n      tag_154\n        /* \"#utility.yul\":4371:4372   */\n      0x00\n        /* \"#utility.yul\":4360:4369   */\n      dup4\n        /* \"#utility.yul\":4356:4373   */\n      add\n        /* \"#utility.yul\":4347:4353   */\n      dup5\n        /* \"#utility.yul\":4303:4374   */\n      tag_95\n      jump\t// in\n    tag_154:\n        /* \"#utility.yul\":4159:4381   */\n      swap3\n      swap2\n      pop\n      pop\n      jump\t// out\n        /* \"#utility.yul\":4387:4716   */\n    tag_16:\n        /* \"#utility.yul\":4446:4452   */\n      0x00\n        /* \"#utility.yul\":4495:4497   */\n      0x20\n        /* \"#utility.yul\":4483:4492   */\n      dup3\n        /* \"#utility.yul\":4474:4481   */\n      dup5\n        /* \"#utility.yul\":4470:4493   */\n      sub\n        /* \"#utility.yul\":4466:4498   */\n      slt\n        /* \"#utility.yul\":4463:4582   */\n      iszero\n      tag_156\n      jumpi\n        /* \"#utility.yul\":4501:4580   */\n      tag_157\n      tag_80\n      jump\t// in\n    tag_157:\n        /* \"#utility.yul\":4463:4582   */\n    tag_156:\n        /* \"#utility.yul\":4621:4622   */\n      0x00\n        /* \"#utility.yul\":4646:4699   */\n      tag_158\n        /* \"#utility.yul\":4691:4698   */\n      dup5\n        /* \"#utility.yul\":4682:4688   */\n      dup3\n        /* \"#utility.yul\":4671:4680   */\n      dup6\n        /* \"#utility.yul\":4667:4689   */\n      add\n        /* \"#utility.yul\":4646:4699   */\n      tag_94\n      jump\t// in\n    tag_158:\n        /* \"#utility.yul\":4636:4699   */\n      swap2\n      pop\n        /* \"#utility.yul\":4592:4709   */\n      pop\n        /* \"#utility.yul\":4387:4716   */\n      swap3\n      swap2\n      pop\n      pop\n      jump\t// out\n        /* \"#utility.yul\":4722:4821   */\n    tag_96:\n        /* \"#utility.yul\":4774:4780   */\n      0x00\n        /* \"#utility.yul\":4808:4813   */\n      dup2\n        /* \"#utility.yul\":4802:4814   */\n      mload\n        /* \"#utility.yul\":4792:4814   */\n      swap1\n      pop\n        /* \"#utility.yul\":4722:4821   */\n      swap2\n      swap1\n      pop\n      jump\t// out\n        /* \"#utility.yul\":4827:4996   */\n    tag_97:\n        /* \"#utility.yul\":4911:4922   */\n      0x00\n        /* \"#utility.yul\":4945:4951   */\n      dup3\n        /* \"#utility.yul\":4940:4943   */\n      dup3\n        /* \"#utility.yul\":4933:4952   */\n      mstore\n        /* \"#utility.yul\":4985:4989   */\n      0x20\n        /* \"#utility.yul\":4980:4983   */\n      dup3\n        /* \"#utility.yul\":4976:4990   */\n      add\n        /* \"#utility.yul\":4961:4990   */\n      swap1\n      pop\n        /* \"#utility.yul\":4827:4996   */\n      swap3\n      swap2\n      pop\n      pop\n      jump\t// out\n        /* \"#utility.yul\":5002:5309   */\n    tag_98:\n        /* \"#utility.yul\":5070:5071   */\n      0x00\n        /* \"#utility.yul\":5080:5193   */\n    tag_162:\n        /* \"#utility.yul\":5094:5100   */\n      dup4\n        /* \"#utility.yul\":5091:5092   */\n      dup2\n        /* \"#utility.yul\":5088:5101   */\n      lt\n        /* \"#utility.yul\":5080:5193   */\n      iszero\n      tag_164\n      jumpi\n        /* \"#utility.yul\":5179:5180   */\n      dup1\n        /* \"#utility.yul\":5174:5177   */\n      dup3\n        /* \"#utility.yul\":5170:5181   */\n      add\n        /* \"#utility.yul\":5164:5182   */\n      mload\n        /* \"#utility.yul\":5160:5161   */\n      dup2\n        /* \"#utility.yul\":5155:5158   */\n      dup5\n        /* \"#utility.yul\":5151:5162   */\n      add\n        /* \"#utility.yul\":5144:5183   */\n      mstore\n        /* \"#utility.yul\":5116:5118   */\n      0x20\n        /* \"#utility.yul\":5113:5114   */\n      dup2\n        /* \"#utility.yul\":5109:5119   */\n      add\n        /* \"#utility.yul\":5104:5119   */\n      swap1\n      pop\n        /* \"#utility.yul\":5080:5193   */\n      jump(tag_162)\n    tag_164:\n        /* \"#utility.yul\":5211:5217   */\n      dup4\n        /* \"#utility.yul\":5208:5209   */\n      dup2\n        /* \"#utility.yul\":5205:5218   */\n      gt\n        /* \"#utility.yul\":5202:5303   */\n      iszero\n      tag_165\n      jumpi\n        /* \"#utility.yul\":5291:5292   */\n      0x00\n        /* \"#utility.yul\":5282:5288   */\n      dup5\n        /* \"#utility.yul\":5277:5280   */\n      dup5\n        /* \"#utility.yul\":5273:5289   */\n      add\n        /* \"#utility.yul\":5266:5293   */\n      mstore\n        /* \"#utility.yul\":5202:5303   */\n    tag_165:\n        /* \"#utility.yul\":5051:5309   */\n      pop\n        /* \"#utility.yul\":5002:5309   */\n      pop\n      pop\n      pop\n      jump\t// out\n        /* \"#utility.yul\":5315:5679   */\n    tag_99:\n        /* \"#utility.yul\":5403:5406   */\n      0x00\n        /* \"#utility.yul\":5431:5470   */\n      tag_167\n        /* \"#utility.yul\":5464:5469   */\n      dup3\n        /* \"#utility.yul\":5431:5470   */\n      tag_96\n      jump\t// in\n    tag_167:\n        /* \"#utility.yul\":5486:5557   */\n      tag_168\n        /* \"#utility.yul\":5550:5556   */\n      dup2\n        /* \"#utility.yul\":5545:5548   */\n      dup6\n        /* \"#utility.yul\":5486:5557   */\n      tag_97\n      jump\t// in\n    tag_168:\n        /* \"#utility.yul\":5479:5557   */\n      swap4\n      pop\n        /* \"#utility.yul\":5566:5618   */\n      tag_169\n        /* \"#utility.yul\":5611:5617   */\n      dup2\n        /* \"#utility.yul\":5606:5609   */\n      dup6\n        /* \"#utility.yul\":5599:5603   */\n      0x20\n        /* \"#utility.yul\":5592:5597   */\n      dup7\n        /* \"#utility.yul\":5588:5604   */\n      add\n        /* \"#utility.yul\":5566:5618   */\n      tag_98\n      jump\t// in\n    tag_169:\n        /* \"#utility.yul\":5643:5672   */\n      tag_170\n        /* \"#utility.yul\":5665:5671   */\n      dup2\n        /* \"#utility.yul\":5643:5672   */\n      tag_84\n      jump\t// in\n    tag_170:\n        /* \"#utility.yul\":5638:5641   */\n      dup5\n        /* \"#utility.yul\":5634:5673   */\n      add\n        /* \"#utility.yul\":5627:5673   */\n      swap2\n      pop\n        /* \"#utility.yul\":5407:5679   */\n      pop\n        /* \"#utility.yul\":5315:5679   */\n      swap3\n      swap2\n      pop\n      pop\n      jump\t// out\n        /* \"#utility.yul\":5685:6420   */\n    tag_19:\n        /* \"#utility.yul\":5902:5906   */\n      0x00\n        /* \"#utility.yul\":5940:5943   */\n      0x80\n        /* \"#utility.yul\":5929:5938   */\n      dup3\n        /* \"#utility.yul\":5925:5944   */\n      add\n        /* \"#utility.yul\":5917:5944   */\n      swap1\n      pop\n        /* \"#utility.yul\":5990:5999   */\n      dup2\n        /* \"#utility.yul\":5984:5988   */\n      dup2\n        /* \"#utility.yul\":5980:6000   */\n      sub\n        /* \"#utility.yul\":5976:5977   */\n      0x00\n        /* \"#utility.yul\":5965:5974   */\n      dup4\n        /* \"#utility.yul\":5961:5978   */\n      add\n        /* \"#utility.yul\":5954:6001   */\n      mstore\n        /* \"#utility.yul\":6018:6096   */\n      tag_172\n        /* \"#utility.yul\":6091:6095   */\n      dup2\n        /* \"#utility.yul\":6082:6088   */\n      dup8\n        /* \"#utility.yul\":6018:6096   */\n      tag_99\n      jump\t// in\n    tag_172:\n        /* \"#utility.yul\":6010:6096   */\n      swap1\n      pop\n        /* \"#utility.yul\":6143:6152   */\n      dup2\n        /* \"#utility.yul\":6137:6141   */\n      dup2\n        /* \"#utility.yul\":6133:6153   */\n      sub\n        /* \"#utility.yul\":6128:6130   */\n      0x20\n        /* \"#utility.yul\":6117:6126   */\n      dup4\n        /* \"#utility.yul\":6113:6131   */\n      add\n        /* \"#utility.yul\":6106:6154   */\n      mstore\n        /* \"#utility.yul\":6171:6249   */\n      tag_173\n        /* \"#utility.yul\":6244:6248   */\n      dup2\n        /* \"#utility.yul\":6235:6241   */\n      dup7\n        /* \"#utility.yul\":6171:6249   */\n      tag_99\n      jump\t// in\n    tag_173:\n        /* \"#utility.yul\":6163:6249   */\n      swap1\n      pop\n        /* \"#utility.yul\":6259:6331   */\n      tag_174\n        /* \"#utility.yul\":6327:6329   */\n      0x40\n        /* \"#utility.yul\":6316:6325   */\n      dup4\n        /* \"#utility.yul\":6312:6330   */\n      add\n        /* \"#utility.yul\":6303:6309   */\n      dup6\n        /* \"#utility.yul\":6259:6331   */\n      tag_95\n      jump\t// in\n    tag_174:\n        /* \"#utility.yul\":6341:6413   */\n      tag_175\n        /* \"#utility.yul\":6409:6411   */\n      0x60\n        /* \"#utility.yul\":6398:6407   */\n      dup4\n        /* \"#utility.yul\":6394:6412   */\n      add\n        /* \"#utility.yul\":6385:6391   */\n      dup5\n        /* \"#utility.yul\":6341:6413   */\n      tag_95\n      jump\t// in\n    tag_175:\n        /* \"#utility.yul\":5685:6420   */\n      swap6\n      swap5\n      pop\n      pop\n      pop\n      pop\n      pop\n      jump\t// out\n        /* \"#utility.yul\":6426:7697   */\n    tag_29:\n        /* \"#utility.yul\":6541:6547   */\n      0x00\n        /* \"#utility.yul\":6549:6555   */\n      dup1\n        /* \"#utility.yul\":6557:6563   */\n      0x00\n        /* \"#utility.yul\":6565:6571   */\n      dup1\n        /* \"#utility.yul\":6573:6579   */\n      0x00\n        /* \"#utility.yul\":6622:6625   */\n      0xa0\n        /* \"#utility.yul\":6610:6619   */\n      dup7\n        /* \"#utility.yul\":6601:6608   */\n      dup9\n        /* \"#utility.yul\":6597:6620   */\n      sub\n        /* \"#utility.yul\":6593:6626   */\n      slt\n        /* \"#utility.yul\":6590:6710   */\n      iszero\n      tag_177\n      jumpi\n        /* \"#utility.yul\":6629:6708   */\n      tag_178\n      tag_80\n      jump\t// in\n    tag_178:\n        /* \"#utility.yul\":6590:6710   */\n    tag_177:\n        /* \"#utility.yul\":6749:6750   */\n      0x00\n        /* \"#utility.yul\":6774:6827   */\n      tag_179\n        /* \"#utility.yul\":6819:6826   */\n      dup9\n        /* \"#utility.yul\":6810:6816   */\n      dup3\n        /* \"#utility.yul\":6799:6808   */\n      dup10\n        /* \"#utility.yul\":6795:6817   */\n      add\n        /* \"#utility.yul\":6774:6827   */\n      tag_94\n      jump\t// in\n    tag_179:\n        /* \"#utility.yul\":6764:6827   */\n      swap6\n      pop\n        /* \"#utility.yul\":6720:6837   */\n      pop\n        /* \"#utility.yul\":6904:6906   */\n      0x20\n        /* \"#utility.yul\":6893:6902   */\n      dup7\n        /* \"#utility.yul\":6889:6907   */\n      add\n        /* \"#utility.yul\":6876:6908   */\n      calldataload\n        /* \"#utility.yul\":6935:6953   */\n      0xffffffffffffffff\n        /* \"#utility.yul\":6927:6933   */\n      dup2\n        /* \"#utility.yul\":6924:6954   */\n      gt\n        /* \"#utility.yul\":6921:7038   */\n      iszero\n      tag_180\n      jumpi\n        /* \"#utility.yul\":6957:7036   */\n      tag_181\n      tag_81\n      jump\t// in\n    tag_181:\n        /* \"#utility.yul\":6921:7038   */\n    tag_180:\n        /* \"#utility.yul\":7062:7125   */\n      tag_182\n        /* \"#utility.yul\":7117:7124   */\n      dup9\n        /* \"#utility.yul\":7108:7114   */\n      dup3\n        /* \"#utility.yul\":7097:7106   */\n      dup10\n        /* \"#utility.yul\":7093:7115   */\n      add\n        /* \"#utility.yul\":7062:7125   */\n      tag_91\n      jump\t// in\n    tag_182:\n        /* \"#utility.yul\":7052:7125   */\n      swap5\n      pop\n        /* \"#utility.yul\":6847:7135   */\n      pop\n        /* \"#utility.yul\":7202:7204   */\n      0x40\n        /* \"#utility.yul\":7191:7200   */\n      dup7\n        /* \"#utility.yul\":7187:7205   */\n      add\n        /* \"#utility.yul\":7174:7206   */\n      calldataload\n        /* \"#utility.yul\":7233:7251   */\n      0xffffffffffffffff\n        /* \"#utility.yul\":7225:7231   */\n      dup2\n        /* \"#utility.yul\":7222:7252   */\n      gt\n        /* \"#utility.yul\":7219:7336   */\n      iszero\n      tag_183\n      jumpi\n        /* \"#utility.yul\":7255:7334   */\n      tag_184\n      tag_81\n      jump\t// in\n    tag_184:\n        /* \"#utility.yul\":7219:7336   */\n    tag_183:\n        /* \"#utility.yul\":7360:7423   */\n      tag_185\n        /* \"#utility.yul\":7415:7422   */\n      dup9\n        /* \"#utility.yul\":7406:7412   */\n      dup3\n        /* \"#utility.yul\":7395:7404   */\n      dup10\n        /* \"#utility.yul\":7391:7413   */\n      add\n        /* \"#utility.yul\":7360:7423   */\n      tag_91\n      jump\t// in\n    tag_185:\n        /* \"#utility.yul\":7350:7423   */\n      swap4\n      pop\n        /* \"#utility.yul\":7145:7433   */\n      pop\n        /* \"#utility.yul\":7472:7474   */\n      0x60\n        /* \"#utility.yul\":7498:7551   */\n      tag_186\n        /* \"#utility.yul\":7543:7550   */\n      dup9\n        /* \"#utility.yul\":7534:7540   */\n      dup3\n        /* \"#utility.yul\":7523:7532   */\n      dup10\n        /* \"#utility.yul\":7519:7541   */\n      add\n        /* \"#utility.yul\":7498:7551   */\n      tag_94\n      jump\t// in\n    tag_186:\n        /* \"#utility.yul\":7488:7551   */\n      swap3\n      pop\n        /* \"#utility.yul\":7443:7561   */\n      pop\n        /* \"#utility.yul\":7600:7603   */\n      0x80\n        /* \"#utility.yul\":7627:7680   */\n      tag_187\n        /* \"#utility.yul\":7672:7679   */\n      dup9\n        /* \"#utility.yul\":7663:7669   */\n      dup3\n        /* \"#utility.yul\":7652:7661   */\n      dup10\n        /* \"#utility.yul\":7648:7670   */\n      add\n        /* \"#utility.yul\":7627:7680   */\n      tag_94\n      jump\t// in\n    tag_187:\n        /* \"#utility.yul\":7617:7680   */\n      swap2\n      pop\n        /* \"#utility.yul\":7571:7690   */\n      pop\n        /* \"#utility.yul\":6426:7697   */\n      swap3\n      swap6\n      pop\n      swap3\n      swap6\n      swap1\n      swap4\n      pop\n      jump\t// out\n        /* \"#utility.yul\":7703:7883   */\n    tag_100:\n        /* \"#utility.yul\":7751:7828   */\n      0x4e487b7100000000000000000000000000000000000000000000000000000000\n        /* \"#utility.yul\":7748:7749   */\n      0x00\n        /* \"#utility.yul\":7741:7829   */\n      mstore\n        /* \"#utility.yul\":7848:7852   */\n      0x11\n        /* \"#utility.yul\":7845:7846   */\n      0x04\n        /* \"#utility.yul\":7838:7853   */\n      mstore\n        /* \"#utility.yul\":7872:7876   */\n      0x24\n        /* \"#utility.yul\":7869:7870   */\n      0x00\n        /* \"#utility.yul\":7862:7877   */\n      revert\n        /* \"#utility.yul\":7889:8122   */\n    tag_33:\n        /* \"#utility.yul\":7928:7931   */\n      0x00\n        /* \"#utility.yul\":7951:7975   */\n      tag_190\n        /* \"#utility.yul\":7969:7974   */\n      dup3\n        /* \"#utility.yul\":7951:7975   */\n      tag_92\n      jump\t// in\n    tag_190:\n        /* \"#utility.yul\":7942:7975   */\n      swap2\n      pop\n        /* \"#utility.yul\":7997:8063   */\n      0xffffffffffffffffffffffffffffffffffffffffffffffffffffffffffffffff\n        /* \"#utility.yul\":7990:7995   */\n      dup3\n        /* \"#utility.yul\":7987:8064   */\n      eq\n        /* \"#utility.yul\":7984:8087   */\n      iszero\n      tag_191\n      jumpi\n        /* \"#utility.yul\":8067:8085   */\n      tag_192\n      tag_100\n      jump\t// in\n    tag_192:\n        /* \"#utility.yul\":7984:8087   */\n    tag_191:\n        /* \"#utility.yul\":8114:8115   */\n      0x01\n        /* \"#utility.yul\":8107:8112   */\n      dup3\n        /* \"#utility.yul\":8103:8116   */\n      add\n        /* \"#utility.yul\":8096:8116   */\n      swap1\n      pop\n        /* \"#utility.yul\":7889:8122   */\n      swap2\n      swap1\n      pop\n      jump\t// out\n        /* \"#utility.yul\":8128:8308   */\n    tag_101:\n        /* \"#utility.yul\":8176:8253   */\n      0x4e487b7100000000000000000000000000000000000000000000000000000000\n        /* \"#utility.yul\":8173:8174   */\n      0x00\n        /* \"#utility.yul\":8166:8254   */\n      mstore\n        /* \"#utility.yul\":8273:8277   */\n      0x22\n        /* \"#utility.yul\":8270:8271   */\n      0x04\n        /* \"#utility.yul\":8263:8278   */\n      mstore\n        /* \"#utility.yul\":8297:8301   */\n      0x24\n        /* \"#utility.yul\":8294:8295   */\n      0x00\n        /* \"#utility.yul\":8287:8302   */\n      revert\n        /* \"#utility.yul\":8314:8634   */\n    tag_38:\n        /* \"#utility.yul\":8358:8364   */\n      0x00\n        /* \"#utility.yul\":8395:8396   */\n      0x02\n        /* \"#utility.yul\":8389:8393   */\n      dup3\n        /* \"#utility.yul\":8385:8397   */\n      div\n        /* \"#utility.yul\":8375:8397   */\n      swap1\n      pop\n        /* \"#utility.yul\":8442:8443   */\n      0x01\n        /* \"#utility.yul\":8436:8440   */\n      dup3\n        /* \"#utility.yul\":8432:8444   */\n      and\n        /* \"#utility.yul\":8463:8481   */\n      dup1\n        /* \"#utility.yul\":8453:8534   */\n      tag_195\n      jumpi\n        /* \"#utility.yul\":8519:8523   */\n      0x7f\n        /* \"#utility.yul\":8511:8517   */\n      dup3\n        /* \"#utility.yul\":8507:8524   */\n      and\n        /* \"#utility.yul\":8497:8524   */\n      swap2\n      pop\n        /* \"#utility.yul\":8453:8534   */\n    tag_195:\n        /* \"#utility.yul\":8581:8583   */\n      0x20\n        /* \"#utility.yul\":8573:8579   */\n      dup3\n        /* \"#utility.yul\":8570:8584   */\n      lt\n        /* \"#utility.yul\":8550:8568   */\n      dup2\n        /* \"#utility.yul\":8547:8585   */\n      eq\n        /* \"#utility.yul\":8544:8628   */\n      iszero\n      tag_196\n      jumpi\n        /* \"#utility.yul\":8600:8618   */\n      tag_197\n      tag_101\n      jump\t// in\n    tag_197:\n        /* \"#utility.yul\":8544:8628   */\n    tag_196:\n        /* \"#utility.yul\":8365:8634   */\n      pop\n        /* \"#utility.yul\":8314:8634   */\n      swap2\n      swap1\n      pop\n      jump\t// out\n        /* \"#utility.yul\":8640:8808   */\n    tag_102:\n        /* \"#utility.yul\":8780:8800   */\n      0x496e76616c69642070726f647563742049440000000000000000000000000000\n        /* \"#utility.yul\":8776:8777   */\n      0x00\n        /* \"#utility.yul\":8768:8774   */\n      dup3\n        /* \"#utility.yul\":8764:8778   */\n      add\n        /* \"#utility.yul\":8757:8801   */\n      mstore\n        /* \"#utility.yul\":8640:8808   */\n      pop\n      jump\t// out\n        /* \"#utility.yul\":8814:9180   */\n    tag_103:\n        /* \"#utility.yul\":8956:8959   */\n      0x00\n        /* \"#utility.yul\":8977:9044   */\n      tag_200\n        /* \"#utility.yul\":9041:9043   */\n      0x12\n        /* \"#utility.yul\":9036:9039   */\n      dup4\n        /* \"#utility.yul\":8977:9044   */\n      tag_97\n      jump\t// in\n    tag_200:\n        /* \"#utility.yul\":8970:9044   */\n      swap2\n      pop\n        /* \"#utility.yul\":9053:9146   */\n      tag_201\n        /* \"#utility.yul\":9142:9145   */\n      dup3\n        /* \"#utility.yul\":9053:9146   */\n      tag_102\n      jump\t// in\n    tag_201:\n        /* \"#utility.yul\":9171:9173   */\n      0x20\n        /* \"#utility.yul\":9166:9169   */\n      dup3\n        /* \"#utility.yul\":9162:9174   */\n      add\n        /* \"#utility.yul\":9155:9174   */\n      swap1\n      pop\n        /* \"#utility.yul\":8814:9180   */\n      swap2\n      swap1\n      pop\n      jump\t// out\n        /* \"#utility.yul\":9186:9605   */\n    tag_52:\n        /* \"#utility.yul\":9352:9356   */\n      0x00\n        /* \"#utility.yul\":9390:9392   */\n      0x20\n        /* \"#utility.yul\":9379:9388   */\n      dup3\n        /* \"#utility.yul\":9375:9393   */\n      add\n        /* \"#utility.yul\":9367:9393   */\n      swap1\n      pop\n        /* \"#utility.yul\":9439:9448   */\n      dup2\n        /* \"#utility.yul\":9433:9437   */\n      dup2\n        /* \"#utility.yul\":9429:9449   */\n      sub\n        /* \"#utility.yul\":9425:9426   */\n      0x00\n        /* \"#utility.yul\":9414:9423   */\n      dup4\n        /* \"#utility.yul\":9410:9427   */\n      add\n        /* \"#utility.yul\":9403:9450   */\n      mstore\n        /* \"#utility.yul\":9467:9598   */\n      tag_203\n        /* \"#utility.yul\":9593:9597   */\n      dup2\n        /* \"#utility.yul\":9467:9598   */\n      tag_103\n      jump\t// in\n    tag_203:\n        /* \"#utility.yul\":9459:9598   */\n      swap1\n      pop\n        /* \"#utility.yul\":9186:9605   */\n      swap2\n      swap1\n      pop\n      jump\t// out\n\n    auxdata: 0xa2646970667358221220bf7af89d81cf28f6c1d1bf9e66703a7f0efc6edd33b5ec6a49ae3b0e5a53fc8464736f6c634300080b0033\n}\n",
				"bytecode": {
					"linkReferences": {},
					"object": "608060405234801561001057600080fd5b50610bd4806100206000396000f3fe608060405234801561001057600080fd5b50600436106100575760003560e01c806301cecd141461005c5780637acc0b201461008c5780639b9d326d146100bf578063b9db15b4146100dd578063f94eb18214610110575b600080fd5b610076600480360381019061007191906107d5565b61012c565b6040516100839190610883565b60405180910390f35b6100a660048036038101906100a1919061089e565b6101d9565b6040516100b69493929190610953565b60405180910390f35b6100c7610319565b6040516100d49190610883565b60405180910390f35b6100f760048036038101906100f2919061089e565b61031f565b6040516101079493929190610953565b60405180910390f35b61012a600480360381019061012591906109a6565b6104c6565b005b60006001600081548092919061014190610a88565b9190505550604051806080016040528086815260200185815260200184815260200183815250600080600154815260200190815260200160002060008201518160000190805190602001906101979291906105a2565b5060208201518160010190805190602001906101b49291906105a2565b5060408201518160020155606082015181600301559050506001549050949350505050565b60006020528060005260406000206000915090508060000180546101fc90610b00565b80601f016020809104026020016040519081016040528092919081815260200182805461022890610b00565b80156102755780601f1061024a57610100808354040283529160200191610275565b820191906000526020600020905b81548152906001019060200180831161025857829003601f168201915b50505050509080600101805461028a90610b00565b80601f01602080910402602001604051908101604052809291908181526020018280546102b690610b00565b80156103035780601f106102d857610100808354040283529160200191610303565b820191906000526020600020905b8154815290600101906020018083116102e657829003601f168201915b5050505050908060020154908060030154905084565b60015481565b60608060008060008511801561033757506001548511155b610376576040517f08c379a000000000000000000000000000000000000000000000000000000000815260040161036d90610b7e565b60405180910390fd5b600080600087815260200190815260200160002090508060000181600101826002015483600301548380546103aa90610b00565b80601f01602080910402602001604051908101604052809291908181526020018280546103d690610b00565b80156104235780601f106103f857610100808354040283529160200191610423565b820191906000526020600020905b81548152906001019060200180831161040657829003601f168201915b5050505050935082805461043690610b00565b80601f016020809104026020016040519081016040528092919081815260200182805461046290610b00565b80156104af5780601f10610484576101008083540402835291602001916104af565b820191906000526020600020905b81548152906001019060200180831161049257829003601f168201915b505050505092509450945094509450509193509193565b6000851180156104d857506001548511155b610517576040517f08c379a000000000000000000000000000000000000000000000000000000000815260040161050e90610b7e565b60405180910390fd5b60405180608001604052808581526020018481526020018381526020018281525060008087815260200190815260200160002060008201518160000190805190602001906105669291906105a2565b5060208201518160010190805190602001906105839291906105a2565b5060408201518160020155606082015181600301559050505050505050565b8280546105ae90610b00565b90600052602060002090601f0160209004810192826105d05760008555610617565b82601f106105e957805160ff1916838001178555610617565b82800160010185558215610617579182015b828111156106165782518255916020019190600101906105fb565b5b5090506106249190610628565b5090565b5b80821115610641576000816000905550600101610629565b5090565b6000604051905090565b600080fd5b600080fd5b600080fd5b600080fd5b6000601f19601f8301169050919050565b7f4e487b7100000000000000000000000000000000000000000000000000000000600052604160045260246000fd5b6106ac82610663565b810181811067ffffffffffffffff821117156106cb576106ca610674565b5b80604052505050565b60006106de610645565b90506106ea82826106a3565b919050565b600067ffffffffffffffff82111561070a57610709610674565b5b61071382610663565b9050602081019050919050565b82818337600083830152505050565b600061074261073d846106ef565b6106d4565b90508281526020810184848401111561075e5761075d61065e565b5b610769848285610720565b509392505050565b600082601f83011261078657610785610659565b5b813561079684826020860161072f565b91505092915050565b6000819050919050565b6107b28161079f565b81146107bd57600080fd5b50565b6000813590506107cf816107a9565b92915050565b600080600080608085870312156107ef576107ee61064f565b5b600085013567ffffffffffffffff81111561080d5761080c610654565b5b61081987828801610771565b945050602085013567ffffffffffffffff81111561083a57610839610654565b5b61084687828801610771565b9350506040610857878288016107c0565b9250506060610868878288016107c0565b91505092959194509250565b61087d8161079f565b82525050565b60006020820190506108986000830184610874565b92915050565b6000602082840312156108b4576108b361064f565b5b60006108c2848285016107c0565b91505092915050565b600081519050919050565b600082825260208201905092915050565b60005b838110156109055780820151818401526020810190506108ea565b83811115610914576000848401525b50505050565b6000610925826108cb565b61092f81856108d6565b935061093f8185602086016108e7565b61094881610663565b840191505092915050565b6000608082019050818103600083015261096d818761091a565b90508181036020830152610981818661091a565b90506109906040830185610874565b61099d6060830184610874565b95945050505050565b600080600080600060a086880312156109c2576109c161064f565b5b60006109d0888289016107c0565b955050602086013567ffffffffffffffff8111156109f1576109f0610654565b5b6109fd88828901610771565b945050604086013567ffffffffffffffff811115610a1e57610a1d610654565b5b610a2a88828901610771565b9350506060610a3b888289016107c0565b9250506080610a4c888289016107c0565b9150509295509295909350565b7f4e487b7100000000000000000000000000000000000000000000000000000000600052601160045260246000fd5b6000610a938261079f565b91507fffffffffffffffffffffffffffffffffffffffffffffffffffffffffffffffff821415610ac657610ac5610a59565b5b600182019050919050565b7f4e487b7100000000000000000000000000000000000000000000000000000000600052602260045260246000fd5b60006002820490506001821680610b1857607f821691505b60208210811415610b2c57610b2b610ad1565b5b50919050565b7f496e76616c69642070726f647563742049440000000000000000000000000000600082015250565b6000610b686012836108d6565b9150610b7382610b32565b602082019050919050565b60006020820190508181036000830152610b9781610b5b565b905091905056fea2646970667358221220bf7af89d81cf28f6c1d1bf9e66703a7f0efc6edd33b5ec6a49ae3b0e5a53fc8464736f6c634300080b0033",
					"opcodes": "PUSH1 0x80 PUSH1 0x40 MSTORE CALLVALUE DUP1 ISZERO PUSH2 0x10 JUMPI PUSH1 0x0 DUP1 REVERT JUMPDEST POP PUSH2 0xBD4 DUP1 PUSH2 0x20 PUSH1 0x0 CODECOPY PUSH1 0x0 RETURN INVALID PUSH1 0x80 PUSH1 0x40 MSTORE CALLVALUE DUP1 ISZERO PUSH2 0x10 JUMPI PUSH1 0x0 DUP1 REVERT JUMPDEST POP PUSH1 0x4 CALLDATASIZE LT PUSH2 0x57 JUMPI PUSH1 0x0 CALLDATALOAD PUSH1 0xE0 SHR DUP1 PUSH4 0x1CECD14 EQ PUSH2 0x5C JUMPI DUP1 PUSH4 0x7ACC0B20 EQ PUSH2 0x8C JUMPI DUP1 PUSH4 0x9B9D326D EQ PUSH2 0xBF JUMPI DUP1 PUSH4 0xB9DB15B4 EQ PUSH2 0xDD JUMPI DUP1 PUSH4 0xF94EB182 EQ PUSH2 0x110 JUMPI JUMPDEST PUSH1 0x0 DUP1 REVERT JUMPDEST PUSH2 0x76 PUSH1 0x4 DUP1 CALLDATASIZE SUB DUP2 ADD SWAP1 PUSH2 0x71 SWAP2 SWAP1 PUSH2 0x7D5 JUMP JUMPDEST PUSH2 0x12C JUMP JUMPDEST PUSH1 0x40 MLOAD PUSH2 0x83 SWAP2 SWAP1 PUSH2 0x883 JUMP JUMPDEST PUSH1 0x40 MLOAD DUP1 SWAP2 SUB SWAP1 RETURN JUMPDEST PUSH2 0xA6 PUSH1 0x4 DUP1 CALLDATASIZE SUB DUP2 ADD SWAP1 PUSH2 0xA1 SWAP2 SWAP1 PUSH2 0x89E JUMP JUMPDEST PUSH2 0x1D9 JUMP JUMPDEST PUSH1 0x40 MLOAD PUSH2 0xB6 SWAP5 SWAP4 SWAP3 SWAP2 SWAP1 PUSH2 0x953 JUMP JUMPDEST PUSH1 0x40 MLOAD DUP1 SWAP2 SUB SWAP1 RETURN JUMPDEST PUSH2 0xC7 PUSH2 0x319 JUMP JUMPDEST PUSH1 0x40 MLOAD PUSH2 0xD4 SWAP2 SWAP1 PUSH2 0x883 JUMP JUMPDEST PUSH1 0x40 MLOAD DUP1 SWAP2 SUB SWAP1 RETURN JUMPDEST PUSH2 0xF7 PUSH1 0x4 DUP1 CALLDATASIZE SUB DUP2 ADD SWAP1 PUSH2 0xF2 SWAP2 SWAP1 PUSH2 0x89E JUMP JUMPDEST PUSH2 0x31F JUMP JUMPDEST PUSH1 0x40 MLOAD PUSH2 0x107 SWAP5 SWAP4 SWAP3 SWAP2 SWAP1 PUSH2 0x953 JUMP JUMPDEST PUSH1 0x40 MLOAD DUP1 SWAP2 SUB SWAP1 RETURN JUMPDEST PUSH2 0x12A PUSH1 0x4 DUP1 CALLDATASIZE SUB DUP2 ADD SWAP1 PUSH2 0x125 SWAP2 SWAP1 PUSH2 0x9A6 JUMP JUMPDEST PUSH2 0x4C6 JUMP JUMPDEST STOP JUMPDEST PUSH1 0x0 PUSH1 0x1 PUSH1 0x0 DUP2 SLOAD DUP1 SWAP3 SWAP2 SWAP1 PUSH2 0x141 SWAP1 PUSH2 0xA88 JUMP JUMPDEST SWAP2 SWAP1 POP SSTORE POP PUSH1 0x40 MLOAD DUP1 PUSH1 0x80 ADD PUSH1 0x40 MSTORE DUP1 DUP7 DUP2 MSTORE PUSH1 0x20 ADD DUP6 DUP2 MSTORE PUSH1 0x20 ADD DUP5 DUP2 MSTORE PUSH1 0x20 ADD DUP4 DUP2 MSTORE POP PUSH1 0x0 DUP1 PUSH1 0x1 SLOAD DUP2 MSTORE PUSH1 0x20 ADD SWAP1 DUP2 MSTORE PUSH1 0x20 ADD PUSH1 0x0 KECCAK256 PUSH1 0x0 DUP3 ADD MLOAD DUP2 PUSH1 0x0 ADD SWAP1 DUP1 MLOAD SWAP1 PUSH1 0x20 ADD SWAP1 PUSH2 0x197 SWAP3 SWAP2 SWAP1 PUSH2 0x5A2 JUMP JUMPDEST POP PUSH1 0x20 DUP3 ADD MLOAD DUP2 PUSH1 0x1 ADD SWAP1 DUP1 MLOAD SWAP1 PUSH1 0x20 ADD SWAP1 PUSH2 0x1B4 SWAP3 SWAP2 SWAP1 PUSH2 0x5A2 JUMP JUMPDEST POP PUSH1 0x40 DUP3 ADD MLOAD DUP2 PUSH1 0x2 ADD SSTORE PUSH1 0x60 DUP3 ADD MLOAD DUP2 PUSH1 0x3 ADD SSTORE SWAP1 POP POP PUSH1 0x1 SLOAD SWAP1 POP SWAP5 SWAP4 POP POP POP POP JUMP JUMPDEST PUSH1 0x0 PUSH1 0x20 MSTORE DUP1 PUSH1 0x0 MSTORE PUSH1 0x40 PUSH1 0x0 KECCAK256 PUSH1 0x0 SWAP2 POP SWAP1 POP DUP1 PUSH1 0x0 ADD DUP1 SLOAD PUSH2 0x1FC SWAP1 PUSH2 0xB00 JUMP JUMPDEST DUP1 PUSH1 0x1F ADD PUSH1 0x20 DUP1 SWAP2 DIV MUL PUSH1 0x20 ADD PUSH1 0x40 MLOAD SWAP1 DUP2 ADD PUSH1 0x40 MSTORE DUP1 SWAP3 SWAP2 SWAP1 DUP2 DUP2 MSTORE PUSH1 0x20 ADD DUP3 DUP1 SLOAD PUSH2 0x228 SWAP1 PUSH2 0xB00 JUMP JUMPDEST DUP1 ISZERO PUSH2 0x275 JUMPI DUP1 PUSH1 0x1F LT PUSH2 0x24A JUMPI PUSH2 0x100 DUP1 DUP4 SLOAD DIV MUL DUP4 MSTORE SWAP2 PUSH1 0x20 ADD SWAP2 PUSH2 0x275 JUMP JUMPDEST DUP3 ADD SWAP2 SWAP1 PUSH1 0x0 MSTORE PUSH1 0x20 PUSH1 0x0 KECCAK256 SWAP1 JUMPDEST DUP2 SLOAD DUP2 MSTORE SWAP1 PUSH1 0x1 ADD SWAP1 PUSH1 0x20 ADD DUP1 DUP4 GT PUSH2 0x258 JUMPI DUP3 SWAP1 SUB PUSH1 0x1F AND DUP3 ADD SWAP2 JUMPDEST POP POP POP POP POP SWAP1 DUP1 PUSH1 0x1 ADD DUP1 SLOAD PUSH2 0x28A SWAP1 PUSH2 0xB00 JUMP JUMPDEST DUP1 PUSH1 0x1F ADD PUSH1 0x20 DUP1 SWAP2 DIV MUL PUSH1 0x20 ADD PUSH1 0x40 MLOAD SWAP1 DUP2 ADD PUSH1 0x40 MSTORE DUP1 SWAP3 SWAP2 SWAP1 DUP2 DUP2 MSTORE PUSH1 0x20 ADD DUP3 DUP1 SLOAD PUSH2 0x2B6 SWAP1 PUSH2 0xB00 JUMP JUMPDEST DUP1 ISZERO PUSH2 0x303 JUMPI DUP1 PUSH1 0x1F LT PUSH2 0x2D8 JUMPI PUSH2 0x100 DUP1 DUP4 SLOAD DIV MUL DUP4 MSTORE SWAP2 PUSH1 0x20 ADD SWAP2 PUSH2 0x303 JUMP JUMPDEST DUP3 ADD SWAP2 SWAP1 PUSH1 0x0 MSTORE PUSH1 0x20 PUSH1 0x0 KECCAK256 SWAP1 JUMPDEST DUP2 SLOAD DUP2 MSTORE SWAP1 PUSH1 0x1 ADD SWAP1 PUSH1 0x20 ADD DUP1 DUP4 GT PUSH2 0x2E6 JUMPI DUP3 SWAP1 SUB PUSH1 0x1F AND DUP3 ADD SWAP2 JUMPDEST POP POP POP POP POP SWAP1 DUP1 PUSH1 0x2 ADD SLOAD SWAP1 DUP1 PUSH1 0x3 ADD SLOAD SWAP1 POP DUP5 JUMP JUMPDEST PUSH1 0x1 SLOAD DUP2 JUMP JUMPDEST PUSH1 0x60 DUP1 PUSH1 0x0 DUP1 PUSH1 0x0 DUP6 GT DUP1 ISZERO PUSH2 0x337 JUMPI POP PUSH1 0x1 SLOAD DUP6 GT ISZERO JUMPDEST PUSH2 0x376 JUMPI PUSH1 0x40 MLOAD PUSH32 0x8C379A000000000000000000000000000000000000000000000000000000000 DUP2 MSTORE PUSH1 0x4 ADD PUSH2 0x36D SWAP1 PUSH2 0xB7E JUMP JUMPDEST PUSH1 0x40 MLOAD DUP1 SWAP2 SUB SWAP1 REVERT JUMPDEST PUSH1 0x0 DUP1 PUSH1 0x0 DUP8 DUP2 MSTORE PUSH1 0x20 ADD SWAP1 DUP2 MSTORE PUSH1 0x20 ADD PUSH1 0x0 KECCAK256 SWAP1 POP DUP1 PUSH1 0x0 ADD DUP2 PUSH1 0x1 ADD DUP3 PUSH1 0x2 ADD SLOAD DUP4 PUSH1 0x3 ADD SLOAD DUP4 DUP1 SLOAD PUSH2 0x3AA SWAP1 PUSH2 0xB00 JUMP JUMPDEST DUP1 PUSH1 0x1F ADD PUSH1 0x20 DUP1 SWAP2 DIV MUL PUSH1 0x20 ADD PUSH1 0x40 MLOAD SWAP1 DUP2 ADD PUSH1 0x40 MSTORE DUP1 SWAP3 SWAP2 SWAP1 DUP2 DUP2 MSTORE PUSH1 0x20 ADD DUP3 DUP1 SLOAD PUSH2 0x3D6 SWAP1 PUSH2 0xB00 JUMP JUMPDEST DUP1 ISZERO PUSH2 0x423 JUMPI DUP1 PUSH1 0x1F LT PUSH2 0x3F8 JUMPI PUSH2 0x100 DUP1 DUP4 SLOAD DIV MUL DUP4 MSTORE SWAP2 PUSH1 0x20 ADD SWAP2 PUSH2 0x423 JUMP JUMPDEST DUP3 ADD SWAP2 SWAP1 PUSH1 0x0 MSTORE PUSH1 0x20 PUSH1 0x0 KECCAK256 SWAP1 JUMPDEST DUP2 SLOAD DUP2 MSTORE SWAP1 PUSH1 0x1 ADD SWAP1 PUSH1 0x20 ADD DUP1 DUP4 GT PUSH2 0x406 JUMPI DUP3 SWAP1 SUB PUSH1 0x1F AND DUP3 ADD SWAP2 JUMPDEST POP POP POP POP POP SWAP4 POP DUP3 DUP1 SLOAD PUSH2 0x436 SWAP1 PUSH2 0xB00 JUMP JUMPDEST DUP1 PUSH1 0x1F ADD PUSH1 0x20 DUP1 SWAP2 DIV MUL PUSH1 0x20 ADD PUSH1 0x40 MLOAD SWAP1 DUP2 ADD PUSH1 0x40 MSTORE DUP1 SWAP3 SWAP2 SWAP1 DUP2 DUP2 MSTORE PUSH1 0x20 ADD DUP3 DUP1 SLOAD PUSH2 0x462 SWAP1 PUSH2 0xB00 JUMP JUMPDEST DUP1 ISZERO PUSH2 0x4AF JUMPI DUP1 PUSH1 0x1F LT PUSH2 0x484 JUMPI PUSH2 0x100 DUP1 DUP4 SLOAD DIV MUL DUP4 MSTORE SWAP2 PUSH1 0x20 ADD SWAP2 PUSH2 0x4AF JUMP JUMPDEST DUP3 ADD SWAP2 SWAP1 PUSH1 0x0 MSTORE PUSH1 0x20 PUSH1 0x0 KECCAK256 SWAP1 JUMPDEST DUP2 SLOAD DUP2 MSTORE SWAP1 PUSH1 0x1 ADD SWAP1 PUSH1 0x20 ADD DUP1 DUP4 GT PUSH2 0x492 JUMPI DUP3 SWAP1 SUB PUSH1 0x1F AND DUP3 ADD SWAP2 JUMPDEST POP POP POP POP POP SWAP3 POP SWAP5 POP SWAP5 POP SWAP5 POP SWAP5 POP POP SWAP2 SWAP4 POP SWAP2 SWAP4 JUMP JUMPDEST PUSH1 0x0 DUP6 GT DUP1 ISZERO PUSH2 0x4D8 JUMPI POP PUSH1 0x1 SLOAD DUP6 GT ISZERO JUMPDEST PUSH2 0x517 JUMPI PUSH1 0x40 MLOAD PUSH32 0x8C379A000000000000000000000000000000000000000000000000000000000 DUP2 MSTORE PUSH1 0x4 ADD PUSH2 0x50E SWAP1 PUSH2 0xB7E JUMP JUMPDEST PUSH1 0x40 MLOAD DUP1 SWAP2 SUB SWAP1 REVERT JUMPDEST PUSH1 0x40 MLOAD DUP1 PUSH1 0x80 ADD PUSH1 0x40 MSTORE DUP1 DUP6 DUP2 MSTORE PUSH1 0x20 ADD DUP5 DUP2 MSTORE PUSH1 0x20 ADD DUP4 DUP2 MSTORE PUSH1 0x20 ADD DUP3 DUP2 MSTORE POP PUSH1 0x0 DUP1 DUP8 DUP2 MSTORE PUSH1 0x20 ADD SWAP1 DUP2 MSTORE PUSH1 0x20 ADD PUSH1 0x0 KECCAK256 PUSH1 0x0 DUP3 ADD MLOAD DUP2 PUSH1 0x0 ADD SWAP1 DUP1 MLOAD SWAP1 PUSH1 0x20 ADD SWAP1 PUSH2 0x566 SWAP3 SWAP2 SWAP1 PUSH2 0x5A2 JUMP JUMPDEST POP PUSH1 0x20 DUP3 ADD MLOAD DUP2 PUSH1 0x1 ADD SWAP1 DUP1 MLOAD SWAP1 PUSH1 0x20 ADD SWAP1 PUSH2 0x583 SWAP3 SWAP2 SWAP1 PUSH2 0x5A2 JUMP JUMPDEST POP PUSH1 0x40 DUP3 ADD MLOAD DUP2 PUSH1 0x2 ADD SSTORE PUSH1 0x60 DUP3 ADD MLOAD DUP2 PUSH1 0x3 ADD SSTORE SWAP1 POP POP POP POP POP POP POP JUMP JUMPDEST DUP3 DUP1 SLOAD PUSH2 0x5AE SWAP1 PUSH2 0xB00 JUMP JUMPDEST SWAP1 PUSH1 0x0 MSTORE PUSH1 0x20 PUSH1 0x0 KECCAK256 SWAP1 PUSH1 0x1F ADD PUSH1 0x20 SWAP1 DIV DUP2 ADD SWAP3 DUP3 PUSH2 0x5D0 JUMPI PUSH1 0x0 DUP6 SSTORE PUSH2 0x617 JUMP JUMPDEST DUP3 PUSH1 0x1F LT PUSH2 0x5E9 JUMPI DUP1 MLOAD PUSH1 0xFF NOT AND DUP4 DUP1 ADD OR DUP6 SSTORE PUSH2 0x617 JUMP JUMPDEST DUP3 DUP1 ADD PUSH1 0x1 ADD DUP6 SSTORE DUP3 ISZERO PUSH2 0x617 JUMPI SWAP2 DUP3 ADD JUMPDEST DUP3 DUP2 GT ISZERO PUSH2 0x616 JUMPI DUP3 MLOAD DUP3 SSTORE SWAP2 PUSH1 0x20 ADD SWAP2 SWAP1 PUSH1 0x1 ADD SWAP1 PUSH2 0x5FB JUMP JUMPDEST JUMPDEST POP SWAP1 POP PUSH2 0x624 SWAP2 SWAP1 PUSH2 0x628 JUMP JUMPDEST POP SWAP1 JUMP JUMPDEST JUMPDEST DUP1 DUP3 GT ISZERO PUSH2 0x641 JUMPI PUSH1 0x0 DUP2 PUSH1 0x0 SWAP1 SSTORE POP PUSH1 0x1 ADD PUSH2 0x629 JUMP JUMPDEST POP SWAP1 JUMP JUMPDEST PUSH1 0x0 PUSH1 0x40 MLOAD SWAP1 POP SWAP1 JUMP JUMPDEST PUSH1 0x0 DUP1 REVERT JUMPDEST PUSH1 0x0 DUP1 REVERT JUMPDEST PUSH1 0x0 DUP1 REVERT JUMPDEST PUSH1 0x0 DUP1 REVERT JUMPDEST PUSH1 0x0 PUSH1 0x1F NOT PUSH1 0x1F DUP4 ADD AND SWAP1 POP SWAP2 SWAP1 POP JUMP JUMPDEST PUSH32 0x4E487B7100000000000000000000000000000000000000000000000000000000 PUSH1 0x0 MSTORE PUSH1 0x41 PUSH1 0x4 MSTORE PUSH1 0x24 PUSH1 0x0 REVERT JUMPDEST PUSH2 0x6AC DUP3 PUSH2 0x663 JUMP JUMPDEST DUP2 ADD DUP2 DUP2 LT PUSH8 0xFFFFFFFFFFFFFFFF DUP3 GT OR ISZERO PUSH2 0x6CB JUMPI PUSH2 0x6CA PUSH2 0x674 JUMP JUMPDEST JUMPDEST DUP1 PUSH1 0x40 MSTORE POP POP POP JUMP JUMPDEST PUSH1 0x0 PUSH2 0x6DE PUSH2 0x645 JUMP JUMPDEST SWAP1 POP PUSH2 0x6EA DUP3 DUP3 PUSH2 0x6A3 JUMP JUMPDEST SWAP2 SWAP1 POP JUMP JUMPDEST PUSH1 0x0 PUSH8 0xFFFFFFFFFFFFFFFF DUP3 GT ISZERO PUSH2 0x70A JUMPI PUSH2 0x709 PUSH2 0x674 JUMP JUMPDEST JUMPDEST PUSH2 0x713 DUP3 PUSH2 0x663 JUMP JUMPDEST SWAP1 POP PUSH1 0x20 DUP2 ADD SWAP1 POP SWAP2 SWAP1 POP JUMP JUMPDEST DUP3 DUP2 DUP4 CALLDATACOPY PUSH1 0x0 DUP4 DUP4 ADD MSTORE POP POP POP JUMP JUMPDEST PUSH1 0x0 PUSH2 0x742 PUSH2 0x73D DUP5 PUSH2 0x6EF JUMP JUMPDEST PUSH2 0x6D4 JUMP JUMPDEST SWAP1 POP DUP3 DUP2 MSTORE PUSH1 0x20 DUP2 ADD DUP5 DUP5 DUP5 ADD GT ISZERO PUSH2 0x75E JUMPI PUSH2 0x75D PUSH2 0x65E JUMP JUMPDEST JUMPDEST PUSH2 0x769 DUP5 DUP3 DUP6 PUSH2 0x720 JUMP JUMPDEST POP SWAP4 SWAP3 POP POP POP JUMP JUMPDEST PUSH1 0x0 DUP3 PUSH1 0x1F DUP4 ADD SLT PUSH2 0x786 JUMPI PUSH2 0x785 PUSH2 0x659 JUMP JUMPDEST JUMPDEST DUP2 CALLDATALOAD PUSH2 0x796 DUP5 DUP3 PUSH1 0x20 DUP7 ADD PUSH2 0x72F JUMP JUMPDEST SWAP2 POP POP SWAP3 SWAP2 POP POP JUMP JUMPDEST PUSH1 0x0 DUP2 SWAP1 POP SWAP2 SWAP1 POP JUMP JUMPDEST PUSH2 0x7B2 DUP2 PUSH2 0x79F JUMP JUMPDEST DUP2 EQ PUSH2 0x7BD JUMPI PUSH1 0x0 DUP1 REVERT JUMPDEST POP JUMP JUMPDEST PUSH1 0x0 DUP2 CALLDATALOAD SWAP1 POP PUSH2 0x7CF DUP2 PUSH2 0x7A9 JUMP JUMPDEST SWAP3 SWAP2 POP POP JUMP JUMPDEST PUSH1 0x0 DUP1 PUSH1 0x0 DUP1 PUSH1 0x80 DUP6 DUP8 SUB SLT ISZERO PUSH2 0x7EF JUMPI PUSH2 0x7EE PUSH2 0x64F JUMP JUMPDEST JUMPDEST PUSH1 0x0 DUP6 ADD CALLDATALOAD PUSH8 0xFFFFFFFFFFFFFFFF DUP2 GT ISZERO PUSH2 0x80D JUMPI PUSH2 0x80C PUSH2 0x654 JUMP JUMPDEST JUMPDEST PUSH2 0x819 DUP8 DUP3 DUP9 ADD PUSH2 0x771 JUMP JUMPDEST SWAP5 POP POP PUSH1 0x20 DUP6 ADD CALLDATALOAD PUSH8 0xFFFFFFFFFFFFFFFF DUP2 GT ISZERO PUSH2 0x83A JUMPI PUSH2 0x839 PUSH2 0x654 JUMP JUMPDEST JUMPDEST PUSH2 0x846 DUP8 DUP3 DUP9 ADD PUSH2 0x771 JUMP JUMPDEST SWAP4 POP POP PUSH1 0x40 PUSH2 0x857 DUP8 DUP3 DUP9 ADD PUSH2 0x7C0 JUMP JUMPDEST SWAP3 POP POP PUSH1 0x60 PUSH2 0x868 DUP8 DUP3 DUP9 ADD PUSH2 0x7C0 JUMP JUMPDEST SWAP2 POP POP SWAP3 SWAP6 SWAP2 SWAP5 POP SWAP3 POP JUMP JUMPDEST PUSH2 0x87D DUP2 PUSH2 0x79F JUMP JUMPDEST DUP3 MSTORE POP POP JUMP JUMPDEST PUSH1 0x0 PUSH1 0x20 DUP3 ADD SWAP1 POP PUSH2 0x898 PUSH1 0x0 DUP4 ADD DUP5 PUSH2 0x874 JUMP JUMPDEST SWAP3 SWAP2 POP POP JUMP JUMPDEST PUSH1 0x0 PUSH1 0x20 DUP3 DUP5 SUB SLT ISZERO PUSH2 0x8B4 JUMPI PUSH2 0x8B3 PUSH2 0x64F JUMP JUMPDEST JUMPDEST PUSH1 0x0 PUSH2 0x8C2 DUP5 DUP3 DUP6 ADD PUSH2 0x7C0 JUMP JUMPDEST SWAP2 POP POP SWAP3 SWAP2 POP POP JUMP JUMPDEST PUSH1 0x0 DUP2 MLOAD SWAP1 POP SWAP2 SWAP1 POP JUMP JUMPDEST PUSH1 0x0 DUP3 DUP3 MSTORE PUSH1 0x20 DUP3 ADD SWAP1 POP SWAP3 SWAP2 POP POP JUMP JUMPDEST PUSH1 0x0 JUMPDEST DUP4 DUP2 LT ISZERO PUSH2 0x905 JUMPI DUP1 DUP3 ADD MLOAD DUP2 DUP5 ADD MSTORE PUSH1 0x20 DUP2 ADD SWAP1 POP PUSH2 0x8EA JUMP JUMPDEST DUP4 DUP2 GT ISZERO PUSH2 0x914 JUMPI PUSH1 0x0 DUP5 DUP5 ADD MSTORE JUMPDEST POP POP POP POP JUMP JUMPDEST PUSH1 0x0 PUSH2 0x925 DUP3 PUSH2 0x8CB JUMP JUMPDEST PUSH2 0x92F DUP2 DUP6 PUSH2 0x8D6 JUMP JUMPDEST SWAP4 POP PUSH2 0x93F DUP2 DUP6 PUSH1 0x20 DUP7 ADD PUSH2 0x8E7 JUMP JUMPDEST PUSH2 0x948 DUP2 PUSH2 0x663 JUMP JUMPDEST DUP5 ADD SWAP2 POP POP SWAP3 SWAP2 POP POP JUMP JUMPDEST PUSH1 0x0 PUSH1 0x80 DUP3 ADD SWAP1 POP DUP2 DUP2 SUB PUSH1 0x0 DUP4 ADD MSTORE PUSH2 0x96D DUP2 DUP8 PUSH2 0x91A JUMP JUMPDEST SWAP1 POP DUP2 DUP2 SUB PUSH1 0x20 DUP4 ADD MSTORE PUSH2 0x981 DUP2 DUP7 PUSH2 0x91A JUMP JUMPDEST SWAP1 POP PUSH2 0x990 PUSH1 0x40 DUP4 ADD DUP6 PUSH2 0x874 JUMP JUMPDEST PUSH2 0x99D PUSH1 0x60 DUP4 ADD DUP5 PUSH2 0x874 JUMP JUMPDEST SWAP6 SWAP5 POP POP POP POP POP JUMP JUMPDEST PUSH1 0x0 DUP1 PUSH1 0x0 DUP1 PUSH1 0x0 PUSH1 0xA0 DUP7 DUP9 SUB SLT ISZERO PUSH2 0x9C2 JUMPI PUSH2 0x9C1 PUSH2 0x64F JUMP JUMPDEST JUMPDEST PUSH1 0x0 PUSH2 0x9D0 DUP9 DUP3 DUP10 ADD PUSH2 0x7C0 JUMP JUMPDEST SWAP6 POP POP PUSH1 0x20 DUP7 ADD CALLDATALOAD PUSH8 0xFFFFFFFFFFFFFFFF DUP2 GT ISZERO PUSH2 0x9F1 JUMPI PUSH2 0x9F0 PUSH2 0x654 JUMP JUMPDEST JUMPDEST PUSH2 0x9FD DUP9 DUP3 DUP10 ADD PUSH2 0x771 JUMP JUMPDEST SWAP5 POP POP PUSH1 0x40 DUP7 ADD CALLDATALOAD PUSH8 0xFFFFFFFFFFFFFFFF DUP2 GT ISZERO PUSH2 0xA1E JUMPI PUSH2 0xA1D PUSH2 0x654 JUMP JUMPDEST JUMPDEST PUSH2 0xA2A DUP9 DUP3 DUP10 ADD PUSH2 0x771 JUMP JUMPDEST SWAP4 POP POP PUSH1 0x60 PUSH2 0xA3B DUP9 DUP3 DUP10 ADD PUSH2 0x7C0 JUMP JUMPDEST SWAP3 POP POP PUSH1 0x80 PUSH2 0xA4C DUP9 DUP3 DUP10 ADD PUSH2 0x7C0 JUMP JUMPDEST SWAP2 POP POP SWAP3 SWAP6 POP SWAP3 SWAP6 SWAP1 SWAP4 POP JUMP JUMPDEST PUSH32 0x4E487B7100000000000000000000000000000000000000000000000000000000 PUSH1 0x0 MSTORE PUSH1 0x11 PUSH1 0x4 MSTORE PUSH1 0x24 PUSH1 0x0 REVERT JUMPDEST PUSH1 0x0 PUSH2 0xA93 DUP3 PUSH2 0x79F JUMP JUMPDEST SWAP2 POP PUSH32 0xFFFFFFFFFFFFFFFFFFFFFFFFFFFFFFFFFFFFFFFFFFFFFFFFFFFFFFFFFFFFFFFF DUP3 EQ ISZERO PUSH2 0xAC6 JUMPI PUSH2 0xAC5 PUSH2 0xA59 JUMP JUMPDEST JUMPDEST PUSH1 0x1 DUP3 ADD SWAP1 POP SWAP2 SWAP1 POP JUMP JUMPDEST PUSH32 0x4E487B7100000000000000000000000000000000000000000000000000000000 PUSH1 0x0 MSTORE PUSH1 0x22 PUSH1 0x4 MSTORE PUSH1 0x24 PUSH1 0x0 REVERT JUMPDEST PUSH1 0x0 PUSH1 0x2 DUP3 DIV SWAP1 POP PUSH1 0x1 DUP3 AND DUP1 PUSH2 0xB18 JUMPI PUSH1 0x7F DUP3 AND SWAP2 POP JUMPDEST PUSH1 0x20 DUP3 LT DUP2 EQ ISZERO PUSH2 0xB2C JUMPI PUSH2 0xB2B PUSH2 0xAD1 JUMP JUMPDEST JUMPDEST POP SWAP2 SWAP1 POP JUMP JUMPDEST PUSH32 0x496E76616C69642070726F647563742049440000000000000000000000000000 PUSH1 0x0 DUP3 ADD MSTORE POP JUMP JUMPDEST PUSH1 0x0 PUSH2 0xB68 PUSH1 0x12 DUP4 PUSH2 0x8D6 JUMP JUMPDEST SWAP2 POP PUSH2 0xB73 DUP3 PUSH2 0xB32 JUMP JUMPDEST PUSH1 0x20 DUP3 ADD SWAP1 POP SWAP2 SWAP1 POP JUMP JUMPDEST PUSH1 0x0 PUSH1 0x20 DUP3 ADD SWAP1 POP DUP2 DUP2 SUB PUSH1 0x0 DUP4 ADD MSTORE PUSH2 0xB97 DUP2 PUSH2 0xB5B JUMP JUMPDEST SWAP1 POP SWAP2 SWAP1 POP JUMP INVALID LOG2 PUSH5 0x6970667358 0x22 SLT KECCAK256 0xBF PUSH27 0xF89D81CF28F6C1D1BF9E66703A7F0EFC6EDD33B5EC6A49AE3B0E5A MSTORE8 0xFC DUP5 PUSH5 0x736F6C6343 STOP ADDMOD SIGNEXTEND STOP CALLER "
				},
				"gasEstimates": {
					"creation": {
						"codeDepositCost": "605600",
						"executionCost": "638",
						"totalCost": "606238"
					},
					"external": {
						"addProduct(string,string,uint256,uint256)": "infinite",
						"getProduct(uint256)": "infinite",
						"products(uint256)": "infinite",
						"totalProducts()": "2451",
						"updateProduct(uint256,string,string,uint256,uint256)": "infinite"
					}
				},
				"methodIdentifiers": {
					"addProduct(string,string,uint256,uint256)": "01cecd14",
					"getProduct(uint256)": "b9db15b4",
					"products(uint256)": "7acc0b20",
					"totalProducts()": "9b9d326d",
					"updateProduct(uint256,string,string,uint256,uint256)": "f94eb182"
				}
			},
			"storageLayout": {
				"storage": [
					{
						"astId": 15,
						"contract": "Querying Agriculture Data Project 14/Agriculture Data.sol:AgricultureData",
						"label": "products",
						"offset": 0,
						"slot": "0",
						"type": "t_mapping(t_uint256,t_struct(Product)10_storage)"
					},
					{
						"astId": 17,
						"contract": "Querying Agriculture Data Project 14/Agriculture Data.sol:AgricultureData",
						"label": "totalProducts",
						"offset": 0,
						"slot": "1",
						"type": "t_uint256"
					}
				],
				"types": {
					"t_mapping(t_uint256,t_struct(Product)10_storage)": {
						"encoding": "mapping",
						"key": "t_uint256",
						"label": "mapping(uint256 => struct AgricultureData.Product)",
						"numberOfBytes": "32",
						"value": "t_struct(Product)10_storage"
					},
					"t_string_storage": {
						"encoding": "bytes",
						"label": "string",
						"numberOfBytes": "32"
					},
					"t_struct(Product)10_storage": {
						"encoding": "inplace",
						"label": "struct AgricultureData.Product",
						"members": [
							{
								"astId": 3,
								"contract": "Querying Agriculture Data Project 14/Agriculture Data.sol:AgricultureData",
								"label": "name",
								"offset": 0,
								"slot": "0",
								"type": "t_string_storage"
							},
							{
								"astId": 5,
								"contract": "Querying Agriculture Data Project 14/Agriculture Data.sol:AgricultureData",
								"label": "origin",
								"offset": 0,
								"slot": "1",
								"type": "t_string_storage"
							},
							{
								"astId": 7,
								"contract": "Querying Agriculture Data Project 14/Agriculture Data.sol:AgricultureData",
								"label": "quantity",
								"offset": 0,
								"slot": "2",
								"type": "t_uint256"
							},
							{
								"astId": 9,
								"contract": "Querying Agriculture Data Project 14/Agriculture Data.sol:AgricultureData",
								"label": "price",
								"offset": 0,
								"slot": "3",
								"type": "t_uint256"
							}
						],
						"numberOfBytes": "128"
					},
					"t_uint256": {
						"encoding": "inplace",
						"label": "uint256",
						"numberOfBytes": "32"
					}
				}
			},
			"userdoc": {
				"kind": "user",
				"methods": {},
				"version": 1
			}
		}
	}
}