{
	"Toll Free Data Project 16/Toll Free.sol": {
		"TollFree": {
			"abi": [
				{
					"inputs": [
						{
							"internalType": "string",
							"name": "_location",
							"type": "string"
						},
						{
							"internalType": "uint256",
							"name": "_amount",
							"type": "uint256"
						}
					],
					"name": "addToll",
					"outputs": [],
					"stateMutability": "nonpayable",
					"type": "function"
				},
				{
					"inputs": [
						{
							"internalType": "address",
							"name": "_owner",
							"type": "address"
						}
					],
					"name": "getTolls",
					"outputs": [
						{
							"components": [
								{
									"internalType": "uint256",
									"name": "timestamp",
									"type": "uint256"
								},
								{
									"internalType": "string",
									"name": "location",
									"type": "string"
								},
								{
									"internalType": "uint256",
									"name": "amount",
									"type": "uint256"
								}
							],
							"internalType": "struct TollFree.Toll[]",
							"name": "",
							"type": "tuple[]"
						}
					],
					"stateMutability": "view",
					"type": "function"
				},
				{
					"inputs": [
						{
							"internalType": "address",
							"name": "",
							"type": "address"
						},
						{
							"internalType": "uint256",
							"name": "",
							"type": "uint256"
						}
					],
					"name": "tolls",
					"outputs": [
						{
							"internalType": "uint256",
							"name": "timestamp",
							"type": "uint256"
						},
						{
							"internalType": "string",
							"name": "location",
							"type": "string"
						},
						{
							"internalType": "uint256",
							"name": "amount",
							"type": "uint256"
						}
					],
					"stateMutability": "view",
					"type": "function"
				},
				{
					"inputs": [
						{
							"internalType": "uint256",
							"name": "_index",
							"type": "uint256"
						},
						{
							"internalType": "string",
							"name": "_location",
							"type": "string"
						},
						{
							"internalType": "uint256",
							"name": "_amount",
							"type": "uint256"
						}
					],
					"name": "updateToll",
					"outputs": [],
					"stateMutability": "nonpayable",
					"type": "function"
				}
			],
			"devdoc": {
				"kind": "dev",
				"methods": {},
				"version": 1
			},
			"evm": {
				"assembly": "    /* \"Toll Free Data Project 16/Toll Free.sol\":60:971  contract TollFree {... */\n  mstore(0x40, 0x80)\n  callvalue\n  dup1\n  iszero\n  tag_1\n  jumpi\n  0x00\n  dup1\n  revert\ntag_1:\n  pop\n  dataSize(sub_0)\n  dup1\n  dataOffset(sub_0)\n  0x00\n  codecopy\n  0x00\n  return\nstop\n\nsub_0: assembly {\n        /* \"Toll Free Data Project 16/Toll Free.sol\":60:971  contract TollFree {... */\n      mstore(0x40, 0x80)\n      callvalue\n      dup1\n      iszero\n      tag_1\n      jumpi\n      0x00\n      dup1\n      revert\n    tag_1:\n      pop\n      jumpi(tag_2, lt(calldatasize, 0x04))\n      shr(0xe0, calldataload(0x00))\n      dup1\n      0x0d005e61\n      eq\n      tag_3\n      jumpi\n      dup1\n      0x67dcc595\n      eq\n      tag_4\n      jumpi\n      dup1\n      0x7dceca2d\n      eq\n      tag_5\n      jumpi\n      dup1\n      0xb4c7d135\n      eq\n      tag_6\n      jumpi\n    tag_2:\n      0x00\n      dup1\n      revert\n        /* \"Toll Free Data Project 16/Toll Free.sol\":196:235  mapping(address => Toll[]) public tolls */\n    tag_3:\n      tag_7\n      0x04\n      dup1\n      calldatasize\n      sub\n      dup2\n      add\n      swap1\n      tag_8\n      swap2\n      swap1\n      tag_9\n      jump\t// in\n    tag_8:\n      tag_10\n      jump\t// in\n    tag_7:\n      mload(0x40)\n      tag_11\n      swap4\n      swap3\n      swap2\n      swap1\n      tag_12\n      jump\t// in\n    tag_11:\n      mload(0x40)\n      dup1\n      swap2\n      sub\n      swap1\n      return\n        /* \"Toll Free Data Project 16/Toll Free.sol\":248:519  function addToll(string memory _location, uint256 _amount) public {... */\n    tag_4:\n      tag_13\n      0x04\n      dup1\n      calldatasize\n      sub\n      dup2\n      add\n      swap1\n      tag_14\n      swap2\n      swap1\n      tag_15\n      jump\t// in\n    tag_14:\n      tag_16\n      jump\t// in\n    tag_13:\n      stop\n        /* \"Toll Free Data Project 16/Toll Free.sol\":652:968  function updateToll(uint256 _index, string memory _location, uint256 _amount) public {... */\n    tag_5:\n      tag_17\n      0x04\n      dup1\n      calldatasize\n      sub\n      dup2\n      add\n      swap1\n      tag_18\n      swap2\n      swap1\n      tag_19\n      jump\t// in\n    tag_18:\n      tag_20\n      jump\t// in\n    tag_17:\n      stop\n        /* \"Toll Free Data Project 16/Toll Free.sol\":531:640  function getTolls(address _owner) public view returns (Toll[] memory) {... */\n    tag_6:\n      tag_21\n      0x04\n      dup1\n      calldatasize\n      sub\n      dup2\n      add\n      swap1\n      tag_22\n      swap2\n      swap1\n      tag_23\n      jump\t// in\n    tag_22:\n      tag_24\n      jump\t// in\n    tag_21:\n      mload(0x40)\n      tag_25\n      swap2\n      swap1\n      tag_26\n      jump\t// in\n    tag_25:\n      mload(0x40)\n      dup1\n      swap2\n      sub\n      swap1\n      return\n        /* \"Toll Free Data Project 16/Toll Free.sol\":196:235  mapping(address => Toll[]) public tolls */\n    tag_10:\n      mstore(0x20, 0x00)\n      dup2\n      0x00\n      mstore\n      keccak256(0x00, 0x40)\n      dup2\n      dup2\n      sload\n      dup2\n      lt\n      tag_27\n      jumpi\n      0x00\n      dup1\n      revert\n    tag_27:\n      swap1\n      0x00\n      mstore\n      keccak256(0x00, 0x20)\n      swap1\n      0x03\n      mul\n      add\n      0x00\n      swap2\n      pop\n      swap2\n      pop\n      pop\n      dup1\n      0x00\n      add\n      sload\n      swap1\n      dup1\n      0x01\n      add\n      dup1\n      sload\n      tag_29\n      swap1\n      tag_30\n      jump\t// in\n    tag_29:\n      dup1\n      0x1f\n      add\n      0x20\n      dup1\n      swap2\n      div\n      mul\n      0x20\n      add\n      mload(0x40)\n      swap1\n      dup2\n      add\n      0x40\n      mstore\n      dup1\n      swap3\n      swap2\n      swap1\n      dup2\n      dup2\n      mstore\n      0x20\n      add\n      dup3\n      dup1\n      sload\n      tag_31\n      swap1\n      tag_30\n      jump\t// in\n    tag_31:\n      dup1\n      iszero\n      tag_32\n      jumpi\n      dup1\n      0x1f\n      lt\n      tag_33\n      jumpi\n      0x0100\n      dup1\n      dup4\n      sload\n      div\n      mul\n      dup4\n      mstore\n      swap2\n      0x20\n      add\n      swap2\n      jump(tag_32)\n    tag_33:\n      dup3\n      add\n      swap2\n      swap1\n      0x00\n      mstore\n      keccak256(0x00, 0x20)\n      swap1\n    tag_34:\n      dup2\n      sload\n      dup2\n      mstore\n      swap1\n      0x01\n      add\n      swap1\n      0x20\n      add\n      dup1\n      dup4\n      gt\n      tag_34\n      jumpi\n      dup3\n      swap1\n      sub\n      0x1f\n      and\n      dup3\n      add\n      swap2\n    tag_32:\n      pop\n      pop\n      pop\n      pop\n      pop\n      swap1\n      dup1\n      0x02\n      add\n      sload\n      swap1\n      pop\n      dup4\n      jump\t// out\n        /* \"Toll Free Data Project 16/Toll Free.sol\":248:519  function addToll(string memory _location, uint256 _amount) public {... */\n    tag_16:\n        /* \"Toll Free Data Project 16/Toll Free.sol\":325:344  Toll memory newToll */\n      0x00\n        /* \"Toll Free Data Project 16/Toll Free.sol\":347:469  Toll({... */\n      mload(0x40)\n      dup1\n      0x60\n      add\n      0x40\n      mstore\n      dup1\n        /* \"Toll Free Data Project 16/Toll Free.sol\":378:393  block.timestamp */\n      timestamp\n        /* \"Toll Free Data Project 16/Toll Free.sol\":347:469  Toll({... */\n      dup2\n      mstore\n      0x20\n      add\n        /* \"Toll Free Data Project 16/Toll Free.sol\":418:427  _location */\n      dup5\n        /* \"Toll Free Data Project 16/Toll Free.sol\":347:469  Toll({... */\n      dup2\n      mstore\n      0x20\n      add\n        /* \"Toll Free Data Project 16/Toll Free.sol\":450:457  _amount */\n      dup4\n        /* \"Toll Free Data Project 16/Toll Free.sol\":347:469  Toll({... */\n      dup2\n      mstore\n      pop\n        /* \"Toll Free Data Project 16/Toll Free.sol\":325:469  Toll memory newToll = Toll({... */\n      swap1\n      pop\n        /* \"Toll Free Data Project 16/Toll Free.sol\":480:485  tolls */\n      0x00\n        /* \"Toll Free Data Project 16/Toll Free.sol\":480:497  tolls[msg.sender] */\n      dup1\n        /* \"Toll Free Data Project 16/Toll Free.sol\":486:496  msg.sender */\n      caller\n        /* \"Toll Free Data Project 16/Toll Free.sol\":480:497  tolls[msg.sender] */\n      0xffffffffffffffffffffffffffffffffffffffff\n      and\n      0xffffffffffffffffffffffffffffffffffffffff\n      and\n      dup2\n      mstore\n      0x20\n      add\n      swap1\n      dup2\n      mstore\n      0x20\n      add\n      0x00\n      keccak256\n        /* \"Toll Free Data Project 16/Toll Free.sol\":503:510  newToll */\n      dup2\n        /* \"Toll Free Data Project 16/Toll Free.sol\":480:511  tolls[msg.sender].push(newToll) */\n      swap1\n      dup1\n      0x01\n      dup2\n      sload\n      add\n      dup1\n      dup3\n      sstore\n      dup1\n      swap2\n      pop\n      pop\n      0x01\n      swap1\n      sub\n      swap1\n      0x00\n      mstore\n      keccak256(0x00, 0x20)\n      swap1\n      0x03\n      mul\n      add\n      0x00\n      swap1\n      swap2\n      swap1\n      swap2\n      swap1\n      swap2\n      pop\n      0x00\n      dup3\n      add\n      mload\n      dup2\n      0x00\n      add\n      sstore\n      0x20\n      dup3\n      add\n      mload\n      dup2\n      0x01\n      add\n      swap1\n      dup1\n      mload\n      swap1\n      0x20\n      add\n      swap1\n      tag_37\n      swap3\n      swap2\n      swap1\n      tag_38\n      jump\t// in\n    tag_37:\n      pop\n      0x40\n      dup3\n      add\n      mload\n      dup2\n      0x02\n      add\n      sstore\n      pop\n      pop\n        /* \"Toll Free Data Project 16/Toll Free.sol\":314:519  {... */\n      pop\n        /* \"Toll Free Data Project 16/Toll Free.sol\":248:519  function addToll(string memory _location, uint256 _amount) public {... */\n      pop\n      pop\n      jump\t// out\n        /* \"Toll Free Data Project 16/Toll Free.sol\":652:968  function updateToll(uint256 _index, string memory _location, uint256 _amount) public {... */\n    tag_20:\n        /* \"Toll Free Data Project 16/Toll Free.sol\":765:770  tolls */\n      0x00\n        /* \"Toll Free Data Project 16/Toll Free.sol\":765:782  tolls[msg.sender] */\n      dup1\n        /* \"Toll Free Data Project 16/Toll Free.sol\":771:781  msg.sender */\n      caller\n        /* \"Toll Free Data Project 16/Toll Free.sol\":765:782  tolls[msg.sender] */\n      0xffffffffffffffffffffffffffffffffffffffff\n      and\n      0xffffffffffffffffffffffffffffffffffffffff\n      and\n      dup2\n      mstore\n      0x20\n      add\n      swap1\n      dup2\n      mstore\n      0x20\n      add\n      0x00\n      keccak256\n        /* \"Toll Free Data Project 16/Toll Free.sol\":765:789  tolls[msg.sender].length */\n      dup1\n      sload\n      swap1\n      pop\n        /* \"Toll Free Data Project 16/Toll Free.sol\":756:762  _index */\n      dup4\n        /* \"Toll Free Data Project 16/Toll Free.sol\":756:789  _index < tolls[msg.sender].length */\n      lt\n        /* \"Toll Free Data Project 16/Toll Free.sol\":748:812  require(_index < tolls[msg.sender].length, \"Index out of range\") */\n      tag_40\n      jumpi\n      mload(0x40)\n      0x08c379a000000000000000000000000000000000000000000000000000000000\n      dup2\n      mstore\n      0x04\n      add\n      tag_41\n      swap1\n      tag_42\n      jump\t// in\n    tag_41:\n      mload(0x40)\n      dup1\n      swap2\n      sub\n      swap1\n      revert\n    tag_40:\n        /* \"Toll Free Data Project 16/Toll Free.sol\":823:848  Toll storage tollToUpdate */\n      0x00\n        /* \"Toll Free Data Project 16/Toll Free.sol\":851:856  tolls */\n      dup1\n        /* \"Toll Free Data Project 16/Toll Free.sol\":851:868  tolls[msg.sender] */\n      0x00\n        /* \"Toll Free Data Project 16/Toll Free.sol\":857:867  msg.sender */\n      caller\n        /* \"Toll Free Data Project 16/Toll Free.sol\":851:868  tolls[msg.sender] */\n      0xffffffffffffffffffffffffffffffffffffffff\n      and\n      0xffffffffffffffffffffffffffffffffffffffff\n      and\n      dup2\n      mstore\n      0x20\n      add\n      swap1\n      dup2\n      mstore\n      0x20\n      add\n      0x00\n      keccak256\n        /* \"Toll Free Data Project 16/Toll Free.sol\":869:875  _index */\n      dup5\n        /* \"Toll Free Data Project 16/Toll Free.sol\":851:876  tolls[msg.sender][_index] */\n      dup2\n      sload\n      dup2\n      lt\n      tag_43\n      jumpi\n      tag_44\n      tag_45\n      jump\t// in\n    tag_44:\n    tag_43:\n      swap1\n      0x00\n      mstore\n      keccak256(0x00, 0x20)\n      swap1\n      0x03\n      mul\n      add\n        /* \"Toll Free Data Project 16/Toll Free.sol\":823:876  Toll storage tollToUpdate = tolls[msg.sender][_index] */\n      swap1\n      pop\n        /* \"Toll Free Data Project 16/Toll Free.sol\":911:920  _location */\n      dup3\n        /* \"Toll Free Data Project 16/Toll Free.sol\":887:899  tollToUpdate */\n      dup2\n        /* \"Toll Free Data Project 16/Toll Free.sol\":887:908  tollToUpdate.location */\n      0x01\n      add\n        /* \"Toll Free Data Project 16/Toll Free.sol\":887:920  tollToUpdate.location = _location */\n      swap1\n      dup1\n      mload\n      swap1\n      0x20\n      add\n      swap1\n      tag_47\n      swap3\n      swap2\n      swap1\n      tag_38\n      jump\t// in\n    tag_47:\n      pop\n        /* \"Toll Free Data Project 16/Toll Free.sol\":953:960  _amount */\n      dup2\n        /* \"Toll Free Data Project 16/Toll Free.sol\":931:943  tollToUpdate */\n      dup2\n        /* \"Toll Free Data Project 16/Toll Free.sol\":931:950  tollToUpdate.amount */\n      0x02\n      add\n        /* \"Toll Free Data Project 16/Toll Free.sol\":931:960  tollToUpdate.amount = _amount */\n      dup2\n      swap1\n      sstore\n      pop\n        /* \"Toll Free Data Project 16/Toll Free.sol\":737:968  {... */\n      pop\n        /* \"Toll Free Data Project 16/Toll Free.sol\":652:968  function updateToll(uint256 _index, string memory _location, uint256 _amount) public {... */\n      pop\n      pop\n      pop\n      jump\t// out\n        /* \"Toll Free Data Project 16/Toll Free.sol\":531:640  function getTolls(address _owner) public view returns (Toll[] memory) {... */\n    tag_24:\n        /* \"Toll Free Data Project 16/Toll Free.sol\":586:599  Toll[] memory */\n      0x60\n        /* \"Toll Free Data Project 16/Toll Free.sol\":619:624  tolls */\n      0x00\n        /* \"Toll Free Data Project 16/Toll Free.sol\":619:632  tolls[_owner] */\n      dup1\n        /* \"Toll Free Data Project 16/Toll Free.sol\":625:631  _owner */\n      dup4\n        /* \"Toll Free Data Project 16/Toll Free.sol\":619:632  tolls[_owner] */\n      0xffffffffffffffffffffffffffffffffffffffff\n      and\n      0xffffffffffffffffffffffffffffffffffffffff\n      and\n      dup2\n      mstore\n      0x20\n      add\n      swap1\n      dup2\n      mstore\n      0x20\n      add\n      0x00\n      keccak256\n        /* \"Toll Free Data Project 16/Toll Free.sol\":612:632  return tolls[_owner] */\n      dup1\n      sload\n      dup1\n      0x20\n      mul\n      0x20\n      add\n      mload(0x40)\n      swap1\n      dup2\n      add\n      0x40\n      mstore\n      dup1\n      swap3\n      swap2\n      swap1\n      dup2\n      dup2\n      mstore\n      0x20\n      add\n      0x00\n      swap1\n    tag_49:\n      dup3\n      dup3\n      lt\n      iszero\n      tag_50\n      jumpi\n      dup4\n      dup3\n      swap1\n      0x00\n      mstore\n      keccak256(0x00, 0x20)\n      swap1\n      0x03\n      mul\n      add\n      mload(0x40)\n      dup1\n      0x60\n      add\n      0x40\n      mstore\n      swap1\n      dup2\n      0x00\n      dup3\n      add\n      sload\n      dup2\n      mstore\n      0x20\n      add\n      0x01\n      dup3\n      add\n      dup1\n      sload\n      tag_52\n      swap1\n      tag_30\n      jump\t// in\n    tag_52:\n      dup1\n      0x1f\n      add\n      0x20\n      dup1\n      swap2\n      div\n      mul\n      0x20\n      add\n      mload(0x40)\n      swap1\n      dup2\n      add\n      0x40\n      mstore\n      dup1\n      swap3\n      swap2\n      swap1\n      dup2\n      dup2\n      mstore\n      0x20\n      add\n      dup3\n      dup1\n      sload\n      tag_53\n      swap1\n      tag_30\n      jump\t// in\n    tag_53:\n      dup1\n      iszero\n      tag_54\n      jumpi\n      dup1\n      0x1f\n      lt\n      tag_55\n      jumpi\n      0x0100\n      dup1\n      dup4\n      sload\n      div\n      mul\n      dup4\n      mstore\n      swap2\n      0x20\n      add\n      swap2\n      jump(tag_54)\n    tag_55:\n      dup3\n      add\n      swap2\n      swap1\n      0x00\n      mstore\n      keccak256(0x00, 0x20)\n      swap1\n    tag_56:\n      dup2\n      sload\n      dup2\n      mstore\n      swap1\n      0x01\n      add\n      swap1\n      0x20\n      add\n      dup1\n      dup4\n      gt\n      tag_56\n      jumpi\n      dup3\n      swap1\n      sub\n      0x1f\n      and\n      dup3\n      add\n      swap2\n    tag_54:\n      pop\n      pop\n      pop\n      pop\n      pop\n      dup2\n      mstore\n      0x20\n      add\n      0x02\n      dup3\n      add\n      sload\n      dup2\n      mstore\n      pop\n      pop\n      dup2\n      mstore\n      0x20\n      add\n      swap1\n      0x01\n      add\n      swap1\n      jump(tag_49)\n    tag_50:\n      pop\n      pop\n      pop\n      pop\n      swap1\n      pop\n        /* \"Toll Free Data Project 16/Toll Free.sol\":531:640  function getTolls(address _owner) public view returns (Toll[] memory) {... */\n      swap2\n      swap1\n      pop\n      jump\t// out\n    tag_38:\n      dup3\n      dup1\n      sload\n      tag_57\n      swap1\n      tag_30\n      jump\t// in\n    tag_57:\n      swap1\n      0x00\n      mstore\n      keccak256(0x00, 0x20)\n      swap1\n      0x1f\n      add\n      0x20\n      swap1\n      div\n      dup2\n      add\n      swap3\n      dup3\n      tag_59\n      jumpi\n      0x00\n      dup6\n      sstore\n      jump(tag_58)\n    tag_59:\n      dup3\n      0x1f\n      lt\n      tag_60\n      jumpi\n      dup1\n      mload\n      not(0xff)\n      and\n      dup4\n      dup1\n      add\n      or\n      dup6\n      sstore\n      jump(tag_58)\n    tag_60:\n      dup3\n      dup1\n      add\n      0x01\n      add\n      dup6\n      sstore\n      dup3\n      iszero\n      tag_58\n      jumpi\n      swap2\n      dup3\n      add\n    tag_61:\n      dup3\n      dup2\n      gt\n      iszero\n      tag_62\n      jumpi\n      dup3\n      mload\n      dup3\n      sstore\n      swap2\n      0x20\n      add\n      swap2\n      swap1\n      0x01\n      add\n      swap1\n      jump(tag_61)\n    tag_62:\n    tag_58:\n      pop\n      swap1\n      pop\n      tag_63\n      swap2\n      swap1\n      tag_64\n      jump\t// in\n    tag_63:\n      pop\n      swap1\n      jump\t// out\n    tag_64:\n    tag_65:\n      dup1\n      dup3\n      gt\n      iszero\n      tag_66\n      jumpi\n      0x00\n      dup2\n      0x00\n      swap1\n      sstore\n      pop\n      0x01\n      add\n      jump(tag_65)\n    tag_66:\n      pop\n      swap1\n      jump\t// out\n        /* \"#utility.yul\":7:82   */\n    tag_67:\n        /* \"#utility.yul\":40:46   */\n      0x00\n        /* \"#utility.yul\":73:75   */\n      0x40\n        /* \"#utility.yul\":67:76   */\n      mload\n        /* \"#utility.yul\":57:76   */\n      swap1\n      pop\n        /* \"#utility.yul\":7:82   */\n      swap1\n      jump\t// out\n        /* \"#utility.yul\":88:205   */\n    tag_68:\n        /* \"#utility.yul\":197:198   */\n      0x00\n        /* \"#utility.yul\":194:195   */\n      dup1\n        /* \"#utility.yul\":187:199   */\n      revert\n        /* \"#utility.yul\":211:328   */\n    tag_69:\n        /* \"#utility.yul\":320:321   */\n      0x00\n        /* \"#utility.yul\":317:318   */\n      dup1\n        /* \"#utility.yul\":310:322   */\n      revert\n        /* \"#utility.yul\":334:460   */\n    tag_70:\n        /* \"#utility.yul\":371:378   */\n      0x00\n        /* \"#utility.yul\":411:453   */\n      0xffffffffffffffffffffffffffffffffffffffff\n        /* \"#utility.yul\":404:409   */\n      dup3\n        /* \"#utility.yul\":400:454   */\n      and\n        /* \"#utility.yul\":389:454   */\n      swap1\n      pop\n        /* \"#utility.yul\":334:460   */\n      swap2\n      swap1\n      pop\n      jump\t// out\n        /* \"#utility.yul\":466:562   */\n    tag_71:\n        /* \"#utility.yul\":503:510   */\n      0x00\n        /* \"#utility.yul\":532:556   */\n      tag_111\n        /* \"#utility.yul\":550:555   */\n      dup3\n        /* \"#utility.yul\":532:556   */\n      tag_70\n      jump\t// in\n    tag_111:\n        /* \"#utility.yul\":521:556   */\n      swap1\n      pop\n        /* \"#utility.yul\":466:562   */\n      swap2\n      swap1\n      pop\n      jump\t// out\n        /* \"#utility.yul\":568:690   */\n    tag_72:\n        /* \"#utility.yul\":641:665   */\n      tag_113\n        /* \"#utility.yul\":659:664   */\n      dup2\n        /* \"#utility.yul\":641:665   */\n      tag_71\n      jump\t// in\n    tag_113:\n        /* \"#utility.yul\":634:639   */\n      dup2\n        /* \"#utility.yul\":631:666   */\n      eq\n        /* \"#utility.yul\":621:684   */\n      tag_114\n      jumpi\n        /* \"#utility.yul\":680:681   */\n      0x00\n        /* \"#utility.yul\":677:678   */\n      dup1\n        /* \"#utility.yul\":670:682   */\n      revert\n        /* \"#utility.yul\":621:684   */\n    tag_114:\n        /* \"#utility.yul\":568:690   */\n      pop\n      jump\t// out\n        /* \"#utility.yul\":696:835   */\n    tag_73:\n        /* \"#utility.yul\":742:747   */\n      0x00\n        /* \"#utility.yul\":780:786   */\n      dup2\n        /* \"#utility.yul\":767:787   */\n      calldataload\n        /* \"#utility.yul\":758:787   */\n      swap1\n      pop\n        /* \"#utility.yul\":796:829   */\n      tag_116\n        /* \"#utility.yul\":823:828   */\n      dup2\n        /* \"#utility.yul\":796:829   */\n      tag_72\n      jump\t// in\n    tag_116:\n        /* \"#utility.yul\":696:835   */\n      swap3\n      swap2\n      pop\n      pop\n      jump\t// out\n        /* \"#utility.yul\":841:918   */\n    tag_74:\n        /* \"#utility.yul\":878:885   */\n      0x00\n        /* \"#utility.yul\":907:912   */\n      dup2\n        /* \"#utility.yul\":896:912   */\n      swap1\n      pop\n        /* \"#utility.yul\":841:918   */\n      swap2\n      swap1\n      pop\n      jump\t// out\n        /* \"#utility.yul\":924:1046   */\n    tag_75:\n        /* \"#utility.yul\":997:1021   */\n      tag_119\n        /* \"#utility.yul\":1015:1020   */\n      dup2\n        /* \"#utility.yul\":997:1021   */\n      tag_74\n      jump\t// in\n    tag_119:\n        /* \"#utility.yul\":990:995   */\n      dup2\n        /* \"#utility.yul\":987:1022   */\n      eq\n        /* \"#utility.yul\":977:1040   */\n      tag_120\n      jumpi\n        /* \"#utility.yul\":1036:1037   */\n      0x00\n        /* \"#utility.yul\":1033:1034   */\n      dup1\n        /* \"#utility.yul\":1026:1038   */\n      revert\n        /* \"#utility.yul\":977:1040   */\n    tag_120:\n        /* \"#utility.yul\":924:1046   */\n      pop\n      jump\t// out\n        /* \"#utility.yul\":1052:1191   */\n    tag_76:\n        /* \"#utility.yul\":1098:1103   */\n      0x00\n        /* \"#utility.yul\":1136:1142   */\n      dup2\n        /* \"#utility.yul\":1123:1143   */\n      calldataload\n        /* \"#utility.yul\":1114:1143   */\n      swap1\n      pop\n        /* \"#utility.yul\":1152:1185   */\n      tag_122\n        /* \"#utility.yul\":1179:1184   */\n      dup2\n        /* \"#utility.yul\":1152:1185   */\n      tag_75\n      jump\t// in\n    tag_122:\n        /* \"#utility.yul\":1052:1191   */\n      swap3\n      swap2\n      pop\n      pop\n      jump\t// out\n        /* \"#utility.yul\":1197:1671   */\n    tag_9:\n        /* \"#utility.yul\":1265:1271   */\n      0x00\n        /* \"#utility.yul\":1273:1279   */\n      dup1\n        /* \"#utility.yul\":1322:1324   */\n      0x40\n        /* \"#utility.yul\":1310:1319   */\n      dup4\n        /* \"#utility.yul\":1301:1308   */\n      dup6\n        /* \"#utility.yul\":1297:1320   */\n      sub\n        /* \"#utility.yul\":1293:1325   */\n      slt\n        /* \"#utility.yul\":1290:1409   */\n      iszero\n      tag_124\n      jumpi\n        /* \"#utility.yul\":1328:1407   */\n      tag_125\n      tag_68\n      jump\t// in\n    tag_125:\n        /* \"#utility.yul\":1290:1409   */\n    tag_124:\n        /* \"#utility.yul\":1448:1449   */\n      0x00\n        /* \"#utility.yul\":1473:1526   */\n      tag_126\n        /* \"#utility.yul\":1518:1525   */\n      dup6\n        /* \"#utility.yul\":1509:1515   */\n      dup3\n        /* \"#utility.yul\":1498:1507   */\n      dup7\n        /* \"#utility.yul\":1494:1516   */\n      add\n        /* \"#utility.yul\":1473:1526   */\n      tag_73\n      jump\t// in\n    tag_126:\n        /* \"#utility.yul\":1463:1526   */\n      swap3\n      pop\n        /* \"#utility.yul\":1419:1536   */\n      pop\n        /* \"#utility.yul\":1575:1577   */\n      0x20\n        /* \"#utility.yul\":1601:1654   */\n      tag_127\n        /* \"#utility.yul\":1646:1653   */\n      dup6\n        /* \"#utility.yul\":1637:1643   */\n      dup3\n        /* \"#utility.yul\":1626:1635   */\n      dup7\n        /* \"#utility.yul\":1622:1644   */\n      add\n        /* \"#utility.yul\":1601:1654   */\n      tag_76\n      jump\t// in\n    tag_127:\n        /* \"#utility.yul\":1591:1654   */\n      swap2\n      pop\n        /* \"#utility.yul\":1546:1664   */\n      pop\n        /* \"#utility.yul\":1197:1671   */\n      swap3\n      pop\n      swap3\n      swap1\n      pop\n      jump\t// out\n        /* \"#utility.yul\":1677:1795   */\n    tag_77:\n        /* \"#utility.yul\":1764:1788   */\n      tag_129\n        /* \"#utility.yul\":1782:1787   */\n      dup2\n        /* \"#utility.yul\":1764:1788   */\n      tag_74\n      jump\t// in\n    tag_129:\n        /* \"#utility.yul\":1759:1762   */\n      dup3\n        /* \"#utility.yul\":1752:1789   */\n      mstore\n        /* \"#utility.yul\":1677:1795   */\n      pop\n      pop\n      jump\t// out\n        /* \"#utility.yul\":1801:1900   */\n    tag_78:\n        /* \"#utility.yul\":1853:1859   */\n      0x00\n        /* \"#utility.yul\":1887:1892   */\n      dup2\n        /* \"#utility.yul\":1881:1893   */\n      mload\n        /* \"#utility.yul\":1871:1893   */\n      swap1\n      pop\n        /* \"#utility.yul\":1801:1900   */\n      swap2\n      swap1\n      pop\n      jump\t// out\n        /* \"#utility.yul\":1906:2075   */\n    tag_79:\n        /* \"#utility.yul\":1990:2001   */\n      0x00\n        /* \"#utility.yul\":2024:2030   */\n      dup3\n        /* \"#utility.yul\":2019:2022   */\n      dup3\n        /* \"#utility.yul\":2012:2031   */\n      mstore\n        /* \"#utility.yul\":2064:2068   */\n      0x20\n        /* \"#utility.yul\":2059:2062   */\n      dup3\n        /* \"#utility.yul\":2055:2069   */\n      add\n        /* \"#utility.yul\":2040:2069   */\n      swap1\n      pop\n        /* \"#utility.yul\":1906:2075   */\n      swap3\n      swap2\n      pop\n      pop\n      jump\t// out\n        /* \"#utility.yul\":2081:2388   */\n    tag_80:\n        /* \"#utility.yul\":2149:2150   */\n      0x00\n        /* \"#utility.yul\":2159:2272   */\n    tag_133:\n        /* \"#utility.yul\":2173:2179   */\n      dup4\n        /* \"#utility.yul\":2170:2171   */\n      dup2\n        /* \"#utility.yul\":2167:2180   */\n      lt\n        /* \"#utility.yul\":2159:2272   */\n      iszero\n      tag_135\n      jumpi\n        /* \"#utility.yul\":2258:2259   */\n      dup1\n        /* \"#utility.yul\":2253:2256   */\n      dup3\n        /* \"#utility.yul\":2249:2260   */\n      add\n        /* \"#utility.yul\":2243:2261   */\n      mload\n        /* \"#utility.yul\":2239:2240   */\n      dup2\n        /* \"#utility.yul\":2234:2237   */\n      dup5\n        /* \"#utility.yul\":2230:2241   */\n      add\n        /* \"#utility.yul\":2223:2262   */\n      mstore\n        /* \"#utility.yul\":2195:2197   */\n      0x20\n        /* \"#utility.yul\":2192:2193   */\n      dup2\n        /* \"#utility.yul\":2188:2198   */\n      add\n        /* \"#utility.yul\":2183:2198   */\n      swap1\n      pop\n        /* \"#utility.yul\":2159:2272   */\n      jump(tag_133)\n    tag_135:\n        /* \"#utility.yul\":2290:2296   */\n      dup4\n        /* \"#utility.yul\":2287:2288   */\n      dup2\n        /* \"#utility.yul\":2284:2297   */\n      gt\n        /* \"#utility.yul\":2281:2382   */\n      iszero\n      tag_136\n      jumpi\n        /* \"#utility.yul\":2370:2371   */\n      0x00\n        /* \"#utility.yul\":2361:2367   */\n      dup5\n        /* \"#utility.yul\":2356:2359   */\n      dup5\n        /* \"#utility.yul\":2352:2368   */\n      add\n        /* \"#utility.yul\":2345:2372   */\n      mstore\n        /* \"#utility.yul\":2281:2382   */\n    tag_136:\n        /* \"#utility.yul\":2130:2388   */\n      pop\n        /* \"#utility.yul\":2081:2388   */\n      pop\n      pop\n      pop\n      jump\t// out\n        /* \"#utility.yul\":2394:2496   */\n    tag_81:\n        /* \"#utility.yul\":2435:2441   */\n      0x00\n        /* \"#utility.yul\":2486:2488   */\n      0x1f\n        /* \"#utility.yul\":2482:2489   */\n      not\n        /* \"#utility.yul\":2477:2479   */\n      0x1f\n        /* \"#utility.yul\":2470:2475   */\n      dup4\n        /* \"#utility.yul\":2466:2480   */\n      add\n        /* \"#utility.yul\":2462:2490   */\n      and\n        /* \"#utility.yul\":2452:2490   */\n      swap1\n      pop\n        /* \"#utility.yul\":2394:2496   */\n      swap2\n      swap1\n      pop\n      jump\t// out\n        /* \"#utility.yul\":2502:2866   */\n    tag_82:\n        /* \"#utility.yul\":2590:2593   */\n      0x00\n        /* \"#utility.yul\":2618:2657   */\n      tag_139\n        /* \"#utility.yul\":2651:2656   */\n      dup3\n        /* \"#utility.yul\":2618:2657   */\n      tag_78\n      jump\t// in\n    tag_139:\n        /* \"#utility.yul\":2673:2744   */\n      tag_140\n        /* \"#utility.yul\":2737:2743   */\n      dup2\n        /* \"#utility.yul\":2732:2735   */\n      dup6\n        /* \"#utility.yul\":2673:2744   */\n      tag_79\n      jump\t// in\n    tag_140:\n        /* \"#utility.yul\":2666:2744   */\n      swap4\n      pop\n        /* \"#utility.yul\":2753:2805   */\n      tag_141\n        /* \"#utility.yul\":2798:2804   */\n      dup2\n        /* \"#utility.yul\":2793:2796   */\n      dup6\n        /* \"#utility.yul\":2786:2790   */\n      0x20\n        /* \"#utility.yul\":2779:2784   */\n      dup7\n        /* \"#utility.yul\":2775:2791   */\n      add\n        /* \"#utility.yul\":2753:2805   */\n      tag_80\n      jump\t// in\n    tag_141:\n        /* \"#utility.yul\":2830:2859   */\n      tag_142\n        /* \"#utility.yul\":2852:2858   */\n      dup2\n        /* \"#utility.yul\":2830:2859   */\n      tag_81\n      jump\t// in\n    tag_142:\n        /* \"#utility.yul\":2825:2828   */\n      dup5\n        /* \"#utility.yul\":2821:2860   */\n      add\n        /* \"#utility.yul\":2814:2860   */\n      swap2\n      pop\n        /* \"#utility.yul\":2594:2866   */\n      pop\n        /* \"#utility.yul\":2502:2866   */\n      swap3\n      swap2\n      pop\n      pop\n      jump\t// out\n        /* \"#utility.yul\":2872:3405   */\n    tag_12:\n        /* \"#utility.yul\":3041:3045   */\n      0x00\n        /* \"#utility.yul\":3079:3081   */\n      0x60\n        /* \"#utility.yul\":3068:3077   */\n      dup3\n        /* \"#utility.yul\":3064:3082   */\n      add\n        /* \"#utility.yul\":3056:3082   */\n      swap1\n      pop\n        /* \"#utility.yul\":3092:3163   */\n      tag_144\n        /* \"#utility.yul\":3160:3161   */\n      0x00\n        /* \"#utility.yul\":3149:3158   */\n      dup4\n        /* \"#utility.yul\":3145:3162   */\n      add\n        /* \"#utility.yul\":3136:3142   */\n      dup7\n        /* \"#utility.yul\":3092:3163   */\n      tag_77\n      jump\t// in\n    tag_144:\n        /* \"#utility.yul\":3210:3219   */\n      dup2\n        /* \"#utility.yul\":3204:3208   */\n      dup2\n        /* \"#utility.yul\":3200:3220   */\n      sub\n        /* \"#utility.yul\":3195:3197   */\n      0x20\n        /* \"#utility.yul\":3184:3193   */\n      dup4\n        /* \"#utility.yul\":3180:3198   */\n      add\n        /* \"#utility.yul\":3173:3221   */\n      mstore\n        /* \"#utility.yul\":3238:3316   */\n      tag_145\n        /* \"#utility.yul\":3311:3315   */\n      dup2\n        /* \"#utility.yul\":3302:3308   */\n      dup6\n        /* \"#utility.yul\":3238:3316   */\n      tag_82\n      jump\t// in\n    tag_145:\n        /* \"#utility.yul\":3230:3316   */\n      swap1\n      pop\n        /* \"#utility.yul\":3326:3398   */\n      tag_146\n        /* \"#utility.yul\":3394:3396   */\n      0x40\n        /* \"#utility.yul\":3383:3392   */\n      dup4\n        /* \"#utility.yul\":3379:3397   */\n      add\n        /* \"#utility.yul\":3370:3376   */\n      dup5\n        /* \"#utility.yul\":3326:3398   */\n      tag_77\n      jump\t// in\n    tag_146:\n        /* \"#utility.yul\":2872:3405   */\n      swap5\n      swap4\n      pop\n      pop\n      pop\n      pop\n      jump\t// out\n        /* \"#utility.yul\":3411:3528   */\n    tag_83:\n        /* \"#utility.yul\":3520:3521   */\n      0x00\n        /* \"#utility.yul\":3517:3518   */\n      dup1\n        /* \"#utility.yul\":3510:3522   */\n      revert\n        /* \"#utility.yul\":3534:3651   */\n    tag_84:\n        /* \"#utility.yul\":3643:3644   */\n      0x00\n        /* \"#utility.yul\":3640:3641   */\n      dup1\n        /* \"#utility.yul\":3633:3645   */\n      revert\n        /* \"#utility.yul\":3657:3837   */\n    tag_85:\n        /* \"#utility.yul\":3705:3782   */\n      0x4e487b7100000000000000000000000000000000000000000000000000000000\n        /* \"#utility.yul\":3702:3703   */\n      0x00\n        /* \"#utility.yul\":3695:3783   */\n      mstore\n        /* \"#utility.yul\":3802:3806   */\n      0x41\n        /* \"#utility.yul\":3799:3800   */\n      0x04\n        /* \"#utility.yul\":3792:3807   */\n      mstore\n        /* \"#utility.yul\":3826:3830   */\n      0x24\n        /* \"#utility.yul\":3823:3824   */\n      0x00\n        /* \"#utility.yul\":3816:3831   */\n      revert\n        /* \"#utility.yul\":3843:4124   */\n    tag_86:\n        /* \"#utility.yul\":3926:3953   */\n      tag_151\n        /* \"#utility.yul\":3948:3952   */\n      dup3\n        /* \"#utility.yul\":3926:3953   */\n      tag_81\n      jump\t// in\n    tag_151:\n        /* \"#utility.yul\":3918:3924   */\n      dup2\n        /* \"#utility.yul\":3914:3954   */\n      add\n        /* \"#utility.yul\":4056:4062   */\n      dup2\n        /* \"#utility.yul\":4044:4054   */\n      dup2\n        /* \"#utility.yul\":4041:4063   */\n      lt\n        /* \"#utility.yul\":4020:4038   */\n      0xffffffffffffffff\n        /* \"#utility.yul\":4008:4018   */\n      dup3\n        /* \"#utility.yul\":4005:4039   */\n      gt\n        /* \"#utility.yul\":4002:4064   */\n      or\n        /* \"#utility.yul\":3999:4087   */\n      iszero\n      tag_152\n      jumpi\n        /* \"#utility.yul\":4067:4085   */\n      tag_153\n      tag_85\n      jump\t// in\n    tag_153:\n        /* \"#utility.yul\":3999:4087   */\n    tag_152:\n        /* \"#utility.yul\":4107:4117   */\n      dup1\n        /* \"#utility.yul\":4103:4105   */\n      0x40\n        /* \"#utility.yul\":4096:4118   */\n      mstore\n        /* \"#utility.yul\":3886:4124   */\n      pop\n        /* \"#utility.yul\":3843:4124   */\n      pop\n      pop\n      jump\t// out\n        /* \"#utility.yul\":4130:4259   */\n    tag_87:\n        /* \"#utility.yul\":4164:4170   */\n      0x00\n        /* \"#utility.yul\":4191:4211   */\n      tag_155\n      tag_67\n      jump\t// in\n    tag_155:\n        /* \"#utility.yul\":4181:4211   */\n      swap1\n      pop\n        /* \"#utility.yul\":4220:4253   */\n      tag_156\n        /* \"#utility.yul\":4248:4252   */\n      dup3\n        /* \"#utility.yul\":4240:4246   */\n      dup3\n        /* \"#utility.yul\":4220:4253   */\n      tag_86\n      jump\t// in\n    tag_156:\n        /* \"#utility.yul\":4130:4259   */\n      swap2\n      swap1\n      pop\n      jump\t// out\n        /* \"#utility.yul\":4265:4573   */\n    tag_88:\n        /* \"#utility.yul\":4327:4331   */\n      0x00\n        /* \"#utility.yul\":4417:4435   */\n      0xffffffffffffffff\n        /* \"#utility.yul\":4409:4415   */\n      dup3\n        /* \"#utility.yul\":4406:4436   */\n      gt\n        /* \"#utility.yul\":4403:4459   */\n      iszero\n      tag_158\n      jumpi\n        /* \"#utility.yul\":4439:4457   */\n      tag_159\n      tag_85\n      jump\t// in\n    tag_159:\n        /* \"#utility.yul\":4403:4459   */\n    tag_158:\n        /* \"#utility.yul\":4477:4506   */\n      tag_160\n        /* \"#utility.yul\":4499:4505   */\n      dup3\n        /* \"#utility.yul\":4477:4506   */\n      tag_81\n      jump\t// in\n    tag_160:\n        /* \"#utility.yul\":4469:4506   */\n      swap1\n      pop\n        /* \"#utility.yul\":4561:4565   */\n      0x20\n        /* \"#utility.yul\":4555:4559   */\n      dup2\n        /* \"#utility.yul\":4551:4566   */\n      add\n        /* \"#utility.yul\":4543:4566   */\n      swap1\n      pop\n        /* \"#utility.yul\":4265:4573   */\n      swap2\n      swap1\n      pop\n      jump\t// out\n        /* \"#utility.yul\":4579:4733   */\n    tag_89:\n        /* \"#utility.yul\":4663:4669   */\n      dup3\n        /* \"#utility.yul\":4658:4661   */\n      dup2\n        /* \"#utility.yul\":4653:4656   */\n      dup4\n        /* \"#utility.yul\":4640:4670   */\n      calldatacopy\n        /* \"#utility.yul\":4725:4726   */\n      0x00\n        /* \"#utility.yul\":4716:4722   */\n      dup4\n        /* \"#utility.yul\":4711:4714   */\n      dup4\n        /* \"#utility.yul\":4707:4723   */\n      add\n        /* \"#utility.yul\":4700:4727   */\n      mstore\n        /* \"#utility.yul\":4579:4733   */\n      pop\n      pop\n      pop\n      jump\t// out\n        /* \"#utility.yul\":4739:5151   */\n    tag_90:\n        /* \"#utility.yul\":4817:4822   */\n      0x00\n        /* \"#utility.yul\":4842:4908   */\n      tag_163\n        /* \"#utility.yul\":4858:4907   */\n      tag_164\n        /* \"#utility.yul\":4900:4906   */\n      dup5\n        /* \"#utility.yul\":4858:4907   */\n      tag_88\n      jump\t// in\n    tag_164:\n        /* \"#utility.yul\":4842:4908   */\n      tag_87\n      jump\t// in\n    tag_163:\n        /* \"#utility.yul\":4833:4908   */\n      swap1\n      pop\n        /* \"#utility.yul\":4931:4937   */\n      dup3\n        /* \"#utility.yul\":4924:4929   */\n      dup2\n        /* \"#utility.yul\":4917:4938   */\n      mstore\n        /* \"#utility.yul\":4969:4973   */\n      0x20\n        /* \"#utility.yul\":4962:4967   */\n      dup2\n        /* \"#utility.yul\":4958:4974   */\n      add\n        /* \"#utility.yul\":5007:5010   */\n      dup5\n        /* \"#utility.yul\":4998:5004   */\n      dup5\n        /* \"#utility.yul\":4993:4996   */\n      dup5\n        /* \"#utility.yul\":4989:5005   */\n      add\n        /* \"#utility.yul\":4986:5011   */\n      gt\n        /* \"#utility.yul\":4983:5095   */\n      iszero\n      tag_165\n      jumpi\n        /* \"#utility.yul\":5014:5093   */\n      tag_166\n      tag_84\n      jump\t// in\n    tag_166:\n        /* \"#utility.yul\":4983:5095   */\n    tag_165:\n        /* \"#utility.yul\":5104:5145   */\n      tag_167\n        /* \"#utility.yul\":5138:5144   */\n      dup5\n        /* \"#utility.yul\":5133:5136   */\n      dup3\n        /* \"#utility.yul\":5128:5131   */\n      dup6\n        /* \"#utility.yul\":5104:5145   */\n      tag_89\n      jump\t// in\n    tag_167:\n        /* \"#utility.yul\":4823:5151   */\n      pop\n        /* \"#utility.yul\":4739:5151   */\n      swap4\n      swap3\n      pop\n      pop\n      pop\n      jump\t// out\n        /* \"#utility.yul\":5171:5511   */\n    tag_91:\n        /* \"#utility.yul\":5227:5232   */\n      0x00\n        /* \"#utility.yul\":5276:5279   */\n      dup3\n        /* \"#utility.yul\":5269:5273   */\n      0x1f\n        /* \"#utility.yul\":5261:5267   */\n      dup4\n        /* \"#utility.yul\":5257:5274   */\n      add\n        /* \"#utility.yul\":5253:5280   */\n      slt\n        /* \"#utility.yul\":5243:5365   */\n      tag_169\n      jumpi\n        /* \"#utility.yul\":5284:5363   */\n      tag_170\n      tag_83\n      jump\t// in\n    tag_170:\n        /* \"#utility.yul\":5243:5365   */\n    tag_169:\n        /* \"#utility.yul\":5401:5407   */\n      dup2\n        /* \"#utility.yul\":5388:5408   */\n      calldataload\n        /* \"#utility.yul\":5426:5505   */\n      tag_171\n        /* \"#utility.yul\":5501:5504   */\n      dup5\n        /* \"#utility.yul\":5493:5499   */\n      dup3\n        /* \"#utility.yul\":5486:5490   */\n      0x20\n        /* \"#utility.yul\":5478:5484   */\n      dup7\n        /* \"#utility.yul\":5474:5491   */\n      add\n        /* \"#utility.yul\":5426:5505   */\n      tag_90\n      jump\t// in\n    tag_171:\n        /* \"#utility.yul\":5417:5505   */\n      swap2\n      pop\n        /* \"#utility.yul\":5233:5511   */\n      pop\n        /* \"#utility.yul\":5171:5511   */\n      swap3\n      swap2\n      pop\n      pop\n      jump\t// out\n        /* \"#utility.yul\":5517:6171   */\n    tag_15:\n        /* \"#utility.yul\":5595:5601   */\n      0x00\n        /* \"#utility.yul\":5603:5609   */\n      dup1\n        /* \"#utility.yul\":5652:5654   */\n      0x40\n        /* \"#utility.yul\":5640:5649   */\n      dup4\n        /* \"#utility.yul\":5631:5638   */\n      dup6\n        /* \"#utility.yul\":5627:5650   */\n      sub\n        /* \"#utility.yul\":5623:5655   */\n      slt\n        /* \"#utility.yul\":5620:5739   */\n      iszero\n      tag_173\n      jumpi\n        /* \"#utility.yul\":5658:5737   */\n      tag_174\n      tag_68\n      jump\t// in\n    tag_174:\n        /* \"#utility.yul\":5620:5739   */\n    tag_173:\n        /* \"#utility.yul\":5806:5807   */\n      0x00\n        /* \"#utility.yul\":5795:5804   */\n      dup4\n        /* \"#utility.yul\":5791:5808   */\n      add\n        /* \"#utility.yul\":5778:5809   */\n      calldataload\n        /* \"#utility.yul\":5836:5854   */\n      0xffffffffffffffff\n        /* \"#utility.yul\":5828:5834   */\n      dup2\n        /* \"#utility.yul\":5825:5855   */\n      gt\n        /* \"#utility.yul\":5822:5939   */\n      iszero\n      tag_175\n      jumpi\n        /* \"#utility.yul\":5858:5937   */\n      tag_176\n      tag_69\n      jump\t// in\n    tag_176:\n        /* \"#utility.yul\":5822:5939   */\n    tag_175:\n        /* \"#utility.yul\":5963:6026   */\n      tag_177\n        /* \"#utility.yul\":6018:6025   */\n      dup6\n        /* \"#utility.yul\":6009:6015   */\n      dup3\n        /* \"#utility.yul\":5998:6007   */\n      dup7\n        /* \"#utility.yul\":5994:6016   */\n      add\n        /* \"#utility.yul\":5963:6026   */\n      tag_91\n      jump\t// in\n    tag_177:\n        /* \"#utility.yul\":5953:6026   */\n      swap3\n      pop\n        /* \"#utility.yul\":5749:6036   */\n      pop\n        /* \"#utility.yul\":6075:6077   */\n      0x20\n        /* \"#utility.yul\":6101:6154   */\n      tag_178\n        /* \"#utility.yul\":6146:6153   */\n      dup6\n        /* \"#utility.yul\":6137:6143   */\n      dup3\n        /* \"#utility.yul\":6126:6135   */\n      dup7\n        /* \"#utility.yul\":6122:6144   */\n      add\n        /* \"#utility.yul\":6101:6154   */\n      tag_76\n      jump\t// in\n    tag_178:\n        /* \"#utility.yul\":6091:6154   */\n      swap2\n      pop\n        /* \"#utility.yul\":6046:6164   */\n      pop\n        /* \"#utility.yul\":5517:6171   */\n      swap3\n      pop\n      swap3\n      swap1\n      pop\n      jump\t// out\n        /* \"#utility.yul\":6177:6976   */\n    tag_19:\n        /* \"#utility.yul\":6264:6270   */\n      0x00\n        /* \"#utility.yul\":6272:6278   */\n      dup1\n        /* \"#utility.yul\":6280:6286   */\n      0x00\n        /* \"#utility.yul\":6329:6331   */\n      0x60\n        /* \"#utility.yul\":6317:6326   */\n      dup5\n        /* \"#utility.yul\":6308:6315   */\n      dup7\n        /* \"#utility.yul\":6304:6327   */\n      sub\n        /* \"#utility.yul\":6300:6332   */\n      slt\n        /* \"#utility.yul\":6297:6416   */\n      iszero\n      tag_180\n      jumpi\n        /* \"#utility.yul\":6335:6414   */\n      tag_181\n      tag_68\n      jump\t// in\n    tag_181:\n        /* \"#utility.yul\":6297:6416   */\n    tag_180:\n        /* \"#utility.yul\":6455:6456   */\n      0x00\n        /* \"#utility.yul\":6480:6533   */\n      tag_182\n        /* \"#utility.yul\":6525:6532   */\n      dup7\n        /* \"#utility.yul\":6516:6522   */\n      dup3\n        /* \"#utility.yul\":6505:6514   */\n      dup8\n        /* \"#utility.yul\":6501:6523   */\n      add\n        /* \"#utility.yul\":6480:6533   */\n      tag_76\n      jump\t// in\n    tag_182:\n        /* \"#utility.yul\":6470:6533   */\n      swap4\n      pop\n        /* \"#utility.yul\":6426:6543   */\n      pop\n        /* \"#utility.yul\":6610:6612   */\n      0x20\n        /* \"#utility.yul\":6599:6608   */\n      dup5\n        /* \"#utility.yul\":6595:6613   */\n      add\n        /* \"#utility.yul\":6582:6614   */\n      calldataload\n        /* \"#utility.yul\":6641:6659   */\n      0xffffffffffffffff\n        /* \"#utility.yul\":6633:6639   */\n      dup2\n        /* \"#utility.yul\":6630:6660   */\n      gt\n        /* \"#utility.yul\":6627:6744   */\n      iszero\n      tag_183\n      jumpi\n        /* \"#utility.yul\":6663:6742   */\n      tag_184\n      tag_69\n      jump\t// in\n    tag_184:\n        /* \"#utility.yul\":6627:6744   */\n    tag_183:\n        /* \"#utility.yul\":6768:6831   */\n      tag_185\n        /* \"#utility.yul\":6823:6830   */\n      dup7\n        /* \"#utility.yul\":6814:6820   */\n      dup3\n        /* \"#utility.yul\":6803:6812   */\n      dup8\n        /* \"#utility.yul\":6799:6821   */\n      add\n        /* \"#utility.yul\":6768:6831   */\n      tag_91\n      jump\t// in\n    tag_185:\n        /* \"#utility.yul\":6758:6831   */\n      swap3\n      pop\n        /* \"#utility.yul\":6553:6841   */\n      pop\n        /* \"#utility.yul\":6880:6882   */\n      0x40\n        /* \"#utility.yul\":6906:6959   */\n      tag_186\n        /* \"#utility.yul\":6951:6958   */\n      dup7\n        /* \"#utility.yul\":6942:6948   */\n      dup3\n        /* \"#utility.yul\":6931:6940   */\n      dup8\n        /* \"#utility.yul\":6927:6949   */\n      add\n        /* \"#utility.yul\":6906:6959   */\n      tag_76\n      jump\t// in\n    tag_186:\n        /* \"#utility.yul\":6896:6959   */\n      swap2\n      pop\n        /* \"#utility.yul\":6851:6969   */\n      pop\n        /* \"#utility.yul\":6177:6976   */\n      swap3\n      pop\n      swap3\n      pop\n      swap3\n      jump\t// out\n        /* \"#utility.yul\":6982:7311   */\n    tag_23:\n        /* \"#utility.yul\":7041:7047   */\n      0x00\n        /* \"#utility.yul\":7090:7092   */\n      0x20\n        /* \"#utility.yul\":7078:7087   */\n      dup3\n        /* \"#utility.yul\":7069:7076   */\n      dup5\n        /* \"#utility.yul\":7065:7088   */\n      sub\n        /* \"#utility.yul\":7061:7093   */\n      slt\n        /* \"#utility.yul\":7058:7177   */\n      iszero\n      tag_188\n      jumpi\n        /* \"#utility.yul\":7096:7175   */\n      tag_189\n      tag_68\n      jump\t// in\n    tag_189:\n        /* \"#utility.yul\":7058:7177   */\n    tag_188:\n        /* \"#utility.yul\":7216:7217   */\n      0x00\n        /* \"#utility.yul\":7241:7294   */\n      tag_190\n        /* \"#utility.yul\":7286:7293   */\n      dup5\n        /* \"#utility.yul\":7277:7283   */\n      dup3\n        /* \"#utility.yul\":7266:7275   */\n      dup6\n        /* \"#utility.yul\":7262:7284   */\n      add\n        /* \"#utility.yul\":7241:7294   */\n      tag_73\n      jump\t// in\n    tag_190:\n        /* \"#utility.yul\":7231:7294   */\n      swap2\n      pop\n        /* \"#utility.yul\":7187:7304   */\n      pop\n        /* \"#utility.yul\":6982:7311   */\n      swap3\n      swap2\n      pop\n      pop\n      jump\t// out\n        /* \"#utility.yul\":7317:7450   */\n    tag_92:\n        /* \"#utility.yul\":7403:7409   */\n      0x00\n        /* \"#utility.yul\":7437:7442   */\n      dup2\n        /* \"#utility.yul\":7431:7443   */\n      mload\n        /* \"#utility.yul\":7421:7443   */\n      swap1\n      pop\n        /* \"#utility.yul\":7317:7450   */\n      swap2\n      swap1\n      pop\n      jump\t// out\n        /* \"#utility.yul\":7456:7659   */\n    tag_93:\n        /* \"#utility.yul\":7574:7585   */\n      0x00\n        /* \"#utility.yul\":7608:7614   */\n      dup3\n        /* \"#utility.yul\":7603:7606   */\n      dup3\n        /* \"#utility.yul\":7596:7615   */\n      mstore\n        /* \"#utility.yul\":7648:7652   */\n      0x20\n        /* \"#utility.yul\":7643:7646   */\n      dup3\n        /* \"#utility.yul\":7639:7653   */\n      add\n        /* \"#utility.yul\":7624:7653   */\n      swap1\n      pop\n        /* \"#utility.yul\":7456:7659   */\n      swap3\n      swap2\n      pop\n      pop\n      jump\t// out\n        /* \"#utility.yul\":7665:7816   */\n    tag_94:\n        /* \"#utility.yul\":7751:7755   */\n      0x00\n        /* \"#utility.yul\":7774:7777   */\n      dup2\n        /* \"#utility.yul\":7766:7777   */\n      swap1\n      pop\n        /* \"#utility.yul\":7804:7808   */\n      0x20\n        /* \"#utility.yul\":7799:7802   */\n      dup3\n        /* \"#utility.yul\":7795:7809   */\n      add\n        /* \"#utility.yul\":7787:7809   */\n      swap1\n      pop\n        /* \"#utility.yul\":7665:7816   */\n      swap2\n      swap1\n      pop\n      jump\t// out\n        /* \"#utility.yul\":7822:7930   */\n    tag_95:\n        /* \"#utility.yul\":7899:7923   */\n      tag_195\n        /* \"#utility.yul\":7917:7922   */\n      dup2\n        /* \"#utility.yul\":7899:7923   */\n      tag_74\n      jump\t// in\n    tag_195:\n        /* \"#utility.yul\":7894:7897   */\n      dup3\n        /* \"#utility.yul\":7887:7924   */\n      mstore\n        /* \"#utility.yul\":7822:7930   */\n      pop\n      pop\n      jump\t// out\n        /* \"#utility.yul\":7936:8095   */\n    tag_96:\n        /* \"#utility.yul\":8010:8021   */\n      0x00\n        /* \"#utility.yul\":8044:8050   */\n      dup3\n        /* \"#utility.yul\":8039:8042   */\n      dup3\n        /* \"#utility.yul\":8032:8051   */\n      mstore\n        /* \"#utility.yul\":8084:8088   */\n      0x20\n        /* \"#utility.yul\":8079:8082   */\n      dup3\n        /* \"#utility.yul\":8075:8089   */\n      add\n        /* \"#utility.yul\":8060:8089   */\n      swap1\n      pop\n        /* \"#utility.yul\":7936:8095   */\n      swap3\n      swap2\n      pop\n      pop\n      jump\t// out\n        /* \"#utility.yul\":8101:8445   */\n    tag_97:\n        /* \"#utility.yul\":8179:8182   */\n      0x00\n        /* \"#utility.yul\":8207:8246   */\n      tag_198\n        /* \"#utility.yul\":8240:8245   */\n      dup3\n        /* \"#utility.yul\":8207:8246   */\n      tag_78\n      jump\t// in\n    tag_198:\n        /* \"#utility.yul\":8262:8323   */\n      tag_199\n        /* \"#utility.yul\":8316:8322   */\n      dup2\n        /* \"#utility.yul\":8311:8314   */\n      dup6\n        /* \"#utility.yul\":8262:8323   */\n      tag_96\n      jump\t// in\n    tag_199:\n        /* \"#utility.yul\":8255:8323   */\n      swap4\n      pop\n        /* \"#utility.yul\":8332:8384   */\n      tag_200\n        /* \"#utility.yul\":8377:8383   */\n      dup2\n        /* \"#utility.yul\":8372:8375   */\n      dup6\n        /* \"#utility.yul\":8365:8369   */\n      0x20\n        /* \"#utility.yul\":8358:8363   */\n      dup7\n        /* \"#utility.yul\":8354:8370   */\n      add\n        /* \"#utility.yul\":8332:8384   */\n      tag_80\n      jump\t// in\n    tag_200:\n        /* \"#utility.yul\":8409:8438   */\n      tag_201\n        /* \"#utility.yul\":8431:8437   */\n      dup2\n        /* \"#utility.yul\":8409:8438   */\n      tag_81\n      jump\t// in\n    tag_201:\n        /* \"#utility.yul\":8404:8407   */\n      dup5\n        /* \"#utility.yul\":8400:8439   */\n      add\n        /* \"#utility.yul\":8393:8439   */\n      swap2\n      pop\n        /* \"#utility.yul\":8183:8445   */\n      pop\n        /* \"#utility.yul\":8101:8445   */\n      swap3\n      swap2\n      pop\n      pop\n      jump\t// out\n        /* \"#utility.yul\":8503:9272   */\n    tag_98:\n        /* \"#utility.yul\":8600:8603   */\n      0x00\n        /* \"#utility.yul\":8636:8640   */\n      0x60\n        /* \"#utility.yul\":8631:8634   */\n      dup4\n        /* \"#utility.yul\":8627:8641   */\n      add\n        /* \"#utility.yul\":8728:8732   */\n      0x00\n        /* \"#utility.yul\":8721:8726   */\n      dup4\n        /* \"#utility.yul\":8717:8733   */\n      add\n        /* \"#utility.yul\":8711:8734   */\n      mload\n        /* \"#utility.yul\":8747:8810   */\n      tag_203\n        /* \"#utility.yul\":8804:8808   */\n      0x00\n        /* \"#utility.yul\":8799:8802   */\n      dup7\n        /* \"#utility.yul\":8795:8809   */\n      add\n        /* \"#utility.yul\":8781:8793   */\n      dup3\n        /* \"#utility.yul\":8747:8810   */\n      tag_95\n      jump\t// in\n    tag_203:\n        /* \"#utility.yul\":8651:8820   */\n      pop\n        /* \"#utility.yul\":8906:8910   */\n      0x20\n        /* \"#utility.yul\":8899:8904   */\n      dup4\n        /* \"#utility.yul\":8895:8911   */\n      add\n        /* \"#utility.yul\":8889:8912   */\n      mload\n        /* \"#utility.yul\":8959:8962   */\n      dup5\n        /* \"#utility.yul\":8953:8957   */\n      dup3\n        /* \"#utility.yul\":8949:8963   */\n      sub\n        /* \"#utility.yul\":8942:8946   */\n      0x20\n        /* \"#utility.yul\":8937:8940   */\n      dup7\n        /* \"#utility.yul\":8933:8947   */\n      add\n        /* \"#utility.yul\":8926:8964   */\n      mstore\n        /* \"#utility.yul\":8985:9058   */\n      tag_204\n        /* \"#utility.yul\":9053:9057   */\n      dup3\n        /* \"#utility.yul\":9039:9051   */\n      dup3\n        /* \"#utility.yul\":8985:9058   */\n      tag_97\n      jump\t// in\n    tag_204:\n        /* \"#utility.yul\":8977:9058   */\n      swap2\n      pop\n        /* \"#utility.yul\":8830:9069   */\n      pop\n        /* \"#utility.yul\":9153:9157   */\n      0x40\n        /* \"#utility.yul\":9146:9151   */\n      dup4\n        /* \"#utility.yul\":9142:9158   */\n      add\n        /* \"#utility.yul\":9136:9159   */\n      mload\n        /* \"#utility.yul\":9172:9235   */\n      tag_205\n        /* \"#utility.yul\":9229:9233   */\n      0x40\n        /* \"#utility.yul\":9224:9227   */\n      dup7\n        /* \"#utility.yul\":9220:9234   */\n      add\n        /* \"#utility.yul\":9206:9218   */\n      dup3\n        /* \"#utility.yul\":9172:9235   */\n      tag_95\n      jump\t// in\n    tag_205:\n        /* \"#utility.yul\":9079:9245   */\n      pop\n        /* \"#utility.yul\":9262:9266   */\n      dup1\n        /* \"#utility.yul\":9255:9266   */\n      swap2\n      pop\n        /* \"#utility.yul\":8605:9272   */\n      pop\n        /* \"#utility.yul\":8503:9272   */\n      swap3\n      swap2\n      pop\n      pop\n      jump\t// out\n        /* \"#utility.yul\":9278:9510   */\n    tag_99:\n        /* \"#utility.yul\":9385:9395   */\n      0x00\n        /* \"#utility.yul\":9420:9504   */\n      tag_207\n        /* \"#utility.yul\":9500:9503   */\n      dup4\n        /* \"#utility.yul\":9492:9498   */\n      dup4\n        /* \"#utility.yul\":9420:9504   */\n      tag_98\n      jump\t// in\n    tag_207:\n        /* \"#utility.yul\":9406:9504   */\n      swap1\n      pop\n        /* \"#utility.yul\":9278:9510   */\n      swap3\n      swap2\n      pop\n      pop\n      jump\t// out\n        /* \"#utility.yul\":9516:9648   */\n    tag_100:\n        /* \"#utility.yul\":9605:9609   */\n      0x00\n        /* \"#utility.yul\":9637:9641   */\n      0x20\n        /* \"#utility.yul\":9632:9635   */\n      dup3\n        /* \"#utility.yul\":9628:9642   */\n      add\n        /* \"#utility.yul\":9620:9642   */\n      swap1\n      pop\n        /* \"#utility.yul\":9516:9648   */\n      swap2\n      swap1\n      pop\n      jump\t// out\n        /* \"#utility.yul\":9710:10773   */\n    tag_101:\n        /* \"#utility.yul\":9867:9870   */\n      0x00\n        /* \"#utility.yul\":9896:9969   */\n      tag_210\n        /* \"#utility.yul\":9963:9968   */\n      dup3\n        /* \"#utility.yul\":9896:9969   */\n      tag_92\n      jump\t// in\n    tag_210:\n        /* \"#utility.yul\":9985:10090   */\n      tag_211\n        /* \"#utility.yul\":10083:10089   */\n      dup2\n        /* \"#utility.yul\":10078:10081   */\n      dup6\n        /* \"#utility.yul\":9985:10090   */\n      tag_93\n      jump\t// in\n    tag_211:\n        /* \"#utility.yul\":9978:10090   */\n      swap4\n      pop\n        /* \"#utility.yul\":10116:10119   */\n      dup4\n        /* \"#utility.yul\":10161:10165   */\n      0x20\n        /* \"#utility.yul\":10153:10159   */\n      dup3\n        /* \"#utility.yul\":10149:10166   */\n      mul\n        /* \"#utility.yul\":10144:10147   */\n      dup6\n        /* \"#utility.yul\":10140:10167   */\n      add\n        /* \"#utility.yul\":10191:10266   */\n      tag_212\n        /* \"#utility.yul\":10260:10265   */\n      dup6\n        /* \"#utility.yul\":10191:10266   */\n      tag_94\n      jump\t// in\n    tag_212:\n        /* \"#utility.yul\":10289:10296   */\n      dup1\n        /* \"#utility.yul\":10320:10321   */\n      0x00\n        /* \"#utility.yul\":10305:10728   */\n    tag_213:\n        /* \"#utility.yul\":10330:10336   */\n      dup6\n        /* \"#utility.yul\":10327:10328   */\n      dup2\n        /* \"#utility.yul\":10324:10337   */\n      lt\n        /* \"#utility.yul\":10305:10728   */\n      iszero\n      tag_215\n      jumpi\n        /* \"#utility.yul\":10401:10410   */\n      dup5\n        /* \"#utility.yul\":10395:10399   */\n      dup5\n        /* \"#utility.yul\":10391:10411   */\n      sub\n        /* \"#utility.yul\":10386:10389   */\n      dup10\n        /* \"#utility.yul\":10379:10412   */\n      mstore\n        /* \"#utility.yul\":10452:10458   */\n      dup2\n        /* \"#utility.yul\":10446:10459   */\n      mload\n        /* \"#utility.yul\":10480:10582   */\n      tag_216\n        /* \"#utility.yul\":10577:10581   */\n      dup6\n        /* \"#utility.yul\":10562:10575   */\n      dup3\n        /* \"#utility.yul\":10480:10582   */\n      tag_99\n      jump\t// in\n    tag_216:\n        /* \"#utility.yul\":10472:10582   */\n      swap5\n      pop\n        /* \"#utility.yul\":10605:10684   */\n      tag_217\n        /* \"#utility.yul\":10677:10683   */\n      dup4\n        /* \"#utility.yul\":10605:10684   */\n      tag_100\n      jump\t// in\n    tag_217:\n        /* \"#utility.yul\":10595:10684   */\n      swap3\n      pop\n        /* \"#utility.yul\":10713:10717   */\n      0x20\n        /* \"#utility.yul\":10708:10711   */\n      dup11\n        /* \"#utility.yul\":10704:10718   */\n      add\n        /* \"#utility.yul\":10697:10718   */\n      swap10\n      pop\n        /* \"#utility.yul\":10365:10728   */\n      pop\n        /* \"#utility.yul\":10352:10353   */\n      0x01\n        /* \"#utility.yul\":10349:10350   */\n      dup2\n        /* \"#utility.yul\":10345:10354   */\n      add\n        /* \"#utility.yul\":10340:10354   */\n      swap1\n      pop\n        /* \"#utility.yul\":10305:10728   */\n      jump(tag_213)\n    tag_215:\n        /* \"#utility.yul\":10309:10323   */\n      pop\n        /* \"#utility.yul\":10744:10748   */\n      dup3\n        /* \"#utility.yul\":10737:10748   */\n      swap8\n      pop\n        /* \"#utility.yul\":10764:10767   */\n      dup8\n        /* \"#utility.yul\":10757:10767   */\n      swap6\n      pop\n        /* \"#utility.yul\":9872:10773   */\n      pop\n      pop\n      pop\n      pop\n      pop\n        /* \"#utility.yul\":9710:10773   */\n      swap3\n      swap2\n      pop\n      pop\n      jump\t// out\n        /* \"#utility.yul\":10779:11228   */\n    tag_26:\n        /* \"#utility.yul\":10960:10964   */\n      0x00\n        /* \"#utility.yul\":10998:11000   */\n      0x20\n        /* \"#utility.yul\":10987:10996   */\n      dup3\n        /* \"#utility.yul\":10983:11001   */\n      add\n        /* \"#utility.yul\":10975:11001   */\n      swap1\n      pop\n        /* \"#utility.yul\":11047:11056   */\n      dup2\n        /* \"#utility.yul\":11041:11045   */\n      dup2\n        /* \"#utility.yul\":11037:11057   */\n      sub\n        /* \"#utility.yul\":11033:11034   */\n      0x00\n        /* \"#utility.yul\":11022:11031   */\n      dup4\n        /* \"#utility.yul\":11018:11035   */\n      add\n        /* \"#utility.yul\":11011:11058   */\n      mstore\n        /* \"#utility.yul\":11075:11221   */\n      tag_219\n        /* \"#utility.yul\":11216:11220   */\n      dup2\n        /* \"#utility.yul\":11207:11213   */\n      dup5\n        /* \"#utility.yul\":11075:11221   */\n      tag_101\n      jump\t// in\n    tag_219:\n        /* \"#utility.yul\":11067:11221   */\n      swap1\n      pop\n        /* \"#utility.yul\":10779:11228   */\n      swap3\n      swap2\n      pop\n      pop\n      jump\t// out\n        /* \"#utility.yul\":11234:11414   */\n    tag_102:\n        /* \"#utility.yul\":11282:11359   */\n      0x4e487b7100000000000000000000000000000000000000000000000000000000\n        /* \"#utility.yul\":11279:11280   */\n      0x00\n        /* \"#utility.yul\":11272:11360   */\n      mstore\n        /* \"#utility.yul\":11379:11383   */\n      0x22\n        /* \"#utility.yul\":11376:11377   */\n      0x04\n        /* \"#utility.yul\":11369:11384   */\n      mstore\n        /* \"#utility.yul\":11403:11407   */\n      0x24\n        /* \"#utility.yul\":11400:11401   */\n      0x00\n        /* \"#utility.yul\":11393:11408   */\n      revert\n        /* \"#utility.yul\":11420:11740   */\n    tag_30:\n        /* \"#utility.yul\":11464:11470   */\n      0x00\n        /* \"#utility.yul\":11501:11502   */\n      0x02\n        /* \"#utility.yul\":11495:11499   */\n      dup3\n        /* \"#utility.yul\":11491:11503   */\n      div\n        /* \"#utility.yul\":11481:11503   */\n      swap1\n      pop\n        /* \"#utility.yul\":11548:11549   */\n      0x01\n        /* \"#utility.yul\":11542:11546   */\n      dup3\n        /* \"#utility.yul\":11538:11550   */\n      and\n        /* \"#utility.yul\":11569:11587   */\n      dup1\n        /* \"#utility.yul\":11559:11640   */\n      tag_222\n      jumpi\n        /* \"#utility.yul\":11625:11629   */\n      0x7f\n        /* \"#utility.yul\":11617:11623   */\n      dup3\n        /* \"#utility.yul\":11613:11630   */\n      and\n        /* \"#utility.yul\":11603:11630   */\n      swap2\n      pop\n        /* \"#utility.yul\":11559:11640   */\n    tag_222:\n        /* \"#utility.yul\":11687:11689   */\n      0x20\n        /* \"#utility.yul\":11679:11685   */\n      dup3\n        /* \"#utility.yul\":11676:11690   */\n      lt\n        /* \"#utility.yul\":11656:11674   */\n      dup2\n        /* \"#utility.yul\":11653:11691   */\n      eq\n        /* \"#utility.yul\":11650:11734   */\n      iszero\n      tag_223\n      jumpi\n        /* \"#utility.yul\":11706:11724   */\n      tag_224\n      tag_102\n      jump\t// in\n    tag_224:\n        /* \"#utility.yul\":11650:11734   */\n    tag_223:\n        /* \"#utility.yul\":11471:11740   */\n      pop\n        /* \"#utility.yul\":11420:11740   */\n      swap2\n      swap1\n      pop\n      jump\t// out\n        /* \"#utility.yul\":11746:11914   */\n    tag_103:\n        /* \"#utility.yul\":11886:11906   */\n      0x496e646578206f7574206f662072616e67650000000000000000000000000000\n        /* \"#utility.yul\":11882:11883   */\n      0x00\n        /* \"#utility.yul\":11874:11880   */\n      dup3\n        /* \"#utility.yul\":11870:11884   */\n      add\n        /* \"#utility.yul\":11863:11907   */\n      mstore\n        /* \"#utility.yul\":11746:11914   */\n      pop\n      jump\t// out\n        /* \"#utility.yul\":11920:12286   */\n    tag_104:\n        /* \"#utility.yul\":12062:12065   */\n      0x00\n        /* \"#utility.yul\":12083:12150   */\n      tag_227\n        /* \"#utility.yul\":12147:12149   */\n      0x12\n        /* \"#utility.yul\":12142:12145   */\n      dup4\n        /* \"#utility.yul\":12083:12150   */\n      tag_79\n      jump\t// in\n    tag_227:\n        /* \"#utility.yul\":12076:12150   */\n      swap2\n      pop\n        /* \"#utility.yul\":12159:12252   */\n      tag_228\n        /* \"#utility.yul\":12248:12251   */\n      dup3\n        /* \"#utility.yul\":12159:12252   */\n      tag_103\n      jump\t// in\n    tag_228:\n        /* \"#utility.yul\":12277:12279   */\n      0x20\n        /* \"#utility.yul\":12272:12275   */\n      dup3\n        /* \"#utility.yul\":12268:12280   */\n      add\n        /* \"#utility.yul\":12261:12280   */\n      swap1\n      pop\n        /* \"#utility.yul\":11920:12286   */\n      swap2\n      swap1\n      pop\n      jump\t// out\n        /* \"#utility.yul\":12292:12711   */\n    tag_42:\n        /* \"#utility.yul\":12458:12462   */\n      0x00\n        /* \"#utility.yul\":12496:12498   */\n      0x20\n        /* \"#utility.yul\":12485:12494   */\n      dup3\n        /* \"#utility.yul\":12481:12499   */\n      add\n        /* \"#utility.yul\":12473:12499   */\n      swap1\n      pop\n        /* \"#utility.yul\":12545:12554   */\n      dup2\n        /* \"#utility.yul\":12539:12543   */\n      dup2\n        /* \"#utility.yul\":12535:12555   */\n      sub\n        /* \"#utility.yul\":12531:12532   */\n      0x00\n        /* \"#utility.yul\":12520:12529   */\n      dup4\n        /* \"#utility.yul\":12516:12533   */\n      add\n        /* \"#utility.yul\":12509:12556   */\n      mstore\n        /* \"#utility.yul\":12573:12704   */\n      tag_230\n        /* \"#utility.yul\":12699:12703   */\n      dup2\n        /* \"#utility.yul\":12573:12704   */\n      tag_104\n      jump\t// in\n    tag_230:\n        /* \"#utility.yul\":12565:12704   */\n      swap1\n      pop\n        /* \"#utility.yul\":12292:12711   */\n      swap2\n      swap1\n      pop\n      jump\t// out\n        /* \"#utility.yul\":12717:12897   */\n    tag_45:\n        /* \"#utility.yul\":12765:12842   */\n      0x4e487b7100000000000000000000000000000000000000000000000000000000\n        /* \"#utility.yul\":12762:12763   */\n      0x00\n        /* \"#utility.yul\":12755:12843   */\n      mstore\n        /* \"#utility.yul\":12862:12866   */\n      0x32\n        /* \"#utility.yul\":12859:12860   */\n      0x04\n        /* \"#utility.yul\":12852:12867   */\n      mstore\n        /* \"#utility.yul\":12886:12890   */\n      0x24\n        /* \"#utility.yul\":12883:12884   */\n      0x00\n        /* \"#utility.yul\":12876:12891   */\n      revert\n\n    auxdata: 0xa26469706673582212201c8a8b9ba39d73a6b9b33aa31a0b8e5eea9b235980c72980f6327b2492fb717264736f6c634300080b0033\n}\n",
				"bytecode": {
					"linkReferences": {},
					"object": "608060405234801561001057600080fd5b50610c26806100206000396000f3fe608060405234801561001057600080fd5b506004361061004c5760003560e01c80630d005e611461005157806367dcc595146100835780637dceca2d1461009f578063b4c7d135146100bb575b600080fd5b61006b60048036038101906100669190610614565b6100eb565b60405161007a939291906106fc565b60405180910390f35b61009d6004803603810190610098919061086f565b6101ba565b005b6100b960048036038101906100b491906108cb565b610279565b005b6100d560048036038101906100d0919061093a565b610386565b6040516100e29190610ad2565b60405180910390f35b6000602052816000526040600020818154811061010757600080fd5b90600052602060002090600302016000915091505080600001549080600101805461013190610b23565b80601f016020809104026020016040519081016040528092919081815260200182805461015d90610b23565b80156101aa5780601f1061017f576101008083540402835291602001916101aa565b820191906000526020600020905b81548152906001019060200180831161018d57829003601f168201915b5050505050908060020154905083565b600060405180606001604052804281526020018481526020018381525090506000803373ffffffffffffffffffffffffffffffffffffffff1673ffffffffffffffffffffffffffffffffffffffff1681526020019081526020016000208190806001815401808255809150506001900390600052602060002090600302016000909190919091506000820151816000015560208201518160010190805190602001906102679291906104c9565b50604082015181600201555050505050565b6000803373ffffffffffffffffffffffffffffffffffffffff1673ffffffffffffffffffffffffffffffffffffffff1681526020019081526020016000208054905083106102fc576040517f08c379a00000000000000000000000000000000000000000000000000000000081526004016102f390610ba1565b60405180910390fd5b60008060003373ffffffffffffffffffffffffffffffffffffffff1673ffffffffffffffffffffffffffffffffffffffff168152602001908152602001600020848154811061034e5761034d610bc1565b5b90600052602060002090600302019050828160010190805190602001906103769291906104c9565b5081816002018190555050505050565b60606000808373ffffffffffffffffffffffffffffffffffffffff1673ffffffffffffffffffffffffffffffffffffffff168152602001908152602001600020805480602002602001604051908101604052809291908181526020016000905b828210156104be57838290600052602060002090600302016040518060600160405290816000820154815260200160018201805461042390610b23565b80601f016020809104026020016040519081016040528092919081815260200182805461044f90610b23565b801561049c5780601f106104715761010080835404028352916020019161049c565b820191906000526020600020905b81548152906001019060200180831161047f57829003601f168201915b50505050508152602001600282015481525050815260200190600101906103e6565b505050509050919050565b8280546104d590610b23565b90600052602060002090601f0160209004810192826104f7576000855561053e565b82601f1061051057805160ff191683800117855561053e565b8280016001018555821561053e579182015b8281111561053d578251825591602001919060010190610522565b5b50905061054b919061054f565b5090565b5b80821115610568576000816000905550600101610550565b5090565b6000604051905090565b600080fd5b600080fd5b600073ffffffffffffffffffffffffffffffffffffffff82169050919050565b60006105ab82610580565b9050919050565b6105bb816105a0565b81146105c657600080fd5b50565b6000813590506105d8816105b2565b92915050565b6000819050919050565b6105f1816105de565b81146105fc57600080fd5b50565b60008135905061060e816105e8565b92915050565b6000806040838503121561062b5761062a610576565b5b6000610639858286016105c9565b925050602061064a858286016105ff565b9150509250929050565b61065d816105de565b82525050565b600081519050919050565b600082825260208201905092915050565b60005b8381101561069d578082015181840152602081019050610682565b838111156106ac576000848401525b50505050565b6000601f19601f8301169050919050565b60006106ce82610663565b6106d8818561066e565b93506106e881856020860161067f565b6106f1816106b2565b840191505092915050565b60006060820190506107116000830186610654565b818103602083015261072381856106c3565b90506107326040830184610654565b949350505050565b600080fd5b600080fd5b7f4e487b7100000000000000000000000000000000000000000000000000000000600052604160045260246000fd5b61077c826106b2565b810181811067ffffffffffffffff8211171561079b5761079a610744565b5b80604052505050565b60006107ae61056c565b90506107ba8282610773565b919050565b600067ffffffffffffffff8211156107da576107d9610744565b5b6107e3826106b2565b9050602081019050919050565b82818337600083830152505050565b600061081261080d846107bf565b6107a4565b90508281526020810184848401111561082e5761082d61073f565b5b6108398482856107f0565b509392505050565b600082601f8301126108565761085561073a565b5b81356108668482602086016107ff565b91505092915050565b6000806040838503121561088657610885610576565b5b600083013567ffffffffffffffff8111156108a4576108a361057b565b5b6108b085828601610841565b92505060206108c1858286016105ff565b9150509250929050565b6000806000606084860312156108e4576108e3610576565b5b60006108f2868287016105ff565b935050602084013567ffffffffffffffff8111156109135761091261057b565b5b61091f86828701610841565b9250506040610930868287016105ff565b9150509250925092565b6000602082840312156109505761094f610576565b5b600061095e848285016105c9565b91505092915050565b600081519050919050565b600082825260208201905092915050565b6000819050602082019050919050565b61099c816105de565b82525050565b600082825260208201905092915050565b60006109be82610663565b6109c881856109a2565b93506109d881856020860161067f565b6109e1816106b2565b840191505092915050565b6000606083016000830151610a046000860182610993565b5060208301518482036020860152610a1c82826109b3565b9150506040830151610a316040860182610993565b508091505092915050565b6000610a4883836109ec565b905092915050565b6000602082019050919050565b6000610a6882610967565b610a728185610972565b935083602082028501610a8485610983565b8060005b85811015610ac05784840389528151610aa18582610a3c565b9450610aac83610a50565b925060208a01995050600181019050610a88565b50829750879550505050505092915050565b60006020820190508181036000830152610aec8184610a5d565b905092915050565b7f4e487b7100000000000000000000000000000000000000000000000000000000600052602260045260246000fd5b60006002820490506001821680610b3b57607f821691505b60208210811415610b4f57610b4e610af4565b5b50919050565b7f496e646578206f7574206f662072616e67650000000000000000000000000000600082015250565b6000610b8b60128361066e565b9150610b9682610b55565b602082019050919050565b60006020820190508181036000830152610bba81610b7e565b9050919050565b7f4e487b7100000000000000000000000000000000000000000000000000000000600052603260045260246000fdfea26469706673582212201c8a8b9ba39d73a6b9b33aa31a0b8e5eea9b235980c72980f6327b2492fb717264736f6c634300080b0033",
					"opcodes": "PUSH1 0x80 PUSH1 0x40 MSTORE CALLVALUE DUP1 ISZERO PUSH2 0x10 JUMPI PUSH1 0x0 DUP1 REVERT JUMPDEST POP PUSH2 0xC26 DUP1 PUSH2 0x20 PUSH1 0x0 CODECOPY PUSH1 0x0 RETURN INVALID PUSH1 0x80 PUSH1 0x40 MSTORE CALLVALUE DUP1 ISZERO PUSH2 0x10 JUMPI PUSH1 0x0 DUP1 REVERT JUMPDEST POP PUSH1 0x4 CALLDATASIZE LT PUSH2 0x4C JUMPI PUSH1 0x0 CALLDATALOAD PUSH1 0xE0 SHR DUP1 PUSH4 0xD005E61 EQ PUSH2 0x51 JUMPI DUP1 PUSH4 0x67DCC595 EQ PUSH2 0x83 JUMPI DUP1 PUSH4 0x7DCECA2D EQ PUSH2 0x9F JUMPI DUP1 PUSH4 0xB4C7D135 EQ PUSH2 0xBB JUMPI JUMPDEST PUSH1 0x0 DUP1 REVERT JUMPDEST PUSH2 0x6B PUSH1 0x4 DUP1 CALLDATASIZE SUB DUP2 ADD SWAP1 PUSH2 0x66 SWAP2 SWAP1 PUSH2 0x614 JUMP JUMPDEST PUSH2 0xEB JUMP JUMPDEST PUSH1 0x40 MLOAD PUSH2 0x7A SWAP4 SWAP3 SWAP2 SWAP1 PUSH2 0x6FC JUMP JUMPDEST PUSH1 0x40 MLOAD DUP1 SWAP2 SUB SWAP1 RETURN JUMPDEST PUSH2 0x9D PUSH1 0x4 DUP1 CALLDATASIZE SUB DUP2 ADD SWAP1 PUSH2 0x98 SWAP2 SWAP1 PUSH2 0x86F JUMP JUMPDEST PUSH2 0x1BA JUMP JUMPDEST STOP JUMPDEST PUSH2 0xB9 PUSH1 0x4 DUP1 CALLDATASIZE SUB DUP2 ADD SWAP1 PUSH2 0xB4 SWAP2 SWAP1 PUSH2 0x8CB JUMP JUMPDEST PUSH2 0x279 JUMP JUMPDEST STOP JUMPDEST PUSH2 0xD5 PUSH1 0x4 DUP1 CALLDATASIZE SUB DUP2 ADD SWAP1 PUSH2 0xD0 SWAP2 SWAP1 PUSH2 0x93A JUMP JUMPDEST PUSH2 0x386 JUMP JUMPDEST PUSH1 0x40 MLOAD PUSH2 0xE2 SWAP2 SWAP1 PUSH2 0xAD2 JUMP JUMPDEST PUSH1 0x40 MLOAD DUP1 SWAP2 SUB SWAP1 RETURN JUMPDEST PUSH1 0x0 PUSH1 0x20 MSTORE DUP2 PUSH1 0x0 MSTORE PUSH1 0x40 PUSH1 0x0 KECCAK256 DUP2 DUP2 SLOAD DUP2 LT PUSH2 0x107 JUMPI PUSH1 0x0 DUP1 REVERT JUMPDEST SWAP1 PUSH1 0x0 MSTORE PUSH1 0x20 PUSH1 0x0 KECCAK256 SWAP1 PUSH1 0x3 MUL ADD PUSH1 0x0 SWAP2 POP SWAP2 POP POP DUP1 PUSH1 0x0 ADD SLOAD SWAP1 DUP1 PUSH1 0x1 ADD DUP1 SLOAD PUSH2 0x131 SWAP1 PUSH2 0xB23 JUMP JUMPDEST DUP1 PUSH1 0x1F ADD PUSH1 0x20 DUP1 SWAP2 DIV MUL PUSH1 0x20 ADD PUSH1 0x40 MLOAD SWAP1 DUP2 ADD PUSH1 0x40 MSTORE DUP1 SWAP3 SWAP2 SWAP1 DUP2 DUP2 MSTORE PUSH1 0x20 ADD DUP3 DUP1 SLOAD PUSH2 0x15D SWAP1 PUSH2 0xB23 JUMP JUMPDEST DUP1 ISZERO PUSH2 0x1AA JUMPI DUP1 PUSH1 0x1F LT PUSH2 0x17F JUMPI PUSH2 0x100 DUP1 DUP4 SLOAD DIV MUL DUP4 MSTORE SWAP2 PUSH1 0x20 ADD SWAP2 PUSH2 0x1AA JUMP JUMPDEST DUP3 ADD SWAP2 SWAP1 PUSH1 0x0 MSTORE PUSH1 0x20 PUSH1 0x0 KECCAK256 SWAP1 JUMPDEST DUP2 SLOAD DUP2 MSTORE SWAP1 PUSH1 0x1 ADD SWAP1 PUSH1 0x20 ADD DUP1 DUP4 GT PUSH2 0x18D JUMPI DUP3 SWAP1 SUB PUSH1 0x1F AND DUP3 ADD SWAP2 JUMPDEST POP POP POP POP POP SWAP1 DUP1 PUSH1 0x2 ADD SLOAD SWAP1 POP DUP4 JUMP JUMPDEST PUSH1 0x0 PUSH1 0x40 MLOAD DUP1 PUSH1 0x60 ADD PUSH1 0x40 MSTORE DUP1 TIMESTAMP DUP2 MSTORE PUSH1 0x20 ADD DUP5 DUP2 MSTORE PUSH1 0x20 ADD DUP4 DUP2 MSTORE POP SWAP1 POP PUSH1 0x0 DUP1 CALLER PUSH20 0xFFFFFFFFFFFFFFFFFFFFFFFFFFFFFFFFFFFFFFFF AND PUSH20 0xFFFFFFFFFFFFFFFFFFFFFFFFFFFFFFFFFFFFFFFF AND DUP2 MSTORE PUSH1 0x20 ADD SWAP1 DUP2 MSTORE PUSH1 0x20 ADD PUSH1 0x0 KECCAK256 DUP2 SWAP1 DUP1 PUSH1 0x1 DUP2 SLOAD ADD DUP1 DUP3 SSTORE DUP1 SWAP2 POP POP PUSH1 0x1 SWAP1 SUB SWAP1 PUSH1 0x0 MSTORE PUSH1 0x20 PUSH1 0x0 KECCAK256 SWAP1 PUSH1 0x3 MUL ADD PUSH1 0x0 SWAP1 SWAP2 SWAP1 SWAP2 SWAP1 SWAP2 POP PUSH1 0x0 DUP3 ADD MLOAD DUP2 PUSH1 0x0 ADD SSTORE PUSH1 0x20 DUP3 ADD MLOAD DUP2 PUSH1 0x1 ADD SWAP1 DUP1 MLOAD SWAP1 PUSH1 0x20 ADD SWAP1 PUSH2 0x267 SWAP3 SWAP2 SWAP1 PUSH2 0x4C9 JUMP JUMPDEST POP PUSH1 0x40 DUP3 ADD MLOAD DUP2 PUSH1 0x2 ADD SSTORE POP POP POP POP POP JUMP JUMPDEST PUSH1 0x0 DUP1 CALLER PUSH20 0xFFFFFFFFFFFFFFFFFFFFFFFFFFFFFFFFFFFFFFFF AND PUSH20 0xFFFFFFFFFFFFFFFFFFFFFFFFFFFFFFFFFFFFFFFF AND DUP2 MSTORE PUSH1 0x20 ADD SWAP1 DUP2 MSTORE PUSH1 0x20 ADD PUSH1 0x0 KECCAK256 DUP1 SLOAD SWAP1 POP DUP4 LT PUSH2 0x2FC JUMPI PUSH1 0x40 MLOAD PUSH32 0x8C379A000000000000000000000000000000000000000000000000000000000 DUP2 MSTORE PUSH1 0x4 ADD PUSH2 0x2F3 SWAP1 PUSH2 0xBA1 JUMP JUMPDEST PUSH1 0x40 MLOAD DUP1 SWAP2 SUB SWAP1 REVERT JUMPDEST PUSH1 0x0 DUP1 PUSH1 0x0 CALLER PUSH20 0xFFFFFFFFFFFFFFFFFFFFFFFFFFFFFFFFFFFFFFFF AND PUSH20 0xFFFFFFFFFFFFFFFFFFFFFFFFFFFFFFFFFFFFFFFF AND DUP2 MSTORE PUSH1 0x20 ADD SWAP1 DUP2 MSTORE PUSH1 0x20 ADD PUSH1 0x0 KECCAK256 DUP5 DUP2 SLOAD DUP2 LT PUSH2 0x34E JUMPI PUSH2 0x34D PUSH2 0xBC1 JUMP JUMPDEST JUMPDEST SWAP1 PUSH1 0x0 MSTORE PUSH1 0x20 PUSH1 0x0 KECCAK256 SWAP1 PUSH1 0x3 MUL ADD SWAP1 POP DUP3 DUP2 PUSH1 0x1 ADD SWAP1 DUP1 MLOAD SWAP1 PUSH1 0x20 ADD SWAP1 PUSH2 0x376 SWAP3 SWAP2 SWAP1 PUSH2 0x4C9 JUMP JUMPDEST POP DUP2 DUP2 PUSH1 0x2 ADD DUP2 SWAP1 SSTORE POP POP POP POP POP JUMP JUMPDEST PUSH1 0x60 PUSH1 0x0 DUP1 DUP4 PUSH20 0xFFFFFFFFFFFFFFFFFFFFFFFFFFFFFFFFFFFFFFFF AND PUSH20 0xFFFFFFFFFFFFFFFFFFFFFFFFFFFFFFFFFFFFFFFF AND DUP2 MSTORE PUSH1 0x20 ADD SWAP1 DUP2 MSTORE PUSH1 0x20 ADD PUSH1 0x0 KECCAK256 DUP1 SLOAD DUP1 PUSH1 0x20 MUL PUSH1 0x20 ADD PUSH1 0x40 MLOAD SWAP1 DUP2 ADD PUSH1 0x40 MSTORE DUP1 SWAP3 SWAP2 SWAP1 DUP2 DUP2 MSTORE PUSH1 0x20 ADD PUSH1 0x0 SWAP1 JUMPDEST DUP3 DUP3 LT ISZERO PUSH2 0x4BE JUMPI DUP4 DUP3 SWAP1 PUSH1 0x0 MSTORE PUSH1 0x20 PUSH1 0x0 KECCAK256 SWAP1 PUSH1 0x3 MUL ADD PUSH1 0x40 MLOAD DUP1 PUSH1 0x60 ADD PUSH1 0x40 MSTORE SWAP1 DUP2 PUSH1 0x0 DUP3 ADD SLOAD DUP2 MSTORE PUSH1 0x20 ADD PUSH1 0x1 DUP3 ADD DUP1 SLOAD PUSH2 0x423 SWAP1 PUSH2 0xB23 JUMP JUMPDEST DUP1 PUSH1 0x1F ADD PUSH1 0x20 DUP1 SWAP2 DIV MUL PUSH1 0x20 ADD PUSH1 0x40 MLOAD SWAP1 DUP2 ADD PUSH1 0x40 MSTORE DUP1 SWAP3 SWAP2 SWAP1 DUP2 DUP2 MSTORE PUSH1 0x20 ADD DUP3 DUP1 SLOAD PUSH2 0x44F SWAP1 PUSH2 0xB23 JUMP JUMPDEST DUP1 ISZERO PUSH2 0x49C JUMPI DUP1 PUSH1 0x1F LT PUSH2 0x471 JUMPI PUSH2 0x100 DUP1 DUP4 SLOAD DIV MUL DUP4 MSTORE SWAP2 PUSH1 0x20 ADD SWAP2 PUSH2 0x49C JUMP JUMPDEST DUP3 ADD SWAP2 SWAP1 PUSH1 0x0 MSTORE PUSH1 0x20 PUSH1 0x0 KECCAK256 SWAP1 JUMPDEST DUP2 SLOAD DUP2 MSTORE SWAP1 PUSH1 0x1 ADD SWAP1 PUSH1 0x20 ADD DUP1 DUP4 GT PUSH2 0x47F JUMPI DUP3 SWAP1 SUB PUSH1 0x1F AND DUP3 ADD SWAP2 JUMPDEST POP POP POP POP POP DUP2 MSTORE PUSH1 0x20 ADD PUSH1 0x2 DUP3 ADD SLOAD DUP2 MSTORE POP POP DUP2 MSTORE PUSH1 0x20 ADD SWAP1 PUSH1 0x1 ADD SWAP1 PUSH2 0x3E6 JUMP JUMPDEST POP POP POP POP SWAP1 POP SWAP2 SWAP1 POP JUMP JUMPDEST DUP3 DUP1 SLOAD PUSH2 0x4D5 SWAP1 PUSH2 0xB23 JUMP JUMPDEST SWAP1 PUSH1 0x0 MSTORE PUSH1 0x20 PUSH1 0x0 KECCAK256 SWAP1 PUSH1 0x1F ADD PUSH1 0x20 SWAP1 DIV DUP2 ADD SWAP3 DUP3 PUSH2 0x4F7 JUMPI PUSH1 0x0 DUP6 SSTORE PUSH2 0x53E JUMP JUMPDEST DUP3 PUSH1 0x1F LT PUSH2 0x510 JUMPI DUP1 MLOAD PUSH1 0xFF NOT AND DUP4 DUP1 ADD OR DUP6 SSTORE PUSH2 0x53E JUMP JUMPDEST DUP3 DUP1 ADD PUSH1 0x1 ADD DUP6 SSTORE DUP3 ISZERO PUSH2 0x53E JUMPI SWAP2 DUP3 ADD JUMPDEST DUP3 DUP2 GT ISZERO PUSH2 0x53D JUMPI DUP3 MLOAD DUP3 SSTORE SWAP2 PUSH1 0x20 ADD SWAP2 SWAP1 PUSH1 0x1 ADD SWAP1 PUSH2 0x522 JUMP JUMPDEST JUMPDEST POP SWAP1 POP PUSH2 0x54B SWAP2 SWAP1 PUSH2 0x54F JUMP JUMPDEST POP SWAP1 JUMP JUMPDEST JUMPDEST DUP1 DUP3 GT ISZERO PUSH2 0x568 JUMPI PUSH1 0x0 DUP2 PUSH1 0x0 SWAP1 SSTORE POP PUSH1 0x1 ADD PUSH2 0x550 JUMP JUMPDEST POP SWAP1 JUMP JUMPDEST PUSH1 0x0 PUSH1 0x40 MLOAD SWAP1 POP SWAP1 JUMP JUMPDEST PUSH1 0x0 DUP1 REVERT JUMPDEST PUSH1 0x0 DUP1 REVERT JUMPDEST PUSH1 0x0 PUSH20 0xFFFFFFFFFFFFFFFFFFFFFFFFFFFFFFFFFFFFFFFF DUP3 AND SWAP1 POP SWAP2 SWAP1 POP JUMP JUMPDEST PUSH1 0x0 PUSH2 0x5AB DUP3 PUSH2 0x580 JUMP JUMPDEST SWAP1 POP SWAP2 SWAP1 POP JUMP JUMPDEST PUSH2 0x5BB DUP2 PUSH2 0x5A0 JUMP JUMPDEST DUP2 EQ PUSH2 0x5C6 JUMPI PUSH1 0x0 DUP1 REVERT JUMPDEST POP JUMP JUMPDEST PUSH1 0x0 DUP2 CALLDATALOAD SWAP1 POP PUSH2 0x5D8 DUP2 PUSH2 0x5B2 JUMP JUMPDEST SWAP3 SWAP2 POP POP JUMP JUMPDEST PUSH1 0x0 DUP2 SWAP1 POP SWAP2 SWAP1 POP JUMP JUMPDEST PUSH2 0x5F1 DUP2 PUSH2 0x5DE JUMP JUMPDEST DUP2 EQ PUSH2 0x5FC JUMPI PUSH1 0x0 DUP1 REVERT JUMPDEST POP JUMP JUMPDEST PUSH1 0x0 DUP2 CALLDATALOAD SWAP1 POP PUSH2 0x60E DUP2 PUSH2 0x5E8 JUMP JUMPDEST SWAP3 SWAP2 POP POP JUMP JUMPDEST PUSH1 0x0 DUP1 PUSH1 0x40 DUP4 DUP6 SUB SLT ISZERO PUSH2 0x62B JUMPI PUSH2 0x62A PUSH2 0x576 JUMP JUMPDEST JUMPDEST PUSH1 0x0 PUSH2 0x639 DUP6 DUP3 DUP7 ADD PUSH2 0x5C9 JUMP JUMPDEST SWAP3 POP POP PUSH1 0x20 PUSH2 0x64A DUP6 DUP3 DUP7 ADD PUSH2 0x5FF JUMP JUMPDEST SWAP2 POP POP SWAP3 POP SWAP3 SWAP1 POP JUMP JUMPDEST PUSH2 0x65D DUP2 PUSH2 0x5DE JUMP JUMPDEST DUP3 MSTORE POP POP JUMP JUMPDEST PUSH1 0x0 DUP2 MLOAD SWAP1 POP SWAP2 SWAP1 POP JUMP JUMPDEST PUSH1 0x0 DUP3 DUP3 MSTORE PUSH1 0x20 DUP3 ADD SWAP1 POP SWAP3 SWAP2 POP POP JUMP JUMPDEST PUSH1 0x0 JUMPDEST DUP4 DUP2 LT ISZERO PUSH2 0x69D JUMPI DUP1 DUP3 ADD MLOAD DUP2 DUP5 ADD MSTORE PUSH1 0x20 DUP2 ADD SWAP1 POP PUSH2 0x682 JUMP JUMPDEST DUP4 DUP2 GT ISZERO PUSH2 0x6AC JUMPI PUSH1 0x0 DUP5 DUP5 ADD MSTORE JUMPDEST POP POP POP POP JUMP JUMPDEST PUSH1 0x0 PUSH1 0x1F NOT PUSH1 0x1F DUP4 ADD AND SWAP1 POP SWAP2 SWAP1 POP JUMP JUMPDEST PUSH1 0x0 PUSH2 0x6CE DUP3 PUSH2 0x663 JUMP JUMPDEST PUSH2 0x6D8 DUP2 DUP6 PUSH2 0x66E JUMP JUMPDEST SWAP4 POP PUSH2 0x6E8 DUP2 DUP6 PUSH1 0x20 DUP7 ADD PUSH2 0x67F JUMP JUMPDEST PUSH2 0x6F1 DUP2 PUSH2 0x6B2 JUMP JUMPDEST DUP5 ADD SWAP2 POP POP SWAP3 SWAP2 POP POP JUMP JUMPDEST PUSH1 0x0 PUSH1 0x60 DUP3 ADD SWAP1 POP PUSH2 0x711 PUSH1 0x0 DUP4 ADD DUP7 PUSH2 0x654 JUMP JUMPDEST DUP2 DUP2 SUB PUSH1 0x20 DUP4 ADD MSTORE PUSH2 0x723 DUP2 DUP6 PUSH2 0x6C3 JUMP JUMPDEST SWAP1 POP PUSH2 0x732 PUSH1 0x40 DUP4 ADD DUP5 PUSH2 0x654 JUMP JUMPDEST SWAP5 SWAP4 POP POP POP POP JUMP JUMPDEST PUSH1 0x0 DUP1 REVERT JUMPDEST PUSH1 0x0 DUP1 REVERT JUMPDEST PUSH32 0x4E487B7100000000000000000000000000000000000000000000000000000000 PUSH1 0x0 MSTORE PUSH1 0x41 PUSH1 0x4 MSTORE PUSH1 0x24 PUSH1 0x0 REVERT JUMPDEST PUSH2 0x77C DUP3 PUSH2 0x6B2 JUMP JUMPDEST DUP2 ADD DUP2 DUP2 LT PUSH8 0xFFFFFFFFFFFFFFFF DUP3 GT OR ISZERO PUSH2 0x79B JUMPI PUSH2 0x79A PUSH2 0x744 JUMP JUMPDEST JUMPDEST DUP1 PUSH1 0x40 MSTORE POP POP POP JUMP JUMPDEST PUSH1 0x0 PUSH2 0x7AE PUSH2 0x56C JUMP JUMPDEST SWAP1 POP PUSH2 0x7BA DUP3 DUP3 PUSH2 0x773 JUMP JUMPDEST SWAP2 SWAP1 POP JUMP JUMPDEST PUSH1 0x0 PUSH8 0xFFFFFFFFFFFFFFFF DUP3 GT ISZERO PUSH2 0x7DA JUMPI PUSH2 0x7D9 PUSH2 0x744 JUMP JUMPDEST JUMPDEST PUSH2 0x7E3 DUP3 PUSH2 0x6B2 JUMP JUMPDEST SWAP1 POP PUSH1 0x20 DUP2 ADD SWAP1 POP SWAP2 SWAP1 POP JUMP JUMPDEST DUP3 DUP2 DUP4 CALLDATACOPY PUSH1 0x0 DUP4 DUP4 ADD MSTORE POP POP POP JUMP JUMPDEST PUSH1 0x0 PUSH2 0x812 PUSH2 0x80D DUP5 PUSH2 0x7BF JUMP JUMPDEST PUSH2 0x7A4 JUMP JUMPDEST SWAP1 POP DUP3 DUP2 MSTORE PUSH1 0x20 DUP2 ADD DUP5 DUP5 DUP5 ADD GT ISZERO PUSH2 0x82E JUMPI PUSH2 0x82D PUSH2 0x73F JUMP JUMPDEST JUMPDEST PUSH2 0x839 DUP5 DUP3 DUP6 PUSH2 0x7F0 JUMP JUMPDEST POP SWAP4 SWAP3 POP POP POP JUMP JUMPDEST PUSH1 0x0 DUP3 PUSH1 0x1F DUP4 ADD SLT PUSH2 0x856 JUMPI PUSH2 0x855 PUSH2 0x73A JUMP JUMPDEST JUMPDEST DUP2 CALLDATALOAD PUSH2 0x866 DUP5 DUP3 PUSH1 0x20 DUP7 ADD PUSH2 0x7FF JUMP JUMPDEST SWAP2 POP POP SWAP3 SWAP2 POP POP JUMP JUMPDEST PUSH1 0x0 DUP1 PUSH1 0x40 DUP4 DUP6 SUB SLT ISZERO PUSH2 0x886 JUMPI PUSH2 0x885 PUSH2 0x576 JUMP JUMPDEST JUMPDEST PUSH1 0x0 DUP4 ADD CALLDATALOAD PUSH8 0xFFFFFFFFFFFFFFFF DUP2 GT ISZERO PUSH2 0x8A4 JUMPI PUSH2 0x8A3 PUSH2 0x57B JUMP JUMPDEST JUMPDEST PUSH2 0x8B0 DUP6 DUP3 DUP7 ADD PUSH2 0x841 JUMP JUMPDEST SWAP3 POP POP PUSH1 0x20 PUSH2 0x8C1 DUP6 DUP3 DUP7 ADD PUSH2 0x5FF JUMP JUMPDEST SWAP2 POP POP SWAP3 POP SWAP3 SWAP1 POP JUMP JUMPDEST PUSH1 0x0 DUP1 PUSH1 0x0 PUSH1 0x60 DUP5 DUP7 SUB SLT ISZERO PUSH2 0x8E4 JUMPI PUSH2 0x8E3 PUSH2 0x576 JUMP JUMPDEST JUMPDEST PUSH1 0x0 PUSH2 0x8F2 DUP7 DUP3 DUP8 ADD PUSH2 0x5FF JUMP JUMPDEST SWAP4 POP POP PUSH1 0x20 DUP5 ADD CALLDATALOAD PUSH8 0xFFFFFFFFFFFFFFFF DUP2 GT ISZERO PUSH2 0x913 JUMPI PUSH2 0x912 PUSH2 0x57B JUMP JUMPDEST JUMPDEST PUSH2 0x91F DUP7 DUP3 DUP8 ADD PUSH2 0x841 JUMP JUMPDEST SWAP3 POP POP PUSH1 0x40 PUSH2 0x930 DUP7 DUP3 DUP8 ADD PUSH2 0x5FF JUMP JUMPDEST SWAP2 POP POP SWAP3 POP SWAP3 POP SWAP3 JUMP JUMPDEST PUSH1 0x0 PUSH1 0x20 DUP3 DUP5 SUB SLT ISZERO PUSH2 0x950 JUMPI PUSH2 0x94F PUSH2 0x576 JUMP JUMPDEST JUMPDEST PUSH1 0x0 PUSH2 0x95E DUP5 DUP3 DUP6 ADD PUSH2 0x5C9 JUMP JUMPDEST SWAP2 POP POP SWAP3 SWAP2 POP POP JUMP JUMPDEST PUSH1 0x0 DUP2 MLOAD SWAP1 POP SWAP2 SWAP1 POP JUMP JUMPDEST PUSH1 0x0 DUP3 DUP3 MSTORE PUSH1 0x20 DUP3 ADD SWAP1 POP SWAP3 SWAP2 POP POP JUMP JUMPDEST PUSH1 0x0 DUP2 SWAP1 POP PUSH1 0x20 DUP3 ADD SWAP1 POP SWAP2 SWAP1 POP JUMP JUMPDEST PUSH2 0x99C DUP2 PUSH2 0x5DE JUMP JUMPDEST DUP3 MSTORE POP POP JUMP JUMPDEST PUSH1 0x0 DUP3 DUP3 MSTORE PUSH1 0x20 DUP3 ADD SWAP1 POP SWAP3 SWAP2 POP POP JUMP JUMPDEST PUSH1 0x0 PUSH2 0x9BE DUP3 PUSH2 0x663 JUMP JUMPDEST PUSH2 0x9C8 DUP2 DUP6 PUSH2 0x9A2 JUMP JUMPDEST SWAP4 POP PUSH2 0x9D8 DUP2 DUP6 PUSH1 0x20 DUP7 ADD PUSH2 0x67F JUMP JUMPDEST PUSH2 0x9E1 DUP2 PUSH2 0x6B2 JUMP JUMPDEST DUP5 ADD SWAP2 POP POP SWAP3 SWAP2 POP POP JUMP JUMPDEST PUSH1 0x0 PUSH1 0x60 DUP4 ADD PUSH1 0x0 DUP4 ADD MLOAD PUSH2 0xA04 PUSH1 0x0 DUP7 ADD DUP3 PUSH2 0x993 JUMP JUMPDEST POP PUSH1 0x20 DUP4 ADD MLOAD DUP5 DUP3 SUB PUSH1 0x20 DUP7 ADD MSTORE PUSH2 0xA1C DUP3 DUP3 PUSH2 0x9B3 JUMP JUMPDEST SWAP2 POP POP PUSH1 0x40 DUP4 ADD MLOAD PUSH2 0xA31 PUSH1 0x40 DUP7 ADD DUP3 PUSH2 0x993 JUMP JUMPDEST POP DUP1 SWAP2 POP POP SWAP3 SWAP2 POP POP JUMP JUMPDEST PUSH1 0x0 PUSH2 0xA48 DUP4 DUP4 PUSH2 0x9EC JUMP JUMPDEST SWAP1 POP SWAP3 SWAP2 POP POP JUMP JUMPDEST PUSH1 0x0 PUSH1 0x20 DUP3 ADD SWAP1 POP SWAP2 SWAP1 POP JUMP JUMPDEST PUSH1 0x0 PUSH2 0xA68 DUP3 PUSH2 0x967 JUMP JUMPDEST PUSH2 0xA72 DUP2 DUP6 PUSH2 0x972 JUMP JUMPDEST SWAP4 POP DUP4 PUSH1 0x20 DUP3 MUL DUP6 ADD PUSH2 0xA84 DUP6 PUSH2 0x983 JUMP JUMPDEST DUP1 PUSH1 0x0 JUMPDEST DUP6 DUP2 LT ISZERO PUSH2 0xAC0 JUMPI DUP5 DUP5 SUB DUP10 MSTORE DUP2 MLOAD PUSH2 0xAA1 DUP6 DUP3 PUSH2 0xA3C JUMP JUMPDEST SWAP5 POP PUSH2 0xAAC DUP4 PUSH2 0xA50 JUMP JUMPDEST SWAP3 POP PUSH1 0x20 DUP11 ADD SWAP10 POP POP PUSH1 0x1 DUP2 ADD SWAP1 POP PUSH2 0xA88 JUMP JUMPDEST POP DUP3 SWAP8 POP DUP8 SWAP6 POP POP POP POP POP POP SWAP3 SWAP2 POP POP JUMP JUMPDEST PUSH1 0x0 PUSH1 0x20 DUP3 ADD SWAP1 POP DUP2 DUP2 SUB PUSH1 0x0 DUP4 ADD MSTORE PUSH2 0xAEC DUP2 DUP5 PUSH2 0xA5D JUMP JUMPDEST SWAP1 POP SWAP3 SWAP2 POP POP JUMP JUMPDEST PUSH32 0x4E487B7100000000000000000000000000000000000000000000000000000000 PUSH1 0x0 MSTORE PUSH1 0x22 PUSH1 0x4 MSTORE PUSH1 0x24 PUSH1 0x0 REVERT JUMPDEST PUSH1 0x0 PUSH1 0x2 DUP3 DIV SWAP1 POP PUSH1 0x1 DUP3 AND DUP1 PUSH2 0xB3B JUMPI PUSH1 0x7F DUP3 AND SWAP2 POP JUMPDEST PUSH1 0x20 DUP3 LT DUP2 EQ ISZERO PUSH2 0xB4F JUMPI PUSH2 0xB4E PUSH2 0xAF4 JUMP JUMPDEST JUMPDEST POP SWAP2 SWAP1 POP JUMP JUMPDEST PUSH32 0x496E646578206F7574206F662072616E67650000000000000000000000000000 PUSH1 0x0 DUP3 ADD MSTORE POP JUMP JUMPDEST PUSH1 0x0 PUSH2 0xB8B PUSH1 0x12 DUP4 PUSH2 0x66E JUMP JUMPDEST SWAP2 POP PUSH2 0xB96 DUP3 PUSH2 0xB55 JUMP JUMPDEST PUSH1 0x20 DUP3 ADD SWAP1 POP SWAP2 SWAP1 POP JUMP JUMPDEST PUSH1 0x0 PUSH1 0x20 DUP3 ADD SWAP1 POP DUP2 DUP2 SUB PUSH1 0x0 DUP4 ADD MSTORE PUSH2 0xBBA DUP2 PUSH2 0xB7E JUMP JUMPDEST SWAP1 POP SWAP2 SWAP1 POP JUMP JUMPDEST PUSH32 0x4E487B7100000000000000000000000000000000000000000000000000000000 PUSH1 0x0 MSTORE PUSH1 0x32 PUSH1 0x4 MSTORE PUSH1 0x24 PUSH1 0x0 REVERT INVALID LOG2 PUSH5 0x6970667358 0x22 SLT KECCAK256 SHR DUP11 DUP12 SWAP12 LOG3 SWAP14 PUSH20 0xA6B9B33AA31A0B8E5EEA9B235980C72980F6327B 0x24 SWAP3 0xFB PUSH18 0x7264736F6C634300080B0033000000000000 "
				},
				"gasEstimates": {
					"creation": {
						"codeDepositCost": "622000",
						"executionCost": "657",
						"totalCost": "622657"
					},
					"external": {
						"addToll(string,uint256)": "infinite",
						"getTolls(address)": "infinite",
						"tolls(address,uint256)": "infinite",
						"updateToll(uint256,string,uint256)": "infinite"
					}
				},
				"methodIdentifiers": {
					"addToll(string,uint256)": "67dcc595",
					"getTolls(address)": "b4c7d135",
					"tolls(address,uint256)": "0d005e61",
					"updateToll(uint256,string,uint256)": "7dceca2d"
				}
			},
			"storageLayout": {
				"storage": [
					{
						"astId": 14,
						"contract": "Toll Free Data Project 16/Toll Free.sol:TollFree",
						"label": "tolls",
						"offset": 0,
						"slot": "0",
						"type": "t_mapping(t_address,t_array(t_struct(Toll)8_storage)dyn_storage)"
					}
				],
				"types": {
					"t_address": {
						"encoding": "inplace",
						"label": "address",
						"numberOfBytes": "20"
					},
					"t_array(t_struct(Toll)8_storage)dyn_storage": {
						"base": "t_struct(Toll)8_storage",
						"encoding": "dynamic_array",
						"label": "struct TollFree.Toll[]",
						"numberOfBytes": "32"
					},
					"t_mapping(t_address,t_array(t_struct(Toll)8_storage)dyn_storage)": {
						"encoding": "mapping",
						"key": "t_address",
						"label": "mapping(address => struct TollFree.Toll[])",
						"numberOfBytes": "32",
						"value": "t_array(t_struct(Toll)8_storage)dyn_storage"
					},
					"t_string_storage": {
						"encoding": "bytes",
						"label": "string",
						"numberOfBytes": "32"
					},
					"t_struct(Toll)8_storage": {
						"encoding": "inplace",
						"label": "struct TollFree.Toll",
						"members": [
							{
								"astId": 3,
								"contract": "Toll Free Data Project 16/Toll Free.sol:TollFree",
								"label": "timestamp",
								"offset": 0,
								"slot": "0",
								"type": "t_uint256"
							},
							{
								"astId": 5,
								"contract": "Toll Free Data Project 16/Toll Free.sol:TollFree",
								"label": "location",
								"offset": 0,
								"slot": "1",
								"type": "t_string_storage"
							},
							{
								"astId": 7,
								"contract": "Toll Free Data Project 16/Toll Free.sol:TollFree",
								"label": "amount",
								"offset": 0,
								"slot": "2",
								"type": "t_uint256"
							}
						],
						"numberOfBytes": "96"
					},
					"t_uint256": {
						"encoding": "inplace",
						"label": "uint256",
						"numberOfBytes": "32"
					}
				}
			},
			"userdoc": {
				"kind": "user",
				"methods": {},
				"version": 1
			}
		}
	}
}