{
	"Identity Details Project 7/Identity Details.sol": {
		"IdentityRegistry": {
			"abi": [
				{
					"anonymous": false,
					"inputs": [
						{
							"indexed": true,
							"internalType": "address",
							"name": "owner",
							"type": "address"
						},
						{
							"indexed": false,
							"internalType": "string",
							"name": "name",
							"type": "string"
						},
						{
							"indexed": false,
							"internalType": "uint256",
							"name": "age",
							"type": "uint256"
						},
						{
							"indexed": false,
							"internalType": "string",
							"name": "location",
							"type": "string"
						},
						{
							"indexed": false,
							"internalType": "string",
							"name": "governmentId",
							"type": "string"
						}
					],
					"name": "identityCreated",
					"type": "event"
				},
				{
					"inputs": [
						{
							"internalType": "string",
							"name": "_name",
							"type": "string"
						},
						{
							"internalType": "uint256",
							"name": "_age",
							"type": "uint256"
						},
						{
							"internalType": "string",
							"name": "_location",
							"type": "string"
						},
						{
							"internalType": "string",
							"name": "_governmentId",
							"type": "string"
						}
					],
					"name": "createIdentity",
					"outputs": [],
					"stateMutability": "nonpayable",
					"type": "function"
				},
				{
					"inputs": [
						{
							"internalType": "address",
							"name": "_address",
							"type": "address"
						}
					],
					"name": "getIdentity",
					"outputs": [
						{
							"internalType": "string",
							"name": "",
							"type": "string"
						},
						{
							"internalType": "uint256",
							"name": "",
							"type": "uint256"
						},
						{
							"internalType": "string",
							"name": "",
							"type": "string"
						},
						{
							"internalType": "string",
							"name": "",
							"type": "string"
						}
					],
					"stateMutability": "view",
					"type": "function"
				},
				{
					"inputs": [
						{
							"internalType": "address",
							"name": "",
							"type": "address"
						}
					],
					"name": "identities",
					"outputs": [
						{
							"internalType": "string",
							"name": "name",
							"type": "string"
						},
						{
							"internalType": "uint256",
							"name": "age",
							"type": "uint256"
						},
						{
							"internalType": "string",
							"name": "location",
							"type": "string"
						},
						{
							"internalType": "string",
							"name": "governmentId",
							"type": "string"
						}
					],
					"stateMutability": "view",
					"type": "function"
				}
			],
			"devdoc": {
				"kind": "dev",
				"methods": {},
				"version": 1
			},
			"evm": {
				"assembly": "    /* \"Identity Details Project 7/Identity Details.sol\":60:1488  contract IdentityRegistry {... */\n  mstore(0x40, 0x80)\n  callvalue\n  dup1\n  iszero\n  tag_1\n  jumpi\n  0x00\n  dup1\n  revert\ntag_1:\n  pop\n  dataSize(sub_0)\n  dup1\n  dataOffset(sub_0)\n  0x00\n  codecopy\n  0x00\n  return\nstop\n\nsub_0: assembly {\n        /* \"Identity Details Project 7/Identity Details.sol\":60:1488  contract IdentityRegistry {... */\n      mstore(0x40, 0x80)\n      callvalue\n      dup1\n      iszero\n      tag_1\n      jumpi\n      0x00\n      dup1\n      revert\n    tag_1:\n      pop\n      jumpi(tag_2, lt(calldatasize, 0x04))\n      shr(0xe0, calldataload(0x00))\n      dup1\n      0x2fea7b81\n      eq\n      tag_3\n      jumpi\n      dup1\n      0x37c5c011\n      eq\n      tag_4\n      jumpi\n      dup1\n      0xf653b81e\n      eq\n      tag_5\n      jumpi\n    tag_2:\n      0x00\n      dup1\n      revert\n        /* \"Identity Details Project 7/Identity Details.sol\":1058:1485  function getIdentity(address _address)... */\n    tag_3:\n      tag_6\n      0x04\n      dup1\n      calldatasize\n      sub\n      dup2\n      add\n      swap1\n      tag_7\n      swap2\n      swap1\n      tag_8\n      jump\t// in\n    tag_7:\n      tag_9\n      jump\t// in\n    tag_6:\n      mload(0x40)\n      tag_10\n      swap5\n      swap4\n      swap3\n      swap2\n      swap1\n      tag_11\n      jump\t// in\n    tag_10:\n      mload(0x40)\n      dup1\n      swap2\n      sub\n      swap1\n      return\n        /* \"Identity Details Project 7/Identity Details.sol\":590:989  function createIdentity(... */\n    tag_4:\n      tag_12\n      0x04\n      dup1\n      calldatasize\n      sub\n      dup2\n      add\n      swap1\n      tag_13\n      swap2\n      swap1\n      tag_14\n      jump\t// in\n    tag_13:\n      tag_15\n      jump\t// in\n    tag_12:\n      stop\n        /* \"Identity Details Project 7/Identity Details.sol\":291:337  mapping(address => Identity) public identities */\n    tag_5:\n      tag_16\n      0x04\n      dup1\n      calldatasize\n      sub\n      dup2\n      add\n      swap1\n      tag_17\n      swap2\n      swap1\n      tag_8\n      jump\t// in\n    tag_17:\n      tag_18\n      jump\t// in\n    tag_16:\n      mload(0x40)\n      tag_19\n      swap5\n      swap4\n      swap3\n      swap2\n      swap1\n      tag_11\n      jump\t// in\n    tag_19:\n      mload(0x40)\n      dup1\n      swap2\n      sub\n      swap1\n      return\n        /* \"Identity Details Project 7/Identity Details.sol\":1058:1485  function getIdentity(address _address)... */\n    tag_9:\n        /* \"Identity Details Project 7/Identity Details.sol\":1159:1172  string memory */\n      0x60\n        /* \"Identity Details Project 7/Identity Details.sol\":1187:1194  uint256 */\n      0x00\n        /* \"Identity Details Project 7/Identity Details.sol\":1209:1222  string memory */\n      0x60\n        /* \"Identity Details Project 7/Identity Details.sol\":1237:1250  string memory */\n      dup1\n        /* \"Identity Details Project 7/Identity Details.sol\":1278:1302  Identity memory identity */\n      0x00\n        /* \"Identity Details Project 7/Identity Details.sol\":1305:1315  identities */\n      dup1\n        /* \"Identity Details Project 7/Identity Details.sol\":1305:1325  identities[_address] */\n      0x00\n        /* \"Identity Details Project 7/Identity Details.sol\":1316:1324  _address */\n      dup8\n        /* \"Identity Details Project 7/Identity Details.sol\":1305:1325  identities[_address] */\n      0xffffffffffffffffffffffffffffffffffffffff\n      and\n      0xffffffffffffffffffffffffffffffffffffffff\n      and\n      dup2\n      mstore\n      0x20\n      add\n      swap1\n      dup2\n      mstore\n      0x20\n      add\n      0x00\n      keccak256\n        /* \"Identity Details Project 7/Identity Details.sol\":1278:1325  Identity memory identity = identities[_address] */\n      mload(0x40)\n      dup1\n      0x80\n      add\n      0x40\n      mstore\n      swap1\n      dup2\n      0x00\n      dup3\n      add\n      dup1\n      sload\n      tag_21\n      swap1\n      tag_22\n      jump\t// in\n    tag_21:\n      dup1\n      0x1f\n      add\n      0x20\n      dup1\n      swap2\n      div\n      mul\n      0x20\n      add\n      mload(0x40)\n      swap1\n      dup2\n      add\n      0x40\n      mstore\n      dup1\n      swap3\n      swap2\n      swap1\n      dup2\n      dup2\n      mstore\n      0x20\n      add\n      dup3\n      dup1\n      sload\n      tag_23\n      swap1\n      tag_22\n      jump\t// in\n    tag_23:\n      dup1\n      iszero\n      tag_24\n      jumpi\n      dup1\n      0x1f\n      lt\n      tag_25\n      jumpi\n      0x0100\n      dup1\n      dup4\n      sload\n      div\n      mul\n      dup4\n      mstore\n      swap2\n      0x20\n      add\n      swap2\n      jump(tag_24)\n    tag_25:\n      dup3\n      add\n      swap2\n      swap1\n      0x00\n      mstore\n      keccak256(0x00, 0x20)\n      swap1\n    tag_26:\n      dup2\n      sload\n      dup2\n      mstore\n      swap1\n      0x01\n      add\n      swap1\n      0x20\n      add\n      dup1\n      dup4\n      gt\n      tag_26\n      jumpi\n      dup3\n      swap1\n      sub\n      0x1f\n      and\n      dup3\n      add\n      swap2\n    tag_24:\n      pop\n      pop\n      pop\n      pop\n      pop\n      dup2\n      mstore\n      0x20\n      add\n      0x01\n      dup3\n      add\n      sload\n      dup2\n      mstore\n      0x20\n      add\n      0x02\n      dup3\n      add\n      dup1\n      sload\n      tag_27\n      swap1\n      tag_22\n      jump\t// in\n    tag_27:\n      dup1\n      0x1f\n      add\n      0x20\n      dup1\n      swap2\n      div\n      mul\n      0x20\n      add\n      mload(0x40)\n      swap1\n      dup2\n      add\n      0x40\n      mstore\n      dup1\n      swap3\n      swap2\n      swap1\n      dup2\n      dup2\n      mstore\n      0x20\n      add\n      dup3\n      dup1\n      sload\n      tag_28\n      swap1\n      tag_22\n      jump\t// in\n    tag_28:\n      dup1\n      iszero\n      tag_29\n      jumpi\n      dup1\n      0x1f\n      lt\n      tag_30\n      jumpi\n      0x0100\n      dup1\n      dup4\n      sload\n      div\n      mul\n      dup4\n      mstore\n      swap2\n      0x20\n      add\n      swap2\n      jump(tag_29)\n    tag_30:\n      dup3\n      add\n      swap2\n      swap1\n      0x00\n      mstore\n      keccak256(0x00, 0x20)\n      swap1\n    tag_31:\n      dup2\n      sload\n      dup2\n      mstore\n      swap1\n      0x01\n      add\n      swap1\n      0x20\n      add\n      dup1\n      dup4\n      gt\n      tag_31\n      jumpi\n      dup3\n      swap1\n      sub\n      0x1f\n      and\n      dup3\n      add\n      swap2\n    tag_29:\n      pop\n      pop\n      pop\n      pop\n      pop\n      dup2\n      mstore\n      0x20\n      add\n      0x03\n      dup3\n      add\n      dup1\n      sload\n      tag_32\n      swap1\n      tag_22\n      jump\t// in\n    tag_32:\n      dup1\n      0x1f\n      add\n      0x20\n      dup1\n      swap2\n      div\n      mul\n      0x20\n      add\n      mload(0x40)\n      swap1\n      dup2\n      add\n      0x40\n      mstore\n      dup1\n      swap3\n      swap2\n      swap1\n      dup2\n      dup2\n      mstore\n      0x20\n      add\n      dup3\n      dup1\n      sload\n      tag_33\n      swap1\n      tag_22\n      jump\t// in\n    tag_33:\n      dup1\n      iszero\n      tag_34\n      jumpi\n      dup1\n      0x1f\n      lt\n      tag_35\n      jumpi\n      0x0100\n      dup1\n      dup4\n      sload\n      div\n      mul\n      dup4\n      mstore\n      swap2\n      0x20\n      add\n      swap2\n      jump(tag_34)\n    tag_35:\n      dup3\n      add\n      swap2\n      swap1\n      0x00\n      mstore\n      keccak256(0x00, 0x20)\n      swap1\n    tag_36:\n      dup2\n      sload\n      dup2\n      mstore\n      swap1\n      0x01\n      add\n      swap1\n      0x20\n      add\n      dup1\n      dup4\n      gt\n      tag_36\n      jumpi\n      dup3\n      swap1\n      sub\n      0x1f\n      and\n      dup3\n      add\n      swap2\n    tag_34:\n      pop\n      pop\n      pop\n      pop\n      pop\n      dup2\n      mstore\n      pop\n      pop\n      swap1\n      pop\n        /* \"Identity Details Project 7/Identity Details.sol\":1358:1366  identity */\n      dup1\n        /* \"Identity Details Project 7/Identity Details.sol\":1358:1371  identity.name */\n      0x00\n      add\n      mload\n        /* \"Identity Details Project 7/Identity Details.sol\":1386:1394  identity */\n      dup2\n        /* \"Identity Details Project 7/Identity Details.sol\":1386:1398  identity.age */\n      0x20\n      add\n      mload\n        /* \"Identity Details Project 7/Identity Details.sol\":1413:1421  identity */\n      dup3\n        /* \"Identity Details Project 7/Identity Details.sol\":1413:1430  identity.location */\n      0x40\n      add\n      mload\n        /* \"Identity Details Project 7/Identity Details.sol\":1445:1453  identity */\n      dup4\n        /* \"Identity Details Project 7/Identity Details.sol\":1445:1466  identity.governmentId */\n      0x60\n      add\n      mload\n        /* \"Identity Details Project 7/Identity Details.sol\":1336:1477  return (... */\n      swap5\n      pop\n      swap5\n      pop\n      swap5\n      pop\n      swap5\n      pop\n      pop\n        /* \"Identity Details Project 7/Identity Details.sol\":1058:1485  function getIdentity(address _address)... */\n      swap2\n      swap4\n      pop\n      swap2\n      swap4\n      jump\t// out\n        /* \"Identity Details Project 7/Identity Details.sol\":590:989  function createIdentity(... */\n    tag_15:\n        /* \"Identity Details Project 7/Identity Details.sol\":789:899  Identity(... */\n      mload(0x40)\n      dup1\n      0x80\n      add\n      0x40\n      mstore\n      dup1\n        /* \"Identity Details Project 7/Identity Details.sol\":812:817  _name */\n      dup6\n        /* \"Identity Details Project 7/Identity Details.sol\":789:899  Identity(... */\n      dup2\n      mstore\n      0x20\n      add\n        /* \"Identity Details Project 7/Identity Details.sol\":832:836  _age */\n      dup5\n        /* \"Identity Details Project 7/Identity Details.sol\":789:899  Identity(... */\n      dup2\n      mstore\n      0x20\n      add\n        /* \"Identity Details Project 7/Identity Details.sol\":851:860  _location */\n      dup4\n        /* \"Identity Details Project 7/Identity Details.sol\":789:899  Identity(... */\n      dup2\n      mstore\n      0x20\n      add\n        /* \"Identity Details Project 7/Identity Details.sol\":875:888  _governmentId */\n      dup3\n        /* \"Identity Details Project 7/Identity Details.sol\":789:899  Identity(... */\n      dup2\n      mstore\n      pop\n        /* \"Identity Details Project 7/Identity Details.sol\":764:774  identities */\n      0x00\n        /* \"Identity Details Project 7/Identity Details.sol\":764:786  identities[msg.sender] */\n      dup1\n        /* \"Identity Details Project 7/Identity Details.sol\":775:785  msg.sender */\n      caller\n        /* \"Identity Details Project 7/Identity Details.sol\":764:786  identities[msg.sender] */\n      0xffffffffffffffffffffffffffffffffffffffff\n      and\n      0xffffffffffffffffffffffffffffffffffffffff\n      and\n      dup2\n      mstore\n      0x20\n      add\n      swap1\n      dup2\n      mstore\n      0x20\n      add\n      0x00\n      keccak256\n        /* \"Identity Details Project 7/Identity Details.sol\":764:899  identities[msg.sender] = Identity(... */\n      0x00\n      dup3\n      add\n      mload\n      dup2\n      0x00\n      add\n      swap1\n      dup1\n      mload\n      swap1\n      0x20\n      add\n      swap1\n      tag_38\n      swap3\n      swap2\n      swap1\n      tag_39\n      jump\t// in\n    tag_38:\n      pop\n      0x20\n      dup3\n      add\n      mload\n      dup2\n      0x01\n      add\n      sstore\n      0x40\n      dup3\n      add\n      mload\n      dup2\n      0x02\n      add\n      swap1\n      dup1\n      mload\n      swap1\n      0x20\n      add\n      swap1\n      tag_40\n      swap3\n      swap2\n      swap1\n      tag_39\n      jump\t// in\n    tag_40:\n      pop\n      0x60\n      dup3\n      add\n      mload\n      dup2\n      0x03\n      add\n      swap1\n      dup1\n      mload\n      swap1\n      0x20\n      add\n      swap1\n      tag_41\n      swap3\n      swap2\n      swap1\n      tag_39\n      jump\t// in\n    tag_41:\n      pop\n      swap1\n      pop\n      pop\n        /* \"Identity Details Project 7/Identity Details.sol\":931:941  msg.sender */\n      caller\n        /* \"Identity Details Project 7/Identity Details.sol\":915:981  identityCreated(msg.sender, _name, _age, _location, _governmentId) */\n      0xffffffffffffffffffffffffffffffffffffffff\n      and\n      0xcf55d0809a20d892c46c194fa9b874275677aa218fac2324c65d8ef15cd13aa1\n        /* \"Identity Details Project 7/Identity Details.sol\":943:948  _name */\n      dup6\n        /* \"Identity Details Project 7/Identity Details.sol\":950:954  _age */\n      dup6\n        /* \"Identity Details Project 7/Identity Details.sol\":956:965  _location */\n      dup6\n        /* \"Identity Details Project 7/Identity Details.sol\":967:980  _governmentId */\n      dup6\n        /* \"Identity Details Project 7/Identity Details.sol\":915:981  identityCreated(msg.sender, _name, _age, _location, _governmentId) */\n      mload(0x40)\n      tag_42\n      swap5\n      swap4\n      swap3\n      swap2\n      swap1\n      tag_11\n      jump\t// in\n    tag_42:\n      mload(0x40)\n      dup1\n      swap2\n      sub\n      swap1\n      log2\n        /* \"Identity Details Project 7/Identity Details.sol\":590:989  function createIdentity(... */\n      pop\n      pop\n      pop\n      pop\n      jump\t// out\n        /* \"Identity Details Project 7/Identity Details.sol\":291:337  mapping(address => Identity) public identities */\n    tag_18:\n      mstore(0x20, 0x00)\n      dup1\n      0x00\n      mstore\n      keccak256(0x00, 0x40)\n      0x00\n      swap2\n      pop\n      swap1\n      pop\n      dup1\n      0x00\n      add\n      dup1\n      sload\n      tag_43\n      swap1\n      tag_22\n      jump\t// in\n    tag_43:\n      dup1\n      0x1f\n      add\n      0x20\n      dup1\n      swap2\n      div\n      mul\n      0x20\n      add\n      mload(0x40)\n      swap1\n      dup2\n      add\n      0x40\n      mstore\n      dup1\n      swap3\n      swap2\n      swap1\n      dup2\n      dup2\n      mstore\n      0x20\n      add\n      dup3\n      dup1\n      sload\n      tag_44\n      swap1\n      tag_22\n      jump\t// in\n    tag_44:\n      dup1\n      iszero\n      tag_45\n      jumpi\n      dup1\n      0x1f\n      lt\n      tag_46\n      jumpi\n      0x0100\n      dup1\n      dup4\n      sload\n      div\n      mul\n      dup4\n      mstore\n      swap2\n      0x20\n      add\n      swap2\n      jump(tag_45)\n    tag_46:\n      dup3\n      add\n      swap2\n      swap1\n      0x00\n      mstore\n      keccak256(0x00, 0x20)\n      swap1\n    tag_47:\n      dup2\n      sload\n      dup2\n      mstore\n      swap1\n      0x01\n      add\n      swap1\n      0x20\n      add\n      dup1\n      dup4\n      gt\n      tag_47\n      jumpi\n      dup3\n      swap1\n      sub\n      0x1f\n      and\n      dup3\n      add\n      swap2\n    tag_45:\n      pop\n      pop\n      pop\n      pop\n      pop\n      swap1\n      dup1\n      0x01\n      add\n      sload\n      swap1\n      dup1\n      0x02\n      add\n      dup1\n      sload\n      tag_48\n      swap1\n      tag_22\n      jump\t// in\n    tag_48:\n      dup1\n      0x1f\n      add\n      0x20\n      dup1\n      swap2\n      div\n      mul\n      0x20\n      add\n      mload(0x40)\n      swap1\n      dup2\n      add\n      0x40\n      mstore\n      dup1\n      swap3\n      swap2\n      swap1\n      dup2\n      dup2\n      mstore\n      0x20\n      add\n      dup3\n      dup1\n      sload\n      tag_49\n      swap1\n      tag_22\n      jump\t// in\n    tag_49:\n      dup1\n      iszero\n      tag_50\n      jumpi\n      dup1\n      0x1f\n      lt\n      tag_51\n      jumpi\n      0x0100\n      dup1\n      dup4\n      sload\n      div\n      mul\n      dup4\n      mstore\n      swap2\n      0x20\n      add\n      swap2\n      jump(tag_50)\n    tag_51:\n      dup3\n      add\n      swap2\n      swap1\n      0x00\n      mstore\n      keccak256(0x00, 0x20)\n      swap1\n    tag_52:\n      dup2\n      sload\n      dup2\n      mstore\n      swap1\n      0x01\n      add\n      swap1\n      0x20\n      add\n      dup1\n      dup4\n      gt\n      tag_52\n      jumpi\n      dup3\n      swap1\n      sub\n      0x1f\n      and\n      dup3\n      add\n      swap2\n    tag_50:\n      pop\n      pop\n      pop\n      pop\n      pop\n      swap1\n      dup1\n      0x03\n      add\n      dup1\n      sload\n      tag_53\n      swap1\n      tag_22\n      jump\t// in\n    tag_53:\n      dup1\n      0x1f\n      add\n      0x20\n      dup1\n      swap2\n      div\n      mul\n      0x20\n      add\n      mload(0x40)\n      swap1\n      dup2\n      add\n      0x40\n      mstore\n      dup1\n      swap3\n      swap2\n      swap1\n      dup2\n      dup2\n      mstore\n      0x20\n      add\n      dup3\n      dup1\n      sload\n      tag_54\n      swap1\n      tag_22\n      jump\t// in\n    tag_54:\n      dup1\n      iszero\n      tag_55\n      jumpi\n      dup1\n      0x1f\n      lt\n      tag_56\n      jumpi\n      0x0100\n      dup1\n      dup4\n      sload\n      div\n      mul\n      dup4\n      mstore\n      swap2\n      0x20\n      add\n      swap2\n      jump(tag_55)\n    tag_56:\n      dup3\n      add\n      swap2\n      swap1\n      0x00\n      mstore\n      keccak256(0x00, 0x20)\n      swap1\n    tag_57:\n      dup2\n      sload\n      dup2\n      mstore\n      swap1\n      0x01\n      add\n      swap1\n      0x20\n      add\n      dup1\n      dup4\n      gt\n      tag_57\n      jumpi\n      dup3\n      swap1\n      sub\n      0x1f\n      and\n      dup3\n      add\n      swap2\n    tag_55:\n      pop\n      pop\n      pop\n      pop\n      pop\n      swap1\n      pop\n      dup5\n      jump\t// out\n    tag_39:\n      dup3\n      dup1\n      sload\n      tag_58\n      swap1\n      tag_22\n      jump\t// in\n    tag_58:\n      swap1\n      0x00\n      mstore\n      keccak256(0x00, 0x20)\n      swap1\n      0x1f\n      add\n      0x20\n      swap1\n      div\n      dup2\n      add\n      swap3\n      dup3\n      tag_60\n      jumpi\n      0x00\n      dup6\n      sstore\n      jump(tag_59)\n    tag_60:\n      dup3\n      0x1f\n      lt\n      tag_61\n      jumpi\n      dup1\n      mload\n      not(0xff)\n      and\n      dup4\n      dup1\n      add\n      or\n      dup6\n      sstore\n      jump(tag_59)\n    tag_61:\n      dup3\n      dup1\n      add\n      0x01\n      add\n      dup6\n      sstore\n      dup3\n      iszero\n      tag_59\n      jumpi\n      swap2\n      dup3\n      add\n    tag_62:\n      dup3\n      dup2\n      gt\n      iszero\n      tag_63\n      jumpi\n      dup3\n      mload\n      dup3\n      sstore\n      swap2\n      0x20\n      add\n      swap2\n      swap1\n      0x01\n      add\n      swap1\n      jump(tag_62)\n    tag_63:\n    tag_59:\n      pop\n      swap1\n      pop\n      tag_64\n      swap2\n      swap1\n      tag_65\n      jump\t// in\n    tag_64:\n      pop\n      swap1\n      jump\t// out\n    tag_65:\n    tag_66:\n      dup1\n      dup3\n      gt\n      iszero\n      tag_67\n      jumpi\n      0x00\n      dup2\n      0x00\n      swap1\n      sstore\n      pop\n      0x01\n      add\n      jump(tag_66)\n    tag_67:\n      pop\n      swap1\n      jump\t// out\n        /* \"#utility.yul\":7:82   */\n    tag_68:\n        /* \"#utility.yul\":40:46   */\n      0x00\n        /* \"#utility.yul\":73:75   */\n      0x40\n        /* \"#utility.yul\":67:76   */\n      mload\n        /* \"#utility.yul\":57:76   */\n      swap1\n      pop\n        /* \"#utility.yul\":7:82   */\n      swap1\n      jump\t// out\n        /* \"#utility.yul\":88:205   */\n    tag_69:\n        /* \"#utility.yul\":197:198   */\n      0x00\n        /* \"#utility.yul\":194:195   */\n      dup1\n        /* \"#utility.yul\":187:199   */\n      revert\n        /* \"#utility.yul\":211:328   */\n    tag_70:\n        /* \"#utility.yul\":320:321   */\n      0x00\n        /* \"#utility.yul\":317:318   */\n      dup1\n        /* \"#utility.yul\":310:322   */\n      revert\n        /* \"#utility.yul\":334:460   */\n    tag_71:\n        /* \"#utility.yul\":371:378   */\n      0x00\n        /* \"#utility.yul\":411:453   */\n      0xffffffffffffffffffffffffffffffffffffffff\n        /* \"#utility.yul\":404:409   */\n      dup3\n        /* \"#utility.yul\":400:454   */\n      and\n        /* \"#utility.yul\":389:454   */\n      swap1\n      pop\n        /* \"#utility.yul\":334:460   */\n      swap2\n      swap1\n      pop\n      jump\t// out\n        /* \"#utility.yul\":466:562   */\n    tag_72:\n        /* \"#utility.yul\":503:510   */\n      0x00\n        /* \"#utility.yul\":532:556   */\n      tag_100\n        /* \"#utility.yul\":550:555   */\n      dup3\n        /* \"#utility.yul\":532:556   */\n      tag_71\n      jump\t// in\n    tag_100:\n        /* \"#utility.yul\":521:556   */\n      swap1\n      pop\n        /* \"#utility.yul\":466:562   */\n      swap2\n      swap1\n      pop\n      jump\t// out\n        /* \"#utility.yul\":568:690   */\n    tag_73:\n        /* \"#utility.yul\":641:665   */\n      tag_102\n        /* \"#utility.yul\":659:664   */\n      dup2\n        /* \"#utility.yul\":641:665   */\n      tag_72\n      jump\t// in\n    tag_102:\n        /* \"#utility.yul\":634:639   */\n      dup2\n        /* \"#utility.yul\":631:666   */\n      eq\n        /* \"#utility.yul\":621:684   */\n      tag_103\n      jumpi\n        /* \"#utility.yul\":680:681   */\n      0x00\n        /* \"#utility.yul\":677:678   */\n      dup1\n        /* \"#utility.yul\":670:682   */\n      revert\n        /* \"#utility.yul\":621:684   */\n    tag_103:\n        /* \"#utility.yul\":568:690   */\n      pop\n      jump\t// out\n        /* \"#utility.yul\":696:835   */\n    tag_74:\n        /* \"#utility.yul\":742:747   */\n      0x00\n        /* \"#utility.yul\":780:786   */\n      dup2\n        /* \"#utility.yul\":767:787   */\n      calldataload\n        /* \"#utility.yul\":758:787   */\n      swap1\n      pop\n        /* \"#utility.yul\":796:829   */\n      tag_105\n        /* \"#utility.yul\":823:828   */\n      dup2\n        /* \"#utility.yul\":796:829   */\n      tag_73\n      jump\t// in\n    tag_105:\n        /* \"#utility.yul\":696:835   */\n      swap3\n      swap2\n      pop\n      pop\n      jump\t// out\n        /* \"#utility.yul\":841:1170   */\n    tag_8:\n        /* \"#utility.yul\":900:906   */\n      0x00\n        /* \"#utility.yul\":949:951   */\n      0x20\n        /* \"#utility.yul\":937:946   */\n      dup3\n        /* \"#utility.yul\":928:935   */\n      dup5\n        /* \"#utility.yul\":924:947   */\n      sub\n        /* \"#utility.yul\":920:952   */\n      slt\n        /* \"#utility.yul\":917:1036   */\n      iszero\n      tag_107\n      jumpi\n        /* \"#utility.yul\":955:1034   */\n      tag_108\n      tag_69\n      jump\t// in\n    tag_108:\n        /* \"#utility.yul\":917:1036   */\n    tag_107:\n        /* \"#utility.yul\":1075:1076   */\n      0x00\n        /* \"#utility.yul\":1100:1153   */\n      tag_109\n        /* \"#utility.yul\":1145:1152   */\n      dup5\n        /* \"#utility.yul\":1136:1142   */\n      dup3\n        /* \"#utility.yul\":1125:1134   */\n      dup6\n        /* \"#utility.yul\":1121:1143   */\n      add\n        /* \"#utility.yul\":1100:1153   */\n      tag_74\n      jump\t// in\n    tag_109:\n        /* \"#utility.yul\":1090:1153   */\n      swap2\n      pop\n        /* \"#utility.yul\":1046:1163   */\n      pop\n        /* \"#utility.yul\":841:1170   */\n      swap3\n      swap2\n      pop\n      pop\n      jump\t// out\n        /* \"#utility.yul\":1176:1275   */\n    tag_75:\n        /* \"#utility.yul\":1228:1234   */\n      0x00\n        /* \"#utility.yul\":1262:1267   */\n      dup2\n        /* \"#utility.yul\":1256:1268   */\n      mload\n        /* \"#utility.yul\":1246:1268   */\n      swap1\n      pop\n        /* \"#utility.yul\":1176:1275   */\n      swap2\n      swap1\n      pop\n      jump\t// out\n        /* \"#utility.yul\":1281:1450   */\n    tag_76:\n        /* \"#utility.yul\":1365:1376   */\n      0x00\n        /* \"#utility.yul\":1399:1405   */\n      dup3\n        /* \"#utility.yul\":1394:1397   */\n      dup3\n        /* \"#utility.yul\":1387:1406   */\n      mstore\n        /* \"#utility.yul\":1439:1443   */\n      0x20\n        /* \"#utility.yul\":1434:1437   */\n      dup3\n        /* \"#utility.yul\":1430:1444   */\n      add\n        /* \"#utility.yul\":1415:1444   */\n      swap1\n      pop\n        /* \"#utility.yul\":1281:1450   */\n      swap3\n      swap2\n      pop\n      pop\n      jump\t// out\n        /* \"#utility.yul\":1456:1763   */\n    tag_77:\n        /* \"#utility.yul\":1524:1525   */\n      0x00\n        /* \"#utility.yul\":1534:1647   */\n    tag_113:\n        /* \"#utility.yul\":1548:1554   */\n      dup4\n        /* \"#utility.yul\":1545:1546   */\n      dup2\n        /* \"#utility.yul\":1542:1555   */\n      lt\n        /* \"#utility.yul\":1534:1647   */\n      iszero\n      tag_115\n      jumpi\n        /* \"#utility.yul\":1633:1634   */\n      dup1\n        /* \"#utility.yul\":1628:1631   */\n      dup3\n        /* \"#utility.yul\":1624:1635   */\n      add\n        /* \"#utility.yul\":1618:1636   */\n      mload\n        /* \"#utility.yul\":1614:1615   */\n      dup2\n        /* \"#utility.yul\":1609:1612   */\n      dup5\n        /* \"#utility.yul\":1605:1616   */\n      add\n        /* \"#utility.yul\":1598:1637   */\n      mstore\n        /* \"#utility.yul\":1570:1572   */\n      0x20\n        /* \"#utility.yul\":1567:1568   */\n      dup2\n        /* \"#utility.yul\":1563:1573   */\n      add\n        /* \"#utility.yul\":1558:1573   */\n      swap1\n      pop\n        /* \"#utility.yul\":1534:1647   */\n      jump(tag_113)\n    tag_115:\n        /* \"#utility.yul\":1665:1671   */\n      dup4\n        /* \"#utility.yul\":1662:1663   */\n      dup2\n        /* \"#utility.yul\":1659:1672   */\n      gt\n        /* \"#utility.yul\":1656:1757   */\n      iszero\n      tag_116\n      jumpi\n        /* \"#utility.yul\":1745:1746   */\n      0x00\n        /* \"#utility.yul\":1736:1742   */\n      dup5\n        /* \"#utility.yul\":1731:1734   */\n      dup5\n        /* \"#utility.yul\":1727:1743   */\n      add\n        /* \"#utility.yul\":1720:1747   */\n      mstore\n        /* \"#utility.yul\":1656:1757   */\n    tag_116:\n        /* \"#utility.yul\":1505:1763   */\n      pop\n        /* \"#utility.yul\":1456:1763   */\n      pop\n      pop\n      pop\n      jump\t// out\n        /* \"#utility.yul\":1769:1871   */\n    tag_78:\n        /* \"#utility.yul\":1810:1816   */\n      0x00\n        /* \"#utility.yul\":1861:1863   */\n      0x1f\n        /* \"#utility.yul\":1857:1864   */\n      not\n        /* \"#utility.yul\":1852:1854   */\n      0x1f\n        /* \"#utility.yul\":1845:1850   */\n      dup4\n        /* \"#utility.yul\":1841:1855   */\n      add\n        /* \"#utility.yul\":1837:1865   */\n      and\n        /* \"#utility.yul\":1827:1865   */\n      swap1\n      pop\n        /* \"#utility.yul\":1769:1871   */\n      swap2\n      swap1\n      pop\n      jump\t// out\n        /* \"#utility.yul\":1877:2241   */\n    tag_79:\n        /* \"#utility.yul\":1965:1968   */\n      0x00\n        /* \"#utility.yul\":1993:2032   */\n      tag_119\n        /* \"#utility.yul\":2026:2031   */\n      dup3\n        /* \"#utility.yul\":1993:2032   */\n      tag_75\n      jump\t// in\n    tag_119:\n        /* \"#utility.yul\":2048:2119   */\n      tag_120\n        /* \"#utility.yul\":2112:2118   */\n      dup2\n        /* \"#utility.yul\":2107:2110   */\n      dup6\n        /* \"#utility.yul\":2048:2119   */\n      tag_76\n      jump\t// in\n    tag_120:\n        /* \"#utility.yul\":2041:2119   */\n      swap4\n      pop\n        /* \"#utility.yul\":2128:2180   */\n      tag_121\n        /* \"#utility.yul\":2173:2179   */\n      dup2\n        /* \"#utility.yul\":2168:2171   */\n      dup6\n        /* \"#utility.yul\":2161:2165   */\n      0x20\n        /* \"#utility.yul\":2154:2159   */\n      dup7\n        /* \"#utility.yul\":2150:2166   */\n      add\n        /* \"#utility.yul\":2128:2180   */\n      tag_77\n      jump\t// in\n    tag_121:\n        /* \"#utility.yul\":2205:2234   */\n      tag_122\n        /* \"#utility.yul\":2227:2233   */\n      dup2\n        /* \"#utility.yul\":2205:2234   */\n      tag_78\n      jump\t// in\n    tag_122:\n        /* \"#utility.yul\":2200:2203   */\n      dup5\n        /* \"#utility.yul\":2196:2235   */\n      add\n        /* \"#utility.yul\":2189:2235   */\n      swap2\n      pop\n        /* \"#utility.yul\":1969:2241   */\n      pop\n        /* \"#utility.yul\":1877:2241   */\n      swap3\n      swap2\n      pop\n      pop\n      jump\t// out\n        /* \"#utility.yul\":2247:2324   */\n    tag_80:\n        /* \"#utility.yul\":2284:2291   */\n      0x00\n        /* \"#utility.yul\":2313:2318   */\n      dup2\n        /* \"#utility.yul\":2302:2318   */\n      swap1\n      pop\n        /* \"#utility.yul\":2247:2324   */\n      swap2\n      swap1\n      pop\n      jump\t// out\n        /* \"#utility.yul\":2330:2448   */\n    tag_81:\n        /* \"#utility.yul\":2417:2441   */\n      tag_125\n        /* \"#utility.yul\":2435:2440   */\n      dup2\n        /* \"#utility.yul\":2417:2441   */\n      tag_80\n      jump\t// in\n    tag_125:\n        /* \"#utility.yul\":2412:2415   */\n      dup3\n        /* \"#utility.yul\":2405:2442   */\n      mstore\n        /* \"#utility.yul\":2330:2448   */\n      pop\n      pop\n      jump\t// out\n        /* \"#utility.yul\":2454:3280   */\n    tag_11:\n        /* \"#utility.yul\":2691:2695   */\n      0x00\n        /* \"#utility.yul\":2729:2732   */\n      0x80\n        /* \"#utility.yul\":2718:2727   */\n      dup3\n        /* \"#utility.yul\":2714:2733   */\n      add\n        /* \"#utility.yul\":2706:2733   */\n      swap1\n      pop\n        /* \"#utility.yul\":2779:2788   */\n      dup2\n        /* \"#utility.yul\":2773:2777   */\n      dup2\n        /* \"#utility.yul\":2769:2789   */\n      sub\n        /* \"#utility.yul\":2765:2766   */\n      0x00\n        /* \"#utility.yul\":2754:2763   */\n      dup4\n        /* \"#utility.yul\":2750:2767   */\n      add\n        /* \"#utility.yul\":2743:2790   */\n      mstore\n        /* \"#utility.yul\":2807:2885   */\n      tag_127\n        /* \"#utility.yul\":2880:2884   */\n      dup2\n        /* \"#utility.yul\":2871:2877   */\n      dup8\n        /* \"#utility.yul\":2807:2885   */\n      tag_79\n      jump\t// in\n    tag_127:\n        /* \"#utility.yul\":2799:2885   */\n      swap1\n      pop\n        /* \"#utility.yul\":2895:2967   */\n      tag_128\n        /* \"#utility.yul\":2963:2965   */\n      0x20\n        /* \"#utility.yul\":2952:2961   */\n      dup4\n        /* \"#utility.yul\":2948:2966   */\n      add\n        /* \"#utility.yul\":2939:2945   */\n      dup7\n        /* \"#utility.yul\":2895:2967   */\n      tag_81\n      jump\t// in\n    tag_128:\n        /* \"#utility.yul\":3014:3023   */\n      dup2\n        /* \"#utility.yul\":3008:3012   */\n      dup2\n        /* \"#utility.yul\":3004:3024   */\n      sub\n        /* \"#utility.yul\":2999:3001   */\n      0x40\n        /* \"#utility.yul\":2988:2997   */\n      dup4\n        /* \"#utility.yul\":2984:3002   */\n      add\n        /* \"#utility.yul\":2977:3025   */\n      mstore\n        /* \"#utility.yul\":3042:3120   */\n      tag_129\n        /* \"#utility.yul\":3115:3119   */\n      dup2\n        /* \"#utility.yul\":3106:3112   */\n      dup6\n        /* \"#utility.yul\":3042:3120   */\n      tag_79\n      jump\t// in\n    tag_129:\n        /* \"#utility.yul\":3034:3120   */\n      swap1\n      pop\n        /* \"#utility.yul\":3167:3176   */\n      dup2\n        /* \"#utility.yul\":3161:3165   */\n      dup2\n        /* \"#utility.yul\":3157:3177   */\n      sub\n        /* \"#utility.yul\":3152:3154   */\n      0x60\n        /* \"#utility.yul\":3141:3150   */\n      dup4\n        /* \"#utility.yul\":3137:3155   */\n      add\n        /* \"#utility.yul\":3130:3178   */\n      mstore\n        /* \"#utility.yul\":3195:3273   */\n      tag_130\n        /* \"#utility.yul\":3268:3272   */\n      dup2\n        /* \"#utility.yul\":3259:3265   */\n      dup5\n        /* \"#utility.yul\":3195:3273   */\n      tag_79\n      jump\t// in\n    tag_130:\n        /* \"#utility.yul\":3187:3273   */\n      swap1\n      pop\n        /* \"#utility.yul\":2454:3280   */\n      swap6\n      swap5\n      pop\n      pop\n      pop\n      pop\n      pop\n      jump\t// out\n        /* \"#utility.yul\":3286:3403   */\n    tag_82:\n        /* \"#utility.yul\":3395:3396   */\n      0x00\n        /* \"#utility.yul\":3392:3393   */\n      dup1\n        /* \"#utility.yul\":3385:3397   */\n      revert\n        /* \"#utility.yul\":3409:3526   */\n    tag_83:\n        /* \"#utility.yul\":3518:3519   */\n      0x00\n        /* \"#utility.yul\":3515:3516   */\n      dup1\n        /* \"#utility.yul\":3508:3520   */\n      revert\n        /* \"#utility.yul\":3532:3712   */\n    tag_84:\n        /* \"#utility.yul\":3580:3657   */\n      0x4e487b7100000000000000000000000000000000000000000000000000000000\n        /* \"#utility.yul\":3577:3578   */\n      0x00\n        /* \"#utility.yul\":3570:3658   */\n      mstore\n        /* \"#utility.yul\":3677:3681   */\n      0x41\n        /* \"#utility.yul\":3674:3675   */\n      0x04\n        /* \"#utility.yul\":3667:3682   */\n      mstore\n        /* \"#utility.yul\":3701:3705   */\n      0x24\n        /* \"#utility.yul\":3698:3699   */\n      0x00\n        /* \"#utility.yul\":3691:3706   */\n      revert\n        /* \"#utility.yul\":3718:3999   */\n    tag_85:\n        /* \"#utility.yul\":3801:3828   */\n      tag_135\n        /* \"#utility.yul\":3823:3827   */\n      dup3\n        /* \"#utility.yul\":3801:3828   */\n      tag_78\n      jump\t// in\n    tag_135:\n        /* \"#utility.yul\":3793:3799   */\n      dup2\n        /* \"#utility.yul\":3789:3829   */\n      add\n        /* \"#utility.yul\":3931:3937   */\n      dup2\n        /* \"#utility.yul\":3919:3929   */\n      dup2\n        /* \"#utility.yul\":3916:3938   */\n      lt\n        /* \"#utility.yul\":3895:3913   */\n      0xffffffffffffffff\n        /* \"#utility.yul\":3883:3893   */\n      dup3\n        /* \"#utility.yul\":3880:3914   */\n      gt\n        /* \"#utility.yul\":3877:3939   */\n      or\n        /* \"#utility.yul\":3874:3962   */\n      iszero\n      tag_136\n      jumpi\n        /* \"#utility.yul\":3942:3960   */\n      tag_137\n      tag_84\n      jump\t// in\n    tag_137:\n        /* \"#utility.yul\":3874:3962   */\n    tag_136:\n        /* \"#utility.yul\":3982:3992   */\n      dup1\n        /* \"#utility.yul\":3978:3980   */\n      0x40\n        /* \"#utility.yul\":3971:3993   */\n      mstore\n        /* \"#utility.yul\":3761:3999   */\n      pop\n        /* \"#utility.yul\":3718:3999   */\n      pop\n      pop\n      jump\t// out\n        /* \"#utility.yul\":4005:4134   */\n    tag_86:\n        /* \"#utility.yul\":4039:4045   */\n      0x00\n        /* \"#utility.yul\":4066:4086   */\n      tag_139\n      tag_68\n      jump\t// in\n    tag_139:\n        /* \"#utility.yul\":4056:4086   */\n      swap1\n      pop\n        /* \"#utility.yul\":4095:4128   */\n      tag_140\n        /* \"#utility.yul\":4123:4127   */\n      dup3\n        /* \"#utility.yul\":4115:4121   */\n      dup3\n        /* \"#utility.yul\":4095:4128   */\n      tag_85\n      jump\t// in\n    tag_140:\n        /* \"#utility.yul\":4005:4134   */\n      swap2\n      swap1\n      pop\n      jump\t// out\n        /* \"#utility.yul\":4140:4448   */\n    tag_87:\n        /* \"#utility.yul\":4202:4206   */\n      0x00\n        /* \"#utility.yul\":4292:4310   */\n      0xffffffffffffffff\n        /* \"#utility.yul\":4284:4290   */\n      dup3\n        /* \"#utility.yul\":4281:4311   */\n      gt\n        /* \"#utility.yul\":4278:4334   */\n      iszero\n      tag_142\n      jumpi\n        /* \"#utility.yul\":4314:4332   */\n      tag_143\n      tag_84\n      jump\t// in\n    tag_143:\n        /* \"#utility.yul\":4278:4334   */\n    tag_142:\n        /* \"#utility.yul\":4352:4381   */\n      tag_144\n        /* \"#utility.yul\":4374:4380   */\n      dup3\n        /* \"#utility.yul\":4352:4381   */\n      tag_78\n      jump\t// in\n    tag_144:\n        /* \"#utility.yul\":4344:4381   */\n      swap1\n      pop\n        /* \"#utility.yul\":4436:4440   */\n      0x20\n        /* \"#utility.yul\":4430:4434   */\n      dup2\n        /* \"#utility.yul\":4426:4441   */\n      add\n        /* \"#utility.yul\":4418:4441   */\n      swap1\n      pop\n        /* \"#utility.yul\":4140:4448   */\n      swap2\n      swap1\n      pop\n      jump\t// out\n        /* \"#utility.yul\":4454:4608   */\n    tag_88:\n        /* \"#utility.yul\":4538:4544   */\n      dup3\n        /* \"#utility.yul\":4533:4536   */\n      dup2\n        /* \"#utility.yul\":4528:4531   */\n      dup4\n        /* \"#utility.yul\":4515:4545   */\n      calldatacopy\n        /* \"#utility.yul\":4600:4601   */\n      0x00\n        /* \"#utility.yul\":4591:4597   */\n      dup4\n        /* \"#utility.yul\":4586:4589   */\n      dup4\n        /* \"#utility.yul\":4582:4598   */\n      add\n        /* \"#utility.yul\":4575:4602   */\n      mstore\n        /* \"#utility.yul\":4454:4608   */\n      pop\n      pop\n      pop\n      jump\t// out\n        /* \"#utility.yul\":4614:5026   */\n    tag_89:\n        /* \"#utility.yul\":4692:4697   */\n      0x00\n        /* \"#utility.yul\":4717:4783   */\n      tag_147\n        /* \"#utility.yul\":4733:4782   */\n      tag_148\n        /* \"#utility.yul\":4775:4781   */\n      dup5\n        /* \"#utility.yul\":4733:4782   */\n      tag_87\n      jump\t// in\n    tag_148:\n        /* \"#utility.yul\":4717:4783   */\n      tag_86\n      jump\t// in\n    tag_147:\n        /* \"#utility.yul\":4708:4783   */\n      swap1\n      pop\n        /* \"#utility.yul\":4806:4812   */\n      dup3\n        /* \"#utility.yul\":4799:4804   */\n      dup2\n        /* \"#utility.yul\":4792:4813   */\n      mstore\n        /* \"#utility.yul\":4844:4848   */\n      0x20\n        /* \"#utility.yul\":4837:4842   */\n      dup2\n        /* \"#utility.yul\":4833:4849   */\n      add\n        /* \"#utility.yul\":4882:4885   */\n      dup5\n        /* \"#utility.yul\":4873:4879   */\n      dup5\n        /* \"#utility.yul\":4868:4871   */\n      dup5\n        /* \"#utility.yul\":4864:4880   */\n      add\n        /* \"#utility.yul\":4861:4886   */\n      gt\n        /* \"#utility.yul\":4858:4970   */\n      iszero\n      tag_149\n      jumpi\n        /* \"#utility.yul\":4889:4968   */\n      tag_150\n      tag_83\n      jump\t// in\n    tag_150:\n        /* \"#utility.yul\":4858:4970   */\n    tag_149:\n        /* \"#utility.yul\":4979:5020   */\n      tag_151\n        /* \"#utility.yul\":5013:5019   */\n      dup5\n        /* \"#utility.yul\":5008:5011   */\n      dup3\n        /* \"#utility.yul\":5003:5006   */\n      dup6\n        /* \"#utility.yul\":4979:5020   */\n      tag_88\n      jump\t// in\n    tag_151:\n        /* \"#utility.yul\":4698:5026   */\n      pop\n        /* \"#utility.yul\":4614:5026   */\n      swap4\n      swap3\n      pop\n      pop\n      pop\n      jump\t// out\n        /* \"#utility.yul\":5046:5386   */\n    tag_90:\n        /* \"#utility.yul\":5102:5107   */\n      0x00\n        /* \"#utility.yul\":5151:5154   */\n      dup3\n        /* \"#utility.yul\":5144:5148   */\n      0x1f\n        /* \"#utility.yul\":5136:5142   */\n      dup4\n        /* \"#utility.yul\":5132:5149   */\n      add\n        /* \"#utility.yul\":5128:5155   */\n      slt\n        /* \"#utility.yul\":5118:5240   */\n      tag_153\n      jumpi\n        /* \"#utility.yul\":5159:5238   */\n      tag_154\n      tag_82\n      jump\t// in\n    tag_154:\n        /* \"#utility.yul\":5118:5240   */\n    tag_153:\n        /* \"#utility.yul\":5276:5282   */\n      dup2\n        /* \"#utility.yul\":5263:5283   */\n      calldataload\n        /* \"#utility.yul\":5301:5380   */\n      tag_155\n        /* \"#utility.yul\":5376:5379   */\n      dup5\n        /* \"#utility.yul\":5368:5374   */\n      dup3\n        /* \"#utility.yul\":5361:5365   */\n      0x20\n        /* \"#utility.yul\":5353:5359   */\n      dup7\n        /* \"#utility.yul\":5349:5366   */\n      add\n        /* \"#utility.yul\":5301:5380   */\n      tag_89\n      jump\t// in\n    tag_155:\n        /* \"#utility.yul\":5292:5380   */\n      swap2\n      pop\n        /* \"#utility.yul\":5108:5386   */\n      pop\n        /* \"#utility.yul\":5046:5386   */\n      swap3\n      swap2\n      pop\n      pop\n      jump\t// out\n        /* \"#utility.yul\":5392:5514   */\n    tag_91:\n        /* \"#utility.yul\":5465:5489   */\n      tag_157\n        /* \"#utility.yul\":5483:5488   */\n      dup2\n        /* \"#utility.yul\":5465:5489   */\n      tag_80\n      jump\t// in\n    tag_157:\n        /* \"#utility.yul\":5458:5463   */\n      dup2\n        /* \"#utility.yul\":5455:5490   */\n      eq\n        /* \"#utility.yul\":5445:5508   */\n      tag_158\n      jumpi\n        /* \"#utility.yul\":5504:5505   */\n      0x00\n        /* \"#utility.yul\":5501:5502   */\n      dup1\n        /* \"#utility.yul\":5494:5506   */\n      revert\n        /* \"#utility.yul\":5445:5508   */\n    tag_158:\n        /* \"#utility.yul\":5392:5514   */\n      pop\n      jump\t// out\n        /* \"#utility.yul\":5520:5659   */\n    tag_92:\n        /* \"#utility.yul\":5566:5571   */\n      0x00\n        /* \"#utility.yul\":5604:5610   */\n      dup2\n        /* \"#utility.yul\":5591:5611   */\n      calldataload\n        /* \"#utility.yul\":5582:5611   */\n      swap1\n      pop\n        /* \"#utility.yul\":5620:5653   */\n      tag_160\n        /* \"#utility.yul\":5647:5652   */\n      dup2\n        /* \"#utility.yul\":5620:5653   */\n      tag_91\n      jump\t// in\n    tag_160:\n        /* \"#utility.yul\":5520:5659   */\n      swap3\n      swap2\n      pop\n      pop\n      jump\t// out\n        /* \"#utility.yul\":5665:6970   */\n    tag_14:\n        /* \"#utility.yul\":5781:5787   */\n      0x00\n        /* \"#utility.yul\":5789:5795   */\n      dup1\n        /* \"#utility.yul\":5797:5803   */\n      0x00\n        /* \"#utility.yul\":5805:5811   */\n      dup1\n        /* \"#utility.yul\":5854:5857   */\n      0x80\n        /* \"#utility.yul\":5842:5851   */\n      dup6\n        /* \"#utility.yul\":5833:5840   */\n      dup8\n        /* \"#utility.yul\":5829:5852   */\n      sub\n        /* \"#utility.yul\":5825:5858   */\n      slt\n        /* \"#utility.yul\":5822:5942   */\n      iszero\n      tag_162\n      jumpi\n        /* \"#utility.yul\":5861:5940   */\n      tag_163\n      tag_69\n      jump\t// in\n    tag_163:\n        /* \"#utility.yul\":5822:5942   */\n    tag_162:\n        /* \"#utility.yul\":6009:6010   */\n      0x00\n        /* \"#utility.yul\":5998:6007   */\n      dup6\n        /* \"#utility.yul\":5994:6011   */\n      add\n        /* \"#utility.yul\":5981:6012   */\n      calldataload\n        /* \"#utility.yul\":6039:6057   */\n      0xffffffffffffffff\n        /* \"#utility.yul\":6031:6037   */\n      dup2\n        /* \"#utility.yul\":6028:6058   */\n      gt\n        /* \"#utility.yul\":6025:6142   */\n      iszero\n      tag_164\n      jumpi\n        /* \"#utility.yul\":6061:6140   */\n      tag_165\n      tag_70\n      jump\t// in\n    tag_165:\n        /* \"#utility.yul\":6025:6142   */\n    tag_164:\n        /* \"#utility.yul\":6166:6229   */\n      tag_166\n        /* \"#utility.yul\":6221:6228   */\n      dup8\n        /* \"#utility.yul\":6212:6218   */\n      dup3\n        /* \"#utility.yul\":6201:6210   */\n      dup9\n        /* \"#utility.yul\":6197:6219   */\n      add\n        /* \"#utility.yul\":6166:6229   */\n      tag_90\n      jump\t// in\n    tag_166:\n        /* \"#utility.yul\":6156:6229   */\n      swap5\n      pop\n        /* \"#utility.yul\":5952:6239   */\n      pop\n        /* \"#utility.yul\":6278:6280   */\n      0x20\n        /* \"#utility.yul\":6304:6357   */\n      tag_167\n        /* \"#utility.yul\":6349:6356   */\n      dup8\n        /* \"#utility.yul\":6340:6346   */\n      dup3\n        /* \"#utility.yul\":6329:6338   */\n      dup9\n        /* \"#utility.yul\":6325:6347   */\n      add\n        /* \"#utility.yul\":6304:6357   */\n      tag_92\n      jump\t// in\n    tag_167:\n        /* \"#utility.yul\":6294:6357   */\n      swap4\n      pop\n        /* \"#utility.yul\":6249:6367   */\n      pop\n        /* \"#utility.yul\":6434:6436   */\n      0x40\n        /* \"#utility.yul\":6423:6432   */\n      dup6\n        /* \"#utility.yul\":6419:6437   */\n      add\n        /* \"#utility.yul\":6406:6438   */\n      calldataload\n        /* \"#utility.yul\":6465:6483   */\n      0xffffffffffffffff\n        /* \"#utility.yul\":6457:6463   */\n      dup2\n        /* \"#utility.yul\":6454:6484   */\n      gt\n        /* \"#utility.yul\":6451:6568   */\n      iszero\n      tag_168\n      jumpi\n        /* \"#utility.yul\":6487:6566   */\n      tag_169\n      tag_70\n      jump\t// in\n    tag_169:\n        /* \"#utility.yul\":6451:6568   */\n    tag_168:\n        /* \"#utility.yul\":6592:6655   */\n      tag_170\n        /* \"#utility.yul\":6647:6654   */\n      dup8\n        /* \"#utility.yul\":6638:6644   */\n      dup3\n        /* \"#utility.yul\":6627:6636   */\n      dup9\n        /* \"#utility.yul\":6623:6645   */\n      add\n        /* \"#utility.yul\":6592:6655   */\n      tag_90\n      jump\t// in\n    tag_170:\n        /* \"#utility.yul\":6582:6655   */\n      swap3\n      pop\n        /* \"#utility.yul\":6377:6665   */\n      pop\n        /* \"#utility.yul\":6732:6734   */\n      0x60\n        /* \"#utility.yul\":6721:6730   */\n      dup6\n        /* \"#utility.yul\":6717:6735   */\n      add\n        /* \"#utility.yul\":6704:6736   */\n      calldataload\n        /* \"#utility.yul\":6763:6781   */\n      0xffffffffffffffff\n        /* \"#utility.yul\":6755:6761   */\n      dup2\n        /* \"#utility.yul\":6752:6782   */\n      gt\n        /* \"#utility.yul\":6749:6866   */\n      iszero\n      tag_171\n      jumpi\n        /* \"#utility.yul\":6785:6864   */\n      tag_172\n      tag_70\n      jump\t// in\n    tag_172:\n        /* \"#utility.yul\":6749:6866   */\n    tag_171:\n        /* \"#utility.yul\":6890:6953   */\n      tag_173\n        /* \"#utility.yul\":6945:6952   */\n      dup8\n        /* \"#utility.yul\":6936:6942   */\n      dup3\n        /* \"#utility.yul\":6925:6934   */\n      dup9\n        /* \"#utility.yul\":6921:6943   */\n      add\n        /* \"#utility.yul\":6890:6953   */\n      tag_90\n      jump\t// in\n    tag_173:\n        /* \"#utility.yul\":6880:6953   */\n      swap2\n      pop\n        /* \"#utility.yul\":6675:6963   */\n      pop\n        /* \"#utility.yul\":5665:6970   */\n      swap3\n      swap6\n      swap2\n      swap5\n      pop\n      swap3\n      pop\n      jump\t// out\n        /* \"#utility.yul\":6976:7156   */\n    tag_93:\n        /* \"#utility.yul\":7024:7101   */\n      0x4e487b7100000000000000000000000000000000000000000000000000000000\n        /* \"#utility.yul\":7021:7022   */\n      0x00\n        /* \"#utility.yul\":7014:7102   */\n      mstore\n        /* \"#utility.yul\":7121:7125   */\n      0x22\n        /* \"#utility.yul\":7118:7119   */\n      0x04\n        /* \"#utility.yul\":7111:7126   */\n      mstore\n        /* \"#utility.yul\":7145:7149   */\n      0x24\n        /* \"#utility.yul\":7142:7143   */\n      0x00\n        /* \"#utility.yul\":7135:7150   */\n      revert\n        /* \"#utility.yul\":7162:7482   */\n    tag_22:\n        /* \"#utility.yul\":7206:7212   */\n      0x00\n        /* \"#utility.yul\":7243:7244   */\n      0x02\n        /* \"#utility.yul\":7237:7241   */\n      dup3\n        /* \"#utility.yul\":7233:7245   */\n      div\n        /* \"#utility.yul\":7223:7245   */\n      swap1\n      pop\n        /* \"#utility.yul\":7290:7291   */\n      0x01\n        /* \"#utility.yul\":7284:7288   */\n      dup3\n        /* \"#utility.yul\":7280:7292   */\n      and\n        /* \"#utility.yul\":7311:7329   */\n      dup1\n        /* \"#utility.yul\":7301:7382   */\n      tag_176\n      jumpi\n        /* \"#utility.yul\":7367:7371   */\n      0x7f\n        /* \"#utility.yul\":7359:7365   */\n      dup3\n        /* \"#utility.yul\":7355:7372   */\n      and\n        /* \"#utility.yul\":7345:7372   */\n      swap2\n      pop\n        /* \"#utility.yul\":7301:7382   */\n    tag_176:\n        /* \"#utility.yul\":7429:7431   */\n      0x20\n        /* \"#utility.yul\":7421:7427   */\n      dup3\n        /* \"#utility.yul\":7418:7432   */\n      lt\n        /* \"#utility.yul\":7398:7416   */\n      dup2\n        /* \"#utility.yul\":7395:7433   */\n      eq\n        /* \"#utility.yul\":7392:7476   */\n      iszero\n      tag_177\n      jumpi\n        /* \"#utility.yul\":7448:7466   */\n      tag_178\n      tag_93\n      jump\t// in\n    tag_178:\n        /* \"#utility.yul\":7392:7476   */\n    tag_177:\n        /* \"#utility.yul\":7213:7482   */\n      pop\n        /* \"#utility.yul\":7162:7482   */\n      swap2\n      swap1\n      pop\n      jump\t// out\n\n    auxdata: 0xa2646970667358221220f64165b57343f18b98f0f6ecb13a7550ba6c1651e514d18836f030023e9ca34964736f6c634300080b0033\n}\n",
				"bytecode": {
					"linkReferences": {},
					"object": "608060405234801561001057600080fd5b50610ae6806100206000396000f3fe608060405234801561001057600080fd5b50600436106100415760003560e01c80632fea7b811461004657806337c5c01114610079578063f653b81e14610095575b600080fd5b610060600480360381019061005b91906106fa565b6100c8565b60405161007094939291906107d9565b60405180910390f35b610093600480360381019061008e9190610994565b610300565b005b6100af60048036038101906100aa91906106fa565b61041d565b6040516100bf94939291906107d9565b60405180910390f35b6060600060608060008060008773ffffffffffffffffffffffffffffffffffffffff1673ffffffffffffffffffffffffffffffffffffffff16815260200190815260200160002060405180608001604052908160008201805461012a90610a7e565b80601f016020809104026020016040519081016040528092919081815260200182805461015690610a7e565b80156101a35780601f10610178576101008083540402835291602001916101a3565b820191906000526020600020905b81548152906001019060200180831161018657829003601f168201915b50505050508152602001600182015481526020016002820180546101c690610a7e565b80601f01602080910402602001604051908101604052809291908181526020018280546101f290610a7e565b801561023f5780601f106102145761010080835404028352916020019161023f565b820191906000526020600020905b81548152906001019060200180831161022257829003601f168201915b5050505050815260200160038201805461025890610a7e565b80601f016020809104026020016040519081016040528092919081815260200182805461028490610a7e565b80156102d15780601f106102a6576101008083540402835291602001916102d1565b820191906000526020600020905b8154815290600101906020018083116102b457829003601f168201915b505050505081525050905080600001518160200151826040015183606001519450945094509450509193509193565b6040518060800160405280858152602001848152602001838152602001828152506000803373ffffffffffffffffffffffffffffffffffffffff1673ffffffffffffffffffffffffffffffffffffffff168152602001908152602001600020600082015181600001908051906020019061037b9291906105e5565b506020820151816001015560408201518160020190805190602001906103a29291906105e5565b5060608201518160030190805190602001906103bf9291906105e5565b509050503373ffffffffffffffffffffffffffffffffffffffff167fcf55d0809a20d892c46c194fa9b874275677aa218fac2324c65d8ef15cd13aa18585858560405161040f94939291906107d9565b60405180910390a250505050565b600060205280600052604060002060009150905080600001805461044090610a7e565b80601f016020809104026020016040519081016040528092919081815260200182805461046c90610a7e565b80156104b95780601f1061048e576101008083540402835291602001916104b9565b820191906000526020600020905b81548152906001019060200180831161049c57829003601f168201915b5050505050908060010154908060020180546104d490610a7e565b80601f016020809104026020016040519081016040528092919081815260200182805461050090610a7e565b801561054d5780601f106105225761010080835404028352916020019161054d565b820191906000526020600020905b81548152906001019060200180831161053057829003601f168201915b50505050509080600301805461056290610a7e565b80601f016020809104026020016040519081016040528092919081815260200182805461058e90610a7e565b80156105db5780601f106105b0576101008083540402835291602001916105db565b820191906000526020600020905b8154815290600101906020018083116105be57829003601f168201915b5050505050905084565b8280546105f190610a7e565b90600052602060002090601f016020900481019282610613576000855561065a565b82601f1061062c57805160ff191683800117855561065a565b8280016001018555821561065a579182015b8281111561065957825182559160200191906001019061063e565b5b509050610667919061066b565b5090565b5b8082111561068457600081600090555060010161066c565b5090565b6000604051905090565b600080fd5b600080fd5b600073ffffffffffffffffffffffffffffffffffffffff82169050919050565b60006106c78261069c565b9050919050565b6106d7816106bc565b81146106e257600080fd5b50565b6000813590506106f4816106ce565b92915050565b6000602082840312156107105761070f610692565b5b600061071e848285016106e5565b91505092915050565b600081519050919050565b600082825260208201905092915050565b60005b83811015610761578082015181840152602081019050610746565b83811115610770576000848401525b50505050565b6000601f19601f8301169050919050565b600061079282610727565b61079c8185610732565b93506107ac818560208601610743565b6107b581610776565b840191505092915050565b6000819050919050565b6107d3816107c0565b82525050565b600060808201905081810360008301526107f38187610787565b905061080260208301866107ca565b81810360408301526108148185610787565b905081810360608301526108288184610787565b905095945050505050565b600080fd5b600080fd5b7f4e487b7100000000000000000000000000000000000000000000000000000000600052604160045260246000fd5b61087582610776565b810181811067ffffffffffffffff821117156108945761089361083d565b5b80604052505050565b60006108a7610688565b90506108b3828261086c565b919050565b600067ffffffffffffffff8211156108d3576108d261083d565b5b6108dc82610776565b9050602081019050919050565b82818337600083830152505050565b600061090b610906846108b8565b61089d565b90508281526020810184848401111561092757610926610838565b5b6109328482856108e9565b509392505050565b600082601f83011261094f5761094e610833565b5b813561095f8482602086016108f8565b91505092915050565b610971816107c0565b811461097c57600080fd5b50565b60008135905061098e81610968565b92915050565b600080600080608085870312156109ae576109ad610692565b5b600085013567ffffffffffffffff8111156109cc576109cb610697565b5b6109d88782880161093a565b94505060206109e98782880161097f565b935050604085013567ffffffffffffffff811115610a0a57610a09610697565b5b610a168782880161093a565b925050606085013567ffffffffffffffff811115610a3757610a36610697565b5b610a438782880161093a565b91505092959194509250565b7f4e487b7100000000000000000000000000000000000000000000000000000000600052602260045260246000fd5b60006002820490506001821680610a9657607f821691505b60208210811415610aaa57610aa9610a4f565b5b5091905056fea2646970667358221220f64165b57343f18b98f0f6ecb13a7550ba6c1651e514d18836f030023e9ca34964736f6c634300080b0033",
					"opcodes": "PUSH1 0x80 PUSH1 0x40 MSTORE CALLVALUE DUP1 ISZERO PUSH2 0x10 JUMPI PUSH1 0x0 DUP1 REVERT JUMPDEST POP PUSH2 0xAE6 DUP1 PUSH2 0x20 PUSH1 0x0 CODECOPY PUSH1 0x0 RETURN INVALID PUSH1 0x80 PUSH1 0x40 MSTORE CALLVALUE DUP1 ISZERO PUSH2 0x10 JUMPI PUSH1 0x0 DUP1 REVERT JUMPDEST POP PUSH1 0x4 CALLDATASIZE LT PUSH2 0x41 JUMPI PUSH1 0x0 CALLDATALOAD PUSH1 0xE0 SHR DUP1 PUSH4 0x2FEA7B81 EQ PUSH2 0x46 JUMPI DUP1 PUSH4 0x37C5C011 EQ PUSH2 0x79 JUMPI DUP1 PUSH4 0xF653B81E EQ PUSH2 0x95 JUMPI JUMPDEST PUSH1 0x0 DUP1 REVERT JUMPDEST PUSH2 0x60 PUSH1 0x4 DUP1 CALLDATASIZE SUB DUP2 ADD SWAP1 PUSH2 0x5B SWAP2 SWAP1 PUSH2 0x6FA JUMP JUMPDEST PUSH2 0xC8 JUMP JUMPDEST PUSH1 0x40 MLOAD PUSH2 0x70 SWAP5 SWAP4 SWAP3 SWAP2 SWAP1 PUSH2 0x7D9 JUMP JUMPDEST PUSH1 0x40 MLOAD DUP1 SWAP2 SUB SWAP1 RETURN JUMPDEST PUSH2 0x93 PUSH1 0x4 DUP1 CALLDATASIZE SUB DUP2 ADD SWAP1 PUSH2 0x8E SWAP2 SWAP1 PUSH2 0x994 JUMP JUMPDEST PUSH2 0x300 JUMP JUMPDEST STOP JUMPDEST PUSH2 0xAF PUSH1 0x4 DUP1 CALLDATASIZE SUB DUP2 ADD SWAP1 PUSH2 0xAA SWAP2 SWAP1 PUSH2 0x6FA JUMP JUMPDEST PUSH2 0x41D JUMP JUMPDEST PUSH1 0x40 MLOAD PUSH2 0xBF SWAP5 SWAP4 SWAP3 SWAP2 SWAP1 PUSH2 0x7D9 JUMP JUMPDEST PUSH1 0x40 MLOAD DUP1 SWAP2 SUB SWAP1 RETURN JUMPDEST PUSH1 0x60 PUSH1 0x0 PUSH1 0x60 DUP1 PUSH1 0x0 DUP1 PUSH1 0x0 DUP8 PUSH20 0xFFFFFFFFFFFFFFFFFFFFFFFFFFFFFFFFFFFFFFFF AND PUSH20 0xFFFFFFFFFFFFFFFFFFFFFFFFFFFFFFFFFFFFFFFF AND DUP2 MSTORE PUSH1 0x20 ADD SWAP1 DUP2 MSTORE PUSH1 0x20 ADD PUSH1 0x0 KECCAK256 PUSH1 0x40 MLOAD DUP1 PUSH1 0x80 ADD PUSH1 0x40 MSTORE SWAP1 DUP2 PUSH1 0x0 DUP3 ADD DUP1 SLOAD PUSH2 0x12A SWAP1 PUSH2 0xA7E JUMP JUMPDEST DUP1 PUSH1 0x1F ADD PUSH1 0x20 DUP1 SWAP2 DIV MUL PUSH1 0x20 ADD PUSH1 0x40 MLOAD SWAP1 DUP2 ADD PUSH1 0x40 MSTORE DUP1 SWAP3 SWAP2 SWAP1 DUP2 DUP2 MSTORE PUSH1 0x20 ADD DUP3 DUP1 SLOAD PUSH2 0x156 SWAP1 PUSH2 0xA7E JUMP JUMPDEST DUP1 ISZERO PUSH2 0x1A3 JUMPI DUP1 PUSH1 0x1F LT PUSH2 0x178 JUMPI PUSH2 0x100 DUP1 DUP4 SLOAD DIV MUL DUP4 MSTORE SWAP2 PUSH1 0x20 ADD SWAP2 PUSH2 0x1A3 JUMP JUMPDEST DUP3 ADD SWAP2 SWAP1 PUSH1 0x0 MSTORE PUSH1 0x20 PUSH1 0x0 KECCAK256 SWAP1 JUMPDEST DUP2 SLOAD DUP2 MSTORE SWAP1 PUSH1 0x1 ADD SWAP1 PUSH1 0x20 ADD DUP1 DUP4 GT PUSH2 0x186 JUMPI DUP3 SWAP1 SUB PUSH1 0x1F AND DUP3 ADD SWAP2 JUMPDEST POP POP POP POP POP DUP2 MSTORE PUSH1 0x20 ADD PUSH1 0x1 DUP3 ADD SLOAD DUP2 MSTORE PUSH1 0x20 ADD PUSH1 0x2 DUP3 ADD DUP1 SLOAD PUSH2 0x1C6 SWAP1 PUSH2 0xA7E JUMP JUMPDEST DUP1 PUSH1 0x1F ADD PUSH1 0x20 DUP1 SWAP2 DIV MUL PUSH1 0x20 ADD PUSH1 0x40 MLOAD SWAP1 DUP2 ADD PUSH1 0x40 MSTORE DUP1 SWAP3 SWAP2 SWAP1 DUP2 DUP2 MSTORE PUSH1 0x20 ADD DUP3 DUP1 SLOAD PUSH2 0x1F2 SWAP1 PUSH2 0xA7E JUMP JUMPDEST DUP1 ISZERO PUSH2 0x23F JUMPI DUP1 PUSH1 0x1F LT PUSH2 0x214 JUMPI PUSH2 0x100 DUP1 DUP4 SLOAD DIV MUL DUP4 MSTORE SWAP2 PUSH1 0x20 ADD SWAP2 PUSH2 0x23F JUMP JUMPDEST DUP3 ADD SWAP2 SWAP1 PUSH1 0x0 MSTORE PUSH1 0x20 PUSH1 0x0 KECCAK256 SWAP1 JUMPDEST DUP2 SLOAD DUP2 MSTORE SWAP1 PUSH1 0x1 ADD SWAP1 PUSH1 0x20 ADD DUP1 DUP4 GT PUSH2 0x222 JUMPI DUP3 SWAP1 SUB PUSH1 0x1F AND DUP3 ADD SWAP2 JUMPDEST POP POP POP POP POP DUP2 MSTORE PUSH1 0x20 ADD PUSH1 0x3 DUP3 ADD DUP1 SLOAD PUSH2 0x258 SWAP1 PUSH2 0xA7E JUMP JUMPDEST DUP1 PUSH1 0x1F ADD PUSH1 0x20 DUP1 SWAP2 DIV MUL PUSH1 0x20 ADD PUSH1 0x40 MLOAD SWAP1 DUP2 ADD PUSH1 0x40 MSTORE DUP1 SWAP3 SWAP2 SWAP1 DUP2 DUP2 MSTORE PUSH1 0x20 ADD DUP3 DUP1 SLOAD PUSH2 0x284 SWAP1 PUSH2 0xA7E JUMP JUMPDEST DUP1 ISZERO PUSH2 0x2D1 JUMPI DUP1 PUSH1 0x1F LT PUSH2 0x2A6 JUMPI PUSH2 0x100 DUP1 DUP4 SLOAD DIV MUL DUP4 MSTORE SWAP2 PUSH1 0x20 ADD SWAP2 PUSH2 0x2D1 JUMP JUMPDEST DUP3 ADD SWAP2 SWAP1 PUSH1 0x0 MSTORE PUSH1 0x20 PUSH1 0x0 KECCAK256 SWAP1 JUMPDEST DUP2 SLOAD DUP2 MSTORE SWAP1 PUSH1 0x1 ADD SWAP1 PUSH1 0x20 ADD DUP1 DUP4 GT PUSH2 0x2B4 JUMPI DUP3 SWAP1 SUB PUSH1 0x1F AND DUP3 ADD SWAP2 JUMPDEST POP POP POP POP POP DUP2 MSTORE POP POP SWAP1 POP DUP1 PUSH1 0x0 ADD MLOAD DUP2 PUSH1 0x20 ADD MLOAD DUP3 PUSH1 0x40 ADD MLOAD DUP4 PUSH1 0x60 ADD MLOAD SWAP5 POP SWAP5 POP SWAP5 POP SWAP5 POP POP SWAP2 SWAP4 POP SWAP2 SWAP4 JUMP JUMPDEST PUSH1 0x40 MLOAD DUP1 PUSH1 0x80 ADD PUSH1 0x40 MSTORE DUP1 DUP6 DUP2 MSTORE PUSH1 0x20 ADD DUP5 DUP2 MSTORE PUSH1 0x20 ADD DUP4 DUP2 MSTORE PUSH1 0x20 ADD DUP3 DUP2 MSTORE POP PUSH1 0x0 DUP1 CALLER PUSH20 0xFFFFFFFFFFFFFFFFFFFFFFFFFFFFFFFFFFFFFFFF AND PUSH20 0xFFFFFFFFFFFFFFFFFFFFFFFFFFFFFFFFFFFFFFFF AND DUP2 MSTORE PUSH1 0x20 ADD SWAP1 DUP2 MSTORE PUSH1 0x20 ADD PUSH1 0x0 KECCAK256 PUSH1 0x0 DUP3 ADD MLOAD DUP2 PUSH1 0x0 ADD SWAP1 DUP1 MLOAD SWAP1 PUSH1 0x20 ADD SWAP1 PUSH2 0x37B SWAP3 SWAP2 SWAP1 PUSH2 0x5E5 JUMP JUMPDEST POP PUSH1 0x20 DUP3 ADD MLOAD DUP2 PUSH1 0x1 ADD SSTORE PUSH1 0x40 DUP3 ADD MLOAD DUP2 PUSH1 0x2 ADD SWAP1 DUP1 MLOAD SWAP1 PUSH1 0x20 ADD SWAP1 PUSH2 0x3A2 SWAP3 SWAP2 SWAP1 PUSH2 0x5E5 JUMP JUMPDEST POP PUSH1 0x60 DUP3 ADD MLOAD DUP2 PUSH1 0x3 ADD SWAP1 DUP1 MLOAD SWAP1 PUSH1 0x20 ADD SWAP1 PUSH2 0x3BF SWAP3 SWAP2 SWAP1 PUSH2 0x5E5 JUMP JUMPDEST POP SWAP1 POP POP CALLER PUSH20 0xFFFFFFFFFFFFFFFFFFFFFFFFFFFFFFFFFFFFFFFF AND PUSH32 0xCF55D0809A20D892C46C194FA9B874275677AA218FAC2324C65D8EF15CD13AA1 DUP6 DUP6 DUP6 DUP6 PUSH1 0x40 MLOAD PUSH2 0x40F SWAP5 SWAP4 SWAP3 SWAP2 SWAP1 PUSH2 0x7D9 JUMP JUMPDEST PUSH1 0x40 MLOAD DUP1 SWAP2 SUB SWAP1 LOG2 POP POP POP POP JUMP JUMPDEST PUSH1 0x0 PUSH1 0x20 MSTORE DUP1 PUSH1 0x0 MSTORE PUSH1 0x40 PUSH1 0x0 KECCAK256 PUSH1 0x0 SWAP2 POP SWAP1 POP DUP1 PUSH1 0x0 ADD DUP1 SLOAD PUSH2 0x440 SWAP1 PUSH2 0xA7E JUMP JUMPDEST DUP1 PUSH1 0x1F ADD PUSH1 0x20 DUP1 SWAP2 DIV MUL PUSH1 0x20 ADD PUSH1 0x40 MLOAD SWAP1 DUP2 ADD PUSH1 0x40 MSTORE DUP1 SWAP3 SWAP2 SWAP1 DUP2 DUP2 MSTORE PUSH1 0x20 ADD DUP3 DUP1 SLOAD PUSH2 0x46C SWAP1 PUSH2 0xA7E JUMP JUMPDEST DUP1 ISZERO PUSH2 0x4B9 JUMPI DUP1 PUSH1 0x1F LT PUSH2 0x48E JUMPI PUSH2 0x100 DUP1 DUP4 SLOAD DIV MUL DUP4 MSTORE SWAP2 PUSH1 0x20 ADD SWAP2 PUSH2 0x4B9 JUMP JUMPDEST DUP3 ADD SWAP2 SWAP1 PUSH1 0x0 MSTORE PUSH1 0x20 PUSH1 0x0 KECCAK256 SWAP1 JUMPDEST DUP2 SLOAD DUP2 MSTORE SWAP1 PUSH1 0x1 ADD SWAP1 PUSH1 0x20 ADD DUP1 DUP4 GT PUSH2 0x49C JUMPI DUP3 SWAP1 SUB PUSH1 0x1F AND DUP3 ADD SWAP2 JUMPDEST POP POP POP POP POP SWAP1 DUP1 PUSH1 0x1 ADD SLOAD SWAP1 DUP1 PUSH1 0x2 ADD DUP1 SLOAD PUSH2 0x4D4 SWAP1 PUSH2 0xA7E JUMP JUMPDEST DUP1 PUSH1 0x1F ADD PUSH1 0x20 DUP1 SWAP2 DIV MUL PUSH1 0x20 ADD PUSH1 0x40 MLOAD SWAP1 DUP2 ADD PUSH1 0x40 MSTORE DUP1 SWAP3 SWAP2 SWAP1 DUP2 DUP2 MSTORE PUSH1 0x20 ADD DUP3 DUP1 SLOAD PUSH2 0x500 SWAP1 PUSH2 0xA7E JUMP JUMPDEST DUP1 ISZERO PUSH2 0x54D JUMPI DUP1 PUSH1 0x1F LT PUSH2 0x522 JUMPI PUSH2 0x100 DUP1 DUP4 SLOAD DIV MUL DUP4 MSTORE SWAP2 PUSH1 0x20 ADD SWAP2 PUSH2 0x54D JUMP JUMPDEST DUP3 ADD SWAP2 SWAP1 PUSH1 0x0 MSTORE PUSH1 0x20 PUSH1 0x0 KECCAK256 SWAP1 JUMPDEST DUP2 SLOAD DUP2 MSTORE SWAP1 PUSH1 0x1 ADD SWAP1 PUSH1 0x20 ADD DUP1 DUP4 GT PUSH2 0x530 JUMPI DUP3 SWAP1 SUB PUSH1 0x1F AND DUP3 ADD SWAP2 JUMPDEST POP POP POP POP POP SWAP1 DUP1 PUSH1 0x3 ADD DUP1 SLOAD PUSH2 0x562 SWAP1 PUSH2 0xA7E JUMP JUMPDEST DUP1 PUSH1 0x1F ADD PUSH1 0x20 DUP1 SWAP2 DIV MUL PUSH1 0x20 ADD PUSH1 0x40 MLOAD SWAP1 DUP2 ADD PUSH1 0x40 MSTORE DUP1 SWAP3 SWAP2 SWAP1 DUP2 DUP2 MSTORE PUSH1 0x20 ADD DUP3 DUP1 SLOAD PUSH2 0x58E SWAP1 PUSH2 0xA7E JUMP JUMPDEST DUP1 ISZERO PUSH2 0x5DB JUMPI DUP1 PUSH1 0x1F LT PUSH2 0x5B0 JUMPI PUSH2 0x100 DUP1 DUP4 SLOAD DIV MUL DUP4 MSTORE SWAP2 PUSH1 0x20 ADD SWAP2 PUSH2 0x5DB JUMP JUMPDEST DUP3 ADD SWAP2 SWAP1 PUSH1 0x0 MSTORE PUSH1 0x20 PUSH1 0x0 KECCAK256 SWAP1 JUMPDEST DUP2 SLOAD DUP2 MSTORE SWAP1 PUSH1 0x1 ADD SWAP1 PUSH1 0x20 ADD DUP1 DUP4 GT PUSH2 0x5BE JUMPI DUP3 SWAP1 SUB PUSH1 0x1F AND DUP3 ADD SWAP2 JUMPDEST POP POP POP POP POP SWAP1 POP DUP5 JUMP JUMPDEST DUP3 DUP1 SLOAD PUSH2 0x5F1 SWAP1 PUSH2 0xA7E JUMP JUMPDEST SWAP1 PUSH1 0x0 MSTORE PUSH1 0x20 PUSH1 0x0 KECCAK256 SWAP1 PUSH1 0x1F ADD PUSH1 0x20 SWAP1 DIV DUP2 ADD SWAP3 DUP3 PUSH2 0x613 JUMPI PUSH1 0x0 DUP6 SSTORE PUSH2 0x65A JUMP JUMPDEST DUP3 PUSH1 0x1F LT PUSH2 0x62C JUMPI DUP1 MLOAD PUSH1 0xFF NOT AND DUP4 DUP1 ADD OR DUP6 SSTORE PUSH2 0x65A JUMP JUMPDEST DUP3 DUP1 ADD PUSH1 0x1 ADD DUP6 SSTORE DUP3 ISZERO PUSH2 0x65A JUMPI SWAP2 DUP3 ADD JUMPDEST DUP3 DUP2 GT ISZERO PUSH2 0x659 JUMPI DUP3 MLOAD DUP3 SSTORE SWAP2 PUSH1 0x20 ADD SWAP2 SWAP1 PUSH1 0x1 ADD SWAP1 PUSH2 0x63E JUMP JUMPDEST JUMPDEST POP SWAP1 POP PUSH2 0x667 SWAP2 SWAP1 PUSH2 0x66B JUMP JUMPDEST POP SWAP1 JUMP JUMPDEST JUMPDEST DUP1 DUP3 GT ISZERO PUSH2 0x684 JUMPI PUSH1 0x0 DUP2 PUSH1 0x0 SWAP1 SSTORE POP PUSH1 0x1 ADD PUSH2 0x66C JUMP JUMPDEST POP SWAP1 JUMP JUMPDEST PUSH1 0x0 PUSH1 0x40 MLOAD SWAP1 POP SWAP1 JUMP JUMPDEST PUSH1 0x0 DUP1 REVERT JUMPDEST PUSH1 0x0 DUP1 REVERT JUMPDEST PUSH1 0x0 PUSH20 0xFFFFFFFFFFFFFFFFFFFFFFFFFFFFFFFFFFFFFFFF DUP3 AND SWAP1 POP SWAP2 SWAP1 POP JUMP JUMPDEST PUSH1 0x0 PUSH2 0x6C7 DUP3 PUSH2 0x69C JUMP JUMPDEST SWAP1 POP SWAP2 SWAP1 POP JUMP JUMPDEST PUSH2 0x6D7 DUP2 PUSH2 0x6BC JUMP JUMPDEST DUP2 EQ PUSH2 0x6E2 JUMPI PUSH1 0x0 DUP1 REVERT JUMPDEST POP JUMP JUMPDEST PUSH1 0x0 DUP2 CALLDATALOAD SWAP1 POP PUSH2 0x6F4 DUP2 PUSH2 0x6CE JUMP JUMPDEST SWAP3 SWAP2 POP POP JUMP JUMPDEST PUSH1 0x0 PUSH1 0x20 DUP3 DUP5 SUB SLT ISZERO PUSH2 0x710 JUMPI PUSH2 0x70F PUSH2 0x692 JUMP JUMPDEST JUMPDEST PUSH1 0x0 PUSH2 0x71E DUP5 DUP3 DUP6 ADD PUSH2 0x6E5 JUMP JUMPDEST SWAP2 POP POP SWAP3 SWAP2 POP POP JUMP JUMPDEST PUSH1 0x0 DUP2 MLOAD SWAP1 POP SWAP2 SWAP1 POP JUMP JUMPDEST PUSH1 0x0 DUP3 DUP3 MSTORE PUSH1 0x20 DUP3 ADD SWAP1 POP SWAP3 SWAP2 POP POP JUMP JUMPDEST PUSH1 0x0 JUMPDEST DUP4 DUP2 LT ISZERO PUSH2 0x761 JUMPI DUP1 DUP3 ADD MLOAD DUP2 DUP5 ADD MSTORE PUSH1 0x20 DUP2 ADD SWAP1 POP PUSH2 0x746 JUMP JUMPDEST DUP4 DUP2 GT ISZERO PUSH2 0x770 JUMPI PUSH1 0x0 DUP5 DUP5 ADD MSTORE JUMPDEST POP POP POP POP JUMP JUMPDEST PUSH1 0x0 PUSH1 0x1F NOT PUSH1 0x1F DUP4 ADD AND SWAP1 POP SWAP2 SWAP1 POP JUMP JUMPDEST PUSH1 0x0 PUSH2 0x792 DUP3 PUSH2 0x727 JUMP JUMPDEST PUSH2 0x79C DUP2 DUP6 PUSH2 0x732 JUMP JUMPDEST SWAP4 POP PUSH2 0x7AC DUP2 DUP6 PUSH1 0x20 DUP7 ADD PUSH2 0x743 JUMP JUMPDEST PUSH2 0x7B5 DUP2 PUSH2 0x776 JUMP JUMPDEST DUP5 ADD SWAP2 POP POP SWAP3 SWAP2 POP POP JUMP JUMPDEST PUSH1 0x0 DUP2 SWAP1 POP SWAP2 SWAP1 POP JUMP JUMPDEST PUSH2 0x7D3 DUP2 PUSH2 0x7C0 JUMP JUMPDEST DUP3 MSTORE POP POP JUMP JUMPDEST PUSH1 0x0 PUSH1 0x80 DUP3 ADD SWAP1 POP DUP2 DUP2 SUB PUSH1 0x0 DUP4 ADD MSTORE PUSH2 0x7F3 DUP2 DUP8 PUSH2 0x787 JUMP JUMPDEST SWAP1 POP PUSH2 0x802 PUSH1 0x20 DUP4 ADD DUP7 PUSH2 0x7CA JUMP JUMPDEST DUP2 DUP2 SUB PUSH1 0x40 DUP4 ADD MSTORE PUSH2 0x814 DUP2 DUP6 PUSH2 0x787 JUMP JUMPDEST SWAP1 POP DUP2 DUP2 SUB PUSH1 0x60 DUP4 ADD MSTORE PUSH2 0x828 DUP2 DUP5 PUSH2 0x787 JUMP JUMPDEST SWAP1 POP SWAP6 SWAP5 POP POP POP POP POP JUMP JUMPDEST PUSH1 0x0 DUP1 REVERT JUMPDEST PUSH1 0x0 DUP1 REVERT JUMPDEST PUSH32 0x4E487B7100000000000000000000000000000000000000000000000000000000 PUSH1 0x0 MSTORE PUSH1 0x41 PUSH1 0x4 MSTORE PUSH1 0x24 PUSH1 0x0 REVERT JUMPDEST PUSH2 0x875 DUP3 PUSH2 0x776 JUMP JUMPDEST DUP2 ADD DUP2 DUP2 LT PUSH8 0xFFFFFFFFFFFFFFFF DUP3 GT OR ISZERO PUSH2 0x894 JUMPI PUSH2 0x893 PUSH2 0x83D JUMP JUMPDEST JUMPDEST DUP1 PUSH1 0x40 MSTORE POP POP POP JUMP JUMPDEST PUSH1 0x0 PUSH2 0x8A7 PUSH2 0x688 JUMP JUMPDEST SWAP1 POP PUSH2 0x8B3 DUP3 DUP3 PUSH2 0x86C JUMP JUMPDEST SWAP2 SWAP1 POP JUMP JUMPDEST PUSH1 0x0 PUSH8 0xFFFFFFFFFFFFFFFF DUP3 GT ISZERO PUSH2 0x8D3 JUMPI PUSH2 0x8D2 PUSH2 0x83D JUMP JUMPDEST JUMPDEST PUSH2 0x8DC DUP3 PUSH2 0x776 JUMP JUMPDEST SWAP1 POP PUSH1 0x20 DUP2 ADD SWAP1 POP SWAP2 SWAP1 POP JUMP JUMPDEST DUP3 DUP2 DUP4 CALLDATACOPY PUSH1 0x0 DUP4 DUP4 ADD MSTORE POP POP POP JUMP JUMPDEST PUSH1 0x0 PUSH2 0x90B PUSH2 0x906 DUP5 PUSH2 0x8B8 JUMP JUMPDEST PUSH2 0x89D JUMP JUMPDEST SWAP1 POP DUP3 DUP2 MSTORE PUSH1 0x20 DUP2 ADD DUP5 DUP5 DUP5 ADD GT ISZERO PUSH2 0x927 JUMPI PUSH2 0x926 PUSH2 0x838 JUMP JUMPDEST JUMPDEST PUSH2 0x932 DUP5 DUP3 DUP6 PUSH2 0x8E9 JUMP JUMPDEST POP SWAP4 SWAP3 POP POP POP JUMP JUMPDEST PUSH1 0x0 DUP3 PUSH1 0x1F DUP4 ADD SLT PUSH2 0x94F JUMPI PUSH2 0x94E PUSH2 0x833 JUMP JUMPDEST JUMPDEST DUP2 CALLDATALOAD PUSH2 0x95F DUP5 DUP3 PUSH1 0x20 DUP7 ADD PUSH2 0x8F8 JUMP JUMPDEST SWAP2 POP POP SWAP3 SWAP2 POP POP JUMP JUMPDEST PUSH2 0x971 DUP2 PUSH2 0x7C0 JUMP JUMPDEST DUP2 EQ PUSH2 0x97C JUMPI PUSH1 0x0 DUP1 REVERT JUMPDEST POP JUMP JUMPDEST PUSH1 0x0 DUP2 CALLDATALOAD SWAP1 POP PUSH2 0x98E DUP2 PUSH2 0x968 JUMP JUMPDEST SWAP3 SWAP2 POP POP JUMP JUMPDEST PUSH1 0x0 DUP1 PUSH1 0x0 DUP1 PUSH1 0x80 DUP6 DUP8 SUB SLT ISZERO PUSH2 0x9AE JUMPI PUSH2 0x9AD PUSH2 0x692 JUMP JUMPDEST JUMPDEST PUSH1 0x0 DUP6 ADD CALLDATALOAD PUSH8 0xFFFFFFFFFFFFFFFF DUP2 GT ISZERO PUSH2 0x9CC JUMPI PUSH2 0x9CB PUSH2 0x697 JUMP JUMPDEST JUMPDEST PUSH2 0x9D8 DUP8 DUP3 DUP9 ADD PUSH2 0x93A JUMP JUMPDEST SWAP5 POP POP PUSH1 0x20 PUSH2 0x9E9 DUP8 DUP3 DUP9 ADD PUSH2 0x97F JUMP JUMPDEST SWAP4 POP POP PUSH1 0x40 DUP6 ADD CALLDATALOAD PUSH8 0xFFFFFFFFFFFFFFFF DUP2 GT ISZERO PUSH2 0xA0A JUMPI PUSH2 0xA09 PUSH2 0x697 JUMP JUMPDEST JUMPDEST PUSH2 0xA16 DUP8 DUP3 DUP9 ADD PUSH2 0x93A JUMP JUMPDEST SWAP3 POP POP PUSH1 0x60 DUP6 ADD CALLDATALOAD PUSH8 0xFFFFFFFFFFFFFFFF DUP2 GT ISZERO PUSH2 0xA37 JUMPI PUSH2 0xA36 PUSH2 0x697 JUMP JUMPDEST JUMPDEST PUSH2 0xA43 DUP8 DUP3 DUP9 ADD PUSH2 0x93A JUMP JUMPDEST SWAP2 POP POP SWAP3 SWAP6 SWAP2 SWAP5 POP SWAP3 POP JUMP JUMPDEST PUSH32 0x4E487B7100000000000000000000000000000000000000000000000000000000 PUSH1 0x0 MSTORE PUSH1 0x22 PUSH1 0x4 MSTORE PUSH1 0x24 PUSH1 0x0 REVERT JUMPDEST PUSH1 0x0 PUSH1 0x2 DUP3 DIV SWAP1 POP PUSH1 0x1 DUP3 AND DUP1 PUSH2 0xA96 JUMPI PUSH1 0x7F DUP3 AND SWAP2 POP JUMPDEST PUSH1 0x20 DUP3 LT DUP2 EQ ISZERO PUSH2 0xAAA JUMPI PUSH2 0xAA9 PUSH2 0xA4F JUMP JUMPDEST JUMPDEST POP SWAP2 SWAP1 POP JUMP INVALID LOG2 PUSH5 0x6970667358 0x22 SLT KECCAK256 0xF6 COINBASE PUSH6 0xB57343F18B98 CREATE 0xF6 0xEC 0xB1 GASPRICE PUSH22 0x50BA6C1651E514D18836F030023E9CA34964736F6C63 NUMBER STOP ADDMOD SIGNEXTEND STOP CALLER "
				},
				"gasEstimates": {
					"creation": {
						"codeDepositCost": "558000",
						"executionCost": "594",
						"totalCost": "558594"
					},
					"external": {
						"createIdentity(string,uint256,string,string)": "infinite",
						"getIdentity(address)": "infinite",
						"identities(address)": "infinite"
					}
				},
				"methodIdentifiers": {
					"createIdentity(string,uint256,string,string)": "37c5c011",
					"getIdentity(address)": "2fea7b81",
					"identities(address)": "f653b81e"
				}
			},
			"storageLayout": {
				"storage": [
					{
						"astId": 15,
						"contract": "Identity Details Project 7/Identity Details.sol:IdentityRegistry",
						"label": "identities",
						"offset": 0,
						"slot": "0",
						"type": "t_mapping(t_address,t_struct(Identity)10_storage)"
					}
				],
				"types": {
					"t_address": {
						"encoding": "inplace",
						"label": "address",
						"numberOfBytes": "20"
					},
					"t_mapping(t_address,t_struct(Identity)10_storage)": {
						"encoding": "mapping",
						"key": "t_address",
						"label": "mapping(address => struct IdentityRegistry.Identity)",
						"numberOfBytes": "32",
						"value": "t_struct(Identity)10_storage"
					},
					"t_string_storage": {
						"encoding": "bytes",
						"label": "string",
						"numberOfBytes": "32"
					},
					"t_struct(Identity)10_storage": {
						"encoding": "inplace",
						"label": "struct IdentityRegistry.Identity",
						"members": [
							{
								"astId": 3,
								"contract": "Identity Details Project 7/Identity Details.sol:IdentityRegistry",
								"label": "name",
								"offset": 0,
								"slot": "0",
								"type": "t_string_storage"
							},
							{
								"astId": 5,
								"contract": "Identity Details Project 7/Identity Details.sol:IdentityRegistry",
								"label": "age",
								"offset": 0,
								"slot": "1",
								"type": "t_uint256"
							},
							{
								"astId": 7,
								"contract": "Identity Details Project 7/Identity Details.sol:IdentityRegistry",
								"label": "location",
								"offset": 0,
								"slot": "2",
								"type": "t_string_storage"
							},
							{
								"astId": 9,
								"contract": "Identity Details Project 7/Identity Details.sol:IdentityRegistry",
								"label": "governmentId",
								"offset": 0,
								"slot": "3",
								"type": "t_string_storage"
							}
						],
						"numberOfBytes": "128"
					},
					"t_uint256": {
						"encoding": "inplace",
						"label": "uint256",
						"numberOfBytes": "32"
					}
				}
			},
			"userdoc": {
				"kind": "user",
				"methods": {},
				"version": 1
			}
		}
	}
}