{
	"Track Transportation Project 11/Track Transportation.sol": {
		"Transportation": {
			"abi": [
				{
					"anonymous": false,
					"inputs": [
						{
							"indexed": true,
							"internalType": "uint256",
							"name": "id",
							"type": "uint256"
						},
						{
							"indexed": false,
							"internalType": "string",
							"name": "name",
							"type": "string"
						},
						{
							"indexed": false,
							"internalType": "uint256",
							"name": "length",
							"type": "uint256"
						},
						{
							"indexed": false,
							"internalType": "uint256",
							"name": "toll",
							"type": "uint256"
						},
						{
							"indexed": false,
							"internalType": "address",
							"name": "owner",
							"type": "address"
						}
					],
					"name": "highwayCreated",
					"type": "event"
				},
				{
					"anonymous": false,
					"inputs": [
						{
							"indexed": true,
							"internalType": "uint256",
							"name": "id",
							"type": "uint256"
						},
						{
							"indexed": false,
							"internalType": "address",
							"name": "from",
							"type": "address"
						},
						{
							"indexed": false,
							"internalType": "address",
							"name": "to",
							"type": "address"
						}
					],
					"name": "highwayTransferred",
					"type": "event"
				},
				{
					"inputs": [
						{
							"internalType": "string",
							"name": "_name",
							"type": "string"
						},
						{
							"internalType": "uint256",
							"name": "_length",
							"type": "uint256"
						},
						{
							"internalType": "uint256",
							"name": "_toll",
							"type": "uint256"
						}
					],
					"name": "addHighway",
					"outputs": [],
					"stateMutability": "nonpayable",
					"type": "function"
				},
				{
					"inputs": [
						{
							"internalType": "uint256",
							"name": "_id",
							"type": "uint256"
						}
					],
					"name": "getHighway",
					"outputs": [
						{
							"internalType": "string",
							"name": "",
							"type": "string"
						},
						{
							"internalType": "uint256",
							"name": "",
							"type": "uint256"
						},
						{
							"internalType": "uint256",
							"name": "",
							"type": "uint256"
						},
						{
							"internalType": "address",
							"name": "",
							"type": "address"
						}
					],
					"stateMutability": "view",
					"type": "function"
				},
				{
					"inputs": [],
					"name": "highwayCount",
					"outputs": [
						{
							"internalType": "uint256",
							"name": "",
							"type": "uint256"
						}
					],
					"stateMutability": "view",
					"type": "function"
				},
				{
					"inputs": [
						{
							"internalType": "uint256",
							"name": "",
							"type": "uint256"
						}
					],
					"name": "highways",
					"outputs": [
						{
							"internalType": "string",
							"name": "name",
							"type": "string"
						},
						{
							"internalType": "uint256",
							"name": "length",
							"type": "uint256"
						},
						{
							"internalType": "uint256",
							"name": "toll",
							"type": "uint256"
						},
						{
							"internalType": "address",
							"name": "owner",
							"type": "address"
						}
					],
					"stateMutability": "view",
					"type": "function"
				},
				{
					"inputs": [
						{
							"internalType": "uint256",
							"name": "_id",
							"type": "uint256"
						},
						{
							"internalType": "address",
							"name": "_newOwner",
							"type": "address"
						}
					],
					"name": "transferHighwayOwnership",
					"outputs": [],
					"stateMutability": "nonpayable",
					"type": "function"
				}
			],
			"devdoc": {
				"kind": "dev",
				"methods": {},
				"version": 1
			},
			"evm": {
				"assembly": "    /* \"Track Transportation Project 11/Track Transportation.sol\":60:2049  contract Transportation {... */\n  mstore(0x40, 0x80)\n  callvalue\n  dup1\n  iszero\n  tag_1\n  jumpi\n  0x00\n  dup1\n  revert\ntag_1:\n  pop\n  dataSize(sub_0)\n  dup1\n  dataOffset(sub_0)\n  0x00\n  codecopy\n  0x00\n  return\nstop\n\nsub_0: assembly {\n        /* \"Track Transportation Project 11/Track Transportation.sol\":60:2049  contract Transportation {... */\n      mstore(0x40, 0x80)\n      callvalue\n      dup1\n      iszero\n      tag_1\n      jumpi\n      0x00\n      dup1\n      revert\n    tag_1:\n      pop\n      jumpi(tag_2, lt(calldatasize, 0x04))\n      shr(0xe0, calldataload(0x00))\n      dup1\n      0x2a6e0a61\n      eq\n      tag_3\n      jumpi\n      dup1\n      0x5df170ee\n      eq\n      tag_4\n      jumpi\n      dup1\n      0x7bb2f090\n      eq\n      tag_5\n      jumpi\n      dup1\n      0x839aeb1c\n      eq\n      tag_6\n      jumpi\n      dup1\n      0xa076f818\n      eq\n      tag_7\n      jumpi\n    tag_2:\n      0x00\n      dup1\n      revert\n        /* \"Track Transportation Project 11/Track Transportation.sol\":358:385  uint256 public highwayCount */\n    tag_3:\n      tag_8\n      tag_9\n      jump\t// in\n    tag_8:\n      mload(0x40)\n      tag_10\n      swap2\n      swap1\n      tag_11\n      jump\t// in\n    tag_10:\n      mload(0x40)\n      dup1\n      swap2\n      sub\n      swap1\n      return\n        /* \"Track Transportation Project 11/Track Transportation.sol\":778:1221  function addHighway(... */\n    tag_4:\n      tag_12\n      0x04\n      dup1\n      calldatasize\n      sub\n      dup2\n      add\n      swap1\n      tag_13\n      swap2\n      swap1\n      tag_14\n      jump\t// in\n    tag_13:\n      tag_15\n      jump\t// in\n    tag_12:\n      stop\n        /* \"Track Transportation Project 11/Track Transportation.sol\":1269:1594  function getHighway(uint256 _id)... */\n    tag_5:\n      tag_16\n      0x04\n      dup1\n      calldatasize\n      sub\n      dup2\n      add\n      swap1\n      tag_17\n      swap2\n      swap1\n      tag_18\n      jump\t// in\n    tag_17:\n      tag_19\n      jump\t// in\n    tag_16:\n      mload(0x40)\n      tag_20\n      swap5\n      swap4\n      swap3\n      swap2\n      swap1\n      tag_21\n      jump\t// in\n    tag_20:\n      mload(0x40)\n      dup1\n      swap2\n      sub\n      swap1\n      return\n        /* \"Track Transportation Project 11/Track Transportation.sol\":1649:2046  function transferHighwayOwnership(uint256 _id, address _newOwner) public {... */\n    tag_6:\n      tag_22\n      0x04\n      dup1\n      calldatasize\n      sub\n      dup2\n      add\n      swap1\n      tag_23\n      swap2\n      swap1\n      tag_24\n      jump\t// in\n    tag_23:\n      tag_25\n      jump\t// in\n    tag_22:\n      stop\n        /* \"Track Transportation Project 11/Track Transportation.sol\":279:322  mapping(uint256 => Highway) public highways */\n    tag_7:\n      tag_26\n      0x04\n      dup1\n      calldatasize\n      sub\n      dup2\n      add\n      swap1\n      tag_27\n      swap2\n      swap1\n      tag_18\n      jump\t// in\n    tag_27:\n      tag_28\n      jump\t// in\n    tag_26:\n      mload(0x40)\n      tag_29\n      swap5\n      swap4\n      swap3\n      swap2\n      swap1\n      tag_21\n      jump\t// in\n    tag_29:\n      mload(0x40)\n      dup1\n      swap2\n      sub\n      swap1\n      return\n        /* \"Track Transportation Project 11/Track Transportation.sol\":358:385  uint256 public highwayCount */\n    tag_9:\n      sload(0x01)\n      dup2\n      jump\t// out\n        /* \"Track Transportation Project 11/Track Transportation.sol\":778:1221  function addHighway(... */\n    tag_15:\n        /* \"Track Transportation Project 11/Track Transportation.sol\":903:915  highwayCount */\n      0x01\n      0x00\n        /* \"Track Transportation Project 11/Track Transportation.sol\":903:917  highwayCount++ */\n      dup2\n      sload\n      dup1\n      swap3\n      swap2\n      swap1\n      tag_31\n      swap1\n      tag_32\n      jump\t// in\n    tag_31:\n      swap2\n      swap1\n      pop\n      sstore\n      pop\n        /* \"Track Transportation Project 11/Track Transportation.sol\":953:1058  Highway(... */\n      mload(0x40)\n      dup1\n      0x80\n      add\n      0x40\n      mstore\n      dup1\n        /* \"Track Transportation Project 11/Track Transportation.sol\":975:980  _name */\n      dup5\n        /* \"Track Transportation Project 11/Track Transportation.sol\":953:1058  Highway(... */\n      dup2\n      mstore\n      0x20\n      add\n        /* \"Track Transportation Project 11/Track Transportation.sol\":995:1002  _length */\n      dup4\n        /* \"Track Transportation Project 11/Track Transportation.sol\":953:1058  Highway(... */\n      dup2\n      mstore\n      0x20\n      add\n        /* \"Track Transportation Project 11/Track Transportation.sol\":1017:1022  _toll */\n      dup3\n        /* \"Track Transportation Project 11/Track Transportation.sol\":953:1058  Highway(... */\n      dup2\n      mstore\n      0x20\n      add\n        /* \"Track Transportation Project 11/Track Transportation.sol\":1037:1047  msg.sender */\n      caller\n        /* \"Track Transportation Project 11/Track Transportation.sol\":953:1058  Highway(... */\n      0xffffffffffffffffffffffffffffffffffffffff\n      and\n      dup2\n      mstore\n      pop\n        /* \"Track Transportation Project 11/Track Transportation.sol\":928:936  highways */\n      0x00\n        /* \"Track Transportation Project 11/Track Transportation.sol\":928:950  highways[highwayCount] */\n      dup1\n        /* \"Track Transportation Project 11/Track Transportation.sol\":937:949  highwayCount */\n      sload(0x01)\n        /* \"Track Transportation Project 11/Track Transportation.sol\":928:950  highways[highwayCount] */\n      dup2\n      mstore\n      0x20\n      add\n      swap1\n      dup2\n      mstore\n      0x20\n      add\n      0x00\n      keccak256\n        /* \"Track Transportation Project 11/Track Transportation.sol\":928:1058  highways[highwayCount] = Highway(... */\n      0x00\n      dup3\n      add\n      mload\n      dup2\n      0x00\n      add\n      swap1\n      dup1\n      mload\n      swap1\n      0x20\n      add\n      swap1\n      tag_33\n      swap3\n      swap2\n      swap1\n      tag_34\n      jump\t// in\n    tag_33:\n      pop\n      0x20\n      dup3\n      add\n      mload\n      dup2\n      0x01\n      add\n      sstore\n      0x40\n      dup3\n      add\n      mload\n      dup2\n      0x02\n      add\n      sstore\n      0x60\n      dup3\n      add\n      mload\n      dup2\n      0x03\n      add\n      exp(0x0100, 0x00)\n      dup2\n      sload\n      dup2\n      0xffffffffffffffffffffffffffffffffffffffff\n      mul\n      not\n      and\n      swap1\n      dup4\n      0xffffffffffffffffffffffffffffffffffffffff\n      and\n      mul\n      or\n      swap1\n      sstore\n      pop\n      swap1\n      pop\n      pop\n        /* \"Track Transportation Project 11/Track Transportation.sol\":1103:1115  highwayCount */\n      sload(0x01)\n        /* \"Track Transportation Project 11/Track Transportation.sol\":1074:1213  highwayCreated(... */\n      0x8945c4cfaccab042d9099066b527683f26df70b1139f3707c32b1fb75fec90e0\n        /* \"Track Transportation Project 11/Track Transportation.sol\":1130:1135  _name */\n      dup5\n        /* \"Track Transportation Project 11/Track Transportation.sol\":1150:1157  _length */\n      dup5\n        /* \"Track Transportation Project 11/Track Transportation.sol\":1172:1177  _toll */\n      dup5\n        /* \"Track Transportation Project 11/Track Transportation.sol\":1192:1202  msg.sender */\n      caller\n        /* \"Track Transportation Project 11/Track Transportation.sol\":1074:1213  highwayCreated(... */\n      mload(0x40)\n      tag_35\n      swap5\n      swap4\n      swap3\n      swap2\n      swap1\n      tag_21\n      jump\t// in\n    tag_35:\n      mload(0x40)\n      dup1\n      swap2\n      sub\n      swap1\n      log2\n        /* \"Track Transportation Project 11/Track Transportation.sol\":778:1221  function addHighway(... */\n      pop\n      pop\n      pop\n      jump\t// out\n        /* \"Track Transportation Project 11/Track Transportation.sol\":1269:1594  function getHighway(uint256 _id)... */\n    tag_19:\n        /* \"Track Transportation Project 11/Track Transportation.sol\":1364:1377  string memory */\n      0x60\n        /* \"Track Transportation Project 11/Track Transportation.sol\":1392:1399  uint256 */\n      0x00\n        /* \"Track Transportation Project 11/Track Transportation.sol\":1414:1421  uint256 */\n      dup1\n        /* \"Track Transportation Project 11/Track Transportation.sol\":1436:1443  address */\n      0x00\n        /* \"Track Transportation Project 11/Track Transportation.sol\":1471:1493  Highway memory highway */\n      dup1\n        /* \"Track Transportation Project 11/Track Transportation.sol\":1496:1504  highways */\n      0x00\n        /* \"Track Transportation Project 11/Track Transportation.sol\":1496:1509  highways[_id] */\n      dup1\n        /* \"Track Transportation Project 11/Track Transportation.sol\":1505:1508  _id */\n      dup8\n        /* \"Track Transportation Project 11/Track Transportation.sol\":1496:1509  highways[_id] */\n      dup2\n      mstore\n      0x20\n      add\n      swap1\n      dup2\n      mstore\n      0x20\n      add\n      0x00\n      keccak256\n        /* \"Track Transportation Project 11/Track Transportation.sol\":1471:1509  Highway memory highway = highways[_id] */\n      mload(0x40)\n      dup1\n      0x80\n      add\n      0x40\n      mstore\n      swap1\n      dup2\n      0x00\n      dup3\n      add\n      dup1\n      sload\n      tag_37\n      swap1\n      tag_38\n      jump\t// in\n    tag_37:\n      dup1\n      0x1f\n      add\n      0x20\n      dup1\n      swap2\n      div\n      mul\n      0x20\n      add\n      mload(0x40)\n      swap1\n      dup2\n      add\n      0x40\n      mstore\n      dup1\n      swap3\n      swap2\n      swap1\n      dup2\n      dup2\n      mstore\n      0x20\n      add\n      dup3\n      dup1\n      sload\n      tag_39\n      swap1\n      tag_38\n      jump\t// in\n    tag_39:\n      dup1\n      iszero\n      tag_40\n      jumpi\n      dup1\n      0x1f\n      lt\n      tag_41\n      jumpi\n      0x0100\n      dup1\n      dup4\n      sload\n      div\n      mul\n      dup4\n      mstore\n      swap2\n      0x20\n      add\n      swap2\n      jump(tag_40)\n    tag_41:\n      dup3\n      add\n      swap2\n      swap1\n      0x00\n      mstore\n      keccak256(0x00, 0x20)\n      swap1\n    tag_42:\n      dup2\n      sload\n      dup2\n      mstore\n      swap1\n      0x01\n      add\n      swap1\n      0x20\n      add\n      dup1\n      dup4\n      gt\n      tag_42\n      jumpi\n      dup3\n      swap1\n      sub\n      0x1f\n      and\n      dup3\n      add\n      swap2\n    tag_40:\n      pop\n      pop\n      pop\n      pop\n      pop\n      dup2\n      mstore\n      0x20\n      add\n      0x01\n      dup3\n      add\n      sload\n      dup2\n      mstore\n      0x20\n      add\n      0x02\n      dup3\n      add\n      sload\n      dup2\n      mstore\n      0x20\n      add\n      0x03\n      dup3\n      add\n      0x00\n      swap1\n      sload\n      swap1\n      0x0100\n      exp\n      swap1\n      div\n      0xffffffffffffffffffffffffffffffffffffffff\n      and\n      0xffffffffffffffffffffffffffffffffffffffff\n      and\n      0xffffffffffffffffffffffffffffffffffffffff\n      and\n      dup2\n      mstore\n      pop\n      pop\n      swap1\n      pop\n        /* \"Track Transportation Project 11/Track Transportation.sol\":1528:1535  highway */\n      dup1\n        /* \"Track Transportation Project 11/Track Transportation.sol\":1528:1540  highway.name */\n      0x00\n      add\n      mload\n        /* \"Track Transportation Project 11/Track Transportation.sol\":1542:1549  highway */\n      dup2\n        /* \"Track Transportation Project 11/Track Transportation.sol\":1542:1556  highway.length */\n      0x20\n      add\n      mload\n        /* \"Track Transportation Project 11/Track Transportation.sol\":1558:1565  highway */\n      dup3\n        /* \"Track Transportation Project 11/Track Transportation.sol\":1558:1570  highway.toll */\n      0x40\n      add\n      mload\n        /* \"Track Transportation Project 11/Track Transportation.sol\":1572:1579  highway */\n      dup4\n        /* \"Track Transportation Project 11/Track Transportation.sol\":1572:1585  highway.owner */\n      0x60\n      add\n      mload\n        /* \"Track Transportation Project 11/Track Transportation.sol\":1520:1586  return (highway.name, highway.length, highway.toll, highway.owner) */\n      swap5\n      pop\n      swap5\n      pop\n      swap5\n      pop\n      swap5\n      pop\n      pop\n        /* \"Track Transportation Project 11/Track Transportation.sol\":1269:1594  function getHighway(uint256 _id)... */\n      swap2\n      swap4\n      pop\n      swap2\n      swap4\n      jump\t// out\n        /* \"Track Transportation Project 11/Track Transportation.sol\":1649:2046  function transferHighwayOwnership(uint256 _id, address _newOwner) public {... */\n    tag_25:\n        /* \"Track Transportation Project 11/Track Transportation.sol\":1733:1756  Highway storage highway */\n      0x00\n        /* \"Track Transportation Project 11/Track Transportation.sol\":1759:1767  highways */\n      dup1\n        /* \"Track Transportation Project 11/Track Transportation.sol\":1759:1772  highways[_id] */\n      0x00\n        /* \"Track Transportation Project 11/Track Transportation.sol\":1768:1771  _id */\n      dup5\n        /* \"Track Transportation Project 11/Track Transportation.sol\":1759:1772  highways[_id] */\n      dup2\n      mstore\n      0x20\n      add\n      swap1\n      dup2\n      mstore\n      0x20\n      add\n      0x00\n      keccak256\n        /* \"Track Transportation Project 11/Track Transportation.sol\":1733:1772  Highway storage highway = highways[_id] */\n      swap1\n      pop\n        /* \"Track Transportation Project 11/Track Transportation.sol\":1805:1812  highway */\n      dup1\n        /* \"Track Transportation Project 11/Track Transportation.sol\":1805:1818  highway.owner */\n      0x03\n      add\n      0x00\n      swap1\n      sload\n      swap1\n      0x0100\n      exp\n      swap1\n      div\n      0xffffffffffffffffffffffffffffffffffffffff\n      and\n        /* \"Track Transportation Project 11/Track Transportation.sol\":1791:1818  msg.sender == highway.owner */\n      0xffffffffffffffffffffffffffffffffffffffff\n      and\n        /* \"Track Transportation Project 11/Track Transportation.sol\":1791:1801  msg.sender */\n      caller\n        /* \"Track Transportation Project 11/Track Transportation.sol\":1791:1818  msg.sender == highway.owner */\n      0xffffffffffffffffffffffffffffffffffffffff\n      and\n      eq\n        /* \"Track Transportation Project 11/Track Transportation.sol\":1783:1868  require(msg.sender == highway.owner, \"Only the current owner can transfer ownership\") */\n      tag_44\n      jumpi\n      mload(0x40)\n      0x08c379a000000000000000000000000000000000000000000000000000000000\n      dup2\n      mstore\n      0x04\n      add\n      tag_45\n      swap1\n      tag_46\n      jump\t// in\n    tag_45:\n      mload(0x40)\n      dup1\n      swap2\n      sub\n      swap1\n      revert\n    tag_44:\n        /* \"Track Transportation Project 11/Track Transportation.sol\":1908:1909  0 */\n      0x00\n        /* \"Track Transportation Project 11/Track Transportation.sol\":1887:1910  _newOwner != address(0) */\n      0xffffffffffffffffffffffffffffffffffffffff\n      and\n        /* \"Track Transportation Project 11/Track Transportation.sol\":1887:1896  _newOwner */\n      dup3\n        /* \"Track Transportation Project 11/Track Transportation.sol\":1887:1910  _newOwner != address(0) */\n      0xffffffffffffffffffffffffffffffffffffffff\n      and\n      eq\n      iszero\n        /* \"Track Transportation Project 11/Track Transportation.sol\":1879:1940  require(_newOwner != address(0), \"Invalid new owner address\") */\n      tag_47\n      jumpi\n      mload(0x40)\n      0x08c379a000000000000000000000000000000000000000000000000000000000\n      dup2\n      mstore\n      0x04\n      add\n      tag_48\n      swap1\n      tag_49\n      jump\t// in\n    tag_48:\n      mload(0x40)\n      dup1\n      swap2\n      sub\n      swap1\n      revert\n    tag_47:\n        /* \"Track Transportation Project 11/Track Transportation.sol\":1967:1976  _newOwner */\n      dup2\n        /* \"Track Transportation Project 11/Track Transportation.sol\":1951:1958  highway */\n      dup2\n        /* \"Track Transportation Project 11/Track Transportation.sol\":1951:1964  highway.owner */\n      0x03\n      add\n      0x00\n        /* \"Track Transportation Project 11/Track Transportation.sol\":1951:1976  highway.owner = _newOwner */\n      0x0100\n      exp\n      dup2\n      sload\n      dup2\n      0xffffffffffffffffffffffffffffffffffffffff\n      mul\n      not\n      and\n      swap1\n      dup4\n      0xffffffffffffffffffffffffffffffffffffffff\n      and\n      mul\n      or\n      swap1\n      sstore\n      pop\n        /* \"Track Transportation Project 11/Track Transportation.sol\":2011:2014  _id */\n      dup3\n        /* \"Track Transportation Project 11/Track Transportation.sol\":1992:2038  highwayTransferred(_id, msg.sender, _newOwner) */\n      0x4f04aee436e2a1eb4e406ce4f8091d73dfafdf9544d88f21adf02b97d5a001c6\n        /* \"Track Transportation Project 11/Track Transportation.sol\":2016:2026  msg.sender */\n      caller\n        /* \"Track Transportation Project 11/Track Transportation.sol\":2028:2037  _newOwner */\n      dup5\n        /* \"Track Transportation Project 11/Track Transportation.sol\":1992:2038  highwayTransferred(_id, msg.sender, _newOwner) */\n      mload(0x40)\n      tag_50\n      swap3\n      swap2\n      swap1\n      tag_51\n      jump\t// in\n    tag_50:\n      mload(0x40)\n      dup1\n      swap2\n      sub\n      swap1\n      log2\n        /* \"Track Transportation Project 11/Track Transportation.sol\":1722:2046  {... */\n      pop\n        /* \"Track Transportation Project 11/Track Transportation.sol\":1649:2046  function transferHighwayOwnership(uint256 _id, address _newOwner) public {... */\n      pop\n      pop\n      jump\t// out\n        /* \"Track Transportation Project 11/Track Transportation.sol\":279:322  mapping(uint256 => Highway) public highways */\n    tag_28:\n      mstore(0x20, 0x00)\n      dup1\n      0x00\n      mstore\n      keccak256(0x00, 0x40)\n      0x00\n      swap2\n      pop\n      swap1\n      pop\n      dup1\n      0x00\n      add\n      dup1\n      sload\n      tag_52\n      swap1\n      tag_38\n      jump\t// in\n    tag_52:\n      dup1\n      0x1f\n      add\n      0x20\n      dup1\n      swap2\n      div\n      mul\n      0x20\n      add\n      mload(0x40)\n      swap1\n      dup2\n      add\n      0x40\n      mstore\n      dup1\n      swap3\n      swap2\n      swap1\n      dup2\n      dup2\n      mstore\n      0x20\n      add\n      dup3\n      dup1\n      sload\n      tag_53\n      swap1\n      tag_38\n      jump\t// in\n    tag_53:\n      dup1\n      iszero\n      tag_54\n      jumpi\n      dup1\n      0x1f\n      lt\n      tag_55\n      jumpi\n      0x0100\n      dup1\n      dup4\n      sload\n      div\n      mul\n      dup4\n      mstore\n      swap2\n      0x20\n      add\n      swap2\n      jump(tag_54)\n    tag_55:\n      dup3\n      add\n      swap2\n      swap1\n      0x00\n      mstore\n      keccak256(0x00, 0x20)\n      swap1\n    tag_56:\n      dup2\n      sload\n      dup2\n      mstore\n      swap1\n      0x01\n      add\n      swap1\n      0x20\n      add\n      dup1\n      dup4\n      gt\n      tag_56\n      jumpi\n      dup3\n      swap1\n      sub\n      0x1f\n      and\n      dup3\n      add\n      swap2\n    tag_54:\n      pop\n      pop\n      pop\n      pop\n      pop\n      swap1\n      dup1\n      0x01\n      add\n      sload\n      swap1\n      dup1\n      0x02\n      add\n      sload\n      swap1\n      dup1\n      0x03\n      add\n      0x00\n      swap1\n      sload\n      swap1\n      0x0100\n      exp\n      swap1\n      div\n      0xffffffffffffffffffffffffffffffffffffffff\n      and\n      swap1\n      pop\n      dup5\n      jump\t// out\n    tag_34:\n      dup3\n      dup1\n      sload\n      tag_57\n      swap1\n      tag_38\n      jump\t// in\n    tag_57:\n      swap1\n      0x00\n      mstore\n      keccak256(0x00, 0x20)\n      swap1\n      0x1f\n      add\n      0x20\n      swap1\n      div\n      dup2\n      add\n      swap3\n      dup3\n      tag_59\n      jumpi\n      0x00\n      dup6\n      sstore\n      jump(tag_58)\n    tag_59:\n      dup3\n      0x1f\n      lt\n      tag_60\n      jumpi\n      dup1\n      mload\n      not(0xff)\n      and\n      dup4\n      dup1\n      add\n      or\n      dup6\n      sstore\n      jump(tag_58)\n    tag_60:\n      dup3\n      dup1\n      add\n      0x01\n      add\n      dup6\n      sstore\n      dup3\n      iszero\n      tag_58\n      jumpi\n      swap2\n      dup3\n      add\n    tag_61:\n      dup3\n      dup2\n      gt\n      iszero\n      tag_62\n      jumpi\n      dup3\n      mload\n      dup3\n      sstore\n      swap2\n      0x20\n      add\n      swap2\n      swap1\n      0x01\n      add\n      swap1\n      jump(tag_61)\n    tag_62:\n    tag_58:\n      pop\n      swap1\n      pop\n      tag_63\n      swap2\n      swap1\n      tag_64\n      jump\t// in\n    tag_63:\n      pop\n      swap1\n      jump\t// out\n    tag_64:\n    tag_65:\n      dup1\n      dup3\n      gt\n      iszero\n      tag_66\n      jumpi\n      0x00\n      dup2\n      0x00\n      swap1\n      sstore\n      pop\n      0x01\n      add\n      jump(tag_65)\n    tag_66:\n      pop\n      swap1\n      jump\t// out\n        /* \"#utility.yul\":7:84   */\n    tag_67:\n        /* \"#utility.yul\":44:51   */\n      0x00\n        /* \"#utility.yul\":73:78   */\n      dup2\n        /* \"#utility.yul\":62:78   */\n      swap1\n      pop\n        /* \"#utility.yul\":7:84   */\n      swap2\n      swap1\n      pop\n      jump\t// out\n        /* \"#utility.yul\":90:208   */\n    tag_68:\n        /* \"#utility.yul\":177:201   */\n      tag_102\n        /* \"#utility.yul\":195:200   */\n      dup2\n        /* \"#utility.yul\":177:201   */\n      tag_67\n      jump\t// in\n    tag_102:\n        /* \"#utility.yul\":172:175   */\n      dup3\n        /* \"#utility.yul\":165:202   */\n      mstore\n        /* \"#utility.yul\":90:208   */\n      pop\n      pop\n      jump\t// out\n        /* \"#utility.yul\":214:436   */\n    tag_11:\n        /* \"#utility.yul\":307:311   */\n      0x00\n        /* \"#utility.yul\":345:347   */\n      0x20\n        /* \"#utility.yul\":334:343   */\n      dup3\n        /* \"#utility.yul\":330:348   */\n      add\n        /* \"#utility.yul\":322:348   */\n      swap1\n      pop\n        /* \"#utility.yul\":358:429   */\n      tag_104\n        /* \"#utility.yul\":426:427   */\n      0x00\n        /* \"#utility.yul\":415:424   */\n      dup4\n        /* \"#utility.yul\":411:428   */\n      add\n        /* \"#utility.yul\":402:408   */\n      dup5\n        /* \"#utility.yul\":358:429   */\n      tag_68\n      jump\t// in\n    tag_104:\n        /* \"#utility.yul\":214:436   */\n      swap3\n      swap2\n      pop\n      pop\n      jump\t// out\n        /* \"#utility.yul\":442:517   */\n    tag_69:\n        /* \"#utility.yul\":475:481   */\n      0x00\n        /* \"#utility.yul\":508:510   */\n      0x40\n        /* \"#utility.yul\":502:511   */\n      mload\n        /* \"#utility.yul\":492:511   */\n      swap1\n      pop\n        /* \"#utility.yul\":442:517   */\n      swap1\n      jump\t// out\n        /* \"#utility.yul\":523:640   */\n    tag_70:\n        /* \"#utility.yul\":632:633   */\n      0x00\n        /* \"#utility.yul\":629:630   */\n      dup1\n        /* \"#utility.yul\":622:634   */\n      revert\n        /* \"#utility.yul\":646:763   */\n    tag_71:\n        /* \"#utility.yul\":755:756   */\n      0x00\n        /* \"#utility.yul\":752:753   */\n      dup1\n        /* \"#utility.yul\":745:757   */\n      revert\n        /* \"#utility.yul\":769:886   */\n    tag_72:\n        /* \"#utility.yul\":878:879   */\n      0x00\n        /* \"#utility.yul\":875:876   */\n      dup1\n        /* \"#utility.yul\":868:880   */\n      revert\n        /* \"#utility.yul\":892:1009   */\n    tag_73:\n        /* \"#utility.yul\":1001:1002   */\n      0x00\n        /* \"#utility.yul\":998:999   */\n      dup1\n        /* \"#utility.yul\":991:1003   */\n      revert\n        /* \"#utility.yul\":1015:1117   */\n    tag_74:\n        /* \"#utility.yul\":1056:1062   */\n      0x00\n        /* \"#utility.yul\":1107:1109   */\n      0x1f\n        /* \"#utility.yul\":1103:1110   */\n      not\n        /* \"#utility.yul\":1098:1100   */\n      0x1f\n        /* \"#utility.yul\":1091:1096   */\n      dup4\n        /* \"#utility.yul\":1087:1101   */\n      add\n        /* \"#utility.yul\":1083:1111   */\n      and\n        /* \"#utility.yul\":1073:1111   */\n      swap1\n      pop\n        /* \"#utility.yul\":1015:1117   */\n      swap2\n      swap1\n      pop\n      jump\t// out\n        /* \"#utility.yul\":1123:1303   */\n    tag_75:\n        /* \"#utility.yul\":1171:1248   */\n      0x4e487b7100000000000000000000000000000000000000000000000000000000\n        /* \"#utility.yul\":1168:1169   */\n      0x00\n        /* \"#utility.yul\":1161:1249   */\n      mstore\n        /* \"#utility.yul\":1268:1272   */\n      0x41\n        /* \"#utility.yul\":1265:1266   */\n      0x04\n        /* \"#utility.yul\":1258:1273   */\n      mstore\n        /* \"#utility.yul\":1292:1296   */\n      0x24\n        /* \"#utility.yul\":1289:1290   */\n      0x00\n        /* \"#utility.yul\":1282:1297   */\n      revert\n        /* \"#utility.yul\":1309:1590   */\n    tag_76:\n        /* \"#utility.yul\":1392:1419   */\n      tag_113\n        /* \"#utility.yul\":1414:1418   */\n      dup3\n        /* \"#utility.yul\":1392:1419   */\n      tag_74\n      jump\t// in\n    tag_113:\n        /* \"#utility.yul\":1384:1390   */\n      dup2\n        /* \"#utility.yul\":1380:1420   */\n      add\n        /* \"#utility.yul\":1522:1528   */\n      dup2\n        /* \"#utility.yul\":1510:1520   */\n      dup2\n        /* \"#utility.yul\":1507:1529   */\n      lt\n        /* \"#utility.yul\":1486:1504   */\n      0xffffffffffffffff\n        /* \"#utility.yul\":1474:1484   */\n      dup3\n        /* \"#utility.yul\":1471:1505   */\n      gt\n        /* \"#utility.yul\":1468:1530   */\n      or\n        /* \"#utility.yul\":1465:1553   */\n      iszero\n      tag_114\n      jumpi\n        /* \"#utility.yul\":1533:1551   */\n      tag_115\n      tag_75\n      jump\t// in\n    tag_115:\n        /* \"#utility.yul\":1465:1553   */\n    tag_114:\n        /* \"#utility.yul\":1573:1583   */\n      dup1\n        /* \"#utility.yul\":1569:1571   */\n      0x40\n        /* \"#utility.yul\":1562:1584   */\n      mstore\n        /* \"#utility.yul\":1352:1590   */\n      pop\n        /* \"#utility.yul\":1309:1590   */\n      pop\n      pop\n      jump\t// out\n        /* \"#utility.yul\":1596:1725   */\n    tag_77:\n        /* \"#utility.yul\":1630:1636   */\n      0x00\n        /* \"#utility.yul\":1657:1677   */\n      tag_117\n      tag_69\n      jump\t// in\n    tag_117:\n        /* \"#utility.yul\":1647:1677   */\n      swap1\n      pop\n        /* \"#utility.yul\":1686:1719   */\n      tag_118\n        /* \"#utility.yul\":1714:1718   */\n      dup3\n        /* \"#utility.yul\":1706:1712   */\n      dup3\n        /* \"#utility.yul\":1686:1719   */\n      tag_76\n      jump\t// in\n    tag_118:\n        /* \"#utility.yul\":1596:1725   */\n      swap2\n      swap1\n      pop\n      jump\t// out\n        /* \"#utility.yul\":1731:2039   */\n    tag_78:\n        /* \"#utility.yul\":1793:1797   */\n      0x00\n        /* \"#utility.yul\":1883:1901   */\n      0xffffffffffffffff\n        /* \"#utility.yul\":1875:1881   */\n      dup3\n        /* \"#utility.yul\":1872:1902   */\n      gt\n        /* \"#utility.yul\":1869:1925   */\n      iszero\n      tag_120\n      jumpi\n        /* \"#utility.yul\":1905:1923   */\n      tag_121\n      tag_75\n      jump\t// in\n    tag_121:\n        /* \"#utility.yul\":1869:1925   */\n    tag_120:\n        /* \"#utility.yul\":1943:1972   */\n      tag_122\n        /* \"#utility.yul\":1965:1971   */\n      dup3\n        /* \"#utility.yul\":1943:1972   */\n      tag_74\n      jump\t// in\n    tag_122:\n        /* \"#utility.yul\":1935:1972   */\n      swap1\n      pop\n        /* \"#utility.yul\":2027:2031   */\n      0x20\n        /* \"#utility.yul\":2021:2025   */\n      dup2\n        /* \"#utility.yul\":2017:2032   */\n      add\n        /* \"#utility.yul\":2009:2032   */\n      swap1\n      pop\n        /* \"#utility.yul\":1731:2039   */\n      swap2\n      swap1\n      pop\n      jump\t// out\n        /* \"#utility.yul\":2045:2199   */\n    tag_79:\n        /* \"#utility.yul\":2129:2135   */\n      dup3\n        /* \"#utility.yul\":2124:2127   */\n      dup2\n        /* \"#utility.yul\":2119:2122   */\n      dup4\n        /* \"#utility.yul\":2106:2136   */\n      calldatacopy\n        /* \"#utility.yul\":2191:2192   */\n      0x00\n        /* \"#utility.yul\":2182:2188   */\n      dup4\n        /* \"#utility.yul\":2177:2180   */\n      dup4\n        /* \"#utility.yul\":2173:2189   */\n      add\n        /* \"#utility.yul\":2166:2193   */\n      mstore\n        /* \"#utility.yul\":2045:2199   */\n      pop\n      pop\n      pop\n      jump\t// out\n        /* \"#utility.yul\":2205:2617   */\n    tag_80:\n        /* \"#utility.yul\":2283:2288   */\n      0x00\n        /* \"#utility.yul\":2308:2374   */\n      tag_125\n        /* \"#utility.yul\":2324:2373   */\n      tag_126\n        /* \"#utility.yul\":2366:2372   */\n      dup5\n        /* \"#utility.yul\":2324:2373   */\n      tag_78\n      jump\t// in\n    tag_126:\n        /* \"#utility.yul\":2308:2374   */\n      tag_77\n      jump\t// in\n    tag_125:\n        /* \"#utility.yul\":2299:2374   */\n      swap1\n      pop\n        /* \"#utility.yul\":2397:2403   */\n      dup3\n        /* \"#utility.yul\":2390:2395   */\n      dup2\n        /* \"#utility.yul\":2383:2404   */\n      mstore\n        /* \"#utility.yul\":2435:2439   */\n      0x20\n        /* \"#utility.yul\":2428:2433   */\n      dup2\n        /* \"#utility.yul\":2424:2440   */\n      add\n        /* \"#utility.yul\":2473:2476   */\n      dup5\n        /* \"#utility.yul\":2464:2470   */\n      dup5\n        /* \"#utility.yul\":2459:2462   */\n      dup5\n        /* \"#utility.yul\":2455:2471   */\n      add\n        /* \"#utility.yul\":2452:2477   */\n      gt\n        /* \"#utility.yul\":2449:2561   */\n      iszero\n      tag_127\n      jumpi\n        /* \"#utility.yul\":2480:2559   */\n      tag_128\n      tag_73\n      jump\t// in\n    tag_128:\n        /* \"#utility.yul\":2449:2561   */\n    tag_127:\n        /* \"#utility.yul\":2570:2611   */\n      tag_129\n        /* \"#utility.yul\":2604:2610   */\n      dup5\n        /* \"#utility.yul\":2599:2602   */\n      dup3\n        /* \"#utility.yul\":2594:2597   */\n      dup6\n        /* \"#utility.yul\":2570:2611   */\n      tag_79\n      jump\t// in\n    tag_129:\n        /* \"#utility.yul\":2289:2617   */\n      pop\n        /* \"#utility.yul\":2205:2617   */\n      swap4\n      swap3\n      pop\n      pop\n      pop\n      jump\t// out\n        /* \"#utility.yul\":2637:2977   */\n    tag_81:\n        /* \"#utility.yul\":2693:2698   */\n      0x00\n        /* \"#utility.yul\":2742:2745   */\n      dup3\n        /* \"#utility.yul\":2735:2739   */\n      0x1f\n        /* \"#utility.yul\":2727:2733   */\n      dup4\n        /* \"#utility.yul\":2723:2740   */\n      add\n        /* \"#utility.yul\":2719:2746   */\n      slt\n        /* \"#utility.yul\":2709:2831   */\n      tag_131\n      jumpi\n        /* \"#utility.yul\":2750:2829   */\n      tag_132\n      tag_72\n      jump\t// in\n    tag_132:\n        /* \"#utility.yul\":2709:2831   */\n    tag_131:\n        /* \"#utility.yul\":2867:2873   */\n      dup2\n        /* \"#utility.yul\":2854:2874   */\n      calldataload\n        /* \"#utility.yul\":2892:2971   */\n      tag_133\n        /* \"#utility.yul\":2967:2970   */\n      dup5\n        /* \"#utility.yul\":2959:2965   */\n      dup3\n        /* \"#utility.yul\":2952:2956   */\n      0x20\n        /* \"#utility.yul\":2944:2950   */\n      dup7\n        /* \"#utility.yul\":2940:2957   */\n      add\n        /* \"#utility.yul\":2892:2971   */\n      tag_80\n      jump\t// in\n    tag_133:\n        /* \"#utility.yul\":2883:2971   */\n      swap2\n      pop\n        /* \"#utility.yul\":2699:2977   */\n      pop\n        /* \"#utility.yul\":2637:2977   */\n      swap3\n      swap2\n      pop\n      pop\n      jump\t// out\n        /* \"#utility.yul\":2983:3105   */\n    tag_82:\n        /* \"#utility.yul\":3056:3080   */\n      tag_135\n        /* \"#utility.yul\":3074:3079   */\n      dup2\n        /* \"#utility.yul\":3056:3080   */\n      tag_67\n      jump\t// in\n    tag_135:\n        /* \"#utility.yul\":3049:3054   */\n      dup2\n        /* \"#utility.yul\":3046:3081   */\n      eq\n        /* \"#utility.yul\":3036:3099   */\n      tag_136\n      jumpi\n        /* \"#utility.yul\":3095:3096   */\n      0x00\n        /* \"#utility.yul\":3092:3093   */\n      dup1\n        /* \"#utility.yul\":3085:3097   */\n      revert\n        /* \"#utility.yul\":3036:3099   */\n    tag_136:\n        /* \"#utility.yul\":2983:3105   */\n      pop\n      jump\t// out\n        /* \"#utility.yul\":3111:3250   */\n    tag_83:\n        /* \"#utility.yul\":3157:3162   */\n      0x00\n        /* \"#utility.yul\":3195:3201   */\n      dup2\n        /* \"#utility.yul\":3182:3202   */\n      calldataload\n        /* \"#utility.yul\":3173:3202   */\n      swap1\n      pop\n        /* \"#utility.yul\":3211:3244   */\n      tag_138\n        /* \"#utility.yul\":3238:3243   */\n      dup2\n        /* \"#utility.yul\":3211:3244   */\n      tag_82\n      jump\t// in\n    tag_138:\n        /* \"#utility.yul\":3111:3250   */\n      swap3\n      swap2\n      pop\n      pop\n      jump\t// out\n        /* \"#utility.yul\":3256:4055   */\n    tag_14:\n        /* \"#utility.yul\":3343:3349   */\n      0x00\n        /* \"#utility.yul\":3351:3357   */\n      dup1\n        /* \"#utility.yul\":3359:3365   */\n      0x00\n        /* \"#utility.yul\":3408:3410   */\n      0x60\n        /* \"#utility.yul\":3396:3405   */\n      dup5\n        /* \"#utility.yul\":3387:3394   */\n      dup7\n        /* \"#utility.yul\":3383:3406   */\n      sub\n        /* \"#utility.yul\":3379:3411   */\n      slt\n        /* \"#utility.yul\":3376:3495   */\n      iszero\n      tag_140\n      jumpi\n        /* \"#utility.yul\":3414:3493   */\n      tag_141\n      tag_70\n      jump\t// in\n    tag_141:\n        /* \"#utility.yul\":3376:3495   */\n    tag_140:\n        /* \"#utility.yul\":3562:3563   */\n      0x00\n        /* \"#utility.yul\":3551:3560   */\n      dup5\n        /* \"#utility.yul\":3547:3564   */\n      add\n        /* \"#utility.yul\":3534:3565   */\n      calldataload\n        /* \"#utility.yul\":3592:3610   */\n      0xffffffffffffffff\n        /* \"#utility.yul\":3584:3590   */\n      dup2\n        /* \"#utility.yul\":3581:3611   */\n      gt\n        /* \"#utility.yul\":3578:3695   */\n      iszero\n      tag_142\n      jumpi\n        /* \"#utility.yul\":3614:3693   */\n      tag_143\n      tag_71\n      jump\t// in\n    tag_143:\n        /* \"#utility.yul\":3578:3695   */\n    tag_142:\n        /* \"#utility.yul\":3719:3782   */\n      tag_144\n        /* \"#utility.yul\":3774:3781   */\n      dup7\n        /* \"#utility.yul\":3765:3771   */\n      dup3\n        /* \"#utility.yul\":3754:3763   */\n      dup8\n        /* \"#utility.yul\":3750:3772   */\n      add\n        /* \"#utility.yul\":3719:3782   */\n      tag_81\n      jump\t// in\n    tag_144:\n        /* \"#utility.yul\":3709:3782   */\n      swap4\n      pop\n        /* \"#utility.yul\":3505:3792   */\n      pop\n        /* \"#utility.yul\":3831:3833   */\n      0x20\n        /* \"#utility.yul\":3857:3910   */\n      tag_145\n        /* \"#utility.yul\":3902:3909   */\n      dup7\n        /* \"#utility.yul\":3893:3899   */\n      dup3\n        /* \"#utility.yul\":3882:3891   */\n      dup8\n        /* \"#utility.yul\":3878:3900   */\n      add\n        /* \"#utility.yul\":3857:3910   */\n      tag_83\n      jump\t// in\n    tag_145:\n        /* \"#utility.yul\":3847:3910   */\n      swap3\n      pop\n        /* \"#utility.yul\":3802:3920   */\n      pop\n        /* \"#utility.yul\":3959:3961   */\n      0x40\n        /* \"#utility.yul\":3985:4038   */\n      tag_146\n        /* \"#utility.yul\":4030:4037   */\n      dup7\n        /* \"#utility.yul\":4021:4027   */\n      dup3\n        /* \"#utility.yul\":4010:4019   */\n      dup8\n        /* \"#utility.yul\":4006:4028   */\n      add\n        /* \"#utility.yul\":3985:4038   */\n      tag_83\n      jump\t// in\n    tag_146:\n        /* \"#utility.yul\":3975:4038   */\n      swap2\n      pop\n        /* \"#utility.yul\":3930:4048   */\n      pop\n        /* \"#utility.yul\":3256:4055   */\n      swap3\n      pop\n      swap3\n      pop\n      swap3\n      jump\t// out\n        /* \"#utility.yul\":4061:4390   */\n    tag_18:\n        /* \"#utility.yul\":4120:4126   */\n      0x00\n        /* \"#utility.yul\":4169:4171   */\n      0x20\n        /* \"#utility.yul\":4157:4166   */\n      dup3\n        /* \"#utility.yul\":4148:4155   */\n      dup5\n        /* \"#utility.yul\":4144:4167   */\n      sub\n        /* \"#utility.yul\":4140:4172   */\n      slt\n        /* \"#utility.yul\":4137:4256   */\n      iszero\n      tag_148\n      jumpi\n        /* \"#utility.yul\":4175:4254   */\n      tag_149\n      tag_70\n      jump\t// in\n    tag_149:\n        /* \"#utility.yul\":4137:4256   */\n    tag_148:\n        /* \"#utility.yul\":4295:4296   */\n      0x00\n        /* \"#utility.yul\":4320:4373   */\n      tag_150\n        /* \"#utility.yul\":4365:4372   */\n      dup5\n        /* \"#utility.yul\":4356:4362   */\n      dup3\n        /* \"#utility.yul\":4345:4354   */\n      dup6\n        /* \"#utility.yul\":4341:4363   */\n      add\n        /* \"#utility.yul\":4320:4373   */\n      tag_83\n      jump\t// in\n    tag_150:\n        /* \"#utility.yul\":4310:4373   */\n      swap2\n      pop\n        /* \"#utility.yul\":4266:4383   */\n      pop\n        /* \"#utility.yul\":4061:4390   */\n      swap3\n      swap2\n      pop\n      pop\n      jump\t// out\n        /* \"#utility.yul\":4396:4495   */\n    tag_84:\n        /* \"#utility.yul\":4448:4454   */\n      0x00\n        /* \"#utility.yul\":4482:4487   */\n      dup2\n        /* \"#utility.yul\":4476:4488   */\n      mload\n        /* \"#utility.yul\":4466:4488   */\n      swap1\n      pop\n        /* \"#utility.yul\":4396:4495   */\n      swap2\n      swap1\n      pop\n      jump\t// out\n        /* \"#utility.yul\":4501:4670   */\n    tag_85:\n        /* \"#utility.yul\":4585:4596   */\n      0x00\n        /* \"#utility.yul\":4619:4625   */\n      dup3\n        /* \"#utility.yul\":4614:4617   */\n      dup3\n        /* \"#utility.yul\":4607:4626   */\n      mstore\n        /* \"#utility.yul\":4659:4663   */\n      0x20\n        /* \"#utility.yul\":4654:4657   */\n      dup3\n        /* \"#utility.yul\":4650:4664   */\n      add\n        /* \"#utility.yul\":4635:4664   */\n      swap1\n      pop\n        /* \"#utility.yul\":4501:4670   */\n      swap3\n      swap2\n      pop\n      pop\n      jump\t// out\n        /* \"#utility.yul\":4676:4983   */\n    tag_86:\n        /* \"#utility.yul\":4744:4745   */\n      0x00\n        /* \"#utility.yul\":4754:4867   */\n    tag_154:\n        /* \"#utility.yul\":4768:4774   */\n      dup4\n        /* \"#utility.yul\":4765:4766   */\n      dup2\n        /* \"#utility.yul\":4762:4775   */\n      lt\n        /* \"#utility.yul\":4754:4867   */\n      iszero\n      tag_156\n      jumpi\n        /* \"#utility.yul\":4853:4854   */\n      dup1\n        /* \"#utility.yul\":4848:4851   */\n      dup3\n        /* \"#utility.yul\":4844:4855   */\n      add\n        /* \"#utility.yul\":4838:4856   */\n      mload\n        /* \"#utility.yul\":4834:4835   */\n      dup2\n        /* \"#utility.yul\":4829:4832   */\n      dup5\n        /* \"#utility.yul\":4825:4836   */\n      add\n        /* \"#utility.yul\":4818:4857   */\n      mstore\n        /* \"#utility.yul\":4790:4792   */\n      0x20\n        /* \"#utility.yul\":4787:4788   */\n      dup2\n        /* \"#utility.yul\":4783:4793   */\n      add\n        /* \"#utility.yul\":4778:4793   */\n      swap1\n      pop\n        /* \"#utility.yul\":4754:4867   */\n      jump(tag_154)\n    tag_156:\n        /* \"#utility.yul\":4885:4891   */\n      dup4\n        /* \"#utility.yul\":4882:4883   */\n      dup2\n        /* \"#utility.yul\":4879:4892   */\n      gt\n        /* \"#utility.yul\":4876:4977   */\n      iszero\n      tag_157\n      jumpi\n        /* \"#utility.yul\":4965:4966   */\n      0x00\n        /* \"#utility.yul\":4956:4962   */\n      dup5\n        /* \"#utility.yul\":4951:4954   */\n      dup5\n        /* \"#utility.yul\":4947:4963   */\n      add\n        /* \"#utility.yul\":4940:4967   */\n      mstore\n        /* \"#utility.yul\":4876:4977   */\n    tag_157:\n        /* \"#utility.yul\":4725:4983   */\n      pop\n        /* \"#utility.yul\":4676:4983   */\n      pop\n      pop\n      pop\n      jump\t// out\n        /* \"#utility.yul\":4989:5353   */\n    tag_87:\n        /* \"#utility.yul\":5077:5080   */\n      0x00\n        /* \"#utility.yul\":5105:5144   */\n      tag_159\n        /* \"#utility.yul\":5138:5143   */\n      dup3\n        /* \"#utility.yul\":5105:5144   */\n      tag_84\n      jump\t// in\n    tag_159:\n        /* \"#utility.yul\":5160:5231   */\n      tag_160\n        /* \"#utility.yul\":5224:5230   */\n      dup2\n        /* \"#utility.yul\":5219:5222   */\n      dup6\n        /* \"#utility.yul\":5160:5231   */\n      tag_85\n      jump\t// in\n    tag_160:\n        /* \"#utility.yul\":5153:5231   */\n      swap4\n      pop\n        /* \"#utility.yul\":5240:5292   */\n      tag_161\n        /* \"#utility.yul\":5285:5291   */\n      dup2\n        /* \"#utility.yul\":5280:5283   */\n      dup6\n        /* \"#utility.yul\":5273:5277   */\n      0x20\n        /* \"#utility.yul\":5266:5271   */\n      dup7\n        /* \"#utility.yul\":5262:5278   */\n      add\n        /* \"#utility.yul\":5240:5292   */\n      tag_86\n      jump\t// in\n    tag_161:\n        /* \"#utility.yul\":5317:5346   */\n      tag_162\n        /* \"#utility.yul\":5339:5345   */\n      dup2\n        /* \"#utility.yul\":5317:5346   */\n      tag_74\n      jump\t// in\n    tag_162:\n        /* \"#utility.yul\":5312:5315   */\n      dup5\n        /* \"#utility.yul\":5308:5347   */\n      add\n        /* \"#utility.yul\":5301:5347   */\n      swap2\n      pop\n        /* \"#utility.yul\":5081:5353   */\n      pop\n        /* \"#utility.yul\":4989:5353   */\n      swap3\n      swap2\n      pop\n      pop\n      jump\t// out\n        /* \"#utility.yul\":5359:5485   */\n    tag_88:\n        /* \"#utility.yul\":5396:5403   */\n      0x00\n        /* \"#utility.yul\":5436:5478   */\n      0xffffffffffffffffffffffffffffffffffffffff\n        /* \"#utility.yul\":5429:5434   */\n      dup3\n        /* \"#utility.yul\":5425:5479   */\n      and\n        /* \"#utility.yul\":5414:5479   */\n      swap1\n      pop\n        /* \"#utility.yul\":5359:5485   */\n      swap2\n      swap1\n      pop\n      jump\t// out\n        /* \"#utility.yul\":5491:5587   */\n    tag_89:\n        /* \"#utility.yul\":5528:5535   */\n      0x00\n        /* \"#utility.yul\":5557:5581   */\n      tag_165\n        /* \"#utility.yul\":5575:5580   */\n      dup3\n        /* \"#utility.yul\":5557:5581   */\n      tag_88\n      jump\t// in\n    tag_165:\n        /* \"#utility.yul\":5546:5581   */\n      swap1\n      pop\n        /* \"#utility.yul\":5491:5587   */\n      swap2\n      swap1\n      pop\n      jump\t// out\n        /* \"#utility.yul\":5593:5711   */\n    tag_90:\n        /* \"#utility.yul\":5680:5704   */\n      tag_167\n        /* \"#utility.yul\":5698:5703   */\n      dup2\n        /* \"#utility.yul\":5680:5704   */\n      tag_89\n      jump\t// in\n    tag_167:\n        /* \"#utility.yul\":5675:5678   */\n      dup3\n        /* \"#utility.yul\":5668:5705   */\n      mstore\n        /* \"#utility.yul\":5593:5711   */\n      pop\n      pop\n      jump\t// out\n        /* \"#utility.yul\":5717:6361   */\n    tag_21:\n        /* \"#utility.yul\":5914:5918   */\n      0x00\n        /* \"#utility.yul\":5952:5955   */\n      0x80\n        /* \"#utility.yul\":5941:5950   */\n      dup3\n        /* \"#utility.yul\":5937:5956   */\n      add\n        /* \"#utility.yul\":5929:5956   */\n      swap1\n      pop\n        /* \"#utility.yul\":6002:6011   */\n      dup2\n        /* \"#utility.yul\":5996:6000   */\n      dup2\n        /* \"#utility.yul\":5992:6012   */\n      sub\n        /* \"#utility.yul\":5988:5989   */\n      0x00\n        /* \"#utility.yul\":5977:5986   */\n      dup4\n        /* \"#utility.yul\":5973:5990   */\n      add\n        /* \"#utility.yul\":5966:6013   */\n      mstore\n        /* \"#utility.yul\":6030:6108   */\n      tag_169\n        /* \"#utility.yul\":6103:6107   */\n      dup2\n        /* \"#utility.yul\":6094:6100   */\n      dup8\n        /* \"#utility.yul\":6030:6108   */\n      tag_87\n      jump\t// in\n    tag_169:\n        /* \"#utility.yul\":6022:6108   */\n      swap1\n      pop\n        /* \"#utility.yul\":6118:6190   */\n      tag_170\n        /* \"#utility.yul\":6186:6188   */\n      0x20\n        /* \"#utility.yul\":6175:6184   */\n      dup4\n        /* \"#utility.yul\":6171:6189   */\n      add\n        /* \"#utility.yul\":6162:6168   */\n      dup7\n        /* \"#utility.yul\":6118:6190   */\n      tag_68\n      jump\t// in\n    tag_170:\n        /* \"#utility.yul\":6200:6272   */\n      tag_171\n        /* \"#utility.yul\":6268:6270   */\n      0x40\n        /* \"#utility.yul\":6257:6266   */\n      dup4\n        /* \"#utility.yul\":6253:6271   */\n      add\n        /* \"#utility.yul\":6244:6250   */\n      dup6\n        /* \"#utility.yul\":6200:6272   */\n      tag_68\n      jump\t// in\n    tag_171:\n        /* \"#utility.yul\":6282:6354   */\n      tag_172\n        /* \"#utility.yul\":6350:6352   */\n      0x60\n        /* \"#utility.yul\":6339:6348   */\n      dup4\n        /* \"#utility.yul\":6335:6353   */\n      add\n        /* \"#utility.yul\":6326:6332   */\n      dup5\n        /* \"#utility.yul\":6282:6354   */\n      tag_90\n      jump\t// in\n    tag_172:\n        /* \"#utility.yul\":5717:6361   */\n      swap6\n      swap5\n      pop\n      pop\n      pop\n      pop\n      pop\n      jump\t// out\n        /* \"#utility.yul\":6367:6489   */\n    tag_91:\n        /* \"#utility.yul\":6440:6464   */\n      tag_174\n        /* \"#utility.yul\":6458:6463   */\n      dup2\n        /* \"#utility.yul\":6440:6464   */\n      tag_89\n      jump\t// in\n    tag_174:\n        /* \"#utility.yul\":6433:6438   */\n      dup2\n        /* \"#utility.yul\":6430:6465   */\n      eq\n        /* \"#utility.yul\":6420:6483   */\n      tag_175\n      jumpi\n        /* \"#utility.yul\":6479:6480   */\n      0x00\n        /* \"#utility.yul\":6476:6477   */\n      dup1\n        /* \"#utility.yul\":6469:6481   */\n      revert\n        /* \"#utility.yul\":6420:6483   */\n    tag_175:\n        /* \"#utility.yul\":6367:6489   */\n      pop\n      jump\t// out\n        /* \"#utility.yul\":6495:6634   */\n    tag_92:\n        /* \"#utility.yul\":6541:6546   */\n      0x00\n        /* \"#utility.yul\":6579:6585   */\n      dup2\n        /* \"#utility.yul\":6566:6586   */\n      calldataload\n        /* \"#utility.yul\":6557:6586   */\n      swap1\n      pop\n        /* \"#utility.yul\":6595:6628   */\n      tag_177\n        /* \"#utility.yul\":6622:6627   */\n      dup2\n        /* \"#utility.yul\":6595:6628   */\n      tag_91\n      jump\t// in\n    tag_177:\n        /* \"#utility.yul\":6495:6634   */\n      swap3\n      swap2\n      pop\n      pop\n      jump\t// out\n        /* \"#utility.yul\":6640:7114   */\n    tag_24:\n        /* \"#utility.yul\":6708:6714   */\n      0x00\n        /* \"#utility.yul\":6716:6722   */\n      dup1\n        /* \"#utility.yul\":6765:6767   */\n      0x40\n        /* \"#utility.yul\":6753:6762   */\n      dup4\n        /* \"#utility.yul\":6744:6751   */\n      dup6\n        /* \"#utility.yul\":6740:6763   */\n      sub\n        /* \"#utility.yul\":6736:6768   */\n      slt\n        /* \"#utility.yul\":6733:6852   */\n      iszero\n      tag_179\n      jumpi\n        /* \"#utility.yul\":6771:6850   */\n      tag_180\n      tag_70\n      jump\t// in\n    tag_180:\n        /* \"#utility.yul\":6733:6852   */\n    tag_179:\n        /* \"#utility.yul\":6891:6892   */\n      0x00\n        /* \"#utility.yul\":6916:6969   */\n      tag_181\n        /* \"#utility.yul\":6961:6968   */\n      dup6\n        /* \"#utility.yul\":6952:6958   */\n      dup3\n        /* \"#utility.yul\":6941:6950   */\n      dup7\n        /* \"#utility.yul\":6937:6959   */\n      add\n        /* \"#utility.yul\":6916:6969   */\n      tag_83\n      jump\t// in\n    tag_181:\n        /* \"#utility.yul\":6906:6969   */\n      swap3\n      pop\n        /* \"#utility.yul\":6862:6979   */\n      pop\n        /* \"#utility.yul\":7018:7020   */\n      0x20\n        /* \"#utility.yul\":7044:7097   */\n      tag_182\n        /* \"#utility.yul\":7089:7096   */\n      dup6\n        /* \"#utility.yul\":7080:7086   */\n      dup3\n        /* \"#utility.yul\":7069:7078   */\n      dup7\n        /* \"#utility.yul\":7065:7087   */\n      add\n        /* \"#utility.yul\":7044:7097   */\n      tag_92\n      jump\t// in\n    tag_182:\n        /* \"#utility.yul\":7034:7097   */\n      swap2\n      pop\n        /* \"#utility.yul\":6989:7107   */\n      pop\n        /* \"#utility.yul\":6640:7114   */\n      swap3\n      pop\n      swap3\n      swap1\n      pop\n      jump\t// out\n        /* \"#utility.yul\":7120:7300   */\n    tag_93:\n        /* \"#utility.yul\":7168:7245   */\n      0x4e487b7100000000000000000000000000000000000000000000000000000000\n        /* \"#utility.yul\":7165:7166   */\n      0x00\n        /* \"#utility.yul\":7158:7246   */\n      mstore\n        /* \"#utility.yul\":7265:7269   */\n      0x11\n        /* \"#utility.yul\":7262:7263   */\n      0x04\n        /* \"#utility.yul\":7255:7270   */\n      mstore\n        /* \"#utility.yul\":7289:7293   */\n      0x24\n        /* \"#utility.yul\":7286:7287   */\n      0x00\n        /* \"#utility.yul\":7279:7294   */\n      revert\n        /* \"#utility.yul\":7306:7539   */\n    tag_32:\n        /* \"#utility.yul\":7345:7348   */\n      0x00\n        /* \"#utility.yul\":7368:7392   */\n      tag_185\n        /* \"#utility.yul\":7386:7391   */\n      dup3\n        /* \"#utility.yul\":7368:7392   */\n      tag_67\n      jump\t// in\n    tag_185:\n        /* \"#utility.yul\":7359:7392   */\n      swap2\n      pop\n        /* \"#utility.yul\":7414:7480   */\n      0xffffffffffffffffffffffffffffffffffffffffffffffffffffffffffffffff\n        /* \"#utility.yul\":7407:7412   */\n      dup3\n        /* \"#utility.yul\":7404:7481   */\n      eq\n        /* \"#utility.yul\":7401:7504   */\n      iszero\n      tag_186\n      jumpi\n        /* \"#utility.yul\":7484:7502   */\n      tag_187\n      tag_93\n      jump\t// in\n    tag_187:\n        /* \"#utility.yul\":7401:7504   */\n    tag_186:\n        /* \"#utility.yul\":7531:7532   */\n      0x01\n        /* \"#utility.yul\":7524:7529   */\n      dup3\n        /* \"#utility.yul\":7520:7533   */\n      add\n        /* \"#utility.yul\":7513:7533   */\n      swap1\n      pop\n        /* \"#utility.yul\":7306:7539   */\n      swap2\n      swap1\n      pop\n      jump\t// out\n        /* \"#utility.yul\":7545:7725   */\n    tag_94:\n        /* \"#utility.yul\":7593:7670   */\n      0x4e487b7100000000000000000000000000000000000000000000000000000000\n        /* \"#utility.yul\":7590:7591   */\n      0x00\n        /* \"#utility.yul\":7583:7671   */\n      mstore\n        /* \"#utility.yul\":7690:7694   */\n      0x22\n        /* \"#utility.yul\":7687:7688   */\n      0x04\n        /* \"#utility.yul\":7680:7695   */\n      mstore\n        /* \"#utility.yul\":7714:7718   */\n      0x24\n        /* \"#utility.yul\":7711:7712   */\n      0x00\n        /* \"#utility.yul\":7704:7719   */\n      revert\n        /* \"#utility.yul\":7731:8051   */\n    tag_38:\n        /* \"#utility.yul\":7775:7781   */\n      0x00\n        /* \"#utility.yul\":7812:7813   */\n      0x02\n        /* \"#utility.yul\":7806:7810   */\n      dup3\n        /* \"#utility.yul\":7802:7814   */\n      div\n        /* \"#utility.yul\":7792:7814   */\n      swap1\n      pop\n        /* \"#utility.yul\":7859:7860   */\n      0x01\n        /* \"#utility.yul\":7853:7857   */\n      dup3\n        /* \"#utility.yul\":7849:7861   */\n      and\n        /* \"#utility.yul\":7880:7898   */\n      dup1\n        /* \"#utility.yul\":7870:7951   */\n      tag_190\n      jumpi\n        /* \"#utility.yul\":7936:7940   */\n      0x7f\n        /* \"#utility.yul\":7928:7934   */\n      dup3\n        /* \"#utility.yul\":7924:7941   */\n      and\n        /* \"#utility.yul\":7914:7941   */\n      swap2\n      pop\n        /* \"#utility.yul\":7870:7951   */\n    tag_190:\n        /* \"#utility.yul\":7998:8000   */\n      0x20\n        /* \"#utility.yul\":7990:7996   */\n      dup3\n        /* \"#utility.yul\":7987:8001   */\n      lt\n        /* \"#utility.yul\":7967:7985   */\n      dup2\n        /* \"#utility.yul\":7964:8002   */\n      eq\n        /* \"#utility.yul\":7961:8045   */\n      iszero\n      tag_191\n      jumpi\n        /* \"#utility.yul\":8017:8035   */\n      tag_192\n      tag_94\n      jump\t// in\n    tag_192:\n        /* \"#utility.yul\":7961:8045   */\n    tag_191:\n        /* \"#utility.yul\":7782:8051   */\n      pop\n        /* \"#utility.yul\":7731:8051   */\n      swap2\n      swap1\n      pop\n      jump\t// out\n        /* \"#utility.yul\":8057:8289   */\n    tag_95:\n        /* \"#utility.yul\":8197:8231   */\n      0x4f6e6c79207468652063757272656e74206f776e65722063616e207472616e73\n        /* \"#utility.yul\":8193:8194   */\n      0x00\n        /* \"#utility.yul\":8185:8191   */\n      dup3\n        /* \"#utility.yul\":8181:8195   */\n      add\n        /* \"#utility.yul\":8174:8232   */\n      mstore\n        /* \"#utility.yul\":8266:8281   */\n      0x666572206f776e65727368697000000000000000000000000000000000000000\n        /* \"#utility.yul\":8261:8263   */\n      0x20\n        /* \"#utility.yul\":8253:8259   */\n      dup3\n        /* \"#utility.yul\":8249:8264   */\n      add\n        /* \"#utility.yul\":8242:8282   */\n      mstore\n        /* \"#utility.yul\":8057:8289   */\n      pop\n      jump\t// out\n        /* \"#utility.yul\":8295:8661   */\n    tag_96:\n        /* \"#utility.yul\":8437:8440   */\n      0x00\n        /* \"#utility.yul\":8458:8525   */\n      tag_195\n        /* \"#utility.yul\":8522:8524   */\n      0x2d\n        /* \"#utility.yul\":8517:8520   */\n      dup4\n        /* \"#utility.yul\":8458:8525   */\n      tag_85\n      jump\t// in\n    tag_195:\n        /* \"#utility.yul\":8451:8525   */\n      swap2\n      pop\n        /* \"#utility.yul\":8534:8627   */\n      tag_196\n        /* \"#utility.yul\":8623:8626   */\n      dup3\n        /* \"#utility.yul\":8534:8627   */\n      tag_95\n      jump\t// in\n    tag_196:\n        /* \"#utility.yul\":8652:8654   */\n      0x40\n        /* \"#utility.yul\":8647:8650   */\n      dup3\n        /* \"#utility.yul\":8643:8655   */\n      add\n        /* \"#utility.yul\":8636:8655   */\n      swap1\n      pop\n        /* \"#utility.yul\":8295:8661   */\n      swap2\n      swap1\n      pop\n      jump\t// out\n        /* \"#utility.yul\":8667:9086   */\n    tag_46:\n        /* \"#utility.yul\":8833:8837   */\n      0x00\n        /* \"#utility.yul\":8871:8873   */\n      0x20\n        /* \"#utility.yul\":8860:8869   */\n      dup3\n        /* \"#utility.yul\":8856:8874   */\n      add\n        /* \"#utility.yul\":8848:8874   */\n      swap1\n      pop\n        /* \"#utility.yul\":8920:8929   */\n      dup2\n        /* \"#utility.yul\":8914:8918   */\n      dup2\n        /* \"#utility.yul\":8910:8930   */\n      sub\n        /* \"#utility.yul\":8906:8907   */\n      0x00\n        /* \"#utility.yul\":8895:8904   */\n      dup4\n        /* \"#utility.yul\":8891:8908   */\n      add\n        /* \"#utility.yul\":8884:8931   */\n      mstore\n        /* \"#utility.yul\":8948:9079   */\n      tag_198\n        /* \"#utility.yul\":9074:9078   */\n      dup2\n        /* \"#utility.yul\":8948:9079   */\n      tag_96\n      jump\t// in\n    tag_198:\n        /* \"#utility.yul\":8940:9079   */\n      swap1\n      pop\n        /* \"#utility.yul\":8667:9086   */\n      swap2\n      swap1\n      pop\n      jump\t// out\n        /* \"#utility.yul\":9092:9267   */\n    tag_97:\n        /* \"#utility.yul\":9232:9259   */\n      0x496e76616c6964206e6577206f776e6572206164647265737300000000000000\n        /* \"#utility.yul\":9228:9229   */\n      0x00\n        /* \"#utility.yul\":9220:9226   */\n      dup3\n        /* \"#utility.yul\":9216:9230   */\n      add\n        /* \"#utility.yul\":9209:9260   */\n      mstore\n        /* \"#utility.yul\":9092:9267   */\n      pop\n      jump\t// out\n        /* \"#utility.yul\":9273:9639   */\n    tag_98:\n        /* \"#utility.yul\":9415:9418   */\n      0x00\n        /* \"#utility.yul\":9436:9503   */\n      tag_201\n        /* \"#utility.yul\":9500:9502   */\n      0x19\n        /* \"#utility.yul\":9495:9498   */\n      dup4\n        /* \"#utility.yul\":9436:9503   */\n      tag_85\n      jump\t// in\n    tag_201:\n        /* \"#utility.yul\":9429:9503   */\n      swap2\n      pop\n        /* \"#utility.yul\":9512:9605   */\n      tag_202\n        /* \"#utility.yul\":9601:9604   */\n      dup3\n        /* \"#utility.yul\":9512:9605   */\n      tag_97\n      jump\t// in\n    tag_202:\n        /* \"#utility.yul\":9630:9632   */\n      0x20\n        /* \"#utility.yul\":9625:9628   */\n      dup3\n        /* \"#utility.yul\":9621:9633   */\n      add\n        /* \"#utility.yul\":9614:9633   */\n      swap1\n      pop\n        /* \"#utility.yul\":9273:9639   */\n      swap2\n      swap1\n      pop\n      jump\t// out\n        /* \"#utility.yul\":9645:10064   */\n    tag_49:\n        /* \"#utility.yul\":9811:9815   */\n      0x00\n        /* \"#utility.yul\":9849:9851   */\n      0x20\n        /* \"#utility.yul\":9838:9847   */\n      dup3\n        /* \"#utility.yul\":9834:9852   */\n      add\n        /* \"#utility.yul\":9826:9852   */\n      swap1\n      pop\n        /* \"#utility.yul\":9898:9907   */\n      dup2\n        /* \"#utility.yul\":9892:9896   */\n      dup2\n        /* \"#utility.yul\":9888:9908   */\n      sub\n        /* \"#utility.yul\":9884:9885   */\n      0x00\n        /* \"#utility.yul\":9873:9882   */\n      dup4\n        /* \"#utility.yul\":9869:9886   */\n      add\n        /* \"#utility.yul\":9862:9909   */\n      mstore\n        /* \"#utility.yul\":9926:10057   */\n      tag_204\n        /* \"#utility.yul\":10052:10056   */\n      dup2\n        /* \"#utility.yul\":9926:10057   */\n      tag_98\n      jump\t// in\n    tag_204:\n        /* \"#utility.yul\":9918:10057   */\n      swap1\n      pop\n        /* \"#utility.yul\":9645:10064   */\n      swap2\n      swap1\n      pop\n      jump\t// out\n        /* \"#utility.yul\":10070:10402   */\n    tag_51:\n        /* \"#utility.yul\":10191:10195   */\n      0x00\n        /* \"#utility.yul\":10229:10231   */\n      0x40\n        /* \"#utility.yul\":10218:10227   */\n      dup3\n        /* \"#utility.yul\":10214:10232   */\n      add\n        /* \"#utility.yul\":10206:10232   */\n      swap1\n      pop\n        /* \"#utility.yul\":10242:10313   */\n      tag_206\n        /* \"#utility.yul\":10310:10311   */\n      0x00\n        /* \"#utility.yul\":10299:10308   */\n      dup4\n        /* \"#utility.yul\":10295:10312   */\n      add\n        /* \"#utility.yul\":10286:10292   */\n      dup6\n        /* \"#utility.yul\":10242:10313   */\n      tag_90\n      jump\t// in\n    tag_206:\n        /* \"#utility.yul\":10323:10395   */\n      tag_207\n        /* \"#utility.yul\":10391:10393   */\n      0x20\n        /* \"#utility.yul\":10380:10389   */\n      dup4\n        /* \"#utility.yul\":10376:10394   */\n      add\n        /* \"#utility.yul\":10367:10373   */\n      dup5\n        /* \"#utility.yul\":10323:10395   */\n      tag_90\n      jump\t// in\n    tag_207:\n        /* \"#utility.yul\":10070:10402   */\n      swap4\n      swap3\n      pop\n      pop\n      pop\n      jump\t// out\n\n    auxdata: 0xa26469706673582212209af61b3a8d26edb4709c1211444a5a7c740c97e1dd0b213f38712f2550efff5364736f6c634300080b0033\n}\n",
				"bytecode": {
					"linkReferences": {},
					"object": "608060405234801561001057600080fd5b50610caa806100206000396000f3fe608060405234801561001057600080fd5b50600436106100575760003560e01c80632a6e0a611461005c5780635df170ee1461007a5780637bb2f09014610096578063839aeb1c146100c9578063a076f818146100e5575b600080fd5b610064610118565b60405161007191906106b6565b60405180910390f35b610094600480360381019061008f9190610857565b61011e565b005b6100b060048036038101906100ab91906108c6565b610241565b6040516100c094939291906109bc565b60405180910390f35b6100e360048036038101906100de9190610a34565b610388565b005b6100ff60048036038101906100fa91906108c6565b610522565b60405161010f94939291906109bc565b60405180910390f35b60015481565b6001600081548092919061013190610aa3565b919050555060405180608001604052808481526020018381526020018281526020013373ffffffffffffffffffffffffffffffffffffffff168152506000806001548152602001908152602001600020600082015181600001908051906020019061019d9291906105fa565b50602082015181600101556040820151816002015560608201518160030160006101000a81548173ffffffffffffffffffffffffffffffffffffffff021916908373ffffffffffffffffffffffffffffffffffffffff1602179055509050506001547f8945c4cfaccab042d9099066b527683f26df70b1139f3707c32b1fb75fec90e08484843360405161023494939291906109bc565b60405180910390a2505050565b606060008060008060008087815260200190815260200160002060405180608001604052908160008201805461027690610b1b565b80601f01602080910402602001604051908101604052809291908181526020018280546102a290610b1b565b80156102ef5780601f106102c4576101008083540402835291602001916102ef565b820191906000526020600020905b8154815290600101906020018083116102d257829003601f168201915b5050505050815260200160018201548152602001600282015481526020016003820160009054906101000a900473ffffffffffffffffffffffffffffffffffffffff1673ffffffffffffffffffffffffffffffffffffffff1673ffffffffffffffffffffffffffffffffffffffff1681525050905080600001518160200151826040015183606001519450945094509450509193509193565b600080600084815260200190815260200160002090508060030160009054906101000a900473ffffffffffffffffffffffffffffffffffffffff1673ffffffffffffffffffffffffffffffffffffffff163373ffffffffffffffffffffffffffffffffffffffff1614610430576040517f08c379a000000000000000000000000000000000000000000000000000000000815260040161042790610bbf565b60405180910390fd5b600073ffffffffffffffffffffffffffffffffffffffff168273ffffffffffffffffffffffffffffffffffffffff1614156104a0576040517f08c379a000000000000000000000000000000000000000000000000000000000815260040161049790610c2b565b60405180910390fd5b818160030160006101000a81548173ffffffffffffffffffffffffffffffffffffffff021916908373ffffffffffffffffffffffffffffffffffffffff160217905550827f4f04aee436e2a1eb4e406ce4f8091d73dfafdf9544d88f21adf02b97d5a001c63384604051610515929190610c4b565b60405180910390a2505050565b600060205280600052604060002060009150905080600001805461054590610b1b565b80601f016020809104026020016040519081016040528092919081815260200182805461057190610b1b565b80156105be5780601f10610593576101008083540402835291602001916105be565b820191906000526020600020905b8154815290600101906020018083116105a157829003601f168201915b5050505050908060010154908060020154908060030160009054906101000a900473ffffffffffffffffffffffffffffffffffffffff16905084565b82805461060690610b1b565b90600052602060002090601f016020900481019282610628576000855561066f565b82601f1061064157805160ff191683800117855561066f565b8280016001018555821561066f579182015b8281111561066e578251825591602001919060010190610653565b5b50905061067c9190610680565b5090565b5b80821115610699576000816000905550600101610681565b5090565b6000819050919050565b6106b08161069d565b82525050565b60006020820190506106cb60008301846106a7565b92915050565b6000604051905090565b600080fd5b600080fd5b600080fd5b600080fd5b6000601f19601f8301169050919050565b7f4e487b7100000000000000000000000000000000000000000000000000000000600052604160045260246000fd5b610738826106ef565b810181811067ffffffffffffffff8211171561075757610756610700565b5b80604052505050565b600061076a6106d1565b9050610776828261072f565b919050565b600067ffffffffffffffff82111561079657610795610700565b5b61079f826106ef565b9050602081019050919050565b82818337600083830152505050565b60006107ce6107c98461077b565b610760565b9050828152602081018484840111156107ea576107e96106ea565b5b6107f58482856107ac565b509392505050565b600082601f830112610812576108116106e5565b5b81356108228482602086016107bb565b91505092915050565b6108348161069d565b811461083f57600080fd5b50565b6000813590506108518161082b565b92915050565b6000806000606084860312156108705761086f6106db565b5b600084013567ffffffffffffffff81111561088e5761088d6106e0565b5b61089a868287016107fd565b93505060206108ab86828701610842565b92505060406108bc86828701610842565b9150509250925092565b6000602082840312156108dc576108db6106db565b5b60006108ea84828501610842565b91505092915050565b600081519050919050565b600082825260208201905092915050565b60005b8381101561092d578082015181840152602081019050610912565b8381111561093c576000848401525b50505050565b600061094d826108f3565b61095781856108fe565b935061096781856020860161090f565b610970816106ef565b840191505092915050565b600073ffffffffffffffffffffffffffffffffffffffff82169050919050565b60006109a68261097b565b9050919050565b6109b68161099b565b82525050565b600060808201905081810360008301526109d68187610942565b90506109e560208301866106a7565b6109f260408301856106a7565b6109ff60608301846109ad565b95945050505050565b610a118161099b565b8114610a1c57600080fd5b50565b600081359050610a2e81610a08565b92915050565b60008060408385031215610a4b57610a4a6106db565b5b6000610a5985828601610842565b9250506020610a6a85828601610a1f565b9150509250929050565b7f4e487b7100000000000000000000000000000000000000000000000000000000600052601160045260246000fd5b6000610aae8261069d565b91507fffffffffffffffffffffffffffffffffffffffffffffffffffffffffffffffff821415610ae157610ae0610a74565b5b600182019050919050565b7f4e487b7100000000000000000000000000000000000000000000000000000000600052602260045260246000fd5b60006002820490506001821680610b3357607f821691505b60208210811415610b4757610b46610aec565b5b50919050565b7f4f6e6c79207468652063757272656e74206f776e65722063616e207472616e7360008201527f666572206f776e65727368697000000000000000000000000000000000000000602082015250565b6000610ba9602d836108fe565b9150610bb482610b4d565b604082019050919050565b60006020820190508181036000830152610bd881610b9c565b9050919050565b7f496e76616c6964206e6577206f776e6572206164647265737300000000000000600082015250565b6000610c156019836108fe565b9150610c2082610bdf565b602082019050919050565b60006020820190508181036000830152610c4481610c08565b9050919050565b6000604082019050610c6060008301856109ad565b610c6d60208301846109ad565b939250505056fea26469706673582212209af61b3a8d26edb4709c1211444a5a7c740c97e1dd0b213f38712f2550efff5364736f6c634300080b0033",
					"opcodes": "PUSH1 0x80 PUSH1 0x40 MSTORE CALLVALUE DUP1 ISZERO PUSH2 0x10 JUMPI PUSH1 0x0 DUP1 REVERT JUMPDEST POP PUSH2 0xCAA DUP1 PUSH2 0x20 PUSH1 0x0 CODECOPY PUSH1 0x0 RETURN INVALID PUSH1 0x80 PUSH1 0x40 MSTORE CALLVALUE DUP1 ISZERO PUSH2 0x10 JUMPI PUSH1 0x0 DUP1 REVERT JUMPDEST POP PUSH1 0x4 CALLDATASIZE LT PUSH2 0x57 JUMPI PUSH1 0x0 CALLDATALOAD PUSH1 0xE0 SHR DUP1 PUSH4 0x2A6E0A61 EQ PUSH2 0x5C JUMPI DUP1 PUSH4 0x5DF170EE EQ PUSH2 0x7A JUMPI DUP1 PUSH4 0x7BB2F090 EQ PUSH2 0x96 JUMPI DUP1 PUSH4 0x839AEB1C EQ PUSH2 0xC9 JUMPI DUP1 PUSH4 0xA076F818 EQ PUSH2 0xE5 JUMPI JUMPDEST PUSH1 0x0 DUP1 REVERT JUMPDEST PUSH2 0x64 PUSH2 0x118 JUMP JUMPDEST PUSH1 0x40 MLOAD PUSH2 0x71 SWAP2 SWAP1 PUSH2 0x6B6 JUMP JUMPDEST PUSH1 0x40 MLOAD DUP1 SWAP2 SUB SWAP1 RETURN JUMPDEST PUSH2 0x94 PUSH1 0x4 DUP1 CALLDATASIZE SUB DUP2 ADD SWAP1 PUSH2 0x8F SWAP2 SWAP1 PUSH2 0x857 JUMP JUMPDEST PUSH2 0x11E JUMP JUMPDEST STOP JUMPDEST PUSH2 0xB0 PUSH1 0x4 DUP1 CALLDATASIZE SUB DUP2 ADD SWAP1 PUSH2 0xAB SWAP2 SWAP1 PUSH2 0x8C6 JUMP JUMPDEST PUSH2 0x241 JUMP JUMPDEST PUSH1 0x40 MLOAD PUSH2 0xC0 SWAP5 SWAP4 SWAP3 SWAP2 SWAP1 PUSH2 0x9BC JUMP JUMPDEST PUSH1 0x40 MLOAD DUP1 SWAP2 SUB SWAP1 RETURN JUMPDEST PUSH2 0xE3 PUSH1 0x4 DUP1 CALLDATASIZE SUB DUP2 ADD SWAP1 PUSH2 0xDE SWAP2 SWAP1 PUSH2 0xA34 JUMP JUMPDEST PUSH2 0x388 JUMP JUMPDEST STOP JUMPDEST PUSH2 0xFF PUSH1 0x4 DUP1 CALLDATASIZE SUB DUP2 ADD SWAP1 PUSH2 0xFA SWAP2 SWAP1 PUSH2 0x8C6 JUMP JUMPDEST PUSH2 0x522 JUMP JUMPDEST PUSH1 0x40 MLOAD PUSH2 0x10F SWAP5 SWAP4 SWAP3 SWAP2 SWAP1 PUSH2 0x9BC JUMP JUMPDEST PUSH1 0x40 MLOAD DUP1 SWAP2 SUB SWAP1 RETURN JUMPDEST PUSH1 0x1 SLOAD DUP2 JUMP JUMPDEST PUSH1 0x1 PUSH1 0x0 DUP2 SLOAD DUP1 SWAP3 SWAP2 SWAP1 PUSH2 0x131 SWAP1 PUSH2 0xAA3 JUMP JUMPDEST SWAP2 SWAP1 POP SSTORE POP PUSH1 0x40 MLOAD DUP1 PUSH1 0x80 ADD PUSH1 0x40 MSTORE DUP1 DUP5 DUP2 MSTORE PUSH1 0x20 ADD DUP4 DUP2 MSTORE PUSH1 0x20 ADD DUP3 DUP2 MSTORE PUSH1 0x20 ADD CALLER PUSH20 0xFFFFFFFFFFFFFFFFFFFFFFFFFFFFFFFFFFFFFFFF AND DUP2 MSTORE POP PUSH1 0x0 DUP1 PUSH1 0x1 SLOAD DUP2 MSTORE PUSH1 0x20 ADD SWAP1 DUP2 MSTORE PUSH1 0x20 ADD PUSH1 0x0 KECCAK256 PUSH1 0x0 DUP3 ADD MLOAD DUP2 PUSH1 0x0 ADD SWAP1 DUP1 MLOAD SWAP1 PUSH1 0x20 ADD SWAP1 PUSH2 0x19D SWAP3 SWAP2 SWAP1 PUSH2 0x5FA JUMP JUMPDEST POP PUSH1 0x20 DUP3 ADD MLOAD DUP2 PUSH1 0x1 ADD SSTORE PUSH1 0x40 DUP3 ADD MLOAD DUP2 PUSH1 0x2 ADD SSTORE PUSH1 0x60 DUP3 ADD MLOAD DUP2 PUSH1 0x3 ADD PUSH1 0x0 PUSH2 0x100 EXP DUP2 SLOAD DUP2 PUSH20 0xFFFFFFFFFFFFFFFFFFFFFFFFFFFFFFFFFFFFFFFF MUL NOT AND SWAP1 DUP4 PUSH20 0xFFFFFFFFFFFFFFFFFFFFFFFFFFFFFFFFFFFFFFFF AND MUL OR SWAP1 SSTORE POP SWAP1 POP POP PUSH1 0x1 SLOAD PUSH32 0x8945C4CFACCAB042D9099066B527683F26DF70B1139F3707C32B1FB75FEC90E0 DUP5 DUP5 DUP5 CALLER PUSH1 0x40 MLOAD PUSH2 0x234 SWAP5 SWAP4 SWAP3 SWAP2 SWAP1 PUSH2 0x9BC JUMP JUMPDEST PUSH1 0x40 MLOAD DUP1 SWAP2 SUB SWAP1 LOG2 POP POP POP JUMP JUMPDEST PUSH1 0x60 PUSH1 0x0 DUP1 PUSH1 0x0 DUP1 PUSH1 0x0 DUP1 DUP8 DUP2 MSTORE PUSH1 0x20 ADD SWAP1 DUP2 MSTORE PUSH1 0x20 ADD PUSH1 0x0 KECCAK256 PUSH1 0x40 MLOAD DUP1 PUSH1 0x80 ADD PUSH1 0x40 MSTORE SWAP1 DUP2 PUSH1 0x0 DUP3 ADD DUP1 SLOAD PUSH2 0x276 SWAP1 PUSH2 0xB1B JUMP JUMPDEST DUP1 PUSH1 0x1F ADD PUSH1 0x20 DUP1 SWAP2 DIV MUL PUSH1 0x20 ADD PUSH1 0x40 MLOAD SWAP1 DUP2 ADD PUSH1 0x40 MSTORE DUP1 SWAP3 SWAP2 SWAP1 DUP2 DUP2 MSTORE PUSH1 0x20 ADD DUP3 DUP1 SLOAD PUSH2 0x2A2 SWAP1 PUSH2 0xB1B JUMP JUMPDEST DUP1 ISZERO PUSH2 0x2EF JUMPI DUP1 PUSH1 0x1F LT PUSH2 0x2C4 JUMPI PUSH2 0x100 DUP1 DUP4 SLOAD DIV MUL DUP4 MSTORE SWAP2 PUSH1 0x20 ADD SWAP2 PUSH2 0x2EF JUMP JUMPDEST DUP3 ADD SWAP2 SWAP1 PUSH1 0x0 MSTORE PUSH1 0x20 PUSH1 0x0 KECCAK256 SWAP1 JUMPDEST DUP2 SLOAD DUP2 MSTORE SWAP1 PUSH1 0x1 ADD SWAP1 PUSH1 0x20 ADD DUP1 DUP4 GT PUSH2 0x2D2 JUMPI DUP3 SWAP1 SUB PUSH1 0x1F AND DUP3 ADD SWAP2 JUMPDEST POP POP POP POP POP DUP2 MSTORE PUSH1 0x20 ADD PUSH1 0x1 DUP3 ADD SLOAD DUP2 MSTORE PUSH1 0x20 ADD PUSH1 0x2 DUP3 ADD SLOAD DUP2 MSTORE PUSH1 0x20 ADD PUSH1 0x3 DUP3 ADD PUSH1 0x0 SWAP1 SLOAD SWAP1 PUSH2 0x100 EXP SWAP1 DIV PUSH20 0xFFFFFFFFFFFFFFFFFFFFFFFFFFFFFFFFFFFFFFFF AND PUSH20 0xFFFFFFFFFFFFFFFFFFFFFFFFFFFFFFFFFFFFFFFF AND PUSH20 0xFFFFFFFFFFFFFFFFFFFFFFFFFFFFFFFFFFFFFFFF AND DUP2 MSTORE POP POP SWAP1 POP DUP1 PUSH1 0x0 ADD MLOAD DUP2 PUSH1 0x20 ADD MLOAD DUP3 PUSH1 0x40 ADD MLOAD DUP4 PUSH1 0x60 ADD MLOAD SWAP5 POP SWAP5 POP SWAP5 POP SWAP5 POP POP SWAP2 SWAP4 POP SWAP2 SWAP4 JUMP JUMPDEST PUSH1 0x0 DUP1 PUSH1 0x0 DUP5 DUP2 MSTORE PUSH1 0x20 ADD SWAP1 DUP2 MSTORE PUSH1 0x20 ADD PUSH1 0x0 KECCAK256 SWAP1 POP DUP1 PUSH1 0x3 ADD PUSH1 0x0 SWAP1 SLOAD SWAP1 PUSH2 0x100 EXP SWAP1 DIV PUSH20 0xFFFFFFFFFFFFFFFFFFFFFFFFFFFFFFFFFFFFFFFF AND PUSH20 0xFFFFFFFFFFFFFFFFFFFFFFFFFFFFFFFFFFFFFFFF AND CALLER PUSH20 0xFFFFFFFFFFFFFFFFFFFFFFFFFFFFFFFFFFFFFFFF AND EQ PUSH2 0x430 JUMPI PUSH1 0x40 MLOAD PUSH32 0x8C379A000000000000000000000000000000000000000000000000000000000 DUP2 MSTORE PUSH1 0x4 ADD PUSH2 0x427 SWAP1 PUSH2 0xBBF JUMP JUMPDEST PUSH1 0x40 MLOAD DUP1 SWAP2 SUB SWAP1 REVERT JUMPDEST PUSH1 0x0 PUSH20 0xFFFFFFFFFFFFFFFFFFFFFFFFFFFFFFFFFFFFFFFF AND DUP3 PUSH20 0xFFFFFFFFFFFFFFFFFFFFFFFFFFFFFFFFFFFFFFFF AND EQ ISZERO PUSH2 0x4A0 JUMPI PUSH1 0x40 MLOAD PUSH32 0x8C379A000000000000000000000000000000000000000000000000000000000 DUP2 MSTORE PUSH1 0x4 ADD PUSH2 0x497 SWAP1 PUSH2 0xC2B JUMP JUMPDEST PUSH1 0x40 MLOAD DUP1 SWAP2 SUB SWAP1 REVERT JUMPDEST DUP2 DUP2 PUSH1 0x3 ADD PUSH1 0x0 PUSH2 0x100 EXP DUP2 SLOAD DUP2 PUSH20 0xFFFFFFFFFFFFFFFFFFFFFFFFFFFFFFFFFFFFFFFF MUL NOT AND SWAP1 DUP4 PUSH20 0xFFFFFFFFFFFFFFFFFFFFFFFFFFFFFFFFFFFFFFFF AND MUL OR SWAP1 SSTORE POP DUP3 PUSH32 0x4F04AEE436E2A1EB4E406CE4F8091D73DFAFDF9544D88F21ADF02B97D5A001C6 CALLER DUP5 PUSH1 0x40 MLOAD PUSH2 0x515 SWAP3 SWAP2 SWAP1 PUSH2 0xC4B JUMP JUMPDEST PUSH1 0x40 MLOAD DUP1 SWAP2 SUB SWAP1 LOG2 POP POP POP JUMP JUMPDEST PUSH1 0x0 PUSH1 0x20 MSTORE DUP1 PUSH1 0x0 MSTORE PUSH1 0x40 PUSH1 0x0 KECCAK256 PUSH1 0x0 SWAP2 POP SWAP1 POP DUP1 PUSH1 0x0 ADD DUP1 SLOAD PUSH2 0x545 SWAP1 PUSH2 0xB1B JUMP JUMPDEST DUP1 PUSH1 0x1F ADD PUSH1 0x20 DUP1 SWAP2 DIV MUL PUSH1 0x20 ADD PUSH1 0x40 MLOAD SWAP1 DUP2 ADD PUSH1 0x40 MSTORE DUP1 SWAP3 SWAP2 SWAP1 DUP2 DUP2 MSTORE PUSH1 0x20 ADD DUP3 DUP1 SLOAD PUSH2 0x571 SWAP1 PUSH2 0xB1B JUMP JUMPDEST DUP1 ISZERO PUSH2 0x5BE JUMPI DUP1 PUSH1 0x1F LT PUSH2 0x593 JUMPI PUSH2 0x100 DUP1 DUP4 SLOAD DIV MUL DUP4 MSTORE SWAP2 PUSH1 0x20 ADD SWAP2 PUSH2 0x5BE JUMP JUMPDEST DUP3 ADD SWAP2 SWAP1 PUSH1 0x0 MSTORE PUSH1 0x20 PUSH1 0x0 KECCAK256 SWAP1 JUMPDEST DUP2 SLOAD DUP2 MSTORE SWAP1 PUSH1 0x1 ADD SWAP1 PUSH1 0x20 ADD DUP1 DUP4 GT PUSH2 0x5A1 JUMPI DUP3 SWAP1 SUB PUSH1 0x1F AND DUP3 ADD SWAP2 JUMPDEST POP POP POP POP POP SWAP1 DUP1 PUSH1 0x1 ADD SLOAD SWAP1 DUP1 PUSH1 0x2 ADD SLOAD SWAP1 DUP1 PUSH1 0x3 ADD PUSH1 0x0 SWAP1 SLOAD SWAP1 PUSH2 0x100 EXP SWAP1 DIV PUSH20 0xFFFFFFFFFFFFFFFFFFFFFFFFFFFFFFFFFFFFFFFF AND SWAP1 POP DUP5 JUMP JUMPDEST DUP3 DUP1 SLOAD PUSH2 0x606 SWAP1 PUSH2 0xB1B JUMP JUMPDEST SWAP1 PUSH1 0x0 MSTORE PUSH1 0x20 PUSH1 0x0 KECCAK256 SWAP1 PUSH1 0x1F ADD PUSH1 0x20 SWAP1 DIV DUP2 ADD SWAP3 DUP3 PUSH2 0x628 JUMPI PUSH1 0x0 DUP6 SSTORE PUSH2 0x66F JUMP JUMPDEST DUP3 PUSH1 0x1F LT PUSH2 0x641 JUMPI DUP1 MLOAD PUSH1 0xFF NOT AND DUP4 DUP1 ADD OR DUP6 SSTORE PUSH2 0x66F JUMP JUMPDEST DUP3 DUP1 ADD PUSH1 0x1 ADD DUP6 SSTORE DUP3 ISZERO PUSH2 0x66F JUMPI SWAP2 DUP3 ADD JUMPDEST DUP3 DUP2 GT ISZERO PUSH2 0x66E JUMPI DUP3 MLOAD DUP3 SSTORE SWAP2 PUSH1 0x20 ADD SWAP2 SWAP1 PUSH1 0x1 ADD SWAP1 PUSH2 0x653 JUMP JUMPDEST JUMPDEST POP SWAP1 POP PUSH2 0x67C SWAP2 SWAP1 PUSH2 0x680 JUMP JUMPDEST POP SWAP1 JUMP JUMPDEST JUMPDEST DUP1 DUP3 GT ISZERO PUSH2 0x699 JUMPI PUSH1 0x0 DUP2 PUSH1 0x0 SWAP1 SSTORE POP PUSH1 0x1 ADD PUSH2 0x681 JUMP JUMPDEST POP SWAP1 JUMP JUMPDEST PUSH1 0x0 DUP2 SWAP1 POP SWAP2 SWAP1 POP JUMP JUMPDEST PUSH2 0x6B0 DUP2 PUSH2 0x69D JUMP JUMPDEST DUP3 MSTORE POP POP JUMP JUMPDEST PUSH1 0x0 PUSH1 0x20 DUP3 ADD SWAP1 POP PUSH2 0x6CB PUSH1 0x0 DUP4 ADD DUP5 PUSH2 0x6A7 JUMP JUMPDEST SWAP3 SWAP2 POP POP JUMP JUMPDEST PUSH1 0x0 PUSH1 0x40 MLOAD SWAP1 POP SWAP1 JUMP JUMPDEST PUSH1 0x0 DUP1 REVERT JUMPDEST PUSH1 0x0 DUP1 REVERT JUMPDEST PUSH1 0x0 DUP1 REVERT JUMPDEST PUSH1 0x0 DUP1 REVERT JUMPDEST PUSH1 0x0 PUSH1 0x1F NOT PUSH1 0x1F DUP4 ADD AND SWAP1 POP SWAP2 SWAP1 POP JUMP JUMPDEST PUSH32 0x4E487B7100000000000000000000000000000000000000000000000000000000 PUSH1 0x0 MSTORE PUSH1 0x41 PUSH1 0x4 MSTORE PUSH1 0x24 PUSH1 0x0 REVERT JUMPDEST PUSH2 0x738 DUP3 PUSH2 0x6EF JUMP JUMPDEST DUP2 ADD DUP2 DUP2 LT PUSH8 0xFFFFFFFFFFFFFFFF DUP3 GT OR ISZERO PUSH2 0x757 JUMPI PUSH2 0x756 PUSH2 0x700 JUMP JUMPDEST JUMPDEST DUP1 PUSH1 0x40 MSTORE POP POP POP JUMP JUMPDEST PUSH1 0x0 PUSH2 0x76A PUSH2 0x6D1 JUMP JUMPDEST SWAP1 POP PUSH2 0x776 DUP3 DUP3 PUSH2 0x72F JUMP JUMPDEST SWAP2 SWAP1 POP JUMP JUMPDEST PUSH1 0x0 PUSH8 0xFFFFFFFFFFFFFFFF DUP3 GT ISZERO PUSH2 0x796 JUMPI PUSH2 0x795 PUSH2 0x700 JUMP JUMPDEST JUMPDEST PUSH2 0x79F DUP3 PUSH2 0x6EF JUMP JUMPDEST SWAP1 POP PUSH1 0x20 DUP2 ADD SWAP1 POP SWAP2 SWAP1 POP JUMP JUMPDEST DUP3 DUP2 DUP4 CALLDATACOPY PUSH1 0x0 DUP4 DUP4 ADD MSTORE POP POP POP JUMP JUMPDEST PUSH1 0x0 PUSH2 0x7CE PUSH2 0x7C9 DUP5 PUSH2 0x77B JUMP JUMPDEST PUSH2 0x760 JUMP JUMPDEST SWAP1 POP DUP3 DUP2 MSTORE PUSH1 0x20 DUP2 ADD DUP5 DUP5 DUP5 ADD GT ISZERO PUSH2 0x7EA JUMPI PUSH2 0x7E9 PUSH2 0x6EA JUMP JUMPDEST JUMPDEST PUSH2 0x7F5 DUP5 DUP3 DUP6 PUSH2 0x7AC JUMP JUMPDEST POP SWAP4 SWAP3 POP POP POP JUMP JUMPDEST PUSH1 0x0 DUP3 PUSH1 0x1F DUP4 ADD SLT PUSH2 0x812 JUMPI PUSH2 0x811 PUSH2 0x6E5 JUMP JUMPDEST JUMPDEST DUP2 CALLDATALOAD PUSH2 0x822 DUP5 DUP3 PUSH1 0x20 DUP7 ADD PUSH2 0x7BB JUMP JUMPDEST SWAP2 POP POP SWAP3 SWAP2 POP POP JUMP JUMPDEST PUSH2 0x834 DUP2 PUSH2 0x69D JUMP JUMPDEST DUP2 EQ PUSH2 0x83F JUMPI PUSH1 0x0 DUP1 REVERT JUMPDEST POP JUMP JUMPDEST PUSH1 0x0 DUP2 CALLDATALOAD SWAP1 POP PUSH2 0x851 DUP2 PUSH2 0x82B JUMP JUMPDEST SWAP3 SWAP2 POP POP JUMP JUMPDEST PUSH1 0x0 DUP1 PUSH1 0x0 PUSH1 0x60 DUP5 DUP7 SUB SLT ISZERO PUSH2 0x870 JUMPI PUSH2 0x86F PUSH2 0x6DB JUMP JUMPDEST JUMPDEST PUSH1 0x0 DUP5 ADD CALLDATALOAD PUSH8 0xFFFFFFFFFFFFFFFF DUP2 GT ISZERO PUSH2 0x88E JUMPI PUSH2 0x88D PUSH2 0x6E0 JUMP JUMPDEST JUMPDEST PUSH2 0x89A DUP7 DUP3 DUP8 ADD PUSH2 0x7FD JUMP JUMPDEST SWAP4 POP POP PUSH1 0x20 PUSH2 0x8AB DUP7 DUP3 DUP8 ADD PUSH2 0x842 JUMP JUMPDEST SWAP3 POP POP PUSH1 0x40 PUSH2 0x8BC DUP7 DUP3 DUP8 ADD PUSH2 0x842 JUMP JUMPDEST SWAP2 POP POP SWAP3 POP SWAP3 POP SWAP3 JUMP JUMPDEST PUSH1 0x0 PUSH1 0x20 DUP3 DUP5 SUB SLT ISZERO PUSH2 0x8DC JUMPI PUSH2 0x8DB PUSH2 0x6DB JUMP JUMPDEST JUMPDEST PUSH1 0x0 PUSH2 0x8EA DUP5 DUP3 DUP6 ADD PUSH2 0x842 JUMP JUMPDEST SWAP2 POP POP SWAP3 SWAP2 POP POP JUMP JUMPDEST PUSH1 0x0 DUP2 MLOAD SWAP1 POP SWAP2 SWAP1 POP JUMP JUMPDEST PUSH1 0x0 DUP3 DUP3 MSTORE PUSH1 0x20 DUP3 ADD SWAP1 POP SWAP3 SWAP2 POP POP JUMP JUMPDEST PUSH1 0x0 JUMPDEST DUP4 DUP2 LT ISZERO PUSH2 0x92D JUMPI DUP1 DUP3 ADD MLOAD DUP2 DUP5 ADD MSTORE PUSH1 0x20 DUP2 ADD SWAP1 POP PUSH2 0x912 JUMP JUMPDEST DUP4 DUP2 GT ISZERO PUSH2 0x93C JUMPI PUSH1 0x0 DUP5 DUP5 ADD MSTORE JUMPDEST POP POP POP POP JUMP JUMPDEST PUSH1 0x0 PUSH2 0x94D DUP3 PUSH2 0x8F3 JUMP JUMPDEST PUSH2 0x957 DUP2 DUP6 PUSH2 0x8FE JUMP JUMPDEST SWAP4 POP PUSH2 0x967 DUP2 DUP6 PUSH1 0x20 DUP7 ADD PUSH2 0x90F JUMP JUMPDEST PUSH2 0x970 DUP2 PUSH2 0x6EF JUMP JUMPDEST DUP5 ADD SWAP2 POP POP SWAP3 SWAP2 POP POP JUMP JUMPDEST PUSH1 0x0 PUSH20 0xFFFFFFFFFFFFFFFFFFFFFFFFFFFFFFFFFFFFFFFF DUP3 AND SWAP1 POP SWAP2 SWAP1 POP JUMP JUMPDEST PUSH1 0x0 PUSH2 0x9A6 DUP3 PUSH2 0x97B JUMP JUMPDEST SWAP1 POP SWAP2 SWAP1 POP JUMP JUMPDEST PUSH2 0x9B6 DUP2 PUSH2 0x99B JUMP JUMPDEST DUP3 MSTORE POP POP JUMP JUMPDEST PUSH1 0x0 PUSH1 0x80 DUP3 ADD SWAP1 POP DUP2 DUP2 SUB PUSH1 0x0 DUP4 ADD MSTORE PUSH2 0x9D6 DUP2 DUP8 PUSH2 0x942 JUMP JUMPDEST SWAP1 POP PUSH2 0x9E5 PUSH1 0x20 DUP4 ADD DUP7 PUSH2 0x6A7 JUMP JUMPDEST PUSH2 0x9F2 PUSH1 0x40 DUP4 ADD DUP6 PUSH2 0x6A7 JUMP JUMPDEST PUSH2 0x9FF PUSH1 0x60 DUP4 ADD DUP5 PUSH2 0x9AD JUMP JUMPDEST SWAP6 SWAP5 POP POP POP POP POP JUMP JUMPDEST PUSH2 0xA11 DUP2 PUSH2 0x99B JUMP JUMPDEST DUP2 EQ PUSH2 0xA1C JUMPI PUSH1 0x0 DUP1 REVERT JUMPDEST POP JUMP JUMPDEST PUSH1 0x0 DUP2 CALLDATALOAD SWAP1 POP PUSH2 0xA2E DUP2 PUSH2 0xA08 JUMP JUMPDEST SWAP3 SWAP2 POP POP JUMP JUMPDEST PUSH1 0x0 DUP1 PUSH1 0x40 DUP4 DUP6 SUB SLT ISZERO PUSH2 0xA4B JUMPI PUSH2 0xA4A PUSH2 0x6DB JUMP JUMPDEST JUMPDEST PUSH1 0x0 PUSH2 0xA59 DUP6 DUP3 DUP7 ADD PUSH2 0x842 JUMP JUMPDEST SWAP3 POP POP PUSH1 0x20 PUSH2 0xA6A DUP6 DUP3 DUP7 ADD PUSH2 0xA1F JUMP JUMPDEST SWAP2 POP POP SWAP3 POP SWAP3 SWAP1 POP JUMP JUMPDEST PUSH32 0x4E487B7100000000000000000000000000000000000000000000000000000000 PUSH1 0x0 MSTORE PUSH1 0x11 PUSH1 0x4 MSTORE PUSH1 0x24 PUSH1 0x0 REVERT JUMPDEST PUSH1 0x0 PUSH2 0xAAE DUP3 PUSH2 0x69D JUMP JUMPDEST SWAP2 POP PUSH32 0xFFFFFFFFFFFFFFFFFFFFFFFFFFFFFFFFFFFFFFFFFFFFFFFFFFFFFFFFFFFFFFFF DUP3 EQ ISZERO PUSH2 0xAE1 JUMPI PUSH2 0xAE0 PUSH2 0xA74 JUMP JUMPDEST JUMPDEST PUSH1 0x1 DUP3 ADD SWAP1 POP SWAP2 SWAP1 POP JUMP JUMPDEST PUSH32 0x4E487B7100000000000000000000000000000000000000000000000000000000 PUSH1 0x0 MSTORE PUSH1 0x22 PUSH1 0x4 MSTORE PUSH1 0x24 PUSH1 0x0 REVERT JUMPDEST PUSH1 0x0 PUSH1 0x2 DUP3 DIV SWAP1 POP PUSH1 0x1 DUP3 AND DUP1 PUSH2 0xB33 JUMPI PUSH1 0x7F DUP3 AND SWAP2 POP JUMPDEST PUSH1 0x20 DUP3 LT DUP2 EQ ISZERO PUSH2 0xB47 JUMPI PUSH2 0xB46 PUSH2 0xAEC JUMP JUMPDEST JUMPDEST POP SWAP2 SWAP1 POP JUMP JUMPDEST PUSH32 0x4F6E6C79207468652063757272656E74206F776E65722063616E207472616E73 PUSH1 0x0 DUP3 ADD MSTORE PUSH32 0x666572206F776E65727368697000000000000000000000000000000000000000 PUSH1 0x20 DUP3 ADD MSTORE POP JUMP JUMPDEST PUSH1 0x0 PUSH2 0xBA9 PUSH1 0x2D DUP4 PUSH2 0x8FE JUMP JUMPDEST SWAP2 POP PUSH2 0xBB4 DUP3 PUSH2 0xB4D JUMP JUMPDEST PUSH1 0x40 DUP3 ADD SWAP1 POP SWAP2 SWAP1 POP JUMP JUMPDEST PUSH1 0x0 PUSH1 0x20 DUP3 ADD SWAP1 POP DUP2 DUP2 SUB PUSH1 0x0 DUP4 ADD MSTORE PUSH2 0xBD8 DUP2 PUSH2 0xB9C JUMP JUMPDEST SWAP1 POP SWAP2 SWAP1 POP JUMP JUMPDEST PUSH32 0x496E76616C6964206E6577206F776E6572206164647265737300000000000000 PUSH1 0x0 DUP3 ADD MSTORE POP JUMP JUMPDEST PUSH1 0x0 PUSH2 0xC15 PUSH1 0x19 DUP4 PUSH2 0x8FE JUMP JUMPDEST SWAP2 POP PUSH2 0xC20 DUP3 PUSH2 0xBDF JUMP JUMPDEST PUSH1 0x20 DUP3 ADD SWAP1 POP SWAP2 SWAP1 POP JUMP JUMPDEST PUSH1 0x0 PUSH1 0x20 DUP3 ADD SWAP1 POP DUP2 DUP2 SUB PUSH1 0x0 DUP4 ADD MSTORE PUSH2 0xC44 DUP2 PUSH2 0xC08 JUMP JUMPDEST SWAP1 POP SWAP2 SWAP1 POP JUMP JUMPDEST PUSH1 0x0 PUSH1 0x40 DUP3 ADD SWAP1 POP PUSH2 0xC60 PUSH1 0x0 DUP4 ADD DUP6 PUSH2 0x9AD JUMP JUMPDEST PUSH2 0xC6D PUSH1 0x20 DUP4 ADD DUP5 PUSH2 0x9AD JUMP JUMPDEST SWAP4 SWAP3 POP POP POP JUMP INVALID LOG2 PUSH5 0x6970667358 0x22 SLT KECCAK256 SWAP11 0xF6 SHL GASPRICE DUP14 0x26 0xED 0xB4 PUSH17 0x9C1211444A5A7C740C97E1DD0B213F3871 0x2F 0x25 POP 0xEF SELFDESTRUCT MSTORE8 PUSH5 0x736F6C6343 STOP ADDMOD SIGNEXTEND STOP CALLER "
				},
				"gasEstimates": {
					"creation": {
						"codeDepositCost": "648400",
						"executionCost": "683",
						"totalCost": "649083"
					},
					"external": {
						"addHighway(string,uint256,uint256)": "infinite",
						"getHighway(uint256)": "infinite",
						"highwayCount()": "2407",
						"highways(uint256)": "infinite",
						"transferHighwayOwnership(uint256,address)": "infinite"
					}
				},
				"methodIdentifiers": {
					"addHighway(string,uint256,uint256)": "5df170ee",
					"getHighway(uint256)": "7bb2f090",
					"highwayCount()": "2a6e0a61",
					"highways(uint256)": "a076f818",
					"transferHighwayOwnership(uint256,address)": "839aeb1c"
				}
			},
			"storageLayout": {
				"storage": [
					{
						"astId": 15,
						"contract": "Track Transportation Project 11/Track Transportation.sol:Transportation",
						"label": "highways",
						"offset": 0,
						"slot": "0",
						"type": "t_mapping(t_uint256,t_struct(Highway)10_storage)"
					},
					{
						"astId": 17,
						"contract": "Track Transportation Project 11/Track Transportation.sol:Transportation",
						"label": "highwayCount",
						"offset": 0,
						"slot": "1",
						"type": "t_uint256"
					}
				],
				"types": {
					"t_address": {
						"encoding": "inplace",
						"label": "address",
						"numberOfBytes": "20"
					},
					"t_mapping(t_uint256,t_struct(Highway)10_storage)": {
						"encoding": "mapping",
						"key": "t_uint256",
						"label": "mapping(uint256 => struct Transportation.Highway)",
						"numberOfBytes": "32",
						"value": "t_struct(Highway)10_storage"
					},
					"t_string_storage": {
						"encoding": "bytes",
						"label": "string",
						"numberOfBytes": "32"
					},
					"t_struct(Highway)10_storage": {
						"encoding": "inplace",
						"label": "struct Transportation.Highway",
						"members": [
							{
								"astId": 3,
								"contract": "Track Transportation Project 11/Track Transportation.sol:Transportation",
								"label": "name",
								"offset": 0,
								"slot": "0",
								"type": "t_string_storage"
							},
							{
								"astId": 5,
								"contract": "Track Transportation Project 11/Track Transportation.sol:Transportation",
								"label": "length",
								"offset": 0,
								"slot": "1",
								"type": "t_uint256"
							},
							{
								"astId": 7,
								"contract": "Track Transportation Project 11/Track Transportation.sol:Transportation",
								"label": "toll",
								"offset": 0,
								"slot": "2",
								"type": "t_uint256"
							},
							{
								"astId": 9,
								"contract": "Track Transportation Project 11/Track Transportation.sol:Transportation",
								"label": "owner",
								"offset": 0,
								"slot": "3",
								"type": "t_address"
							}
						],
						"numberOfBytes": "128"
					},
					"t_uint256": {
						"encoding": "inplace",
						"label": "uint256",
						"numberOfBytes": "32"
					}
				}
			},
			"userdoc": {
				"kind": "user",
				"methods": {},
				"version": 1
			}
		}
	}
}