{
	"Biometric Security System Project 19/Biometric.sol": {
		"VotingSystem": {
			"abi": [
				{
					"inputs": [],
					"stateMutability": "nonpayable",
					"type": "constructor"
				},
				{
					"anonymous": false,
					"inputs": [
						{
							"indexed": false,
							"internalType": "address",
							"name": "newAdmin",
							"type": "address"
						}
					],
					"name": "AdminChanged",
					"type": "event"
				},
				{
					"anonymous": false,
					"inputs": [
						{
							"indexed": false,
							"internalType": "bytes32",
							"name": "candidate",
							"type": "bytes32"
						}
					],
					"name": "CandidateAdded",
					"type": "event"
				},
				{
					"anonymous": false,
					"inputs": [
						{
							"indexed": false,
							"internalType": "address",
							"name": "voter",
							"type": "address"
						},
						{
							"indexed": false,
							"internalType": "bytes32",
							"name": "candidate",
							"type": "bytes32"
						}
					],
					"name": "Voted",
					"type": "event"
				},
				{
					"inputs": [
						{
							"internalType": "bytes32",
							"name": "candidate",
							"type": "bytes32"
						}
					],
					"name": "addCandidate",
					"outputs": [],
					"stateMutability": "nonpayable",
					"type": "function"
				},
				{
					"inputs": [],
					"name": "admin",
					"outputs": [
						{
							"internalType": "address",
							"name": "",
							"type": "address"
						}
					],
					"stateMutability": "view",
					"type": "function"
				},
				{
					"inputs": [
						{
							"internalType": "address",
							"name": "newAdmin",
							"type": "address"
						}
					],
					"name": "changeAdmin",
					"outputs": [],
					"stateMutability": "nonpayable",
					"type": "function"
				},
				{
					"inputs": [
						{
							"internalType": "address",
							"name": "",
							"type": "address"
						}
					],
					"name": "hasVoted",
					"outputs": [
						{
							"internalType": "bool",
							"name": "",
							"type": "bool"
						}
					],
					"stateMutability": "view",
					"type": "function"
				},
				{
					"inputs": [
						{
							"internalType": "bytes32",
							"name": "",
							"type": "bytes32"
						},
						{
							"internalType": "bytes32",
							"name": "candidate",
							"type": "bytes32"
						}
					],
					"name": "vote",
					"outputs": [],
					"stateMutability": "nonpayable",
					"type": "function"
				},
				{
					"inputs": [
						{
							"internalType": "bytes32",
							"name": "",
							"type": "bytes32"
						}
					],
					"name": "votes",
					"outputs": [
						{
							"internalType": "uint256",
							"name": "",
							"type": "uint256"
						}
					],
					"stateMutability": "view",
					"type": "function"
				}
			],
			"devdoc": {
				"kind": "dev",
				"methods": {},
				"version": 1
			},
			"evm": {
				"assembly": "    /* \"Biometric Security System Project 19/Biometric.sol\":60:1157  contract VotingSystem {... */\n  mstore(0x40, 0x80)\n    /* \"Biometric Security System Project 19/Biometric.sol\":218:269  constructor() {... */\n  callvalue\n  dup1\n  iszero\n  tag_1\n  jumpi\n  0x00\n  dup1\n  revert\ntag_1:\n  pop\n    /* \"Biometric Security System Project 19/Biometric.sol\":251:261  msg.sender */\n  caller\n    /* \"Biometric Security System Project 19/Biometric.sol\":243:248  admin */\n  0x02\n  0x00\n    /* \"Biometric Security System Project 19/Biometric.sol\":243:261  admin = msg.sender */\n  0x0100\n  exp\n  dup2\n  sload\n  dup2\n  0xffffffffffffffffffffffffffffffffffffffff\n  mul\n  not\n  and\n  swap1\n  dup4\n  0xffffffffffffffffffffffffffffffffffffffff\n  and\n  mul\n  or\n  swap1\n  sstore\n  pop\n    /* \"Biometric Security System Project 19/Biometric.sol\":60:1157  contract VotingSystem {... */\n  dataSize(sub_0)\n  dup1\n  dataOffset(sub_0)\n  0x00\n  codecopy\n  0x00\n  return\nstop\n\nsub_0: assembly {\n        /* \"Biometric Security System Project 19/Biometric.sol\":60:1157  contract VotingSystem {... */\n      mstore(0x40, 0x80)\n      callvalue\n      dup1\n      iszero\n      tag_1\n      jumpi\n      0x00\n      dup1\n      revert\n    tag_1:\n      pop\n      jumpi(tag_2, lt(calldatasize, 0x04))\n      shr(0xe0, calldataload(0x00))\n      dup1\n      0x09eef43e\n      eq\n      tag_3\n      jumpi\n      dup1\n      0x230d6ed8\n      eq\n      tag_4\n      jumpi\n      dup1\n      0x2b38cd96\n      eq\n      tag_5\n      jumpi\n      dup1\n      0x8f283970\n      eq\n      tag_6\n      jumpi\n      dup1\n      0xeeaaf19d\n      eq\n      tag_7\n      jumpi\n      dup1\n      0xf851a440\n      eq\n      tag_8\n      jumpi\n    tag_2:\n      0x00\n      dup1\n      revert\n        /* \"Biometric Security System Project 19/Biometric.sol\":137:178  mapping (address => bool) public hasVoted */\n    tag_3:\n      tag_9\n      0x04\n      dup1\n      calldatasize\n      sub\n      dup2\n      add\n      swap1\n      tag_10\n      swap2\n      swap1\n      tag_11\n      jump\t// in\n    tag_10:\n      tag_12\n      jump\t// in\n    tag_9:\n      mload(0x40)\n      tag_13\n      swap2\n      swap1\n      tag_14\n      jump\t// in\n    tag_13:\n      mload(0x40)\n      dup1\n      swap2\n      sub\n      swap1\n      return\n        /* \"Biometric Security System Project 19/Biometric.sol\":653:866  function addCandidate(bytes32 candidate) public onlyAdmin {... */\n    tag_4:\n      tag_15\n      0x04\n      dup1\n      calldatasize\n      sub\n      dup2\n      add\n      swap1\n      tag_16\n      swap2\n      swap1\n      tag_17\n      jump\t// in\n    tag_16:\n      tag_18\n      jump\t// in\n    tag_15:\n      stop\n        /* \"Biometric Security System Project 19/Biometric.sol\":89:130  mapping (bytes32 => uint256) public votes */\n    tag_5:\n      tag_19\n      0x04\n      dup1\n      calldatasize\n      sub\n      dup2\n      add\n      swap1\n      tag_20\n      swap2\n      swap1\n      tag_17\n      jump\t// in\n    tag_20:\n      tag_21\n      jump\t// in\n    tag_19:\n      mload(0x40)\n      tag_22\n      swap2\n      swap1\n      tag_23\n      jump\t// in\n    tag_22:\n      mload(0x40)\n      dup1\n      swap2\n      sub\n      swap1\n      return\n        /* \"Biometric Security System Project 19/Biometric.sol\":878:1007  function changeAdmin(address newAdmin) public onlyAdmin {... */\n    tag_6:\n      tag_24\n      0x04\n      dup1\n      calldatasize\n      sub\n      dup2\n      add\n      swap1\n      tag_25\n      swap2\n      swap1\n      tag_11\n      jump\t// in\n    tag_25:\n      tag_26\n      jump\t// in\n    tag_24:\n      stop\n        /* \"Biometric Security System Project 19/Biometric.sol\":416:641  function vote(bytes32 /*encryptedBiometricData*/, bytes32 candidate) public {... */\n    tag_7:\n      tag_27\n      0x04\n      dup1\n      calldatasize\n      sub\n      dup2\n      add\n      swap1\n      tag_28\n      swap2\n      swap1\n      tag_29\n      jump\t// in\n    tag_28:\n      tag_30\n      jump\t// in\n    tag_27:\n      stop\n        /* \"Biometric Security System Project 19/Biometric.sol\":185:205  address public admin */\n    tag_8:\n      tag_31\n      tag_32\n      jump\t// in\n    tag_31:\n      mload(0x40)\n      tag_33\n      swap2\n      swap1\n      tag_34\n      jump\t// in\n    tag_33:\n      mload(0x40)\n      dup1\n      swap2\n      sub\n      swap1\n      return\n        /* \"Biometric Security System Project 19/Biometric.sol\":137:178  mapping (address => bool) public hasVoted */\n    tag_12:\n      mstore(0x20, 0x01)\n      dup1\n      0x00\n      mstore\n      keccak256(0x00, 0x40)\n      0x00\n      swap2\n      pop\n      sload\n      swap1\n      0x0100\n      exp\n      swap1\n      div\n      0xff\n      and\n      dup2\n      jump\t// out\n        /* \"Biometric Security System Project 19/Biometric.sol\":653:866  function addCandidate(bytes32 candidate) public onlyAdmin {... */\n    tag_18:\n        /* \"Biometric Security System Project 19/Biometric.sol\":335:340  admin */\n      0x02\n      0x00\n      swap1\n      sload\n      swap1\n      0x0100\n      exp\n      swap1\n      div\n      0xffffffffffffffffffffffffffffffffffffffff\n      and\n        /* \"Biometric Security System Project 19/Biometric.sol\":321:340  msg.sender == admin */\n      0xffffffffffffffffffffffffffffffffffffffff\n      and\n        /* \"Biometric Security System Project 19/Biometric.sol\":321:331  msg.sender */\n      caller\n        /* \"Biometric Security System Project 19/Biometric.sol\":321:340  msg.sender == admin */\n      0xffffffffffffffffffffffffffffffffffffffff\n      and\n      eq\n        /* \"Biometric Security System Project 19/Biometric.sol\":313:384  require(msg.sender == admin, \"Only the admin can perform this action.\") */\n      tag_36\n      jumpi\n      mload(0x40)\n      0x08c379a000000000000000000000000000000000000000000000000000000000\n      dup2\n      mstore\n      0x04\n      add\n      tag_37\n      swap1\n      tag_38\n      jump\t// in\n    tag_37:\n      mload(0x40)\n      dup1\n      swap2\n      sub\n      swap1\n      revert\n    tag_36:\n        /* \"Biometric Security System Project 19/Biometric.sol\":750:751  0 */\n      0x00\n        /* \"Biometric Security System Project 19/Biometric.sol\":730:735  votes */\n      dup1\n        /* \"Biometric Security System Project 19/Biometric.sol\":730:746  votes[candidate] */\n      0x00\n        /* \"Biometric Security System Project 19/Biometric.sol\":736:745  candidate */\n      dup4\n        /* \"Biometric Security System Project 19/Biometric.sol\":730:746  votes[candidate] */\n      dup2\n      mstore\n      0x20\n      add\n      swap1\n      dup2\n      mstore\n      0x20\n      add\n      0x00\n      keccak256\n      sload\n        /* \"Biometric Security System Project 19/Biometric.sol\":730:751  votes[candidate] == 0 */\n      eq\n        /* \"Biometric Security System Project 19/Biometric.sol\":722:786  require(votes[candidate] == 0, \"This candidate already exists.\") */\n      tag_40\n      jumpi\n      mload(0x40)\n      0x08c379a000000000000000000000000000000000000000000000000000000000\n      dup2\n      mstore\n      0x04\n      add\n      tag_41\n      swap1\n      tag_42\n      jump\t// in\n    tag_41:\n      mload(0x40)\n      dup1\n      swap2\n      sub\n      swap1\n      revert\n    tag_40:\n        /* \"Biometric Security System Project 19/Biometric.sol\":816:817  0 */\n      0x00\n        /* \"Biometric Security System Project 19/Biometric.sol\":797:802  votes */\n      dup1\n        /* \"Biometric Security System Project 19/Biometric.sol\":797:813  votes[candidate] */\n      0x00\n        /* \"Biometric Security System Project 19/Biometric.sol\":803:812  candidate */\n      dup4\n        /* \"Biometric Security System Project 19/Biometric.sol\":797:813  votes[candidate] */\n      dup2\n      mstore\n      0x20\n      add\n      swap1\n      dup2\n      mstore\n      0x20\n      add\n      0x00\n      keccak256\n        /* \"Biometric Security System Project 19/Biometric.sol\":797:817  votes[candidate] = 0 */\n      dup2\n      swap1\n      sstore\n      pop\n        /* \"Biometric Security System Project 19/Biometric.sol\":833:858  CandidateAdded(candidate) */\n      0x1ca6455dcb14c395e267f0f1f437ef528cbd7259d0ac82309627fcac2e9d801c\n        /* \"Biometric Security System Project 19/Biometric.sol\":848:857  candidate */\n      dup2\n        /* \"Biometric Security System Project 19/Biometric.sol\":833:858  CandidateAdded(candidate) */\n      mload(0x40)\n      tag_43\n      swap2\n      swap1\n      tag_44\n      jump\t// in\n    tag_43:\n      mload(0x40)\n      dup1\n      swap2\n      sub\n      swap1\n      log1\n        /* \"Biometric Security System Project 19/Biometric.sol\":653:866  function addCandidate(bytes32 candidate) public onlyAdmin {... */\n      pop\n      jump\t// out\n        /* \"Biometric Security System Project 19/Biometric.sol\":89:130  mapping (bytes32 => uint256) public votes */\n    tag_21:\n      mstore(0x20, 0x00)\n      dup1\n      0x00\n      mstore\n      keccak256(0x00, 0x40)\n      0x00\n      swap2\n      pop\n      swap1\n      pop\n      sload\n      dup2\n      jump\t// out\n        /* \"Biometric Security System Project 19/Biometric.sol\":878:1007  function changeAdmin(address newAdmin) public onlyAdmin {... */\n    tag_26:\n        /* \"Biometric Security System Project 19/Biometric.sol\":335:340  admin */\n      0x02\n      0x00\n      swap1\n      sload\n      swap1\n      0x0100\n      exp\n      swap1\n      div\n      0xffffffffffffffffffffffffffffffffffffffff\n      and\n        /* \"Biometric Security System Project 19/Biometric.sol\":321:340  msg.sender == admin */\n      0xffffffffffffffffffffffffffffffffffffffff\n      and\n        /* \"Biometric Security System Project 19/Biometric.sol\":321:331  msg.sender */\n      caller\n        /* \"Biometric Security System Project 19/Biometric.sol\":321:340  msg.sender == admin */\n      0xffffffffffffffffffffffffffffffffffffffff\n      and\n      eq\n        /* \"Biometric Security System Project 19/Biometric.sol\":313:384  require(msg.sender == admin, \"Only the admin can perform this action.\") */\n      tag_46\n      jumpi\n      mload(0x40)\n      0x08c379a000000000000000000000000000000000000000000000000000000000\n      dup2\n      mstore\n      0x04\n      add\n      tag_47\n      swap1\n      tag_38\n      jump\t// in\n    tag_47:\n      mload(0x40)\n      dup1\n      swap2\n      sub\n      swap1\n      revert\n    tag_46:\n        /* \"Biometric Security System Project 19/Biometric.sol\":953:961  newAdmin */\n      dup1\n        /* \"Biometric Security System Project 19/Biometric.sol\":945:950  admin */\n      0x02\n      0x00\n        /* \"Biometric Security System Project 19/Biometric.sol\":945:961  admin = newAdmin */\n      0x0100\n      exp\n      dup2\n      sload\n      dup2\n      0xffffffffffffffffffffffffffffffffffffffff\n      mul\n      not\n      and\n      swap1\n      dup4\n      0xffffffffffffffffffffffffffffffffffffffff\n      and\n      mul\n      or\n      swap1\n      sstore\n      pop\n        /* \"Biometric Security System Project 19/Biometric.sol\":977:999  AdminChanged(newAdmin) */\n      0x7ce7ec0b50378fb6c0186ffb5f48325f6593fcb4ca4386f21861af3129188f5c\n        /* \"Biometric Security System Project 19/Biometric.sol\":990:998  newAdmin */\n      dup2\n        /* \"Biometric Security System Project 19/Biometric.sol\":977:999  AdminChanged(newAdmin) */\n      mload(0x40)\n      tag_49\n      swap2\n      swap1\n      tag_34\n      jump\t// in\n    tag_49:\n      mload(0x40)\n      dup1\n      swap2\n      sub\n      swap1\n      log1\n        /* \"Biometric Security System Project 19/Biometric.sol\":878:1007  function changeAdmin(address newAdmin) public onlyAdmin {... */\n      pop\n      jump\t// out\n        /* \"Biometric Security System Project 19/Biometric.sol\":416:641  function vote(bytes32 /*encryptedBiometricData*/, bytes32 candidate) public {... */\n    tag_30:\n        /* \"Biometric Security System Project 19/Biometric.sol\":550:551  1 */\n      0x01\n        /* \"Biometric Security System Project 19/Biometric.sol\":530:535  votes */\n      0x00\n        /* \"Biometric Security System Project 19/Biometric.sol\":530:546  votes[candidate] */\n      dup1\n        /* \"Biometric Security System Project 19/Biometric.sol\":536:545  candidate */\n      dup4\n        /* \"Biometric Security System Project 19/Biometric.sol\":530:546  votes[candidate] */\n      dup2\n      mstore\n      0x20\n      add\n      swap1\n      dup2\n      mstore\n      0x20\n      add\n      0x00\n      keccak256\n      0x00\n        /* \"Biometric Security System Project 19/Biometric.sol\":530:551  votes[candidate] += 1 */\n      dup3\n      dup3\n      sload\n      tag_51\n      swap2\n      swap1\n      tag_52\n      jump\t// in\n    tag_51:\n      swap3\n      pop\n      pop\n      dup2\n      swap1\n      sstore\n      pop\n        /* \"Biometric Security System Project 19/Biometric.sol\":585:589  true */\n      0x01\n        /* \"Biometric Security System Project 19/Biometric.sol\":562:570  hasVoted */\n      dup1\n        /* \"Biometric Security System Project 19/Biometric.sol\":562:582  hasVoted[msg.sender] */\n      0x00\n        /* \"Biometric Security System Project 19/Biometric.sol\":571:581  msg.sender */\n      caller\n        /* \"Biometric Security System Project 19/Biometric.sol\":562:582  hasVoted[msg.sender] */\n      0xffffffffffffffffffffffffffffffffffffffff\n      and\n      0xffffffffffffffffffffffffffffffffffffffff\n      and\n      dup2\n      mstore\n      0x20\n      add\n      swap1\n      dup2\n      mstore\n      0x20\n      add\n      0x00\n      keccak256\n      0x00\n        /* \"Biometric Security System Project 19/Biometric.sol\":562:589  hasVoted[msg.sender] = true */\n      0x0100\n      exp\n      dup2\n      sload\n      dup2\n      0xff\n      mul\n      not\n      and\n      swap1\n      dup4\n      iszero\n      iszero\n      mul\n      or\n      swap1\n      sstore\n      pop\n        /* \"Biometric Security System Project 19/Biometric.sol\":605:633  Voted(msg.sender, candidate) */\n      0xc78796858497f000f0a77d7f0c624bbaf635bf26239188e8fba52c571db2398d\n        /* \"Biometric Security System Project 19/Biometric.sol\":611:621  msg.sender */\n      caller\n        /* \"Biometric Security System Project 19/Biometric.sol\":623:632  candidate */\n      dup3\n        /* \"Biometric Security System Project 19/Biometric.sol\":605:633  Voted(msg.sender, candidate) */\n      mload(0x40)\n      tag_53\n      swap3\n      swap2\n      swap1\n      tag_54\n      jump\t// in\n    tag_53:\n      mload(0x40)\n      dup1\n      swap2\n      sub\n      swap1\n      log1\n        /* \"Biometric Security System Project 19/Biometric.sol\":416:641  function vote(bytes32 /*encryptedBiometricData*/, bytes32 candidate) public {... */\n      pop\n      pop\n      jump\t// out\n        /* \"Biometric Security System Project 19/Biometric.sol\":185:205  address public admin */\n    tag_32:\n      0x02\n      0x00\n      swap1\n      sload\n      swap1\n      0x0100\n      exp\n      swap1\n      div\n      0xffffffffffffffffffffffffffffffffffffffff\n      and\n      dup2\n      jump\t// out\n        /* \"#utility.yul\":88:205   */\n    tag_56:\n        /* \"#utility.yul\":197:198   */\n      0x00\n        /* \"#utility.yul\":194:195   */\n      dup1\n        /* \"#utility.yul\":187:199   */\n      revert\n        /* \"#utility.yul\":334:460   */\n    tag_58:\n        /* \"#utility.yul\":371:378   */\n      0x00\n        /* \"#utility.yul\":411:453   */\n      0xffffffffffffffffffffffffffffffffffffffff\n        /* \"#utility.yul\":404:409   */\n      dup3\n        /* \"#utility.yul\":400:454   */\n      and\n        /* \"#utility.yul\":389:454   */\n      swap1\n      pop\n        /* \"#utility.yul\":334:460   */\n      swap2\n      swap1\n      pop\n      jump\t// out\n        /* \"#utility.yul\":466:562   */\n    tag_59:\n        /* \"#utility.yul\":503:510   */\n      0x00\n        /* \"#utility.yul\":532:556   */\n      tag_83\n        /* \"#utility.yul\":550:555   */\n      dup3\n        /* \"#utility.yul\":532:556   */\n      tag_58\n      jump\t// in\n    tag_83:\n        /* \"#utility.yul\":521:556   */\n      swap1\n      pop\n        /* \"#utility.yul\":466:562   */\n      swap2\n      swap1\n      pop\n      jump\t// out\n        /* \"#utility.yul\":568:690   */\n    tag_60:\n        /* \"#utility.yul\":641:665   */\n      tag_85\n        /* \"#utility.yul\":659:664   */\n      dup2\n        /* \"#utility.yul\":641:665   */\n      tag_59\n      jump\t// in\n    tag_85:\n        /* \"#utility.yul\":634:639   */\n      dup2\n        /* \"#utility.yul\":631:666   */\n      eq\n        /* \"#utility.yul\":621:684   */\n      tag_86\n      jumpi\n        /* \"#utility.yul\":680:681   */\n      0x00\n        /* \"#utility.yul\":677:678   */\n      dup1\n        /* \"#utility.yul\":670:682   */\n      revert\n        /* \"#utility.yul\":621:684   */\n    tag_86:\n        /* \"#utility.yul\":568:690   */\n      pop\n      jump\t// out\n        /* \"#utility.yul\":696:835   */\n    tag_61:\n        /* \"#utility.yul\":742:747   */\n      0x00\n        /* \"#utility.yul\":780:786   */\n      dup2\n        /* \"#utility.yul\":767:787   */\n      calldataload\n        /* \"#utility.yul\":758:787   */\n      swap1\n      pop\n        /* \"#utility.yul\":796:829   */\n      tag_88\n        /* \"#utility.yul\":823:828   */\n      dup2\n        /* \"#utility.yul\":796:829   */\n      tag_60\n      jump\t// in\n    tag_88:\n        /* \"#utility.yul\":696:835   */\n      swap3\n      swap2\n      pop\n      pop\n      jump\t// out\n        /* \"#utility.yul\":841:1170   */\n    tag_11:\n        /* \"#utility.yul\":900:906   */\n      0x00\n        /* \"#utility.yul\":949:951   */\n      0x20\n        /* \"#utility.yul\":937:946   */\n      dup3\n        /* \"#utility.yul\":928:935   */\n      dup5\n        /* \"#utility.yul\":924:947   */\n      sub\n        /* \"#utility.yul\":920:952   */\n      slt\n        /* \"#utility.yul\":917:1036   */\n      iszero\n      tag_90\n      jumpi\n        /* \"#utility.yul\":955:1034   */\n      tag_91\n      tag_56\n      jump\t// in\n    tag_91:\n        /* \"#utility.yul\":917:1036   */\n    tag_90:\n        /* \"#utility.yul\":1075:1076   */\n      0x00\n        /* \"#utility.yul\":1100:1153   */\n      tag_92\n        /* \"#utility.yul\":1145:1152   */\n      dup5\n        /* \"#utility.yul\":1136:1142   */\n      dup3\n        /* \"#utility.yul\":1125:1134   */\n      dup6\n        /* \"#utility.yul\":1121:1143   */\n      add\n        /* \"#utility.yul\":1100:1153   */\n      tag_61\n      jump\t// in\n    tag_92:\n        /* \"#utility.yul\":1090:1153   */\n      swap2\n      pop\n        /* \"#utility.yul\":1046:1163   */\n      pop\n        /* \"#utility.yul\":841:1170   */\n      swap3\n      swap2\n      pop\n      pop\n      jump\t// out\n        /* \"#utility.yul\":1176:1266   */\n    tag_62:\n        /* \"#utility.yul\":1210:1217   */\n      0x00\n        /* \"#utility.yul\":1253:1258   */\n      dup2\n        /* \"#utility.yul\":1246:1259   */\n      iszero\n        /* \"#utility.yul\":1239:1260   */\n      iszero\n        /* \"#utility.yul\":1228:1260   */\n      swap1\n      pop\n        /* \"#utility.yul\":1176:1266   */\n      swap2\n      swap1\n      pop\n      jump\t// out\n        /* \"#utility.yul\":1272:1381   */\n    tag_63:\n        /* \"#utility.yul\":1353:1374   */\n      tag_95\n        /* \"#utility.yul\":1368:1373   */\n      dup2\n        /* \"#utility.yul\":1353:1374   */\n      tag_62\n      jump\t// in\n    tag_95:\n        /* \"#utility.yul\":1348:1351   */\n      dup3\n        /* \"#utility.yul\":1341:1375   */\n      mstore\n        /* \"#utility.yul\":1272:1381   */\n      pop\n      pop\n      jump\t// out\n        /* \"#utility.yul\":1387:1597   */\n    tag_14:\n        /* \"#utility.yul\":1474:1478   */\n      0x00\n        /* \"#utility.yul\":1512:1514   */\n      0x20\n        /* \"#utility.yul\":1501:1510   */\n      dup3\n        /* \"#utility.yul\":1497:1515   */\n      add\n        /* \"#utility.yul\":1489:1515   */\n      swap1\n      pop\n        /* \"#utility.yul\":1525:1590   */\n      tag_97\n        /* \"#utility.yul\":1587:1588   */\n      0x00\n        /* \"#utility.yul\":1576:1585   */\n      dup4\n        /* \"#utility.yul\":1572:1589   */\n      add\n        /* \"#utility.yul\":1563:1569   */\n      dup5\n        /* \"#utility.yul\":1525:1590   */\n      tag_63\n      jump\t// in\n    tag_97:\n        /* \"#utility.yul\":1387:1597   */\n      swap3\n      swap2\n      pop\n      pop\n      jump\t// out\n        /* \"#utility.yul\":1603:1680   */\n    tag_64:\n        /* \"#utility.yul\":1640:1647   */\n      0x00\n        /* \"#utility.yul\":1669:1674   */\n      dup2\n        /* \"#utility.yul\":1658:1674   */\n      swap1\n      pop\n        /* \"#utility.yul\":1603:1680   */\n      swap2\n      swap1\n      pop\n      jump\t// out\n        /* \"#utility.yul\":1686:1808   */\n    tag_65:\n        /* \"#utility.yul\":1759:1783   */\n      tag_100\n        /* \"#utility.yul\":1777:1782   */\n      dup2\n        /* \"#utility.yul\":1759:1783   */\n      tag_64\n      jump\t// in\n    tag_100:\n        /* \"#utility.yul\":1752:1757   */\n      dup2\n        /* \"#utility.yul\":1749:1784   */\n      eq\n        /* \"#utility.yul\":1739:1802   */\n      tag_101\n      jumpi\n        /* \"#utility.yul\":1798:1799   */\n      0x00\n        /* \"#utility.yul\":1795:1796   */\n      dup1\n        /* \"#utility.yul\":1788:1800   */\n      revert\n        /* \"#utility.yul\":1739:1802   */\n    tag_101:\n        /* \"#utility.yul\":1686:1808   */\n      pop\n      jump\t// out\n        /* \"#utility.yul\":1814:1953   */\n    tag_66:\n        /* \"#utility.yul\":1860:1865   */\n      0x00\n        /* \"#utility.yul\":1898:1904   */\n      dup2\n        /* \"#utility.yul\":1885:1905   */\n      calldataload\n        /* \"#utility.yul\":1876:1905   */\n      swap1\n      pop\n        /* \"#utility.yul\":1914:1947   */\n      tag_103\n        /* \"#utility.yul\":1941:1946   */\n      dup2\n        /* \"#utility.yul\":1914:1947   */\n      tag_65\n      jump\t// in\n    tag_103:\n        /* \"#utility.yul\":1814:1953   */\n      swap3\n      swap2\n      pop\n      pop\n      jump\t// out\n        /* \"#utility.yul\":1959:2288   */\n    tag_17:\n        /* \"#utility.yul\":2018:2024   */\n      0x00\n        /* \"#utility.yul\":2067:2069   */\n      0x20\n        /* \"#utility.yul\":2055:2064   */\n      dup3\n        /* \"#utility.yul\":2046:2053   */\n      dup5\n        /* \"#utility.yul\":2042:2065   */\n      sub\n        /* \"#utility.yul\":2038:2070   */\n      slt\n        /* \"#utility.yul\":2035:2154   */\n      iszero\n      tag_105\n      jumpi\n        /* \"#utility.yul\":2073:2152   */\n      tag_106\n      tag_56\n      jump\t// in\n    tag_106:\n        /* \"#utility.yul\":2035:2154   */\n    tag_105:\n        /* \"#utility.yul\":2193:2194   */\n      0x00\n        /* \"#utility.yul\":2218:2271   */\n      tag_107\n        /* \"#utility.yul\":2263:2270   */\n      dup5\n        /* \"#utility.yul\":2254:2260   */\n      dup3\n        /* \"#utility.yul\":2243:2252   */\n      dup6\n        /* \"#utility.yul\":2239:2261   */\n      add\n        /* \"#utility.yul\":2218:2271   */\n      tag_66\n      jump\t// in\n    tag_107:\n        /* \"#utility.yul\":2208:2271   */\n      swap2\n      pop\n        /* \"#utility.yul\":2164:2281   */\n      pop\n        /* \"#utility.yul\":1959:2288   */\n      swap3\n      swap2\n      pop\n      pop\n      jump\t// out\n        /* \"#utility.yul\":2294:2371   */\n    tag_67:\n        /* \"#utility.yul\":2331:2338   */\n      0x00\n        /* \"#utility.yul\":2360:2365   */\n      dup2\n        /* \"#utility.yul\":2349:2365   */\n      swap1\n      pop\n        /* \"#utility.yul\":2294:2371   */\n      swap2\n      swap1\n      pop\n      jump\t// out\n        /* \"#utility.yul\":2377:2495   */\n    tag_68:\n        /* \"#utility.yul\":2464:2488   */\n      tag_110\n        /* \"#utility.yul\":2482:2487   */\n      dup2\n        /* \"#utility.yul\":2464:2488   */\n      tag_67\n      jump\t// in\n    tag_110:\n        /* \"#utility.yul\":2459:2462   */\n      dup3\n        /* \"#utility.yul\":2452:2489   */\n      mstore\n        /* \"#utility.yul\":2377:2495   */\n      pop\n      pop\n      jump\t// out\n        /* \"#utility.yul\":2501:2723   */\n    tag_23:\n        /* \"#utility.yul\":2594:2598   */\n      0x00\n        /* \"#utility.yul\":2632:2634   */\n      0x20\n        /* \"#utility.yul\":2621:2630   */\n      dup3\n        /* \"#utility.yul\":2617:2635   */\n      add\n        /* \"#utility.yul\":2609:2635   */\n      swap1\n      pop\n        /* \"#utility.yul\":2645:2716   */\n      tag_112\n        /* \"#utility.yul\":2713:2714   */\n      0x00\n        /* \"#utility.yul\":2702:2711   */\n      dup4\n        /* \"#utility.yul\":2698:2715   */\n      add\n        /* \"#utility.yul\":2689:2695   */\n      dup5\n        /* \"#utility.yul\":2645:2716   */\n      tag_68\n      jump\t// in\n    tag_112:\n        /* \"#utility.yul\":2501:2723   */\n      swap3\n      swap2\n      pop\n      pop\n      jump\t// out\n        /* \"#utility.yul\":2729:3203   */\n    tag_29:\n        /* \"#utility.yul\":2797:2803   */\n      0x00\n        /* \"#utility.yul\":2805:2811   */\n      dup1\n        /* \"#utility.yul\":2854:2856   */\n      0x40\n        /* \"#utility.yul\":2842:2851   */\n      dup4\n        /* \"#utility.yul\":2833:2840   */\n      dup6\n        /* \"#utility.yul\":2829:2852   */\n      sub\n        /* \"#utility.yul\":2825:2857   */\n      slt\n        /* \"#utility.yul\":2822:2941   */\n      iszero\n      tag_114\n      jumpi\n        /* \"#utility.yul\":2860:2939   */\n      tag_115\n      tag_56\n      jump\t// in\n    tag_115:\n        /* \"#utility.yul\":2822:2941   */\n    tag_114:\n        /* \"#utility.yul\":2980:2981   */\n      0x00\n        /* \"#utility.yul\":3005:3058   */\n      tag_116\n        /* \"#utility.yul\":3050:3057   */\n      dup6\n        /* \"#utility.yul\":3041:3047   */\n      dup3\n        /* \"#utility.yul\":3030:3039   */\n      dup7\n        /* \"#utility.yul\":3026:3048   */\n      add\n        /* \"#utility.yul\":3005:3058   */\n      tag_66\n      jump\t// in\n    tag_116:\n        /* \"#utility.yul\":2995:3058   */\n      swap3\n      pop\n        /* \"#utility.yul\":2951:3068   */\n      pop\n        /* \"#utility.yul\":3107:3109   */\n      0x20\n        /* \"#utility.yul\":3133:3186   */\n      tag_117\n        /* \"#utility.yul\":3178:3185   */\n      dup6\n        /* \"#utility.yul\":3169:3175   */\n      dup3\n        /* \"#utility.yul\":3158:3167   */\n      dup7\n        /* \"#utility.yul\":3154:3176   */\n      add\n        /* \"#utility.yul\":3133:3186   */\n      tag_66\n      jump\t// in\n    tag_117:\n        /* \"#utility.yul\":3123:3186   */\n      swap2\n      pop\n        /* \"#utility.yul\":3078:3196   */\n      pop\n        /* \"#utility.yul\":2729:3203   */\n      swap3\n      pop\n      swap3\n      swap1\n      pop\n      jump\t// out\n        /* \"#utility.yul\":3209:3327   */\n    tag_69:\n        /* \"#utility.yul\":3296:3320   */\n      tag_119\n        /* \"#utility.yul\":3314:3319   */\n      dup2\n        /* \"#utility.yul\":3296:3320   */\n      tag_59\n      jump\t// in\n    tag_119:\n        /* \"#utility.yul\":3291:3294   */\n      dup3\n        /* \"#utility.yul\":3284:3321   */\n      mstore\n        /* \"#utility.yul\":3209:3327   */\n      pop\n      pop\n      jump\t// out\n        /* \"#utility.yul\":3333:3555   */\n    tag_34:\n        /* \"#utility.yul\":3426:3430   */\n      0x00\n        /* \"#utility.yul\":3464:3466   */\n      0x20\n        /* \"#utility.yul\":3453:3462   */\n      dup3\n        /* \"#utility.yul\":3449:3467   */\n      add\n        /* \"#utility.yul\":3441:3467   */\n      swap1\n      pop\n        /* \"#utility.yul\":3477:3548   */\n      tag_121\n        /* \"#utility.yul\":3545:3546   */\n      0x00\n        /* \"#utility.yul\":3534:3543   */\n      dup4\n        /* \"#utility.yul\":3530:3547   */\n      add\n        /* \"#utility.yul\":3521:3527   */\n      dup5\n        /* \"#utility.yul\":3477:3548   */\n      tag_69\n      jump\t// in\n    tag_121:\n        /* \"#utility.yul\":3333:3555   */\n      swap3\n      swap2\n      pop\n      pop\n      jump\t// out\n        /* \"#utility.yul\":3561:3730   */\n    tag_70:\n        /* \"#utility.yul\":3645:3656   */\n      0x00\n        /* \"#utility.yul\":3679:3685   */\n      dup3\n        /* \"#utility.yul\":3674:3677   */\n      dup3\n        /* \"#utility.yul\":3667:3686   */\n      mstore\n        /* \"#utility.yul\":3719:3723   */\n      0x20\n        /* \"#utility.yul\":3714:3717   */\n      dup3\n        /* \"#utility.yul\":3710:3724   */\n      add\n        /* \"#utility.yul\":3695:3724   */\n      swap1\n      pop\n        /* \"#utility.yul\":3561:3730   */\n      swap3\n      swap2\n      pop\n      pop\n      jump\t// out\n        /* \"#utility.yul\":3736:3962   */\n    tag_71:\n        /* \"#utility.yul\":3876:3910   */\n      0x4f6e6c79207468652061646d696e2063616e20706572666f726d207468697320\n        /* \"#utility.yul\":3872:3873   */\n      0x00\n        /* \"#utility.yul\":3864:3870   */\n      dup3\n        /* \"#utility.yul\":3860:3874   */\n      add\n        /* \"#utility.yul\":3853:3911   */\n      mstore\n        /* \"#utility.yul\":3945:3954   */\n      0x616374696f6e2e00000000000000000000000000000000000000000000000000\n        /* \"#utility.yul\":3940:3942   */\n      0x20\n        /* \"#utility.yul\":3932:3938   */\n      dup3\n        /* \"#utility.yul\":3928:3943   */\n      add\n        /* \"#utility.yul\":3921:3955   */\n      mstore\n        /* \"#utility.yul\":3736:3962   */\n      pop\n      jump\t// out\n        /* \"#utility.yul\":3968:4334   */\n    tag_72:\n        /* \"#utility.yul\":4110:4113   */\n      0x00\n        /* \"#utility.yul\":4131:4198   */\n      tag_125\n        /* \"#utility.yul\":4195:4197   */\n      0x27\n        /* \"#utility.yul\":4190:4193   */\n      dup4\n        /* \"#utility.yul\":4131:4198   */\n      tag_70\n      jump\t// in\n    tag_125:\n        /* \"#utility.yul\":4124:4198   */\n      swap2\n      pop\n        /* \"#utility.yul\":4207:4300   */\n      tag_126\n        /* \"#utility.yul\":4296:4299   */\n      dup3\n        /* \"#utility.yul\":4207:4300   */\n      tag_71\n      jump\t// in\n    tag_126:\n        /* \"#utility.yul\":4325:4327   */\n      0x40\n        /* \"#utility.yul\":4320:4323   */\n      dup3\n        /* \"#utility.yul\":4316:4328   */\n      add\n        /* \"#utility.yul\":4309:4328   */\n      swap1\n      pop\n        /* \"#utility.yul\":3968:4334   */\n      swap2\n      swap1\n      pop\n      jump\t// out\n        /* \"#utility.yul\":4340:4759   */\n    tag_38:\n        /* \"#utility.yul\":4506:4510   */\n      0x00\n        /* \"#utility.yul\":4544:4546   */\n      0x20\n        /* \"#utility.yul\":4533:4542   */\n      dup3\n        /* \"#utility.yul\":4529:4547   */\n      add\n        /* \"#utility.yul\":4521:4547   */\n      swap1\n      pop\n        /* \"#utility.yul\":4593:4602   */\n      dup2\n        /* \"#utility.yul\":4587:4591   */\n      dup2\n        /* \"#utility.yul\":4583:4603   */\n      sub\n        /* \"#utility.yul\":4579:4580   */\n      0x00\n        /* \"#utility.yul\":4568:4577   */\n      dup4\n        /* \"#utility.yul\":4564:4581   */\n      add\n        /* \"#utility.yul\":4557:4604   */\n      mstore\n        /* \"#utility.yul\":4621:4752   */\n      tag_128\n        /* \"#utility.yul\":4747:4751   */\n      dup2\n        /* \"#utility.yul\":4621:4752   */\n      tag_72\n      jump\t// in\n    tag_128:\n        /* \"#utility.yul\":4613:4752   */\n      swap1\n      pop\n        /* \"#utility.yul\":4340:4759   */\n      swap2\n      swap1\n      pop\n      jump\t// out\n        /* \"#utility.yul\":4765:4945   */\n    tag_73:\n        /* \"#utility.yul\":4905:4937   */\n      0x546869732063616e64696461746520616c7265616479206578697374732e0000\n        /* \"#utility.yul\":4901:4902   */\n      0x00\n        /* \"#utility.yul\":4893:4899   */\n      dup3\n        /* \"#utility.yul\":4889:4903   */\n      add\n        /* \"#utility.yul\":4882:4938   */\n      mstore\n        /* \"#utility.yul\":4765:4945   */\n      pop\n      jump\t// out\n        /* \"#utility.yul\":4951:5317   */\n    tag_74:\n        /* \"#utility.yul\":5093:5096   */\n      0x00\n        /* \"#utility.yul\":5114:5181   */\n      tag_131\n        /* \"#utility.yul\":5178:5180   */\n      0x1e\n        /* \"#utility.yul\":5173:5176   */\n      dup4\n        /* \"#utility.yul\":5114:5181   */\n      tag_70\n      jump\t// in\n    tag_131:\n        /* \"#utility.yul\":5107:5181   */\n      swap2\n      pop\n        /* \"#utility.yul\":5190:5283   */\n      tag_132\n        /* \"#utility.yul\":5279:5282   */\n      dup3\n        /* \"#utility.yul\":5190:5283   */\n      tag_73\n      jump\t// in\n    tag_132:\n        /* \"#utility.yul\":5308:5310   */\n      0x20\n        /* \"#utility.yul\":5303:5306   */\n      dup3\n        /* \"#utility.yul\":5299:5311   */\n      add\n        /* \"#utility.yul\":5292:5311   */\n      swap1\n      pop\n        /* \"#utility.yul\":4951:5317   */\n      swap2\n      swap1\n      pop\n      jump\t// out\n        /* \"#utility.yul\":5323:5742   */\n    tag_42:\n        /* \"#utility.yul\":5489:5493   */\n      0x00\n        /* \"#utility.yul\":5527:5529   */\n      0x20\n        /* \"#utility.yul\":5516:5525   */\n      dup3\n        /* \"#utility.yul\":5512:5530   */\n      add\n        /* \"#utility.yul\":5504:5530   */\n      swap1\n      pop\n        /* \"#utility.yul\":5576:5585   */\n      dup2\n        /* \"#utility.yul\":5570:5574   */\n      dup2\n        /* \"#utility.yul\":5566:5586   */\n      sub\n        /* \"#utility.yul\":5562:5563   */\n      0x00\n        /* \"#utility.yul\":5551:5560   */\n      dup4\n        /* \"#utility.yul\":5547:5564   */\n      add\n        /* \"#utility.yul\":5540:5587   */\n      mstore\n        /* \"#utility.yul\":5604:5735   */\n      tag_134\n        /* \"#utility.yul\":5730:5734   */\n      dup2\n        /* \"#utility.yul\":5604:5735   */\n      tag_74\n      jump\t// in\n    tag_134:\n        /* \"#utility.yul\":5596:5735   */\n      swap1\n      pop\n        /* \"#utility.yul\":5323:5742   */\n      swap2\n      swap1\n      pop\n      jump\t// out\n        /* \"#utility.yul\":5748:5866   */\n    tag_75:\n        /* \"#utility.yul\":5835:5859   */\n      tag_136\n        /* \"#utility.yul\":5853:5858   */\n      dup2\n        /* \"#utility.yul\":5835:5859   */\n      tag_64\n      jump\t// in\n    tag_136:\n        /* \"#utility.yul\":5830:5833   */\n      dup3\n        /* \"#utility.yul\":5823:5860   */\n      mstore\n        /* \"#utility.yul\":5748:5866   */\n      pop\n      pop\n      jump\t// out\n        /* \"#utility.yul\":5872:6094   */\n    tag_44:\n        /* \"#utility.yul\":5965:5969   */\n      0x00\n        /* \"#utility.yul\":6003:6005   */\n      0x20\n        /* \"#utility.yul\":5992:6001   */\n      dup3\n        /* \"#utility.yul\":5988:6006   */\n      add\n        /* \"#utility.yul\":5980:6006   */\n      swap1\n      pop\n        /* \"#utility.yul\":6016:6087   */\n      tag_138\n        /* \"#utility.yul\":6084:6085   */\n      0x00\n        /* \"#utility.yul\":6073:6082   */\n      dup4\n        /* \"#utility.yul\":6069:6086   */\n      add\n        /* \"#utility.yul\":6060:6066   */\n      dup5\n        /* \"#utility.yul\":6016:6087   */\n      tag_75\n      jump\t// in\n    tag_138:\n        /* \"#utility.yul\":5872:6094   */\n      swap3\n      swap2\n      pop\n      pop\n      jump\t// out\n        /* \"#utility.yul\":6100:6280   */\n    tag_76:\n        /* \"#utility.yul\":6148:6225   */\n      0x4e487b7100000000000000000000000000000000000000000000000000000000\n        /* \"#utility.yul\":6145:6146   */\n      0x00\n        /* \"#utility.yul\":6138:6226   */\n      mstore\n        /* \"#utility.yul\":6245:6249   */\n      0x11\n        /* \"#utility.yul\":6242:6243   */\n      0x04\n        /* \"#utility.yul\":6235:6250   */\n      mstore\n        /* \"#utility.yul\":6269:6273   */\n      0x24\n        /* \"#utility.yul\":6266:6267   */\n      0x00\n        /* \"#utility.yul\":6259:6274   */\n      revert\n        /* \"#utility.yul\":6286:6591   */\n    tag_52:\n        /* \"#utility.yul\":6326:6329   */\n      0x00\n        /* \"#utility.yul\":6345:6365   */\n      tag_141\n        /* \"#utility.yul\":6363:6364   */\n      dup3\n        /* \"#utility.yul\":6345:6365   */\n      tag_67\n      jump\t// in\n    tag_141:\n        /* \"#utility.yul\":6340:6365   */\n      swap2\n      pop\n        /* \"#utility.yul\":6379:6399   */\n      tag_142\n        /* \"#utility.yul\":6397:6398   */\n      dup4\n        /* \"#utility.yul\":6379:6399   */\n      tag_67\n      jump\t// in\n    tag_142:\n        /* \"#utility.yul\":6374:6399   */\n      swap3\n      pop\n        /* \"#utility.yul\":6533:6534   */\n      dup3\n        /* \"#utility.yul\":6465:6531   */\n      0xffffffffffffffffffffffffffffffffffffffffffffffffffffffffffffffff\n        /* \"#utility.yul\":6461:6535   */\n      sub\n        /* \"#utility.yul\":6458:6459   */\n      dup3\n        /* \"#utility.yul\":6455:6536   */\n      gt\n        /* \"#utility.yul\":6452:6559   */\n      iszero\n      tag_143\n      jumpi\n        /* \"#utility.yul\":6539:6557   */\n      tag_144\n      tag_76\n      jump\t// in\n    tag_144:\n        /* \"#utility.yul\":6452:6559   */\n    tag_143:\n        /* \"#utility.yul\":6583:6584   */\n      dup3\n        /* \"#utility.yul\":6580:6581   */\n      dup3\n        /* \"#utility.yul\":6576:6585   */\n      add\n        /* \"#utility.yul\":6569:6585   */\n      swap1\n      pop\n        /* \"#utility.yul\":6286:6591   */\n      swap3\n      swap2\n      pop\n      pop\n      jump\t// out\n        /* \"#utility.yul\":6597:6929   */\n    tag_54:\n        /* \"#utility.yul\":6718:6722   */\n      0x00\n        /* \"#utility.yul\":6756:6758   */\n      0x40\n        /* \"#utility.yul\":6745:6754   */\n      dup3\n        /* \"#utility.yul\":6741:6759   */\n      add\n        /* \"#utility.yul\":6733:6759   */\n      swap1\n      pop\n        /* \"#utility.yul\":6769:6840   */\n      tag_146\n        /* \"#utility.yul\":6837:6838   */\n      0x00\n        /* \"#utility.yul\":6826:6835   */\n      dup4\n        /* \"#utility.yul\":6822:6839   */\n      add\n        /* \"#utility.yul\":6813:6819   */\n      dup6\n        /* \"#utility.yul\":6769:6840   */\n      tag_69\n      jump\t// in\n    tag_146:\n        /* \"#utility.yul\":6850:6922   */\n      tag_147\n        /* \"#utility.yul\":6918:6920   */\n      0x20\n        /* \"#utility.yul\":6907:6916   */\n      dup4\n        /* \"#utility.yul\":6903:6921   */\n      add\n        /* \"#utility.yul\":6894:6900   */\n      dup5\n        /* \"#utility.yul\":6850:6922   */\n      tag_75\n      jump\t// in\n    tag_147:\n        /* \"#utility.yul\":6597:6929   */\n      swap4\n      swap3\n      pop\n      pop\n      pop\n      jump\t// out\n\n    auxdata: 0xa2646970667358221220b638f34eb546d58fdfaea3a45c587481b0034df47970213cfc9f4fdbc2b24a6c64736f6c634300080b0033\n}\n",
				"bytecode": {
					"linkReferences": {},
					"object": "608060405234801561001057600080fd5b5033600260006101000a81548173ffffffffffffffffffffffffffffffffffffffff021916908373ffffffffffffffffffffffffffffffffffffffff16021790555061087b806100616000396000f3fe608060405234801561001057600080fd5b50600436106100625760003560e01c806309eef43e14610067578063230d6ed8146100975780632b38cd96146100b35780638f283970146100e3578063eeaaf19d146100ff578063f851a4401461011b575b600080fd5b610081600480360381019061007c91906104fa565b610139565b60405161008e9190610542565b60405180910390f35b6100b160048036038101906100ac9190610593565b610159565b005b6100cd60048036038101906100c89190610593565b610290565b6040516100da91906105d9565b60405180910390f35b6100fd60048036038101906100f891906104fa565b6102a8565b005b610119600480360381019061011491906105f4565b6103b3565b005b610123610471565b6040516101309190610643565b60405180910390f35b60016020528060005260406000206000915054906101000a900460ff1681565b600260009054906101000a900473ffffffffffffffffffffffffffffffffffffffff1673ffffffffffffffffffffffffffffffffffffffff163373ffffffffffffffffffffffffffffffffffffffff16146101e9576040517f08c379a00000000000000000000000000000000000000000000000000000000081526004016101e0906106e1565b60405180910390fd5b6000806000838152602001908152602001600020541461023e576040517f08c379a00000000000000000000000000000000000000000000000000000000081526004016102359061074d565b60405180910390fd5b6000806000838152602001908152602001600020819055507f1ca6455dcb14c395e267f0f1f437ef528cbd7259d0ac82309627fcac2e9d801c81604051610285919061077c565b60405180910390a150565b60006020528060005260406000206000915090505481565b600260009054906101000a900473ffffffffffffffffffffffffffffffffffffffff1673ffffffffffffffffffffffffffffffffffffffff163373ffffffffffffffffffffffffffffffffffffffff1614610338576040517f08c379a000000000000000000000000000000000000000000000000000000000815260040161032f906106e1565b60405180910390fd5b80600260006101000a81548173ffffffffffffffffffffffffffffffffffffffff021916908373ffffffffffffffffffffffffffffffffffffffff1602179055507f7ce7ec0b50378fb6c0186ffb5f48325f6593fcb4ca4386f21861af3129188f5c816040516103a89190610643565b60405180910390a150565b600160008083815260200190815260200160002060008282546103d691906107c6565b9250508190555060018060003373ffffffffffffffffffffffffffffffffffffffff1673ffffffffffffffffffffffffffffffffffffffff16815260200190815260200160002060006101000a81548160ff0219169083151502179055507fc78796858497f000f0a77d7f0c624bbaf635bf26239188e8fba52c571db2398d338260405161046592919061081c565b60405180910390a15050565b600260009054906101000a900473ffffffffffffffffffffffffffffffffffffffff1681565b600080fd5b600073ffffffffffffffffffffffffffffffffffffffff82169050919050565b60006104c78261049c565b9050919050565b6104d7816104bc565b81146104e257600080fd5b50565b6000813590506104f4816104ce565b92915050565b6000602082840312156105105761050f610497565b5b600061051e848285016104e5565b91505092915050565b60008115159050919050565b61053c81610527565b82525050565b60006020820190506105576000830184610533565b92915050565b6000819050919050565b6105708161055d565b811461057b57600080fd5b50565b60008135905061058d81610567565b92915050565b6000602082840312156105a9576105a8610497565b5b60006105b78482850161057e565b91505092915050565b6000819050919050565b6105d3816105c0565b82525050565b60006020820190506105ee60008301846105ca565b92915050565b6000806040838503121561060b5761060a610497565b5b60006106198582860161057e565b925050602061062a8582860161057e565b9150509250929050565b61063d816104bc565b82525050565b60006020820190506106586000830184610634565b92915050565b600082825260208201905092915050565b7f4f6e6c79207468652061646d696e2063616e20706572666f726d20746869732060008201527f616374696f6e2e00000000000000000000000000000000000000000000000000602082015250565b60006106cb60278361065e565b91506106d68261066f565b604082019050919050565b600060208201905081810360008301526106fa816106be565b9050919050565b7f546869732063616e64696461746520616c7265616479206578697374732e0000600082015250565b6000610737601e8361065e565b915061074282610701565b602082019050919050565b600060208201905081810360008301526107668161072a565b9050919050565b6107768161055d565b82525050565b6000602082019050610791600083018461076d565b92915050565b7f4e487b7100000000000000000000000000000000000000000000000000000000600052601160045260246000fd5b60006107d1826105c0565b91506107dc836105c0565b9250827fffffffffffffffffffffffffffffffffffffffffffffffffffffffffffffffff0382111561081157610810610797565b5b828201905092915050565b60006040820190506108316000830185610634565b61083e602083018461076d565b939250505056fea2646970667358221220b638f34eb546d58fdfaea3a45c587481b0034df47970213cfc9f4fdbc2b24a6c64736f6c634300080b0033",
					"opcodes": "PUSH1 0x80 PUSH1 0x40 MSTORE CALLVALUE DUP1 ISZERO PUSH2 0x10 JUMPI PUSH1 0x0 DUP1 REVERT JUMPDEST POP CALLER PUSH1 0x2 PUSH1 0x0 PUSH2 0x100 EXP DUP2 SLOAD DUP2 PUSH20 0xFFFFFFFFFFFFFFFFFFFFFFFFFFFFFFFFFFFFFFFF MUL NOT AND SWAP1 DUP4 PUSH20 0xFFFFFFFFFFFFFFFFFFFFFFFFFFFFFFFFFFFFFFFF AND MUL OR SWAP1 SSTORE POP PUSH2 0x87B DUP1 PUSH2 0x61 PUSH1 0x0 CODECOPY PUSH1 0x0 RETURN INVALID PUSH1 0x80 PUSH1 0x40 MSTORE CALLVALUE DUP1 ISZERO PUSH2 0x10 JUMPI PUSH1 0x0 DUP1 REVERT JUMPDEST POP PUSH1 0x4 CALLDATASIZE LT PUSH2 0x62 JUMPI PUSH1 0x0 CALLDATALOAD PUSH1 0xE0 SHR DUP1 PUSH4 0x9EEF43E EQ PUSH2 0x67 JUMPI DUP1 PUSH4 0x230D6ED8 EQ PUSH2 0x97 JUMPI DUP1 PUSH4 0x2B38CD96 EQ PUSH2 0xB3 JUMPI DUP1 PUSH4 0x8F283970 EQ PUSH2 0xE3 JUMPI DUP1 PUSH4 0xEEAAF19D EQ PUSH2 0xFF JUMPI DUP1 PUSH4 0xF851A440 EQ PUSH2 0x11B JUMPI JUMPDEST PUSH1 0x0 DUP1 REVERT JUMPDEST PUSH2 0x81 PUSH1 0x4 DUP1 CALLDATASIZE SUB DUP2 ADD SWAP1 PUSH2 0x7C SWAP2 SWAP1 PUSH2 0x4FA JUMP JUMPDEST PUSH2 0x139 JUMP JUMPDEST PUSH1 0x40 MLOAD PUSH2 0x8E SWAP2 SWAP1 PUSH2 0x542 JUMP JUMPDEST PUSH1 0x40 MLOAD DUP1 SWAP2 SUB SWAP1 RETURN JUMPDEST PUSH2 0xB1 PUSH1 0x4 DUP1 CALLDATASIZE SUB DUP2 ADD SWAP1 PUSH2 0xAC SWAP2 SWAP1 PUSH2 0x593 JUMP JUMPDEST PUSH2 0x159 JUMP JUMPDEST STOP JUMPDEST PUSH2 0xCD PUSH1 0x4 DUP1 CALLDATASIZE SUB DUP2 ADD SWAP1 PUSH2 0xC8 SWAP2 SWAP1 PUSH2 0x593 JUMP JUMPDEST PUSH2 0x290 JUMP JUMPDEST PUSH1 0x40 MLOAD PUSH2 0xDA SWAP2 SWAP1 PUSH2 0x5D9 JUMP JUMPDEST PUSH1 0x40 MLOAD DUP1 SWAP2 SUB SWAP1 RETURN JUMPDEST PUSH2 0xFD PUSH1 0x4 DUP1 CALLDATASIZE SUB DUP2 ADD SWAP1 PUSH2 0xF8 SWAP2 SWAP1 PUSH2 0x4FA JUMP JUMPDEST PUSH2 0x2A8 JUMP JUMPDEST STOP JUMPDEST PUSH2 0x119 PUSH1 0x4 DUP1 CALLDATASIZE SUB DUP2 ADD SWAP1 PUSH2 0x114 SWAP2 SWAP1 PUSH2 0x5F4 JUMP JUMPDEST PUSH2 0x3B3 JUMP JUMPDEST STOP JUMPDEST PUSH2 0x123 PUSH2 0x471 JUMP JUMPDEST PUSH1 0x40 MLOAD PUSH2 0x130 SWAP2 SWAP1 PUSH2 0x643 JUMP JUMPDEST PUSH1 0x40 MLOAD DUP1 SWAP2 SUB SWAP1 RETURN JUMPDEST PUSH1 0x1 PUSH1 0x20 MSTORE DUP1 PUSH1 0x0 MSTORE PUSH1 0x40 PUSH1 0x0 KECCAK256 PUSH1 0x0 SWAP2 POP SLOAD SWAP1 PUSH2 0x100 EXP SWAP1 DIV PUSH1 0xFF AND DUP2 JUMP JUMPDEST PUSH1 0x2 PUSH1 0x0 SWAP1 SLOAD SWAP1 PUSH2 0x100 EXP SWAP1 DIV PUSH20 0xFFFFFFFFFFFFFFFFFFFFFFFFFFFFFFFFFFFFFFFF AND PUSH20 0xFFFFFFFFFFFFFFFFFFFFFFFFFFFFFFFFFFFFFFFF AND CALLER PUSH20 0xFFFFFFFFFFFFFFFFFFFFFFFFFFFFFFFFFFFFFFFF AND EQ PUSH2 0x1E9 JUMPI PUSH1 0x40 MLOAD PUSH32 0x8C379A000000000000000000000000000000000000000000000000000000000 DUP2 MSTORE PUSH1 0x4 ADD PUSH2 0x1E0 SWAP1 PUSH2 0x6E1 JUMP JUMPDEST PUSH1 0x40 MLOAD DUP1 SWAP2 SUB SWAP1 REVERT JUMPDEST PUSH1 0x0 DUP1 PUSH1 0x0 DUP4 DUP2 MSTORE PUSH1 0x20 ADD SWAP1 DUP2 MSTORE PUSH1 0x20 ADD PUSH1 0x0 KECCAK256 SLOAD EQ PUSH2 0x23E JUMPI PUSH1 0x40 MLOAD PUSH32 0x8C379A000000000000000000000000000000000000000000000000000000000 DUP2 MSTORE PUSH1 0x4 ADD PUSH2 0x235 SWAP1 PUSH2 0x74D JUMP JUMPDEST PUSH1 0x40 MLOAD DUP1 SWAP2 SUB SWAP1 REVERT JUMPDEST PUSH1 0x0 DUP1 PUSH1 0x0 DUP4 DUP2 MSTORE PUSH1 0x20 ADD SWAP1 DUP2 MSTORE PUSH1 0x20 ADD PUSH1 0x0 KECCAK256 DUP2 SWAP1 SSTORE POP PUSH32 0x1CA6455DCB14C395E267F0F1F437EF528CBD7259D0AC82309627FCAC2E9D801C DUP2 PUSH1 0x40 MLOAD PUSH2 0x285 SWAP2 SWAP1 PUSH2 0x77C JUMP JUMPDEST PUSH1 0x40 MLOAD DUP1 SWAP2 SUB SWAP1 LOG1 POP JUMP JUMPDEST PUSH1 0x0 PUSH1 0x20 MSTORE DUP1 PUSH1 0x0 MSTORE PUSH1 0x40 PUSH1 0x0 KECCAK256 PUSH1 0x0 SWAP2 POP SWAP1 POP SLOAD DUP2 JUMP JUMPDEST PUSH1 0x2 PUSH1 0x0 SWAP1 SLOAD SWAP1 PUSH2 0x100 EXP SWAP1 DIV PUSH20 0xFFFFFFFFFFFFFFFFFFFFFFFFFFFFFFFFFFFFFFFF AND PUSH20 0xFFFFFFFFFFFFFFFFFFFFFFFFFFFFFFFFFFFFFFFF AND CALLER PUSH20 0xFFFFFFFFFFFFFFFFFFFFFFFFFFFFFFFFFFFFFFFF AND EQ PUSH2 0x338 JUMPI PUSH1 0x40 MLOAD PUSH32 0x8C379A000000000000000000000000000000000000000000000000000000000 DUP2 MSTORE PUSH1 0x4 ADD PUSH2 0x32F SWAP1 PUSH2 0x6E1 JUMP JUMPDEST PUSH1 0x40 MLOAD DUP1 SWAP2 SUB SWAP1 REVERT JUMPDEST DUP1 PUSH1 0x2 PUSH1 0x0 PUSH2 0x100 EXP DUP2 SLOAD DUP2 PUSH20 0xFFFFFFFFFFFFFFFFFFFFFFFFFFFFFFFFFFFFFFFF MUL NOT AND SWAP1 DUP4 PUSH20 0xFFFFFFFFFFFFFFFFFFFFFFFFFFFFFFFFFFFFFFFF AND MUL OR SWAP1 SSTORE POP PUSH32 0x7CE7EC0B50378FB6C0186FFB5F48325F6593FCB4CA4386F21861AF3129188F5C DUP2 PUSH1 0x40 MLOAD PUSH2 0x3A8 SWAP2 SWAP1 PUSH2 0x643 JUMP JUMPDEST PUSH1 0x40 MLOAD DUP1 SWAP2 SUB SWAP1 LOG1 POP JUMP JUMPDEST PUSH1 0x1 PUSH1 0x0 DUP1 DUP4 DUP2 MSTORE PUSH1 0x20 ADD SWAP1 DUP2 MSTORE PUSH1 0x20 ADD PUSH1 0x0 KECCAK256 PUSH1 0x0 DUP3 DUP3 SLOAD PUSH2 0x3D6 SWAP2 SWAP1 PUSH2 0x7C6 JUMP JUMPDEST SWAP3 POP POP DUP2 SWAP1 SSTORE POP PUSH1 0x1 DUP1 PUSH1 0x0 CALLER PUSH20 0xFFFFFFFFFFFFFFFFFFFFFFFFFFFFFFFFFFFFFFFF AND PUSH20 0xFFFFFFFFFFFFFFFFFFFFFFFFFFFFFFFFFFFFFFFF AND DUP2 MSTORE PUSH1 0x20 ADD SWAP1 DUP2 MSTORE PUSH1 0x20 ADD PUSH1 0x0 KECCAK256 PUSH1 0x0 PUSH2 0x100 EXP DUP2 SLOAD DUP2 PUSH1 0xFF MUL NOT AND SWAP1 DUP4 ISZERO ISZERO MUL OR SWAP1 SSTORE POP PUSH32 0xC78796858497F000F0A77D7F0C624BBAF635BF26239188E8FBA52C571DB2398D CALLER DUP3 PUSH1 0x40 MLOAD PUSH2 0x465 SWAP3 SWAP2 SWAP1 PUSH2 0x81C JUMP JUMPDEST PUSH1 0x40 MLOAD DUP1 SWAP2 SUB SWAP1 LOG1 POP POP JUMP JUMPDEST PUSH1 0x2 PUSH1 0x0 SWAP1 SLOAD SWAP1 PUSH2 0x100 EXP SWAP1 DIV PUSH20 0xFFFFFFFFFFFFFFFFFFFFFFFFFFFFFFFFFFFFFFFF AND DUP2 JUMP JUMPDEST PUSH1 0x0 DUP1 REVERT JUMPDEST PUSH1 0x0 PUSH20 0xFFFFFFFFFFFFFFFFFFFFFFFFFFFFFFFFFFFFFFFF DUP3 AND SWAP1 POP SWAP2 SWAP1 POP JUMP JUMPDEST PUSH1 0x0 PUSH2 0x4C7 DUP3 PUSH2 0x49C JUMP JUMPDEST SWAP1 POP SWAP2 SWAP1 POP JUMP JUMPDEST PUSH2 0x4D7 DUP2 PUSH2 0x4BC JUMP JUMPDEST DUP2 EQ PUSH2 0x4E2 JUMPI PUSH1 0x0 DUP1 REVERT JUMPDEST POP JUMP JUMPDEST PUSH1 0x0 DUP2 CALLDATALOAD SWAP1 POP PUSH2 0x4F4 DUP2 PUSH2 0x4CE JUMP JUMPDEST SWAP3 SWAP2 POP POP JUMP JUMPDEST PUSH1 0x0 PUSH1 0x20 DUP3 DUP5 SUB SLT ISZERO PUSH2 0x510 JUMPI PUSH2 0x50F PUSH2 0x497 JUMP JUMPDEST JUMPDEST PUSH1 0x0 PUSH2 0x51E DUP5 DUP3 DUP6 ADD PUSH2 0x4E5 JUMP JUMPDEST SWAP2 POP POP SWAP3 SWAP2 POP POP JUMP JUMPDEST PUSH1 0x0 DUP2 ISZERO ISZERO SWAP1 POP SWAP2 SWAP1 POP JUMP JUMPDEST PUSH2 0x53C DUP2 PUSH2 0x527 JUMP JUMPDEST DUP3 MSTORE POP POP JUMP JUMPDEST PUSH1 0x0 PUSH1 0x20 DUP3 ADD SWAP1 POP PUSH2 0x557 PUSH1 0x0 DUP4 ADD DUP5 PUSH2 0x533 JUMP JUMPDEST SWAP3 SWAP2 POP POP JUMP JUMPDEST PUSH1 0x0 DUP2 SWAP1 POP SWAP2 SWAP1 POP JUMP JUMPDEST PUSH2 0x570 DUP2 PUSH2 0x55D JUMP JUMPDEST DUP2 EQ PUSH2 0x57B JUMPI PUSH1 0x0 DUP1 REVERT JUMPDEST POP JUMP JUMPDEST PUSH1 0x0 DUP2 CALLDATALOAD SWAP1 POP PUSH2 0x58D DUP2 PUSH2 0x567 JUMP JUMPDEST SWAP3 SWAP2 POP POP JUMP JUMPDEST PUSH1 0x0 PUSH1 0x20 DUP3 DUP5 SUB SLT ISZERO PUSH2 0x5A9 JUMPI PUSH2 0x5A8 PUSH2 0x497 JUMP JUMPDEST JUMPDEST PUSH1 0x0 PUSH2 0x5B7 DUP5 DUP3 DUP6 ADD PUSH2 0x57E JUMP JUMPDEST SWAP2 POP POP SWAP3 SWAP2 POP POP JUMP JUMPDEST PUSH1 0x0 DUP2 SWAP1 POP SWAP2 SWAP1 POP JUMP JUMPDEST PUSH2 0x5D3 DUP2 PUSH2 0x5C0 JUMP JUMPDEST DUP3 MSTORE POP POP JUMP JUMPDEST PUSH1 0x0 PUSH1 0x20 DUP3 ADD SWAP1 POP PUSH2 0x5EE PUSH1 0x0 DUP4 ADD DUP5 PUSH2 0x5CA JUMP JUMPDEST SWAP3 SWAP2 POP POP JUMP JUMPDEST PUSH1 0x0 DUP1 PUSH1 0x40 DUP4 DUP6 SUB SLT ISZERO PUSH2 0x60B JUMPI PUSH2 0x60A PUSH2 0x497 JUMP JUMPDEST JUMPDEST PUSH1 0x0 PUSH2 0x619 DUP6 DUP3 DUP7 ADD PUSH2 0x57E JUMP JUMPDEST SWAP3 POP POP PUSH1 0x20 PUSH2 0x62A DUP6 DUP3 DUP7 ADD PUSH2 0x57E JUMP JUMPDEST SWAP2 POP POP SWAP3 POP SWAP3 SWAP1 POP JUMP JUMPDEST PUSH2 0x63D DUP2 PUSH2 0x4BC JUMP JUMPDEST DUP3 MSTORE POP POP JUMP JUMPDEST PUSH1 0x0 PUSH1 0x20 DUP3 ADD SWAP1 POP PUSH2 0x658 PUSH1 0x0 DUP4 ADD DUP5 PUSH2 0x634 JUMP JUMPDEST SWAP3 SWAP2 POP POP JUMP JUMPDEST PUSH1 0x0 DUP3 DUP3 MSTORE PUSH1 0x20 DUP3 ADD SWAP1 POP SWAP3 SWAP2 POP POP JUMP JUMPDEST PUSH32 0x4F6E6C79207468652061646D696E2063616E20706572666F726D207468697320 PUSH1 0x0 DUP3 ADD MSTORE PUSH32 0x616374696F6E2E00000000000000000000000000000000000000000000000000 PUSH1 0x20 DUP3 ADD MSTORE POP JUMP JUMPDEST PUSH1 0x0 PUSH2 0x6CB PUSH1 0x27 DUP4 PUSH2 0x65E JUMP JUMPDEST SWAP2 POP PUSH2 0x6D6 DUP3 PUSH2 0x66F JUMP JUMPDEST PUSH1 0x40 DUP3 ADD SWAP1 POP SWAP2 SWAP1 POP JUMP JUMPDEST PUSH1 0x0 PUSH1 0x20 DUP3 ADD SWAP1 POP DUP2 DUP2 SUB PUSH1 0x0 DUP4 ADD MSTORE PUSH2 0x6FA DUP2 PUSH2 0x6BE JUMP JUMPDEST SWAP1 POP SWAP2 SWAP1 POP JUMP JUMPDEST PUSH32 0x546869732063616E64696461746520616C7265616479206578697374732E0000 PUSH1 0x0 DUP3 ADD MSTORE POP JUMP JUMPDEST PUSH1 0x0 PUSH2 0x737 PUSH1 0x1E DUP4 PUSH2 0x65E JUMP JUMPDEST SWAP2 POP PUSH2 0x742 DUP3 PUSH2 0x701 JUMP JUMPDEST PUSH1 0x20 DUP3 ADD SWAP1 POP SWAP2 SWAP1 POP JUMP JUMPDEST PUSH1 0x0 PUSH1 0x20 DUP3 ADD SWAP1 POP DUP2 DUP2 SUB PUSH1 0x0 DUP4 ADD MSTORE PUSH2 0x766 DUP2 PUSH2 0x72A JUMP JUMPDEST SWAP1 POP SWAP2 SWAP1 POP JUMP JUMPDEST PUSH2 0x776 DUP2 PUSH2 0x55D JUMP JUMPDEST DUP3 MSTORE POP POP JUMP JUMPDEST PUSH1 0x0 PUSH1 0x20 DUP3 ADD SWAP1 POP PUSH2 0x791 PUSH1 0x0 DUP4 ADD DUP5 PUSH2 0x76D JUMP JUMPDEST SWAP3 SWAP2 POP POP JUMP JUMPDEST PUSH32 0x4E487B7100000000000000000000000000000000000000000000000000000000 PUSH1 0x0 MSTORE PUSH1 0x11 PUSH1 0x4 MSTORE PUSH1 0x24 PUSH1 0x0 REVERT JUMPDEST PUSH1 0x0 PUSH2 0x7D1 DUP3 PUSH2 0x5C0 JUMP JUMPDEST SWAP2 POP PUSH2 0x7DC DUP4 PUSH2 0x5C0 JUMP JUMPDEST SWAP3 POP DUP3 PUSH32 0xFFFFFFFFFFFFFFFFFFFFFFFFFFFFFFFFFFFFFFFFFFFFFFFFFFFFFFFFFFFFFFFF SUB DUP3 GT ISZERO PUSH2 0x811 JUMPI PUSH2 0x810 PUSH2 0x797 JUMP JUMPDEST JUMPDEST DUP3 DUP3 ADD SWAP1 POP SWAP3 SWAP2 POP POP JUMP JUMPDEST PUSH1 0x0 PUSH1 0x40 DUP3 ADD SWAP1 POP PUSH2 0x831 PUSH1 0x0 DUP4 ADD DUP6 PUSH2 0x634 JUMP JUMPDEST PUSH2 0x83E PUSH1 0x20 DUP4 ADD DUP5 PUSH2 0x76D JUMP JUMPDEST SWAP4 SWAP3 POP POP POP JUMP INVALID LOG2 PUSH5 0x6970667358 0x22 SLT KECCAK256 0xB6 CODESIZE RETURN 0x4E 0xB5 CHAINID 0xD5 DUP16 0xDF 0xAE LOG3 LOG4 0x5C PC PUSH21 0x81B0034DF47970213CFC9F4FDBC2B24A6C64736F6C PUSH4 0x4300080B STOP CALLER "
				},
				"gasEstimates": {
					"creation": {
						"codeDepositCost": "434200",
						"executionCost": "24734",
						"totalCost": "458934"
					},
					"external": {
						"addCandidate(bytes32)": "infinite",
						"admin()": "2602",
						"changeAdmin(address)": "infinite",
						"hasVoted(address)": "2823",
						"vote(bytes32,bytes32)": "infinite",
						"votes(bytes32)": "2787"
					}
				},
				"methodIdentifiers": {
					"addCandidate(bytes32)": "230d6ed8",
					"admin()": "f851a440",
					"changeAdmin(address)": "8f283970",
					"hasVoted(address)": "09eef43e",
					"vote(bytes32,bytes32)": "eeaaf19d",
					"votes(bytes32)": "2b38cd96"
				}
			},
			"storageLayout": {
				"storage": [
					{
						"astId": 5,
						"contract": "Biometric Security System Project 19/Biometric.sol:VotingSystem",
						"label": "votes",
						"offset": 0,
						"slot": "0",
						"type": "t_mapping(t_bytes32,t_uint256)"
					},
					{
						"astId": 9,
						"contract": "Biometric Security System Project 19/Biometric.sol:VotingSystem",
						"label": "hasVoted",
						"offset": 0,
						"slot": "1",
						"type": "t_mapping(t_address,t_bool)"
					},
					{
						"astId": 11,
						"contract": "Biometric Security System Project 19/Biometric.sol:VotingSystem",
						"label": "admin",
						"offset": 0,
						"slot": "2",
						"type": "t_address"
					}
				],
				"types": {
					"t_address": {
						"encoding": "inplace",
						"label": "address",
						"numberOfBytes": "20"
					},
					"t_bool": {
						"encoding": "inplace",
						"label": "bool",
						"numberOfBytes": "1"
					},
					"t_bytes32": {
						"encoding": "inplace",
						"label": "bytes32",
						"numberOfBytes": "32"
					},
					"t_mapping(t_address,t_bool)": {
						"encoding": "mapping",
						"key": "t_address",
						"label": "mapping(address => bool)",
						"numberOfBytes": "32",
						"value": "t_bool"
					},
					"t_mapping(t_bytes32,t_uint256)": {
						"encoding": "mapping",
						"key": "t_bytes32",
						"label": "mapping(bytes32 => uint256)",
						"numberOfBytes": "32",
						"value": "t_uint256"
					},
					"t_uint256": {
						"encoding": "inplace",
						"label": "uint256",
						"numberOfBytes": "32"
					}
				}
			},
			"userdoc": {
				"kind": "user",
				"methods": {},
				"version": 1
			}
		}
	}
}