{
	"data": {
		"bytecode": {
			"linkReferences": {},
			"object": "608060405234801561001057600080fd5b50610a78806100206000396000f3fe608060405234801561001057600080fd5b50600436106100575760003560e01c8063014d92d81461005c5780631ac8ceb01461008f578063521a6e94146100ab5780637f1d24c8146100c9578063f5c8b8b8146100e5575b600080fd5b610076600480360381019061007191906105df565b610118565b60405161008694939291906106cf565b60405180910390f35b6100a960048036038101906100a49190610857565b6102ac565b005b6100b3610368565b6040516100c091906108e2565b60405180910390f35b6100e360048036038101906100de9190610929565b61036e565b005b6100ff60048036038101906100fa91906105df565b6103a5565b60405161010f94939291906106cf565b60405180910390f35b606080600080600080600087815260200190815260200160002060405180608001604052908160008201805461014d90610998565b80601f016020809104026020016040519081016040528092919081815260200182805461017990610998565b80156101c65780601f1061019b576101008083540402835291602001916101c6565b820191906000526020600020905b8154815290600101906020018083116101a957829003601f168201915b505050505081526020016001820180546101df90610998565b80601f016020809104026020016040519081016040528092919081815260200182805461020b90610998565b80156102585780601f1061022d57610100808354040283529160200191610258565b820191906000526020600020905b81548152906001019060200180831161023b57829003601f168201915b50505050508152602001600282015481526020016003820160009054906101000a900460ff161515151581525050905080600001518160200151826040015183606001519450945094509450509193509193565b600160008154809291906102bf906109f9565b9190505550604051806080016040528084815260200183815260200182815260200160001515815250600080600154815260200190815260200160002060008201518160000190805190602001906103189291906104f2565b5060208201518160010190805190602001906103359291906104f2565b506040820151816002015560608201518160030160006101000a81548160ff021916908315150217905550905050505050565b60015481565b60008060008481526020019081526020016000209050818160030160006101000a81548160ff021916908315150217905550505050565b60006020528060005260406000206000915090508060000180546103c890610998565b80601f01602080910402602001604051908101604052809291908181526020018280546103f490610998565b80156104415780601f1061041657610100808354040283529160200191610441565b820191906000526020600020905b81548152906001019060200180831161042457829003601f168201915b50505050509080600101805461045690610998565b80601f016020809104026020016040519081016040528092919081815260200182805461048290610998565b80156104cf5780601f106104a4576101008083540402835291602001916104cf565b820191906000526020600020905b8154815290600101906020018083116104b257829003601f168201915b5050505050908060020154908060030160009054906101000a900460ff16905084565b8280546104fe90610998565b90600052602060002090601f0160209004810192826105205760008555610567565b82601f1061053957805160ff1916838001178555610567565b82800160010185558215610567579182015b8281111561056657825182559160200191906001019061054b565b5b5090506105749190610578565b5090565b5b80821115610591576000816000905550600101610579565b5090565b6000604051905090565b600080fd5b600080fd5b6000819050919050565b6105bc816105a9565b81146105c757600080fd5b50565b6000813590506105d9816105b3565b92915050565b6000602082840312156105f5576105f461059f565b5b6000610603848285016105ca565b91505092915050565b600081519050919050565b600082825260208201905092915050565b60005b8381101561064657808201518184015260208101905061062b565b83811115610655576000848401525b50505050565b6000601f19601f8301169050919050565b60006106778261060c565b6106818185610617565b9350610691818560208601610628565b61069a8161065b565b840191505092915050565b6106ae816105a9565b82525050565b60008115159050919050565b6106c9816106b4565b82525050565b600060808201905081810360008301526106e9818761066c565b905081810360208301526106fd818661066c565b905061070c60408301856106a5565b61071960608301846106c0565b95945050505050565b600080fd5b600080fd5b7f4e487b7100000000000000000000000000000000000000000000000000000000600052604160045260246000fd5b6107648261065b565b810181811067ffffffffffffffff821117156107835761078261072c565b5b80604052505050565b6000610796610595565b90506107a2828261075b565b919050565b600067ffffffffffffffff8211156107c2576107c161072c565b5b6107cb8261065b565b9050602081019050919050565b82818337600083830152505050565b60006107fa6107f5846107a7565b61078c565b90508281526020810184848401111561081657610815610727565b5b6108218482856107d8565b509392505050565b600082601f83011261083e5761083d610722565b5b813561084e8482602086016107e7565b91505092915050565b6000806000606084860312156108705761086f61059f565b5b600084013567ffffffffffffffff81111561088e5761088d6105a4565b5b61089a86828701610829565b935050602084013567ffffffffffffffff8111156108bb576108ba6105a4565b5b6108c786828701610829565b92505060406108d8868287016105ca565b9150509250925092565b60006020820190506108f760008301846106a5565b92915050565b610906816106b4565b811461091157600080fd5b50565b600081359050610923816108fd565b92915050565b600080604083850312156109405761093f61059f565b5b600061094e858286016105ca565b925050602061095f85828601610914565b9150509250929050565b7f4e487b7100000000000000000000000000000000000000000000000000000000600052602260045260246000fd5b600060028204905060018216806109b057607f821691505b602082108114156109c4576109c3610969565b5b50919050565b7f4e487b7100000000000000000000000000000000000000000000000000000000600052601160045260246000fd5b6000610a04826105a9565b91507fffffffffffffffffffffffffffffffffffffffffffffffffffffffffffffffff821415610a3757610a366109ca565b5b60018201905091905056fea2646970667358221220efe1dbe1498a9ad98258bdd2eb75d6813504f165d4d2e214b1d5d600fba590af64736f6c634300080b0033",
			"opcodes": "PUSH1 0x80 PUSH1 0x40 MSTORE CALLVALUE DUP1 ISZERO PUSH2 0x10 JUMPI PUSH1 0x0 DUP1 REVERT JUMPDEST POP PUSH2 0xA78 DUP1 PUSH2 0x20 PUSH1 0x0 CODECOPY PUSH1 0x0 RETURN INVALID PUSH1 0x80 PUSH1 0x40 MSTORE CALLVALUE DUP1 ISZERO PUSH2 0x10 JUMPI PUSH1 0x0 DUP1 REVERT JUMPDEST POP PUSH1 0x4 CALLDATASIZE LT PUSH2 0x57 JUMPI PUSH1 0x0 CALLDATALOAD PUSH1 0xE0 SHR DUP1 PUSH4 0x14D92D8 EQ PUSH2 0x5C JUMPI DUP1 PUSH4 0x1AC8CEB0 EQ PUSH2 0x8F JUMPI DUP1 PUSH4 0x521A6E94 EQ PUSH2 0xAB JUMPI DUP1 PUSH4 0x7F1D24C8 EQ PUSH2 0xC9 JUMPI DUP1 PUSH4 0xF5C8B8B8 EQ PUSH2 0xE5 JUMPI JUMPDEST PUSH1 0x0 DUP1 REVERT JUMPDEST PUSH2 0x76 PUSH1 0x4 DUP1 CALLDATASIZE SUB DUP2 ADD SWAP1 PUSH2 0x71 SWAP2 SWAP1 PUSH2 0x5DF JUMP JUMPDEST PUSH2 0x118 JUMP JUMPDEST PUSH1 0x40 MLOAD PUSH2 0x86 SWAP5 SWAP4 SWAP3 SWAP2 SWAP1 PUSH2 0x6CF JUMP JUMPDEST PUSH1 0x40 MLOAD DUP1 SWAP2 SUB SWAP1 RETURN JUMPDEST PUSH2 0xA9 PUSH1 0x4 DUP1 CALLDATASIZE SUB DUP2 ADD SWAP1 PUSH2 0xA4 SWAP2 SWAP1 PUSH2 0x857 JUMP JUMPDEST PUSH2 0x2AC JUMP JUMPDEST STOP JUMPDEST PUSH2 0xB3 PUSH2 0x368 JUMP JUMPDEST PUSH1 0x40 MLOAD PUSH2 0xC0 SWAP2 SWAP1 PUSH2 0x8E2 JUMP JUMPDEST PUSH1 0x40 MLOAD DUP1 SWAP2 SUB SWAP1 RETURN JUMPDEST PUSH2 0xE3 PUSH1 0x4 DUP1 CALLDATASIZE SUB DUP2 ADD SWAP1 PUSH2 0xDE SWAP2 SWAP1 PUSH2 0x929 JUMP JUMPDEST PUSH2 0x36E JUMP JUMPDEST STOP JUMPDEST PUSH2 0xFF PUSH1 0x4 DUP1 CALLDATASIZE SUB DUP2 ADD SWAP1 PUSH2 0xFA SWAP2 SWAP1 PUSH2 0x5DF JUMP JUMPDEST PUSH2 0x3A5 JUMP JUMPDEST PUSH1 0x40 MLOAD PUSH2 0x10F SWAP5 SWAP4 SWAP3 SWAP2 SWAP1 PUSH2 0x6CF JUMP JUMPDEST PUSH1 0x40 MLOAD DUP1 SWAP2 SUB SWAP1 RETURN JUMPDEST PUSH1 0x60 DUP1 PUSH1 0x0 DUP1 PUSH1 0x0 DUP1 PUSH1 0x0 DUP8 DUP2 MSTORE PUSH1 0x20 ADD SWAP1 DUP2 MSTORE PUSH1 0x20 ADD PUSH1 0x0 KECCAK256 PUSH1 0x40 MLOAD DUP1 PUSH1 0x80 ADD PUSH1 0x40 MSTORE SWAP1 DUP2 PUSH1 0x0 DUP3 ADD DUP1 SLOAD PUSH2 0x14D SWAP1 PUSH2 0x998 JUMP JUMPDEST DUP1 PUSH1 0x1F ADD PUSH1 0x20 DUP1 SWAP2 DIV MUL PUSH1 0x20 ADD PUSH1 0x40 MLOAD SWAP1 DUP2 ADD PUSH1 0x40 MSTORE DUP1 SWAP3 SWAP2 SWAP1 DUP2 DUP2 MSTORE PUSH1 0x20 ADD DUP3 DUP1 SLOAD PUSH2 0x179 SWAP1 PUSH2 0x998 JUMP JUMPDEST DUP1 ISZERO PUSH2 0x1C6 JUMPI DUP1 PUSH1 0x1F LT PUSH2 0x19B JUMPI PUSH2 0x100 DUP1 DUP4 SLOAD DIV MUL DUP4 MSTORE SWAP2 PUSH1 0x20 ADD SWAP2 PUSH2 0x1C6 JUMP JUMPDEST DUP3 ADD SWAP2 SWAP1 PUSH1 0x0 MSTORE PUSH1 0x20 PUSH1 0x0 KECCAK256 SWAP1 JUMPDEST DUP2 SLOAD DUP2 MSTORE SWAP1 PUSH1 0x1 ADD SWAP1 PUSH1 0x20 ADD DUP1 DUP4 GT PUSH2 0x1A9 JUMPI DUP3 SWAP1 SUB PUSH1 0x1F AND DUP3 ADD SWAP2 JUMPDEST POP POP POP POP POP DUP2 MSTORE PUSH1 0x20 ADD PUSH1 0x1 DUP3 ADD DUP1 SLOAD PUSH2 0x1DF SWAP1 PUSH2 0x998 JUMP JUMPDEST DUP1 PUSH1 0x1F ADD PUSH1 0x20 DUP1 SWAP2 DIV MUL PUSH1 0x20 ADD PUSH1 0x40 MLOAD SWAP1 DUP2 ADD PUSH1 0x40 MSTORE DUP1 SWAP3 SWAP2 SWAP1 DUP2 DUP2 MSTORE PUSH1 0x20 ADD DUP3 DUP1 SLOAD PUSH2 0x20B SWAP1 PUSH2 0x998 JUMP JUMPDEST DUP1 ISZERO PUSH2 0x258 JUMPI DUP1 PUSH1 0x1F LT PUSH2 0x22D JUMPI PUSH2 0x100 DUP1 DUP4 SLOAD DIV MUL DUP4 MSTORE SWAP2 PUSH1 0x20 ADD SWAP2 PUSH2 0x258 JUMP JUMPDEST DUP3 ADD SWAP2 SWAP1 PUSH1 0x0 MSTORE PUSH1 0x20 PUSH1 0x0 KECCAK256 SWAP1 JUMPDEST DUP2 SLOAD DUP2 MSTORE SWAP1 PUSH1 0x1 ADD SWAP1 PUSH1 0x20 ADD DUP1 DUP4 GT PUSH2 0x23B JUMPI DUP3 SWAP1 SUB PUSH1 0x1F AND DUP3 ADD SWAP2 JUMPDEST POP POP POP POP POP DUP2 MSTORE PUSH1 0x20 ADD PUSH1 0x2 DUP3 ADD SLOAD DUP2 MSTORE PUSH1 0x20 ADD PUSH1 0x3 DUP3 ADD PUSH1 0x0 SWAP1 SLOAD SWAP1 PUSH2 0x100 EXP SWAP1 DIV PUSH1 0xFF AND ISZERO ISZERO ISZERO ISZERO DUP2 MSTORE POP POP SWAP1 POP DUP1 PUSH1 0x0 ADD MLOAD DUP2 PUSH1 0x20 ADD MLOAD DUP3 PUSH1 0x40 ADD MLOAD DUP4 PUSH1 0x60 ADD MLOAD SWAP5 POP SWAP5 POP SWAP5 POP SWAP5 POP POP SWAP2 SWAP4 POP SWAP2 SWAP4 JUMP JUMPDEST PUSH1 0x1 PUSH1 0x0 DUP2 SLOAD DUP1 SWAP3 SWAP2 SWAP1 PUSH2 0x2BF SWAP1 PUSH2 0x9F9 JUMP JUMPDEST SWAP2 SWAP1 POP SSTORE POP PUSH1 0x40 MLOAD DUP1 PUSH1 0x80 ADD PUSH1 0x40 MSTORE DUP1 DUP5 DUP2 MSTORE PUSH1 0x20 ADD DUP4 DUP2 MSTORE PUSH1 0x20 ADD DUP3 DUP2 MSTORE PUSH1 0x20 ADD PUSH1 0x0 ISZERO ISZERO DUP2 MSTORE POP PUSH1 0x0 DUP1 PUSH1 0x1 SLOAD DUP2 MSTORE PUSH1 0x20 ADD SWAP1 DUP2 MSTORE PUSH1 0x20 ADD PUSH1 0x0 KECCAK256 PUSH1 0x0 DUP3 ADD MLOAD DUP2 PUSH1 0x0 ADD SWAP1 DUP1 MLOAD SWAP1 PUSH1 0x20 ADD SWAP1 PUSH2 0x318 SWAP3 SWAP2 SWAP1 PUSH2 0x4F2 JUMP JUMPDEST POP PUSH1 0x20 DUP3 ADD MLOAD DUP2 PUSH1 0x1 ADD SWAP1 DUP1 MLOAD SWAP1 PUSH1 0x20 ADD SWAP1 PUSH2 0x335 SWAP3 SWAP2 SWAP1 PUSH2 0x4F2 JUMP JUMPDEST POP PUSH1 0x40 DUP3 ADD MLOAD DUP2 PUSH1 0x2 ADD SSTORE PUSH1 0x60 DUP3 ADD MLOAD DUP2 PUSH1 0x3 ADD PUSH1 0x0 PUSH2 0x100 EXP DUP2 SLOAD DUP2 PUSH1 0xFF MUL NOT AND SWAP1 DUP4 ISZERO ISZERO MUL OR SWAP1 SSTORE POP SWAP1 POP POP POP POP POP JUMP JUMPDEST PUSH1 0x1 SLOAD DUP2 JUMP JUMPDEST PUSH1 0x0 DUP1 PUSH1 0x0 DUP5 DUP2 MSTORE PUSH1 0x20 ADD SWAP1 DUP2 MSTORE PUSH1 0x20 ADD PUSH1 0x0 KECCAK256 SWAP1 POP DUP2 DUP2 PUSH1 0x3 ADD PUSH1 0x0 PUSH2 0x100 EXP DUP2 SLOAD DUP2 PUSH1 0xFF MUL NOT AND SWAP1 DUP4 ISZERO ISZERO MUL OR SWAP1 SSTORE POP POP POP POP JUMP JUMPDEST PUSH1 0x0 PUSH1 0x20 MSTORE DUP1 PUSH1 0x0 MSTORE PUSH1 0x40 PUSH1 0x0 KECCAK256 PUSH1 0x0 SWAP2 POP SWAP1 POP DUP1 PUSH1 0x0 ADD DUP1 SLOAD PUSH2 0x3C8 SWAP1 PUSH2 0x998 JUMP JUMPDEST DUP1 PUSH1 0x1F ADD PUSH1 0x20 DUP1 SWAP2 DIV MUL PUSH1 0x20 ADD PUSH1 0x40 MLOAD SWAP1 DUP2 ADD PUSH1 0x40 MSTORE DUP1 SWAP3 SWAP2 SWAP1 DUP2 DUP2 MSTORE PUSH1 0x20 ADD DUP3 DUP1 SLOAD PUSH2 0x3F4 SWAP1 PUSH2 0x998 JUMP JUMPDEST DUP1 ISZERO PUSH2 0x441 JUMPI DUP1 PUSH1 0x1F LT PUSH2 0x416 JUMPI PUSH2 0x100 DUP1 DUP4 SLOAD DIV MUL DUP4 MSTORE SWAP2 PUSH1 0x20 ADD SWAP2 PUSH2 0x441 JUMP JUMPDEST DUP3 ADD SWAP2 SWAP1 PUSH1 0x0 MSTORE PUSH1 0x20 PUSH1 0x0 KECCAK256 SWAP1 JUMPDEST DUP2 SLOAD DUP2 MSTORE SWAP1 PUSH1 0x1 ADD SWAP1 PUSH1 0x20 ADD DUP1 DUP4 GT PUSH2 0x424 JUMPI DUP3 SWAP1 SUB PUSH1 0x1F AND DUP3 ADD SWAP2 JUMPDEST POP POP POP POP POP SWAP1 DUP1 PUSH1 0x1 ADD DUP1 SLOAD PUSH2 0x456 SWAP1 PUSH2 0x998 JUMP JUMPDEST DUP1 PUSH1 0x1F ADD PUSH1 0x20 DUP1 SWAP2 DIV MUL PUSH1 0x20 ADD PUSH1 0x40 MLOAD SWAP1 DUP2 ADD PUSH1 0x40 MSTORE DUP1 SWAP3 SWAP2 SWAP1 DUP2 DUP2 MSTORE PUSH1 0x20 ADD DUP3 DUP1 SLOAD PUSH2 0x482 SWAP1 PUSH2 0x998 JUMP JUMPDEST DUP1 ISZERO PUSH2 0x4CF JUMPI DUP1 PUSH1 0x1F LT PUSH2 0x4A4 JUMPI PUSH2 0x100 DUP1 DUP4 SLOAD DIV MUL DUP4 MSTORE SWAP2 PUSH1 0x20 ADD SWAP2 PUSH2 0x4CF JUMP JUMPDEST DUP3 ADD SWAP2 SWAP1 PUSH1 0x0 MSTORE PUSH1 0x20 PUSH1 0x0 KECCAK256 SWAP1 JUMPDEST DUP2 SLOAD DUP2 MSTORE SWAP1 PUSH1 0x1 ADD SWAP1 PUSH1 0x20 ADD DUP1 DUP4 GT PUSH2 0x4B2 JUMPI DUP3 SWAP1 SUB PUSH1 0x1F AND DUP3 ADD SWAP2 JUMPDEST POP POP POP POP POP SWAP1 DUP1 PUSH1 0x2 ADD SLOAD SWAP1 DUP1 PUSH1 0x3 ADD PUSH1 0x0 SWAP1 SLOAD SWAP1 PUSH2 0x100 EXP SWAP1 DIV PUSH1 0xFF AND SWAP1 POP DUP5 JUMP JUMPDEST DUP3 DUP1 SLOAD PUSH2 0x4FE SWAP1 PUSH2 0x998 JUMP JUMPDEST SWAP1 PUSH1 0x0 MSTORE PUSH1 0x20 PUSH1 0x0 KECCAK256 SWAP1 PUSH1 0x1F ADD PUSH1 0x20 SWAP1 DIV DUP2 ADD SWAP3 DUP3 PUSH2 0x520 JUMPI PUSH1 0x0 DUP6 SSTORE PUSH2 0x567 JUMP JUMPDEST DUP3 PUSH1 0x1F LT PUSH2 0x539 JUMPI DUP1 MLOAD PUSH1 0xFF NOT AND DUP4 DUP1 ADD OR DUP6 SSTORE PUSH2 0x567 JUMP JUMPDEST DUP3 DUP1 ADD PUSH1 0x1 ADD DUP6 SSTORE DUP3 ISZERO PUSH2 0x567 JUMPI SWAP2 DUP3 ADD JUMPDEST DUP3 DUP2 GT ISZERO PUSH2 0x566 JUMPI DUP3 MLOAD DUP3 SSTORE SWAP2 PUSH1 0x20 ADD SWAP2 SWAP1 PUSH1 0x1 ADD SWAP1 PUSH2 0x54B JUMP JUMPDEST JUMPDEST POP SWAP1 POP PUSH2 0x574 SWAP2 SWAP1 PUSH2 0x578 JUMP JUMPDEST POP SWAP1 JUMP JUMPDEST JUMPDEST DUP1 DUP3 GT ISZERO PUSH2 0x591 JUMPI PUSH1 0x0 DUP2 PUSH1 0x0 SWAP1 SSTORE POP PUSH1 0x1 ADD PUSH2 0x579 JUMP JUMPDEST POP SWAP1 JUMP JUMPDEST PUSH1 0x0 PUSH1 0x40 MLOAD SWAP1 POP SWAP1 JUMP JUMPDEST PUSH1 0x0 DUP1 REVERT JUMPDEST PUSH1 0x0 DUP1 REVERT JUMPDEST PUSH1 0x0 DUP2 SWAP1 POP SWAP2 SWAP1 POP JUMP JUMPDEST PUSH2 0x5BC DUP2 PUSH2 0x5A9 JUMP JUMPDEST DUP2 EQ PUSH2 0x5C7 JUMPI PUSH1 0x0 DUP1 REVERT JUMPDEST POP JUMP JUMPDEST PUSH1 0x0 DUP2 CALLDATALOAD SWAP1 POP PUSH2 0x5D9 DUP2 PUSH2 0x5B3 JUMP JUMPDEST SWAP3 SWAP2 POP POP JUMP JUMPDEST PUSH1 0x0 PUSH1 0x20 DUP3 DUP5 SUB SLT ISZERO PUSH2 0x5F5 JUMPI PUSH2 0x5F4 PUSH2 0x59F JUMP JUMPDEST JUMPDEST PUSH1 0x0 PUSH2 0x603 DUP5 DUP3 DUP6 ADD PUSH2 0x5CA JUMP JUMPDEST SWAP2 POP POP SWAP3 SWAP2 POP POP JUMP JUMPDEST PUSH1 0x0 DUP2 MLOAD SWAP1 POP SWAP2 SWAP1 POP JUMP JUMPDEST PUSH1 0x0 DUP3 DUP3 MSTORE PUSH1 0x20 DUP3 ADD SWAP1 POP SWAP3 SWAP2 POP POP JUMP JUMPDEST PUSH1 0x0 JUMPDEST DUP4 DUP2 LT ISZERO PUSH2 0x646 JUMPI DUP1 DUP3 ADD MLOAD DUP2 DUP5 ADD MSTORE PUSH1 0x20 DUP2 ADD SWAP1 POP PUSH2 0x62B JUMP JUMPDEST DUP4 DUP2 GT ISZERO PUSH2 0x655 JUMPI PUSH1 0x0 DUP5 DUP5 ADD MSTORE JUMPDEST POP POP POP POP JUMP JUMPDEST PUSH1 0x0 PUSH1 0x1F NOT PUSH1 0x1F DUP4 ADD AND SWAP1 POP SWAP2 SWAP1 POP JUMP JUMPDEST PUSH1 0x0 PUSH2 0x677 DUP3 PUSH2 0x60C JUMP JUMPDEST PUSH2 0x681 DUP2 DUP6 PUSH2 0x617 JUMP JUMPDEST SWAP4 POP PUSH2 0x691 DUP2 DUP6 PUSH1 0x20 DUP7 ADD PUSH2 0x628 JUMP JUMPDEST PUSH2 0x69A DUP2 PUSH2 0x65B JUMP JUMPDEST DUP5 ADD SWAP2 POP POP SWAP3 SWAP2 POP POP JUMP JUMPDEST PUSH2 0x6AE DUP2 PUSH2 0x5A9 JUMP JUMPDEST DUP3 MSTORE POP POP JUMP JUMPDEST PUSH1 0x0 DUP2 ISZERO ISZERO SWAP1 POP SWAP2 SWAP1 POP JUMP JUMPDEST PUSH2 0x6C9 DUP2 PUSH2 0x6B4 JUMP JUMPDEST DUP3 MSTORE POP POP JUMP JUMPDEST PUSH1 0x0 PUSH1 0x80 DUP3 ADD SWAP1 POP DUP2 DUP2 SUB PUSH1 0x0 DUP4 ADD MSTORE PUSH2 0x6E9 DUP2 DUP8 PUSH2 0x66C JUMP JUMPDEST SWAP1 POP DUP2 DUP2 SUB PUSH1 0x20 DUP4 ADD MSTORE PUSH2 0x6FD DUP2 DUP7 PUSH2 0x66C JUMP JUMPDEST SWAP1 POP PUSH2 0x70C PUSH1 0x40 DUP4 ADD DUP6 PUSH2 0x6A5 JUMP JUMPDEST PUSH2 0x719 PUSH1 0x60 DUP4 ADD DUP5 PUSH2 0x6C0 JUMP JUMPDEST SWAP6 SWAP5 POP POP POP POP POP JUMP JUMPDEST PUSH1 0x0 DUP1 REVERT JUMPDEST PUSH1 0x0 DUP1 REVERT JUMPDEST PUSH32 0x4E487B7100000000000000000000000000000000000000000000000000000000 PUSH1 0x0 MSTORE PUSH1 0x41 PUSH1 0x4 MSTORE PUSH1 0x24 PUSH1 0x0 REVERT JUMPDEST PUSH2 0x764 DUP3 PUSH2 0x65B JUMP JUMPDEST DUP2 ADD DUP2 DUP2 LT PUSH8 0xFFFFFFFFFFFFFFFF DUP3 GT OR ISZERO PUSH2 0x783 JUMPI PUSH2 0x782 PUSH2 0x72C JUMP JUMPDEST JUMPDEST DUP1 PUSH1 0x40 MSTORE POP POP POP JUMP JUMPDEST PUSH1 0x0 PUSH2 0x796 PUSH2 0x595 JUMP JUMPDEST SWAP1 POP PUSH2 0x7A2 DUP3 DUP3 PUSH2 0x75B JUMP JUMPDEST SWAP2 SWAP1 POP JUMP JUMPDEST PUSH1 0x0 PUSH8 0xFFFFFFFFFFFFFFFF DUP3 GT ISZERO PUSH2 0x7C2 JUMPI PUSH2 0x7C1 PUSH2 0x72C JUMP JUMPDEST JUMPDEST PUSH2 0x7CB DUP3 PUSH2 0x65B JUMP JUMPDEST SWAP1 POP PUSH1 0x20 DUP2 ADD SWAP1 POP SWAP2 SWAP1 POP JUMP JUMPDEST DUP3 DUP2 DUP4 CALLDATACOPY PUSH1 0x0 DUP4 DUP4 ADD MSTORE POP POP POP JUMP JUMPDEST PUSH1 0x0 PUSH2 0x7FA PUSH2 0x7F5 DUP5 PUSH2 0x7A7 JUMP JUMPDEST PUSH2 0x78C JUMP JUMPDEST SWAP1 POP DUP3 DUP2 MSTORE PUSH1 0x20 DUP2 ADD DUP5 DUP5 DUP5 ADD GT ISZERO PUSH2 0x816 JUMPI PUSH2 0x815 PUSH2 0x727 JUMP JUMPDEST JUMPDEST PUSH2 0x821 DUP5 DUP3 DUP6 PUSH2 0x7D8 JUMP JUMPDEST POP SWAP4 SWAP3 POP POP POP JUMP JUMPDEST PUSH1 0x0 DUP3 PUSH1 0x1F DUP4 ADD SLT PUSH2 0x83E JUMPI PUSH2 0x83D PUSH2 0x722 JUMP JUMPDEST JUMPDEST DUP2 CALLDATALOAD PUSH2 0x84E DUP5 DUP3 PUSH1 0x20 DUP7 ADD PUSH2 0x7E7 JUMP JUMPDEST SWAP2 POP POP SWAP3 SWAP2 POP POP JUMP JUMPDEST PUSH1 0x0 DUP1 PUSH1 0x0 PUSH1 0x60 DUP5 DUP7 SUB SLT ISZERO PUSH2 0x870 JUMPI PUSH2 0x86F PUSH2 0x59F JUMP JUMPDEST JUMPDEST PUSH1 0x0 DUP5 ADD CALLDATALOAD PUSH8 0xFFFFFFFFFFFFFFFF DUP2 GT ISZERO PUSH2 0x88E JUMPI PUSH2 0x88D PUSH2 0x5A4 JUMP JUMPDEST JUMPDEST PUSH2 0x89A DUP7 DUP3 DUP8 ADD PUSH2 0x829 JUMP JUMPDEST SWAP4 POP POP PUSH1 0x20 DUP5 ADD CALLDATALOAD PUSH8 0xFFFFFFFFFFFFFFFF DUP2 GT ISZERO PUSH2 0x8BB JUMPI PUSH2 0x8BA PUSH2 0x5A4 JUMP JUMPDEST JUMPDEST PUSH2 0x8C7 DUP7 DUP3 DUP8 ADD PUSH2 0x829 JUMP JUMPDEST SWAP3 POP POP PUSH1 0x40 PUSH2 0x8D8 DUP7 DUP3 DUP8 ADD PUSH2 0x5CA JUMP JUMPDEST SWAP2 POP POP SWAP3 POP SWAP3 POP SWAP3 JUMP JUMPDEST PUSH1 0x0 PUSH1 0x20 DUP3 ADD SWAP1 POP PUSH2 0x8F7 PUSH1 0x0 DUP4 ADD DUP5 PUSH2 0x6A5 JUMP JUMPDEST SWAP3 SWAP2 POP POP JUMP JUMPDEST PUSH2 0x906 DUP2 PUSH2 0x6B4 JUMP JUMPDEST DUP2 EQ PUSH2 0x911 JUMPI PUSH1 0x0 DUP1 REVERT JUMPDEST POP JUMP JUMPDEST PUSH1 0x0 DUP2 CALLDATALOAD SWAP1 POP PUSH2 0x923 DUP2 PUSH2 0x8FD JUMP JUMPDEST SWAP3 SWAP2 POP POP JUMP JUMPDEST PUSH1 0x0 DUP1 PUSH1 0x40 DUP4 DUP6 SUB SLT ISZERO PUSH2 0x940 JUMPI PUSH2 0x93F PUSH2 0x59F JUMP JUMPDEST JUMPDEST PUSH1 0x0 PUSH2 0x94E DUP6 DUP3 DUP7 ADD PUSH2 0x5CA JUMP JUMPDEST SWAP3 POP POP PUSH1 0x20 PUSH2 0x95F DUP6 DUP3 DUP7 ADD PUSH2 0x914 JUMP JUMPDEST SWAP2 POP POP SWAP3 POP SWAP3 SWAP1 POP JUMP JUMPDEST PUSH32 0x4E487B7100000000000000000000000000000000000000000000000000000000 PUSH1 0x0 MSTORE PUSH1 0x22 PUSH1 0x4 MSTORE PUSH1 0x24 PUSH1 0x0 REVERT JUMPDEST PUSH1 0x0 PUSH1 0x2 DUP3 DIV SWAP1 POP PUSH1 0x1 DUP3 AND DUP1 PUSH2 0x9B0 JUMPI PUSH1 0x7F DUP3 AND SWAP2 POP JUMPDEST PUSH1 0x20 DUP3 LT DUP2 EQ ISZERO PUSH2 0x9C4 JUMPI PUSH2 0x9C3 PUSH2 0x969 JUMP JUMPDEST JUMPDEST POP SWAP2 SWAP1 POP JUMP JUMPDEST PUSH32 0x4E487B7100000000000000000000000000000000000000000000000000000000 PUSH1 0x0 MSTORE PUSH1 0x11 PUSH1 0x4 MSTORE PUSH1 0x24 PUSH1 0x0 REVERT JUMPDEST PUSH1 0x0 PUSH2 0xA04 DUP3 PUSH2 0x5A9 JUMP JUMPDEST SWAP2 POP PUSH32 0xFFFFFFFFFFFFFFFFFFFFFFFFFFFFFFFFFFFFFFFFFFFFFFFFFFFFFFFFFFFFFFFF DUP3 EQ ISZERO PUSH2 0xA37 JUMPI PUSH2 0xA36 PUSH2 0x9CA JUMP JUMPDEST JUMPDEST PUSH1 0x1 DUP3 ADD SWAP1 POP SWAP2 SWAP1 POP JUMP INVALID LOG2 PUSH5 0x6970667358 0x22 SLT KECCAK256 0xEF 0xE1 0xDB 0xE1 0x49 DUP11 SWAP11 0xD9 DUP3 PC 0xBD 0xD2 0xEB PUSH22 0xD6813504F165D4D2E214B1D5D600FBA590AF64736F6C PUSH4 0x4300080B STOP CALLER "
		},
		"gasEstimates": {
			"creation": {
				"codeDepositCost": "536000",
				"executionCost": "568",
				"totalCost": "536568"
			},
			"external": {
				"addInsuranceDetails(string,string,uint256)": "infinite",
				"getInsuranceDetails(uint256)": "infinite",
				"insuranceCount()": "2451",
				"insuranceData(uint256)": "infinite",
				"updateClaimStatus(uint256,bool)": "24993"
			}
		},
		"methodIdentifiers": {
			"addInsuranceDetails(string,string,uint256)": "1ac8ceb0",
			"getInsuranceDetails(uint256)": "014d92d8",
			"insuranceCount()": "521a6e94",
			"insuranceData(uint256)": "f5c8b8b8",
			"updateClaimStatus(uint256,bool)": "7f1d24c8"
		}
	},
	"abi": [
		{
			"inputs": [
				{
					"internalType": "string",
					"name": "_farmerName",
					"type": "string"
				},
				{
					"internalType": "string",
					"name": "_farmLocation",
					"type": "string"
				},
				{
					"internalType": "uint256",
					"name": "_insuranceAmount",
					"type": "uint256"
				}
			],
			"name": "addInsuranceDetails",
			"outputs": [],
			"stateMutability": "nonpayable",
			"type": "function"
		},
		{
			"inputs": [
				{
					"internalType": "uint256",
					"name": "_insuranceId",
					"type": "uint256"
				}
			],
			"name": "getInsuranceDetails",
			"outputs": [
				{
					"internalType": "string",
					"name": "",
					"type": "string"
				},
				{
					"internalType": "string",
					"name": "",
					"type": "string"
				},
				{
					"internalType": "uint256",
					"name": "",
					"type": "uint256"
				},
				{
					"internalType": "bool",
					"name": "",
					"type": "bool"
				}
			],
			"stateMutability": "view",
			"type": "function"
		},
		{
			"inputs": [],
			"name": "insuranceCount",
			"outputs": [
				{
					"internalType": "uint256",
					"name": "",
					"type": "uint256"
				}
			],
			"stateMutability": "view",
			"type": "function"
		},
		{
			"inputs": [
				{
					"internalType": "uint256",
					"name": "",
					"type": "uint256"
				}
			],
			"name": "insuranceData",
			"outputs": [
				{
					"internalType": "string",
					"name": "farmerName",
					"type": "string"
				},
				{
					"internalType": "string",
					"name": "farmLocation",
					"type": "string"
				},
				{
					"internalType": "uint256",
					"name": "insuranceAmount",
					"type": "uint256"
				},
				{
					"internalType": "bool",
					"name": "isClaimed",
					"type": "bool"
				}
			],
			"stateMutability": "view",
			"type": "function"
		},
		{
			"inputs": [
				{
					"internalType": "uint256",
					"name": "_insuranceId",
					"type": "uint256"
				},
				{
					"internalType": "bool",
					"name": "_isClaimed",
					"type": "bool"
				}
			],
			"name": "updateClaimStatus",
			"outputs": [],
			"stateMutability": "nonpayable",
			"type": "function"
		}
	]
}