{
	"Prevent Digital Asset Duplication Project 18/Media Rights.sol": {
		"MediaRights": {
			"abi": [
				{
					"anonymous": false,
					"inputs": [
						{
							"indexed": true,
							"internalType": "uint256",
							"name": "id",
							"type": "uint256"
						},
						{
							"indexed": false,
							"internalType": "string",
							"name": "name",
							"type": "string"
						},
						{
							"indexed": true,
							"internalType": "address",
							"name": "owner",
							"type": "address"
						}
					],
					"name": "DigitalAssetCreated",
					"type": "event"
				},
				{
					"inputs": [
						{
							"internalType": "uint256",
							"name": "id",
							"type": "uint256"
						},
						{
							"internalType": "string",
							"name": "name",
							"type": "string"
						}
					],
					"name": "createDigitalAsset",
					"outputs": [],
					"stateMutability": "nonpayable",
					"type": "function"
				},
				{
					"inputs": [
						{
							"internalType": "uint256",
							"name": "id",
							"type": "uint256"
						}
					],
					"name": "deleteDigitalAsset",
					"outputs": [],
					"stateMutability": "nonpayable",
					"type": "function"
				},
				{
					"inputs": [
						{
							"internalType": "uint256",
							"name": "",
							"type": "uint256"
						}
					],
					"name": "digitalAssets",
					"outputs": [
						{
							"internalType": "string",
							"name": "name",
							"type": "string"
						},
						{
							"internalType": "address",
							"name": "owner",
							"type": "address"
						},
						{
							"internalType": "bool",
							"name": "exists",
							"type": "bool"
						}
					],
					"stateMutability": "view",
					"type": "function"
				},
				{
					"inputs": [
						{
							"internalType": "uint256",
							"name": "id",
							"type": "uint256"
						},
						{
							"internalType": "address",
							"name": "newOwner",
							"type": "address"
						}
					],
					"name": "transferOwnership",
					"outputs": [],
					"stateMutability": "nonpayable",
					"type": "function"
				}
			],
			"devdoc": {
				"kind": "dev",
				"methods": {},
				"version": 1
			},
			"evm": {
				"assembly": "    /* \"Prevent Digital Asset Duplication Project 18/Media Rights.sol\":60:1565  contract MediaRights {... */\n  mstore(0x40, 0x80)\n  callvalue\n  dup1\n  iszero\n  tag_1\n  jumpi\n  0x00\n  dup1\n  revert\ntag_1:\n  pop\n  dataSize(sub_0)\n  dup1\n  dataOffset(sub_0)\n  0x00\n  codecopy\n  0x00\n  return\nstop\n\nsub_0: assembly {\n        /* \"Prevent Digital Asset Duplication Project 18/Media Rights.sol\":60:1565  contract MediaRights {... */\n      mstore(0x40, 0x80)\n      callvalue\n      dup1\n      iszero\n      tag_1\n      jumpi\n      0x00\n      dup1\n      revert\n    tag_1:\n      pop\n      jumpi(tag_2, lt(calldatasize, 0x04))\n      shr(0xe0, calldataload(0x00))\n      dup1\n      0x21fd954e\n      eq\n      tag_3\n      jumpi\n      dup1\n      0x29507f73\n      eq\n      tag_4\n      jumpi\n      dup1\n      0xbd1b0221\n      eq\n      tag_5\n      jumpi\n      dup1\n      0xd2457f66\n      eq\n      tag_6\n      jumpi\n    tag_2:\n      0x00\n      dup1\n      revert\n        /* \"Prevent Digital Asset Duplication Project 18/Media Rights.sol\":550:840  function createDigitalAsset(uint256 id, string memory name) public {... */\n    tag_3:\n      tag_7\n      0x04\n      dup1\n      calldatasize\n      sub\n      dup2\n      add\n      swap1\n      tag_8\n      swap2\n      swap1\n      tag_9\n      jump\t// in\n    tag_8:\n      tag_10\n      jump\t// in\n    tag_7:\n      stop\n        /* \"Prevent Digital Asset Duplication Project 18/Media Rights.sol\":910:1224  function transferOwnership(uint256 id, address newOwner) public {... */\n    tag_4:\n      tag_11\n      0x04\n      dup1\n      calldatasize\n      sub\n      dup2\n      add\n      swap1\n      tag_12\n      swap2\n      swap1\n      tag_13\n      jump\t// in\n    tag_12:\n      tag_14\n      jump\t// in\n    tag_11:\n      stop\n        /* \"Prevent Digital Asset Duplication Project 18/Media Rights.sol\":289:342  mapping(uint256 => DigitalAsset) public digitalAssets */\n    tag_5:\n      tag_15\n      0x04\n      dup1\n      calldatasize\n      sub\n      dup2\n      add\n      swap1\n      tag_16\n      swap2\n      swap1\n      tag_17\n      jump\t// in\n    tag_16:\n      tag_18\n      jump\t// in\n    tag_15:\n      mload(0x40)\n      tag_19\n      swap4\n      swap3\n      swap2\n      swap1\n      tag_20\n      jump\t// in\n    tag_19:\n      mload(0x40)\n      dup1\n      swap2\n      sub\n      swap1\n      return\n        /* \"Prevent Digital Asset Duplication Project 18/Media Rights.sol\":1279:1562  function deleteDigitalAsset(uint256 id) public {... */\n    tag_6:\n      tag_21\n      0x04\n      dup1\n      calldatasize\n      sub\n      dup2\n      add\n      swap1\n      tag_22\n      swap2\n      swap1\n      tag_17\n      jump\t// in\n    tag_22:\n      tag_23\n      jump\t// in\n    tag_21:\n      stop\n        /* \"Prevent Digital Asset Duplication Project 18/Media Rights.sol\":550:840  function createDigitalAsset(uint256 id, string memory name) public {... */\n    tag_10:\n        /* \"Prevent Digital Asset Duplication Project 18/Media Rights.sol\":637:650  digitalAssets */\n      0x00\n        /* \"Prevent Digital Asset Duplication Project 18/Media Rights.sol\":637:654  digitalAssets[id] */\n      dup1\n        /* \"Prevent Digital Asset Duplication Project 18/Media Rights.sol\":651:653  id */\n      dup4\n        /* \"Prevent Digital Asset Duplication Project 18/Media Rights.sol\":637:654  digitalAssets[id] */\n      dup2\n      mstore\n      0x20\n      add\n      swap1\n      dup2\n      mstore\n      0x20\n      add\n      0x00\n      keccak256\n        /* \"Prevent Digital Asset Duplication Project 18/Media Rights.sol\":637:661  digitalAssets[id].exists */\n      0x01\n      add\n      0x14\n      swap1\n      sload\n      swap1\n      0x0100\n      exp\n      swap1\n      div\n      0xff\n      and\n        /* \"Prevent Digital Asset Duplication Project 18/Media Rights.sol\":636:661  !digitalAssets[id].exists */\n      iszero\n        /* \"Prevent Digital Asset Duplication Project 18/Media Rights.sol\":628:708  require(!digitalAssets[id].exists, \"Digital asset with this ID already exists.\") */\n      tag_25\n      jumpi\n      mload(0x40)\n      0x08c379a000000000000000000000000000000000000000000000000000000000\n      dup2\n      mstore\n      0x04\n      add\n      tag_26\n      swap1\n      tag_27\n      jump\t// in\n    tag_26:\n      mload(0x40)\n      dup1\n      swap2\n      sub\n      swap1\n      revert\n    tag_25:\n        /* \"Prevent Digital Asset Duplication Project 18/Media Rights.sol\":739:775  DigitalAsset(name, msg.sender, true) */\n      mload(0x40)\n      dup1\n      0x60\n      add\n      0x40\n      mstore\n      dup1\n        /* \"Prevent Digital Asset Duplication Project 18/Media Rights.sol\":752:756  name */\n      dup3\n        /* \"Prevent Digital Asset Duplication Project 18/Media Rights.sol\":739:775  DigitalAsset(name, msg.sender, true) */\n      dup2\n      mstore\n      0x20\n      add\n        /* \"Prevent Digital Asset Duplication Project 18/Media Rights.sol\":758:768  msg.sender */\n      caller\n        /* \"Prevent Digital Asset Duplication Project 18/Media Rights.sol\":739:775  DigitalAsset(name, msg.sender, true) */\n      0xffffffffffffffffffffffffffffffffffffffff\n      and\n      dup2\n      mstore\n      0x20\n      add\n        /* \"Prevent Digital Asset Duplication Project 18/Media Rights.sol\":770:774  true */\n      0x01\n        /* \"Prevent Digital Asset Duplication Project 18/Media Rights.sol\":739:775  DigitalAsset(name, msg.sender, true) */\n      iszero\n      iszero\n      dup2\n      mstore\n      pop\n        /* \"Prevent Digital Asset Duplication Project 18/Media Rights.sol\":719:732  digitalAssets */\n      0x00\n        /* \"Prevent Digital Asset Duplication Project 18/Media Rights.sol\":719:736  digitalAssets[id] */\n      dup1\n        /* \"Prevent Digital Asset Duplication Project 18/Media Rights.sol\":733:735  id */\n      dup5\n        /* \"Prevent Digital Asset Duplication Project 18/Media Rights.sol\":719:736  digitalAssets[id] */\n      dup2\n      mstore\n      0x20\n      add\n      swap1\n      dup2\n      mstore\n      0x20\n      add\n      0x00\n      keccak256\n        /* \"Prevent Digital Asset Duplication Project 18/Media Rights.sol\":719:775  digitalAssets[id] = DigitalAsset(name, msg.sender, true) */\n      0x00\n      dup3\n      add\n      mload\n      dup2\n      0x00\n      add\n      swap1\n      dup1\n      mload\n      swap1\n      0x20\n      add\n      swap1\n      tag_28\n      swap3\n      swap2\n      swap1\n      tag_29\n      jump\t// in\n    tag_28:\n      pop\n      0x20\n      dup3\n      add\n      mload\n      dup2\n      0x01\n      add\n      exp(0x0100, 0x00)\n      dup2\n      sload\n      dup2\n      0xffffffffffffffffffffffffffffffffffffffff\n      mul\n      not\n      and\n      swap1\n      dup4\n      0xffffffffffffffffffffffffffffffffffffffff\n      and\n      mul\n      or\n      swap1\n      sstore\n      pop\n      0x40\n      dup3\n      add\n      mload\n      dup2\n      0x01\n      add\n      exp(0x0100, 0x14)\n      dup2\n      sload\n      dup2\n      0xff\n      mul\n      not\n      and\n      swap1\n      dup4\n      iszero\n      iszero\n      mul\n      or\n      swap1\n      sstore\n      pop\n      swap1\n      pop\n      pop\n        /* \"Prevent Digital Asset Duplication Project 18/Media Rights.sol\":821:831  msg.sender */\n      caller\n        /* \"Prevent Digital Asset Duplication Project 18/Media Rights.sol\":791:832  DigitalAssetCreated(id, name, msg.sender) */\n      0xffffffffffffffffffffffffffffffffffffffff\n      and\n        /* \"Prevent Digital Asset Duplication Project 18/Media Rights.sol\":811:813  id */\n      dup3\n        /* \"Prevent Digital Asset Duplication Project 18/Media Rights.sol\":791:832  DigitalAssetCreated(id, name, msg.sender) */\n      0x4bfc23985f6918f037c81d841aef03449eacd6fd45ae5c7056059ff0202da9e2\n        /* \"Prevent Digital Asset Duplication Project 18/Media Rights.sol\":815:819  name */\n      dup4\n        /* \"Prevent Digital Asset Duplication Project 18/Media Rights.sol\":791:832  DigitalAssetCreated(id, name, msg.sender) */\n      mload(0x40)\n      tag_30\n      swap2\n      swap1\n      tag_31\n      jump\t// in\n    tag_30:\n      mload(0x40)\n      dup1\n      swap2\n      sub\n      swap1\n      log3\n        /* \"Prevent Digital Asset Duplication Project 18/Media Rights.sol\":550:840  function createDigitalAsset(uint256 id, string memory name) public {... */\n      pop\n      pop\n      jump\t// out\n        /* \"Prevent Digital Asset Duplication Project 18/Media Rights.sol\":910:1224  function transferOwnership(uint256 id, address newOwner) public {... */\n    tag_14:\n        /* \"Prevent Digital Asset Duplication Project 18/Media Rights.sol\":993:1006  digitalAssets */\n      0x00\n        /* \"Prevent Digital Asset Duplication Project 18/Media Rights.sol\":993:1010  digitalAssets[id] */\n      dup1\n        /* \"Prevent Digital Asset Duplication Project 18/Media Rights.sol\":1007:1009  id */\n      dup4\n        /* \"Prevent Digital Asset Duplication Project 18/Media Rights.sol\":993:1010  digitalAssets[id] */\n      dup2\n      mstore\n      0x20\n      add\n      swap1\n      dup2\n      mstore\n      0x20\n      add\n      0x00\n      keccak256\n        /* \"Prevent Digital Asset Duplication Project 18/Media Rights.sol\":993:1017  digitalAssets[id].exists */\n      0x01\n      add\n      0x14\n      swap1\n      sload\n      swap1\n      0x0100\n      exp\n      swap1\n      div\n      0xff\n      and\n        /* \"Prevent Digital Asset Duplication Project 18/Media Rights.sol\":985:1064  require(digitalAssets[id].exists, \"Digital asset with this ID does not exist.\") */\n      tag_33\n      jumpi\n      mload(0x40)\n      0x08c379a000000000000000000000000000000000000000000000000000000000\n      dup2\n      mstore\n      0x04\n      add\n      tag_34\n      swap1\n      tag_35\n      jump\t// in\n    tag_34:\n      mload(0x40)\n      dup1\n      swap2\n      sub\n      swap1\n      revert\n    tag_33:\n        /* \"Prevent Digital Asset Duplication Project 18/Media Rights.sol\":1110:1120  msg.sender */\n      caller\n        /* \"Prevent Digital Asset Duplication Project 18/Media Rights.sol\":1083:1120  digitalAssets[id].owner == msg.sender */\n      0xffffffffffffffffffffffffffffffffffffffff\n      and\n        /* \"Prevent Digital Asset Duplication Project 18/Media Rights.sol\":1083:1096  digitalAssets */\n      0x00\n        /* \"Prevent Digital Asset Duplication Project 18/Media Rights.sol\":1083:1100  digitalAssets[id] */\n      dup1\n        /* \"Prevent Digital Asset Duplication Project 18/Media Rights.sol\":1097:1099  id */\n      dup5\n        /* \"Prevent Digital Asset Duplication Project 18/Media Rights.sol\":1083:1100  digitalAssets[id] */\n      dup2\n      mstore\n      0x20\n      add\n      swap1\n      dup2\n      mstore\n      0x20\n      add\n      0x00\n      keccak256\n        /* \"Prevent Digital Asset Duplication Project 18/Media Rights.sol\":1083:1106  digitalAssets[id].owner */\n      0x01\n      add\n      0x00\n      swap1\n      sload\n      swap1\n      0x0100\n      exp\n      swap1\n      div\n      0xffffffffffffffffffffffffffffffffffffffff\n      and\n        /* \"Prevent Digital Asset Duplication Project 18/Media Rights.sol\":1083:1120  digitalAssets[id].owner == msg.sender */\n      0xffffffffffffffffffffffffffffffffffffffff\n      and\n      eq\n        /* \"Prevent Digital Asset Duplication Project 18/Media Rights.sol\":1075:1171  require(digitalAssets[id].owner == msg.sender, \"Only the current owner can transfer ownership.\") */\n      tag_36\n      jumpi\n      mload(0x40)\n      0x08c379a000000000000000000000000000000000000000000000000000000000\n      dup2\n      mstore\n      0x04\n      add\n      tag_37\n      swap1\n      tag_38\n      jump\t// in\n    tag_37:\n      mload(0x40)\n      dup1\n      swap2\n      sub\n      swap1\n      revert\n    tag_36:\n        /* \"Prevent Digital Asset Duplication Project 18/Media Rights.sol\":1208:1216  newOwner */\n      dup1\n        /* \"Prevent Digital Asset Duplication Project 18/Media Rights.sol\":1182:1195  digitalAssets */\n      0x00\n        /* \"Prevent Digital Asset Duplication Project 18/Media Rights.sol\":1182:1199  digitalAssets[id] */\n      dup1\n        /* \"Prevent Digital Asset Duplication Project 18/Media Rights.sol\":1196:1198  id */\n      dup5\n        /* \"Prevent Digital Asset Duplication Project 18/Media Rights.sol\":1182:1199  digitalAssets[id] */\n      dup2\n      mstore\n      0x20\n      add\n      swap1\n      dup2\n      mstore\n      0x20\n      add\n      0x00\n      keccak256\n        /* \"Prevent Digital Asset Duplication Project 18/Media Rights.sol\":1182:1205  digitalAssets[id].owner */\n      0x01\n      add\n      0x00\n        /* \"Prevent Digital Asset Duplication Project 18/Media Rights.sol\":1182:1216  digitalAssets[id].owner = newOwner */\n      0x0100\n      exp\n      dup2\n      sload\n      dup2\n      0xffffffffffffffffffffffffffffffffffffffff\n      mul\n      not\n      and\n      swap1\n      dup4\n      0xffffffffffffffffffffffffffffffffffffffff\n      and\n      mul\n      or\n      swap1\n      sstore\n      pop\n        /* \"Prevent Digital Asset Duplication Project 18/Media Rights.sol\":910:1224  function transferOwnership(uint256 id, address newOwner) public {... */\n      pop\n      pop\n      jump\t// out\n        /* \"Prevent Digital Asset Duplication Project 18/Media Rights.sol\":289:342  mapping(uint256 => DigitalAsset) public digitalAssets */\n    tag_18:\n      mstore(0x20, 0x00)\n      dup1\n      0x00\n      mstore\n      keccak256(0x00, 0x40)\n      0x00\n      swap2\n      pop\n      swap1\n      pop\n      dup1\n      0x00\n      add\n      dup1\n      sload\n      tag_39\n      swap1\n      tag_40\n      jump\t// in\n    tag_39:\n      dup1\n      0x1f\n      add\n      0x20\n      dup1\n      swap2\n      div\n      mul\n      0x20\n      add\n      mload(0x40)\n      swap1\n      dup2\n      add\n      0x40\n      mstore\n      dup1\n      swap3\n      swap2\n      swap1\n      dup2\n      dup2\n      mstore\n      0x20\n      add\n      dup3\n      dup1\n      sload\n      tag_41\n      swap1\n      tag_40\n      jump\t// in\n    tag_41:\n      dup1\n      iszero\n      tag_42\n      jumpi\n      dup1\n      0x1f\n      lt\n      tag_43\n      jumpi\n      0x0100\n      dup1\n      dup4\n      sload\n      div\n      mul\n      dup4\n      mstore\n      swap2\n      0x20\n      add\n      swap2\n      jump(tag_42)\n    tag_43:\n      dup3\n      add\n      swap2\n      swap1\n      0x00\n      mstore\n      keccak256(0x00, 0x20)\n      swap1\n    tag_44:\n      dup2\n      sload\n      dup2\n      mstore\n      swap1\n      0x01\n      add\n      swap1\n      0x20\n      add\n      dup1\n      dup4\n      gt\n      tag_44\n      jumpi\n      dup3\n      swap1\n      sub\n      0x1f\n      and\n      dup3\n      add\n      swap2\n    tag_42:\n      pop\n      pop\n      pop\n      pop\n      pop\n      swap1\n      dup1\n      0x01\n      add\n      0x00\n      swap1\n      sload\n      swap1\n      0x0100\n      exp\n      swap1\n      div\n      0xffffffffffffffffffffffffffffffffffffffff\n      and\n      swap1\n      dup1\n      0x01\n      add\n      0x14\n      swap1\n      sload\n      swap1\n      0x0100\n      exp\n      swap1\n      div\n      0xff\n      and\n      swap1\n      pop\n      dup4\n      jump\t// out\n        /* \"Prevent Digital Asset Duplication Project 18/Media Rights.sol\":1279:1562  function deleteDigitalAsset(uint256 id) public {... */\n    tag_23:\n        /* \"Prevent Digital Asset Duplication Project 18/Media Rights.sol\":1345:1358  digitalAssets */\n      0x00\n        /* \"Prevent Digital Asset Duplication Project 18/Media Rights.sol\":1345:1362  digitalAssets[id] */\n      dup1\n        /* \"Prevent Digital Asset Duplication Project 18/Media Rights.sol\":1359:1361  id */\n      dup3\n        /* \"Prevent Digital Asset Duplication Project 18/Media Rights.sol\":1345:1362  digitalAssets[id] */\n      dup2\n      mstore\n      0x20\n      add\n      swap1\n      dup2\n      mstore\n      0x20\n      add\n      0x00\n      keccak256\n        /* \"Prevent Digital Asset Duplication Project 18/Media Rights.sol\":1345:1369  digitalAssets[id].exists */\n      0x01\n      add\n      0x14\n      swap1\n      sload\n      swap1\n      0x0100\n      exp\n      swap1\n      div\n      0xff\n      and\n        /* \"Prevent Digital Asset Duplication Project 18/Media Rights.sol\":1337:1416  require(digitalAssets[id].exists, \"Digital asset with this ID does not exist.\") */\n      tag_46\n      jumpi\n      mload(0x40)\n      0x08c379a000000000000000000000000000000000000000000000000000000000\n      dup2\n      mstore\n      0x04\n      add\n      tag_47\n      swap1\n      tag_35\n      jump\t// in\n    tag_47:\n      mload(0x40)\n      dup1\n      swap2\n      sub\n      swap1\n      revert\n    tag_46:\n        /* \"Prevent Digital Asset Duplication Project 18/Media Rights.sol\":1462:1472  msg.sender */\n      caller\n        /* \"Prevent Digital Asset Duplication Project 18/Media Rights.sol\":1435:1472  digitalAssets[id].owner == msg.sender */\n      0xffffffffffffffffffffffffffffffffffffffff\n      and\n        /* \"Prevent Digital Asset Duplication Project 18/Media Rights.sol\":1435:1448  digitalAssets */\n      0x00\n        /* \"Prevent Digital Asset Duplication Project 18/Media Rights.sol\":1435:1452  digitalAssets[id] */\n      dup1\n        /* \"Prevent Digital Asset Duplication Project 18/Media Rights.sol\":1449:1451  id */\n      dup4\n        /* \"Prevent Digital Asset Duplication Project 18/Media Rights.sol\":1435:1452  digitalAssets[id] */\n      dup2\n      mstore\n      0x20\n      add\n      swap1\n      dup2\n      mstore\n      0x20\n      add\n      0x00\n      keccak256\n        /* \"Prevent Digital Asset Duplication Project 18/Media Rights.sol\":1435:1458  digitalAssets[id].owner */\n      0x01\n      add\n      0x00\n      swap1\n      sload\n      swap1\n      0x0100\n      exp\n      swap1\n      div\n      0xffffffffffffffffffffffffffffffffffffffff\n      and\n        /* \"Prevent Digital Asset Duplication Project 18/Media Rights.sol\":1435:1472  digitalAssets[id].owner == msg.sender */\n      0xffffffffffffffffffffffffffffffffffffffff\n      and\n      eq\n        /* \"Prevent Digital Asset Duplication Project 18/Media Rights.sol\":1427:1519  require(digitalAssets[id].owner == msg.sender, \"Only the owner can delete a digital asset.\") */\n      tag_48\n      jumpi\n      mload(0x40)\n      0x08c379a000000000000000000000000000000000000000000000000000000000\n      dup2\n      mstore\n      0x04\n      add\n      tag_49\n      swap1\n      tag_50\n      jump\t// in\n    tag_49:\n      mload(0x40)\n      dup1\n      swap2\n      sub\n      swap1\n      revert\n    tag_48:\n        /* \"Prevent Digital Asset Duplication Project 18/Media Rights.sol\":1537:1550  digitalAssets */\n      0x00\n        /* \"Prevent Digital Asset Duplication Project 18/Media Rights.sol\":1537:1554  digitalAssets[id] */\n      dup1\n        /* \"Prevent Digital Asset Duplication Project 18/Media Rights.sol\":1551:1553  id */\n      dup3\n        /* \"Prevent Digital Asset Duplication Project 18/Media Rights.sol\":1537:1554  digitalAssets[id] */\n      dup2\n      mstore\n      0x20\n      add\n      swap1\n      dup2\n      mstore\n      0x20\n      add\n      0x00\n      keccak256\n      0x00\n        /* \"Prevent Digital Asset Duplication Project 18/Media Rights.sol\":1530:1554  delete digitalAssets[id] */\n      dup1\n      dup3\n      add\n      0x00\n      tag_51\n      swap2\n      swap1\n      tag_52\n      jump\t// in\n    tag_51:\n      0x01\n      dup3\n      add\n      exp(0x0100, 0x00)\n      dup2\n      sload\n      swap1\n      0xffffffffffffffffffffffffffffffffffffffff\n      mul\n      not\n      and\n      swap1\n      sstore\n      0x01\n      dup3\n      add\n      exp(0x0100, 0x14)\n      dup2\n      sload\n      swap1\n      0xff\n      mul\n      not\n      and\n      swap1\n      sstore\n      pop\n      pop\n        /* \"Prevent Digital Asset Duplication Project 18/Media Rights.sol\":1279:1562  function deleteDigitalAsset(uint256 id) public {... */\n      pop\n      jump\t// out\n    tag_29:\n      dup3\n      dup1\n      sload\n      tag_53\n      swap1\n      tag_40\n      jump\t// in\n    tag_53:\n      swap1\n      0x00\n      mstore\n      keccak256(0x00, 0x20)\n      swap1\n      0x1f\n      add\n      0x20\n      swap1\n      div\n      dup2\n      add\n      swap3\n      dup3\n      tag_55\n      jumpi\n      0x00\n      dup6\n      sstore\n      jump(tag_54)\n    tag_55:\n      dup3\n      0x1f\n      lt\n      tag_56\n      jumpi\n      dup1\n      mload\n      not(0xff)\n      and\n      dup4\n      dup1\n      add\n      or\n      dup6\n      sstore\n      jump(tag_54)\n    tag_56:\n      dup3\n      dup1\n      add\n      0x01\n      add\n      dup6\n      sstore\n      dup3\n      iszero\n      tag_54\n      jumpi\n      swap2\n      dup3\n      add\n    tag_57:\n      dup3\n      dup2\n      gt\n      iszero\n      tag_58\n      jumpi\n      dup3\n      mload\n      dup3\n      sstore\n      swap2\n      0x20\n      add\n      swap2\n      swap1\n      0x01\n      add\n      swap1\n      jump(tag_57)\n    tag_58:\n    tag_54:\n      pop\n      swap1\n      pop\n      tag_59\n      swap2\n      swap1\n      tag_60\n      jump\t// in\n    tag_59:\n      pop\n      swap1\n      jump\t// out\n    tag_52:\n      pop\n      dup1\n      sload\n      tag_61\n      swap1\n      tag_40\n      jump\t// in\n    tag_61:\n      0x00\n      dup3\n      sstore\n      dup1\n      0x1f\n      lt\n      tag_63\n      jumpi\n      pop\n      jump(tag_62)\n    tag_63:\n      0x1f\n      add\n      0x20\n      swap1\n      div\n      swap1\n      0x00\n      mstore\n      keccak256(0x00, 0x20)\n      swap1\n      dup2\n      add\n      swap1\n      tag_64\n      swap2\n      swap1\n      tag_60\n      jump\t// in\n    tag_64:\n    tag_62:\n      pop\n      jump\t// out\n    tag_60:\n    tag_65:\n      dup1\n      dup3\n      gt\n      iszero\n      tag_66\n      jumpi\n      0x00\n      dup2\n      0x00\n      swap1\n      sstore\n      pop\n      0x01\n      add\n      jump(tag_65)\n    tag_66:\n      pop\n      swap1\n      jump\t// out\n        /* \"#utility.yul\":7:82   */\n    tag_67:\n        /* \"#utility.yul\":40:46   */\n      0x00\n        /* \"#utility.yul\":73:75   */\n      0x40\n        /* \"#utility.yul\":67:76   */\n      mload\n        /* \"#utility.yul\":57:76   */\n      swap1\n      pop\n        /* \"#utility.yul\":7:82   */\n      swap1\n      jump\t// out\n        /* \"#utility.yul\":88:205   */\n    tag_68:\n        /* \"#utility.yul\":197:198   */\n      0x00\n        /* \"#utility.yul\":194:195   */\n      dup1\n        /* \"#utility.yul\":187:199   */\n      revert\n        /* \"#utility.yul\":211:328   */\n    tag_69:\n        /* \"#utility.yul\":320:321   */\n      0x00\n        /* \"#utility.yul\":317:318   */\n      dup1\n        /* \"#utility.yul\":310:322   */\n      revert\n        /* \"#utility.yul\":334:411   */\n    tag_70:\n        /* \"#utility.yul\":371:378   */\n      0x00\n        /* \"#utility.yul\":400:405   */\n      dup2\n        /* \"#utility.yul\":389:405   */\n      swap1\n      pop\n        /* \"#utility.yul\":334:411   */\n      swap2\n      swap1\n      pop\n      jump\t// out\n        /* \"#utility.yul\":417:539   */\n    tag_71:\n        /* \"#utility.yul\":490:514   */\n      tag_109\n        /* \"#utility.yul\":508:513   */\n      dup2\n        /* \"#utility.yul\":490:514   */\n      tag_70\n      jump\t// in\n    tag_109:\n        /* \"#utility.yul\":483:488   */\n      dup2\n        /* \"#utility.yul\":480:515   */\n      eq\n        /* \"#utility.yul\":470:533   */\n      tag_110\n      jumpi\n        /* \"#utility.yul\":529:530   */\n      0x00\n        /* \"#utility.yul\":526:527   */\n      dup1\n        /* \"#utility.yul\":519:531   */\n      revert\n        /* \"#utility.yul\":470:533   */\n    tag_110:\n        /* \"#utility.yul\":417:539   */\n      pop\n      jump\t// out\n        /* \"#utility.yul\":545:684   */\n    tag_72:\n        /* \"#utility.yul\":591:596   */\n      0x00\n        /* \"#utility.yul\":629:635   */\n      dup2\n        /* \"#utility.yul\":616:636   */\n      calldataload\n        /* \"#utility.yul\":607:636   */\n      swap1\n      pop\n        /* \"#utility.yul\":645:678   */\n      tag_112\n        /* \"#utility.yul\":672:677   */\n      dup2\n        /* \"#utility.yul\":645:678   */\n      tag_71\n      jump\t// in\n    tag_112:\n        /* \"#utility.yul\":545:684   */\n      swap3\n      swap2\n      pop\n      pop\n      jump\t// out\n        /* \"#utility.yul\":690:807   */\n    tag_73:\n        /* \"#utility.yul\":799:800   */\n      0x00\n        /* \"#utility.yul\":796:797   */\n      dup1\n        /* \"#utility.yul\":789:801   */\n      revert\n        /* \"#utility.yul\":813:930   */\n    tag_74:\n        /* \"#utility.yul\":922:923   */\n      0x00\n        /* \"#utility.yul\":919:920   */\n      dup1\n        /* \"#utility.yul\":912:924   */\n      revert\n        /* \"#utility.yul\":936:1038   */\n    tag_75:\n        /* \"#utility.yul\":977:983   */\n      0x00\n        /* \"#utility.yul\":1028:1030   */\n      0x1f\n        /* \"#utility.yul\":1024:1031   */\n      not\n        /* \"#utility.yul\":1019:1021   */\n      0x1f\n        /* \"#utility.yul\":1012:1017   */\n      dup4\n        /* \"#utility.yul\":1008:1022   */\n      add\n        /* \"#utility.yul\":1004:1032   */\n      and\n        /* \"#utility.yul\":994:1032   */\n      swap1\n      pop\n        /* \"#utility.yul\":936:1038   */\n      swap2\n      swap1\n      pop\n      jump\t// out\n        /* \"#utility.yul\":1044:1224   */\n    tag_76:\n        /* \"#utility.yul\":1092:1169   */\n      0x4e487b7100000000000000000000000000000000000000000000000000000000\n        /* \"#utility.yul\":1089:1090   */\n      0x00\n        /* \"#utility.yul\":1082:1170   */\n      mstore\n        /* \"#utility.yul\":1189:1193   */\n      0x41\n        /* \"#utility.yul\":1186:1187   */\n      0x04\n        /* \"#utility.yul\":1179:1194   */\n      mstore\n        /* \"#utility.yul\":1213:1217   */\n      0x24\n        /* \"#utility.yul\":1210:1211   */\n      0x00\n        /* \"#utility.yul\":1203:1218   */\n      revert\n        /* \"#utility.yul\":1230:1511   */\n    tag_77:\n        /* \"#utility.yul\":1313:1340   */\n      tag_118\n        /* \"#utility.yul\":1335:1339   */\n      dup3\n        /* \"#utility.yul\":1313:1340   */\n      tag_75\n      jump\t// in\n    tag_118:\n        /* \"#utility.yul\":1305:1311   */\n      dup2\n        /* \"#utility.yul\":1301:1341   */\n      add\n        /* \"#utility.yul\":1443:1449   */\n      dup2\n        /* \"#utility.yul\":1431:1441   */\n      dup2\n        /* \"#utility.yul\":1428:1450   */\n      lt\n        /* \"#utility.yul\":1407:1425   */\n      0xffffffffffffffff\n        /* \"#utility.yul\":1395:1405   */\n      dup3\n        /* \"#utility.yul\":1392:1426   */\n      gt\n        /* \"#utility.yul\":1389:1451   */\n      or\n        /* \"#utility.yul\":1386:1474   */\n      iszero\n      tag_119\n      jumpi\n        /* \"#utility.yul\":1454:1472   */\n      tag_120\n      tag_76\n      jump\t// in\n    tag_120:\n        /* \"#utility.yul\":1386:1474   */\n    tag_119:\n        /* \"#utility.yul\":1494:1504   */\n      dup1\n        /* \"#utility.yul\":1490:1492   */\n      0x40\n        /* \"#utility.yul\":1483:1505   */\n      mstore\n        /* \"#utility.yul\":1273:1511   */\n      pop\n        /* \"#utility.yul\":1230:1511   */\n      pop\n      pop\n      jump\t// out\n        /* \"#utility.yul\":1517:1646   */\n    tag_78:\n        /* \"#utility.yul\":1551:1557   */\n      0x00\n        /* \"#utility.yul\":1578:1598   */\n      tag_122\n      tag_67\n      jump\t// in\n    tag_122:\n        /* \"#utility.yul\":1568:1598   */\n      swap1\n      pop\n        /* \"#utility.yul\":1607:1640   */\n      tag_123\n        /* \"#utility.yul\":1635:1639   */\n      dup3\n        /* \"#utility.yul\":1627:1633   */\n      dup3\n        /* \"#utility.yul\":1607:1640   */\n      tag_77\n      jump\t// in\n    tag_123:\n        /* \"#utility.yul\":1517:1646   */\n      swap2\n      swap1\n      pop\n      jump\t// out\n        /* \"#utility.yul\":1652:1960   */\n    tag_79:\n        /* \"#utility.yul\":1714:1718   */\n      0x00\n        /* \"#utility.yul\":1804:1822   */\n      0xffffffffffffffff\n        /* \"#utility.yul\":1796:1802   */\n      dup3\n        /* \"#utility.yul\":1793:1823   */\n      gt\n        /* \"#utility.yul\":1790:1846   */\n      iszero\n      tag_125\n      jumpi\n        /* \"#utility.yul\":1826:1844   */\n      tag_126\n      tag_76\n      jump\t// in\n    tag_126:\n        /* \"#utility.yul\":1790:1846   */\n    tag_125:\n        /* \"#utility.yul\":1864:1893   */\n      tag_127\n        /* \"#utility.yul\":1886:1892   */\n      dup3\n        /* \"#utility.yul\":1864:1893   */\n      tag_75\n      jump\t// in\n    tag_127:\n        /* \"#utility.yul\":1856:1893   */\n      swap1\n      pop\n        /* \"#utility.yul\":1948:1952   */\n      0x20\n        /* \"#utility.yul\":1942:1946   */\n      dup2\n        /* \"#utility.yul\":1938:1953   */\n      add\n        /* \"#utility.yul\":1930:1953   */\n      swap1\n      pop\n        /* \"#utility.yul\":1652:1960   */\n      swap2\n      swap1\n      pop\n      jump\t// out\n        /* \"#utility.yul\":1966:2120   */\n    tag_80:\n        /* \"#utility.yul\":2050:2056   */\n      dup3\n        /* \"#utility.yul\":2045:2048   */\n      dup2\n        /* \"#utility.yul\":2040:2043   */\n      dup4\n        /* \"#utility.yul\":2027:2057   */\n      calldatacopy\n        /* \"#utility.yul\":2112:2113   */\n      0x00\n        /* \"#utility.yul\":2103:2109   */\n      dup4\n        /* \"#utility.yul\":2098:2101   */\n      dup4\n        /* \"#utility.yul\":2094:2110   */\n      add\n        /* \"#utility.yul\":2087:2114   */\n      mstore\n        /* \"#utility.yul\":1966:2120   */\n      pop\n      pop\n      pop\n      jump\t// out\n        /* \"#utility.yul\":2126:2538   */\n    tag_81:\n        /* \"#utility.yul\":2204:2209   */\n      0x00\n        /* \"#utility.yul\":2229:2295   */\n      tag_130\n        /* \"#utility.yul\":2245:2294   */\n      tag_131\n        /* \"#utility.yul\":2287:2293   */\n      dup5\n        /* \"#utility.yul\":2245:2294   */\n      tag_79\n      jump\t// in\n    tag_131:\n        /* \"#utility.yul\":2229:2295   */\n      tag_78\n      jump\t// in\n    tag_130:\n        /* \"#utility.yul\":2220:2295   */\n      swap1\n      pop\n        /* \"#utility.yul\":2318:2324   */\n      dup3\n        /* \"#utility.yul\":2311:2316   */\n      dup2\n        /* \"#utility.yul\":2304:2325   */\n      mstore\n        /* \"#utility.yul\":2356:2360   */\n      0x20\n        /* \"#utility.yul\":2349:2354   */\n      dup2\n        /* \"#utility.yul\":2345:2361   */\n      add\n        /* \"#utility.yul\":2394:2397   */\n      dup5\n        /* \"#utility.yul\":2385:2391   */\n      dup5\n        /* \"#utility.yul\":2380:2383   */\n      dup5\n        /* \"#utility.yul\":2376:2392   */\n      add\n        /* \"#utility.yul\":2373:2398   */\n      gt\n        /* \"#utility.yul\":2370:2482   */\n      iszero\n      tag_132\n      jumpi\n        /* \"#utility.yul\":2401:2480   */\n      tag_133\n      tag_74\n      jump\t// in\n    tag_133:\n        /* \"#utility.yul\":2370:2482   */\n    tag_132:\n        /* \"#utility.yul\":2491:2532   */\n      tag_134\n        /* \"#utility.yul\":2525:2531   */\n      dup5\n        /* \"#utility.yul\":2520:2523   */\n      dup3\n        /* \"#utility.yul\":2515:2518   */\n      dup6\n        /* \"#utility.yul\":2491:2532   */\n      tag_80\n      jump\t// in\n    tag_134:\n        /* \"#utility.yul\":2210:2538   */\n      pop\n        /* \"#utility.yul\":2126:2538   */\n      swap4\n      swap3\n      pop\n      pop\n      pop\n      jump\t// out\n        /* \"#utility.yul\":2558:2898   */\n    tag_82:\n        /* \"#utility.yul\":2614:2619   */\n      0x00\n        /* \"#utility.yul\":2663:2666   */\n      dup3\n        /* \"#utility.yul\":2656:2660   */\n      0x1f\n        /* \"#utility.yul\":2648:2654   */\n      dup4\n        /* \"#utility.yul\":2644:2661   */\n      add\n        /* \"#utility.yul\":2640:2667   */\n      slt\n        /* \"#utility.yul\":2630:2752   */\n      tag_136\n      jumpi\n        /* \"#utility.yul\":2671:2750   */\n      tag_137\n      tag_73\n      jump\t// in\n    tag_137:\n        /* \"#utility.yul\":2630:2752   */\n    tag_136:\n        /* \"#utility.yul\":2788:2794   */\n      dup2\n        /* \"#utility.yul\":2775:2795   */\n      calldataload\n        /* \"#utility.yul\":2813:2892   */\n      tag_138\n        /* \"#utility.yul\":2888:2891   */\n      dup5\n        /* \"#utility.yul\":2880:2886   */\n      dup3\n        /* \"#utility.yul\":2873:2877   */\n      0x20\n        /* \"#utility.yul\":2865:2871   */\n      dup7\n        /* \"#utility.yul\":2861:2878   */\n      add\n        /* \"#utility.yul\":2813:2892   */\n      tag_81\n      jump\t// in\n    tag_138:\n        /* \"#utility.yul\":2804:2892   */\n      swap2\n      pop\n        /* \"#utility.yul\":2620:2898   */\n      pop\n        /* \"#utility.yul\":2558:2898   */\n      swap3\n      swap2\n      pop\n      pop\n      jump\t// out\n        /* \"#utility.yul\":2904:3558   */\n    tag_9:\n        /* \"#utility.yul\":2982:2988   */\n      0x00\n        /* \"#utility.yul\":2990:2996   */\n      dup1\n        /* \"#utility.yul\":3039:3041   */\n      0x40\n        /* \"#utility.yul\":3027:3036   */\n      dup4\n        /* \"#utility.yul\":3018:3025   */\n      dup6\n        /* \"#utility.yul\":3014:3037   */\n      sub\n        /* \"#utility.yul\":3010:3042   */\n      slt\n        /* \"#utility.yul\":3007:3126   */\n      iszero\n      tag_140\n      jumpi\n        /* \"#utility.yul\":3045:3124   */\n      tag_141\n      tag_68\n      jump\t// in\n    tag_141:\n        /* \"#utility.yul\":3007:3126   */\n    tag_140:\n        /* \"#utility.yul\":3165:3166   */\n      0x00\n        /* \"#utility.yul\":3190:3243   */\n      tag_142\n        /* \"#utility.yul\":3235:3242   */\n      dup6\n        /* \"#utility.yul\":3226:3232   */\n      dup3\n        /* \"#utility.yul\":3215:3224   */\n      dup7\n        /* \"#utility.yul\":3211:3233   */\n      add\n        /* \"#utility.yul\":3190:3243   */\n      tag_72\n      jump\t// in\n    tag_142:\n        /* \"#utility.yul\":3180:3243   */\n      swap3\n      pop\n        /* \"#utility.yul\":3136:3253   */\n      pop\n        /* \"#utility.yul\":3320:3322   */\n      0x20\n        /* \"#utility.yul\":3309:3318   */\n      dup4\n        /* \"#utility.yul\":3305:3323   */\n      add\n        /* \"#utility.yul\":3292:3324   */\n      calldataload\n        /* \"#utility.yul\":3351:3369   */\n      0xffffffffffffffff\n        /* \"#utility.yul\":3343:3349   */\n      dup2\n        /* \"#utility.yul\":3340:3370   */\n      gt\n        /* \"#utility.yul\":3337:3454   */\n      iszero\n      tag_143\n      jumpi\n        /* \"#utility.yul\":3373:3452   */\n      tag_144\n      tag_69\n      jump\t// in\n    tag_144:\n        /* \"#utility.yul\":3337:3454   */\n    tag_143:\n        /* \"#utility.yul\":3478:3541   */\n      tag_145\n        /* \"#utility.yul\":3533:3540   */\n      dup6\n        /* \"#utility.yul\":3524:3530   */\n      dup3\n        /* \"#utility.yul\":3513:3522   */\n      dup7\n        /* \"#utility.yul\":3509:3531   */\n      add\n        /* \"#utility.yul\":3478:3541   */\n      tag_82\n      jump\t// in\n    tag_145:\n        /* \"#utility.yul\":3468:3541   */\n      swap2\n      pop\n        /* \"#utility.yul\":3263:3551   */\n      pop\n        /* \"#utility.yul\":2904:3558   */\n      swap3\n      pop\n      swap3\n      swap1\n      pop\n      jump\t// out\n        /* \"#utility.yul\":3564:3690   */\n    tag_83:\n        /* \"#utility.yul\":3601:3608   */\n      0x00\n        /* \"#utility.yul\":3641:3683   */\n      0xffffffffffffffffffffffffffffffffffffffff\n        /* \"#utility.yul\":3634:3639   */\n      dup3\n        /* \"#utility.yul\":3630:3684   */\n      and\n        /* \"#utility.yul\":3619:3684   */\n      swap1\n      pop\n        /* \"#utility.yul\":3564:3690   */\n      swap2\n      swap1\n      pop\n      jump\t// out\n        /* \"#utility.yul\":3696:3792   */\n    tag_84:\n        /* \"#utility.yul\":3733:3740   */\n      0x00\n        /* \"#utility.yul\":3762:3786   */\n      tag_148\n        /* \"#utility.yul\":3780:3785   */\n      dup3\n        /* \"#utility.yul\":3762:3786   */\n      tag_83\n      jump\t// in\n    tag_148:\n        /* \"#utility.yul\":3751:3786   */\n      swap1\n      pop\n        /* \"#utility.yul\":3696:3792   */\n      swap2\n      swap1\n      pop\n      jump\t// out\n        /* \"#utility.yul\":3798:3920   */\n    tag_85:\n        /* \"#utility.yul\":3871:3895   */\n      tag_150\n        /* \"#utility.yul\":3889:3894   */\n      dup2\n        /* \"#utility.yul\":3871:3895   */\n      tag_84\n      jump\t// in\n    tag_150:\n        /* \"#utility.yul\":3864:3869   */\n      dup2\n        /* \"#utility.yul\":3861:3896   */\n      eq\n        /* \"#utility.yul\":3851:3914   */\n      tag_151\n      jumpi\n        /* \"#utility.yul\":3910:3911   */\n      0x00\n        /* \"#utility.yul\":3907:3908   */\n      dup1\n        /* \"#utility.yul\":3900:3912   */\n      revert\n        /* \"#utility.yul\":3851:3914   */\n    tag_151:\n        /* \"#utility.yul\":3798:3920   */\n      pop\n      jump\t// out\n        /* \"#utility.yul\":3926:4065   */\n    tag_86:\n        /* \"#utility.yul\":3972:3977   */\n      0x00\n        /* \"#utility.yul\":4010:4016   */\n      dup2\n        /* \"#utility.yul\":3997:4017   */\n      calldataload\n        /* \"#utility.yul\":3988:4017   */\n      swap1\n      pop\n        /* \"#utility.yul\":4026:4059   */\n      tag_153\n        /* \"#utility.yul\":4053:4058   */\n      dup2\n        /* \"#utility.yul\":4026:4059   */\n      tag_85\n      jump\t// in\n    tag_153:\n        /* \"#utility.yul\":3926:4065   */\n      swap3\n      swap2\n      pop\n      pop\n      jump\t// out\n        /* \"#utility.yul\":4071:4545   */\n    tag_13:\n        /* \"#utility.yul\":4139:4145   */\n      0x00\n        /* \"#utility.yul\":4147:4153   */\n      dup1\n        /* \"#utility.yul\":4196:4198   */\n      0x40\n        /* \"#utility.yul\":4184:4193   */\n      dup4\n        /* \"#utility.yul\":4175:4182   */\n      dup6\n        /* \"#utility.yul\":4171:4194   */\n      sub\n        /* \"#utility.yul\":4167:4199   */\n      slt\n        /* \"#utility.yul\":4164:4283   */\n      iszero\n      tag_155\n      jumpi\n        /* \"#utility.yul\":4202:4281   */\n      tag_156\n      tag_68\n      jump\t// in\n    tag_156:\n        /* \"#utility.yul\":4164:4283   */\n    tag_155:\n        /* \"#utility.yul\":4322:4323   */\n      0x00\n        /* \"#utility.yul\":4347:4400   */\n      tag_157\n        /* \"#utility.yul\":4392:4399   */\n      dup6\n        /* \"#utility.yul\":4383:4389   */\n      dup3\n        /* \"#utility.yul\":4372:4381   */\n      dup7\n        /* \"#utility.yul\":4368:4390   */\n      add\n        /* \"#utility.yul\":4347:4400   */\n      tag_72\n      jump\t// in\n    tag_157:\n        /* \"#utility.yul\":4337:4400   */\n      swap3\n      pop\n        /* \"#utility.yul\":4293:4410   */\n      pop\n        /* \"#utility.yul\":4449:4451   */\n      0x20\n        /* \"#utility.yul\":4475:4528   */\n      tag_158\n        /* \"#utility.yul\":4520:4527   */\n      dup6\n        /* \"#utility.yul\":4511:4517   */\n      dup3\n        /* \"#utility.yul\":4500:4509   */\n      dup7\n        /* \"#utility.yul\":4496:4518   */\n      add\n        /* \"#utility.yul\":4475:4528   */\n      tag_86\n      jump\t// in\n    tag_158:\n        /* \"#utility.yul\":4465:4528   */\n      swap2\n      pop\n        /* \"#utility.yul\":4420:4538   */\n      pop\n        /* \"#utility.yul\":4071:4545   */\n      swap3\n      pop\n      swap3\n      swap1\n      pop\n      jump\t// out\n        /* \"#utility.yul\":4551:4880   */\n    tag_17:\n        /* \"#utility.yul\":4610:4616   */\n      0x00\n        /* \"#utility.yul\":4659:4661   */\n      0x20\n        /* \"#utility.yul\":4647:4656   */\n      dup3\n        /* \"#utility.yul\":4638:4645   */\n      dup5\n        /* \"#utility.yul\":4634:4657   */\n      sub\n        /* \"#utility.yul\":4630:4662   */\n      slt\n        /* \"#utility.yul\":4627:4746   */\n      iszero\n      tag_160\n      jumpi\n        /* \"#utility.yul\":4665:4744   */\n      tag_161\n      tag_68\n      jump\t// in\n    tag_161:\n        /* \"#utility.yul\":4627:4746   */\n    tag_160:\n        /* \"#utility.yul\":4785:4786   */\n      0x00\n        /* \"#utility.yul\":4810:4863   */\n      tag_162\n        /* \"#utility.yul\":4855:4862   */\n      dup5\n        /* \"#utility.yul\":4846:4852   */\n      dup3\n        /* \"#utility.yul\":4835:4844   */\n      dup6\n        /* \"#utility.yul\":4831:4853   */\n      add\n        /* \"#utility.yul\":4810:4863   */\n      tag_72\n      jump\t// in\n    tag_162:\n        /* \"#utility.yul\":4800:4863   */\n      swap2\n      pop\n        /* \"#utility.yul\":4756:4873   */\n      pop\n        /* \"#utility.yul\":4551:4880   */\n      swap3\n      swap2\n      pop\n      pop\n      jump\t// out\n        /* \"#utility.yul\":4886:4985   */\n    tag_87:\n        /* \"#utility.yul\":4938:4944   */\n      0x00\n        /* \"#utility.yul\":4972:4977   */\n      dup2\n        /* \"#utility.yul\":4966:4978   */\n      mload\n        /* \"#utility.yul\":4956:4978   */\n      swap1\n      pop\n        /* \"#utility.yul\":4886:4985   */\n      swap2\n      swap1\n      pop\n      jump\t// out\n        /* \"#utility.yul\":4991:5160   */\n    tag_88:\n        /* \"#utility.yul\":5075:5086   */\n      0x00\n        /* \"#utility.yul\":5109:5115   */\n      dup3\n        /* \"#utility.yul\":5104:5107   */\n      dup3\n        /* \"#utility.yul\":5097:5116   */\n      mstore\n        /* \"#utility.yul\":5149:5153   */\n      0x20\n        /* \"#utility.yul\":5144:5147   */\n      dup3\n        /* \"#utility.yul\":5140:5154   */\n      add\n        /* \"#utility.yul\":5125:5154   */\n      swap1\n      pop\n        /* \"#utility.yul\":4991:5160   */\n      swap3\n      swap2\n      pop\n      pop\n      jump\t// out\n        /* \"#utility.yul\":5166:5473   */\n    tag_89:\n        /* \"#utility.yul\":5234:5235   */\n      0x00\n        /* \"#utility.yul\":5244:5357   */\n    tag_166:\n        /* \"#utility.yul\":5258:5264   */\n      dup4\n        /* \"#utility.yul\":5255:5256   */\n      dup2\n        /* \"#utility.yul\":5252:5265   */\n      lt\n        /* \"#utility.yul\":5244:5357   */\n      iszero\n      tag_168\n      jumpi\n        /* \"#utility.yul\":5343:5344   */\n      dup1\n        /* \"#utility.yul\":5338:5341   */\n      dup3\n        /* \"#utility.yul\":5334:5345   */\n      add\n        /* \"#utility.yul\":5328:5346   */\n      mload\n        /* \"#utility.yul\":5324:5325   */\n      dup2\n        /* \"#utility.yul\":5319:5322   */\n      dup5\n        /* \"#utility.yul\":5315:5326   */\n      add\n        /* \"#utility.yul\":5308:5347   */\n      mstore\n        /* \"#utility.yul\":5280:5282   */\n      0x20\n        /* \"#utility.yul\":5277:5278   */\n      dup2\n        /* \"#utility.yul\":5273:5283   */\n      add\n        /* \"#utility.yul\":5268:5283   */\n      swap1\n      pop\n        /* \"#utility.yul\":5244:5357   */\n      jump(tag_166)\n    tag_168:\n        /* \"#utility.yul\":5375:5381   */\n      dup4\n        /* \"#utility.yul\":5372:5373   */\n      dup2\n        /* \"#utility.yul\":5369:5382   */\n      gt\n        /* \"#utility.yul\":5366:5467   */\n      iszero\n      tag_169\n      jumpi\n        /* \"#utility.yul\":5455:5456   */\n      0x00\n        /* \"#utility.yul\":5446:5452   */\n      dup5\n        /* \"#utility.yul\":5441:5444   */\n      dup5\n        /* \"#utility.yul\":5437:5453   */\n      add\n        /* \"#utility.yul\":5430:5457   */\n      mstore\n        /* \"#utility.yul\":5366:5467   */\n    tag_169:\n        /* \"#utility.yul\":5215:5473   */\n      pop\n        /* \"#utility.yul\":5166:5473   */\n      pop\n      pop\n      pop\n      jump\t// out\n        /* \"#utility.yul\":5479:5843   */\n    tag_90:\n        /* \"#utility.yul\":5567:5570   */\n      0x00\n        /* \"#utility.yul\":5595:5634   */\n      tag_171\n        /* \"#utility.yul\":5628:5633   */\n      dup3\n        /* \"#utility.yul\":5595:5634   */\n      tag_87\n      jump\t// in\n    tag_171:\n        /* \"#utility.yul\":5650:5721   */\n      tag_172\n        /* \"#utility.yul\":5714:5720   */\n      dup2\n        /* \"#utility.yul\":5709:5712   */\n      dup6\n        /* \"#utility.yul\":5650:5721   */\n      tag_88\n      jump\t// in\n    tag_172:\n        /* \"#utility.yul\":5643:5721   */\n      swap4\n      pop\n        /* \"#utility.yul\":5730:5782   */\n      tag_173\n        /* \"#utility.yul\":5775:5781   */\n      dup2\n        /* \"#utility.yul\":5770:5773   */\n      dup6\n        /* \"#utility.yul\":5763:5767   */\n      0x20\n        /* \"#utility.yul\":5756:5761   */\n      dup7\n        /* \"#utility.yul\":5752:5768   */\n      add\n        /* \"#utility.yul\":5730:5782   */\n      tag_89\n      jump\t// in\n    tag_173:\n        /* \"#utility.yul\":5807:5836   */\n      tag_174\n        /* \"#utility.yul\":5829:5835   */\n      dup2\n        /* \"#utility.yul\":5807:5836   */\n      tag_75\n      jump\t// in\n    tag_174:\n        /* \"#utility.yul\":5802:5805   */\n      dup5\n        /* \"#utility.yul\":5798:5837   */\n      add\n        /* \"#utility.yul\":5791:5837   */\n      swap2\n      pop\n        /* \"#utility.yul\":5571:5843   */\n      pop\n        /* \"#utility.yul\":5479:5843   */\n      swap3\n      swap2\n      pop\n      pop\n      jump\t// out\n        /* \"#utility.yul\":5849:5967   */\n    tag_91:\n        /* \"#utility.yul\":5936:5960   */\n      tag_176\n        /* \"#utility.yul\":5954:5959   */\n      dup2\n        /* \"#utility.yul\":5936:5960   */\n      tag_84\n      jump\t// in\n    tag_176:\n        /* \"#utility.yul\":5931:5934   */\n      dup3\n        /* \"#utility.yul\":5924:5961   */\n      mstore\n        /* \"#utility.yul\":5849:5967   */\n      pop\n      pop\n      jump\t// out\n        /* \"#utility.yul\":5973:6063   */\n    tag_92:\n        /* \"#utility.yul\":6007:6014   */\n      0x00\n        /* \"#utility.yul\":6050:6055   */\n      dup2\n        /* \"#utility.yul\":6043:6056   */\n      iszero\n        /* \"#utility.yul\":6036:6057   */\n      iszero\n        /* \"#utility.yul\":6025:6057   */\n      swap1\n      pop\n        /* \"#utility.yul\":5973:6063   */\n      swap2\n      swap1\n      pop\n      jump\t// out\n        /* \"#utility.yul\":6069:6178   */\n    tag_93:\n        /* \"#utility.yul\":6150:6171   */\n      tag_179\n        /* \"#utility.yul\":6165:6170   */\n      dup2\n        /* \"#utility.yul\":6150:6171   */\n      tag_92\n      jump\t// in\n    tag_179:\n        /* \"#utility.yul\":6145:6148   */\n      dup3\n        /* \"#utility.yul\":6138:6172   */\n      mstore\n        /* \"#utility.yul\":6069:6178   */\n      pop\n      pop\n      jump\t// out\n        /* \"#utility.yul\":6184:6705   */\n    tag_20:\n        /* \"#utility.yul\":6347:6351   */\n      0x00\n        /* \"#utility.yul\":6385:6387   */\n      0x60\n        /* \"#utility.yul\":6374:6383   */\n      dup3\n        /* \"#utility.yul\":6370:6388   */\n      add\n        /* \"#utility.yul\":6362:6388   */\n      swap1\n      pop\n        /* \"#utility.yul\":6434:6443   */\n      dup2\n        /* \"#utility.yul\":6428:6432   */\n      dup2\n        /* \"#utility.yul\":6424:6444   */\n      sub\n        /* \"#utility.yul\":6420:6421   */\n      0x00\n        /* \"#utility.yul\":6409:6418   */\n      dup4\n        /* \"#utility.yul\":6405:6422   */\n      add\n        /* \"#utility.yul\":6398:6445   */\n      mstore\n        /* \"#utility.yul\":6462:6540   */\n      tag_181\n        /* \"#utility.yul\":6535:6539   */\n      dup2\n        /* \"#utility.yul\":6526:6532   */\n      dup7\n        /* \"#utility.yul\":6462:6540   */\n      tag_90\n      jump\t// in\n    tag_181:\n        /* \"#utility.yul\":6454:6540   */\n      swap1\n      pop\n        /* \"#utility.yul\":6550:6622   */\n      tag_182\n        /* \"#utility.yul\":6618:6620   */\n      0x20\n        /* \"#utility.yul\":6607:6616   */\n      dup4\n        /* \"#utility.yul\":6603:6621   */\n      add\n        /* \"#utility.yul\":6594:6600   */\n      dup6\n        /* \"#utility.yul\":6550:6622   */\n      tag_91\n      jump\t// in\n    tag_182:\n        /* \"#utility.yul\":6632:6698   */\n      tag_183\n        /* \"#utility.yul\":6694:6696   */\n      0x40\n        /* \"#utility.yul\":6683:6692   */\n      dup4\n        /* \"#utility.yul\":6679:6697   */\n      add\n        /* \"#utility.yul\":6670:6676   */\n      dup5\n        /* \"#utility.yul\":6632:6698   */\n      tag_93\n      jump\t// in\n    tag_183:\n        /* \"#utility.yul\":6184:6705   */\n      swap5\n      swap4\n      pop\n      pop\n      pop\n      pop\n      jump\t// out\n        /* \"#utility.yul\":6711:6940   */\n    tag_94:\n        /* \"#utility.yul\":6851:6885   */\n      0x4469676974616c2061737365742077697468207468697320494420616c726561\n        /* \"#utility.yul\":6847:6848   */\n      0x00\n        /* \"#utility.yul\":6839:6845   */\n      dup3\n        /* \"#utility.yul\":6835:6849   */\n      add\n        /* \"#utility.yul\":6828:6886   */\n      mstore\n        /* \"#utility.yul\":6920:6932   */\n      0x6479206578697374732e00000000000000000000000000000000000000000000\n        /* \"#utility.yul\":6915:6917   */\n      0x20\n        /* \"#utility.yul\":6907:6913   */\n      dup3\n        /* \"#utility.yul\":6903:6918   */\n      add\n        /* \"#utility.yul\":6896:6933   */\n      mstore\n        /* \"#utility.yul\":6711:6940   */\n      pop\n      jump\t// out\n        /* \"#utility.yul\":6946:7312   */\n    tag_95:\n        /* \"#utility.yul\":7088:7091   */\n      0x00\n        /* \"#utility.yul\":7109:7176   */\n      tag_186\n        /* \"#utility.yul\":7173:7175   */\n      0x2a\n        /* \"#utility.yul\":7168:7171   */\n      dup4\n        /* \"#utility.yul\":7109:7176   */\n      tag_88\n      jump\t// in\n    tag_186:\n        /* \"#utility.yul\":7102:7176   */\n      swap2\n      pop\n        /* \"#utility.yul\":7185:7278   */\n      tag_187\n        /* \"#utility.yul\":7274:7277   */\n      dup3\n        /* \"#utility.yul\":7185:7278   */\n      tag_94\n      jump\t// in\n    tag_187:\n        /* \"#utility.yul\":7303:7305   */\n      0x40\n        /* \"#utility.yul\":7298:7301   */\n      dup3\n        /* \"#utility.yul\":7294:7306   */\n      add\n        /* \"#utility.yul\":7287:7306   */\n      swap1\n      pop\n        /* \"#utility.yul\":6946:7312   */\n      swap2\n      swap1\n      pop\n      jump\t// out\n        /* \"#utility.yul\":7318:7737   */\n    tag_27:\n        /* \"#utility.yul\":7484:7488   */\n      0x00\n        /* \"#utility.yul\":7522:7524   */\n      0x20\n        /* \"#utility.yul\":7511:7520   */\n      dup3\n        /* \"#utility.yul\":7507:7525   */\n      add\n        /* \"#utility.yul\":7499:7525   */\n      swap1\n      pop\n        /* \"#utility.yul\":7571:7580   */\n      dup2\n        /* \"#utility.yul\":7565:7569   */\n      dup2\n        /* \"#utility.yul\":7561:7581   */\n      sub\n        /* \"#utility.yul\":7557:7558   */\n      0x00\n        /* \"#utility.yul\":7546:7555   */\n      dup4\n        /* \"#utility.yul\":7542:7559   */\n      add\n        /* \"#utility.yul\":7535:7582   */\n      mstore\n        /* \"#utility.yul\":7599:7730   */\n      tag_189\n        /* \"#utility.yul\":7725:7729   */\n      dup2\n        /* \"#utility.yul\":7599:7730   */\n      tag_95\n      jump\t// in\n    tag_189:\n        /* \"#utility.yul\":7591:7730   */\n      swap1\n      pop\n        /* \"#utility.yul\":7318:7737   */\n      swap2\n      swap1\n      pop\n      jump\t// out\n        /* \"#utility.yul\":7743:8056   */\n    tag_31:\n        /* \"#utility.yul\":7856:7860   */\n      0x00\n        /* \"#utility.yul\":7894:7896   */\n      0x20\n        /* \"#utility.yul\":7883:7892   */\n      dup3\n        /* \"#utility.yul\":7879:7897   */\n      add\n        /* \"#utility.yul\":7871:7897   */\n      swap1\n      pop\n        /* \"#utility.yul\":7943:7952   */\n      dup2\n        /* \"#utility.yul\":7937:7941   */\n      dup2\n        /* \"#utility.yul\":7933:7953   */\n      sub\n        /* \"#utility.yul\":7929:7930   */\n      0x00\n        /* \"#utility.yul\":7918:7927   */\n      dup4\n        /* \"#utility.yul\":7914:7931   */\n      add\n        /* \"#utility.yul\":7907:7954   */\n      mstore\n        /* \"#utility.yul\":7971:8049   */\n      tag_191\n        /* \"#utility.yul\":8044:8048   */\n      dup2\n        /* \"#utility.yul\":8035:8041   */\n      dup5\n        /* \"#utility.yul\":7971:8049   */\n      tag_90\n      jump\t// in\n    tag_191:\n        /* \"#utility.yul\":7963:8049   */\n      swap1\n      pop\n        /* \"#utility.yul\":7743:8056   */\n      swap3\n      swap2\n      pop\n      pop\n      jump\t// out\n        /* \"#utility.yul\":8062:8291   */\n    tag_96:\n        /* \"#utility.yul\":8202:8236   */\n      0x4469676974616c2061737365742077697468207468697320494420646f657320\n        /* \"#utility.yul\":8198:8199   */\n      0x00\n        /* \"#utility.yul\":8190:8196   */\n      dup3\n        /* \"#utility.yul\":8186:8200   */\n      add\n        /* \"#utility.yul\":8179:8237   */\n      mstore\n        /* \"#utility.yul\":8271:8283   */\n      0x6e6f742065786973742e00000000000000000000000000000000000000000000\n        /* \"#utility.yul\":8266:8268   */\n      0x20\n        /* \"#utility.yul\":8258:8264   */\n      dup3\n        /* \"#utility.yul\":8254:8269   */\n      add\n        /* \"#utility.yul\":8247:8284   */\n      mstore\n        /* \"#utility.yul\":8062:8291   */\n      pop\n      jump\t// out\n        /* \"#utility.yul\":8297:8663   */\n    tag_97:\n        /* \"#utility.yul\":8439:8442   */\n      0x00\n        /* \"#utility.yul\":8460:8527   */\n      tag_194\n        /* \"#utility.yul\":8524:8526   */\n      0x2a\n        /* \"#utility.yul\":8519:8522   */\n      dup4\n        /* \"#utility.yul\":8460:8527   */\n      tag_88\n      jump\t// in\n    tag_194:\n        /* \"#utility.yul\":8453:8527   */\n      swap2\n      pop\n        /* \"#utility.yul\":8536:8629   */\n      tag_195\n        /* \"#utility.yul\":8625:8628   */\n      dup3\n        /* \"#utility.yul\":8536:8629   */\n      tag_96\n      jump\t// in\n    tag_195:\n        /* \"#utility.yul\":8654:8656   */\n      0x40\n        /* \"#utility.yul\":8649:8652   */\n      dup3\n        /* \"#utility.yul\":8645:8657   */\n      add\n        /* \"#utility.yul\":8638:8657   */\n      swap1\n      pop\n        /* \"#utility.yul\":8297:8663   */\n      swap2\n      swap1\n      pop\n      jump\t// out\n        /* \"#utility.yul\":8669:9088   */\n    tag_35:\n        /* \"#utility.yul\":8835:8839   */\n      0x00\n        /* \"#utility.yul\":8873:8875   */\n      0x20\n        /* \"#utility.yul\":8862:8871   */\n      dup3\n        /* \"#utility.yul\":8858:8876   */\n      add\n        /* \"#utility.yul\":8850:8876   */\n      swap1\n      pop\n        /* \"#utility.yul\":8922:8931   */\n      dup2\n        /* \"#utility.yul\":8916:8920   */\n      dup2\n        /* \"#utility.yul\":8912:8932   */\n      sub\n        /* \"#utility.yul\":8908:8909   */\n      0x00\n        /* \"#utility.yul\":8897:8906   */\n      dup4\n        /* \"#utility.yul\":8893:8910   */\n      add\n        /* \"#utility.yul\":8886:8933   */\n      mstore\n        /* \"#utility.yul\":8950:9081   */\n      tag_197\n        /* \"#utility.yul\":9076:9080   */\n      dup2\n        /* \"#utility.yul\":8950:9081   */\n      tag_97\n      jump\t// in\n    tag_197:\n        /* \"#utility.yul\":8942:9081   */\n      swap1\n      pop\n        /* \"#utility.yul\":8669:9088   */\n      swap2\n      swap1\n      pop\n      jump\t// out\n        /* \"#utility.yul\":9094:9327   */\n    tag_98:\n        /* \"#utility.yul\":9234:9268   */\n      0x4f6e6c79207468652063757272656e74206f776e65722063616e207472616e73\n        /* \"#utility.yul\":9230:9231   */\n      0x00\n        /* \"#utility.yul\":9222:9228   */\n      dup3\n        /* \"#utility.yul\":9218:9232   */\n      add\n        /* \"#utility.yul\":9211:9269   */\n      mstore\n        /* \"#utility.yul\":9303:9319   */\n      0x666572206f776e6572736869702e000000000000000000000000000000000000\n        /* \"#utility.yul\":9298:9300   */\n      0x20\n        /* \"#utility.yul\":9290:9296   */\n      dup3\n        /* \"#utility.yul\":9286:9301   */\n      add\n        /* \"#utility.yul\":9279:9320   */\n      mstore\n        /* \"#utility.yul\":9094:9327   */\n      pop\n      jump\t// out\n        /* \"#utility.yul\":9333:9699   */\n    tag_99:\n        /* \"#utility.yul\":9475:9478   */\n      0x00\n        /* \"#utility.yul\":9496:9563   */\n      tag_200\n        /* \"#utility.yul\":9560:9562   */\n      0x2e\n        /* \"#utility.yul\":9555:9558   */\n      dup4\n        /* \"#utility.yul\":9496:9563   */\n      tag_88\n      jump\t// in\n    tag_200:\n        /* \"#utility.yul\":9489:9563   */\n      swap2\n      pop\n        /* \"#utility.yul\":9572:9665   */\n      tag_201\n        /* \"#utility.yul\":9661:9664   */\n      dup3\n        /* \"#utility.yul\":9572:9665   */\n      tag_98\n      jump\t// in\n    tag_201:\n        /* \"#utility.yul\":9690:9692   */\n      0x40\n        /* \"#utility.yul\":9685:9688   */\n      dup3\n        /* \"#utility.yul\":9681:9693   */\n      add\n        /* \"#utility.yul\":9674:9693   */\n      swap1\n      pop\n        /* \"#utility.yul\":9333:9699   */\n      swap2\n      swap1\n      pop\n      jump\t// out\n        /* \"#utility.yul\":9705:10124   */\n    tag_38:\n        /* \"#utility.yul\":9871:9875   */\n      0x00\n        /* \"#utility.yul\":9909:9911   */\n      0x20\n        /* \"#utility.yul\":9898:9907   */\n      dup3\n        /* \"#utility.yul\":9894:9912   */\n      add\n        /* \"#utility.yul\":9886:9912   */\n      swap1\n      pop\n        /* \"#utility.yul\":9958:9967   */\n      dup2\n        /* \"#utility.yul\":9952:9956   */\n      dup2\n        /* \"#utility.yul\":9948:9968   */\n      sub\n        /* \"#utility.yul\":9944:9945   */\n      0x00\n        /* \"#utility.yul\":9933:9942   */\n      dup4\n        /* \"#utility.yul\":9929:9946   */\n      add\n        /* \"#utility.yul\":9922:9969   */\n      mstore\n        /* \"#utility.yul\":9986:10117   */\n      tag_203\n        /* \"#utility.yul\":10112:10116   */\n      dup2\n        /* \"#utility.yul\":9986:10117   */\n      tag_99\n      jump\t// in\n    tag_203:\n        /* \"#utility.yul\":9978:10117   */\n      swap1\n      pop\n        /* \"#utility.yul\":9705:10124   */\n      swap2\n      swap1\n      pop\n      jump\t// out\n        /* \"#utility.yul\":10130:10310   */\n    tag_100:\n        /* \"#utility.yul\":10178:10255   */\n      0x4e487b7100000000000000000000000000000000000000000000000000000000\n        /* \"#utility.yul\":10175:10176   */\n      0x00\n        /* \"#utility.yul\":10168:10256   */\n      mstore\n        /* \"#utility.yul\":10275:10279   */\n      0x22\n        /* \"#utility.yul\":10272:10273   */\n      0x04\n        /* \"#utility.yul\":10265:10280   */\n      mstore\n        /* \"#utility.yul\":10299:10303   */\n      0x24\n        /* \"#utility.yul\":10296:10297   */\n      0x00\n        /* \"#utility.yul\":10289:10304   */\n      revert\n        /* \"#utility.yul\":10316:10636   */\n    tag_40:\n        /* \"#utility.yul\":10360:10366   */\n      0x00\n        /* \"#utility.yul\":10397:10398   */\n      0x02\n        /* \"#utility.yul\":10391:10395   */\n      dup3\n        /* \"#utility.yul\":10387:10399   */\n      div\n        /* \"#utility.yul\":10377:10399   */\n      swap1\n      pop\n        /* \"#utility.yul\":10444:10445   */\n      0x01\n        /* \"#utility.yul\":10438:10442   */\n      dup3\n        /* \"#utility.yul\":10434:10446   */\n      and\n        /* \"#utility.yul\":10465:10483   */\n      dup1\n        /* \"#utility.yul\":10455:10536   */\n      tag_206\n      jumpi\n        /* \"#utility.yul\":10521:10525   */\n      0x7f\n        /* \"#utility.yul\":10513:10519   */\n      dup3\n        /* \"#utility.yul\":10509:10526   */\n      and\n        /* \"#utility.yul\":10499:10526   */\n      swap2\n      pop\n        /* \"#utility.yul\":10455:10536   */\n    tag_206:\n        /* \"#utility.yul\":10583:10585   */\n      0x20\n        /* \"#utility.yul\":10575:10581   */\n      dup3\n        /* \"#utility.yul\":10572:10586   */\n      lt\n        /* \"#utility.yul\":10552:10570   */\n      dup2\n        /* \"#utility.yul\":10549:10587   */\n      eq\n        /* \"#utility.yul\":10546:10630   */\n      iszero\n      tag_207\n      jumpi\n        /* \"#utility.yul\":10602:10620   */\n      tag_208\n      tag_100\n      jump\t// in\n    tag_208:\n        /* \"#utility.yul\":10546:10630   */\n    tag_207:\n        /* \"#utility.yul\":10367:10636   */\n      pop\n        /* \"#utility.yul\":10316:10636   */\n      swap2\n      swap1\n      pop\n      jump\t// out\n        /* \"#utility.yul\":10642:10871   */\n    tag_101:\n        /* \"#utility.yul\":10782:10816   */\n      0x4f6e6c7920746865206f776e65722063616e2064656c65746520612064696769\n        /* \"#utility.yul\":10778:10779   */\n      0x00\n        /* \"#utility.yul\":10770:10776   */\n      dup3\n        /* \"#utility.yul\":10766:10780   */\n      add\n        /* \"#utility.yul\":10759:10817   */\n      mstore\n        /* \"#utility.yul\":10851:10863   */\n      0x74616c2061737365742e00000000000000000000000000000000000000000000\n        /* \"#utility.yul\":10846:10848   */\n      0x20\n        /* \"#utility.yul\":10838:10844   */\n      dup3\n        /* \"#utility.yul\":10834:10849   */\n      add\n        /* \"#utility.yul\":10827:10864   */\n      mstore\n        /* \"#utility.yul\":10642:10871   */\n      pop\n      jump\t// out\n        /* \"#utility.yul\":10877:11243   */\n    tag_102:\n        /* \"#utility.yul\":11019:11022   */\n      0x00\n        /* \"#utility.yul\":11040:11107   */\n      tag_211\n        /* \"#utility.yul\":11104:11106   */\n      0x2a\n        /* \"#utility.yul\":11099:11102   */\n      dup4\n        /* \"#utility.yul\":11040:11107   */\n      tag_88\n      jump\t// in\n    tag_211:\n        /* \"#utility.yul\":11033:11107   */\n      swap2\n      pop\n        /* \"#utility.yul\":11116:11209   */\n      tag_212\n        /* \"#utility.yul\":11205:11208   */\n      dup3\n        /* \"#utility.yul\":11116:11209   */\n      tag_101\n      jump\t// in\n    tag_212:\n        /* \"#utility.yul\":11234:11236   */\n      0x40\n        /* \"#utility.yul\":11229:11232   */\n      dup3\n        /* \"#utility.yul\":11225:11237   */\n      add\n        /* \"#utility.yul\":11218:11237   */\n      swap1\n      pop\n        /* \"#utility.yul\":10877:11243   */\n      swap2\n      swap1\n      pop\n      jump\t// out\n        /* \"#utility.yul\":11249:11668   */\n    tag_50:\n        /* \"#utility.yul\":11415:11419   */\n      0x00\n        /* \"#utility.yul\":11453:11455   */\n      0x20\n        /* \"#utility.yul\":11442:11451   */\n      dup3\n        /* \"#utility.yul\":11438:11456   */\n      add\n        /* \"#utility.yul\":11430:11456   */\n      swap1\n      pop\n        /* \"#utility.yul\":11502:11511   */\n      dup2\n        /* \"#utility.yul\":11496:11500   */\n      dup2\n        /* \"#utility.yul\":11492:11512   */\n      sub\n        /* \"#utility.yul\":11488:11489   */\n      0x00\n        /* \"#utility.yul\":11477:11486   */\n      dup4\n        /* \"#utility.yul\":11473:11490   */\n      add\n        /* \"#utility.yul\":11466:11513   */\n      mstore\n        /* \"#utility.yul\":11530:11661   */\n      tag_214\n        /* \"#utility.yul\":11656:11660   */\n      dup2\n        /* \"#utility.yul\":11530:11661   */\n      tag_102\n      jump\t// in\n    tag_214:\n        /* \"#utility.yul\":11522:11661   */\n      swap1\n      pop\n        /* \"#utility.yul\":11249:11668   */\n      swap2\n      swap1\n      pop\n      jump\t// out\n\n    auxdata: 0xa26469706673582212202e53d82e4480aa3514f83b08723f850f5defa3d423591d444bf5073801bde3a364736f6c634300080b0033\n}\n",
				"bytecode": {
					"linkReferences": {},
					"object": "608060405234801561001057600080fd5b50610d89806100206000396000f3fe608060405234801561001057600080fd5b506004361061004c5760003560e01c806321fd954e1461005157806329507f731461006d578063bd1b022114610089578063d2457f66146100bb575b600080fd5b61006b60048036038101906100669190610871565b6100d7565b005b6100876004803603810190610082919061092b565b61025a565b005b6100a3600480360381019061009e919061096b565b6103b7565b6040516100b293929190610a4a565b60405180910390f35b6100d560048036038101906100d0919061096b565b610496565b005b60008083815260200190815260200160002060010160149054906101000a900460ff161561013a576040517f08c379a000000000000000000000000000000000000000000000000000000000815260040161013190610afa565b60405180910390fd5b60405180606001604052808281526020013373ffffffffffffffffffffffffffffffffffffffff16815260200160011515815250600080848152602001908152602001600020600082015181600001908051906020019061019c9291906105fe565b5060208201518160010160006101000a81548173ffffffffffffffffffffffffffffffffffffffff021916908373ffffffffffffffffffffffffffffffffffffffff16021790555060408201518160010160146101000a81548160ff0219169083151502179055509050503373ffffffffffffffffffffffffffffffffffffffff16827f4bfc23985f6918f037c81d841aef03449eacd6fd45ae5c7056059ff0202da9e28360405161024e9190610b1a565b60405180910390a35050565b60008083815260200190815260200160002060010160149054906101000a900460ff166102bc576040517f08c379a00000000000000000000000000000000000000000000000000000000081526004016102b390610bae565b60405180910390fd5b3373ffffffffffffffffffffffffffffffffffffffff1660008084815260200190815260200160002060010160009054906101000a900473ffffffffffffffffffffffffffffffffffffffff1673ffffffffffffffffffffffffffffffffffffffff161461035f576040517f08c379a000000000000000000000000000000000000000000000000000000000815260040161035690610c40565b60405180910390fd5b8060008084815260200190815260200160002060010160006101000a81548173ffffffffffffffffffffffffffffffffffffffff021916908373ffffffffffffffffffffffffffffffffffffffff1602179055505050565b60006020528060005260406000206000915090508060000180546103da90610c8f565b80601f016020809104026020016040519081016040528092919081815260200182805461040690610c8f565b80156104535780601f1061042857610100808354040283529160200191610453565b820191906000526020600020905b81548152906001019060200180831161043657829003601f168201915b5050505050908060010160009054906101000a900473ffffffffffffffffffffffffffffffffffffffff16908060010160149054906101000a900460ff16905083565b60008082815260200190815260200160002060010160149054906101000a900460ff166104f8576040517f08c379a00000000000000000000000000000000000000000000000000000000081526004016104ef90610bae565b60405180910390fd5b3373ffffffffffffffffffffffffffffffffffffffff1660008083815260200190815260200160002060010160009054906101000a900473ffffffffffffffffffffffffffffffffffffffff1673ffffffffffffffffffffffffffffffffffffffff161461059b576040517f08c379a000000000000000000000000000000000000000000000000000000000815260040161059290610d33565b60405180910390fd5b600080828152602001908152602001600020600080820160006105be9190610684565b6001820160006101000a81549073ffffffffffffffffffffffffffffffffffffffff02191690556001820160146101000a81549060ff0219169055505050565b82805461060a90610c8f565b90600052602060002090601f01602090048101928261062c5760008555610673565b82601f1061064557805160ff1916838001178555610673565b82800160010185558215610673579182015b82811115610672578251825591602001919060010190610657565b5b50905061068091906106c4565b5090565b50805461069090610c8f565b6000825580601f106106a257506106c1565b601f0160209004906000526020600020908101906106c091906106c4565b5b50565b5b808211156106dd5760008160009055506001016106c5565b5090565b6000604051905090565b600080fd5b600080fd5b6000819050919050565b610708816106f5565b811461071357600080fd5b50565b600081359050610725816106ff565b92915050565b600080fd5b600080fd5b6000601f19601f8301169050919050565b7f4e487b7100000000000000000000000000000000000000000000000000000000600052604160045260246000fd5b61077e82610735565b810181811067ffffffffffffffff8211171561079d5761079c610746565b5b80604052505050565b60006107b06106e1565b90506107bc8282610775565b919050565b600067ffffffffffffffff8211156107dc576107db610746565b5b6107e582610735565b9050602081019050919050565b82818337600083830152505050565b600061081461080f846107c1565b6107a6565b9050828152602081018484840111156108305761082f610730565b5b61083b8482856107f2565b509392505050565b600082601f8301126108585761085761072b565b5b8135610868848260208601610801565b91505092915050565b60008060408385031215610888576108876106eb565b5b600061089685828601610716565b925050602083013567ffffffffffffffff8111156108b7576108b66106f0565b5b6108c385828601610843565b9150509250929050565b600073ffffffffffffffffffffffffffffffffffffffff82169050919050565b60006108f8826108cd565b9050919050565b610908816108ed565b811461091357600080fd5b50565b600081359050610925816108ff565b92915050565b60008060408385031215610942576109416106eb565b5b600061095085828601610716565b925050602061096185828601610916565b9150509250929050565b600060208284031215610981576109806106eb565b5b600061098f84828501610716565b91505092915050565b600081519050919050565b600082825260208201905092915050565b60005b838110156109d25780820151818401526020810190506109b7565b838111156109e1576000848401525b50505050565b60006109f282610998565b6109fc81856109a3565b9350610a0c8185602086016109b4565b610a1581610735565b840191505092915050565b610a29816108ed565b82525050565b60008115159050919050565b610a4481610a2f565b82525050565b60006060820190508181036000830152610a6481866109e7565b9050610a736020830185610a20565b610a806040830184610a3b565b949350505050565b7f4469676974616c2061737365742077697468207468697320494420616c72656160008201527f6479206578697374732e00000000000000000000000000000000000000000000602082015250565b6000610ae4602a836109a3565b9150610aef82610a88565b604082019050919050565b60006020820190508181036000830152610b1381610ad7565b9050919050565b60006020820190508181036000830152610b3481846109e7565b905092915050565b7f4469676974616c2061737365742077697468207468697320494420646f65732060008201527f6e6f742065786973742e00000000000000000000000000000000000000000000602082015250565b6000610b98602a836109a3565b9150610ba382610b3c565b604082019050919050565b60006020820190508181036000830152610bc781610b8b565b9050919050565b7f4f6e6c79207468652063757272656e74206f776e65722063616e207472616e7360008201527f666572206f776e6572736869702e000000000000000000000000000000000000602082015250565b6000610c2a602e836109a3565b9150610c3582610bce565b604082019050919050565b60006020820190508181036000830152610c5981610c1d565b9050919050565b7f4e487b7100000000000000000000000000000000000000000000000000000000600052602260045260246000fd5b60006002820490506001821680610ca757607f821691505b60208210811415610cbb57610cba610c60565b5b50919050565b7f4f6e6c7920746865206f776e65722063616e2064656c6574652061206469676960008201527f74616c2061737365742e00000000000000000000000000000000000000000000602082015250565b6000610d1d602a836109a3565b9150610d2882610cc1565b604082019050919050565b60006020820190508181036000830152610d4c81610d10565b905091905056fea26469706673582212202e53d82e4480aa3514f83b08723f850f5defa3d423591d444bf5073801bde3a364736f6c634300080b0033",
					"opcodes": "PUSH1 0x80 PUSH1 0x40 MSTORE CALLVALUE DUP1 ISZERO PUSH2 0x10 JUMPI PUSH1 0x0 DUP1 REVERT JUMPDEST POP PUSH2 0xD89 DUP1 PUSH2 0x20 PUSH1 0x0 CODECOPY PUSH1 0x0 RETURN INVALID PUSH1 0x80 PUSH1 0x40 MSTORE CALLVALUE DUP1 ISZERO PUSH2 0x10 JUMPI PUSH1 0x0 DUP1 REVERT JUMPDEST POP PUSH1 0x4 CALLDATASIZE LT PUSH2 0x4C JUMPI PUSH1 0x0 CALLDATALOAD PUSH1 0xE0 SHR DUP1 PUSH4 0x21FD954E EQ PUSH2 0x51 JUMPI DUP1 PUSH4 0x29507F73 EQ PUSH2 0x6D JUMPI DUP1 PUSH4 0xBD1B0221 EQ PUSH2 0x89 JUMPI DUP1 PUSH4 0xD2457F66 EQ PUSH2 0xBB JUMPI JUMPDEST PUSH1 0x0 DUP1 REVERT JUMPDEST PUSH2 0x6B PUSH1 0x4 DUP1 CALLDATASIZE SUB DUP2 ADD SWAP1 PUSH2 0x66 SWAP2 SWAP1 PUSH2 0x871 JUMP JUMPDEST PUSH2 0xD7 JUMP JUMPDEST STOP JUMPDEST PUSH2 0x87 PUSH1 0x4 DUP1 CALLDATASIZE SUB DUP2 ADD SWAP1 PUSH2 0x82 SWAP2 SWAP1 PUSH2 0x92B JUMP JUMPDEST PUSH2 0x25A JUMP JUMPDEST STOP JUMPDEST PUSH2 0xA3 PUSH1 0x4 DUP1 CALLDATASIZE SUB DUP2 ADD SWAP1 PUSH2 0x9E SWAP2 SWAP1 PUSH2 0x96B JUMP JUMPDEST PUSH2 0x3B7 JUMP JUMPDEST PUSH1 0x40 MLOAD PUSH2 0xB2 SWAP4 SWAP3 SWAP2 SWAP1 PUSH2 0xA4A JUMP JUMPDEST PUSH1 0x40 MLOAD DUP1 SWAP2 SUB SWAP1 RETURN JUMPDEST PUSH2 0xD5 PUSH1 0x4 DUP1 CALLDATASIZE SUB DUP2 ADD SWAP1 PUSH2 0xD0 SWAP2 SWAP1 PUSH2 0x96B JUMP JUMPDEST PUSH2 0x496 JUMP JUMPDEST STOP JUMPDEST PUSH1 0x0 DUP1 DUP4 DUP2 MSTORE PUSH1 0x20 ADD SWAP1 DUP2 MSTORE PUSH1 0x20 ADD PUSH1 0x0 KECCAK256 PUSH1 0x1 ADD PUSH1 0x14 SWAP1 SLOAD SWAP1 PUSH2 0x100 EXP SWAP1 DIV PUSH1 0xFF AND ISZERO PUSH2 0x13A JUMPI PUSH1 0x40 MLOAD PUSH32 0x8C379A000000000000000000000000000000000000000000000000000000000 DUP2 MSTORE PUSH1 0x4 ADD PUSH2 0x131 SWAP1 PUSH2 0xAFA JUMP JUMPDEST PUSH1 0x40 MLOAD DUP1 SWAP2 SUB SWAP1 REVERT JUMPDEST PUSH1 0x40 MLOAD DUP1 PUSH1 0x60 ADD PUSH1 0x40 MSTORE DUP1 DUP3 DUP2 MSTORE PUSH1 0x20 ADD CALLER PUSH20 0xFFFFFFFFFFFFFFFFFFFFFFFFFFFFFFFFFFFFFFFF AND DUP2 MSTORE PUSH1 0x20 ADD PUSH1 0x1 ISZERO ISZERO DUP2 MSTORE POP PUSH1 0x0 DUP1 DUP5 DUP2 MSTORE PUSH1 0x20 ADD SWAP1 DUP2 MSTORE PUSH1 0x20 ADD PUSH1 0x0 KECCAK256 PUSH1 0x0 DUP3 ADD MLOAD DUP2 PUSH1 0x0 ADD SWAP1 DUP1 MLOAD SWAP1 PUSH1 0x20 ADD SWAP1 PUSH2 0x19C SWAP3 SWAP2 SWAP1 PUSH2 0x5FE JUMP JUMPDEST POP PUSH1 0x20 DUP3 ADD MLOAD DUP2 PUSH1 0x1 ADD PUSH1 0x0 PUSH2 0x100 EXP DUP2 SLOAD DUP2 PUSH20 0xFFFFFFFFFFFFFFFFFFFFFFFFFFFFFFFFFFFFFFFF MUL NOT AND SWAP1 DUP4 PUSH20 0xFFFFFFFFFFFFFFFFFFFFFFFFFFFFFFFFFFFFFFFF AND MUL OR SWAP1 SSTORE POP PUSH1 0x40 DUP3 ADD MLOAD DUP2 PUSH1 0x1 ADD PUSH1 0x14 PUSH2 0x100 EXP DUP2 SLOAD DUP2 PUSH1 0xFF MUL NOT AND SWAP1 DUP4 ISZERO ISZERO MUL OR SWAP1 SSTORE POP SWAP1 POP POP CALLER PUSH20 0xFFFFFFFFFFFFFFFFFFFFFFFFFFFFFFFFFFFFFFFF AND DUP3 PUSH32 0x4BFC23985F6918F037C81D841AEF03449EACD6FD45AE5C7056059FF0202DA9E2 DUP4 PUSH1 0x40 MLOAD PUSH2 0x24E SWAP2 SWAP1 PUSH2 0xB1A JUMP JUMPDEST PUSH1 0x40 MLOAD DUP1 SWAP2 SUB SWAP1 LOG3 POP POP JUMP JUMPDEST PUSH1 0x0 DUP1 DUP4 DUP2 MSTORE PUSH1 0x20 ADD SWAP1 DUP2 MSTORE PUSH1 0x20 ADD PUSH1 0x0 KECCAK256 PUSH1 0x1 ADD PUSH1 0x14 SWAP1 SLOAD SWAP1 PUSH2 0x100 EXP SWAP1 DIV PUSH1 0xFF AND PUSH2 0x2BC JUMPI PUSH1 0x40 MLOAD PUSH32 0x8C379A000000000000000000000000000000000000000000000000000000000 DUP2 MSTORE PUSH1 0x4 ADD PUSH2 0x2B3 SWAP1 PUSH2 0xBAE JUMP JUMPDEST PUSH1 0x40 MLOAD DUP1 SWAP2 SUB SWAP1 REVERT JUMPDEST CALLER PUSH20 0xFFFFFFFFFFFFFFFFFFFFFFFFFFFFFFFFFFFFFFFF AND PUSH1 0x0 DUP1 DUP5 DUP2 MSTORE PUSH1 0x20 ADD SWAP1 DUP2 MSTORE PUSH1 0x20 ADD PUSH1 0x0 KECCAK256 PUSH1 0x1 ADD PUSH1 0x0 SWAP1 SLOAD SWAP1 PUSH2 0x100 EXP SWAP1 DIV PUSH20 0xFFFFFFFFFFFFFFFFFFFFFFFFFFFFFFFFFFFFFFFF AND PUSH20 0xFFFFFFFFFFFFFFFFFFFFFFFFFFFFFFFFFFFFFFFF AND EQ PUSH2 0x35F JUMPI PUSH1 0x40 MLOAD PUSH32 0x8C379A000000000000000000000000000000000000000000000000000000000 DUP2 MSTORE PUSH1 0x4 ADD PUSH2 0x356 SWAP1 PUSH2 0xC40 JUMP JUMPDEST PUSH1 0x40 MLOAD DUP1 SWAP2 SUB SWAP1 REVERT JUMPDEST DUP1 PUSH1 0x0 DUP1 DUP5 DUP2 MSTORE PUSH1 0x20 ADD SWAP1 DUP2 MSTORE PUSH1 0x20 ADD PUSH1 0x0 KECCAK256 PUSH1 0x1 ADD PUSH1 0x0 PUSH2 0x100 EXP DUP2 SLOAD DUP2 PUSH20 0xFFFFFFFFFFFFFFFFFFFFFFFFFFFFFFFFFFFFFFFF MUL NOT AND SWAP1 DUP4 PUSH20 0xFFFFFFFFFFFFFFFFFFFFFFFFFFFFFFFFFFFFFFFF AND MUL OR SWAP1 SSTORE POP POP POP JUMP JUMPDEST PUSH1 0x0 PUSH1 0x20 MSTORE DUP1 PUSH1 0x0 MSTORE PUSH1 0x40 PUSH1 0x0 KECCAK256 PUSH1 0x0 SWAP2 POP SWAP1 POP DUP1 PUSH1 0x0 ADD DUP1 SLOAD PUSH2 0x3DA SWAP1 PUSH2 0xC8F JUMP JUMPDEST DUP1 PUSH1 0x1F ADD PUSH1 0x20 DUP1 SWAP2 DIV MUL PUSH1 0x20 ADD PUSH1 0x40 MLOAD SWAP1 DUP2 ADD PUSH1 0x40 MSTORE DUP1 SWAP3 SWAP2 SWAP1 DUP2 DUP2 MSTORE PUSH1 0x20 ADD DUP3 DUP1 SLOAD PUSH2 0x406 SWAP1 PUSH2 0xC8F JUMP JUMPDEST DUP1 ISZERO PUSH2 0x453 JUMPI DUP1 PUSH1 0x1F LT PUSH2 0x428 JUMPI PUSH2 0x100 DUP1 DUP4 SLOAD DIV MUL DUP4 MSTORE SWAP2 PUSH1 0x20 ADD SWAP2 PUSH2 0x453 JUMP JUMPDEST DUP3 ADD SWAP2 SWAP1 PUSH1 0x0 MSTORE PUSH1 0x20 PUSH1 0x0 KECCAK256 SWAP1 JUMPDEST DUP2 SLOAD DUP2 MSTORE SWAP1 PUSH1 0x1 ADD SWAP1 PUSH1 0x20 ADD DUP1 DUP4 GT PUSH2 0x436 JUMPI DUP3 SWAP1 SUB PUSH1 0x1F AND DUP3 ADD SWAP2 JUMPDEST POP POP POP POP POP SWAP1 DUP1 PUSH1 0x1 ADD PUSH1 0x0 SWAP1 SLOAD SWAP1 PUSH2 0x100 EXP SWAP1 DIV PUSH20 0xFFFFFFFFFFFFFFFFFFFFFFFFFFFFFFFFFFFFFFFF AND SWAP1 DUP1 PUSH1 0x1 ADD PUSH1 0x14 SWAP1 SLOAD SWAP1 PUSH2 0x100 EXP SWAP1 DIV PUSH1 0xFF AND SWAP1 POP DUP4 JUMP JUMPDEST PUSH1 0x0 DUP1 DUP3 DUP2 MSTORE PUSH1 0x20 ADD SWAP1 DUP2 MSTORE PUSH1 0x20 ADD PUSH1 0x0 KECCAK256 PUSH1 0x1 ADD PUSH1 0x14 SWAP1 SLOAD SWAP1 PUSH2 0x100 EXP SWAP1 DIV PUSH1 0xFF AND PUSH2 0x4F8 JUMPI PUSH1 0x40 MLOAD PUSH32 0x8C379A000000000000000000000000000000000000000000000000000000000 DUP2 MSTORE PUSH1 0x4 ADD PUSH2 0x4EF SWAP1 PUSH2 0xBAE JUMP JUMPDEST PUSH1 0x40 MLOAD DUP1 SWAP2 SUB SWAP1 REVERT JUMPDEST CALLER PUSH20 0xFFFFFFFFFFFFFFFFFFFFFFFFFFFFFFFFFFFFFFFF AND PUSH1 0x0 DUP1 DUP4 DUP2 MSTORE PUSH1 0x20 ADD SWAP1 DUP2 MSTORE PUSH1 0x20 ADD PUSH1 0x0 KECCAK256 PUSH1 0x1 ADD PUSH1 0x0 SWAP1 SLOAD SWAP1 PUSH2 0x100 EXP SWAP1 DIV PUSH20 0xFFFFFFFFFFFFFFFFFFFFFFFFFFFFFFFFFFFFFFFF AND PUSH20 0xFFFFFFFFFFFFFFFFFFFFFFFFFFFFFFFFFFFFFFFF AND EQ PUSH2 0x59B JUMPI PUSH1 0x40 MLOAD PUSH32 0x8C379A000000000000000000000000000000000000000000000000000000000 DUP2 MSTORE PUSH1 0x4 ADD PUSH2 0x592 SWAP1 PUSH2 0xD33 JUMP JUMPDEST PUSH1 0x40 MLOAD DUP1 SWAP2 SUB SWAP1 REVERT JUMPDEST PUSH1 0x0 DUP1 DUP3 DUP2 MSTORE PUSH1 0x20 ADD SWAP1 DUP2 MSTORE PUSH1 0x20 ADD PUSH1 0x0 KECCAK256 PUSH1 0x0 DUP1 DUP3 ADD PUSH1 0x0 PUSH2 0x5BE SWAP2 SWAP1 PUSH2 0x684 JUMP JUMPDEST PUSH1 0x1 DUP3 ADD PUSH1 0x0 PUSH2 0x100 EXP DUP2 SLOAD SWAP1 PUSH20 0xFFFFFFFFFFFFFFFFFFFFFFFFFFFFFFFFFFFFFFFF MUL NOT AND SWAP1 SSTORE PUSH1 0x1 DUP3 ADD PUSH1 0x14 PUSH2 0x100 EXP DUP2 SLOAD SWAP1 PUSH1 0xFF MUL NOT AND SWAP1 SSTORE POP POP POP JUMP JUMPDEST DUP3 DUP1 SLOAD PUSH2 0x60A SWAP1 PUSH2 0xC8F JUMP JUMPDEST SWAP1 PUSH1 0x0 MSTORE PUSH1 0x20 PUSH1 0x0 KECCAK256 SWAP1 PUSH1 0x1F ADD PUSH1 0x20 SWAP1 DIV DUP2 ADD SWAP3 DUP3 PUSH2 0x62C JUMPI PUSH1 0x0 DUP6 SSTORE PUSH2 0x673 JUMP JUMPDEST DUP3 PUSH1 0x1F LT PUSH2 0x645 JUMPI DUP1 MLOAD PUSH1 0xFF NOT AND DUP4 DUP1 ADD OR DUP6 SSTORE PUSH2 0x673 JUMP JUMPDEST DUP3 DUP1 ADD PUSH1 0x1 ADD DUP6 SSTORE DUP3 ISZERO PUSH2 0x673 JUMPI SWAP2 DUP3 ADD JUMPDEST DUP3 DUP2 GT ISZERO PUSH2 0x672 JUMPI DUP3 MLOAD DUP3 SSTORE SWAP2 PUSH1 0x20 ADD SWAP2 SWAP1 PUSH1 0x1 ADD SWAP1 PUSH2 0x657 JUMP JUMPDEST JUMPDEST POP SWAP1 POP PUSH2 0x680 SWAP2 SWAP1 PUSH2 0x6C4 JUMP JUMPDEST POP SWAP1 JUMP JUMPDEST POP DUP1 SLOAD PUSH2 0x690 SWAP1 PUSH2 0xC8F JUMP JUMPDEST PUSH1 0x0 DUP3 SSTORE DUP1 PUSH1 0x1F LT PUSH2 0x6A2 JUMPI POP PUSH2 0x6C1 JUMP JUMPDEST PUSH1 0x1F ADD PUSH1 0x20 SWAP1 DIV SWAP1 PUSH1 0x0 MSTORE PUSH1 0x20 PUSH1 0x0 KECCAK256 SWAP1 DUP2 ADD SWAP1 PUSH2 0x6C0 SWAP2 SWAP1 PUSH2 0x6C4 JUMP JUMPDEST JUMPDEST POP JUMP JUMPDEST JUMPDEST DUP1 DUP3 GT ISZERO PUSH2 0x6DD JUMPI PUSH1 0x0 DUP2 PUSH1 0x0 SWAP1 SSTORE POP PUSH1 0x1 ADD PUSH2 0x6C5 JUMP JUMPDEST POP SWAP1 JUMP JUMPDEST PUSH1 0x0 PUSH1 0x40 MLOAD SWAP1 POP SWAP1 JUMP JUMPDEST PUSH1 0x0 DUP1 REVERT JUMPDEST PUSH1 0x0 DUP1 REVERT JUMPDEST PUSH1 0x0 DUP2 SWAP1 POP SWAP2 SWAP1 POP JUMP JUMPDEST PUSH2 0x708 DUP2 PUSH2 0x6F5 JUMP JUMPDEST DUP2 EQ PUSH2 0x713 JUMPI PUSH1 0x0 DUP1 REVERT JUMPDEST POP JUMP JUMPDEST PUSH1 0x0 DUP2 CALLDATALOAD SWAP1 POP PUSH2 0x725 DUP2 PUSH2 0x6FF JUMP JUMPDEST SWAP3 SWAP2 POP POP JUMP JUMPDEST PUSH1 0x0 DUP1 REVERT JUMPDEST PUSH1 0x0 DUP1 REVERT JUMPDEST PUSH1 0x0 PUSH1 0x1F NOT PUSH1 0x1F DUP4 ADD AND SWAP1 POP SWAP2 SWAP1 POP JUMP JUMPDEST PUSH32 0x4E487B7100000000000000000000000000000000000000000000000000000000 PUSH1 0x0 MSTORE PUSH1 0x41 PUSH1 0x4 MSTORE PUSH1 0x24 PUSH1 0x0 REVERT JUMPDEST PUSH2 0x77E DUP3 PUSH2 0x735 JUMP JUMPDEST DUP2 ADD DUP2 DUP2 LT PUSH8 0xFFFFFFFFFFFFFFFF DUP3 GT OR ISZERO PUSH2 0x79D JUMPI PUSH2 0x79C PUSH2 0x746 JUMP JUMPDEST JUMPDEST DUP1 PUSH1 0x40 MSTORE POP POP POP JUMP JUMPDEST PUSH1 0x0 PUSH2 0x7B0 PUSH2 0x6E1 JUMP JUMPDEST SWAP1 POP PUSH2 0x7BC DUP3 DUP3 PUSH2 0x775 JUMP JUMPDEST SWAP2 SWAP1 POP JUMP JUMPDEST PUSH1 0x0 PUSH8 0xFFFFFFFFFFFFFFFF DUP3 GT ISZERO PUSH2 0x7DC JUMPI PUSH2 0x7DB PUSH2 0x746 JUMP JUMPDEST JUMPDEST PUSH2 0x7E5 DUP3 PUSH2 0x735 JUMP JUMPDEST SWAP1 POP PUSH1 0x20 DUP2 ADD SWAP1 POP SWAP2 SWAP1 POP JUMP JUMPDEST DUP3 DUP2 DUP4 CALLDATACOPY PUSH1 0x0 DUP4 DUP4 ADD MSTORE POP POP POP JUMP JUMPDEST PUSH1 0x0 PUSH2 0x814 PUSH2 0x80F DUP5 PUSH2 0x7C1 JUMP JUMPDEST PUSH2 0x7A6 JUMP JUMPDEST SWAP1 POP DUP3 DUP2 MSTORE PUSH1 0x20 DUP2 ADD DUP5 DUP5 DUP5 ADD GT ISZERO PUSH2 0x830 JUMPI PUSH2 0x82F PUSH2 0x730 JUMP JUMPDEST JUMPDEST PUSH2 0x83B DUP5 DUP3 DUP6 PUSH2 0x7F2 JUMP JUMPDEST POP SWAP4 SWAP3 POP POP POP JUMP JUMPDEST PUSH1 0x0 DUP3 PUSH1 0x1F DUP4 ADD SLT PUSH2 0x858 JUMPI PUSH2 0x857 PUSH2 0x72B JUMP JUMPDEST JUMPDEST DUP2 CALLDATALOAD PUSH2 0x868 DUP5 DUP3 PUSH1 0x20 DUP7 ADD PUSH2 0x801 JUMP JUMPDEST SWAP2 POP POP SWAP3 SWAP2 POP POP JUMP JUMPDEST PUSH1 0x0 DUP1 PUSH1 0x40 DUP4 DUP6 SUB SLT ISZERO PUSH2 0x888 JUMPI PUSH2 0x887 PUSH2 0x6EB JUMP JUMPDEST JUMPDEST PUSH1 0x0 PUSH2 0x896 DUP6 DUP3 DUP7 ADD PUSH2 0x716 JUMP JUMPDEST SWAP3 POP POP PUSH1 0x20 DUP4 ADD CALLDATALOAD PUSH8 0xFFFFFFFFFFFFFFFF DUP2 GT ISZERO PUSH2 0x8B7 JUMPI PUSH2 0x8B6 PUSH2 0x6F0 JUMP JUMPDEST JUMPDEST PUSH2 0x8C3 DUP6 DUP3 DUP7 ADD PUSH2 0x843 JUMP JUMPDEST SWAP2 POP POP SWAP3 POP SWAP3 SWAP1 POP JUMP JUMPDEST PUSH1 0x0 PUSH20 0xFFFFFFFFFFFFFFFFFFFFFFFFFFFFFFFFFFFFFFFF DUP3 AND SWAP1 POP SWAP2 SWAP1 POP JUMP JUMPDEST PUSH1 0x0 PUSH2 0x8F8 DUP3 PUSH2 0x8CD JUMP JUMPDEST SWAP1 POP SWAP2 SWAP1 POP JUMP JUMPDEST PUSH2 0x908 DUP2 PUSH2 0x8ED JUMP JUMPDEST DUP2 EQ PUSH2 0x913 JUMPI PUSH1 0x0 DUP1 REVERT JUMPDEST POP JUMP JUMPDEST PUSH1 0x0 DUP2 CALLDATALOAD SWAP1 POP PUSH2 0x925 DUP2 PUSH2 0x8FF JUMP JUMPDEST SWAP3 SWAP2 POP POP JUMP JUMPDEST PUSH1 0x0 DUP1 PUSH1 0x40 DUP4 DUP6 SUB SLT ISZERO PUSH2 0x942 JUMPI PUSH2 0x941 PUSH2 0x6EB JUMP JUMPDEST JUMPDEST PUSH1 0x0 PUSH2 0x950 DUP6 DUP3 DUP7 ADD PUSH2 0x716 JUMP JUMPDEST SWAP3 POP POP PUSH1 0x20 PUSH2 0x961 DUP6 DUP3 DUP7 ADD PUSH2 0x916 JUMP JUMPDEST SWAP2 POP POP SWAP3 POP SWAP3 SWAP1 POP JUMP JUMPDEST PUSH1 0x0 PUSH1 0x20 DUP3 DUP5 SUB SLT ISZERO PUSH2 0x981 JUMPI PUSH2 0x980 PUSH2 0x6EB JUMP JUMPDEST JUMPDEST PUSH1 0x0 PUSH2 0x98F DUP5 DUP3 DUP6 ADD PUSH2 0x716 JUMP JUMPDEST SWAP2 POP POP SWAP3 SWAP2 POP POP JUMP JUMPDEST PUSH1 0x0 DUP2 MLOAD SWAP1 POP SWAP2 SWAP1 POP JUMP JUMPDEST PUSH1 0x0 DUP3 DUP3 MSTORE PUSH1 0x20 DUP3 ADD SWAP1 POP SWAP3 SWAP2 POP POP JUMP JUMPDEST PUSH1 0x0 JUMPDEST DUP4 DUP2 LT ISZERO PUSH2 0x9D2 JUMPI DUP1 DUP3 ADD MLOAD DUP2 DUP5 ADD MSTORE PUSH1 0x20 DUP2 ADD SWAP1 POP PUSH2 0x9B7 JUMP JUMPDEST DUP4 DUP2 GT ISZERO PUSH2 0x9E1 JUMPI PUSH1 0x0 DUP5 DUP5 ADD MSTORE JUMPDEST POP POP POP POP JUMP JUMPDEST PUSH1 0x0 PUSH2 0x9F2 DUP3 PUSH2 0x998 JUMP JUMPDEST PUSH2 0x9FC DUP2 DUP6 PUSH2 0x9A3 JUMP JUMPDEST SWAP4 POP PUSH2 0xA0C DUP2 DUP6 PUSH1 0x20 DUP7 ADD PUSH2 0x9B4 JUMP JUMPDEST PUSH2 0xA15 DUP2 PUSH2 0x735 JUMP JUMPDEST DUP5 ADD SWAP2 POP POP SWAP3 SWAP2 POP POP JUMP JUMPDEST PUSH2 0xA29 DUP2 PUSH2 0x8ED JUMP JUMPDEST DUP3 MSTORE POP POP JUMP JUMPDEST PUSH1 0x0 DUP2 ISZERO ISZERO SWAP1 POP SWAP2 SWAP1 POP JUMP JUMPDEST PUSH2 0xA44 DUP2 PUSH2 0xA2F JUMP JUMPDEST DUP3 MSTORE POP POP JUMP JUMPDEST PUSH1 0x0 PUSH1 0x60 DUP3 ADD SWAP1 POP DUP2 DUP2 SUB PUSH1 0x0 DUP4 ADD MSTORE PUSH2 0xA64 DUP2 DUP7 PUSH2 0x9E7 JUMP JUMPDEST SWAP1 POP PUSH2 0xA73 PUSH1 0x20 DUP4 ADD DUP6 PUSH2 0xA20 JUMP JUMPDEST PUSH2 0xA80 PUSH1 0x40 DUP4 ADD DUP5 PUSH2 0xA3B JUMP JUMPDEST SWAP5 SWAP4 POP POP POP POP JUMP JUMPDEST PUSH32 0x4469676974616C2061737365742077697468207468697320494420616C726561 PUSH1 0x0 DUP3 ADD MSTORE PUSH32 0x6479206578697374732E00000000000000000000000000000000000000000000 PUSH1 0x20 DUP3 ADD MSTORE POP JUMP JUMPDEST PUSH1 0x0 PUSH2 0xAE4 PUSH1 0x2A DUP4 PUSH2 0x9A3 JUMP JUMPDEST SWAP2 POP PUSH2 0xAEF DUP3 PUSH2 0xA88 JUMP JUMPDEST PUSH1 0x40 DUP3 ADD SWAP1 POP SWAP2 SWAP1 POP JUMP JUMPDEST PUSH1 0x0 PUSH1 0x20 DUP3 ADD SWAP1 POP DUP2 DUP2 SUB PUSH1 0x0 DUP4 ADD MSTORE PUSH2 0xB13 DUP2 PUSH2 0xAD7 JUMP JUMPDEST SWAP1 POP SWAP2 SWAP1 POP JUMP JUMPDEST PUSH1 0x0 PUSH1 0x20 DUP3 ADD SWAP1 POP DUP2 DUP2 SUB PUSH1 0x0 DUP4 ADD MSTORE PUSH2 0xB34 DUP2 DUP5 PUSH2 0x9E7 JUMP JUMPDEST SWAP1 POP SWAP3 SWAP2 POP POP JUMP JUMPDEST PUSH32 0x4469676974616C2061737365742077697468207468697320494420646F657320 PUSH1 0x0 DUP3 ADD MSTORE PUSH32 0x6E6F742065786973742E00000000000000000000000000000000000000000000 PUSH1 0x20 DUP3 ADD MSTORE POP JUMP JUMPDEST PUSH1 0x0 PUSH2 0xB98 PUSH1 0x2A DUP4 PUSH2 0x9A3 JUMP JUMPDEST SWAP2 POP PUSH2 0xBA3 DUP3 PUSH2 0xB3C JUMP JUMPDEST PUSH1 0x40 DUP3 ADD SWAP1 POP SWAP2 SWAP1 POP JUMP JUMPDEST PUSH1 0x0 PUSH1 0x20 DUP3 ADD SWAP1 POP DUP2 DUP2 SUB PUSH1 0x0 DUP4 ADD MSTORE PUSH2 0xBC7 DUP2 PUSH2 0xB8B JUMP JUMPDEST SWAP1 POP SWAP2 SWAP1 POP JUMP JUMPDEST PUSH32 0x4F6E6C79207468652063757272656E74206F776E65722063616E207472616E73 PUSH1 0x0 DUP3 ADD MSTORE PUSH32 0x666572206F776E6572736869702E000000000000000000000000000000000000 PUSH1 0x20 DUP3 ADD MSTORE POP JUMP JUMPDEST PUSH1 0x0 PUSH2 0xC2A PUSH1 0x2E DUP4 PUSH2 0x9A3 JUMP JUMPDEST SWAP2 POP PUSH2 0xC35 DUP3 PUSH2 0xBCE JUMP JUMPDEST PUSH1 0x40 DUP3 ADD SWAP1 POP SWAP2 SWAP1 POP JUMP JUMPDEST PUSH1 0x0 PUSH1 0x20 DUP3 ADD SWAP1 POP DUP2 DUP2 SUB PUSH1 0x0 DUP4 ADD MSTORE PUSH2 0xC59 DUP2 PUSH2 0xC1D JUMP JUMPDEST SWAP1 POP SWAP2 SWAP1 POP JUMP JUMPDEST PUSH32 0x4E487B7100000000000000000000000000000000000000000000000000000000 PUSH1 0x0 MSTORE PUSH1 0x22 PUSH1 0x4 MSTORE PUSH1 0x24 PUSH1 0x0 REVERT JUMPDEST PUSH1 0x0 PUSH1 0x2 DUP3 DIV SWAP1 POP PUSH1 0x1 DUP3 AND DUP1 PUSH2 0xCA7 JUMPI PUSH1 0x7F DUP3 AND SWAP2 POP JUMPDEST PUSH1 0x20 DUP3 LT DUP2 EQ ISZERO PUSH2 0xCBB JUMPI PUSH2 0xCBA PUSH2 0xC60 JUMP JUMPDEST JUMPDEST POP SWAP2 SWAP1 POP JUMP JUMPDEST PUSH32 0x4F6E6C7920746865206F776E65722063616E2064656C65746520612064696769 PUSH1 0x0 DUP3 ADD MSTORE PUSH32 0x74616C2061737365742E00000000000000000000000000000000000000000000 PUSH1 0x20 DUP3 ADD MSTORE POP JUMP JUMPDEST PUSH1 0x0 PUSH2 0xD1D PUSH1 0x2A DUP4 PUSH2 0x9A3 JUMP JUMPDEST SWAP2 POP PUSH2 0xD28 DUP3 PUSH2 0xCC1 JUMP JUMPDEST PUSH1 0x40 DUP3 ADD SWAP1 POP SWAP2 SWAP1 POP JUMP JUMPDEST PUSH1 0x0 PUSH1 0x20 DUP3 ADD SWAP1 POP DUP2 DUP2 SUB PUSH1 0x0 DUP4 ADD MSTORE PUSH2 0xD4C DUP2 PUSH2 0xD10 JUMP JUMPDEST SWAP1 POP SWAP2 SWAP1 POP JUMP INVALID LOG2 PUSH5 0x6970667358 0x22 SLT KECCAK256 0x2E MSTORE8 0xD8 0x2E DIFFICULTY DUP1 0xAA CALLDATALOAD EQ 0xF8 EXTCODESIZE ADDMOD PUSH19 0x3F850F5DEFA3D423591D444BF5073801BDE3A3 PUSH5 0x736F6C6343 STOP ADDMOD SIGNEXTEND STOP CALLER "
				},
				"gasEstimates": {
					"creation": {
						"codeDepositCost": "693000",
						"executionCost": "728",
						"totalCost": "693728"
					},
					"external": {
						"createDigitalAsset(uint256,string)": "infinite",
						"deleteDigitalAsset(uint256)": "infinite",
						"digitalAssets(uint256)": "infinite",
						"transferOwnership(uint256,address)": "29520"
					}
				},
				"methodIdentifiers": {
					"createDigitalAsset(uint256,string)": "21fd954e",
					"deleteDigitalAsset(uint256)": "d2457f66",
					"digitalAssets(uint256)": "bd1b0221",
					"transferOwnership(uint256,address)": "29507f73"
				}
			},
			"storageLayout": {
				"storage": [
					{
						"astId": 13,
						"contract": "Prevent Digital Asset Duplication Project 18/Media Rights.sol:MediaRights",
						"label": "digitalAssets",
						"offset": 0,
						"slot": "0",
						"type": "t_mapping(t_uint256,t_struct(DigitalAsset)8_storage)"
					}
				],
				"types": {
					"t_address": {
						"encoding": "inplace",
						"label": "address",
						"numberOfBytes": "20"
					},
					"t_bool": {
						"encoding": "inplace",
						"label": "bool",
						"numberOfBytes": "1"
					},
					"t_mapping(t_uint256,t_struct(DigitalAsset)8_storage)": {
						"encoding": "mapping",
						"key": "t_uint256",
						"label": "mapping(uint256 => struct MediaRights.DigitalAsset)",
						"numberOfBytes": "32",
						"value": "t_struct(DigitalAsset)8_storage"
					},
					"t_string_storage": {
						"encoding": "bytes",
						"label": "string",
						"numberOfBytes": "32"
					},
					"t_struct(DigitalAsset)8_storage": {
						"encoding": "inplace",
						"label": "struct MediaRights.DigitalAsset",
						"members": [
							{
								"astId": 3,
								"contract": "Prevent Digital Asset Duplication Project 18/Media Rights.sol:MediaRights",
								"label": "name",
								"offset": 0,
								"slot": "0",
								"type": "t_string_storage"
							},
							{
								"astId": 5,
								"contract": "Prevent Digital Asset Duplication Project 18/Media Rights.sol:MediaRights",
								"label": "owner",
								"offset": 0,
								"slot": "1",
								"type": "t_address"
							},
							{
								"astId": 7,
								"contract": "Prevent Digital Asset Duplication Project 18/Media Rights.sol:MediaRights",
								"label": "exists",
								"offset": 20,
								"slot": "1",
								"type": "t_bool"
							}
						],
						"numberOfBytes": "64"
					},
					"t_uint256": {
						"encoding": "inplace",
						"label": "uint256",
						"numberOfBytes": "32"
					}
				}
			},
			"userdoc": {
				"kind": "user",
				"methods": {},
				"version": 1
			}
		}
	}
}