{
	"data": {
		"bytecode": {
			"linkReferences": {},
			"object": "608060405234801561001057600080fd5b50336000806101000a81548173ffffffffffffffffffffffffffffffffffffffff021916908373ffffffffffffffffffffffffffffffffffffffff160217905550610dc2806100606000396000f3fe608060405234801561001057600080fd5b50600436106100935760003560e01c806335b8e8201161006657806335b8e82014610134578063462e91ec146101645780638da5cb5b14610180578063a3ec138d1461019e578063bb9aa28f146101cf57610093565b80630121b93f146100985780632ce35e11146100b45780632d35a8a2146100e45780633477ee2e14610102575b600080fd5b6100b260048036038101906100ad91906107a8565b6101ed565b005b6100ce60048036038101906100c991906107a8565b6103cc565b6040516100db91906107e4565b60405180910390f35b6100ec6103ec565b6040516100f991906107e4565b60405180910390f35b61011c600480360381019061011791906107a8565b6103f2565b60405161012b93929190610898565b60405180910390f35b61014e600480360381019061014991906107a8565b6104a4565b60405161015b91906108d6565b60405180910390f35b61017e60048036038101906101799190610a2d565b61054c565b005b61018861065c565b6040516101959190610ab7565b60405180910390f35b6101b860048036038101906101b39190610afe565b610680565b6040516101c6929190610b46565b60405180910390f35b6101d76106b1565b6040516101e491906107e4565b60405180910390f35b600360003373ffffffffffffffffffffffffffffffffffffffff1673ffffffffffffffffffffffffffffffffffffffff16815260200190815260200160002060000160009054906101000a900460ff161561027d576040517f08c379a000000000000000000000000000000000000000000000000000000000815260040161027490610bbb565b60405180910390fd5b60008111801561028f57506002548111155b6102ce576040517f08c379a00000000000000000000000000000000000000000000000000000000081526004016102c590610c27565b60405180910390fd5b6001600360003373ffffffffffffffffffffffffffffffffffffffff1673ffffffffffffffffffffffffffffffffffffffff16815260200190815260200160002060000160006101000a81548160ff02191690831515021790555080600360003373ffffffffffffffffffffffffffffffffffffffff1673ffffffffffffffffffffffffffffffffffffffff1681526020019081526020016000206001018190555060016000828152602001908152602001600020600201600081548092919061039790610c76565b9190505550807ffff3c900d938d21d0990d786e819f29b8d05c1ef587b462b939609625b684b1660405160405180910390a250565b600060016000838152602001908152602001600020600201549050919050565b60025481565b600160205280600052604060002060009150905080600001549080600101805461041b90610cee565b80601f016020809104026020016040519081016040528092919081815260200182805461044790610cee565b80156104945780601f1061046957610100808354040283529160200191610494565b820191906000526020600020905b81548152906001019060200180831161047757829003601f168201915b5050505050908060020154905083565b60606001600083815260200190815260200160002060010180546104c790610cee565b80601f01602080910402602001604051908101604052809291908181526020018280546104f390610cee565b80156105405780601f1061051557610100808354040283529160200191610540565b820191906000526020600020905b81548152906001019060200180831161052357829003601f168201915b50505050509050919050565b60008054906101000a900473ffffffffffffffffffffffffffffffffffffffff1673ffffffffffffffffffffffffffffffffffffffff163373ffffffffffffffffffffffffffffffffffffffff16146105da576040517f08c379a00000000000000000000000000000000000000000000000000000000081526004016105d190610d6c565b60405180910390fd5b600260008154809291906105ed90610c76565b919050555060405180606001604052806002548152602001828152602001600081525060016000600254815260200190815260200160002060008201518160000155602082015181600101908051906020019061064b9291906106bb565b506040820151816002015590505050565b60008054906101000a900473ffffffffffffffffffffffffffffffffffffffff1681565b60036020528060005260406000206000915090508060000160009054906101000a900460ff16908060010154905082565b6000600254905090565b8280546106c790610cee565b90600052602060002090601f0160209004810192826106e95760008555610730565b82601f1061070257805160ff1916838001178555610730565b82800160010185558215610730579182015b8281111561072f578251825591602001919060010190610714565b5b50905061073d9190610741565b5090565b5b8082111561075a576000816000905550600101610742565b5090565b6000604051905090565b600080fd5b600080fd5b6000819050919050565b61078581610772565b811461079057600080fd5b50565b6000813590506107a28161077c565b92915050565b6000602082840312156107be576107bd610768565b5b60006107cc84828501610793565b91505092915050565b6107de81610772565b82525050565b60006020820190506107f960008301846107d5565b92915050565b600081519050919050565b600082825260208201905092915050565b60005b8381101561083957808201518184015260208101905061081e565b83811115610848576000848401525b50505050565b6000601f19601f8301169050919050565b600061086a826107ff565b610874818561080a565b935061088481856020860161081b565b61088d8161084e565b840191505092915050565b60006060820190506108ad60008301866107d5565b81810360208301526108bf818561085f565b90506108ce60408301846107d5565b949350505050565b600060208201905081810360008301526108f0818461085f565b905092915050565b600080fd5b600080fd5b7f4e487b7100000000000000000000000000000000000000000000000000000000600052604160045260246000fd5b61093a8261084e565b810181811067ffffffffffffffff8211171561095957610958610902565b5b80604052505050565b600061096c61075e565b90506109788282610931565b919050565b600067ffffffffffffffff82111561099857610997610902565b5b6109a18261084e565b9050602081019050919050565b82818337600083830152505050565b60006109d06109cb8461097d565b610962565b9050828152602081018484840111156109ec576109eb6108fd565b5b6109f78482856109ae565b509392505050565b600082601f830112610a1457610a136108f8565b5b8135610a248482602086016109bd565b91505092915050565b600060208284031215610a4357610a42610768565b5b600082013567ffffffffffffffff811115610a6157610a6061076d565b5b610a6d848285016109ff565b91505092915050565b600073ffffffffffffffffffffffffffffffffffffffff82169050919050565b6000610aa182610a76565b9050919050565b610ab181610a96565b82525050565b6000602082019050610acc6000830184610aa8565b92915050565b610adb81610a96565b8114610ae657600080fd5b50565b600081359050610af881610ad2565b92915050565b600060208284031215610b1457610b13610768565b5b6000610b2284828501610ae9565b91505092915050565b60008115159050919050565b610b4081610b2b565b82525050565b6000604082019050610b5b6000830185610b37565b610b6860208301846107d5565b9392505050565b7f416c726561647920766f74656400000000000000000000000000000000000000600082015250565b6000610ba5600d8361080a565b9150610bb082610b6f565b602082019050919050565b60006020820190508181036000830152610bd481610b98565b9050919050565b7f496e76616c69642063616e646964617465000000000000000000000000000000600082015250565b6000610c1160118361080a565b9150610c1c82610bdb565b602082019050919050565b60006020820190508181036000830152610c4081610c04565b9050919050565b7f4e487b7100000000000000000000000000000000000000000000000000000000600052601160045260246000fd5b6000610c8182610772565b91507fffffffffffffffffffffffffffffffffffffffffffffffffffffffffffffffff821415610cb457610cb3610c47565b5b600182019050919050565b7f4e487b7100000000000000000000000000000000000000000000000000000000600052602260045260246000fd5b60006002820490506001821680610d0657607f821691505b60208210811415610d1a57610d19610cbf565b5b50919050565b7f4f6e6c79206f776e65722063616e206164642063616e64696461746500000000600082015250565b6000610d56601c8361080a565b9150610d6182610d20565b602082019050919050565b60006020820190508181036000830152610d8581610d49565b905091905056fea2646970667358221220208f73f68c6a3fd5bd1109d34289866a6561aff67d59afca880614d89899615764736f6c634300080b0033",
			"opcodes": "PUSH1 0x80 PUSH1 0x40 MSTORE CALLVALUE DUP1 ISZERO PUSH2 0x10 JUMPI PUSH1 0x0 DUP1 REVERT JUMPDEST POP CALLER PUSH1 0x0 DUP1 PUSH2 0x100 EXP DUP2 SLOAD DUP2 PUSH20 0xFFFFFFFFFFFFFFFFFFFFFFFFFFFFFFFFFFFFFFFF MUL NOT AND SWAP1 DUP4 PUSH20 0xFFFFFFFFFFFFFFFFFFFFFFFFFFFFFFFFFFFFFFFF AND MUL OR SWAP1 SSTORE POP PUSH2 0xDC2 DUP1 PUSH2 0x60 PUSH1 0x0 CODECOPY PUSH1 0x0 RETURN INVALID PUSH1 0x80 PUSH1 0x40 MSTORE CALLVALUE DUP1 ISZERO PUSH2 0x10 JUMPI PUSH1 0x0 DUP1 REVERT JUMPDEST POP PUSH1 0x4 CALLDATASIZE LT PUSH2 0x93 JUMPI PUSH1 0x0 CALLDATALOAD PUSH1 0xE0 SHR DUP1 PUSH4 0x35B8E820 GT PUSH2 0x66 JUMPI DUP1 PUSH4 0x35B8E820 EQ PUSH2 0x134 JUMPI DUP1 PUSH4 0x462E91EC EQ PUSH2 0x164 JUMPI DUP1 PUSH4 0x8DA5CB5B EQ PUSH2 0x180 JUMPI DUP1 PUSH4 0xA3EC138D EQ PUSH2 0x19E JUMPI DUP1 PUSH4 0xBB9AA28F EQ PUSH2 0x1CF JUMPI PUSH2 0x93 JUMP JUMPDEST DUP1 PUSH4 0x121B93F EQ PUSH2 0x98 JUMPI DUP1 PUSH4 0x2CE35E11 EQ PUSH2 0xB4 JUMPI DUP1 PUSH4 0x2D35A8A2 EQ PUSH2 0xE4 JUMPI DUP1 PUSH4 0x3477EE2E EQ PUSH2 0x102 JUMPI JUMPDEST PUSH1 0x0 DUP1 REVERT JUMPDEST PUSH2 0xB2 PUSH1 0x4 DUP1 CALLDATASIZE SUB DUP2 ADD SWAP1 PUSH2 0xAD SWAP2 SWAP1 PUSH2 0x7A8 JUMP JUMPDEST PUSH2 0x1ED JUMP JUMPDEST STOP JUMPDEST PUSH2 0xCE PUSH1 0x4 DUP1 CALLDATASIZE SUB DUP2 ADD SWAP1 PUSH2 0xC9 SWAP2 SWAP1 PUSH2 0x7A8 JUMP JUMPDEST PUSH2 0x3CC JUMP JUMPDEST PUSH1 0x40 MLOAD PUSH2 0xDB SWAP2 SWAP1 PUSH2 0x7E4 JUMP JUMPDEST PUSH1 0x40 MLOAD DUP1 SWAP2 SUB SWAP1 RETURN JUMPDEST PUSH2 0xEC PUSH2 0x3EC JUMP JUMPDEST PUSH1 0x40 MLOAD PUSH2 0xF9 SWAP2 SWAP1 PUSH2 0x7E4 JUMP JUMPDEST PUSH1 0x40 MLOAD DUP1 SWAP2 SUB SWAP1 RETURN JUMPDEST PUSH2 0x11C PUSH1 0x4 DUP1 CALLDATASIZE SUB DUP2 ADD SWAP1 PUSH2 0x117 SWAP2 SWAP1 PUSH2 0x7A8 JUMP JUMPDEST PUSH2 0x3F2 JUMP JUMPDEST PUSH1 0x40 MLOAD PUSH2 0x12B SWAP4 SWAP3 SWAP2 SWAP1 PUSH2 0x898 JUMP JUMPDEST PUSH1 0x40 MLOAD DUP1 SWAP2 SUB SWAP1 RETURN JUMPDEST PUSH2 0x14E PUSH1 0x4 DUP1 CALLDATASIZE SUB DUP2 ADD SWAP1 PUSH2 0x149 SWAP2 SWAP1 PUSH2 0x7A8 JUMP JUMPDEST PUSH2 0x4A4 JUMP JUMPDEST PUSH1 0x40 MLOAD PUSH2 0x15B SWAP2 SWAP1 PUSH2 0x8D6 JUMP JUMPDEST PUSH1 0x40 MLOAD DUP1 SWAP2 SUB SWAP1 RETURN JUMPDEST PUSH2 0x17E PUSH1 0x4 DUP1 CALLDATASIZE SUB DUP2 ADD SWAP1 PUSH2 0x179 SWAP2 SWAP1 PUSH2 0xA2D JUMP JUMPDEST PUSH2 0x54C JUMP JUMPDEST STOP JUMPDEST PUSH2 0x188 PUSH2 0x65C JUMP JUMPDEST PUSH1 0x40 MLOAD PUSH2 0x195 SWAP2 SWAP1 PUSH2 0xAB7 JUMP JUMPDEST PUSH1 0x40 MLOAD DUP1 SWAP2 SUB SWAP1 RETURN JUMPDEST PUSH2 0x1B8 PUSH1 0x4 DUP1 CALLDATASIZE SUB DUP2 ADD SWAP1 PUSH2 0x1B3 SWAP2 SWAP1 PUSH2 0xAFE JUMP JUMPDEST PUSH2 0x680 JUMP JUMPDEST PUSH1 0x40 MLOAD PUSH2 0x1C6 SWAP3 SWAP2 SWAP1 PUSH2 0xB46 JUMP JUMPDEST PUSH1 0x40 MLOAD DUP1 SWAP2 SUB SWAP1 RETURN JUMPDEST PUSH2 0x1D7 PUSH2 0x6B1 JUMP JUMPDEST PUSH1 0x40 MLOAD PUSH2 0x1E4 SWAP2 SWAP1 PUSH2 0x7E4 JUMP JUMPDEST PUSH1 0x40 MLOAD DUP1 SWAP2 SUB SWAP1 RETURN JUMPDEST PUSH1 0x3 PUSH1 0x0 CALLER PUSH20 0xFFFFFFFFFFFFFFFFFFFFFFFFFFFFFFFFFFFFFFFF AND PUSH20 0xFFFFFFFFFFFFFFFFFFFFFFFFFFFFFFFFFFFFFFFF AND DUP2 MSTORE PUSH1 0x20 ADD SWAP1 DUP2 MSTORE PUSH1 0x20 ADD PUSH1 0x0 KECCAK256 PUSH1 0x0 ADD PUSH1 0x0 SWAP1 SLOAD SWAP1 PUSH2 0x100 EXP SWAP1 DIV PUSH1 0xFF AND ISZERO PUSH2 0x27D JUMPI PUSH1 0x40 MLOAD PUSH32 0x8C379A000000000000000000000000000000000000000000000000000000000 DUP2 MSTORE PUSH1 0x4 ADD PUSH2 0x274 SWAP1 PUSH2 0xBBB JUMP JUMPDEST PUSH1 0x40 MLOAD DUP1 SWAP2 SUB SWAP1 REVERT JUMPDEST PUSH1 0x0 DUP2 GT DUP1 ISZERO PUSH2 0x28F JUMPI POP PUSH1 0x2 SLOAD DUP2 GT ISZERO JUMPDEST PUSH2 0x2CE JUMPI PUSH1 0x40 MLOAD PUSH32 0x8C379A000000000000000000000000000000000000000000000000000000000 DUP2 MSTORE PUSH1 0x4 ADD PUSH2 0x2C5 SWAP1 PUSH2 0xC27 JUMP JUMPDEST PUSH1 0x40 MLOAD DUP1 SWAP2 SUB SWAP1 REVERT JUMPDEST PUSH1 0x1 PUSH1 0x3 PUSH1 0x0 CALLER PUSH20 0xFFFFFFFFFFFFFFFFFFFFFFFFFFFFFFFFFFFFFFFF AND PUSH20 0xFFFFFFFFFFFFFFFFFFFFFFFFFFFFFFFFFFFFFFFF AND DUP2 MSTORE PUSH1 0x20 ADD SWAP1 DUP2 MSTORE PUSH1 0x20 ADD PUSH1 0x0 KECCAK256 PUSH1 0x0 ADD PUSH1 0x0 PUSH2 0x100 EXP DUP2 SLOAD DUP2 PUSH1 0xFF MUL NOT AND SWAP1 DUP4 ISZERO ISZERO MUL OR SWAP1 SSTORE POP DUP1 PUSH1 0x3 PUSH1 0x0 CALLER PUSH20 0xFFFFFFFFFFFFFFFFFFFFFFFFFFFFFFFFFFFFFFFF AND PUSH20 0xFFFFFFFFFFFFFFFFFFFFFFFFFFFFFFFFFFFFFFFF AND DUP2 MSTORE PUSH1 0x20 ADD SWAP1 DUP2 MSTORE PUSH1 0x20 ADD PUSH1 0x0 KECCAK256 PUSH1 0x1 ADD DUP2 SWAP1 SSTORE POP PUSH1 0x1 PUSH1 0x0 DUP3 DUP2 MSTORE PUSH1 0x20 ADD SWAP1 DUP2 MSTORE PUSH1 0x20 ADD PUSH1 0x0 KECCAK256 PUSH1 0x2 ADD PUSH1 0x0 DUP2 SLOAD DUP1 SWAP3 SWAP2 SWAP1 PUSH2 0x397 SWAP1 PUSH2 0xC76 JUMP JUMPDEST SWAP2 SWAP1 POP SSTORE POP DUP1 PUSH32 0xFFF3C900D938D21D0990D786E819F29B8D05C1EF587B462B939609625B684B16 PUSH1 0x40 MLOAD PUSH1 0x40 MLOAD DUP1 SWAP2 SUB SWAP1 LOG2 POP JUMP JUMPDEST PUSH1 0x0 PUSH1 0x1 PUSH1 0x0 DUP4 DUP2 MSTORE PUSH1 0x20 ADD SWAP1 DUP2 MSTORE PUSH1 0x20 ADD PUSH1 0x0 KECCAK256 PUSH1 0x2 ADD SLOAD SWAP1 POP SWAP2 SWAP1 POP JUMP JUMPDEST PUSH1 0x2 SLOAD DUP2 JUMP JUMPDEST PUSH1 0x1 PUSH1 0x20 MSTORE DUP1 PUSH1 0x0 MSTORE PUSH1 0x40 PUSH1 0x0 KECCAK256 PUSH1 0x0 SWAP2 POP SWAP1 POP DUP1 PUSH1 0x0 ADD SLOAD SWAP1 DUP1 PUSH1 0x1 ADD DUP1 SLOAD PUSH2 0x41B SWAP1 PUSH2 0xCEE JUMP JUMPDEST DUP1 PUSH1 0x1F ADD PUSH1 0x20 DUP1 SWAP2 DIV MUL PUSH1 0x20 ADD PUSH1 0x40 MLOAD SWAP1 DUP2 ADD PUSH1 0x40 MSTORE DUP1 SWAP3 SWAP2 SWAP1 DUP2 DUP2 MSTORE PUSH1 0x20 ADD DUP3 DUP1 SLOAD PUSH2 0x447 SWAP1 PUSH2 0xCEE JUMP JUMPDEST DUP1 ISZERO PUSH2 0x494 JUMPI DUP1 PUSH1 0x1F LT PUSH2 0x469 JUMPI PUSH2 0x100 DUP1 DUP4 SLOAD DIV MUL DUP4 MSTORE SWAP2 PUSH1 0x20 ADD SWAP2 PUSH2 0x494 JUMP JUMPDEST DUP3 ADD SWAP2 SWAP1 PUSH1 0x0 MSTORE PUSH1 0x20 PUSH1 0x0 KECCAK256 SWAP1 JUMPDEST DUP2 SLOAD DUP2 MSTORE SWAP1 PUSH1 0x1 ADD SWAP1 PUSH1 0x20 ADD DUP1 DUP4 GT PUSH2 0x477 JUMPI DUP3 SWAP1 SUB PUSH1 0x1F AND DUP3 ADD SWAP2 JUMPDEST POP POP POP POP POP SWAP1 DUP1 PUSH1 0x2 ADD SLOAD SWAP1 POP DUP4 JUMP JUMPDEST PUSH1 0x60 PUSH1 0x1 PUSH1 0x0 DUP4 DUP2 MSTORE PUSH1 0x20 ADD SWAP1 DUP2 MSTORE PUSH1 0x20 ADD PUSH1 0x0 KECCAK256 PUSH1 0x1 ADD DUP1 SLOAD PUSH2 0x4C7 SWAP1 PUSH2 0xCEE JUMP JUMPDEST DUP1 PUSH1 0x1F ADD PUSH1 0x20 DUP1 SWAP2 DIV MUL PUSH1 0x20 ADD PUSH1 0x40 MLOAD SWAP1 DUP2 ADD PUSH1 0x40 MSTORE DUP1 SWAP3 SWAP2 SWAP1 DUP2 DUP2 MSTORE PUSH1 0x20 ADD DUP3 DUP1 SLOAD PUSH2 0x4F3 SWAP1 PUSH2 0xCEE JUMP JUMPDEST DUP1 ISZERO PUSH2 0x540 JUMPI DUP1 PUSH1 0x1F LT PUSH2 0x515 JUMPI PUSH2 0x100 DUP1 DUP4 SLOAD DIV MUL DUP4 MSTORE SWAP2 PUSH1 0x20 ADD SWAP2 PUSH2 0x540 JUMP JUMPDEST DUP3 ADD SWAP2 SWAP1 PUSH1 0x0 MSTORE PUSH1 0x20 PUSH1 0x0 KECCAK256 SWAP1 JUMPDEST DUP2 SLOAD DUP2 MSTORE SWAP1 PUSH1 0x1 ADD SWAP1 PUSH1 0x20 ADD DUP1 DUP4 GT PUSH2 0x523 JUMPI DUP3 SWAP1 SUB PUSH1 0x1F AND DUP3 ADD SWAP2 JUMPDEST POP POP POP POP POP SWAP1 POP SWAP2 SWAP1 POP JUMP JUMPDEST PUSH1 0x0 DUP1 SLOAD SWAP1 PUSH2 0x100 EXP SWAP1 DIV PUSH20 0xFFFFFFFFFFFFFFFFFFFFFFFFFFFFFFFFFFFFFFFF AND PUSH20 0xFFFFFFFFFFFFFFFFFFFFFFFFFFFFFFFFFFFFFFFF AND CALLER PUSH20 0xFFFFFFFFFFFFFFFFFFFFFFFFFFFFFFFFFFFFFFFF AND EQ PUSH2 0x5DA JUMPI PUSH1 0x40 MLOAD PUSH32 0x8C379A000000000000000000000000000000000000000000000000000000000 DUP2 MSTORE PUSH1 0x4 ADD PUSH2 0x5D1 SWAP1 PUSH2 0xD6C JUMP JUMPDEST PUSH1 0x40 MLOAD DUP1 SWAP2 SUB SWAP1 REVERT JUMPDEST PUSH1 0x2 PUSH1 0x0 DUP2 SLOAD DUP1 SWAP3 SWAP2 SWAP1 PUSH2 0x5ED SWAP1 PUSH2 0xC76 JUMP JUMPDEST SWAP2 SWAP1 POP SSTORE POP PUSH1 0x40 MLOAD DUP1 PUSH1 0x60 ADD PUSH1 0x40 MSTORE DUP1 PUSH1 0x2 SLOAD DUP2 MSTORE PUSH1 0x20 ADD DUP3 DUP2 MSTORE PUSH1 0x20 ADD PUSH1 0x0 DUP2 MSTORE POP PUSH1 0x1 PUSH1 0x0 PUSH1 0x2 SLOAD DUP2 MSTORE PUSH1 0x20 ADD SWAP1 DUP2 MSTORE PUSH1 0x20 ADD PUSH1 0x0 KECCAK256 PUSH1 0x0 DUP3 ADD MLOAD DUP2 PUSH1 0x0 ADD SSTORE PUSH1 0x20 DUP3 ADD MLOAD DUP2 PUSH1 0x1 ADD SWAP1 DUP1 MLOAD SWAP1 PUSH1 0x20 ADD SWAP1 PUSH2 0x64B SWAP3 SWAP2 SWAP1 PUSH2 0x6BB JUMP JUMPDEST POP PUSH1 0x40 DUP3 ADD MLOAD DUP2 PUSH1 0x2 ADD SSTORE SWAP1 POP POP POP JUMP JUMPDEST PUSH1 0x0 DUP1 SLOAD SWAP1 PUSH2 0x100 EXP SWAP1 DIV PUSH20 0xFFFFFFFFFFFFFFFFFFFFFFFFFFFFFFFFFFFFFFFF AND DUP2 JUMP JUMPDEST PUSH1 0x3 PUSH1 0x20 MSTORE DUP1 PUSH1 0x0 MSTORE PUSH1 0x40 PUSH1 0x0 KECCAK256 PUSH1 0x0 SWAP2 POP SWAP1 POP DUP1 PUSH1 0x0 ADD PUSH1 0x0 SWAP1 SLOAD SWAP1 PUSH2 0x100 EXP SWAP1 DIV PUSH1 0xFF AND SWAP1 DUP1 PUSH1 0x1 ADD SLOAD SWAP1 POP DUP3 JUMP JUMPDEST PUSH1 0x0 PUSH1 0x2 SLOAD SWAP1 POP SWAP1 JUMP JUMPDEST DUP3 DUP1 SLOAD PUSH2 0x6C7 SWAP1 PUSH2 0xCEE JUMP JUMPDEST SWAP1 PUSH1 0x0 MSTORE PUSH1 0x20 PUSH1 0x0 KECCAK256 SWAP1 PUSH1 0x1F ADD PUSH1 0x20 SWAP1 DIV DUP2 ADD SWAP3 DUP3 PUSH2 0x6E9 JUMPI PUSH1 0x0 DUP6 SSTORE PUSH2 0x730 JUMP JUMPDEST DUP3 PUSH1 0x1F LT PUSH2 0x702 JUMPI DUP1 MLOAD PUSH1 0xFF NOT AND DUP4 DUP1 ADD OR DUP6 SSTORE PUSH2 0x730 JUMP JUMPDEST DUP3 DUP1 ADD PUSH1 0x1 ADD DUP6 SSTORE DUP3 ISZERO PUSH2 0x730 JUMPI SWAP2 DUP3 ADD JUMPDEST DUP3 DUP2 GT ISZERO PUSH2 0x72F JUMPI DUP3 MLOAD DUP3 SSTORE SWAP2 PUSH1 0x20 ADD SWAP2 SWAP1 PUSH1 0x1 ADD SWAP1 PUSH2 0x714 JUMP JUMPDEST JUMPDEST POP SWAP1 POP PUSH2 0x73D SWAP2 SWAP1 PUSH2 0x741 JUMP JUMPDEST POP SWAP1 JUMP JUMPDEST JUMPDEST DUP1 DUP3 GT ISZERO PUSH2 0x75A JUMPI PUSH1 0x0 DUP2 PUSH1 0x0 SWAP1 SSTORE POP PUSH1 0x1 ADD PUSH2 0x742 JUMP JUMPDEST POP SWAP1 JUMP JUMPDEST PUSH1 0x0 PUSH1 0x40 MLOAD SWAP1 POP SWAP1 JUMP JUMPDEST PUSH1 0x0 DUP1 REVERT JUMPDEST PUSH1 0x0 DUP1 REVERT JUMPDEST PUSH1 0x0 DUP2 SWAP1 POP SWAP2 SWAP1 POP JUMP JUMPDEST PUSH2 0x785 DUP2 PUSH2 0x772 JUMP JUMPDEST DUP2 EQ PUSH2 0x790 JUMPI PUSH1 0x0 DUP1 REVERT JUMPDEST POP JUMP JUMPDEST PUSH1 0x0 DUP2 CALLDATALOAD SWAP1 POP PUSH2 0x7A2 DUP2 PUSH2 0x77C JUMP JUMPDEST SWAP3 SWAP2 POP POP JUMP JUMPDEST PUSH1 0x0 PUSH1 0x20 DUP3 DUP5 SUB SLT ISZERO PUSH2 0x7BE JUMPI PUSH2 0x7BD PUSH2 0x768 JUMP JUMPDEST JUMPDEST PUSH1 0x0 PUSH2 0x7CC DUP5 DUP3 DUP6 ADD PUSH2 0x793 JUMP JUMPDEST SWAP2 POP POP SWAP3 SWAP2 POP POP JUMP JUMPDEST PUSH2 0x7DE DUP2 PUSH2 0x772 JUMP JUMPDEST DUP3 MSTORE POP POP JUMP JUMPDEST PUSH1 0x0 PUSH1 0x20 DUP3 ADD SWAP1 POP PUSH2 0x7F9 PUSH1 0x0 DUP4 ADD DUP5 PUSH2 0x7D5 JUMP JUMPDEST SWAP3 SWAP2 POP POP JUMP JUMPDEST PUSH1 0x0 DUP2 MLOAD SWAP1 POP SWAP2 SWAP1 POP JUMP JUMPDEST PUSH1 0x0 DUP3 DUP3 MSTORE PUSH1 0x20 DUP3 ADD SWAP1 POP SWAP3 SWAP2 POP POP JUMP JUMPDEST PUSH1 0x0 JUMPDEST DUP4 DUP2 LT ISZERO PUSH2 0x839 JUMPI DUP1 DUP3 ADD MLOAD DUP2 DUP5 ADD MSTORE PUSH1 0x20 DUP2 ADD SWAP1 POP PUSH2 0x81E JUMP JUMPDEST DUP4 DUP2 GT ISZERO PUSH2 0x848 JUMPI PUSH1 0x0 DUP5 DUP5 ADD MSTORE JUMPDEST POP POP POP POP JUMP JUMPDEST PUSH1 0x0 PUSH1 0x1F NOT PUSH1 0x1F DUP4 ADD AND SWAP1 POP SWAP2 SWAP1 POP JUMP JUMPDEST PUSH1 0x0 PUSH2 0x86A DUP3 PUSH2 0x7FF JUMP JUMPDEST PUSH2 0x874 DUP2 DUP6 PUSH2 0x80A JUMP JUMPDEST SWAP4 POP PUSH2 0x884 DUP2 DUP6 PUSH1 0x20 DUP7 ADD PUSH2 0x81B JUMP JUMPDEST PUSH2 0x88D DUP2 PUSH2 0x84E JUMP JUMPDEST DUP5 ADD SWAP2 POP POP SWAP3 SWAP2 POP POP JUMP JUMPDEST PUSH1 0x0 PUSH1 0x60 DUP3 ADD SWAP1 POP PUSH2 0x8AD PUSH1 0x0 DUP4 ADD DUP7 PUSH2 0x7D5 JUMP JUMPDEST DUP2 DUP2 SUB PUSH1 0x20 DUP4 ADD MSTORE PUSH2 0x8BF DUP2 DUP6 PUSH2 0x85F JUMP JUMPDEST SWAP1 POP PUSH2 0x8CE PUSH1 0x40 DUP4 ADD DUP5 PUSH2 0x7D5 JUMP JUMPDEST SWAP5 SWAP4 POP POP POP POP JUMP JUMPDEST PUSH1 0x0 PUSH1 0x20 DUP3 ADD SWAP1 POP DUP2 DUP2 SUB PUSH1 0x0 DUP4 ADD MSTORE PUSH2 0x8F0 DUP2 DUP5 PUSH2 0x85F JUMP JUMPDEST SWAP1 POP SWAP3 SWAP2 POP POP JUMP JUMPDEST PUSH1 0x0 DUP1 REVERT JUMPDEST PUSH1 0x0 DUP1 REVERT JUMPDEST PUSH32 0x4E487B7100000000000000000000000000000000000000000000000000000000 PUSH1 0x0 MSTORE PUSH1 0x41 PUSH1 0x4 MSTORE PUSH1 0x24 PUSH1 0x0 REVERT JUMPDEST PUSH2 0x93A DUP3 PUSH2 0x84E JUMP JUMPDEST DUP2 ADD DUP2 DUP2 LT PUSH8 0xFFFFFFFFFFFFFFFF DUP3 GT OR ISZERO PUSH2 0x959 JUMPI PUSH2 0x958 PUSH2 0x902 JUMP JUMPDEST JUMPDEST DUP1 PUSH1 0x40 MSTORE POP POP POP JUMP JUMPDEST PUSH1 0x0 PUSH2 0x96C PUSH2 0x75E JUMP JUMPDEST SWAP1 POP PUSH2 0x978 DUP3 DUP3 PUSH2 0x931 JUMP JUMPDEST SWAP2 SWAP1 POP JUMP JUMPDEST PUSH1 0x0 PUSH8 0xFFFFFFFFFFFFFFFF DUP3 GT ISZERO PUSH2 0x998 JUMPI PUSH2 0x997 PUSH2 0x902 JUMP JUMPDEST JUMPDEST PUSH2 0x9A1 DUP3 PUSH2 0x84E JUMP JUMPDEST SWAP1 POP PUSH1 0x20 DUP2 ADD SWAP1 POP SWAP2 SWAP1 POP JUMP JUMPDEST DUP3 DUP2 DUP4 CALLDATACOPY PUSH1 0x0 DUP4 DUP4 ADD MSTORE POP POP POP JUMP JUMPDEST PUSH1 0x0 PUSH2 0x9D0 PUSH2 0x9CB DUP5 PUSH2 0x97D JUMP JUMPDEST PUSH2 0x962 JUMP JUMPDEST SWAP1 POP DUP3 DUP2 MSTORE PUSH1 0x20 DUP2 ADD DUP5 DUP5 DUP5 ADD GT ISZERO PUSH2 0x9EC JUMPI PUSH2 0x9EB PUSH2 0x8FD JUMP JUMPDEST JUMPDEST PUSH2 0x9F7 DUP5 DUP3 DUP6 PUSH2 0x9AE JUMP JUMPDEST POP SWAP4 SWAP3 POP POP POP JUMP JUMPDEST PUSH1 0x0 DUP3 PUSH1 0x1F DUP4 ADD SLT PUSH2 0xA14 JUMPI PUSH2 0xA13 PUSH2 0x8F8 JUMP JUMPDEST JUMPDEST DUP2 CALLDATALOAD PUSH2 0xA24 DUP5 DUP3 PUSH1 0x20 DUP7 ADD PUSH2 0x9BD JUMP JUMPDEST SWAP2 POP POP SWAP3 SWAP2 POP POP JUMP JUMPDEST PUSH1 0x0 PUSH1 0x20 DUP3 DUP5 SUB SLT ISZERO PUSH2 0xA43 JUMPI PUSH2 0xA42 PUSH2 0x768 JUMP JUMPDEST JUMPDEST PUSH1 0x0 DUP3 ADD CALLDATALOAD PUSH8 0xFFFFFFFFFFFFFFFF DUP2 GT ISZERO PUSH2 0xA61 JUMPI PUSH2 0xA60 PUSH2 0x76D JUMP JUMPDEST JUMPDEST PUSH2 0xA6D DUP5 DUP3 DUP6 ADD PUSH2 0x9FF JUMP JUMPDEST SWAP2 POP POP SWAP3 SWAP2 POP POP JUMP JUMPDEST PUSH1 0x0 PUSH20 0xFFFFFFFFFFFFFFFFFFFFFFFFFFFFFFFFFFFFFFFF DUP3 AND SWAP1 POP SWAP2 SWAP1 POP JUMP JUMPDEST PUSH1 0x0 PUSH2 0xAA1 DUP3 PUSH2 0xA76 JUMP JUMPDEST SWAP1 POP SWAP2 SWAP1 POP JUMP JUMPDEST PUSH2 0xAB1 DUP2 PUSH2 0xA96 JUMP JUMPDEST DUP3 MSTORE POP POP JUMP JUMPDEST PUSH1 0x0 PUSH1 0x20 DUP3 ADD SWAP1 POP PUSH2 0xACC PUSH1 0x0 DUP4 ADD DUP5 PUSH2 0xAA8 JUMP JUMPDEST SWAP3 SWAP2 POP POP JUMP JUMPDEST PUSH2 0xADB DUP2 PUSH2 0xA96 JUMP JUMPDEST DUP2 EQ PUSH2 0xAE6 JUMPI PUSH1 0x0 DUP1 REVERT JUMPDEST POP JUMP JUMPDEST PUSH1 0x0 DUP2 CALLDATALOAD SWAP1 POP PUSH2 0xAF8 DUP2 PUSH2 0xAD2 JUMP JUMPDEST SWAP3 SWAP2 POP POP JUMP JUMPDEST PUSH1 0x0 PUSH1 0x20 DUP3 DUP5 SUB SLT ISZERO PUSH2 0xB14 JUMPI PUSH2 0xB13 PUSH2 0x768 JUMP JUMPDEST JUMPDEST PUSH1 0x0 PUSH2 0xB22 DUP5 DUP3 DUP6 ADD PUSH2 0xAE9 JUMP JUMPDEST SWAP2 POP POP SWAP3 SWAP2 POP POP JUMP JUMPDEST PUSH1 0x0 DUP2 ISZERO ISZERO SWAP1 POP SWAP2 SWAP1 POP JUMP JUMPDEST PUSH2 0xB40 DUP2 PUSH2 0xB2B JUMP JUMPDEST DUP3 MSTORE POP POP JUMP JUMPDEST PUSH1 0x0 PUSH1 0x40 DUP3 ADD SWAP1 POP PUSH2 0xB5B PUSH1 0x0 DUP4 ADD DUP6 PUSH2 0xB37 JUMP JUMPDEST PUSH2 0xB68 PUSH1 0x20 DUP4 ADD DUP5 PUSH2 0x7D5 JUMP JUMPDEST SWAP4 SWAP3 POP POP POP JUMP JUMPDEST PUSH32 0x416C726561647920766F74656400000000000000000000000000000000000000 PUSH1 0x0 DUP3 ADD MSTORE POP JUMP JUMPDEST PUSH1 0x0 PUSH2 0xBA5 PUSH1 0xD DUP4 PUSH2 0x80A JUMP JUMPDEST SWAP2 POP PUSH2 0xBB0 DUP3 PUSH2 0xB6F JUMP JUMPDEST PUSH1 0x20 DUP3 ADD SWAP1 POP SWAP2 SWAP1 POP JUMP JUMPDEST PUSH1 0x0 PUSH1 0x20 DUP3 ADD SWAP1 POP DUP2 DUP2 SUB PUSH1 0x0 DUP4 ADD MSTORE PUSH2 0xBD4 DUP2 PUSH2 0xB98 JUMP JUMPDEST SWAP1 POP SWAP2 SWAP1 POP JUMP JUMPDEST PUSH32 0x496E76616C69642063616E646964617465000000000000000000000000000000 PUSH1 0x0 DUP3 ADD MSTORE POP JUMP JUMPDEST PUSH1 0x0 PUSH2 0xC11 PUSH1 0x11 DUP4 PUSH2 0x80A JUMP JUMPDEST SWAP2 POP PUSH2 0xC1C DUP3 PUSH2 0xBDB JUMP JUMPDEST PUSH1 0x20 DUP3 ADD SWAP1 POP SWAP2 SWAP1 POP JUMP JUMPDEST PUSH1 0x0 PUSH1 0x20 DUP3 ADD SWAP1 POP DUP2 DUP2 SUB PUSH1 0x0 DUP4 ADD MSTORE PUSH2 0xC40 DUP2 PUSH2 0xC04 JUMP JUMPDEST SWAP1 POP SWAP2 SWAP1 POP JUMP JUMPDEST PUSH32 0x4E487B7100000000000000000000000000000000000000000000000000000000 PUSH1 0x0 MSTORE PUSH1 0x11 PUSH1 0x4 MSTORE PUSH1 0x24 PUSH1 0x0 REVERT JUMPDEST PUSH1 0x0 PUSH2 0xC81 DUP3 PUSH2 0x772 JUMP JUMPDEST SWAP2 POP PUSH32 0xFFFFFFFFFFFFFFFFFFFFFFFFFFFFFFFFFFFFFFFFFFFFFFFFFFFFFFFFFFFFFFFF DUP3 EQ ISZERO PUSH2 0xCB4 JUMPI PUSH2 0xCB3 PUSH2 0xC47 JUMP JUMPDEST JUMPDEST PUSH1 0x1 DUP3 ADD SWAP1 POP SWAP2 SWAP1 POP JUMP JUMPDEST PUSH32 0x4E487B7100000000000000000000000000000000000000000000000000000000 PUSH1 0x0 MSTORE PUSH1 0x22 PUSH1 0x4 MSTORE PUSH1 0x24 PUSH1 0x0 REVERT JUMPDEST PUSH1 0x0 PUSH1 0x2 DUP3 DIV SWAP1 POP PUSH1 0x1 DUP3 AND DUP1 PUSH2 0xD06 JUMPI PUSH1 0x7F DUP3 AND SWAP2 POP JUMPDEST PUSH1 0x20 DUP3 LT DUP2 EQ ISZERO PUSH2 0xD1A JUMPI PUSH2 0xD19 PUSH2 0xCBF JUMP JUMPDEST JUMPDEST POP SWAP2 SWAP1 POP JUMP JUMPDEST PUSH32 0x4F6E6C79206F776E65722063616E206164642063616E64696461746500000000 PUSH1 0x0 DUP3 ADD MSTORE POP JUMP JUMPDEST PUSH1 0x0 PUSH2 0xD56 PUSH1 0x1C DUP4 PUSH2 0x80A JUMP JUMPDEST SWAP2 POP PUSH2 0xD61 DUP3 PUSH2 0xD20 JUMP JUMPDEST PUSH1 0x20 DUP3 ADD SWAP1 POP SWAP2 SWAP1 POP JUMP JUMPDEST PUSH1 0x0 PUSH1 0x20 DUP3 ADD SWAP1 POP DUP2 DUP2 SUB PUSH1 0x0 DUP4 ADD MSTORE PUSH2 0xD85 DUP2 PUSH2 0xD49 JUMP JUMPDEST SWAP1 POP SWAP2 SWAP1 POP JUMP INVALID LOG2 PUSH5 0x6970667358 0x22 SLT KECCAK256 KECCAK256 DUP16 PUSH20 0xF68C6A3FD5BD1109D34289866A6561AFF67D59AF 0xCA DUP9 MOD EQ 0xD8 SWAP9 SWAP10 PUSH2 0x5764 PUSH20 0x6F6C634300080B00330000000000000000000000 "
		},
		"gasEstimates": {
			"creation": {
				"codeDepositCost": "704400",
				"executionCost": "25007",
				"totalCost": "729407"
			},
			"external": {
				"addCandidate(string)": "infinite",
				"candidates(uint256)": "infinite",
				"candidatesCount()": "2474",
				"getCandidate(uint256)": "infinite",
				"getCandidatesCount()": "2525",
				"getTotalVotes(uint256)": "infinite",
				"owner()": "2555",
				"vote(uint256)": "infinite",
				"voters(address)": "5148"
			}
		},
		"methodIdentifiers": {
			"addCandidate(string)": "462e91ec",
			"candidates(uint256)": "3477ee2e",
			"candidatesCount()": "2d35a8a2",
			"getCandidate(uint256)": "35b8e820",
			"getCandidatesCount()": "bb9aa28f",
			"getTotalVotes(uint256)": "2ce35e11",
			"owner()": "8da5cb5b",
			"vote(uint256)": "0121b93f",
			"voters(address)": "a3ec138d"
		}
	},
	"abi": [
		{
			"inputs": [],
			"stateMutability": "nonpayable",
			"type": "constructor"
		},
		{
			"anonymous": false,
			"inputs": [
				{
					"indexed": true,
					"internalType": "uint256",
					"name": "_candidateId",
					"type": "uint256"
				}
			],
			"name": "votedEvent",
			"type": "event"
		},
		{
			"inputs": [
				{
					"internalType": "string",
					"name": "_name",
					"type": "string"
				}
			],
			"name": "addCandidate",
			"outputs": [],
			"stateMutability": "nonpayable",
			"type": "function"
		},
		{
			"inputs": [
				{
					"internalType": "uint256",
					"name": "",
					"type": "uint256"
				}
			],
			"name": "candidates",
			"outputs": [
				{
					"internalType": "uint256",
					"name": "id",
					"type": "uint256"
				},
				{
					"internalType": "string",
					"name": "name",
					"type": "string"
				},
				{
					"internalType": "uint256",
					"name": "voteCount",
					"type": "uint256"
				}
			],
			"stateMutability": "view",
			"type": "function"
		},
		{
			"inputs": [],
			"name": "candidatesCount",
			"outputs": [
				{
					"internalType": "uint256",
					"name": "",
					"type": "uint256"
				}
			],
			"stateMutability": "view",
			"type": "function"
		},
		{
			"inputs": [
				{
					"internalType": "uint256",
					"name": "_candidateId",
					"type": "uint256"
				}
			],
			"name": "getCandidate",
			"outputs": [
				{
					"internalType": "string",
					"name": "",
					"type": "string"
				}
			],
			"stateMutability": "view",
			"type": "function"
		},
		{
			"inputs": [],
			"name": "getCandidatesCount",
			"outputs": [
				{
					"internalType": "uint256",
					"name": "",
					"type": "uint256"
				}
			],
			"stateMutability": "view",
			"type": "function"
		},
		{
			"inputs": [
				{
					"internalType": "uint256",
					"name": "_candidateId",
					"type": "uint256"
				}
			],
			"name": "getTotalVotes",
			"outputs": [
				{
					"internalType": "uint256",
					"name": "",
					"type": "uint256"
				}
			],
			"stateMutability": "view",
			"type": "function"
		},
		{
			"inputs": [],
			"name": "owner",
			"outputs": [
				{
					"internalType": "address",
					"name": "",
					"type": "address"
				}
			],
			"stateMutability": "view",
			"type": "function"
		},
		{
			"inputs": [
				{
					"internalType": "uint256",
					"name": "_candidateId",
					"type": "uint256"
				}
			],
			"name": "vote",
			"outputs": [],
			"stateMutability": "nonpayable",
			"type": "function"
		},
		{
			"inputs": [
				{
					"internalType": "address",
					"name": "",
					"type": "address"
				}
			],
			"name": "voters",
			"outputs": [
				{
					"internalType": "bool",
					"name": "voted",
					"type": "bool"
				},
				{
					"internalType": "uint256",
					"name": "voteIndex",
					"type": "uint256"
				}
			],
			"stateMutability": "view",
			"type": "function"
		}
	]
}