{
	"data": {
		"bytecode": {
			"linkReferences": {},
			"object": "608060405234801561001057600080fd5b50610c52806100206000396000f3fe608060405234801561001057600080fd5b506004361061004c5760003560e01c8063a9d67e6214610051578063b0cf057f1461006d578063bcc3918814610089578063dcb7b1b7146100bc575b600080fd5b61006b600480360381019061006691906106ca565b6100da565b005b61008760048036038101906100829190610850565b610274565b005b6100a3600480360381019061009e91906108db565b6103aa565b6040516100b394939291906109ae565b60405180910390f35b6100c4610579565b6040516100d19190610a01565b60405180910390f35b600080600084815260200190815260200160002090508060030160009054906101000a900473ffffffffffffffffffffffffffffffffffffffff1673ffffffffffffffffffffffffffffffffffffffff163373ffffffffffffffffffffffffffffffffffffffff1614610182576040517f08c379a000000000000000000000000000000000000000000000000000000000815260040161017990610a8e565b60405180910390fd5b600073ffffffffffffffffffffffffffffffffffffffff168273ffffffffffffffffffffffffffffffffffffffff1614156101f2576040517f08c379a00000000000000000000000000000000000000000000000000000000081526004016101e990610afa565b60405180910390fd5b818160030160006101000a81548173ffffffffffffffffffffffffffffffffffffffff021916908373ffffffffffffffffffffffffffffffffffffffff160217905550827f676273c1e956df2ec32ad65cfc3ef26a188e8e467cf13299f7f20d076e2c9f9a3384604051610267929190610b1a565b60405180910390a2505050565b6001600081548092919061028790610b72565b919050555060405180608001604052808481526020018381526020018281526020013373ffffffffffffffffffffffffffffffffffffffff16815250600080600154815260200190815260200160002060008201518160000190805190602001906102f392919061057f565b50602082015181600101908051906020019061031092919061057f565b506040820151816002015560608201518160030160006101000a81548173ffffffffffffffffffffffffffffffffffffffff021916908373ffffffffffffffffffffffffffffffffffffffff1602179055509050506001547fb370097b22ec389f2ddfe30e24bcc50d34bd10c80d8b0afb8ccf732f44934f978484843360405161039d94939291906109ae565b60405180910390a2505050565b60608060008060008060008781526020019081526020016000206040518060800160405290816000820180546103df90610bea565b80601f016020809104026020016040519081016040528092919081815260200182805461040b90610bea565b80156104585780601f1061042d57610100808354040283529160200191610458565b820191906000526020600020905b81548152906001019060200180831161043b57829003601f168201915b5050505050815260200160018201805461047190610bea565b80601f016020809104026020016040519081016040528092919081815260200182805461049d90610bea565b80156104ea5780601f106104bf576101008083540402835291602001916104ea565b820191906000526020600020905b8154815290600101906020018083116104cd57829003601f168201915b50505050508152602001600282015481526020016003820160009054906101000a900473ffffffffffffffffffffffffffffffffffffffff1673ffffffffffffffffffffffffffffffffffffffff1673ffffffffffffffffffffffffffffffffffffffff1681525050905080600001518160200151826040015183606001519450945094509450509193509193565b60015481565b82805461058b90610bea565b90600052602060002090601f0160209004810192826105ad57600085556105f4565b82601f106105c657805160ff19168380011785556105f4565b828001600101855582156105f4579182015b828111156105f35782518255916020019190600101906105d8565b5b5090506106019190610605565b5090565b5b8082111561061e576000816000905550600101610606565b5090565b6000604051905090565b600080fd5b600080fd5b6000819050919050565b61064981610636565b811461065457600080fd5b50565b60008135905061066681610640565b92915050565b600073ffffffffffffffffffffffffffffffffffffffff82169050919050565b60006106978261066c565b9050919050565b6106a78161068c565b81146106b257600080fd5b50565b6000813590506106c48161069e565b92915050565b600080604083850312156106e1576106e061062c565b5b60006106ef85828601610657565b9250506020610700858286016106b5565b9150509250929050565b600080fd5b600080fd5b6000601f19601f8301169050919050565b7f4e487b7100000000000000000000000000000000000000000000000000000000600052604160045260246000fd5b61075d82610714565b810181811067ffffffffffffffff8211171561077c5761077b610725565b5b80604052505050565b600061078f610622565b905061079b8282610754565b919050565b600067ffffffffffffffff8211156107bb576107ba610725565b5b6107c482610714565b9050602081019050919050565b82818337600083830152505050565b60006107f36107ee846107a0565b610785565b90508281526020810184848401111561080f5761080e61070f565b5b61081a8482856107d1565b509392505050565b600082601f8301126108375761083661070a565b5b81356108478482602086016107e0565b91505092915050565b6000806000606084860312156108695761086861062c565b5b600084013567ffffffffffffffff81111561088757610886610631565b5b61089386828701610822565b935050602084013567ffffffffffffffff8111156108b4576108b3610631565b5b6108c086828701610822565b92505060406108d186828701610657565b9150509250925092565b6000602082840312156108f1576108f061062c565b5b60006108ff84828501610657565b91505092915050565b600081519050919050565b600082825260208201905092915050565b60005b83811015610942578082015181840152602081019050610927565b83811115610951576000848401525b50505050565b600061096282610908565b61096c8185610913565b935061097c818560208601610924565b61098581610714565b840191505092915050565b61099981610636565b82525050565b6109a88161068c565b82525050565b600060808201905081810360008301526109c88187610957565b905081810360208301526109dc8186610957565b90506109eb6040830185610990565b6109f8606083018461099f565b95945050505050565b6000602082019050610a166000830184610990565b92915050565b7f4f6e6c79207468652063757272656e74206f776e65722063616e207472616e7360008201527f666572206f776e65727368697000000000000000000000000000000000000000602082015250565b6000610a78602d83610913565b9150610a8382610a1c565b604082019050919050565b60006020820190508181036000830152610aa781610a6b565b9050919050565b7f496e76616c6964206e6577206f776e6572206164647265737300000000000000600082015250565b6000610ae4601983610913565b9150610aef82610aae565b602082019050919050565b60006020820190508181036000830152610b1381610ad7565b9050919050565b6000604082019050610b2f600083018561099f565b610b3c602083018461099f565b9392505050565b7f4e487b7100000000000000000000000000000000000000000000000000000000600052601160045260246000fd5b6000610b7d82610636565b91507fffffffffffffffffffffffffffffffffffffffffffffffffffffffffffffffff821415610bb057610baf610b43565b5b600182019050919050565b7f4e487b7100000000000000000000000000000000000000000000000000000000600052602260045260246000fd5b60006002820490506001821680610c0257607f821691505b60208210811415610c1657610c15610bbb565b5b5091905056fea264697066735822122082eec90601306247846b774f998119633dafcf668cbc28ab52dee624ddcb8cdd64736f6c634300080b0033",
			"opcodes": "PUSH1 0x80 PUSH1 0x40 MSTORE CALLVALUE DUP1 ISZERO PUSH2 0x10 JUMPI PUSH1 0x0 DUP1 REVERT JUMPDEST POP PUSH2 0xC52 DUP1 PUSH2 0x20 PUSH1 0x0 CODECOPY PUSH1 0x0 RETURN INVALID PUSH1 0x80 PUSH1 0x40 MSTORE CALLVALUE DUP1 ISZERO PUSH2 0x10 JUMPI PUSH1 0x0 DUP1 REVERT JUMPDEST POP PUSH1 0x4 CALLDATASIZE LT PUSH2 0x4C JUMPI PUSH1 0x0 CALLDATALOAD PUSH1 0xE0 SHR DUP1 PUSH4 0xA9D67E62 EQ PUSH2 0x51 JUMPI DUP1 PUSH4 0xB0CF057F EQ PUSH2 0x6D JUMPI DUP1 PUSH4 0xBCC39188 EQ PUSH2 0x89 JUMPI DUP1 PUSH4 0xDCB7B1B7 EQ PUSH2 0xBC JUMPI JUMPDEST PUSH1 0x0 DUP1 REVERT JUMPDEST PUSH2 0x6B PUSH1 0x4 DUP1 CALLDATASIZE SUB DUP2 ADD SWAP1 PUSH2 0x66 SWAP2 SWAP1 PUSH2 0x6CA JUMP JUMPDEST PUSH2 0xDA JUMP JUMPDEST STOP JUMPDEST PUSH2 0x87 PUSH1 0x4 DUP1 CALLDATASIZE SUB DUP2 ADD SWAP1 PUSH2 0x82 SWAP2 SWAP1 PUSH2 0x850 JUMP JUMPDEST PUSH2 0x274 JUMP JUMPDEST STOP JUMPDEST PUSH2 0xA3 PUSH1 0x4 DUP1 CALLDATASIZE SUB DUP2 ADD SWAP1 PUSH2 0x9E SWAP2 SWAP1 PUSH2 0x8DB JUMP JUMPDEST PUSH2 0x3AA JUMP JUMPDEST PUSH1 0x40 MLOAD PUSH2 0xB3 SWAP5 SWAP4 SWAP3 SWAP2 SWAP1 PUSH2 0x9AE JUMP JUMPDEST PUSH1 0x40 MLOAD DUP1 SWAP2 SUB SWAP1 RETURN JUMPDEST PUSH2 0xC4 PUSH2 0x579 JUMP JUMPDEST PUSH1 0x40 MLOAD PUSH2 0xD1 SWAP2 SWAP1 PUSH2 0xA01 JUMP JUMPDEST PUSH1 0x40 MLOAD DUP1 SWAP2 SUB SWAP1 RETURN JUMPDEST PUSH1 0x0 DUP1 PUSH1 0x0 DUP5 DUP2 MSTORE PUSH1 0x20 ADD SWAP1 DUP2 MSTORE PUSH1 0x20 ADD PUSH1 0x0 KECCAK256 SWAP1 POP DUP1 PUSH1 0x3 ADD PUSH1 0x0 SWAP1 SLOAD SWAP1 PUSH2 0x100 EXP SWAP1 DIV PUSH20 0xFFFFFFFFFFFFFFFFFFFFFFFFFFFFFFFFFFFFFFFF AND PUSH20 0xFFFFFFFFFFFFFFFFFFFFFFFFFFFFFFFFFFFFFFFF AND CALLER PUSH20 0xFFFFFFFFFFFFFFFFFFFFFFFFFFFFFFFFFFFFFFFF AND EQ PUSH2 0x182 JUMPI PUSH1 0x40 MLOAD PUSH32 0x8C379A000000000000000000000000000000000000000000000000000000000 DUP2 MSTORE PUSH1 0x4 ADD PUSH2 0x179 SWAP1 PUSH2 0xA8E JUMP JUMPDEST PUSH1 0x40 MLOAD DUP1 SWAP2 SUB SWAP1 REVERT JUMPDEST PUSH1 0x0 PUSH20 0xFFFFFFFFFFFFFFFFFFFFFFFFFFFFFFFFFFFFFFFF AND DUP3 PUSH20 0xFFFFFFFFFFFFFFFFFFFFFFFFFFFFFFFFFFFFFFFF AND EQ ISZERO PUSH2 0x1F2 JUMPI PUSH1 0x40 MLOAD PUSH32 0x8C379A000000000000000000000000000000000000000000000000000000000 DUP2 MSTORE PUSH1 0x4 ADD PUSH2 0x1E9 SWAP1 PUSH2 0xAFA JUMP JUMPDEST PUSH1 0x40 MLOAD DUP1 SWAP2 SUB SWAP1 REVERT JUMPDEST DUP2 DUP2 PUSH1 0x3 ADD PUSH1 0x0 PUSH2 0x100 EXP DUP2 SLOAD DUP2 PUSH20 0xFFFFFFFFFFFFFFFFFFFFFFFFFFFFFFFFFFFFFFFF MUL NOT AND SWAP1 DUP4 PUSH20 0xFFFFFFFFFFFFFFFFFFFFFFFFFFFFFFFFFFFFFFFF AND MUL OR SWAP1 SSTORE POP DUP3 PUSH32 0x676273C1E956DF2EC32AD65CFC3EF26A188E8E467CF13299F7F20D076E2C9F9A CALLER DUP5 PUSH1 0x40 MLOAD PUSH2 0x267 SWAP3 SWAP2 SWAP1 PUSH2 0xB1A JUMP JUMPDEST PUSH1 0x40 MLOAD DUP1 SWAP2 SUB SWAP1 LOG2 POP POP POP JUMP JUMPDEST PUSH1 0x1 PUSH1 0x0 DUP2 SLOAD DUP1 SWAP3 SWAP2 SWAP1 PUSH2 0x287 SWAP1 PUSH2 0xB72 JUMP JUMPDEST SWAP2 SWAP1 POP SSTORE POP PUSH1 0x40 MLOAD DUP1 PUSH1 0x80 ADD PUSH1 0x40 MSTORE DUP1 DUP5 DUP2 MSTORE PUSH1 0x20 ADD DUP4 DUP2 MSTORE PUSH1 0x20 ADD DUP3 DUP2 MSTORE PUSH1 0x20 ADD CALLER PUSH20 0xFFFFFFFFFFFFFFFFFFFFFFFFFFFFFFFFFFFFFFFF AND DUP2 MSTORE POP PUSH1 0x0 DUP1 PUSH1 0x1 SLOAD DUP2 MSTORE PUSH1 0x20 ADD SWAP1 DUP2 MSTORE PUSH1 0x20 ADD PUSH1 0x0 KECCAK256 PUSH1 0x0 DUP3 ADD MLOAD DUP2 PUSH1 0x0 ADD SWAP1 DUP1 MLOAD SWAP1 PUSH1 0x20 ADD SWAP1 PUSH2 0x2F3 SWAP3 SWAP2 SWAP1 PUSH2 0x57F JUMP JUMPDEST POP PUSH1 0x20 DUP3 ADD MLOAD DUP2 PUSH1 0x1 ADD SWAP1 DUP1 MLOAD SWAP1 PUSH1 0x20 ADD SWAP1 PUSH2 0x310 SWAP3 SWAP2 SWAP1 PUSH2 0x57F JUMP JUMPDEST POP PUSH1 0x40 DUP3 ADD MLOAD DUP2 PUSH1 0x2 ADD SSTORE PUSH1 0x60 DUP3 ADD MLOAD DUP2 PUSH1 0x3 ADD PUSH1 0x0 PUSH2 0x100 EXP DUP2 SLOAD DUP2 PUSH20 0xFFFFFFFFFFFFFFFFFFFFFFFFFFFFFFFFFFFFFFFF MUL NOT AND SWAP1 DUP4 PUSH20 0xFFFFFFFFFFFFFFFFFFFFFFFFFFFFFFFFFFFFFFFF AND MUL OR SWAP1 SSTORE POP SWAP1 POP POP PUSH1 0x1 SLOAD PUSH32 0xB370097B22EC389F2DDFE30E24BCC50D34BD10C80D8B0AFB8CCF732F44934F97 DUP5 DUP5 DUP5 CALLER PUSH1 0x40 MLOAD PUSH2 0x39D SWAP5 SWAP4 SWAP3 SWAP2 SWAP1 PUSH2 0x9AE JUMP JUMPDEST PUSH1 0x40 MLOAD DUP1 SWAP2 SUB SWAP1 LOG2 POP POP POP JUMP JUMPDEST PUSH1 0x60 DUP1 PUSH1 0x0 DUP1 PUSH1 0x0 DUP1 PUSH1 0x0 DUP8 DUP2 MSTORE PUSH1 0x20 ADD SWAP1 DUP2 MSTORE PUSH1 0x20 ADD PUSH1 0x0 KECCAK256 PUSH1 0x40 MLOAD DUP1 PUSH1 0x80 ADD PUSH1 0x40 MSTORE SWAP1 DUP2 PUSH1 0x0 DUP3 ADD DUP1 SLOAD PUSH2 0x3DF SWAP1 PUSH2 0xBEA JUMP JUMPDEST DUP1 PUSH1 0x1F ADD PUSH1 0x20 DUP1 SWAP2 DIV MUL PUSH1 0x20 ADD PUSH1 0x40 MLOAD SWAP1 DUP2 ADD PUSH1 0x40 MSTORE DUP1 SWAP3 SWAP2 SWAP1 DUP2 DUP2 MSTORE PUSH1 0x20 ADD DUP3 DUP1 SLOAD PUSH2 0x40B SWAP1 PUSH2 0xBEA JUMP JUMPDEST DUP1 ISZERO PUSH2 0x458 JUMPI DUP1 PUSH1 0x1F LT PUSH2 0x42D JUMPI PUSH2 0x100 DUP1 DUP4 SLOAD DIV MUL DUP4 MSTORE SWAP2 PUSH1 0x20 ADD SWAP2 PUSH2 0x458 JUMP JUMPDEST DUP3 ADD SWAP2 SWAP1 PUSH1 0x0 MSTORE PUSH1 0x20 PUSH1 0x0 KECCAK256 SWAP1 JUMPDEST DUP2 SLOAD DUP2 MSTORE SWAP1 PUSH1 0x1 ADD SWAP1 PUSH1 0x20 ADD DUP1 DUP4 GT PUSH2 0x43B JUMPI DUP3 SWAP1 SUB PUSH1 0x1F AND DUP3 ADD SWAP2 JUMPDEST POP POP POP POP POP DUP2 MSTORE PUSH1 0x20 ADD PUSH1 0x1 DUP3 ADD DUP1 SLOAD PUSH2 0x471 SWAP1 PUSH2 0xBEA JUMP JUMPDEST DUP1 PUSH1 0x1F ADD PUSH1 0x20 DUP1 SWAP2 DIV MUL PUSH1 0x20 ADD PUSH1 0x40 MLOAD SWAP1 DUP2 ADD PUSH1 0x40 MSTORE DUP1 SWAP3 SWAP2 SWAP1 DUP2 DUP2 MSTORE PUSH1 0x20 ADD DUP3 DUP1 SLOAD PUSH2 0x49D SWAP1 PUSH2 0xBEA JUMP JUMPDEST DUP1 ISZERO PUSH2 0x4EA JUMPI DUP1 PUSH1 0x1F LT PUSH2 0x4BF JUMPI PUSH2 0x100 DUP1 DUP4 SLOAD DIV MUL DUP4 MSTORE SWAP2 PUSH1 0x20 ADD SWAP2 PUSH2 0x4EA JUMP JUMPDEST DUP3 ADD SWAP2 SWAP1 PUSH1 0x0 MSTORE PUSH1 0x20 PUSH1 0x0 KECCAK256 SWAP1 JUMPDEST DUP2 SLOAD DUP2 MSTORE SWAP1 PUSH1 0x1 ADD SWAP1 PUSH1 0x20 ADD DUP1 DUP4 GT PUSH2 0x4CD JUMPI DUP3 SWAP1 SUB PUSH1 0x1F AND DUP3 ADD SWAP2 JUMPDEST POP POP POP POP POP DUP2 MSTORE PUSH1 0x20 ADD PUSH1 0x2 DUP3 ADD SLOAD DUP2 MSTORE PUSH1 0x20 ADD PUSH1 0x3 DUP3 ADD PUSH1 0x0 SWAP1 SLOAD SWAP1 PUSH2 0x100 EXP SWAP1 DIV PUSH20 0xFFFFFFFFFFFFFFFFFFFFFFFFFFFFFFFFFFFFFFFF AND PUSH20 0xFFFFFFFFFFFFFFFFFFFFFFFFFFFFFFFFFFFFFFFF AND PUSH20 0xFFFFFFFFFFFFFFFFFFFFFFFFFFFFFFFFFFFFFFFF AND DUP2 MSTORE POP POP SWAP1 POP DUP1 PUSH1 0x0 ADD MLOAD DUP2 PUSH1 0x20 ADD MLOAD DUP3 PUSH1 0x40 ADD MLOAD DUP4 PUSH1 0x60 ADD MLOAD SWAP5 POP SWAP5 POP SWAP5 POP SWAP5 POP POP SWAP2 SWAP4 POP SWAP2 SWAP4 JUMP JUMPDEST PUSH1 0x1 SLOAD DUP2 JUMP JUMPDEST DUP3 DUP1 SLOAD PUSH2 0x58B SWAP1 PUSH2 0xBEA JUMP JUMPDEST SWAP1 PUSH1 0x0 MSTORE PUSH1 0x20 PUSH1 0x0 KECCAK256 SWAP1 PUSH1 0x1F ADD PUSH1 0x20 SWAP1 DIV DUP2 ADD SWAP3 DUP3 PUSH2 0x5AD JUMPI PUSH1 0x0 DUP6 SSTORE PUSH2 0x5F4 JUMP JUMPDEST DUP3 PUSH1 0x1F LT PUSH2 0x5C6 JUMPI DUP1 MLOAD PUSH1 0xFF NOT AND DUP4 DUP1 ADD OR DUP6 SSTORE PUSH2 0x5F4 JUMP JUMPDEST DUP3 DUP1 ADD PUSH1 0x1 ADD DUP6 SSTORE DUP3 ISZERO PUSH2 0x5F4 JUMPI SWAP2 DUP3 ADD JUMPDEST DUP3 DUP2 GT ISZERO PUSH2 0x5F3 JUMPI DUP3 MLOAD DUP3 SSTORE SWAP2 PUSH1 0x20 ADD SWAP2 SWAP1 PUSH1 0x1 ADD SWAP1 PUSH2 0x5D8 JUMP JUMPDEST JUMPDEST POP SWAP1 POP PUSH2 0x601 SWAP2 SWAP1 PUSH2 0x605 JUMP JUMPDEST POP SWAP1 JUMP JUMPDEST JUMPDEST DUP1 DUP3 GT ISZERO PUSH2 0x61E JUMPI PUSH1 0x0 DUP2 PUSH1 0x0 SWAP1 SSTORE POP PUSH1 0x1 ADD PUSH2 0x606 JUMP JUMPDEST POP SWAP1 JUMP JUMPDEST PUSH1 0x0 PUSH1 0x40 MLOAD SWAP1 POP SWAP1 JUMP JUMPDEST PUSH1 0x0 DUP1 REVERT JUMPDEST PUSH1 0x0 DUP1 REVERT JUMPDEST PUSH1 0x0 DUP2 SWAP1 POP SWAP2 SWAP1 POP JUMP JUMPDEST PUSH2 0x649 DUP2 PUSH2 0x636 JUMP JUMPDEST DUP2 EQ PUSH2 0x654 JUMPI PUSH1 0x0 DUP1 REVERT JUMPDEST POP JUMP JUMPDEST PUSH1 0x0 DUP2 CALLDATALOAD SWAP1 POP PUSH2 0x666 DUP2 PUSH2 0x640 JUMP JUMPDEST SWAP3 SWAP2 POP POP JUMP JUMPDEST PUSH1 0x0 PUSH20 0xFFFFFFFFFFFFFFFFFFFFFFFFFFFFFFFFFFFFFFFF DUP3 AND SWAP1 POP SWAP2 SWAP1 POP JUMP JUMPDEST PUSH1 0x0 PUSH2 0x697 DUP3 PUSH2 0x66C JUMP JUMPDEST SWAP1 POP SWAP2 SWAP1 POP JUMP JUMPDEST PUSH2 0x6A7 DUP2 PUSH2 0x68C JUMP JUMPDEST DUP2 EQ PUSH2 0x6B2 JUMPI PUSH1 0x0 DUP1 REVERT JUMPDEST POP JUMP JUMPDEST PUSH1 0x0 DUP2 CALLDATALOAD SWAP1 POP PUSH2 0x6C4 DUP2 PUSH2 0x69E JUMP JUMPDEST SWAP3 SWAP2 POP POP JUMP JUMPDEST PUSH1 0x0 DUP1 PUSH1 0x40 DUP4 DUP6 SUB SLT ISZERO PUSH2 0x6E1 JUMPI PUSH2 0x6E0 PUSH2 0x62C JUMP JUMPDEST JUMPDEST PUSH1 0x0 PUSH2 0x6EF DUP6 DUP3 DUP7 ADD PUSH2 0x657 JUMP JUMPDEST SWAP3 POP POP PUSH1 0x20 PUSH2 0x700 DUP6 DUP3 DUP7 ADD PUSH2 0x6B5 JUMP JUMPDEST SWAP2 POP POP SWAP3 POP SWAP3 SWAP1 POP JUMP JUMPDEST PUSH1 0x0 DUP1 REVERT JUMPDEST PUSH1 0x0 DUP1 REVERT JUMPDEST PUSH1 0x0 PUSH1 0x1F NOT PUSH1 0x1F DUP4 ADD AND SWAP1 POP SWAP2 SWAP1 POP JUMP JUMPDEST PUSH32 0x4E487B7100000000000000000000000000000000000000000000000000000000 PUSH1 0x0 MSTORE PUSH1 0x41 PUSH1 0x4 MSTORE PUSH1 0x24 PUSH1 0x0 REVERT JUMPDEST PUSH2 0x75D DUP3 PUSH2 0x714 JUMP JUMPDEST DUP2 ADD DUP2 DUP2 LT PUSH8 0xFFFFFFFFFFFFFFFF DUP3 GT OR ISZERO PUSH2 0x77C JUMPI PUSH2 0x77B PUSH2 0x725 JUMP JUMPDEST JUMPDEST DUP1 PUSH1 0x40 MSTORE POP POP POP JUMP JUMPDEST PUSH1 0x0 PUSH2 0x78F PUSH2 0x622 JUMP JUMPDEST SWAP1 POP PUSH2 0x79B DUP3 DUP3 PUSH2 0x754 JUMP JUMPDEST SWAP2 SWAP1 POP JUMP JUMPDEST PUSH1 0x0 PUSH8 0xFFFFFFFFFFFFFFFF DUP3 GT ISZERO PUSH2 0x7BB JUMPI PUSH2 0x7BA PUSH2 0x725 JUMP JUMPDEST JUMPDEST PUSH2 0x7C4 DUP3 PUSH2 0x714 JUMP JUMPDEST SWAP1 POP PUSH1 0x20 DUP2 ADD SWAP1 POP SWAP2 SWAP1 POP JUMP JUMPDEST DUP3 DUP2 DUP4 CALLDATACOPY PUSH1 0x0 DUP4 DUP4 ADD MSTORE POP POP POP JUMP JUMPDEST PUSH1 0x0 PUSH2 0x7F3 PUSH2 0x7EE DUP5 PUSH2 0x7A0 JUMP JUMPDEST PUSH2 0x785 JUMP JUMPDEST SWAP1 POP DUP3 DUP2 MSTORE PUSH1 0x20 DUP2 ADD DUP5 DUP5 DUP5 ADD GT ISZERO PUSH2 0x80F JUMPI PUSH2 0x80E PUSH2 0x70F JUMP JUMPDEST JUMPDEST PUSH2 0x81A DUP5 DUP3 DUP6 PUSH2 0x7D1 JUMP JUMPDEST POP SWAP4 SWAP3 POP POP POP JUMP JUMPDEST PUSH1 0x0 DUP3 PUSH1 0x1F DUP4 ADD SLT PUSH2 0x837 JUMPI PUSH2 0x836 PUSH2 0x70A JUMP JUMPDEST JUMPDEST DUP2 CALLDATALOAD PUSH2 0x847 DUP5 DUP3 PUSH1 0x20 DUP7 ADD PUSH2 0x7E0 JUMP JUMPDEST SWAP2 POP POP SWAP3 SWAP2 POP POP JUMP JUMPDEST PUSH1 0x0 DUP1 PUSH1 0x0 PUSH1 0x60 DUP5 DUP7 SUB SLT ISZERO PUSH2 0x869 JUMPI PUSH2 0x868 PUSH2 0x62C JUMP JUMPDEST JUMPDEST PUSH1 0x0 DUP5 ADD CALLDATALOAD PUSH8 0xFFFFFFFFFFFFFFFF DUP2 GT ISZERO PUSH2 0x887 JUMPI PUSH2 0x886 PUSH2 0x631 JUMP JUMPDEST JUMPDEST PUSH2 0x893 DUP7 DUP3 DUP8 ADD PUSH2 0x822 JUMP JUMPDEST SWAP4 POP POP PUSH1 0x20 DUP5 ADD CALLDATALOAD PUSH8 0xFFFFFFFFFFFFFFFF DUP2 GT ISZERO PUSH2 0x8B4 JUMPI PUSH2 0x8B3 PUSH2 0x631 JUMP JUMPDEST JUMPDEST PUSH2 0x8C0 DUP7 DUP3 DUP8 ADD PUSH2 0x822 JUMP JUMPDEST SWAP3 POP POP PUSH1 0x40 PUSH2 0x8D1 DUP7 DUP3 DUP8 ADD PUSH2 0x657 JUMP JUMPDEST SWAP2 POP POP SWAP3 POP SWAP3 POP SWAP3 JUMP JUMPDEST PUSH1 0x0 PUSH1 0x20 DUP3 DUP5 SUB SLT ISZERO PUSH2 0x8F1 JUMPI PUSH2 0x8F0 PUSH2 0x62C JUMP JUMPDEST JUMPDEST PUSH1 0x0 PUSH2 0x8FF DUP5 DUP3 DUP6 ADD PUSH2 0x657 JUMP JUMPDEST SWAP2 POP POP SWAP3 SWAP2 POP POP JUMP JUMPDEST PUSH1 0x0 DUP2 MLOAD SWAP1 POP SWAP2 SWAP1 POP JUMP JUMPDEST PUSH1 0x0 DUP3 DUP3 MSTORE PUSH1 0x20 DUP3 ADD SWAP1 POP SWAP3 SWAP2 POP POP JUMP JUMPDEST PUSH1 0x0 JUMPDEST DUP4 DUP2 LT ISZERO PUSH2 0x942 JUMPI DUP1 DUP3 ADD MLOAD DUP2 DUP5 ADD MSTORE PUSH1 0x20 DUP2 ADD SWAP1 POP PUSH2 0x927 JUMP JUMPDEST DUP4 DUP2 GT ISZERO PUSH2 0x951 JUMPI PUSH1 0x0 DUP5 DUP5 ADD MSTORE JUMPDEST POP POP POP POP JUMP JUMPDEST PUSH1 0x0 PUSH2 0x962 DUP3 PUSH2 0x908 JUMP JUMPDEST PUSH2 0x96C DUP2 DUP6 PUSH2 0x913 JUMP JUMPDEST SWAP4 POP PUSH2 0x97C DUP2 DUP6 PUSH1 0x20 DUP7 ADD PUSH2 0x924 JUMP JUMPDEST PUSH2 0x985 DUP2 PUSH2 0x714 JUMP JUMPDEST DUP5 ADD SWAP2 POP POP SWAP3 SWAP2 POP POP JUMP JUMPDEST PUSH2 0x999 DUP2 PUSH2 0x636 JUMP JUMPDEST DUP3 MSTORE POP POP JUMP JUMPDEST PUSH2 0x9A8 DUP2 PUSH2 0x68C JUMP JUMPDEST DUP3 MSTORE POP POP JUMP JUMPDEST PUSH1 0x0 PUSH1 0x80 DUP3 ADD SWAP1 POP DUP2 DUP2 SUB PUSH1 0x0 DUP4 ADD MSTORE PUSH2 0x9C8 DUP2 DUP8 PUSH2 0x957 JUMP JUMPDEST SWAP1 POP DUP2 DUP2 SUB PUSH1 0x20 DUP4 ADD MSTORE PUSH2 0x9DC DUP2 DUP7 PUSH2 0x957 JUMP JUMPDEST SWAP1 POP PUSH2 0x9EB PUSH1 0x40 DUP4 ADD DUP6 PUSH2 0x990 JUMP JUMPDEST PUSH2 0x9F8 PUSH1 0x60 DUP4 ADD DUP5 PUSH2 0x99F JUMP JUMPDEST SWAP6 SWAP5 POP POP POP POP POP JUMP JUMPDEST PUSH1 0x0 PUSH1 0x20 DUP3 ADD SWAP1 POP PUSH2 0xA16 PUSH1 0x0 DUP4 ADD DUP5 PUSH2 0x990 JUMP JUMPDEST SWAP3 SWAP2 POP POP JUMP JUMPDEST PUSH32 0x4F6E6C79207468652063757272656E74206F776E65722063616E207472616E73 PUSH1 0x0 DUP3 ADD MSTORE PUSH32 0x666572206F776E65727368697000000000000000000000000000000000000000 PUSH1 0x20 DUP3 ADD MSTORE POP JUMP JUMPDEST PUSH1 0x0 PUSH2 0xA78 PUSH1 0x2D DUP4 PUSH2 0x913 JUMP JUMPDEST SWAP2 POP PUSH2 0xA83 DUP3 PUSH2 0xA1C JUMP JUMPDEST PUSH1 0x40 DUP3 ADD SWAP1 POP SWAP2 SWAP1 POP JUMP JUMPDEST PUSH1 0x0 PUSH1 0x20 DUP3 ADD SWAP1 POP DUP2 DUP2 SUB PUSH1 0x0 DUP4 ADD MSTORE PUSH2 0xAA7 DUP2 PUSH2 0xA6B JUMP JUMPDEST SWAP1 POP SWAP2 SWAP1 POP JUMP JUMPDEST PUSH32 0x496E76616C6964206E6577206F776E6572206164647265737300000000000000 PUSH1 0x0 DUP3 ADD MSTORE POP JUMP JUMPDEST PUSH1 0x0 PUSH2 0xAE4 PUSH1 0x19 DUP4 PUSH2 0x913 JUMP JUMPDEST SWAP2 POP PUSH2 0xAEF DUP3 PUSH2 0xAAE JUMP JUMPDEST PUSH1 0x20 DUP3 ADD SWAP1 POP SWAP2 SWAP1 POP JUMP JUMPDEST PUSH1 0x0 PUSH1 0x20 DUP3 ADD SWAP1 POP DUP2 DUP2 SUB PUSH1 0x0 DUP4 ADD MSTORE PUSH2 0xB13 DUP2 PUSH2 0xAD7 JUMP JUMPDEST SWAP1 POP SWAP2 SWAP1 POP JUMP JUMPDEST PUSH1 0x0 PUSH1 0x40 DUP3 ADD SWAP1 POP PUSH2 0xB2F PUSH1 0x0 DUP4 ADD DUP6 PUSH2 0x99F JUMP JUMPDEST PUSH2 0xB3C PUSH1 0x20 DUP4 ADD DUP5 PUSH2 0x99F JUMP JUMPDEST SWAP4 SWAP3 POP POP POP JUMP JUMPDEST PUSH32 0x4E487B7100000000000000000000000000000000000000000000000000000000 PUSH1 0x0 MSTORE PUSH1 0x11 PUSH1 0x4 MSTORE PUSH1 0x24 PUSH1 0x0 REVERT JUMPDEST PUSH1 0x0 PUSH2 0xB7D DUP3 PUSH2 0x636 JUMP JUMPDEST SWAP2 POP PUSH32 0xFFFFFFFFFFFFFFFFFFFFFFFFFFFFFFFFFFFFFFFFFFFFFFFFFFFFFFFFFFFFFFFF DUP3 EQ ISZERO PUSH2 0xBB0 JUMPI PUSH2 0xBAF PUSH2 0xB43 JUMP JUMPDEST JUMPDEST PUSH1 0x1 DUP3 ADD SWAP1 POP SWAP2 SWAP1 POP JUMP JUMPDEST PUSH32 0x4E487B7100000000000000000000000000000000000000000000000000000000 PUSH1 0x0 MSTORE PUSH1 0x22 PUSH1 0x4 MSTORE PUSH1 0x24 PUSH1 0x0 REVERT JUMPDEST PUSH1 0x0 PUSH1 0x2 DUP3 DIV SWAP1 POP PUSH1 0x1 DUP3 AND DUP1 PUSH2 0xC02 JUMPI PUSH1 0x7F DUP3 AND SWAP2 POP JUMPDEST PUSH1 0x20 DUP3 LT DUP2 EQ ISZERO PUSH2 0xC16 JUMPI PUSH2 0xC15 PUSH2 0xBBB JUMP JUMPDEST JUMPDEST POP SWAP2 SWAP1 POP JUMP INVALID LOG2 PUSH5 0x6970667358 0x22 SLT KECCAK256 DUP3 0xEE 0xC9 MOD ADD ADDRESS PUSH3 0x47846B PUSH24 0x4F998119633DAFCF668CBC28AB52DEE624DDCB8CDD64736F PUSH13 0x634300080B0033000000000000 "
		},
		"gasEstimates": {
			"creation": {
				"codeDepositCost": "630800",
				"executionCost": "664",
				"totalCost": "631464"
			},
			"external": {
				"addVaccine(string,string,uint256)": "infinite",
				"getVaccineDetails(uint256)": "infinite",
				"transferVaccineOwnership(uint256,address)": "infinite",
				"vaccineCount()": "2473"
			}
		},
		"methodIdentifiers": {
			"addVaccine(string,string,uint256)": "b0cf057f",
			"getVaccineDetails(uint256)": "bcc39188",
			"transferVaccineOwnership(uint256,address)": "a9d67e62",
			"vaccineCount()": "dcb7b1b7"
		}
	},
	"abi": [
		{
			"anonymous": false,
			"inputs": [
				{
					"indexed": true,
					"internalType": "uint256",
					"name": "id",
					"type": "uint256"
				},
				{
					"indexed": false,
					"internalType": "string",
					"name": "vaccineName",
					"type": "string"
				},
				{
					"indexed": false,
					"internalType": "string",
					"name": "manufacturer",
					"type": "string"
				},
				{
					"indexed": false,
					"internalType": "uint256",
					"name": "lotNumber",
					"type": "uint256"
				},
				{
					"indexed": false,
					"internalType": "address",
					"name": "owner",
					"type": "address"
				}
			],
			"name": "vaccineAdded",
			"type": "event"
		},
		{
			"anonymous": false,
			"inputs": [
				{
					"indexed": true,
					"internalType": "uint256",
					"name": "id",
					"type": "uint256"
				},
				{
					"indexed": false,
					"internalType": "address",
					"name": "from",
					"type": "address"
				},
				{
					"indexed": false,
					"internalType": "address",
					"name": "to",
					"type": "address"
				}
			],
			"name": "vaccineTransferred",
			"type": "event"
		},
		{
			"inputs": [
				{
					"internalType": "string",
					"name": "_vaccineName",
					"type": "string"
				},
				{
					"internalType": "string",
					"name": "_manufacturer",
					"type": "string"
				},
				{
					"internalType": "uint256",
					"name": "_lotNumber",
					"type": "uint256"
				}
			],
			"name": "addVaccine",
			"outputs": [],
			"stateMutability": "nonpayable",
			"type": "function"
		},
		{
			"inputs": [
				{
					"internalType": "uint256",
					"name": "_id",
					"type": "uint256"
				}
			],
			"name": "getVaccineDetails",
			"outputs": [
				{
					"internalType": "string",
					"name": "",
					"type": "string"
				},
				{
					"internalType": "string",
					"name": "",
					"type": "string"
				},
				{
					"internalType": "uint256",
					"name": "",
					"type": "uint256"
				},
				{
					"internalType": "address",
					"name": "",
					"type": "address"
				}
			],
			"stateMutability": "view",
			"type": "function"
		},
		{
			"inputs": [
				{
					"internalType": "uint256",
					"name": "_id",
					"type": "uint256"
				},
				{
					"internalType": "address",
					"name": "_newOwner",
					"type": "address"
				}
			],
			"name": "transferVaccineOwnership",
			"outputs": [],
			"stateMutability": "nonpayable",
			"type": "function"
		},
		{
			"inputs": [],
			"name": "vaccineCount",
			"outputs": [
				{
					"internalType": "uint256",
					"name": "",
					"type": "uint256"
				}
			],
			"stateMutability": "view",
			"type": "function"
		}
	]
}